:100000000C94B90A0C94C7100C949C100C947110A9
:100010000C94FC0F0C94870F0C94120F0C949D0EF3
:100020000C94743D0C94E30A0C94E30A0C94E30AD8
:100030000C94F34B0C94A14C0C94A84B0C94E30A35
:100040000C94E30A0C94E30A0C9463800C94E30A86
:100050000C94785D0C944E5D0C94E30A0C94E30AC6
:100060000C94E30A0C94E30A0C94407E0C94E30A8B
:100070000C94185D0C94EE5C0C94E30A0C94E30A67
:100080000C94E30A0C94E30A0C94E30A007E037ECA
:10009000F67DFA7D1A7E1A7E077E0B7E117E157E16
:1000A00008000000BE922449123EABAAAA2ABECD87
:1000B000CCCC4C3E00000080BEABAAAAAA3E0000F9
:1000C0000000BF000000803F0000000000084178F1
:1000D000D3BB4387D1133D190E3CC3BD4282AD2B28
:1000E0003E68EC8276BED98FE1A93E4C80EFFFBE20
:1000F00001C4FF7F3F000000000007634236B79B4A
:10010000D8A71A39685618AEBAAB558C1D3CB7CC77
:100110005763BD6DEDFD753EF6177231BF000000EF
:10012000803F4E414E494E495459494E46CDCCCC64
:100130003D0AD7233C17B7D13877CC2B329595E6BB
:10014000241FB14F0A000020410000C84200401C9B
:100150004620BCBE4CCA1B0E5AAEC59D7400407AE8
:1001600010F35A00A0724E18090010A5D4E8000040
:10017000E87648170000E40B54020000CA9A3B00DE
:100180000000E1F505000080969800000040420F55
:10019000000000A08601000000102700000000E819
:1001A00003000000006400000000000A00000000DE
:1001B000000100000000002C76D888DC674F08237F
:1001C000DFC1DFAE59E1B1B796E5E3E453C63AE6E5
:1001D00051997696E8E6C28426EB898C9B62ED40C5
:1001E0007C6FFCEFBC9C9F40F2BAA56FA5F4900514
:1001F0005A2AF75C936B6CF9676DC11BFCE0E40D48
:1002000047FEF520E6B500D0ED902E03009435773B
:10021000050080841E080000204E0A000000C80C63
:10022000333333330F986E12831141EF8D211489CC
:100230003BE65516CFFEE6DB18D1844B381BF77C26
:100240001D901DA4BBE424203284725E228100C96B
:10025000F124ECA1E53D270A4C6F676765723A739C
:1002600065744C6F676765724964206572726F725E
:10027000202D206578706563746564204E554C4C64
:1002800020707472000A0D2020204C6F6767657221
:100290003A7365744C6F67676572496420746F6F59
:1002A000206C6F6E673A205472696D6D65642074BE
:1002B0006F20002020204C6F633D006261747465E4
:1002C000727920747970653D006D696E757465731F
:1002D0002C20547A3D005D0A0D2020206C6F67674A
:1002E000696E6720696E74657276616C3D00467256
:1002F0006F6D20656570726F6D20636F6D6D6F6ED1
:100300003A204C6F676765722046696C65204E61C4
:100310006D655B00466163746F7279206465666128
:10032000756C74006D734C6F673031005D005D203B
:10033000736E5B005D20207265765B0046726F6DA8
:1003400020656570726F6D20626F6F74204E616DF5
:10035000655B00302E3562004D313233343536372F
:100360003839616263646566676800656E766972D4
:100370006F444959206D6179666C790050617273E0
:100380006520696E693B204E6F2066696C652000B0
:10039000436F6D706C657465642E004572726F7288
:1003A000206F6E206C696E65203A00506172736533
:1003B00020696E693B200056005620474F4F443D50
:1003C0000056204D454449554D3D0056204C4F5751
:1003D0003D00205468726573686F6C6473205553D8
:1003E0004541424C453D0042617474657279205428
:1003F0007970653D0050757474696E67206D6F6427
:10040000656D20746F20736C65657000436F756C4B
:1004100064206E6F742077616B65206D6F64656D0D
:1004200020666F7220636C6F636B2073796E632E2E
:1004300000436F756C64206E6F7420636F6E6E6521
:10044000637420746F20696E7465726E65742066C3
:100450006F7220636C6F636B2073796E632E005430
:10046000686973206D61792074616B6520757020F7
:10047000746F2074776F206D696E757465732100D9
:10048000417474656D7074696E6720746F20636F5A
:100490006E6E65637420746F2074686520696E7475
:1004A00065726E657420616E642073796E63687224
:1004B0006F6E697A65205254432077697468204EC4
:1004C00049535400446174612077696C6C20626503
:1004D00020736176656420617300556E61626C659E
:1004E00020746F2063726561746520612066696C99
:1004F0006520746F20736176652064617461207477
:100500006F210053657474696E6720757020666989
:100510006C65206F6E2053442063617264005365E4
:100520007474696E672075702073656E736F727373
:100530002E2E2E0054696D6520000A0A2D2D2D7077
:1005400061727365496E6920636F6D706C65746567
:1005500020002D2D2D7061727365496E6920004752
:100560006F6F6420426174563D002D2D2D2D576113
:100570006B657570003A20426174746572794C6FD6
:10058000772D536C65657036307365632C2042613E
:1005900074563D0054696E7947534D204C69627220
:1005A0006172792076657273696F6E20004D6F6499
:1005B000756C617253656E736F72732076657273BA
:1005C000696F6E20000A2D2D2D426F6F742E204210
:1005D00075696C643A20005D000A53656E64696E4B
:1005E00067206461746120746F205B002D2D2D2DB8
:1005F0002D2D2D2D2D2D2D2D2D2D2D2D2D2D2D2D2B
:100600002D2D2D2D2D2D2D2D2D2D2D2D2D2D2D2D1A
:100610002D2D2D2D2D2D0A002D2D2D2D2D2D2D2D5A
:100620002D2D2D2D2D2D2D2D2D2D2D2D2D2D2D2DFA
:100630002D2D2D2D2D2D2D2D2D2D2D2D2D2D2D2DEA
:100640002D2D00204C626174743D00206C6F672674
:1006500050756220565F6261747400204C62617450
:10066000743D00204C6F674F6E6C792E20562074BD
:100670006F6F206C6F772062617474657279563D7C
:10068000002D2D2D4E657752656164696E6720439C
:10069000414E43454C4C45442D2D4C626174745F72
:1006A000563D004552524F52004C4100544D0054AB
:1006B0004D3000544D00414D3000465200414D3107
:1006C0000041503000414D30004149002B2B2B00A0
:1006D0003A3030003A3030003A3030003A303000B2
:1006E00021212121212121212121212121212121FA
:1006F00021212121202D2D2D2D2D205741524E49D4
:100700004E47202D2D2D2D2D20002121212121216D
:1007100021212121202D2D2D2D2D205741524E49B3
:100720004E47202D2D2D2D2D20212121212121212C
:10073000212121002D2D2D2D2D205741524E494E86
:1007400047202D2D2D2D2D20212121212121212139
:1007500021212121212121212121212100546865EC
:100760002063757272656E7420636C6F636B2074A6
:10077000696D657374616D70206973206E6F74208C
:1007800076616C696421002121212121212121210F
:100790002121212121212121212121202D2D2D2D1A
:1007A0002D205741524E494E47202D2D2D2D2D20C5
:1007B0000021212121212121212121202D2D2D2D1B
:1007C0002D205741524E494E47202D2D2D2D2D20A5
:1007D00021212121212121212121002D2D2D2D2DEE
:1007E000205741524E494E47202D2D2D2D2D202191
:1007F00021212121212121212121212121212121E9
:100800002121210027002720736E3A2700207265DE
:10081000763A2700426F6172643A2000204D6F647F
:10082000756C617253656E736F7273207665727347
:1008300020005377204275696C643A2000202042E2
:10084000617474657279547970653A200020547A25
:100850003A200020204C6F6767696E67496E7465A7
:100860007276616C20286D696E293A20004C6F63A6
:100870006174696F6E3A20004461746520616E6432
:100880002054696D6520696E20555443005265738C
:10089000756C7420555549443A00526573756C74F3
:1008A00020556E69743A005661726961626C652008
:1008B0004E616D653A0053656E736F72204E616DC7
:1008C000653A0053616D706C696E672046656174AE
:1008D00075726520555549443A2000446174612081
:1008E0004C6F676765722046696C653A2000446109
:1008F0007461204C6F676765723A200020002069A0
:10090000732000207265706F7274732000200020C5
:1009100069732063616C63756C6174656420746FC6
:1009200020626520002D2D2D2D2D2D2D2D2D2D2DD1
:100930002D2D2D2D2D2D2D2D2D2D2D2D2D2D2D2DE7
:100940002D2D2D2D2D2D2D2D2D2D2D2D2D2D2D0004
:1009500045786974696E672074657374696E672081
:100960006D6F6465002D2D2D2D2D2D2D2D2D2D2DF3
:100970002D2D2D2D2D2D2D2D2D2D2D2D002D2D2DD4
:100980002D2D2D2D2D2D2D2D2D2D2D2D2D2D2D2D97
:100990002D2D2D2D0043757272656E74206C6F675E
:1009A0006765722074696D65206973002D2D2D2D8A
:1009B0002D2D2D2D2D2D2D2D2D2D2D2D2D2D2D2D67
:1009C0002D2D2D2D2D2D2D2D2D2D2D2D2D2D2D2D57
:1009D0002D2D2D2D2D2D00456E746572696E6720AD
:1009E00073656E736F722074657374696E67206DC2
:1009F0006F6465002D2D2D2D2D2D2D2D2D2D2D2DA3
:100A00002D2D2D2D2D2D2D2D2D2D2D2D2D2D2D2D16
:100A10002D2D2D2D2D2D2D2D2D2D2D2D2D2D002D33
:100A20003E00416C6C207661726961626C65205594
:100A300055494427732061707065617220746F207E
:100A4000626520636F72726563746C7920666F7281
:100A50006D65642E0A006861732061206E6F6E2DD3
:100A6000756E69717565205555494421006861733B
:100A700020616E20696E76616C6964205555494429
:100A800021004C6F6767657220706F7274696F6EBA
:100A9000206F662073657475702066696E6973686F
:100AA00065642E0A0053616D706C696E672066651F
:100AB000617475726520555549442069733A006127
:100AC00072652063616C63756C617465642E00737C
:100AD000656E736F727320616E6400636F6D652065
:100AE00066726F6D007661726961626C65732C204D
:100AF0006F662077686963680054686973206C6F5B
:100B00006767657220686173206120766172696130
:100B1000626C652061727261792077697468004344
:100B2000757272656E74205254432074696D65202D
:100B300069733A0000414D31002556005450004180
:100B40004D00414D00414D3000414E004D4E00449E
:100B50006967692058626565332073657475702014
:100B60006661696C65642100446967692058626543
:100B70006533207365747570205375636573732EC8
:100B800020526567697374726174696F6E20270003
:100B9000547279202B435245472027002B4352455E
:100BA00047004149004C6F6F703D5365635D207293
:100BB00078206462203A2053746174757320272072
:100BC0004F70657261746F7220272023506F6C6CB8
:100BD00065642043656C6C20537461747573206583
:100BE0007665727920317365630041503000544D51
:100BF000005031005444304100444F00534F0053E3
:100C00004D0050300044350044370044390045520F
:100C1000524F520D004F4B0D004438001F1C1F1E39
:100C20001F1E1F1F1E1F1E1F4E4953542054696D47
:100C3000652073657276657220646964206E6F74D6
:100C400020726573706F6E6421006D73004E49539E
:100C50005420726573706F6E64656420616674659C
:100C600072005D20436F6E6E65637420002D2D2031
:100C7000526573706F6E736520436F6465202D2D10
:100C8000000A202D2D20556E61626C6520746F2046
:100C900045737461626C69736820436F6E6E65633F
:100CA00074696F6E20746F20456E7669726F444967
:100CB00059204461746120506F7274616C202D2D35
:100CC000006D6F646275735F30780050696E00412B
:100CD0004300575200434E004853004853000A4C0B
:100CE0006F676765724D6F64656D3A3A73657441FD
:100CF000504E206572726F72202D6E6F2062756685
:100D000066657220000A4C6F676765724D6F646597
:100D10006D3A3A73657441504E206572726F72205D
:100D20002D206578706563746564204E554C4C20A9
:100D3000707472000A0D2020204C6F676765724D39
:100D40006F64656D3A73657441504E20746F6F2007
:100D50006C6F6E673A205472696D6D656420746FB4
:100D600020003D005D20004E6F7420737570706F21
:100D700072746564205B00414354494F4E205772A2
:100D80006974652061626F727465642E20696E7388
:100D90007472756374696F6E202700414354494F24
:100DA0004E20434F5059206E6F7420737570706FD2
:100DB00072746564207965743A00434F5059004558
:100DC0004550524F4D2057726974652066696E69AF
:100DD0007368656400414354494F4E2057726974EB
:100DE000652061707020454550524F4D20737461ED
:100DF000727465643A00575249544500414354495E
:100E00004F4E00555345520020746F2000424F4F03
:100E100054207462642000454550524F4D20577253
:100E20006974652061626F727465642E20696E73E7
:100E30007472756374696F6E202700454550524F78
:100E40004D2057726974652066696E6973686564C0
:100E500000454550524F4D20577269746520737498
:100E600061727465643A0059455300454550524FCC
:100E70004D5F575249544500426F6172642052657C
:100E8000763A00424F4152445F52455600426F61EC
:100E900072642053657269616C4E756D203A004230
:100EA0004F4152445F534E00426F617264204E6165
:100EB0006D653A00424F4152445F4E414D450042FC
:100EC0004F4F540020746F20004E4554574F524BE3
:100ED000207462642000272C206E6F772073657465
:100EE00020746F2027004E4554574F524B204150DD
:100EF0004E2077617320270061706E004E45545775
:100F00004F524B0020746F200053454E534F5253A5
:100F100020746264200053454E534F525300207496
:100F20006F2000434F4D4D4F4E20746264200047A8
:100F3000454F47524150484943414C5F49443A006C
:100F400047454F47524150484943414C5F4944004F
:100F5000434F4D4D4F4E205365742054696D655A73
:100F60006F6E65206572726F723B202872616E67CA
:100F700065202D3132203A202B31322920726561D3
:100F8000643A00434F4D4D4F4E20536574205469D1
:100F90006D655A6F6E65203B200054494D455F5A80
:100FA0004F4E450020536574204C69496F6E2054A4
:100FB000797065206572726F723B202872616E676E
:100FC0006520302D322920726561643A00434F4D0F
:100FD0004D4F4E204C69496F6E20547970653A2010
:100FE000004C49494F4E5F54595045002053657499
:100FF000204C69496F6E2054797065206572726F5C
:10100000723B202872616E676520302D3229207274
:101010006561643A00434F4D4D4F4E2042617474F8
:1010200065727920547970653A20004241545445E4
:1010300052595F54595045002920776974682072CD
:101040006561643A002053657420696E7465727638
:10105000616C206572726F72202872616E67653AEA
:1010600020312D00286D696E292066726F6D206415
:10107000656661756C742000434F4D4D4F4E204C9A
:101080004F4747494E475F494E54455256414C5F82
:101090004D494E555445532073657420746F3A2062
:1010A00000205573696E67204D61782E205265616E
:1010B00064696E672069676E6F7265642000434FD4
:1010C0004D4D4F4E204C4F4747494E475F494E5478
:1010D000455256414C5F4D494E55544553206D7510
:1010E0007374206265206C657373207468616E2070
:1010F0003A20004C4F4747494E475F494E544552AE
:1011000056414C5F4D494E5554455300434F4D4D4C
:101110004F4E204C6F676765724964205365743A7F
:1011200020004C4F474745525F494400434F4D4DC7
:101130004F4E007D2055554944206E6F74207375C5
:1011400070706F72746564007D206F7574206F66B7
:101150002072616E67652E204E6F74757365640032
:101160007D007D207265706C6163696E67207B0015
:10117000696E646578007D206D6174636820202647
:101180002061646465642E003D7B00005555494430
:10119000730050524F5649444552206E6F7420736D
:1011A0007570706F727465643A0050524F564944BE
:1011B00045522053657474696E672053616D706C7D
:1011C000696E67466561747572653A200053414DDA
:1011D000504C494E475F4645415455524500505288
:1011E0004F56494445522053657474696E672063B5
:1011F0006C6F756449643A2000434C4F55445F4915
:10120000440050524F564944455220536574746906
:101210006E6720726567697374726174696F6E209E
:10122000746F6B656E3A20005245474953545241E2
:1012300054494F4E5F544F4B454E0050524F564904
:10124000444552004932435F30783638005F506978
:101250006E0053444931322D004552524F522120E5
:101260004E6F2077656220636C69656E74206173D0
:101270007369676E656420746F207075626C697342
:1012800068206461746121004442004C4D004D5956
:10129000007365636F6E6473206F66204E4953540C
:1012A0002E00496E7465726E616C20436C6F636BC7
:1012B0002077697468696E2000496E7465726E618A
:1012C0006C20436C6F636B20736574200042616413
:1012D0002074696D657374616D702C206E6F74205D
:1012E00073657474696E6720636C6F636B2E004561
:1012F00052524F52004F4400544D00544D0044454B
:1013000000444C00495000435436340047543634AE
:10131000004552524F520D004F4B0D0041503000CE
:10132000434900736574566172555549442065728E
:10133000726F72202D206E6577206469646E277449
:1013400020776F726B20666F72002D2D2D2D2D2052
:101350005741524E494E47202D2D2D2D2D20212114
:10136000212121212121212121212121212121216D
:101370002121004261642074696D652000212121D2
:10138000212121212121212121212121212121214D
:1013900021202D2D2D2D2D205741524E494E4720D5
:1013A0002D2D2D2D2D2000446174612077696C6CEA
:1013B000206E6F742062652073617665642100532E
:1013C0006C6176652F436869702073656C65637422
:1013D0002070696E20666F722053442063617264CE
:1013E00020686173206E6F74206265656E2073657E
:1013F000742E00446174612077696C6C206E6F7488
:1014000020626520736176656421004572726F7297
:101410003A2053442063617264206661696C65649C
:1014200020746F20696E697469616C697A65206FD8
:1014300072206973206D697373696E672E002D2D9C
:101440002D2D5C2F000A205C2F2D2D2D2D204C6979
:101450006E6520536176656420746F00556E61621D
:101460006C6520746F20777269746520746F2053E7
:1014700044206361726421002D2D2D2D2D2D2D2DE5
:101480002D2D2D2D2D2D2D2D2D2D2D2D2D2D2D2D8C
:101490002D2D2D2D2D2D2D2D2D2D2D2D2D2D2D2D7C
:1014A0002D2D0A002D2D2D2D2D2D2D2D2D2D2D2DBC
:1014B0002D2D2D2D2D2D2D2D2D2D2D2D2D2D2D2D5C
:1014C0002D2D2D2D2D2D2D2D2D2D2D2D2D2D0000A6
:1014D0000020002300260029000001020304050665
:1014E00007000102030405060700010203040506C4
:1014F00007000102030405060704040404040404AD
:1015000004020202020202020203030303030303B2
:101510000301010101010101010102040810204041
:1015200080010204081020408001020408102040BD
:1015300080010204081020408000002100240027C0
:10154000002A0000002200250028002B00000000D7
:101550000004030807000000010200090A0000005F
:1015600000000000000000000000000000003489BE
:10157000019111241FBECFEFD0E4DEBFCDBF19E033
:10158000A0E0B1E0E2E3FEE301E00BBF02C00790A0
:101590000D92A83CB107D9F729E1A8ECB9E001C048
:1015A0001D92A832B207E1F71AE0C8EBDAE004C0F6
:1015B0002197FE010E94D99AC73BD107C9F70E9423
:1015C000AD800C940C9F0C940000DC01ED91FC911B
:1015D0000688F789E02D099591E0811101C090E01E
:1015E000892F08950F931F93CF93DF9300D000D0DE
:1015F00000D0CDB7DEB78C01DC01ED91FC91008409
:10160000F185E02D0995892BC9F41B821C821D826E
:101610001E82D8011C96ED91FC911D97458556853B
:10162000678570898B819C81AD81BE814817590780
:101630006A077B0729F0F801858903C081E001C0B2
:1016400080E026960FB6F894DEBF0FBECDBFDF91C7
:10165000CF911F910F910895DC011C96ED91FC91A3
:101660001D9780819181DC01ED91FC910680F781CD
:10167000E02D0994DC011C96ED91FC911D97808171
:101680009181DC01ED91FC910484F585E02D0994B4
:10169000CF93DF931F92CDB7DEB76983DC01ED9165
:1016A000FC910280F381E02D41E050E0BE016F5FCC
:1016B0007F4F09950F90DF91CF9108950F931F935E
:1016C000CF93DF9300D000D000D0CDB7DEB7DC01E0
:1016D000ED91FC91048CF58DE02D2AE533E03A8301
:1016E0002983DB0112960D911D912D913C91159747
:1016F0000B831C832D833E8320E030E0BE016F5FAF
:101700007F4F099526960FB6F894DEBF0FBECDBF6A
:10171000DF91CF911F910F910895DC01ED91FC9124
:10172000028CF38DE02D2BE430E009948091CA09FE
:101730008111FCCF08958091C9098F5F843408F02E
:1017400080E09091C8099817E1F32FB7F894909131
:10175000CA09992341F0E82FF0E0EC57FC4E608372
:101760008093C9091DC081E08093CA096093C913A1
:101770001092C81382E086BB80916F0082608093D4
:101780006F00809180008F7B8068809380008091C3
:101790008400909185004096909389008093880002
:1017A0002FBF81E090E00895FC01848583FF0DC088
:1017B00084A195A1A6A1B7A1448D558D668D778D85
:1017C000841B950BA60BB70B03C080E090E0DC01F7
:1017D000811520E89207A105B10520F08FEF9FE762
:1017E000A0E0B0E0089580E090E00895CF93DF930B
:1017F000EC0162E070E080E090E00E941D80EC85EA
:10180000FD8580819181DC01ED91FC910284F3855D
:10181000E02DDF91CF910994CF93DF93EC0162E04B
:1018200070E080E090E00E941D80EC85FD85808165
:101830009181DC01ED91FC910084F185E02DDF9137
:10184000CF910994EF92FF920F931F93CF93DF9361
:101850007C01EB018A0162E070E080E090E00E9490
:101860001D80D7011C96ED91FC911D97A801BE012A
:1018700080819181DF91CF911F910F91FF90EF9027
:101880000C94B35BEF92FF920F931F93CF93DF9370
:10189000EC018B017A0162E070E080E090E00E9450
:1018A0001D80A701B8018C859D85DF91CF911F9187
:1018B0000F91FF90EF900C943962CF92DF92EF92EC
:1018C000FF920F931F93CF93DF9300D000D000D0EF
:1018D000CDB7DEB78C016B017A01FC01848595855B
:1018E0000E940D2FF80126858AE593E09A8389836B
:1018F000F60182819381A481B5818B839C83AD8322
:10190000BE83A701BE016F5F7F4FF8018485958577
:101910000E94515FF801858B90E026960FB6F894EF
:10192000DEBF0FBECDBFDF91CF911F910F91FF9012
:10193000EF90DF90CF9008950C960C9450648F92A6
:101940009F92AF92BF92CF92DF92EF92FF920F934E
:101950001F93CF93DF931F92CDB7DEB78C01FC01AD
:10196000848C958CA68CB78CC08CD18CE28CF38C3B
:10197000BE016F5F7F4F0C960E947763019719F449
:10198000898190E002C08FEF9FEF8F3FFFEF9F07AD
:1019900049F0F801848E958EA68EB78EC08ED18EBA
:1019A000E28EF38E0F90DF91CF911F910F91FF90F8
:1019B000EF90DF90CF90BF90AF909F908F90089561
:1019C000CF93DF931F92CDB7DEB7BE016F5F7F4F1E
:1019D0000C960E947763019719F4898190E002C008
:1019E0008FEF9FEF0F90DF91CF9108950C960C949D
:1019F0006E278F929F92AF92BF92DF92EF92FF92EB
:101A00000F931F93CF93DF93EC01D62E1BA11123CD
:101A100091F00E9457808CA09DA0AEA0BFA0DC01D9
:101A2000CB0188199909AA09BB0980319742A10500
:101A3000B10508F454C0CE010E940D2F84E0F82EA9
:101A4000E12CDE1409F44AC06E817F81665F7F4F0E
:101A5000072E000C880B990B0E941D806CEC76E021
:101A6000888199810E94B85C4E815F81440F551F27
:101A7000052E000C660B770B01E113E128E133E141
:101A8000CE010E943867182F81111BC0FA94F11003
:101A900018C08A8587FD0DC060E00E949B7F61E0D1
:101AA00070E080E090E00E941D8061E08A850E94E5
:101AB0009B7F6AEF70E080E090E00E941D8094E0E0
:101AC000F92EE394113009F0BCCF1BA30E9457807C
:101AD0006CA37DA38EA39FA311E001C010E0812F12
:101AE000DF91CF911F910F91FF90EF90DF90BF900A
:101AF000AF909F908F9008958F929F92AF92BF92D8
:101B0000FF920F931F93CF93DF93EC01FBA0FF2075
:101B100021F08BA1882331F008C065E00E94F90C08
:101B20008111F7CF84E090E0FEC088859985892BEC
:101B300019F4CE010E94B34569EC76E0CE010E9413
:101B4000BB7140E157E260E070E0CE010E94644565
:101B5000288539852130364009F0A8C083329105A7
:101B600009F4D7C05CF4833091052CF481309105E1
:101B70000CF4A6C0B9C0439789F0C9C0833491055D
:101B80000CF0AFC0803491050CF0AEC084329105EA
:101B900009F4ACC0879709F4A9C0B9C065E0CE01CB
:101BA0000E94F90C882309F4B4C088859985892B93
:101BB00019F4CE010E94B3458885998581309640FD
:101BC000B9F06DEB76E0CE010E94BB7141E153E1CB
:101BD00068E173E1CE010E946F68813021F0CE018F
:101BE0000E942E4596C0CE010E9440458823B9F33D
:101BF0006AEB76E0CE010E94BB7141E153E168E1FE
:101C000073E1CE010E946F68813049F71BA288857D
:101C100099858130964029F460ED77E080E090E08E
:101C200004C064E670E080E090E00E941D800E94A5
:101C300057804B015C010E945780DC01CB01881961
:101C40009909AA09BB0980369A4EA105B10568F425
:101C500061E0CE010E94F90C811107C06AEF70E0CB
:101C600080E090E00E941D80E6CF888599858130D4
:101C70009640A9F066EB76E0CE010E94BB7141E18F
:101C800053E168E173E1CE010E946F68813009F091
:101C9000A6CFCE010E944045882309F4A0CFCE01F3
:101CA0000E942E45CE010E947C6833C0853291058A
:101CB000E9F04CF48432910554F582329105A4F494
:101CC000892B49F124C08D32910544F48B32910562
:101CD000F4F48A97E1F465EC76E00CC08F3291055C
:101CE00039F08F3F910599F402E016C003E014C06B
:101CF00061EC76E0CE010E94BB7141E153E168E105
:101D000073E1CE010E946F68CE010E94404504E05D
:101D100003C001E001C000E010E0F11003C0CE01FB
:101D20000E942E45C801DF91CF911F910F91FF9026
:101D3000BF90AF909F908F9008951F920F920FB613
:101D40000F9211240BB60F922F933F934F935F93F3
:101D50006F937F938F939F93AF93BF93CF93EF93A3
:101D6000FF9329B1C09188188091D0189091CC1818
:101D7000322F309593238223892B90917300C227B1
:101D8000C923C82320938818CC23C1F1C0FF05C004
:101D9000E0918918F0918A180995C1FF05C0E0917A
:101DA0008B18F0918C180995C2FF05C0E0918D1831
:101DB000F0918E180995C3FF05C0E0918F18F0913E
:101DC00090180995C4FF05C0E0919118F091921800
:101DD0000995C5FF05C0E0919318F09194180995F5
:101DE000C6FF05C0E0919518F09196180995C7FFB8
:101DF00005C0E0919718F09198180995FF91EF911F
:101E0000CF91BF91AF919F918F917F916F915F9192
:101E10004F913F912F910F900BBE0F900FBE0F90DF
:101E20001F9018951F920F920FB60F9211240BB6A8
:101E30000F922F933F934F935F936F937F938F9363
:101E40009F93AF93BF93CF93EF93FF9326B1C0912E
:101E500099188091D1189091CD18322F30959323F5
:101E60008223892B90916D00C227C923C823209318
:101E70009918CC23C1F1C0FF05C0E0919A18F091E8
:101E80009B180995C1FF05C0E0919C18F0919D1821
:101E90000995C2FF05C0E0919E18F0919F18099521
:101EA000C3FF05C0E091A018F091A1180995C4FFE7
:101EB00005C0E091A218F091A3180995C5FF05C0CF
:101EC000E091A418F091A5180995C6FF05C0E0910E
:101ED000A618F091A7180995C7FF05C0E091A818AA
:101EE000F091A9180995FF91EF91CF91BF91AF9112
:101EF0009F918F917F916F915F914F913F912F9122
:101F00000F900BBE0F900FBE0F901F9018951F9251
:101F10000F920FB60F9211240BB60F922F933F938F
:101F20004F935F936F937F938F939F93AF93BF93E1
:101F3000CF93EF93FF9323B1C091AA188091D21849
:101F40009091CE18322F309593238223892B909134
:101F50006C00C227C923C8232093AA18CC23C1F13F
:101F6000C0FF05C0E091AB18F091AC180995C1FF16
:101F700005C0E091AD18F091AE180995C2FF05C0FB
:101F8000E091AF18F091B0180995C3FF05C0E0913A
:101F9000B118F091B2180995C4FF05C0E091B318CB
:101FA000F091B4180995C5FF05C0E091B518F091FE
:101FB000B6180995C6FF05C0E091B718F091B8189A
:101FC0000995C7FF05C0E091B918F091BA180995B5
:101FD000FF91EF91CF91BF91AF919F918F917F91A1
:101FE0006F915F914F913F912F910F900BBE0F908A
:101FF0000FBE0F901F9018951F920F920FB60F9261
:1020000011240BB60F922F933F934F935F936F93CF
:102010007F938F939F93AF93BF93CF93EF93FF9350
:1020200020B1C091BB188091D3189091CF18322F56
:10203000309593238223892B90916B00C227C9236B
:10204000C8232093BB18CC23C1F1C0FF05C0E09189
:10205000BC18F091BD180995C1FF05C0E091BE18EC
:10206000F091BF180995C2FF05C0E091C018F0912A
:10207000C1180995C3FF05C0E091C218F091C318BB
:102080000995C4FF05C0E091C418F091C5180995E1
:10209000C5FF05C0E091C618F091C7180995C6FFA5
:1020A00005C0E091C818F091C9180995C7FF05C08F
:1020B000E091CA18F091CB180995FF91EF91CF915B
:1020C000BF91AF919F918F917F916F915F914F9150
:1020D0003F912F910F900BBE0F900FBE0F901F904E
:1020E00018951F920F920FB60F9211240BB60F92F4
:1020F0002F933F934F935F936F937F938F939F9310
:10210000AF93BF93EF93FF93E0918618F0918718F8
:102110000995FF91EF91BF91AF919F918F917F9121
:102120006F915F914F913F912F910F900BBE0F9048
:102130000FBE0F901F9018951F920F920FB60F921F
:1021400011240BB60F922F933F934F935F936F938E
:102150007F938F939F93AF93BF93EF93FF93E09100
:102160008418F09185180995FF91EF91BF91AF9177
:102170009F918F917F916F915F914F913F912F919F
:102180000F900BBE0F900FBE0F901F9018951F92CF
:102190000F920FB60F9211240BB60F922F933F930D
:1021A0004F935F936F937F938F939F93AF93BF935F
:1021B000EF93FF93E0918218F09183180995FF91B6
:1021C000EF91BF91AF919F918F917F916F915F91AF
:1021D0004F913F912F910F900BBE0F900FBE0F901C
:1021E0001F901895BF92CF92DF92EF92FF920F93BC
:1021F0001F93CF93DF93CDB7DEB72C970FB6F8942C
:10220000DEBF0FBECDBF6C01FC01848595850E94A9
:102210000D2FF601E484F584C7010E940D2FF7010C
:10222000178E10A211A212A2B3A0BB2041F163EB42
:1022300076E0C7010E94BB7128E833E140E050E03E
:10224000B701CE0107960E94E344F701808591858E
:1022500081309640D9F46FEA76E0C7010E94BB71E5
:1022600001E113E128E133E148E853E160E070E087
:10227000C7010E943867C7010E94404507C065E05A
:10228000C7010E94F90C8111D2CF2AC0BE01695F3B
:102290007F4FCE0101960E94285BAE014F5F5F4FDA
:1022A0006CEA76E0C7010E94E368CE0101960E94C5
:1022B000A65A01E113E128E133E148E853E160E087
:1022C00070E0C7010E943867C7010E944045B11005
:1022D00003C0C7010E942E45CE0107960E94A65A50
:1022E000F601848595850E940D2FF601158A2C969E
:1022F0000FB6F894DEBF0FBECDBFDF91CF911F9117
:102300000F91FF90EF90DF90CF90BF9008952F92A4
:102310003F924F925F926F927F928F929F92AF9275
:10232000BF92CF92DF92EF92FF920F931F93CF93C2
:10233000DF93CDB7DEB760970FB6F894DEBF0FBE60
:10234000CDBF6C017B01588B4F873901DC011C9696
:102350008D919C911D970E940D2FF601F685FD87AA
:10236000D6011C960D911C911D97F80133A03320C6
:1023700091F1B701CE0101960E94315B5801F1E164
:10238000AF0EB11CBE016F5F7F4FC5010E94EC58BC
:10239000982ECE0101960E94A65A911023C0B70133
:1023A000CE0101960E94315BBE016F5F7F4FC50178
:1023B0000E945859CE0101960E94A65AD8015996FA
:1023C0001C9259975A961C925A975B961C925B974F
:1023D0005C961C9207C065E0C8010E94F90C81114F
:1023E000C8CFFAC01B821C821D821E82F801418D5B
:1023F000528D638D748D8B819C81AD81BE81481718
:1024000059076A077B0709F0B4C067E978E0CE0195
:1024100007960E94315B60E170E0CE0107960E9452
:1024200064590E9457804B015C0128EE33E0D301D0
:102430000E94E29A2B013C01D80193962C90211026
:1024400067C065E0C8010E94F90C811161C08AE58E
:1024500093E09A8389831B821C821D821E827CC02A
:102460000E945780DC01CB0188199909AA09BB0990
:1024700084159505A605B70590F462E070E080E04C
:1024800090E00E941D80F80180819181DC01ED9136
:10249000FC910084F185E02D099504970CF3F80177
:1024A000608171814DE0CE0101960E948B5BBE017F
:1024B0006F5F7F4FCE0107960E941E59CE01019695
:1024C0000E94A65ACE0107960E948C58CE0107960C
:1024D0000E94D27B811116C063EA76E0CE0101969C
:1024E0000E94F05ABE016F5F7F4FCE0107960E9497
:1024F000EC588E87CE0101960E94A65ABE85BB235A
:1025000009F487C064EC79E080E090E00E941D80CF
:102510000E945780DC01CB0188199909AA09BB09DF
:1025200084159505A605B70538F4A70169EA76E094
:10253000C8010E944971A7CF211089CFF12CC80191
:102540000E942E45FF2009F482CFBE01695F7F4FB4
:10255000CE0101960E94C770CE0107960E94A65A2E
:102560008B819C81AD81BE81F801818F928FA38F79
:10257000B48FD80159964D915D916D917C915C9786
:102580001B821C821D821E828B819C81AD81BE813B
:10259000481759076A077B07C1F08AE593E09A83D9
:1025A0008983F801818D928DA38DB48D8B839C835B
:1025B000AD83BE832D854F855889BE016F5F7F4FE8
:1025C000C8010E94515FF82E01C0F12C311003C0E8
:1025D000C8010E942E458F2DD60155968C9390E010
:1025E00060960FB6F894DEBF0FBECDBFDF91CF91DE
:1025F0001F910F91FF90EF90DF90CF90BF90AF9021
:102600009F908F907F906F905F904F903F902F9012
:10261000089521109ACFFF24F39491CF08950F933A
:102620001F93CF93DF93FC01208527FD22C1EC018E
:102630006DE18EE00E94A25260E087E00E94A2520B
:1026400060E888E00E94A25260E889E00E94A252FD
:1026500060E88AE00E94A2528FE00E94BB52682F7D
:102660006E7F8FE00E94A25262E088850E94CA7F3E
:102670006EE073E188850E94E37B81E69BE00E9427
:10268000F05781E69BE00E94F0578091BC008A7B66
:102690008093BC0060E081E10E949B7F60E080E16C
:1026A0000E949B7F83B7817F846083BF8E01075E1A
:1026B0001F4FC8010E94C63DF89480917A008F7721
:1026C00080937A0085B7806685BF8F7D85BF8091B6
:1026D00064008FEF80936400809165008160809337
:1026E000650083B7816083BF78948895F894809162
:1026F000640010926400809165008E7F8093650075
:1027000083B78E7F83BF80917A00806880937A0040
:102710007894C8010E94D23D0E94D5521092590B64
:1027200010925A0B10925B0B10925C0B0E94075395
:1027300088854FB7F894282F2F7787FD09C02A3056
:1027400009F487C0223009F474C0233009F479C039
:1027500030E0F901E75EFA4E9491F901E750FB4E43
:10276000E491E130D9F480916B00E92FE0958E235C
:1027700080936B0080916B00811105C0809168008F
:102780008E7F809368008091D3188E238093D31816
:102790009091CF18E923E093CF1862C0E23079F42A
:1027A00080916C00E92FE0958E2380936C008091DE
:1027B0006C00811133C0809168008D7F2DC0E330A3
:1027C000D9F480916D00E92FE0958E2380936D0000
:1027D00080916D00811105C0809168008B7F80938E
:1027E00068008091D1188E238093D1189091CD18D4
:1027F000E923E093CD1834C0E43091F58091730063
:10280000E92FE0958E2380937300809173008111EE
:1028100005C080916800877F809368008091D218FE
:102820008E238093D2189091CE18E923E093CE188E
:1028300017C0E898809169008C7F80936900E09AC6
:102840000FC0E99880916900837F80936900E19AC5
:1028500007C0EA98809169008F7C80936900E29AB2
:102860004FBF0E946569C156DD4F688379838A83B3
:102870009B83DF91CF911F910F910895AF92BF92EB
:10288000CF92DF92EF92FF920F931F93CF93DF933C
:10289000CDB7DEB72C970FB6F894DEBF0FBECDBF15
:1028A0007C018B016EEE78E0C8010E94B85CD70114
:1028B00012966D917C911397C8010E94255C6BED77
:1028C00078E0C8010E94B85CB70167567D4FC80127
:1028D0000E94A65C6701BDE5CB1ABDEFDB0AF601DD
:1028E00080819181892B09F481C06DE678E0C8016F
:1028F0000E94B85CD6016D917C9168597F4FC801E8
:102900000E94255C63E578E0C8010E94B85CD601AE
:10291000ED91FC91E15BFF4F4081518160E070E0FF
:102920002AE0C8010E94D85BC8010E94215C6DE4C6
:1029300078E0C8010E94B85CD601ED91FC91EF5A95
:10294000FF4F6081062E000C770BC8010E94797A38
:102950006DE378E0C8010E94B85CD601ED91FC916E
:10296000EE5AFF4F6081C8010E943B7962E378E034
:10297000C8010E94B85C64E073E1C8010E94985CE1
:102980006CE178E0C8010E94B85C6DEF73E0C801AB
:102990000E94255C64E178E0C8010E94B85CF60101
:1029A000608171816D5F7F4FC8010E94965C6DE010
:1029B00078E0C8010E94B85CD6016D917C91635D9E
:1029C0007F4FC8010E94965C66E078E0C8010E94D3
:1029D000B85CF60160817181685E7F4FC8010E941A
:1029E000965C64E078E0C8010E94DC5CF701A38596
:1029F000B485FD0101900020E9F73197EA1BFB0B3C
:102A0000329788F063EC78E0C8010E94B85CD70187
:102A10001B966D917C911C97C8010E94965C6CE29C
:102A2000C8010E943E5C6CEA78E0C8010E94965C96
:102A300066EB78E0C8010E94B85C65E276E0C80108
:102A40000E94965CD12CD7011D96ED91FC911E97AA
:102A50008281D81608F055C06CEA78E0C8010E945F
:102A6000965CD7011D96ED91FC911E97AD2CB12C73
:102A7000C501880F991F0190F081E02DE80FF91F23
:102A80000190F081E02D8281882319F068E276E0E0
:102A900007C0608171816115710539F467E978E0DB
:102AA000CE0101960E94315B09C0DB01ED91FC91E2
:102AB0000680F781E02DCE0101960995BE016F5F7A
:102AC0007F4FC8010E94985CCE0101960E94A65AD1
:102AD0006CEA78E0C8010E94965CBFEFAB1ABB0AB3
:102AE000D7011D96ED91FC911E97828190E0A8166A
:102AF000B90629F066E276E0C8010E94965CD3949C
:102B0000A2CFC8010E94215C6CEA78E0C8010E9453
:102B1000965C67EA78E0C8010E94B85C65E276E0FE
:102B2000C8010E94965CD12CD7011D96ED91FC91B5
:102B30001E978281D81608F040C06CEA78E0C80180
:102B40000E94965CD7011D96ED91FC911E97AD2CCD
:102B5000B12CC501880F991F0190F081E02DE80F7D
:102B6000F91F0190F081E02D63857485CE010196F7
:102B70000E94315BBE016F5F7F4FC8010E94985C6D
:102B8000CE0101960E94A65A6CEA78E0C8010E9424
:102B9000965CBFEFAB1ABB0AD7011D96ED91FC9175
:102BA0001E97828190E0A816B90629F066E276E0C9
:102BB000C8010E94965CD394B7CFC8010E94215CE3
:102BC0006CEA78E0C8010E94965C6AE978E0C80186
:102BD0000E94B85C65E276E0C8010E94965CD12C48
:102BE000D7011D96ED91FC911E978281D81608F0B1
:102BF00040C06CEA78E0C8010E94965CD7011D963F
:102C0000ED91FC911E97AD2CB12CC501880F991F39
:102C10000190F081E02DE80FF91F0190F081E02D87
:102C200065857685CE0101960E94315BBE016F5F9E
:102C30007F4FC8010E94985CCE0101960E94A65A5F
:102C40006CEA78E0C8010E94965CBFEFAB1ABB0A41
:102C5000D7011D96ED91FC911E97828190E0A816F8
:102C6000B90629F066E276E0C8010E94965CD3942A
:102C7000B7CFC8010E94215CD7011D96ED91FC9150
:102C80001E970190F081E02D0190F081E02D618987
:102C90007289CE0101960E94315BCD80DE80CE012B
:102CA00001960E94A65AB2E0CB16D10408F45CC08B
:102CB0006CEA78E0C8010E94965C6DE878E0C80193
:102CC0000E94B85C65E276E0C8010E94965CD12C57
:102CD000D7011D96ED91FC911E978281D81608F0C0
:102CE00040C06CEA78E0C8010E94965CD7011D964E
:102CF000ED91FC911E97AD2CB12CC501880F991F49
:102D00000190F081E02DE80FF91F0190F081E02D96
:102D100061897289CE0101960E94315BBE016F5FAD
:102D20007F4FC8010E94985CCE0101960E94A65A6E
:102D30006CEA78E0C8010E94965CBFEFAB1ABB0A50
:102D4000D7011D96ED91FC911E97828190E0A81607
:102D5000B90629F066E276E0C8010E94965CD39439
:102D6000B7CFC8010E94215C68E778E0CE010796E2
:102D70000E94F05A6091D209161634F4062E000C07
:102D8000770B655D7F4F05C0662339F0062E000C7A
:102D9000770BCE0107960E94EB536CEA78E0C801EE
:102DA0000E94965CBE01695F7F4FC8010E94985CDB
:102DB00065E276E0C8010E94965CD12CD7011D9691
:102DC000ED91FC911E978281D81608F040C06CEA04
:102DD00078E0C8010E94965CD7011D96ED91FC91A8
:102DE0001E97AD2CB12CC501880F991F0190F08161
:102DF000E02DE80FF91F0190F081E02D67857089C3
:102E0000CE0101960E94315BBE016F5F7F4FC8010A
:102E10000E94985CCE0101960E94A65A6CEA78E066
:102E2000C8010E94965CBFEFAB1ABB0AD7011D9682
:102E3000ED91FC911E97828190E0A816B90629F0C9
:102E400066E276E0C8010E94965CD394B7CFC801D1
:102E50000E94215CCE0107960E94A65A2C960FB6BE
:102E6000F894DEBF0FBECDBFDF91CF911F910F91C0
:102E7000FF90EF90DF90CF90BF90AF9008950F93A9
:102E80001F93CF93DF93CDB7DEB76F970FB6F8944C
:102E9000DEBF0FBECDBF8C01405853446D46784312
:102EA000CE0101960E94EC3367E978E0C8010E94E8
:102EB000315BB801CE0101960E94783368E576E077
:102EC000CE010E960E94315B62EA79E0CE0108964F
:102ED0000E94315BAE01425F5F4FBE01685F7F4F72
:102EE000C8010E948B7ACE0108960E94A65ACE0194
:102EF0000E960E94A65A6091D209062E000C770BFE
:102F0000CE014A960E94115E8091D20998E1980FF5
:102F10009F3038F46CED76E0CE014A960E948B59D2
:102F20008AC099E0980F993008F045C022E030E05F
:102F300041E050E0BE01665E7F4FCE0144960E94A4
:102F4000465B21E030E040E050E0BE01665E7F4F2E
:102F5000CE0108960E94465BBE01685F7F4FCE019E
:102F60000E960E94285B60E3CE010E960E94E959FE
:102F7000811104C0CE010E960E940B5ABE016C5EF8
:102F80007F4FCE010E960E94445A68ED76E00E9473
:102F90001D5ABC01CE014A960E948F5ACE010E9650
:102FA0000E94A65ACE0108960E94A65ACE014496C7
:102FB0000E94A65A40C081110DC06AE5CE01089654
:102FC0000E94D85ABE01685F7F4FCE014A960E9488
:102FD0001E592DC09FEF980F993080F463E376E07F
:102FE000CE0108960E94315BBE01665E7F4FCE0126
:102FF00008960E94445A64ED76E012C08A508F30E1
:10300000D0F466E376E0CE0108960E94315BBE0103
:10301000665E7F4FCE0108960E94445A60ED76E0CE
:103020000E941D5ABC01CE014A960E948F5ACE01C1
:1030300008960E94A65ABE01665E7F4FC8010E9494
:103040000A5ECE014A960E94A65AC8016F960FB634
:10305000F894DEBF0FBECDBFDF91CF911F910F91CE
:1030600008950F931F93CF93DF93CDB7DEB7629789
:103070000FB6F894DEBF0FBECDBF8C01FC0162819C
:103080007381CE010D960E94315B68E376E0CE013C
:103090000D960E94FC590E94076EAB01BC01CE0147
:1030A00001960E943F172AE030E040E050E0BE0168
:1030B0006F5F7F4FCE0107960E94465BBE01695F3E
:1030C0007F4FCE010D960E940A5ECE0107960E94A8
:1030D000A65ACE0101960E94A65A6AE376E0CE0176
:1030E0000D960E94FC5907561D4FBE01635F7F4F2E
:1030F000C8010E948F5ABE01635F7F4FC8010E94C2
:103100008F5ACE010D960E94A65A62960FB6F89479
:10311000DEBF0FBECDBFDF91CF911F910F910895FC
:10312000BF92CF92DF92EF92FF920F931F93CF93B4
:10313000DF93CDB7DEB72C970FB6F894DEBF0FBE86
:10314000CDBF8C010E94076E6B017C01F801848168
:1031500095814CE3489F9001499F300D112440E038
:1031600050E0C701B6010E944A9A672B682B692B71
:1031700069F40E9465696093500B7093510B8093C2
:10318000520B9093530BBB24B39401C0B12CF1EEBE
:10319000DF1AFBE0EF0AFEE5FF0A81E8C81684EAC1
:1031A000D80688E6E80689E0F80608F4E6C08BED64
:1031B00097E00E94524DC8010E94F06969E170E0F9
:1031C00080E090E00E941D80C8010E94E86969E1EA
:1031D00070E080E090E00E941D8081EB97E00E940B
:1031E000524DC8010E94F06969E170E080E090E012
:1031F0000E941D80C8010E94E86969E170E080E0DA
:1032000090E00E941D8087E897E00E94524DC8011F
:103210000E94F06969E170E080E090E00E941D800A
:10322000C8010E94E86969E170E080E090E00E94D6
:103230001D8060E281E69BE00E943E5CC8010E9426
:10324000F06969E170E080E090E00E941D80C801B3
:103250000E94E86969E170E080E090E00E941D80D2
:103260000E94076EAB01BC01CE0101960E943F1780
:103270002AE030E040E050E0BE016F5F7F4FCE01BA
:1032800007960E94465BBE01695F7F4F8DE597E020
:103290000E945B3FCE0107960E94A65ACE0101967E
:1032A0000E94A65AC8010E94F06969E170E080E0BE
:1032B00090E00E941D80C8010E94E86969E170E009
:1032C00080E090E00E941D8060E281E69BE00E9429
:1032D0003E5CC8010E94F06969E170E080E090E026
:1032E0000E941D80C8010E94E86969E170E080E0E9
:1032F00090E00E941D8084E397E00E94524DC80137
:103300000E94F06969E170E080E090E00E941D8019
:10331000C8010E94E86969E170E080E090E00E94E5
:103320001D808AE097E00E94524DC8010E94F0691A
:1033300069E170E080E090E00E941D80C8010E9479
:10334000E86969E170E080E090E00E941D8080EE15
:1033500096E00E94524DC8010E94F06969E170E058
:1033600080E090E00E941D80C8010E94E86969E148
:1033700070E080E090E00E941D808B2D2C960FB6AF
:10338000F894DEBF0FBECDBFDF91CF911F910F919B
:10339000FF90EF90DF90CF90BF900895CF93DF9391
:1033A000CDB7DEB72E970FB6F894DEBF0FBECDBFF8
:1033B000AB01BC01405853446D467843CE0108969A
:1033C0000E94EC3387E0FE013896DE0111960190F1
:1033D0000D928A95E1F729813A814B815C816D815B
:1033E0007E818F8190E02E960FB6F894DEBF0FBEDF
:1033F000CDBFDF91CF910895DC011E967C936E9333
:103400001D97ED91FC910484F585E02D0994DC0174
:1034100013967C936E93129715965C934E93149724
:10342000ED91FC910284F385E02DB90109948F920E
:103430009F92AF92BF92CF92DF92EF92FF920F9343
:103440001F93CF93DF93CDB7DEB762970FB6F89493
:10345000DEBF0FBECDBF7C018C01075E1F4F84E82D
:1034600093E0A0E0B0E0F701818F928FA38FB48F3B
:1034700080E790E0A0E0B0E080937F13909380130A
:10348000A0938113B0938213C8010E94D23DD7014B
:1034900017968C9187FD08C061E00E94CA7F60E0AA
:1034A000F70187810E949B7FD70116968C9187FD3B
:1034B00003C061E00E94CA7FF701818587FD03C0D8
:1034C00061E00E94CA7FD7011A968C9187FD09C0DE
:1034D00062E00E94CA7F6AEE71E7F70182850E946E
:1034E000E37BC8010E94B03D0E94D552C8010E94F2
:1034F000B03D1092590B10925A0B10925B0B109228
:103500005C0BD70118968C9187FD03C062E00E9486
:10351000CA7F0E940753C8010E94B03DC8010E94A3
:10352000B03D0E946569AB01BC01CE0101960E94CD
:103530003F17BE016F5F7F4F8FE19BE00E945B3FB3
:10354000CE0101960E94A65AC8010E94B03DF70123
:1035500005851685C8010E94A140D80114968C9358
:10356000C8010E944144F8018383A12C99249394BB
:10357000D80112968C911297A81608F0A6C0CA2CF2
:10358000D12CCC0CDD1CED91FC91EC0DFD1D2081AE
:103590003181D9015196ED91FC9152978081882318
:1035A000E1F1DF010D900020E9F7CD0185978E173D
:1035B0009F0709F580858D32F1F485858D32D9F428
:1035C00082898D32C1F487898D32A9F4AF014C5DB7
:1035D0005F4F619180E0A82FB0E0A15CB94F9C9152
:1035E000691303C087E191E001C090E08F5F911102
:1035F00065C1873180F3F90167857089CE01019635
:103600000E94315B6DE67AE0CE0101960E9467442C
:10361000CE0101960E94A65A912CA394BA2CD801EF
:1036200012968C911297B81608F0A2CF9C91119621
:103630008C91E92FF82FEB0DF11DEB0DF11D019091
:10364000F081E02D61897289CE0101960E94315B83
:10365000D801ED91FC91EC0DFD1D0190F081E02D64
:1036600061897289CE0107960E94315BBE016F5F4E
:103670007F4FCE0107960E94EC58882ECE01079608
:103680000E94A65ACE0101960E94A65A8820D9F01F
:10369000D801ED91FC91EC0DFD1D0190F081E02D24
:1036A00067857089CE0101960E94315B66E57AE0FC
:1036B000CE0101960E946744CE0101960E94A65A4F
:1036C000F801B280912CB394AACF992021F082E224
:1036D0009AE00E94524DB12CD80112968C9112970B
:1036E000B81608F048C0CB2CD12CCC0CDD1CED91C9
:1036F000FC91EC0DFD1D0190F081E02D6785708936
:10370000CE0107960E94315BF80180819181FC0116
:10371000EC0DFD1D0190F081E02D61897289CE01D3
:103720000D960E94315BBE01635F7F4F81E69BE097
:103730000E94985C60E281E69BE00E94375CBE01DB
:10374000695F7F4FCE0101960E94285BBE016F5FCB
:103750007F4F8FE19AE00E945B3FCE0101960E946D
:10376000A65ACE010D960E94A65ACE0107960E9437
:10377000A65AB394B1CF60E281E69BE00E943E5C22
:10378000D7011D96CD90DC901E97C6010E94F23D98
:10379000082FC6010E944144B82EF7018585968501
:1037A000DC0112961C910E94F23DC12ED12CC81A48
:1037B000D10869EF7AE081E69BE00E94B85C60E2A4
:1037C00081E69BE00E94375C412F50E060E070E0B2
:1037D0002AE081E69BE00E94D85B60E281E69BE004
:1037E0000E94375C65EE7AE081E69BE00E94B85C5F
:1037F00060E281E69BE00E94375CB60181E69BE0D7
:103800000E94847960E281E69BE00E94375C6BED68
:103810007AE081E69BE00E94B85C60E281E69BE092
:103820000E94375C4B2D50E060E070E02AE081E6BA
:103830009BE00E94D85B60E281E69BE00E94375CDF
:103840006FEC7AE081E69BE00E94B85C60E281E682
:103850009BE00E94375C402F50E060E070E02AE07F
:1038600081E69BE00E94D85B60E281E69BE00E94DB
:10387000375C8FEB9AE00E94524DF70163857485A7
:103880006115710521F085EA9AE00E940F3882E8FF
:103890009AE00E94524D62960FB6F894DEBF0FBEBA
:1038A000CDBFDF91CF911F910F91FF90EF90DF90EF
:1038B000CF90BF90AF909F908F900895E417F50739
:1038C00009F087CEAACE2F923F924F925F926F92CD
:1038D0007F928F929F92AF92BF92CF92DF92EF92A0
:1038E000FF920F931F93CF93DF93CDB7DEB762970D
:1038F0000FB6F894DEBF0FBECDBF7C016DB67EB6AD
:103900007F866E8681E08093FF0B1092FE0B84EF22
:1039100099E00E94524D87ED99E00E94524D64E675
:1039200070E080E090E00E941D80D7011F968D918D
:103930009C915097009741F1DC01ED91FC9100843E
:10394000F185E02D0995F70187859089DC01ED91DE
:10395000FC910680F781E02D09958701075E1F4FD6
:10396000C8010E94B03DF70187859089DC01ED9187
:10397000FC910288F389E02D40E553EC60E070E0B3
:103980000995C8010E94B03DF701858596850E9482
:10399000D040D7011D960D911C911E97A12CB12CE2
:1039A000F8018281A81650F5CA2CD12CB601C801A5
:1039B0000E944640882391F0CC0CDD1CD801ED918B
:1039C000FC91EC0DFD1D0190F081E02D0190F08146
:1039D000E02DE85BFF4F808183FDB394A394E0CF9B
:1039E000CA2CD12CB601C8010E94464081110CC0DE
:1039F000A394D80112968C91A81690F3F8018381B4
:103A0000B81690F5A12CF5CFCC0CDD1CD801ED91AA
:103A1000FC91EC0DFD1D0190F081E02D80819181E4
:103A2000FC01E85BFF4F208123FDE2CFDC01ED913B
:103A3000FC91028CF38DE02D60E009958823C1F2A2
:103A4000F80180819181FC01EC0DFD1D0190F08158
:103A5000E02D80819181DC01ED91FC910288F38958
:103A6000E02D0995B394C4CFB9E1B88B1701E9E112
:103A70002E0E311C8CEA99E00E94524DD7011F9600
:103A80008D919C915097DC01ED91FC91068CF78D06
:103A9000E02D0995C1010E94B03DF701058516850D
:103AA0006DB67EB67D866C86D80112968C91EDB788
:103AB000FEB7E81BF1090FB6F894FEBF0FBEEDBFCD
:103AC0002DB73EB72F5F3F4F5901812CD801129679
:103AD0009C90891460F4C82CD12CB601C8010E94B6
:103AE0004640F501EC0DFD1D80838394EFCF892DB9
:103AF00090E0EDB7FEB7E81BF90B0FB6F894FEBFE8
:103B00000FBEEDBF2DB73EB72F5F3F4F39872887D8
:103B10006901F9012E2F3885231B291510F4119204
:103B2000F9CFADB7BEB7A81BB90B0FB6F894BEBF9F
:103B30000FBEADBFEDB7FEB73196FB87EA87FA8BB4
:103B4000E98B2501A50120E030E0291510F020E0E7
:103B50001EC0DA018D91AD01882399F0D8016D91D5
:103B60007C91C901880F991F860F971FDC018D91E9
:103B70009C91DC018D919C91DC0197968C918083C6
:103B800001C010822F5F3F4F3196DFCF2F5FF801CA
:103B90004281241760F5822F90E0F501E80FF91FAC
:103BA0003081332399F3880F991FD801ED91FC914F
:103BB000E80FF91F0190F081E02D0190F081E02DD8
:103BC00036A1CF010296B89640E03417F9F2DC0135
:103BD000612C6CE3762E6CE1862E66EC962E6D924F
:103BE0007D928D929D92CD0111924F5FEECF80E03C
:103BF00090E0612C841788F5F20121912F01222396
:103C0000A9F0D801ED91FC919C01220F331FE20F26
:103C1000F31F0190F081E02D0190F081E02DE85B31
:103C2000FF4F20812871283109F00BC20196E989E4
:103C3000FA893196FA8BE98BFFEFCF1ADF0ADACFD8
:103C4000C52CD12CF501EC0DFD1D808181110EC01C
:103C50005394F8018281581698F3D80113968C91E9
:103C6000681610F4512CF5CF912C8EC0EA85FB8597
:103C7000EC0DFD1D7080888499848C0C9D1CD401F2
:103C80004C90471428F7CC0CDD1CD801ED91FC9129
:103C9000EC0DFD1D0190F081E02D80819181DC0112
:103CA000ED91FC91048CF58DE02D60E00995882361
:103CB00009F440C0D801ED91FC91EC0DFD1D01907F
:103CC000F081E02D80819181FC01E85BFF4F208134
:103CD00025FD07C0DC01ED91FC910688F789E02DF8
:103CE0000995D801ED91FC91EC0DFD1D0190F0813D
:103CF000E02D80819181DC01ED91FC91068CF78DA6
:103D0000E02D60E009958823A9F0F8018081918178
:103D1000FC01EC0DFD1D0190F081E02D8081918171
:103D2000DC01ED91FC91008CF18DE02D099543941F
:103D3000F4014082D4018C9178128ACF639488CFA9
:103D4000C92CD12CF501EC0DFD1D80818823D9F003
:103D5000CC0CDD1CD801ED91FC91EC0DFD1D01900A
:103D6000F081E02D808191810E941D3EF8018081CB
:103D70009181FC01EC0DFD1D0190F081E02D808111
:103D800091810E94AA3E9394F80182819816C0F214
:103D90006C847D840FB6F8947EBE0FBE6DBE0E940B
:103DA000076EAB01BC01CE0101960E943F17BE0118
:103DB0006F5F7F4F85E999E00E945B3FCE010196DE
:103DC0000E94A65A8DE799E00E94524DD7011D9698
:103DD000CD90DC901E97B12CF6018281B81608F0C8
:103DE000B3C00B2D10E0000F111F0190F081E02DEA
:103DF000E00FF11F60817181DB0112968C911297A7
:103E0000882391F11B966D917C911C97CE010196B0
:103E10000E94315BBE016F5F7F4F81E69BE00E9495
:103E2000985CCE0101960E94A65A6FE079E081E687
:103E30009BE00E94B85CD601ED91FC91E00FF11F70
:103E400060817181CE0101960E949853BE016F5F1F
:103E50007F4F81E69BE00E94985CCE0101960E9414
:103E6000A65A6DE079E04CC0CE0101960E94DF3F7A
:103E7000BE016F5F7F4F81E69BE00E94985CCE01A0
:103E800001960E94A65A63E079E081E69BE00E94D9
:103E9000B85CD601ED91FC91E00FF11F0190F0812B
:103EA000E02D63857485CE0101960E94315BBE01D1
:103EB0006F5F7F4F81E69BE00E94985CCE01019688
:103EC0000E94A65A6EEF78E081E69BE00E94B85C03
:103ED000D601ED91FC91E00FF11F60817181CE015F
:103EE00001960E949853BE016F5F7F4F81E69BE071
:103EF0000E94985CCE0101960E94A65A6CEF78E071
:103F000081E69BE00E94B85CF60180819181FC0112
:103F1000E00FF11F0190F081E02D65857685CE01DF
:103F200001960E94315BBE016F5F7F4F81E69BE08F
:103F30000E94985CCE0101960E94A65A81E69BE001
:103F40000E94215CB39448CF85E699E00E94524DCF
:103F5000C1010E94B03D68E873E180E090E00E94FA
:103F60001D80C1010E94B03DF889F150F88BF1111C
:103F700081CD570129E1A20EB11CD7011D96CD902C
:103F8000DC901E97912CF60182819816E8F4092D99
:103F900010E0B801C6010E944640882399F0000F46
:103FA000111FD601ED91FC91E00FF11F0190F081FE
:103FB000E02D80819181DC01ED91FC910488F589EF
:103FC000E02D09959394DFCFF701C584D684912C19
:103FD000D60112968C919816E8F4092D10E0B801DC
:103FE000C6010E944640882399F0000F111FD60198
:103FF000ED91FC91E00FF11F0190F081E02D8081A7
:104000009181DC01ED91FC910088F189E02D099509
:104010009394DECFF701878590890097C9F0DC0182
:10402000ED91FC910488F589E02D0995F7018785CC
:104030009089DC01ED91FC910684F785E02D0995CE
:1040400007C0E989FA892081D6012C936394EECDCB
:1040500080E599E00E94524D85E299E00E94524D20
:10406000C5010E94B03D1092FF0B60E0C7010E94A5
:104070000F136E847F840FB6F8947EBE0FBE6DBEA4
:1040800062960FB6F894DEBF0FBECDBFDF91CF9121
:104090001F910F91FF90EF90DF90CF90BF90AF9066
:1040A0009F908F907F906F905F904F903F902F9058
:1040B0000895DF92EF92FF920F931F93CF93DF93B8
:1040C000EC0179018C010E5C1F4FFB011082FA019B
:1040D0001082FC01EB5AFF4FD080DD2041F08AAD09
:1040E0009BAD892B69F4C8010E94B34509C065E006
:1040F000C8010E94F90C8111F2CFD0E0C0E01BC0D2
:104100008AAD9BAD8130964079F469E37BE0C801CC
:104110000E94BB7148EE53E060E070E0C8010E946D
:104120006445D82FC92F02C0D0E0C0E0D11003C031
:10413000C8010E942E45F701D083C18381E0DF9141
:10414000CF911F910F91FF90EF90DF900895FF9214
:104150000F931F93CF93DF93EC01E296FC01EB5A90
:10416000FF4FF080FF20E9F065E37BE0CE010E9485
:10417000BB710EE01CE025E13CE048E853E160E063
:1041800070E0CE010E943867CE010E944045F110D8
:104190000EC0CE01DF91CF911F910F91FF900C9433
:1041A0002E4565E0CE010E94F90C8111DDCFDF9133
:1041B000CF911F910F91FF9008950F931F93CF936D
:1041C000DF93FC01238527FD24C0EC018C010E5CEC
:1041D0001F4F65E0C8010E94F90C8823A1F040E060
:1041E00050E062E47BE0C8010E9482714EE05CE036
:1041F00065E17CE0C8010E946F68C8010E944045EB
:10420000C8010E942E456C8581E068278B850E943D
:104210009B7F81E0DF91CF911F910F910895CF9304
:10422000DF93EC018B8587FD1EC06C850E949B7F10
:10423000E29665E0CE010E94F90C8823A1F040E0EF
:1042400050E06FE37BE0CE010E9482714EE05CE0C3
:1042500065E17CE0CE010E946F68CE010E9440457E
:10426000CE010E942E4581E0DF91CF9108950F93FA
:104270001F93CF93DF938B01EA01C2960E947B5478
:10428000682F082E000C990BF80191838083892BED
:10429000B1F0062E000C770B880B990B0E94079942
:1042A0002BEE32EE4EEC5FE30E94669929E23CE988
:1042B00046E353E40E94F39A0E94D19B02C060E05F
:1042C00070E07983688381E0DF91CF911F910F9136
:1042D0000895CF93DF93EC01E296CE010E947C0D0E
:1042E000892B29F4CE01DF91CF910C94785680E090
:1042F000DF91CF9108958F929F92AF92BF92CF920C
:10430000DF92EF92FF920F931F93CF93DF93EC0115
:104310004A015B018AA19BA1ACA1BDA1892B8A2B7B
:104320008B2B39F4E881F9810084F185E02DCE01F1
:104330000995E881F98102A4F3A5E02DCE01099544
:10434000882349F08E010E5C1F4FCB5ADF4FC88186
:10435000C11127C020C00E9457800AA11BA12CA117
:104360003DA1DC01CB01801B910BA20BB30B098D8E
:104370001A8D2B8D3C8D80179107A207B30758F338
:10438000E881F9810680F781E02DCE010995811140
:10439000D9CFC0E035C065E0C8010E94F90C882380
:1043A000C1F30E9457806B017C010BC0C8010E94C1
:1043B0007C0D892BA1F06AEF70E080E090E00E9414
:1043C0001D800E945780DC01CB018C199D09AE092C
:1043D000BF0988159905AA05BB0540F30EC0C801A1
:1043E0000E947856882339F3CC2311F0C1E008C02D
:1043F000C1E0C8010E942E4503C0C111CACFF9CF48
:104400008C2FDF91CF911F910F91FF90EF90DF9054
:10441000CF90BF90AF909F908F9008953F924F9212
:104420005F926F927F928F929F92AF92BF92CF9244
:10443000DF92EF92FF920F931F93CF93DF93EC01E4
:104440008AA19BA1ACA1BDA1892B8A2B8B2B39F40E
:10445000E881F9810084F185E02DCE010995E8819C
:10446000F98100A0F1A1E02DCE0109950E945780AD
:104470000AA11BA12CA13DA1DC01CB01801B910B4A
:10448000A20BB30B098D1A8D2B8D3C8D80179107D4
:10449000A207B30758F3E881F98102A4F3A5E02D40
:1044A000CE010995811107C0E881F98106A0F7A125
:1044B000E02DCE01099583E0382ECE01C2967C0115
:1044C0006E0195E5C90ED11C3A94332029F18D8CEB
:1044D0009E8CAF8CB8A0A4EF8A0EA1E09A1EA11CFE
:1044E000B11C0E9457802B013C010E945780DC01C7
:1044F000CB0184199509A609B70988159905AA055C
:10450000BB0508F447C0E881F9810088F189E02DF6
:10451000CE0109958111D8CF10E08AA99BA9DC01B1
:10452000ED91FC910084F185E02D0995892B79F0BE
:104530008AA99BA9DC01ED91FC910284F385E02D11
:10454000099560E070E0CB010E941D80E6CF8AA54E
:10455000811109C0E881F9810480F581E02DCE0147
:104560000995182F04C0C7010E947C681823FE011A
:10457000E65AFF4FF586E4861686158AFDABECAB4E
:10458000112309F44CC089A187FD49C061E00E9454
:104590009B7F45C0F601808181110BC065E0C7019A
:1045A0000E94F90C182F882389F1C7010E942E451B
:1045B0002DC00EA91FA967E576E08AA99BA90E94D4
:1045C000965CB8018AA99BA90E94965C8AA99BA9BE
:1045D000DC01ED91FC910680F781E02D099560E00A
:1045E00070E0CB010E941D800EE01CE025E13CE064
:1045F00048EC50E060E070E0C7010E94386781300D
:1046000021F0F601108210E001C011E06AEF70E0C5
:1046100080E090E00E941D8011117FCF66CF812F36
:10462000DF91CF911F910F91FF90EF90DF90CF908E
:10463000BF90AF909F908F907F906F905F904F90C2
:104640003F900895FF920F931F93CF93DF938C01B8
:10465000FC0185859685A785B089892B8A2B8B2BB4
:1046600079F0838187FD3EC00E94727F21E0892B13
:1046700009F420E081E0F8019481291352C054C06C
:10468000F801C3850C2E000CDD0BFE01E75EFA4E2F
:10469000E4916E2F70E080E090E00E9405990E9406
:1046A000149CFE01E750FB4EE491F0E0EE0FFF1F7B
:1046B000E153FB4EA591B491CC91D0E028E132E7D3
:1046C00041E35FE30E945F9B0E94D19B02C0D595AE
:1046D000C7956A95E2F7C17081E0F8019485C91326
:1046E00020C022C085E0F82EE801E29664E37BE07A
:1046F000CE010E94BB710EE01CE025E13CE044E6E7
:1047000050E060E070E0CE010E943867813059F0DF
:1047100062E370E080E090E00E941D80FA94F11066
:10472000E5CF80E001C081E0DF91CF911F910F9133
:10473000FF900895CF92DF92EF92FF921F93CF9355
:10474000DF93CDB7DEB72B970FB6F894DEBF0FBE61
:10475000CDBF6C0122E3C20ED11CFC01EB5AFF4F0E
:104760001081112371F04CE35BE0B601CE0101969C
:104770000E948A3FCE0101960E94D27B811136C0F1
:104780000EC065E0C6010E94F90C8111ECCFC12C6E
:104790009CE3D92E9CE1E92E96ECF92E32C07E01E5
:1047A00087E0E80EF11C85E0F70111928A95E9F7A0
:1047B00045E050E0B701CE0101960E94806640E1DD
:1047C00050E060E070E0C7010E947392F62E111174
:1047D00003C0C6010E942E456F2DFF0C770B880B7E
:1047E000990B0E9407996B017C0107C0C12C8CE3D7
:1047F000D82E8CE1E82E86ECF82ECE0101960E9490
:10480000A65AC701B6012B960FB6F894DEBF0FBEAD
:10481000CDBFDF91CF911F91FF90EF90DF90CF90B0
:104820000895CF93DF93EC018AE293E09983888324
:10483000CE018D5B9F4F0E94A65A8AEC92E099832D
:104840008883CE018C96DF91CF910C94A65ACF939A
:10485000DF93EC010E941124CE01DF91CF910C94E3
:10486000EA914F925F926F927F928F929F92AF9256
:10487000BF92CF92DF92EF92FF920F931F93CF934D
:10488000DF93CDB7DEB7CB54D1090FB6F894DEBFB6
:104890000FBECDBF8C0167E978E0CE018A5B9F4FE8
:1048A0000E94315B780122E3E20EF11CC7010E94F5
:1048B0007C68F801E65AFF4FF586E4861686158A6D
:1048C000D801D596FC93EE93D497DA966D917C91AE
:1048D000DB97CE0101960E94E83B6801BCE2CB0E5B
:1048E000D11CBE016F5F7F4FC6010E945859CE0197
:1048F00001960E94A65A65E0C7010E94F90C882320
:1049000009F41CC2C7010E94B345F80162AD73AD42
:10491000CE0101960E94E83BBE016F5F7F4FC6014A
:104920000E945859CE0101960E94A65A41E050E0DB
:1049300069E17CE0C7010E9482714EE05CE065E1C4
:104940007CE0C7010E946F6841E050E06BE07CE0D2
:10495000C7010E9482714EE05CE065E17CE0C70126
:104960000E946F6841E050E068E07CE0C7010E946F
:1049700082714EE05CE065E17CE0C7010E946F68F7
:1049800041E050E065E07CE0C7010E9482714EE0AA
:104990005CE065E17CE0C7010E946F6841E050E0A7
:1049A00062E07CE0C7010E9482714EE05CE065E15C
:1049B0007CE0C7010E946F6841E050E06FEF7BE050
:1049C000C7010E9482714EE05CE065E17CE0C701B6
:1049D0000E946F6840E050E06CEF7BE0C7010E94EE
:1049E00082714EE05CE065E17CE0C7010E946F6887
:1049F00040E050E069EF7BE0C7010E9482714EE029
:104A00005CE065E17CE0C7010E946F6864EF7BE0D9
:104A1000C7010E94BB714EE05CE065E17CE0C7012C
:104A20000E946F6840E050E061EF7BE0C7010E94A8
:104A300082714EE05CE065E17CE0C7010E946F6836
:104A400040E450E06EEE7BE0C7010E9482714EE0D0
:104A50005CE065E17CE0C7010E946F68F801EB54FF
:104A6000FF4FA080B180E056F109D080DD2031F108
:104A7000A50169E47BE0C7010E9449714EE05CE05A
:104A800065E17CE0C7010E946F6865E47BE0C701D7
:104A90000E94BB710EE01CE025E13CE048E853E1D8
:104AA00060E070E0C7010E943867C7010E9440457E
:104AB000D1100AC0C7010E942E4506C065E0C7019B
:104AC0000E94F90C8111D4CF6AEE7BE0C7010E94ED
:104AD000BB714EE05CE065E17CE0C7010E946F685D
:104AE000C7010E9440458E010E5D1F4F67E978E0C7
:104AF000C8010E94315B85EA9BE00E94524D0E94F2
:104B000057802B013C01DD24D394A12CB12CC02E65
:104B1000912E0E945780DC01CB0184199509A609CA
:104B2000B709803E9349A440B10508F0FEC062EA8F
:104B30007BE0C7010E94BB7140E157E260E070E09A
:104B4000C7010E946445882E4CE45BE0B701CE01AA
:104B5000805C9F4F0E948A3F40E1682DCE01CA963B
:104B60000E94AB5A60E070E0CE01C4960E94115ED4
:104B70000E9457801FA61EA619AA18AA1BAA1AAA25
:104B80000E94059920E030E04AE754E40E945F9BD0
:104B90008E010F5F1F4F22E044E00E943291BC0162
:104BA000CE018E960E94785A19A618A61BA61AA6A0
:104BB0001DA61CA64AE0B801C5010E941095B801C7
:104BC000CE0188960E94785ABE01685D7F4FC80169
:104BD0000E94285B68E676E0C8010E942B5ABE015D
:104BE000625D7F4F0E94445A6AE576E00E942B5A2C
:104BF000BE016C5C7F4F0E94445A6DE576E00E94D6
:104C00002B5ABE01665C7F4F0E94445A61E676E0F3
:104C10000E942B5ABE01605C7F4F0E94445A62E69C
:104C200076E00E942B5ABC018C2D992D0E948F5A40
:104C3000C8010E94A65ACE0188960E94A65ACE01AB
:104C40008E960E94A65ACE01C4960E94A65ACE0104
:104C5000CA960E94A65ACE01805C9F4F0E94A65A17
:104C6000882019F023E2821236C04AE06D2DCE0171
:104C700088960E94AB5A64E676E0CE0101960E94C7
:104C8000315BBE01685D7F4FCE0101960E94445AA0
:104C9000BC018C2D992D0E940A5ECE0101960E94C6
:104CA000A65ACE0188960E94A65A6C2D792DCE0167
:104CB00001960E94285BBE016F5F7F4F81E69BE0FB
:104CC0000E94A65CCE0101960E94A65AD39483E06E
:104CD0008D1508F539C06C2D792DCE0101960E94F5
:104CE000285BBE016F5F7F4F81E69BE00E94A65C60
:104CF000CE0101960E94A65AAAE0AA16B10449F470
:104D00006CE97BE0C7010E94BB7180E99BE00E94D7
:104D1000524DDD24D39468EE73E080E090E00E9471
:104D20001D80BFEFAB1ABB0AF4CE10E0C7010E9492
:104D30002E45CE0182960E94A65A4FC08FE49BE07A
:104D40000E94524D10E049C0C7010E947C0DBC0179
:104D5000CE0101960E94115EBE016F5F7F4FCE01B2
:104D60008A5B9F4F0E941E59CE0101960E94A65A4F
:104D7000BE016A5B7F4FCE0188960E94285B68E681
:104D80007BE081E69BE00E94B85C60E281E69BE00C
:104D90000E94375CBE01685D7F4FCE0101960E9484
:104DA000285BBE016F5F7F4F81E69BE00E94985CAD
:104DB00060E281E69BE00E94375C62E676E081E695
:104DC0009BE00E94255CCE0101960E94A65ACE016E
:104DD00088960E94A65A11E0A9CFCE018A5B9F4F08
:104DE0000E94A65A812FC55BDF4F0FB6F894DEBF35
:104DF0000FBECDBFDF91CF911F910F91FF90EF902C
:104E0000DF90CF90BF90AF909F908F907F906F90EA
:104E10005F904F900895FC018081811114C080E261
:104E2000DF01982F1D929A95E9F777836683DB015E
:104E300015969C91903119F0903229F480E480838A
:104E400081E08283089580E00895FF920F931F937D
:104E5000CF93DF931F92CDB7DEB78C01FC01808921
:104E60009189A289B3899C01AD0175E0569547955A
:104E7000379527957A95D1F7F22FFF70FF2E11F015
:104E8000611114C0BE016F5F7F4FC8010E9477633C
:104E9000813019F080E090E01AC0F8018089918992
:104EA000A289B3894F96A11DB11D04C08096A11D92
:104EB000B11DF801808B918BA28BB38BF801868199
:104EC00097818796F0E2FF9E800D911D11240F902F
:104ED000DF91CF911F910F91FF900895CF93DF93B2
:104EE000FC012081211102C081E043C0EC018281DC
:104EF00082FF37C044895589668977898681978181
:104F000021E080960E94A26B009729F4898181603C
:104F1000898380E02EC0EC81FD81EF70FF2725E0C2
:104F2000EE0FFF1F2A95E1F7E80FF91F309771F395
:104F30008081853E59F3888183FF08C0888D998DD3
:104F4000AA8DBB8D848F958FA68FB78F8C8D9D8DED
:104F5000AE8DBF8D938F828FB58BA48B8A818B7F13
:104F60008A838E819F8180960E945F6B882371F275
:104F7000BBCFDF91CF9108954F925F926F927F9256
:104F80008F929F92AF92BF92CF92DF92EF92FF9259
:104F90000F931F93CF93DF93EC014A015B014C8485
:104FA0005D846E847F84A881AA2309F491C0488916
:104FB00059896A897B89481559056A057B0509F471
:104FC0008DC081149104A104B10429F41C861D86AE
:104FD0001E861F8678C0A3FF0BC0088D198D2A8DF1
:104FE0003B8D081519052A053B0508F471C014C04E
:104FF000A5FF12C0EE81FF818681978125E0880F91
:10500000991F2A95E1F7A0E0B0E088159905AA0557
:10501000BB0508F45DC057C0EE81FF81848190E03C
:1050200009968A019B010150110921093109082EB5
:1050300004C036952795179507950A94D2F7750100
:105040006401B1E0CB1AD108E108F10804C0F6947C
:10505000E794D794C7948A95D2F7C016D106E20692
:10506000F30620F0452B462B472B99F4A6FF05C0ED
:10507000848D958DA68DB78D04C08C8D9D8DAE8D44
:10508000BF8D8C879D87AE87BF878E01045F1F4FC2
:1050900015C0C01AD10AE20AF30AF7CF4C855D8524
:1050A0006E857F8598018E819F810E94566D91E06B
:1050B000C91AD108E108F108181654F4C114D10432
:1050C000E104F10459F7888A998AAA8ABB8A06C042
:1050D0004C865D866E867F8680E001C081E0DF9130
:1050E000CF911F910F91FF90EF90DF90CF90BF90E5
:1050F000AF909F908F907F906F905F904F900895AA
:10510000CF93DF93EC010E946E271882DF91CF913D
:1051100008953F924F925F926F927F928F929F92EB
:10512000AF92BF92CF92DF92EF92FF920F931F93B5
:10513000CF93DF9300D000D0CDB7DEB74C01FC0198
:105140008281846082834484558466847784A680C7
:10515000B780F501C084D184E284F384C414D504FB
:10516000E604F704C0F47301620110E0FFEFCF1A08
:10517000DF0AEF0AFF0AF501808D918DA28DB38DB4
:105180008C159D05AE05BF0540F4111132C0C084D9
:10519000D184E284F38411E0E9CF4C145D046E0401
:1051A0007F0439F19E012F5F3F4FB701A601C50172
:1051B0000E94566D87FD1DC08823C1F289819A81A6
:1051C000AB81BC81892B8A2B8B2B81F6112329F093
:1051D000F501C086D186E286F3860FEF1FEF2FEF31
:1051E0003FE0B701A601C5010E94E56C382E811190
:1051F00002C0312C15C0411451046104710431F412
:10520000F401C486D586E686F7860AC09701860132
:10521000B301A201C5010E94E56C8111F1CFE9CF74
:10522000832D0F900F900F900F90DF91CF911F91D2
:105230000F91FF90EF90DF90CF90BF90AF909F9035
:105240008F907F906F905F904F903F9008952F9236
:105250003F924F925F926F927F928F929F92AF9206
:10526000BF92CF92DF92EF92FF920F931F93CF9353
:10527000DF93CDB7DEB72D970FB6F894DEBF0FBE24
:10528000CDBFFC018B017A016115710509F4D7C30B
:10529000DB018C91807709F4D2C380818111CFC367
:1052A000DA0111960D90BC91A02DBF83AE83DA0177
:1052B0008C91837009F466C28E819F810C966DE09B
:1052C00070E00E94929ABB24B394B60E2D834701DE
:1052D0001F0140E050E0BA01C8010E94BC271A86B5
:1052E00019861886A12CC12CD12C1B86F701369665
:1052F000FD87EC87D80150964D905D906D907C9025
:10530000539735E076946794579447943A95D1F73C
:10531000720161E0C8010E942527009731F4F8016D
:105320008181882309F4A2C08AC3DC012C91253E27
:1053300011F021110AC0C11002C05A864986CB144F
:1053400008F4C394211105C091C0CB1408F41DC208
:1053500003C0253E09F43FC02E32E9F1FC0133853C
:105360003F3009F057C0D11008C026FFC3CF2F71BE
:10537000D22EF585F887A22E07C0AA942A112BC039
:105380002585B885B21327C04A2D50E041505109F8
:10539000EDE0E49F9001E59F300D11244E815F8187
:1053A00024173507C0F4FC01F12C54E05F1518F008
:1053B0008181928108C06AE06F1518F0848195811F
:1053C00002C086819781AE81BF81A217B30729F4FD
:1053D000892B09F48FCFD12C8DCF8F3F910509F008
:1053E000D0F74FEB480F4A3108F4805EA9014F5FB8
:1053F0005F4FD40113966D917C911497260F371F40
:10540000D9019C912FEB290F2A3108F4905E981353
:10541000E2CFBDC133FDDFCFDD20A1F0B1E0AB12A3
:105420000EC3FC019C01255F3F4F90E090FB9795D8
:1054300097F98191980F2E173F07C1F7E885E91377
:10544000FEC210C04BE050E06C857D850E94809EBE
:10545000892B09F04FCFD4018C9180FF03C0F1E07C
:10546000FB8748CFBD81B6FFA2C0E9C2ED81E4FF52
:10547000E6C28E2F83708150823008F0E0C28FC167
:10548000B3E0BA1510F4A3E0AA2E94E09A0D822F8F
:105490008F70E92FF0E08A3008F068C2805DE80D77
:1054A000F91D8683F4E036952795FA95E1F791503A
:1054B000A91668F3F401EA0DF11D768240E050E090
:1054C000BA01C8010E94BC2761E0C8010E942527DB
:1054D000009709F010C2F80181818111B0C2E985FD
:1054E000FA85AF0160E070E0E5E0440F551F661FEC
:1054F000771FEA95D1F7C8010E94BC27882309F4D9
:105500009EC2DD24DA94DB0CCD2C3FE0B32E740177
:10551000F1E1EF0EF11C4DE0A42EC11029C2F801FB
:1055200080899189A289B38925E0B695A795979539
:1055300087952A95D1F77C0160E0C8010E94252754
:10554000009709F47CC220E2DC011D922A95E9F75C
:10555000F40136962BE0DC0101900D922A95E1F7DB
:10556000F40120812871DC011C962C931C9721E208
:1055700038E251963C932E93509740E058E01F96A6
:105580005C934E931E9753963C932E935297599645
:105590003C932E93589757965C934E935697D80109
:1055A0001696ED91FC91179780A1816080A380E20F
:1055B000F10111928A95E9F7D8011696AD90BC9049
:1055C0001797F101B782A682F582E4825C968D91ED
:1055D0009D910D90BC91A02D80879187A287B38764
:1055E000F701EF70FF27D501979695E0EE0FFF1FAB
:1055F0009A95E1F79D012E0F3F1FD9011B968C91C3
:1056000083FDBDC0C5018E0F9F1FDC01D2968C911A
:105610008771D1018C93D9011B969C91987119F4D3
:105620008860D1018C93D1011396DC928D818370B7
:10563000813059F028F0823009F0A1C083E006C023
:10564000BD81B5FD9CC081E001C082E0D101129610
:105650008C93D10112968C91129781FF04C09C917A
:10566000917109F08CC09D819878892BD101129697
:105670008C93D50193964D915D916D917C91969708
:10568000D10154964D935D936D937C935797EA0D9A
:10569000FB1DC3ACD4ACE12CF12CB601552744273B
:1056A0009F012F5B3F4FD901CD90DC90E12CF12C75
:1056B000C42AD52AE62AF72ABD81B5FF3FC0C11406
:1056C000D104E104F10409F4BCC119821A821B82DD
:1056D0001C829E012F5F3F4FB701A601C5010E94AA
:1056E000566D982E87FD4BC000E010E09801B70181
:1056F000A601C5010E94E56C882309F440C0F501AC
:1057000040855185628573854C155D056E057F0565
:1057100060F0F1E0CF1AD108E108F108D501189640
:10572000CD92DD92ED92FC921B97C980DA80EB80DE
:10573000FC809110CECF811184C121C0D1015C9633
:10574000CD92DD92ED92FC925F97ED5BFF4F8081F1
:105750009181A281B381F101808F918FA28FB38F4C
:10576000FD81F2FF76C1D10158964D915D916D9109
:105770007C915B97C1010E94BC2781116AC1F10134
:1057800010825DC1BB24B394A1CDC12CE5CDF394AF
:105790003296BDE0FB1609F4ADCD9A0106CECC20C1
:1057A00009F44AC1CB1480F0FB85FF2309F497CE9E
:1057B000F401A58082E0E82EF12C9EE7792E6401A9
:1057C000F6E0CF0ED11CB1C060E0C8010E942527D1
:1057D000892B39F4D80111968C91882309F476C06D
:1057E0002EC1C394DFCF80899189A289B3898115A5
:1057F0009E4FAF41B10508F022C1C8010E9489281F
:10580000882309F41CC1D8011696ED91FC911797D5
:105810001C964D905D906D907C901F97B2E04B1A56
:10582000510861087108048004C0440C551C661CB2
:10583000771C0A94D2F780899189A289B389480E8E
:10584000591E6A1E7B1E25E0B301A201CF0180967E
:105850000E94A26B7C01009709F4F1C0FC0120E0DA
:1058600032E0119221503040E1F7DD24D394D80189
:1058700016960D90BC91A02DBD87AC8712968C9189
:105880001297D81640F190E0A0E0B0E029E0880F30
:10589000991FAA1FBB1F2A95D1F7F801408951898A
:1058A00062897389840F951FA61FB71F808B918B08
:1058B000A28BB38BAC85BD8512968C91823008F09B
:1058C00073CFB0E1CB0ECB1408F06ECFF80180811E
:1058D00085FF89CFB4C09701B301A2014D0D511DC1
:1058E000611D711D8D919C910E94E76A882309F4C6
:1058F000A6C0D394BCCFDC012C91222309F4EFCDB8
:105900001B962C9123FDE0CD4BE050E0BC01C6017D
:105910000E94809E892B09F0D7CDEFEFEE1AFE0A88
:10592000F4E6EF16F10409F48AC0D40111968D91C2
:105930009C9112979701280F391F1396ED91FC91B6
:1059400014978E0F9F1F8E179F0709F499CDA901F9
:10595000B5E0440F551FBA95E1F7240F351F41916B
:10596000042E000C550B24273527EDCF895C97CDED
:1059700060E0C8010E942527FC01892B09F45FC063
:10598000D80116962D913C911797D90190968C913C
:105990009097816090968C938C2DCD1001C080647F
:1059A0008083B3861486D401169690E090FB979579
:1059B00097F92D91920FEA16FB06C1F79587138E82
:1059C000128ED40113962D913C9114978F7190E013
:1059D0000197A89EA001A99E500D112480E06E8120
:1059E0007F814617570740F4D901A40FB51F6C916A
:1059F000062E000C770B0CC061E070E0AE81BF8119
:105A0000A417B50711F460E070E071956195710914
:105A1000853018F47283618307C08B3018F4758366
:105A2000648302C0778366838F5F4F5F5F4F3296D8
:105A30008D30A9F6CA9471CDFA86E986B3CE80E09E
:105A400009C0D10112968C911297846012968C93A2
:105A500087CE81E02D960FB6F894DEBF0FBECDBF86
:105A6000DF91CF911F910F91FF90EF90DF90CF903A
:105A7000BF90AF909F908F907F906F905F904F906E
:105A80003F902F9008952F923F924F925F926F9286
:105A90007F928F929F92AF92BF92CF92DF92EF92BE
:105AA000FF920F931F93CF93DF93CDB7DEB7E697A7
:105AB0000FB6F894DEBF0FBECDBF7C018A012CABC0
:105AC00019821A82DC018C9181115AC1611571050C
:105AD00009F456C1FB018081807709F451C1FA01B4
