:100000000C94B80A0C94EA100C94BF100C94941041
:100010000C941F100C94AA0F0C94350F0C94C00E66
:100020000C94E5150C94E20A0C94E20A0C94E20A92
:100030000C94F0620C949E630C94A5620C94E20AFA
:100040000C94E20A0C94E20A0C94CD7F0C94E20A20
:100050000C9418560C94EE550C94E20A0C94E20A97
:100060000C94E20A0C94E20A0C94AA7D0C94E20A25
:100070000C94B8550C948E550C94E20A0C94E20A38
:100080000C94E20A0C94E20A0C94E20A6A7D6D7DFB
:10009000607D647D847D847D717D757D7B7D7F7DCC
:1000A00008000000BE922449123EABAAAA2ABECD87
:1000B000CCCC4C3E00000080BEABAAAAAA3E0000F9
:1000C0000000BF000000803F0000000000084178F1
:1000D000D3BB4387D1133D190E3CC3BD4282AD2B28
:1000E0003E68EC8276BED98FE1A93E4C80EFFFBE20
:1000F00001C4FF7F3F000000000007634236B79B4A
:10010000D8A71A39685618AEBAAB558C1D3CB7CC77
:100110005763BD6DEDFD753EF6177231BF000000EF
:10012000803F4E414E494E495459494E46CDCCCC64
:100130003D0AD7233C17B7D13877CC2B329595E6BB
:10014000241FB14F0A000020410000C84200401C9B
:100150004620BCBE4CCA1B0E5AAEC59D7400407AE8
:1001600010F35A00A0724E18090010A5D4E8000040
:10017000E87648170000E40B54020000CA9A3B00DE
:100180000000E1F505000080969800000040420F55
:10019000000000A08601000000102700000000E819
:1001A00003000000006400000000000A00000000DE
:1001B000000100000000002C76D888DC674F08237F
:1001C000DFC1DFAE59E1B1B796E5E3E453C63AE6E5
:1001D00051997696E8E6C28426EB898C9B62ED40C5
:1001E0007C6FFCEFBC9C9F40F2BAA56FA5F4900514
:1001F0005A2AF75C936B6CF9676DC11BFCE0E40D48
:1002000047FEF520E6B500D0ED902E03009435773B
:10021000050080841E080000204E0A000000C80C63
:10022000333333330F986E12831141EF8D211489CC
:100230003BE65516CFFEE6DB18D1844B381BF77C26
:100240001D901DA4BBE424203284725E228100C96B
:10025000F124ECA1E53D270A4C6F676765723A739C
:1002600065744C6F676765724964206572726F725E
:10027000202D206578706563746564204E554C4C64
:1002800020707472000A0D2020204C6F6767657221
:100290003A7365744C6F67676572496420746F6F59
:1002A000206C6F6E673A205472696D6D65642074BE
:1002B0006F20002020204C6F633D006261747465E4
:1002C000727920747970653D006D696E757465731F
:1002D0002C20547A3D005D0A0D2020206C6F67674A
:1002E000696E6720696E74657276616C3D00467256
:1002F0006F6D20656570726F6D20636F6D6D6F6ED1
:100300003A204C6F676765722046696C65204E61C4
:100310006D655B00466163746F7279206465666128
:10032000756C74006D734C6F673031005D005D203B
:10033000736E5B005D20207265765B0046726F6DA8
:1003400020656570726F6D20626F6F74204E616DF5
:10035000655B00302E3562004D313233343536372F
:100360003839616263646566676800656E766972D4
:100370006F444959206D6179666C790050617273E0
:100380006520696E693B204E6F2066696C652000B0
:10039000436F6D706C657465642E004572726F7288
:1003A000206F6E206C696E65203A00506172736533
:1003B00020696E693B200056005620474F4F443D50
:1003C0000056204D454449554D3D0056204C4F5751
:1003D0003D00205468726573686F6C6473205553D8
:1003E0004541424C453D0042617474657279205428
:1003F0007970653D0050757474696E67206D6F6427
:10040000656D20746F20736C65657000436F756C4B
:1004100064206E6F742077616B65206D6F64656D0D
:1004200020666F7220636C6F636B2073796E632E2E
:1004300000436F756C64206E6F7420636F6E6E6521
:10044000637420746F20696E7465726E65742066C3
:100450006F7220636C6F636B2073796E632E005430
:10046000686973206D61792074616B6520757020F7
:10047000746F2074776F206D696E757465732100D9
:10048000417474656D7074696E6720746F20636F5A
:100490006E6E65637420746F2074686520696E7475
:1004A00065726E657420616E642073796E63687224
:1004B0006F6E697A65205254432077697468204EC4
:1004C00049535400446174612077696C6C20626503
:1004D00020736176656420617300556E61626C659E
:1004E00020746F2063726561746520612066696C99
:1004F0006520746F20736176652064617461207477
:100500006F210053657474696E6720757020666989
:100510006C65206F6E2053442063617264005365E4
:100520007474696E672075702073656E736F727373
:100530002E2E2E0054696D6520000A0A2D2D2D7077
:1005400061727365496E6920636F6D706C65746567
:1005500020002D2D2D7061727365496E6920004752
:100560006F6F6420426174563D002D2D2D2D576113
:100570006B657570003A20426174746572794C6FD6
:10058000772D536C65657036307365632C2042613E
:1005900074563D0054696E7947534D204C69627220
:1005A0006172792076657273696F6E20004D6F6499
:1005B000756C617253656E736F72732076657273BA
:1005C000696F6E20000A2D2D2D426F6F742E204210
:1005D00075696C643A20005D000A53656E64696E4B
:1005E00067206461746120746F205B002D2D2D2DB8
:1005F0002D2D2D2D2D2D2D2D2D2D2D2D2D2D2D2D2B
:100600002D2D2D2D2D2D2D2D2D2D2D2D2D2D2D2D1A
:100610002D2D2D2D2D2D0A002D2D2D2D2D2D2D2D5A
:100620002D2D2D2D2D2D2D2D2D2D2D2D2D2D2D2DFA
:100630002D2D2D2D2D2D2D2D2D2D2D2D2D2D2D2DEA
:100640002D2D00204C626174743D00206C6F672674
:1006500050756220565F6261747400204C62617450
:10066000743D00204C6F674F6E6C792E20562074BD
:100670006F6F206C6F772062617474657279563D7C
:10068000002D2D2D4E657752656164696E6720439C
:10069000414E43454C4C45442D2D4C626174745F72
:1006A000563D004552524F52004C4100544D0054AB
:1006B0004D3000544D00414D3000465200414D3107
:1006C0000041503000414D30004149002B2B2B00A0
:1006D000414300575200414D31002556005450000F
:1006E000414D00414D00414D3000414E004D4E0006
:1006F0004469676920586265653320736574757055
:10070000206661696C6564210044696769205862EC
:1007100065653320736574757020537563657373F5
:100720002E20526567697374726174696F6E202739
:1007300000547279202B435245472027002B435207
:100740004547004149004C6F6F703D5365635D2024
:100750007278206462203A20537461747573202784
:10076000204F70657261746F7220272023506F6C68
:100770006C65642043656C6C2053746174757320E0
:10078000657665727920317365630041503000549D
:100790004D005031005444304100444F00534F004D
:1007A000534D005030004435004437004439004573
:1007B00052524F520D004F4B0D0044380050696E9D
:1007C00000434E004853004853000A4C6F6767656A
:1007D000724D6F64656D3A3A73657441504E206591
:1007E00072726F72202D6E6F206275666665722060
:1007F000000A4C6F676765724D6F64656D3A3A73B6
:10080000657441504E206572726F72202D2065789C
:10081000706563746564204E554C4C207074720092
:100820000A0D2020204C6F676765724D6F64656DFF
:100830003A73657441504E20746F6F206C6F6E6711
:100840003A205472696D6D656420746F20003D001C
:100850005D20004E6F7420737570706F72746564E4
:10086000205B00414354494F4E2057726974652004
:1008700061626F727465642E20696E737472756341
:1008800074696F6E202700414354494F4E20434FF7
:100890005059206E6F7420737570706F7274656438
:1008A000207965743A00434F505900454550524FE6
:1008B0004D2057726974652066696E697368656456
:1008C00000414354494F4E2057726974652061704E
:1008D0007020454550524F4D2073746172746564A9
:1008E0003A00575249544500414354494F4E005530
:1008F0005345520020746F2000424F4F54207462C1
:10090000642000454550524F4D2057726974652050
:1009100061626F727465642E20696E7374727563A0
:1009200074696F6E202700454550524F4D20577215
:100930006974652066696E69736865640045455031
:10094000524F4D20577269746520737461727465DB
:10095000643A0059455300454550524F4D5F575238
:1009600049544500426F617264205265763A0042F4
:100970004F4152445F52455600426F6172642053AA
:10098000657269616C4E756D203A00424F41524468
:100990005F534E00426F617264204E616D653A0094
:1009A000424F4152445F4E414D4500424F4F54002B
:1009B00020746F20004E4554574F524B2074626490
:1009C0002000272C206E6F772073657420746F20B1
:1009D00027004E4554574F524B2041504E207761CF
:1009E0007320270061706E004E4554574F524B00E4
:1009F00020746F200053454E534F5253207462644D
:100A0000200053454E534F52530020746F20004333
:100A10004F4D4D4F4E20746264200047454F475262
:100A20004150484943414C5F49443A0047454F478C
:100A3000524150484943414C5F494400434F4D4D5A
:100A40004F4E205365742054696D655A6F6E652052
:100A50006572726F723B202872616E6765202D315E
:100A600032203A202B31322920726561643A0043EA
:100A70004F4D4D4F4E205365742054696D655A6F2C
:100A80006E65203B200054494D455F5A4F4E45004E
:100A900020536574204C69496F6E2054797065202D
:100AA0006572726F723B202872616E676520302D0F
:100AB000322920726561643A00434F4D4D4F4E20FC
:100AC0004C69496F6E20547970653A20004C494951
:100AD0004F4E5F545950450020536574204C69496E
:100AE0006F6E2054797065206572726F723B20289A
:100AF00072616E676520302D322920726561643A1B
:100B000000434F4D4D4F4E20426174746572792001
:100B1000547970653A2000424154544552595F540B
:100B20005950450029207769746820726561643ADC
:100B3000002053657420696E74657276616C20655F
:100B400072726F72202872616E67653A20312D00D3
:100B5000286D696E292066726F6D20646566617507
:100B60006C742000434F4D4D4F4E204C4F4747492A
:100B70004E475F494E54455256414C5F4D494E5584
:100B80005445532073657420746F3A2000205573C8
:100B9000696E67204D61782E2052656164696E67C9
:100BA0002069676E6F7265642000434F4D4D4F4E54
:100BB000204C4F4747494E475F494E544552564196
:100BC0004C5F4D494E55544553206D7573742062EA
:100BD00065206C657373207468616E203A20004C48
:100BE0004F4747494E475F494E54455256414C5F27
:100BF0004D494E5554455300434F4D4D4F4E204C9B
:100C00006F676765724964205365743A20004C4FE2
:100C1000474745525F494400434F4D4D4F4E007D7D
:100C20002055554944206E6F7420737570706F7233
:100C3000746564007D206F7574206F662072616E2C
:100C400067652E204E6F7475736564007D007D208E
:100C50007265706C6163696E67207B00696E6465A4
:100C600078007D206D6174636820202620616464B3
:100C700065642E003D7B0000555549447300505279
:100C80004F5649444552206E6F7420737570706FD3
:100C9000727465643A0050524F564944455220538D
:100CA000657474696E672053616D706C696E674618
:100CB0006561747572653A200053414D504C494E40
:100CC000475F464541545552450050524F5649449E
:100CD00045522053657474696E6720636C6F756448
:100CE00049643A2000434C4F55445F4944005052F8
:100CF0004F56494445522053657474696E6720729B
:100D00006567697374726174696F6E20746F6B6567
:100D10006E3A2000524547495354524154494F4E70
:100D20005F544F4B454E0050524F56494445520078
:100D30001F1C1F1E1F1E1F1F1E1F1E1F4E49535408
:100D40002054696D652073657276657220646964EC
:100D5000206E6F7420726573706F6E6421006D7306
:100D6000004E49535420726573706F6E6465642041
:100D70006166746572005D20436F6E6E65637420FA
:100D8000002D2D20526573706F6E736520436F6464
:100D900065202D2D000A202D2D20556E61626C6579
:100DA00020746F2045737461626C69736820436FAF
:100DB0006E6E656374696F6E20746F20456E766920
:100DC000726F444959204461746120506F7274619C
:100DD0006C202D2D006D6F646275735F3078002D6F
:100DE0003E00416C6C207661726961626C652055D1
:100DF00055494427732061707065617220746F20BB
:100E0000626520636F72726563746C7920666F72BD
:100E10006D65642E0A006861732061206E6F6E2D0F
:100E2000756E697175652055554944210068617377
:100E300020616E20696E76616C6964205555494465
:100E400021004C6F6767657220706F7274696F6EF6
:100E5000206F662073657475702066696E697368AB
:100E600065642E0A0053616D706C696E672066655B
:100E7000617475726520555549442069733A006163
:100E800072652063616C63756C617465642E0073B8
:100E9000656E736F727320616E6400636F6D6520A1
:100EA00066726F6D007661726961626C65732C2089
:100EB0006F662077686963680054686973206C6F97
:100EC000676765722068617320612076617269616D
:100ED000626C652061727261792077697468004381
:100EE000757272656E74205254432074696D65206A
:100EF00069733A002D2D2D2D2D2D2D2D2D2D2D2DC0
:100F00002D2D2D2D2D2D2D2D2D2D2D2D2D2D2D2D11
:100F10002D2D2D2D2D2D2D2D2D2D2D2D2D2D0A0051
:100F20002D2D2D2D2D2D2D2D2D2D2D2D2D2D2D2DF1
:100F30002D2D2D2D2D2D2D2D2D2D2D2D2D2D2D2DE1
:100F40002D2D2D2D2D2D2D2D2D2D002D2D2D2D2DFE
:100F5000205741524E494E47202D2D2D2D2D202119
:100F60002121212121212121212121212121212171
:100F7000212121004261642074696D6520002121D6
:100F80002121212121212121212121212121212151
:100F90002121202D2D2D2D2D205741524E494E47D8
:100FA000202D2D2D2D2D20003A3030003A303000EC
:100FB0003A3030003A3030007365636F6E647320EE
:100FC0006F66204E4953542E00496E7465726E61EF
:100FD0006C20436C6F636B2077697468696E2000C6
:100FE000496E7465726E616C20436C6F636B207325
:100FF000657420004261642074696D657374616D6D
:10100000702C206E6F742073657474696E67206332
:101010006C6F636B2E0021212121212121212121AF
:1010200021212121212121212121202D2D2D2D2D75
:10103000205741524E494E47202D2D2D2D2D200059
:1010400021212121212121212121202D2D2D2D2D55
:10105000205741524E494E47202D2D2D2D2D202118
:10106000212121212121212121002D2D2D2D2D2056
:101070005741524E494E47202D2D2D2D2D202121F7
:101080002121212121212121212121212121212150
:101090002121005468652063757272656E74206347
:1010A0006C6F636B2074696D657374616D7020691A
:1010B00073206E6F742076616C6964210021212198
:1010C0002121212121212121212121212121212110
:1010D00021202D2D2D2D2D205741524E494E472098
:1010E0002D2D2D2D2D2000212121212121212121D6
:1010F00021202D2D2D2D2D205741524E494E472078
:101100002D2D2D2D2D202121212121212121212194
:10111000002D2D2D2D2D205741524E494E47202D6B
:101120002D2D2D2D20212121212121212121212180
:10113000212121212121212121004552524F5200FC
:101140004F4400544D00544D00444500444C004968
:10115000500027002720736E3A2700207265763AE8
:101160002700426F6172643A2000204D6F64756CF5
:10117000617253656E736F727320766572732000AF
:101180005377204275696C643A20002020426174D4
:1011900074657279547970653A200020547A3A2047
:1011A0000020204C6F6767696E67496E74657276C0
:1011B000616C20286D696E293A20004C6F63617460
:1011C000696F6E3A20004461746520616E6420543A
:1011D000696D6520696E2055544300526573756CC6
:1011E0007420555549443A00526573756C74205506
:1011F0006E69743A005661726961626C65204E6175
:101200006D653A0053656E736F72204E616D653A7D
:101210000053616D706C696E67204665617475720C
:101220006520555549443A200044617461204C6F53
:10123000676765722046696C653A20004461746195
:10124000204C6F676765723A2000446174612077B3
:10125000696C6C206E6F74206265207361766564C2
:101260002100536C6176652F436869702073656C4B
:101270006563742070696E20666F7220534420632A
:1012800061726420686173206E6F74206265656EA0
:10129000207365742E00446174612077696C6C2042
:1012A0006E6F7420626520736176656421004572FB
:1012B000726F723A205344206361726420666169E0
:1012C0006C656420746F20696E697469616C697AF9
:1012D00065206F72206973206D697373696E672E64
:1012E000004932435F30783638005F50696E0053F2
:1012F000444931322D004552524F5221204E6F2029
:1013000077656220636C69656E74206173736967C9
:101310006E656420746F207075626C6973682064F8
:1013200061746121004442004C4D004D590043540A
:1013300036340047543634004552524F520D004F58
:101340004B0D004150300043490073657456617283
:1013500055554944206572726F72202D206E657755
:10136000206469646E277420776F726B20666F72D9
:10137000002D2D2D2D5C2F000A205C2F2D2D2D2DC5
:10138000204C696E6520536176656420746F00554A
:101390006E61626C6520746F207772697465207469
:1013A0006F20534420636172642100200020697320
:1013B0002000207265706F72747320002000206915
:1013C000732063616C63756C6174656420746F2055
:1013D000626520002D2D2D2D2D2D2D2D2D2D2D2D0A
:1013E0002D2D2D2D2D2D2D2D2D2D2D2D2D2D2D2D2D
:1013F0002D2D2D2D2D2D2D2D2D2D2D2D2D2D004532
:10140000786974696E672074657374696E67206D9E
:101410006F6465002D2D2D2D2D2D2D2D2D2D2D2D78
:101420002D2D2D2D2D2D2D2D2D2D2D002D2D2D2D19
:101430002D2D2D2D2D2D2D2D2D2D2D2D2D2D2D2DDC
:101440002D2D2D0043757272656E74206C6F676769
:1014500065722074696D65206973002D2D2D2D2D09
:101460002D2D2D2D2D2D2D2D2D2D2D2D2D2D2D2DAC
:101470002D2D2D2D2D2D2D2D2D2D2D2D2D2D2D2D9C
:101480002D2D2D2D2D00456E746572696E672073AC
:10149000656E736F722074657374696E67206D6F0B
:1014A0006465002D2D2D2D2D2D2D2D2D2D2D2D2D2A
:1014B0002D2D2D2D2D2D2D2D2D2D2D2D2D2D2D2D5C
:1014C0002D2D2D2D2D2D2D2D2D2D2D2D2D000000D3
:1014D000200023002600290000010203040506075E
:1014E00000010203040506070001020304050607C4
:1014F00000010203040506070404040404040404B0
:1015000002020202020202020303030303030303B3
:1015100001010101010101010102040810204080C4
:1015200001020408102040800102040810204080BD
:101530000102040810204080000021002400270040
:101540002A0000002200250028002B0000000000D7
:1015500004030807000000010200090A000000005F
:10156000000000000000000000000000A18865905D
:1015700011241FBECFEFD0E4DEBFCDBF19E0A0E045
:10158000B1E0EAEFFCE301E00BBF02C007900D926F
:10159000A23CB107D9F729E1A2ECB9E001C01D9244
:1015A000A232B207E1F71AE0C7EBDAE004C02197F4
:1015B000FE010E943D9AC63BD107C9F70E941780E1
:1015C0000C94709E0C940000DC01ED91FC91068857
:1015D000F789E02D099591E0811101C090E0892FF4
:1015E00008950F931F93CF93DF9300D000D000D0C6
:1015F000CDB7DEB78C01DC01ED91FC910084F18563
:10160000E02D0995892BC9F41B821C821D821E8244
:10161000D8011C96ED91FC911D97458556856785EF
:1016200070898B819C81AD81BE81481759076A07FB
:101630007B0729F0F801858903C081E001C080E0C3
:1016400026960FB6F894DEBF0FBECDBFDF91CF91C7
:101650001F910F910895DC011C96ED91FC911D974F
:1016600080819181DC01ED91FC910680F781E02D74
:101670000994DC011C96ED91FC911D97808191816C
:10168000DC01ED91FC910484F585E02D0994CF9364
:10169000DF931F92CDB7DEB76983DC01ED91FC913A
:1016A0000280F381E02D41E050E0BE016F5F7F4F8B
:1016B00009950F90DF91CF9108950F931F93CF93CA
:1016C000DF9300D000D000D0CDB7DEB7DC01ED91C4
:1016D000FC91048CF58DE02D24E533E03A832983D9
:1016E000DB0112960D911D912D913C9115970B8365
:1016F0001C832D833E8320E030E0BE016F5F7F4F6F
:10170000099526960FB6F894DEBF0FBECDBFDF91C8
:10171000CF911F910F910895DC01ED91FC91028C06
:10172000F38DE02D2BE430E009948091C409811100
:10173000FCCF08958091C3098F5F843408F080E066
:101740009091C2099817E1F32FB7F8949091C409CA
:10175000992341F0E82FF0E0E25CFB4E6083809338
:10176000C3091DC081E08093C40960938314109263
:10177000821482E086BB80916F00826080936F004C
:10178000809180008F7B80688093800080918400AE
:1017900090918500409690938900809388002FBF98
:1017A00081E090E00895FC01848583FF0DC084A151
:1017B00095A1A6A1B7A1448D558D668D778D841B0B
:1017C000950BA60BB70B03C080E090E0DC01811500
:1017D00020E89207A105B10520F08FEF9FE7A0E078
:1017E000B0E0089580E090E00895CF93DF93EC019E
:1017F00062E070E080E090E00E94877FEC85FD85EC
:1018000080819181DC01ED91FC910284F385E02DD2
:10181000DF91CF910994CF93DF93EC0162E070E008
:1018200080E090E00E94877FEC85FD85808191813A
:10183000DC01ED91FC910084F185E02DDF91CF91E9
:101840000994EF92FF920F931F93CF93DF937C0144
:10185000EB018A0162E070E080E090E00E94877F07
:10186000D7011C96ED91FC911D97A801BE018081C6
:101870009181DF91CF911F910F91FF90EF900C9488
:101880005354EF92FF920F931F93CF93DF93EC018A
:101890008B017A0162E070E080E090E00E94877F37
:1018A000A701B8018C859D85DF91CF911F910F9184
:1018B000FF90EF900C94D95ACF92DF92EF92FF9263
:1018C0000F931F93CF93DF9300D000D000D0CDB7FC
:1018D000DEB78C016B017A01FC01848595850E943D
:1018E000E02DF801268584E593E09A838983F6014B
:1018F00082819381A481B5818B839C83AD83BE83D8
:10190000A701BE016F5F7F4FF801848595850E9416
:10191000F157F801858B90E026960FB6F894DEBF5C
:101920000FBECDBFDF91CF911F910F91FF90EF9030
:10193000DF90CF9008950C960C948D6E8F929F92AD
:10194000AF92BF92CF92DF92EF92FF920F931F93CD
:10195000CF93DF931F92CDB7DEB78C01FC01848C4F
:10196000958CA68CB78CC08CD18CE28CF38CBE018C
:101970006F5F7F4F0C960E94B46D019719F48981B7
:1019800090E002C08FEF9FEF8F3FFFEF9F0749F07E
:10199000F801848E958EA68EB78EC08ED18EE28E83
:1019A000F38E0F90DF91CF911F910F91FF90EF90E9
:1019B000DF90CF90BF90AF909F908F900895CF937E
:1019C000DF931F92CDB7DEB7BE016F5F7F4F0C96DE
:1019D0000E94B46D019719F4898190E002C08FEFE5
:1019E0009FEF0F90DF91CF9108950C960C94142ADD
:1019F000CF93DF93EC0163ED76E00E94E72248E3AA
:101A000053E16FE373E1CE010E94AC72813079F44F
:101A100060ED76E0CE010E94E72248E353E16FE3F8
:101A200073E1CE010E94AC7291E0813009F090E048
:101A3000892FDF91CF9108958F929F92AF92BF929D
:101A4000DF92EF92FF920F931F93CF93DF93EC01FE
:101A5000D62E1BA1112391F00E94C17F8CA09DA0C6
:101A6000AEA0BFA0DC01CB0188199909AA09BB0966
:101A700080319742A105B10508F454C0CE010E94FF
:101A8000E02D84E0F82EE12CDE1409F44AC06E81CA
:101A90007F81665F7F4F072E000C880B990B0E9499
:101AA000877F6CEC76E0888199810E9458554E8141
:101AB0005F81440F551F052E000C660B770B08E362
:101AC00013E12FE333E1CE010E947571182F8111CC
:101AD0001BC0FA94F11018C08A8587FD0DC060E024
:101AE0000E94057F61E070E080E090E00E94877FC7
:101AF00061E08A850E94057F6AEF70E080E090E0F7
:101B00000E94877F94E0F92EE394113009F0BCCF56
:101B10001BA30E94C17F6CA37DA38EA39FA311E092
:101B200001C010E0812FDF91CF911F910F91FF90A5
:101B3000EF90DF90BF90AF909F908F9008958F921D
:101B40009F92AF92BF92FF920F931F93CF93DF9319
:101B5000EC01FBA0FF2021F08BA1882331F008C00D
:101B600065E00E941C0D8111F7CF84E090E0FEC07B
:101B700088859985892B19F4CE010E94F82369EC98
:101B800076E0CE010E94E72240E157E260E070E09B
:101B9000CE010E94A923288539852130364009F0DD
:101BA000A8C08332910509F4D7C05CF48330910555
:101BB0002CF4813091050CF4A6C0B9C0439789F08C
:101BC000C9C0833491050CF0AFC0803491050CF08E
:101BD000AEC08432910509F4ACC0879709F4A9C05E
:101BE000B9C065E0CE010E941C0D882309F4B4C081
:101BF00088859985892B19F4CE010E94F823888560
:101C0000998581309640B9F06DEB76E0CE010E9467
:101C1000E72248E353E16FE373E1CE010E94AC7227
:101C2000813021F0CE010E94972396C0CE010E9400
:101C3000F80C8823B9F36AEB76E0CE010E94E72224
:101C400048E353E16FE373E1CE010E94AC7281304F
:101C500049F71BA2888599858130964029F460ED6B
:101C600077E080E090E004C064E670E080E090E01F
:101C70000E94877F0E94C17F4B015C010E94C17F4F
:101C8000DC01CB0188199909AA09BB0980369A4E53
:101C9000A105B10568F461E0CE010E941C0D81111F
:101CA00007C06AEF70E080E090E00E94877FE6CF97
:101CB0008885998581309640A9F066EB76E0CE0163
:101CC0000E94E72248E353E16FE373E1CE010E94F3
:101CD000AC72813009F0A6CFCE010E94F80C8823A7
:101CE00009F4A0CFCE010E949723CE010E94B972C1
:101CF00033C085329105E9F04CF48432910554F5F6
:101D000082329105A4F4892B49F124C08D329105CA
:101D100044F48B329105F4F48A97E1F465EC76E0B3
:101D20000CC08F32910539F08F3F910599F402E094
:101D300016C003E014C061EC76E0CE010E94E722F9
:101D400048E353E16FE373E1CE010E94AC72CE0130
:101D50000E94F80C04E003C001E001C000E010E0C4
:101D6000F11003C0CE010E949723C801DF91CF91EB
:101D70001F910F91FF90BF90AF909F908F9008950B
:101D80001F920F920FB60F9211240BB60F922F9342
:101D90003F934F935F936F937F938F939F93AF93F3
:101DA000BF93CF93EF93FF9329B1C0918218809195
:101DB000CA189091C618322F309593238223892B0D
:101DC00090917300C227C923C82320938218CC2383
:101DD000C1F1C0FF05C0E0918318F0918418099506
:101DE000C1FF05C0E0918518F09186180995C2FFE2
:101DF00005C0E0918718F09188180995C3FF05C0C8
:101E0000E0918918F0918A180995C4FF05C0E09106
:101E10008B18F0918C180995C5FF05C0E0918D18BD
:101E2000F0918E180995C6FF05C0E0918F18F091CA
:101E300090180995C7FF05C0E0919118F09192188C
:101E40000995FF91EF91CF91BF91AF919F918F91A4
:101E50007F916F915F914F913F912F910F900BBEAA
:101E60000F900FBE0F901F9018951F920F920FB6F4
:101E70000F9211240BB60F922F933F934F935F93C2
:101E80006F937F938F939F93AF93BF93CF93EF9372
:101E9000FF9326B1C09193188091CB189091C718E9
:101EA000322F309593238223892B90916D00C22786
:101EB000C923C82320939318CC23C1F1C0FF05C0C8
:101EC000E0919418F09195180995C1FF05C0E09133
:101ED0009618F09197180995C2FF05C0E0919818DF
:101EE000F09199180995C3FF05C0E0919A18F091F7
:101EF0009B180995C4FF05C0E0919C18F0919D18AE
:101F00000995C5FF05C0E0919E18F0919F180995AD
:101F1000C6FF05C0E091A018F091A1180995C7FF70
:101F200005C0E091A218F091A3180995FF91EF91D7
:101F3000CF91BF91AF919F918F917F916F915F9161
:101F40004F913F912F910F900BBE0F900FBE0F90AE
:101F50001F9018951F920F920FB60F9211240BB677
:101F60000F922F933F934F935F936F937F938F9332
:101F70009F93AF93BF93CF93EF93FF9323B1C09100
:101F8000A4188091CC189091C818322F30959323C3
:101F90008223892B90916C00C227C923C8232093E8
:101FA000A418CC23C1F1C0FF05C0E091A518F091A1
:101FB000A6180995C1FF05C0E091A718F091A818CF
:101FC0000995C2FF05C0E091A918F091AA180995DA
:101FD000C3FF05C0E091AB18F091AC180995C4FFA0
:101FE00005C0E091AD18F091AE180995C5FF05C088
:101FF000E091AF18F091B0180995C6FF05C0E091C7
:10200000B118F091B2180995C7FF05C0E091B31857
:10201000F091B4180995FF91EF91CF91BF91AF91D5
:102020009F918F917F916F915F914F913F912F91F0
:102030000F900BBE0F900FBE0F901F9018951F9220
:102040000F920FB60F9211240BB60F922F933F935E
:102050004F935F936F937F938F939F93AF93BF93B0
:10206000CF93EF93FF9320B1C091B5188091CD1815
:102070009091C918322F309593238223892B909108
:102080006B00C227C923C8232093B518CC23C1F104
:10209000C0FF05C0E091B618F091B7180995C1FFCF
:1020A00005C0E091B818F091B9180995C2FF05C0B4
:1020B000E091BA18F091BB180995C3FF05C0E091F3
:1020C000BC18F091BD180995C4FF05C0E091BE1879
:1020D000F091BF180995C5FF05C0E091C018F091B7
:1020E000C1180995C6FF05C0E091C218F091C31848
:1020F0000995C7FF05C0E091C418F091C51809956E
:10210000FF91EF91CF91BF91AF919F918F917F916F
:102110006F915F914F913F912F910F900BBE0F9058
:102120000FBE0F901F9018951F920F920FB60F922F
:1021300011240BB60F922F933F934F935F936F939E
:102140007F938F939F93AF93BF93EF93FF93E09110
:102150008018F09181180995FF91EF91BF91AF918F
:102160009F918F917F916F915F914F913F912F91AF
:102170000F900BBE0F900FBE0F901F9018951F92DF
:102180000F920FB60F9211240BB60F922F933F931D
:102190004F935F936F937F938F939F93AF93BF936F
:1021A000EF93FF93E0917E18F0917F180995FF91CE
:1021B000EF91BF91AF919F918F917F916F915F91BF
:1021C0004F913F912F910F900BBE0F900FBE0F902C
:1021D0001F9018951F920F920FB60F9211240BB6F5
:1021E0000F922F933F934F935F936F937F938F93B0
:1021F0009F93AF93BF93EF93FF93E0917C18F0917F
:102200007D180995FF91EF91BF91AF919F918F91AB
:102210007F916F915F914F913F912F910F900BBEE6
:102220000F900FBE0F901F901895BF92CF92DF9224
:10223000EF92FF920F931F93CF93DF93CDB7DEB74B
:102240002C970FB6F894DEBF0FBECDBF6C01FC011A
:10225000848595850E94E02DF601E484F584C7010C
:102260000E94E02DF701178E10A211A212A2B3A0B6
:10227000BB2041F163EB76E0C7010E94E72228E82A
:1022800033E140E050E0B701CE0107960E944C23B5
:10229000F7018085918581309640D9F46FEA76E028
:1022A000C7010E94E72208E313E12FE333E148E886
:1022B00053E160E070E0C7010E947571C7010E94A0
:1022C000F80C07C065E0C7010E941C0D8111D2CF38
:1022D0002AC0BE01695F7F4FCE0101960E94C8539C
:1022E000AE014F5F5F4F6CEA76E0C7010E9420733A
:1022F000CE0101960E94465308E313E12FE333E138
:1023000048E853E160E070E0C7010E947571C701C1
:102310000E94F80CB11003C0C7010E949723CE01A0
:1023200007960E944653F601848595850E94E02D0C
:10233000F601158A2C960FB6F894DEBF0FBECDBFFE
:10234000DF91CF911F910F91FF90EF90DF90CF9091
:10235000BF9008952F923F924F925F926F927F921B
:102360008F929F92AF92BF92CF92DF92EF92FF92A5
:102370000F931F93CF93DF93CDB7DEB760970FB660
:10238000F894DEBF0FBECDBF6C017B01588B4F8729
:102390003901DC011C968D919C911D970E94E02DC6
:1023A000F601F685FD87D6011C960D911C911D97AF
:1023B000F80133A0332091F1B701CE0101960E94BC
:1023C000D1535801F1E1AF0EB11CBE016F5F7F4FD9
:1023D000C5010E948C51982ECE0101960E94465351
:1023E000911023C0B701CE0101960E94D153BE01C6
:1023F0006F5F7F4FC5010E94F851CE0101960E9488
:102400004653D80159961C9259975A961C925A973E
:102410005B961C925B975C961C9207C065E0C801B6
:102420000E941C0D8111C8CFFAC01B821C821D8224
:102430001E82F801418D528D638D748D8B819C813C
:10244000AD81BE81481759076A077B0709F0B4C000
:1024500062E778E0CE0107960E94D15360E170E018
:10246000CE0107960E9404520E94C17F4B015C017D
:1024700028EE33E0D3010E94469A2B013C01D8019B
:1024800093962C90211067C065E0C8010E941C0D36
:10249000811161C084E593E09A8389831B821C8249
:1024A0001D821E827CC00E94C17FDC01CB01881985
:1024B0009909AA09BB0984159505A605B70590F4E5
:1024C00062E070E080E090E00E94877FF801808108
:1024D0009181DC01ED91FC910084F185E02D09955D
:1024E00004970CF3F801608171814DE0CE010196F3
:1024F0000E942B54BE016F5F7F4FCE0107960E9452
:10250000BE51CE0101960E944653CE0107960E940D
:102510002C51CE0107960E943C7B811116C063EAC4
:1025200076E0CE0101960E949053BE016F5F7F4F0F
:10253000CE0107960E948C518E87CE0101960E9493
:102540004653BE85BB2309F487C064EC79E080E084
:1025500090E00E94877F0E94C17FDC01CB01881937
:102560009909AA09BB0984159505A605B70538F48C
:10257000A70169EA76E0C8010E94972EA7CF211033
:1025800089CFF12CC8010E949723FF2009F482CF44
:10259000BE01695F7F4FCE0101960E94152ECE01CC
:1025A00007960E9446538B819C81AD81BE81F801C4
:1025B000818F928FA38FB48FD80159964D915D91E1
:1025C0006D917C915C971B821C821D821E828B8187
:1025D0009C81AD81BE81481759076A077B07C1F00E
:1025E00084E593E09A838983F801818D928DA38D90
:1025F000B48D8B839C83AD83BE832D854F85588995
:10260000BE016F5F7F4FC8010E94F157F82E01C0D5
:10261000F12C311003C0C8010E9497238F2DD601E1
:1026200055968C9390E060960FB6F894DEBF0FBE7F
:10263000CDBFDF91CF911F910F91FF90EF90DF9071
:10264000CF90BF90AF909F908F907F906F905F9052
:102650004F903F902F90089521109ACFFF24F3942C
:1026600091CFDF92EF92FF920F931F93CF93DF935F
:10267000EC0179018C010E5C1F4FFB011082FA0105
:102680001082FC01EB5AFF4FD080DD2041F08AAD73
:102690009BAD892B69F4C8010E94F82309C065E04D
:1026A000C8010E941C0D8111F2CFD0E0C0E01BC018
:1026B0008AAD9BAD8130964079F46AED76E0C80131
:1026C0000E94E72248EE53E060E070E0C8010E94FB
:1026D000A923D82FC92F02C0D0E0C0E0D11003C079
:1026E000C8010E949723F701D083C18381E0DF9165
:1026F000CF911F910F91FF90EF90DF900895FF927F
:102700000F931F93CF93DF93EC01E296FC01EB5AFA
:10271000FF4FF080FF20E9F066ED76E0CE010E94E9
:10272000E7220FEA17E026EB37E048E853E160E0E4
:1027300070E0CE010E947571CE010E94F80CF1107C
:102740000EC0CE01DF91CF911F910F91FF900C949D
:10275000972365E0CE010E941C0D8111DDCFDF9132
:10276000CF911F910F91FF9008950F931F93CF93D7
:10277000DF93FC01238527FD24C0EC018C010E5C56
:102780001F4F65E0C8010E941C0D8823A1F040E0A6
:1027900050E063EE76E0C8010E94AE224FEA57E0B7
:1027A00066EB77E0C8010E94AC72C8010E94F80C89
:1027B000C8010E9497236C8581E068278B850E9461
:1027C000057F81E0DF91CF911F910F910895CF9305
:1027D000DF93EC018B8587FD1EC06C850E94057F11
:1027E000E29665E0CE010E941C0D8823A1F040E036
:1027F00050E060EE76E0CE010E94AE224FEA57E054
:1028000066EB77E0CE010E94AC72CE010E94F80C1C
:10281000CE010E94972381E0DF91CF910895FC01C2
:10282000838587FD05C0648591E069270E94057F47
:1028300081E00895FC01838587FD03C064850E94C3
:10284000057F81E008950F931F93CF93DF938B0152
:10285000EA01C2960E94836B682F082E000C990B28
:10286000F80191838083892BB1F0062E000C770B41
:10287000880B990B0E946B982BEE32EE4EEC5FE3C7
:102880000E94CA9829E23CE946E353E40E94579A21
:102890000E94359B02C060E070E07983688381E02C
:1028A000DF91CF911F910F910895CF93DF93EC01AA
:1028B000E296CE010E949F0D892B29F4CE01DF9173
:1028C000CF910C94076D80E0DF91CF9108958F92A6
:1028D0009F92AF92BF92CF92DF92EF92FF920F93AF
:1028E0001F93CF936A017B018C010E5C1F4FFC018B
:1028F000EB5AFF4FC081CC2329F00E94C17F4B01CE
:102900005C0113C065E0C8010E941C0D8111F5CF68
:1029100080E02AC0C8010E949F0D892BA1F06AEFB8
:1029200070E080E090E00E94877F0E94C17FDC0120
:10293000CB0188199909AA09BB098C159D05AE051B
:10294000BF0540F306C0C8010E94076D882339F314
:1029500007C0C111DDCFC8010E9497238C2F04C08E
:10296000C11102C0C1E0F7CFCF911F910F91FF902D
:10297000EF90DF90CF90BF90AF909F908F90089591
:102980003F924F925F926F927F928F929F92AF92FF
:10299000BF92CF92DF92EF92FF920F931F93CF934C
:1029A000DF93EC018AA19BA1ACA1BDA1892B8A2B4D
:1029B0008B2B39F4E881F9810084F185E02DCE017B
:1029C0000995E881F98100A0F1A1E02DCE010995DA
:1029D0000E94C17F0AA11BA12CA13DA1DC01CB015A
:1029E000801B910BA20BB30B0A8D1B8D2C8D3D8D83
:1029F00080179107A207B30758F38B8187FD36C074
:102A00000E94DC7E2C8130E08217930779F58D855A
:102A10009E85AF85B889892B8A2B8B2B39F182E073
:102A2000382E7E0182E3E80EF11C6E01A5E5CA0E88
:102A3000D11C8E8C9F8CA8A0B9A0B4EF8B0EB1E0F6
:102A40009B1EA11CB11C0E94C17F2B013C010E9456
:102A5000C17FDC01CB0184199509A609B709881546
:102A60009905AA05BB0550F010E04DC0E881F98139
:102A700006A0F7A1E02DCE010995D1CFF601808106
:102A800081110BC065E0C7010E941C0D182F88231F
:102A900089F1C7010E9497232DC00EA91FA96FE1DC
:102AA00076E08AA99BA90E943655B8018AA99BA9FC
:102AB0000E9436558AA99BA9DC01ED91FC91068004
:102AC000F781E02D099560E070E0CB010E94877FDF
:102AD0000FEA17E026EB37E048EC50E060E070E0EA
:102AE000C7010E947571813021F0F601108210E05B
:102AF00001C011E06AEF70E080E090E00E94877F03
:102B0000112309F4A4CF8B8187FF0E94DC7E111171
:102B10000DC0E881F9810088F189E02DCE01099589
:102B2000882329F03A94311084CF01C011E08AA99A
:102B30009BA9DC01ED91FC910084F185E02D0995C4
:102B4000892B79F08AA99BA9DC01ED91FC91028483
:102B5000F385E02D099560E070E0CB010E94877F4E
:102B6000E6CF8AA5811109C0E881F9810480F58149
:102B7000E02DCE010995182F04C0C7010E94B9723B
:102B80001823FE01E65AFF4FF586E4861686158A5D
:102B9000FDABECAB112331F0898987FD03C061E007
:102BA0000E94057F812FDF91CF911F910F91FF90A0
:102BB000EF90DF90CF90BF90AF909F908F907F90DD
:102BC0006F905F904F903F9008951F920F920FB6B5
:102BD0000F9211248F939F93AF93BF9380911D13F6
:102BE00090911E13A0911F13B09120130197A1097A
:102BF000B10980931D1390931E13A0931F13B093DC
:102C0000201380911D1390911E13A0911F13B0915A
:102C10002013892B8A2B8B2B51F414BE80916000DA
:102C200088618093600088E08093600001C0A8956F
:102C3000BF91AF919F918F910F900FBE0F901F90FA
:102C40001895FC0180819181A281B38123E0B69522
:102C5000A795979587952A95D1F780931D13909303
:102C60001E13A0931F13B0932013A89508950FB6B9
:102C7000F894A8958091600088618093600010921C
:102C800060000FBE0895CF93DF93EC0186E293E0DE
:102C900099838883CE018D5B9F4F0E9446538AECB7
:102CA00092E099838883CE018C96DF91CF910C942A
:102CB0004653CF93DF93EC010E944316CE01DF9180
:102CC000CF910C944E91AF92BF92DF92EF92FF9210
:102CD0000F931F93CF93DF9300D000D000D0CDB7D8
:102CE000DEB78C017B015A01FB01D3A0D1100CC0CF
:102CF00065E0C7010E941C0D811106C062E778E003
:102D0000C8010E94D15323C0B501C7010E94E72228
:102D100028EE33E040E050E0B701CE0101960E947A
:102D20004C23D11003C0C7010E949723F8011182E0
:102D300010821382128215821482BE016F5F7F4F50
:102D4000C8010E94BE51CE0101960E944653C8019F
:102D500026960FB6F894DEBF0FBECDBFDF91CF91A0
:102D60001F910F91FF90EF90DF90BF90AF9008956B
:102D7000CF92DF92EF92FF921F93CF93DF93CDB765
:102D8000DEB72B970FB6F894DEBF0FBECDBF6C0138
:102D900022E3C20ED11CFC01EB5AFF4F108111231C
:102DA00071F04DED56E0B601CE0101960E9463161A
:102DB000CE0101960E943C7B811136C00EC065E0B9
:102DC000C6010E941C0D8111ECCFC12C9CE3D92EB1
:102DD0009CE1E92E96ECF92E32C07E0187E0E80EE8
:102DE000F11C85E0F70111928A95E9F745E050E082
:102DF000B701CE0101960E94BD7040E150E060E055
:102E000070E0C7010E94D791F62E111103C0C601D0
:102E10000E9497236F2DFF0C770B880B990B0E9454
:102E20006B986B017C0107C0C12C8CE3D82E8CE120
:102E3000E82E86ECF82ECE0101960E944653C7017B
:102E4000B6012B960FB6F894DEBF0FBECDBFDF9153
:102E5000CF911F91FF90EF90DF90CF9008954F9208
:102E60005F926F927F928F929F92AF92BF92CF921A
:102E7000DF92EF92FF920F931F93CF93DF93CDB723
:102E8000DEB7CB54D1090FB6F894DEBF0FBECDBF6D
:102E90008C0162E778E0CE018A5B9F4F0E94D1539C
:102EA000780122E3E20EF11CC7010E94B972F80119
:102EB000E65AFF4FF586E4861686158AD801D59620
:102EC000FC93EE93D497DA966D917C91DB97CE01CB
:102ED00001960E945A436801BCE2CB0ED11CBE0190
:102EE0006F5F7F4FC6010E94F851CE0101960E948C
:102EF000465365E0C7010E941C0D882309F41CC2DB
:102F0000C7010E94F823F80162AD73ADCE010196AE
:102F10000E945A43BE016F5F7F4FC6010E94F85165
:102F2000CE0101960E94465341E050E06AEB77E003
:102F3000C7010E94AE224FEA57E066EB77E0C70177
:102F40000E94AC7241E050E06CEA77E0C7010E9459
:102F5000AE224FEA57E066EB77E0C7010E94AC7201
:102F600041E050E069EA77E0C7010E94AE224FEAF3
:102F700057E066EB77E0C7010E94AC7241E050E099
:102F800066EA77E0C7010E94AE224FEA57E066EB9F
:102F900077E0C7010E94AC7241E050E063EA77E05D
:102FA000C7010E94AE224FEA57E066EB77E0C70107
:102FB0000E94AC7241E050E060EA77E0C7010E94F5
:102FC000AE224FEA57E066EB77E0C7010E94AC7291
:102FD00040E050E06DE977E0C7010E94AE224FEA81
:102FE00057E066EB77E0C7010E94AC7240E050E02A
:102FF0006AE977E0C7010E94AE224FEA57E066EB2C
:1030000077E0C7010E94AC7265E977E0C7010E94D2
:10301000E7224FEA57E066EB77E0C7010E94AC7207
:1030200040E050E062E977E0C7010E94AE224FEA3B
:1030300057E066EB77E0C7010E94AC7240E450E0D5
:103040006FE877E0C7010E94AE224FEA57E066EBD7
:1030500077E0C7010E94AC72F801EB54FF4FA080EB
:10306000B180E056F109D080DD2031F1A5016AEE92
:1030700076E0C7010E94972E4FEA57E066EB77E0B3
:10308000C7010E94AC7266EE76E0C7010E94E7229B
:103090000FEA17E026EB37E048E853E160E070E024
:1030A000C7010E947571C7010E94F80CD1100AC0B7
:1030B000C7010E94972306C065E0C7010E941C0D4E
:1030C0008111D4CF6BE877E0C7010E94E7224FEA75
:1030D00057E066EB77E0C7010E94AC72C7010E941F
:1030E000F80C8E010E5D1F4F62E778E0C8010E9468
:1030F000D15386E497E00E944F640E94C17F2B0168
:103100003C01DD24D394A12CB12CC02E912E0E9421
:10311000C17FDC01CB0184199509A609B709803E5E
:103120009349A440B10508F0FEC063E477E0C7010D
:103130000E94E72240E157E260E070E0C7010E9490
:10314000A923882E4DEE56E0B701CE01805C9F4F3B
:103150000E94631640E1682DCE01CA960E944B532F
:1031600060E070E0CE01C4960E94B1560E94C17F1B
:103170001FA61EA619AA18AA1BAA1AAA0E94699815
:1031800020E030E04AE754E40E94C39A8E010F5FCA
:103190001F4F22E044E00E949690BC01CE018E9623
:1031A0000E94185319A618A61BA61AA61DA61CA68F
:1031B0004AE0B801C5010E947494B801CE01889616
:1031C0000E941853BE01685D7F4FC8010E94C8531A
:1031D00060E376E0C8010E94CB52BE01625D7F4F82
:1031E0000E94E45262E276E00E94CB52BE016C5C27
:1031F0007F4F0E94E45265E276E00E94CB52BE010E
:10320000665C7F4F0E94E45269E276E00E94CB52F6
:10321000BE01605C7F4F0E94E4526AE276E00E9449
:10322000CB52BC018C2D992D0E942F53C8010E94B6
:103230004653CE0188960E944653CE018E960E9438
:103240004653CE01C4960E944653CE01CA960E94B0
:103250004653CE01805C9F4F0E944653882019F050
:1032600023E2821236C04AE06D2DCE0188960E947C
:103270004B536CE276E0CE0101960E94D153BE0121
:10328000685D7F4FCE0101960E94E452BC018C2DF7
:10329000992D0E94AA56CE0101960E944653CE0156
:1032A00088960E9446536C2D792DCE0101960E947E
:1032B000C853BE016F5F7F4F8CE59BE00E9446556F
:1032C000CE0101960E944653D39483E08D1508F5F4
:1032D00039C06C2D792DCE0101960E94C853BE01D4
:1032E0006F5F7F4F8CE59BE00E944655CE010196B3
:1032F0000E944653AAE0AA16B10449F46DE377E0B0
:10330000C7010E94E72281E397E00E944F64DD2419
:10331000D39468EE73E080E090E00E94877FBFEF77
:10332000AB1ABB0AF4CE10E0C7010E949723CE016E
:1033300082960E9446534FC080EF96E00E944F64F1
:1033400010E049C0C7010E949F0DBC01CE0101964B
:103350000E94B156BE016F5F7F4FCE018A5B9F4FC7
:103360000E94BE51CE0101960E944653BE016A5B87
:103370007F4FCE0188960E94C85369E077E08CE5C4
:103380009BE00E94585560E28CE59BE00E94D75478
:10339000BE01685D7F4FCE0101960E94C853BE01F9
:1033A0006F5F7F4F8CE59BE00E94385560E28CE5B3
:1033B0009BE00E94D7546AE276E08CE59BE00E9495
:1033C000C554CE0101960E944653CE0188960E94B4
:1033D000465311E0A9CFCE018A5B9F4F0E9446530E
:1033E000812FC55BDF4F0FB6F894DEBF0FBECDBF98
:1033F000DF91CF911F910F91FF90EF90DF90CF90D1
:10340000BF90AF909F908F907F906F905F904F9004
:10341000089581E00895FC0183A108956091000161
:1034200070910101072E000C880B990B0E946B987C
:1034300008950F931F93CF93DF93FC01E85BFF4F39
:10344000208126FF1EC0EC010E94C17FFE01EC5BC3
:10345000FF4F0081118122813381AB01BC01401BF0
:10346000510B620B730BC05CDF4F81E00881198147
:103470002A813B81041715072607370718F080E0DB
:1034800001C081E0DF91CF911F910F9108950F93BB
:103490001F93CF93DF93FC01E85BFF4F208124FF54
:1034A00019C0EC010E94C17F0CAD1DAD2EAD3FAD2A
:1034B000AB01BC01401B510B620B730B81E008ADEB
:1034C00019AD2AAD3BAD041715072607370718F0CD
:1034D00080E001C081E0DF91CF911F910F910895AD
:1034E0000F931F93CF93DF93FC01E85BFF4F208185
:1034F00022FF19C0EC010E94C17F0CA91DA92EA9B1
:103500003FA9AB01BC01401B510B620B730B81E067
:1035100008A919A92AA93BA90417150726073707DF
:1035200018F080E001C081E0DF91CF911F910F91F1
:1035300008950F931F93CF93DF93EC018C01085BE9
:103540001F4FF801808180FD07C0E881F981028466
:10355000F385E02DCE010995F8019081892F8062D5
:103560008083CC5BDF4F94FF0CC00E94C17F6883D7
:1035700079838A839B83F80180818064808381E0E2
:1035800009C0188219821A821B829F7B9062F801FF
:10359000908380E0DF91CF911F910F9108950F9359
:1035A0001F93CF93DF93FC01EC01C85BDF4F988141
:1035B000892F8860888392FD09C014AE15AE16AEBF
:1035C00017AE9F7E9860988380E00CC08F010E94A8
:1035D000C17FF80164AF75AF86AF97AF8881806116
:1035E000888381E0DF91CF911F910F910895CF9350
:1035F000DF93EC018BA187FD03C061E00E94347F63
:103600008AA187FD03C060E00E94347FC85BDF4F62
:1036100088818160888381E0DF91CF910895CF9385
:10362000DF93EC018BA187FD17C060E00E94057F4E
:103630001CAA1DAA1EAA1FAA1CAE1DAE1EAE1FAE3E
:10364000FE01EC5BFF4F1082118212821382C85B75
:10365000DF4F888181788883DF91CF910895CF9360
:10366000DF93EC018BA187FD04C061E00E94057F20
:1036700008C08CA99DA9AEA9BFA9892B8A2B8B2B29
:1036800031F40E94C17F6CAB7DAB8EAB9FABC85B4E
:10369000DF4F888186608883DF91CF910895CF9333
:1036A000DF93FC0123A521112CC0EC01838187FD50
:1036B00004C060E085810E94347F8B8587FD09C04E
:1036C00061E00E94347F6C8581E068278B850E94D1
:1036D000057F8D8187FD09C061E00E94347F6E8186
:1036E00081E068278D810E94057F898987FD07C059
:1036F00061E00E94347F60E089890E94057F81E05B
:103700008BA7DF91CF9108958F929F92AF92BF9236
:10371000FF920F931F93CF93DF93CDB7DEB7289718
:103720000FB6F894DEBF0FBECDBF8C0181EF98EDD0
:1037300090930101809300019A8389839C838B83FA
:1037400083E68F838DE988878FE097E29E838D8360
:103750000E94C17F4B015C01D801ED91FC91008C6E
:10376000F18DE02DAE014D5F5F4FBE016F5F7F4F6A
:10377000C8010995F82E89819A819093010180935F
:103780000001009719F0813F984DE1F46AEF70E075
:1037900080E090E00E94877F89819A81009719F0EC
:1037A000813F984D79F40E94C17FDC01CB018819DB
:1037B0009909AA09BB0988399A43A105B10510F4F2
:1037C000F110CACFD801ED91FC91028CF38DE02D60
:1037D0009E012B5F3F4FAE01485F5F4FBE01695FA7
:1037E0007F4FC8010995F822D801ED91FC91048C16
:1037F000F58DE02DC80109958F2D28960FB6F89408
:10380000DEBF0FBECDBFDF91CF911F910F91FF9013
:10381000BF90AF909F908F900895CF93DF93EC016E
:103820008D8187FD11C06E810E94057F6F81788533
:1038300089859A850E94877F6E8181E068278D81C6
:103840000E94057F81E001C080E0DF91CF91089563
:10385000DC01F89414BEE0E6F0E09081986190837A
:1038600081E6808378948D919D910D90BC91A02DDF
:1038700023E0B695A795979587952A95D1F78093DC
:103880001D1390931E13A0931F13B093201308953C
:10389000DC0112969C91129740E050E080E04917BD
:1038A00088F4ED91FC9111979A01220F331FE20FDA
:1038B000F31F0190F081E02D228121118F5F4F5F76
:1038C0005F4FEDCF0895CF93DF93EC01E881F9814D
:1038D000028CF38DE02D60E0CE0109958823B1F3D1
:1038E000DF91CF910895EF92FF920F931F93CF93A3
:1038F000DF93FC0106A17C01F8E2EF0EF11CEC0164
:1039000010E01017C9F0F70161917F01662389F07B
:1039100070E080E090E00E946B989B01AC016A81AE
:103920007B818C819D810E94C39A6A837B838C8377
:103930009D831F5F2496E5CFDF91CF911F910F915B
:10394000FF90EF9008954F925F926F927F92AF92A7
:10395000BF92CF92DF92EF92FF920F931F93CF937C
:10396000DF938C0169017A01C62FD0E05C0184E00D
:10397000689FA00CB11C1124F50142805380648023
:10398000758020E03CE34CE156ECC301B2010E949B
:10399000649820E03CE34CE156EC81110CC0C70177
:1039A000B6010E9464988823E1F0F501C282D382B7
:1039B000E482F58211C0C701B6010E946498882391
:1039C00081F0A7019601C301B2010E94579AF50147
:1039D0006283738384839583C00FD11F88A58F5F13
:1039E00088A7DF91CF911F910F91FF90EF90DF900B
:1039F000CF90BF90AF907F906F905F904F90089561
:103A0000CF93DF93DC0190E096968C919697981770
:103A100008F59D01290F311D290F311DF901E75BC3
:103A2000FF4F0190F081E02D309791F0828181115C
:103A30000FC08185ED0124E0829FC00DD11D1124AE
:103A40004A815B816C817D81438354836583768366
:103A50009F5FDACFDF91CF910895FF920F931F936D
:103A6000CF93DF93EC010E94186B082F811107C0E0
:103A7000E881F9810684F785E02DCE010995FE01E4
:103A8000E85BFF4F8081982F9870F92E83FD0AC064
:103A9000CE010E94631CE881F9810288F389E02D40
:103AA000CE0109959EA1DE011296FE01B89680E036
:103AB00040E05CE36CE176EC981739F04D935D9350
:103AC0006D937D9311928F5FF7CFE881F981048C1C
:103AD000F58DE02D60E0CE0109958823B1F310E06B
:103AE0008FA11817D0F4E881F9810688F789E02DB5
:103AF000CE010995E881F981068CF78DE02D60E013
:103B0000CE0109958823B1F3E881F981008CF18D0C
:103B1000E02DCE0109951F5FE3CFCE010E94731CFB
:103B2000FF2039F0E881F9810488F589E02DCE0184
:103B30000995011107C0E881F9810088F189E02D1C
:103B4000CE010995CE010E94001D81E0DF91CF9149
:103B50001F910F91FF9008950F931F93CF93DF93C1
:103B600000D000D000D0CDB7DEB78B01BC018CE512
:103B70009BE00E94585560E28CE59BE00E94D75480
:103B8000B801CE0101960E94C853BE016F5F7F4FFE
:103B90008CE59BE00E944655CE0101960E9446535B
:103BA00026960FB6F894DEBF0FBECDBFDF91CF9142
:103BB0001F910F910895EF92FF920F931F93CF9350
:103BC000DF93CDB7DEB762970FB6F894DEBF0FBEB6
:103BD000CDBF7C01DB0112968C91882319F062E342
:103BE00076E008C0FB01008111810115110531F457
:103BF00062E778E0C7010E94D15336C0D801ED9149
:103C0000FC910480F581E02DB801CE010D96099557
:103C1000D801ED91FC910680F781E02DB801CE012D
:103C200001960995BE016F5F7F4FCE0107960E94F6
:103C3000C8536DE376E0CE0107960E94CB52BE01D9
:103C4000635F7F4F0E94E452BC01C7010E94C853CA
:103C5000CE0107960E944653CE0101960E9446531C
:103C6000CE010D960E944653C70162960FB6F89496
:103C7000DEBF0FBECDBFDF91CF911F910F91FF909F
:103C8000EF900895EF92FF920F931F93CF93DF93DE
:103C9000CDB7DEB72C970FB6F894DEBF0FBECDBF01
:103CA0009B01220F331FDC01ED91FC91E20FF31F0A
:103CB0000190F081E02D2281211131C08B017C0126
:103CC000BF01CE0101960E94DB1D0F5FF7018281CB
:103CD0000817F0F490818181E92FF82FE00FF11D92
:103CE000E00FF11D60817181CE0107960E94DB1DFE
:103CF000BE01695F7F4FCE0101960E948C51182F43
:103D0000CE0107960E9446531123F9F210E001C03C
:103D100011E0CE0101960E944653812F01C080E040
:103D20002C960FB6F894DEBF0FBECDBFDF91CF91BA
:103D30001F910F91FF90EF900895EF92FF920F93D4
:103D40001F93CF93DF937C0110E000E0F7018281A5
:103D50001817D0F4C12FD0E0BE01C7010E94421E47
:103D6000882381F0CC0FDD1FF70180819181C80F7E
:103D7000D91FE881F9810190F081E02D87A1081712
:103D800008F4082F1F5FE2CF802FDF91CF911F91A2
:103D90000F91FF90EF900895EF92FF921F93CF93B2
:103DA000DF937C0110E0D70112968C911817E0F494
:103DB000C12FD0E0BE01C7010E94421E882391F0AE
:103DC000CC0FDD1FF70180819181C80FD91FE881D9
:103DD000F98180819181DC01ED91FC910684F78568
:103DE000E02D09951F5FDFCFDF91CF911F91FF90ED
:103DF000EF9008952F923F924F925F926F927F9231
:103E00008F929F92AF92BF92CF92DF92EF92FF92EA
:103E10000F931F93CF93DF93CDB7DEB763970FB6A2
:103E2000F894DEBF0FBECDBF8C012DB73EB7388BE7
:103E30002F87DC0112968C91EDB7FEB7E81BF109D4
:103E40000FB6F894FEBF0FBEEDBF2DB73EB72F5F84
:103E50003F4F3901E12CD8011296FC90EF1460F429
:103E6000CE2CD12CB601C8010E94421EF301EC0DEC
:103E7000FD1D8083E394EFCF4F2D50E0EDB7FEB7EB
:103E8000E41BF50B0FB6F894FEBF0FBEEDBF2DB7C8
:103E90003EB72F5F3F4F3E832D838D81E82FFE81FC
:103EA0009E2F981B9F1510F41192FACF8DB79EB7D5
:103EB000841B950B0FB6F8949EBF0FBE8DBFADB798
:103EC000BEB71196BC83AB83DB804C805301ED2DD4
:103ED000F42D20E030E02F15E8F4D5018D915D013F
:103EE000882399F0D8016D917C91C901880F991FA1
:103EF000860F971FDC018D919C91DC018D919C9127
:103F0000DC0197968C91808301C010822F5F3F4F18
:103F10003196E1CFEDB7FEB7E41BF50B0FB6F89481
:103F2000FEBF0FBEEDBF2DB73EB72F5F3F4F7901EC
:103F3000912CD8011296CC9012979C1420F5892DC3
:103F400090E0F301E80FF91F20815701A80EB91E78
:103F50002223A9F0880F991FED91FC91E80FF91F1A
:103F60000190F081E02D80819181DC01ED91FC9147
:103F70000084F185E02D0995F501808302C0D5010B
:103F80001C929394D6CFEC2DF0E0F887EF832DB7F9
:103F90003EB72E1B3F0B0FB6F8943EBF0FBE2DBF92
:103FA0002F5F3F4F3E872D87F90181E09E2F921BA7
:103FB0009C1510F48193FACF4DB75EB78F81988529
:103FC000481B590B0FB6F8945EBF0FBE4DBFADB77F
:103FD000BEB71196BA83A9838980BA81B98BE82DBF
:103FE000FB2F8E2F88198C1510F41192FACFEDB794
:103FF000FEB74F815885E41BF50B0FB6F894FEBF52
:104000000FBEEDBF8DB79EB701969A878987DC01F9
:10401000EB81FC818E2F8D198C1520F0CC2009F1BD
:1040200041E015C081918D93F5CF90E0F301E80F49
:10403000F91F5081552381F0F701E80FF91F5081D6
:10404000F701E40FF11D6081561731F04F5F8FEFDC
:10405000840F4C11EACF05C0F901E80FF91F108257
:10406000F5CFB701E985FA854B815C8129803A80DB
:10407000B12CBC1409F440C0AD85BE858D91BE87BE
:10408000AD87882379F1D101BC92DA018C918083CC
:10409000FC86EB8629853A85DA8A4B8A882D9989B0
:1040A000A12CAC14F9F0AB85BC855D90BC87AB87C7
:1040B000DB019C9059100CC0BA1451F0DC01BC9289
:1040C0005080AA89BB899C90950C9082D9011C9242
:1040D000A3940196AA89BB891196BB8BAA8B2F5FEB
:1040E0003F4FDFCFB394BFEF2B1A3B0A4F5F5F4FB9
:1040F00031966F5F7F4FBDCFEDB7FEB72F8138850B
:10410000E21BF30B0FB6F894FEBF0FBEEDBF4DB729
:104110005EB74F5F5F4F5A01842FFA019E2F981BA5
:104120009C1530F020E040E05CE36CE176EC03C0ED
:104130001192F4CF2F5FD80112968C911297281705
:1041400010F5822F90E0F301E80FF91F308133233F
:1041500089F3880F991FED91FC91E80FF91F0190E9
:10416000F081E02D0190F081E02D96A1DF01129603
:10417000B89680E09817F1F24D935D936D937D931F
:1041800011928F5FF7CFC8010E94CC1E212C5524BD
:104190005394F8018381281610F4412C0BC0D12CC4
:1041A00037C1E42CF12CF301EE0DFF1D808181114C
:1041B00008C04394D80112968C911297481688F340
:1041C000E8CFEB81FC81EE0DFF1D30808D809E805D
:1041D0008E0C9F1CF4018081831558F76701CC0C6D
:1041E000DD1CED91FC91EC0DFD1D0190F081E02DA9
:1041F00080819181FC01E85BFF4F208123FD1CC081
:10420000DC01ED91FC91028CF38DE02D60E00995CD
:10421000882391F0D801ED91FC91EC0DFD1D0190EA
:10422000F081E02D80819181DC01ED91FC9102888B
:10423000F389E02D09955822D801ED91FC91EC0D00
:10424000FD1D0190F081E02D80819181FC01E85BF2
:10425000FF4F3081232F207133FF03C0222309F445
:10426000DCC0222309F45AC0DC01ED91FC91048CDE
:10427000F58DE02D60E00995882309F44FC0D80141
:10428000ED91FC91EC0DFD1D0190F081E02D808100
:104290009181FC01E85BFF4F208125FD08C0DC0116
:1042A000ED91FC910688F789E02D09955822D801F7
:1042B000ED91FC91EC0DFD1D0190F081E02D8081D0
:1042C0009181DC01ED91FC91068CF78DE02D60E091
:1042D0000995882319F1D801ED91FC91EC0DFD1D94
:1042E0000190F081E02D80819181DC01ED91FC91C4
:1042F000008CF18DE02D09955822F40180818F5FAB
:104300008083E981FA81EE0DFF1D8081F501E80FC0
:10431000F11D87FDFA9580818F5F8083D4018C9198
:10432000381247CFF80180819181FC01EC0DFD1D11
:104330000190F081E02D80819181DC01ED91FC9173
:104340000488F589E02D09955822E981FA81EE0D5E
:10435000FF1DE0808E2D0E2C000C990BF501E80F4F
:10436000F91FA985BA85A80FB91F20818C91281340
:1043700029C0F12CF8018281F81620F58F2D90E0EC
:10438000E981FA81E80FF91F2081E21219C0F301D7
:10439000E80FF91F2081222399F0880F991FD80177
:1043A000ED91FC91E80FF91F0190F081E02D8081E3
:1043B0009181DC01ED91FC910088F189E02D099556
:1043C000F394D8CF2394F5CEED2CF12CF301EE0D20
:1043D000FF1D80818823D9F0EE0CFF1CD801ED91E0
:1043E000FC91EE0DFF1D0190F081E02D8081918107
:1043F0000E94731CF80180819181FC01EE0DFF1D6C
:104400000190F081E02D808191810E94001DD39464
:10441000F8018281D816C0F20FC0D4013C92E98124
:10442000FA81EE0DFF1D8081F501E80FF11D87FD7A
:10443000FA958081830D71CF852DEF85F8890FB6B0
:10444000F894FEBF0FBEEDBF63960FB6F894DEBFC3
:104450000FBECDBFDF91CF911F910F91FF90EF90D5
:10446000DF90CF90BF90AF909F908F907F906F9094
:104470005F904F903F902F9008950F931F93CF938D
:10448000DF938C01C0E0D0E0F8018281C81748F4C6
:104490006C2F70E0C8010E94421E8111DF5FCF5F68
:1044A000F3CF8D2FDF91CF911F910F910895CF936F
:1044B000DF93EC01FB0164A175A10E94D153CE01F1
:1044C000DF91CF910895CF93DF93EB01BC018CE591
:1044D0009BE00E94385560E28CE59BE00E94D75437
:1044E000CE01DF91CF910C944F64EF92FF920F9326
:1044F0001F93CF93DF9300D000D000D0CDB7DEB7AD
:104500008C017B016DEB77E00E949053F70162A173
:10451000062E000C770BCE0101960E94B156BE010B
:104520006F5F7F4FC8010E94AA56CE0101960E947C
:104530004653C80126960FB6F894DEBF0FBECDBF16
:10454000DF91CF911F910F91FF90EF90089581110E
:104550000C9443640C943B640C944E91CF92DF9284
:10456000EF92FF920F931F93CF93DF93EC016B01B8
:104570007A010C811D816FE176E0888199810E942A
:104580003655B601888199810E945855B7018881B6
:1045900099810E94EE78B801888199810E943655F0
:1045A00088819981DC01ED91FC910680F781E02DF5
:1045B000099562E070E080E090E0DF91CF911F917B
:1045C0000F91FF90EF90DF90CF900C94877FEF9248
:1045D000FF920F931F93CF93DF93EC017B010C812C
:1045E0001D816FE176E0888199810E943655B7017F
:1045F000888199810E945855B801888199810E94CB
:10460000365588819981DC01ED91FC910680F78116
:10461000E02D099562E070E080E090E0DF91CF91BD
:104620001F910F91FF90EF900C94877F680F791F77
:1046300020E030E086179707D9F0FC014191CF01C7
:104640002427422F42954227042E46954695402521
:10465000042E469540254770022E232F4695079439
:104660004795302D24270694479530252427E2CFFF
:10467000C9010895089524E832E0FC0131832083C4
:104680000C947564CF93DF93EC010E943B23CE0121
:10469000DF91CF910C944E918F929F92AF92BF92E7
:1046A000CF92DF92EF92FF920F931F93CF93DF93FE
:1046B000EC018B0169017A0162E070E080E090E03A
:1046C0000E94877F0E94C17F4B015C01D8018D91C0
:1046D0009C91DC01ED91FC910084F185E02D099520
:1046E000892B69F40E94C17FDC01CB0188199909EB
:1046F000AA09BB098C159D05AE05BF0538F3F80165
:10470000608171814DE0CE010E942B54CE010E9448
:104710002C51CE01DF91CF911F910F91FF90EF901F
:10472000DF90CF90BF90AF909F908F900895CF93E0
:10473000DF93EC0161EC77E00E94E72248E353E16C
:104740006FE373E1CE010E94AC721BA2DF91CF91A7
:104750000895CF92DF92EF92FF920F931F93CF9322
:10476000DF93CDB7DEB72B970FB6F894DEBF0FBE41
:10477000CDBF9A01AB01BC01CE0101960E944C2332
:10478000CE0101960E943C7B882331F062E476E002
:10479000CE0101960E9418538E01095F1F4F85E0DC
:1047A000F80111928A95E9F745E050E0B801CE0191
:1047B00001960E94BD7040E150E060E070E0C801E9
:1047C0000E94D7916B017C01CE0101960E94465355
:1047D000C6012B960FB6F894DEBF0FBECDBFDF919A
:1047E000CF911F910F91FF90EF90DF90CF900895A0
:1047F000CF93DF93EC0167EC77E00E94E72248EE6D
:1048000053E060E070E0CE010E94A9238F3F910544
:1048100089F464EC77E0CE010E94E72248EE53E091
:1048200060E070E0CE010E94A9238F3F910511F452
:1048300080E090E099878887DF91CF9108958F92EB
:104840009F92AF92BF92CF92DF92EF92FF920F931F
:104850001F93CF93DF9300D000D000D0CDB7DEB749
:104860006C017B018A0167E27DE00E943D94892B07
:1048700009F051C064E17DE0C7010E943D94892B9D
:1048800071F4B8018FEF9AE00E94329E6EEE7CE0E8
:104890008CE59BE00E9458556FEF7AE026C465EEE8
:1048A0007CE0C7010E943D94892B71F4B80189ED29
:1048B0009AE00E94329E6AEC7CE08CE59BE00E94CC
:1048C000585569ED7AE011C469EB7CE0C7010E949C
:1048D0003D94892B71F4B80185E29BE00E94329EE1
:1048E00066E97CE08CE59BE00E94585565E27BE040
:1048F000FCC36EE77CE08CE59BE00E945855B70155
:104900008CE59BE00E94365560E376E08CE59BE009
:104910000E943655E9C368E77CE0C6010E943D94D9
:10492000892B09F0B1C067E77CE08CE59BE00E9431
:1049300058554091211350E060E070E02AE08CE58A
:104940009BE00E9478546EE279E08CE59BE00E9447
:104950003655B7018CE59BE00E94365564E77CE054
:104960008CE59BE00E945855B8018CE59BE00E94C5
:104970003655D12CAD2CB12CC501880F991F9C0147
:104980002A54314F5901D901ED91FC916189728905
:10499000CE0101960E94D153B70189819A810E946C
:1049A000299E4C01CE0101960E944653892869F444
:1049B000F50180819181DC0152961C930E935197F1
:1049C000B8010E94F17057E0D52ED394B6E0BD1522
:1049D00088F6E7E0DE1619F062E67CE04BC06CE595
:1049E0007CE0C7010E943D94892B09F041C0809171
:1049F000211390E00797CCF56EE47CE08CE59BE01A
:104A00000E945855E0912113F0E0EE0FFF1FEA5489
:104A1000F14F0190F081E02D61897289CE010196FC
:104A20000E94D153BE016F5F7F4F8CE59BE00E94D7
:104A30003855CE0101960E9446536CE47CE08CE52B
:104A40009BE00E947C55E0912113F0E0EE0FFF1FE8
:104A5000EA54F14F80819181DC0152961C930E93B0
:104A60005197B8010E94F17009C064E37CE002C074
:104A70006FE17CE08CE59BE00E947C5580912113E6
:104A80008F5F8093211335C368E17CE0C6010E94EB
:104A90003D94892B09F051C110921D1910921C19D7
:104AA0006EE07CE0C7010E943D94892BB9F468EF69
:104AB0007BE08CE59BE00E945855B8018CE59BE0BB
:104AC0000E94C554B80184E29AE00E94329E84E2BA
:104AD0009AE09093090C8093080C0BC36FED7BE078
:104AE000C7010E943D94892B09F06AC04AE050E05A
:104AF000BE016F5F7F4FC8010E9405936B017C016F
:104B000016161706180619060CF04BC080911C19D2
:104B100090911D19829709F444C0B9E6CB16B1E013
:104B2000DB06E104F104ECF06AEA7BE08CE59BE053
:104B30000E94585568E671E08CE59BE00E94EE7893
:104B40006DE87BE08CE59BE00E945855C701B601FB
:104B50000E94DF7028E6C22EDD24D394E12CF12CD4
:104B600017C064E67BE08CE59BE00E945855B701D6
:104B7000A6018CE59BE00E94BC7860E57BE08CE5BB
:104B80009BE00E9458556FE08CE59BE00E94A57861
:104B9000D0920B0CC0920A0CD092210AC092200A2B
:104BA000A8C261E37BE08CE59BE00E94585568E673
:104BB00071E08CE59BE00E94EE7864E27BE083C0CC
:104BC00067E17BE0C7010E943D94892B29F54AE00B
:104BD00050E0BE016F5F7F4FC8010E9405936B01DB
:104BE0007C01DC01CB010197A109B1090497A10562
:104BF000B10578F480911C1990911D19829749F0A4
:104C0000D0929112C0929012C092230A61E07BE090
:104C10005AC068ED7AE057C06DEC7AE0C7010E9497
:104C20003D94892B29F54AE050E0BE016F5F7F4F2C
:104C3000C8010E9405936B017C01DC01CB01019747
:104C4000A109B1090497A105B10578F480911C1957
:104C500090911D19829749F0D0929112C0929012B2
:104C6000C092230A69EB7AE02EC060E97AE02BC09B
:104C700066E87AE0C7010E943D94892B69F54AE015
:104C800050E0BE016F5F7F4FC8010E94D7916B015A
:104C90007C01DC01CB010C96A11DB11D4997A1053A
:104CA000B10578F480911C1990911D19829749F0F3
:104CB0006FE67AE08CE59BE00E945855C092220A8C
:104CC00006C06CE37AE08CE59BE00E945855C70172
:104CD000B6010E94DF700DC26CE27AE0C7010E944B
:104CE0003D94892BE1F46BE17AE08CE59BE00E9436
:104CF0005855B8018CE59BE00E94C554F80101901D
:104D00000020E9F73197E01BF10BFC9710F0F80158
:104D100015AEB80189E39AE00E94329EEAC16FE0C5
:104D20007AE08CE59BE00E945855B7018CE59BE04A
:104D30000E9436556AE07AE0D3C162E07AE0C601AB
:104D40000E943D94892B71F465EF79E08CE59BE03E
:104D50000E945855B7018CE59BE00E94365560EFE4
:104D600079E0BEC168EE79E0C6010E943D94892BCE
:104D700009F08DC064EE79E0C7010E943D94892B53
:104D800009F077C062ED79E08CE59BE00E94585510
:104D90006091CB107091CC10CE0101960E94D1533E
:104DA000BE016F5F7F4F8CE59BE00E943855CE01BE
:104DB00001960E944653F80101900020E9F73197CF
:104DC0007F01E01AF10A8E2D1093CC100093CB10C6
:104DD000843650F06E2D80E298E00E94953FF801F5
:104DE000EE0DF11D108283E62091CD103091CE1092
:104DF000232B49F490E002960E94B6909093CE1037
:104E00008093CD1004C081EF97E00E944F648091A1
:104E1000CD109091CE10009739F460E070E08AECEC
:104E200097E00E94813F0BC0B8010E94329E8091A2
:104E3000CD109091CE109093CC108093CB1062EC5B
:104E400079E08CE59BE00E9458556091CB10709101
:104E5000CC10CE0101960E94D153BE016F5F7F4FEF
:104E60008CE59BE00E943855CE0101960E94465386
:104E70001CC165EB79E08CE59BE00E945855B701B9
:104E80008CE59BE00E94365560EB79E029C16BEA26
:104E900079E0C6010E943D94892B09F0ABC060EA1D
:104EA00079E0C7010E943D94892BD1F4F80101906B
:104EB0000020E9F73197E01BF10B749718F0D80147
:104EC00055961C92B80184ED99E00E94329E64E9E7
:104ED00079E08CE59BE00E94585564ED79E005C1CE
:104EE0006BE879E0C7010E943D94892BC9F4F80171
:104EF00001900020E9F73197E01BF10B749710F057
:104F0000F801158AB80189EE99E00E94329E69E79E
:104F100079E08CE59BE00E94585569EE79E0E5C0A8
:104F20006FE679E0C7010E943D94892BD1F4F80126
:104F300001900020E9F73197E01BF10B3A9718F048
:104F4000D8011B961C92B8018EEF99E00E94329E08
:104F500064E679E08CE59BE00E9458556EEF79E0BD
:104F6000C4C067E579E0C7010E943D94892BA1F593
:104F700063E579E0C8010E943D94892B51F56DE30A
:104F800079E08CE59BE00E947C5567E470E083ED5E
:104F900099E00E9416239093D2098093D10991ED54
:104FA000E92E99E0F92E00E010E0F701D1907F01A1
:104FB000C8010E948899D81621F06D2DC8010E9461
:104FC00090990F5F1F4F0934110579F767E279E077
:104FD0005CC063E079E060C069EF78E08CE59BE05D
:104FE0000E945855B7018CE59BE00E94365564EF4E
:104FF00078E076C06FEE78E0C6010E943D94892B80
:1050000009F056C068EE78E0C7010E943D94892BF4
:1050100009F06FC062EE78E0C8010E943D94892BD0
:1050200059F561EC78E08CE59BE00E947C556FE2DD
:1050300071E08CE19AE00E94162390931B0A809302
:105040001A0A8AE1E82E8AE0F82E09E410E0D70176
:10505000DD907D01C8010E948899D81621F06D2D40
:10506000C8010E9490990F5F1F4F0A37B1E01B07DC
:1050700071F76BEA78E009C066EA78E0C8010E943F
:105080003D94892B39F467E878E08CE59BE00E9439
:105090007C552FC063E678E08CE59BE00E94585574
:1050A000B8018CE59BE00E9436556AE276E01DC0AF
:1050B00063E578E08CE59BE00E945855B6018CE5ED
:1050C0009BE00E94365560E578E08CE59BE00E940D
:1050D0007C55B7018CE59BE00E9436556EE478E084
:1050E0008CE59BE00E945855B8018CE59BE00E943E
:1050F000C55481E090E026960FB6F894DEBF0FBE4F
:10510000CDBFDF91CF911F910F91FF90EF90DF9076
:10511000CF90BF90AF909F908F900895DC01ED915C
:10512000FC910688F789E02D099591E0811101C075
:1051300090E0892F0895CF93DF93EC01E881F98106
:105140000084F185E02D0995892B11F48D8901C02A
:1051500081E0DF91CF9108958FEF9FEF0895CF9376
:10516000DF931F92CDB7DEB7DC01ED91FC91028891
:10517000F389E02D41E050E0BE016F5F7F4F09955C
:10518000019719F4898190E002C08FEF9FEF0F9093
:10519000DF91CF910895DC011C96ED91FC911D9754
:1051A00080819181DC01ED91FC910680F781E02DF9
:1051B0000994CF93DF931F92CDB7DEB76983DC01EB
:1051C000ED91FC910280F381E02D41E050E0BE01C1
:1051D0006F5F7F4F09950F90DF91CF910895FC018C
:1051E0008081811114C080E2DF01982F1D929A9571
:1051F000E9F777836683DB0115969C91903119F06E
:10520000903229F480E4808381E08283089580E0F5
:105210000895CF93DF93EC0162E070E080E090E0CE
:105220000E94877FFE01E95AFF4FC75ADF4F8081F6
:10523000918128813981821B930B97FF02C0805C8A
:105240009F4FDF91CF9108952F923F924F925F929F
:105250006F927F928F929F92AF92BF92CF92DF9286
:10526000EF92FF920F931F93CF93DF93CDB7DEB7EB
:105270002C970FB6F894DEBF0FBECDBF5C011B01AB
:105280005E834D8362E070E080E090E00E94877F63
:105290000E94C17F2B013C01E12CF12C9501295A80
:1052A0003F4F38872F83C501875A9F4F9C838B833D
:1052B000F5017796FA87E9872D813E81E216F3069C
:1052C00008F07DC00E94C17FDC01CB0184199509E3
:1052D000A609B709F5010481158126813781801758
:1052E0009107A207B30708F06AC0EF81F8858081B3
:1052F0009181EB81FC8120813181821B930B97FF8F
:1053000002C0805C9F4F0D811E810E191F098017FE
:10531000910708F48C010115110571F268013A82B8
:105320002982EB81FC8180809180EF81F88501905A
:10533000F081E02DE819F909FC87EB87F7FF04C03D
:10534000E05CFF4FFC87EB872B853C85232B29F402
:10535000200E311EE00EF11EAFCF80E490E08819E0
:105360009909C816D9060CF4C601EB85FC858E1781
:105370009F0714F49C878B8769857A85680D791D52
:105380004B855C8589819A810E94F19D2B853C85A6
:10539000820E931E3FE383229924EB81FC8191824C
:1053A00080822B853C85C21AD30A89819A81820F1B
:1053B000931F9A838983C114D10451F2B2CFC701DC
:1053C0002C960FB6F894DEBF0FBECDBFDF91CF9104
:1053D0001F910F91FF90EF90DF90CF90BF90AF9013
:1053E0009F908F907F906F905F904F903F902F9005
:1053F0000895EF92FF920F931F93CF93DF93EC01E9
:105400008B017A0162E070E080E090E00E94877F8B
:10541000A701B8018C859D85DF91CF911F910F91D8
:10542000FF90EF900C94D95ACF93DF93FC01208129
:10543000211102C081E043C0EC01828182FF37C0AC
:1054400044895589668977898681978121E080968C
:105450000E947036009729F489818160898380E0F9
:105460002EC0EC81FD81EF70FF2725E0EE0FFF1FBE
:105470002A95E1F7E80FF91F309771F38081853E97
:1054800059F3888183FF08C0888D998DAA8DBB8DC3
:10549000848F958FA68FB78F8C8D9D8DAE8DBF8D90
:1054A000938F828FB58BA48B8A818B7F8A838E8129
:1054B0009F8180960E942D36882371F2BBCFDF91A9
:1054C000CF9108954F925F926F927F928F929F92A9
:1054D000AF92BF92CF92DF92EF92FF920F931F9302
:1054E000CF93DF93EC014A015B014C845D846E84B1
:1054F0007F84A881AA2309F491C0488959896A89BF
:105500007B89481559056A057B0509F48DC081140E
:105510009104A104B10429F41C861D861E861F86F1
:1055200078C0A3FF0BC0088D198D2A8D3B8D0815FF
:1055300019052A053B0508F471C014C0A5FF12C067
:10554000EE81FF818681978125E0880F991F2A953A
:10555000E1F7A0E0B0E088159905AA05BB0508F4BD
:105560005DC057C0EE81FF81848190E009968A0179
:105570009B010150110921093109082E04C03695FB
:105580002795179507950A94D2F775016401B1E044
:10559000CB1AD108E108F10804C0F694E794D79437
:1055A000C7948A95D2F7C016D106E206F30620F01A
:1055B000452B462B472B99F4A6FF05C0848D958D6E
:1055C000A68DB78D04C08C8D9D8DAE8DBF8D8C87C3
:1055D0009D87AE87BF878E01045F1F4F15C0C01A1D
:1055E000D10AE20AF30AF7CF4C855D856E857F8587
:1055F00098018E819F810E94243891E0C91AD108B8
:10560000E108F108181654F4C114D104E104F104BE
:1056100059F7888A998AAA8ABB8A06C04C865D8611
:105620006E867F8680E001C081E0DF91CF911F917F
:105630000F91FF90EF90DF90CF90BF90AF909F9031
:105640008F907F906F905F904F900895FF920F938F
:105650001F93CF93DF931F92CDB7DEB78C01FC0170
:1056600080899189A289B3899C01AD0175E0569525
:105670004795379527957A95D1F7F22FFF70FF2E32
:1056800011F0611114C0BE016F5F7F4FC8010E940D
:10569000B46D813019F080E090E01AC0F801808983
:1056A0009189A289B3894F96A11DB11D04C080962E
:1056B000A11DB11DF801808B918BA28BB38BF801DA
:1056C000868197818796F0E2FF9E800D911D1124BF
:1056D0000F90DF91CF911F910F91FF900895CF937D
:1056E000DF93EC010E94142A1882DF91CF91089574
:1056F0002F923F924F925F926F927F928F929F92E2
:10570000AF92BF92CF92DF92EF92FF920F931F93CF
:10571000CF93DF93CDB7DEB7E6970FB6F894DEBF31
:105720000FBECDBF7C018A012CAB19821A82DC012D
:105730008C9181115AC16115710509F456C1FB01A3
:105740008081807709F451C1FA0180818F32C9F4D8
:105750008F0181918F32E1F3DB0116966D917C917F
:105760001797811104C0C7010E94EF2872C1CE01B2
:1057700001960E94EF28882309F437C1BE016F5FAC
:105780007F4FFE01F296FBABEAABB0E26B2EF80165
:105790009F012F5F3F4F8081803211F4F901F8CFD4
:1057A000FDA3ECA39F01A9014E1B5F0B8901D90149
:1057B0008D919D01882341F18F3221F4CF01840F17
:1057C000951F1BC08C3509F410C1982F977F92321A
:1057D00009F40BC18A3309F408C1982F9F7B9C33CD
:1057E00009F403C192EC980F923008F4FEC0805285
:1057F0008F35C8F2FAC02F3239F48C01DC012D91BB
:10580000CD012032C1F7F9CFDA01AE0FBF1FAD01D4
:105810004E1B5F0BEA17FB0759F08E918E32B9F3DE
:105820008032A9F34F3F510511F00CF0DEC002C0E9
:1058300040E050E05BA34AA3DE0197966D016D92B4
:105840008AA99BA9A817B907D1F79F01C9018E1B87
:105850009F0BD901BD909D01BEE2BB16B9F3A0E23A
:105860008A2EB81499F399249394009709F0912CF7
:105870009A01215031092F01440E551E2F3FAFEFE1
:105880003A0749F45EA0712CB7E0BDAB812C212C06
:10589000B8E04B2E55C0D201BE902D01BEE2BB1622
:1058A00089F321503109EACF5F01A80EB91ED50155
:1058B000BC91BEABB03209F474C0BE3209F045C031
:1058C0008217930709F06DC0A6EDBA2EBEA9BB0ED4
:1058D000A5E0AB1508F040C0B6ECBB2EBEA9BB0ED0
:1058E000A5E0AB15E0F5A5EABA2EBB0EB2E0BB15FC
:1058F000B0F5AFEDBA2EAEA9BA0EBDE5BB1578F185
:105900008217930709F497C0ADA9A815D8F1BEA8CE
:10591000BFE9AB2EAB0CB9E1BA1568F1AB2DA052C3
:10592000AEAB742833243394380C5601A80CB11C48
:105930008EA8D5018C92A6E0A315A8F5832C01961C
:10594000841795070CF4B0CF31C0AEA9A23239F05C
:10595000AC3709F0B9CF03C0BD3209F4BDCF82170F
:10596000930709F468C0ADA9A81560F0912CAFE5C4
:10597000BA2EBFE5BEABBFEBBB0EA9E1AB1590F2F3
:105980002428D0CFBDA9BA3009F460C02817390740
:105990000CF45CC0C901BAE0BDABB8E08B2EA0E14D
:1059A0004A2E912CCCCF532C832CC9CF5EA28FA131
:1059B0008032D9F0992039F0272011F4872D01C0C9
:1059C00082E089A314C081E089A38EA190E0D60172
:1059D000A80FB91F2EE72C93E8E2F0E0EC0FFD1FB3
:1059E000E80FF91F21E3208302C080E032C0D80114
:1059F0008C918823C1F020E0AE014F5D5F4FC7015D
:105A00000E94B938882389F380E2F701DE011196FC
:105A100001900D928A95E1F7C7010E946F2BBE019C
:105A20006F5F7F4FB4CE2CA9AE014F5D5F4FC701B2
:105A30000E94B9380EC08DA98A3041F0C901AAE090
:105A4000ADABB8E08B2EA0E14A2E79CF5EA2912CAF
:105A5000AECFE6960FB6F894DEBF0FBECDBFDF9196
:105A6000CF911F910F91FF90EF90DF90CF90BF905B
:105A7000AF909F908F907F906F905F904F903F90EE
:105A80002F9008953F924F925F926F927F928F92E4
:105A90009F92AF92BF92CF92DF92EF92FF920F93BD
:105AA0001F93CF93DF9300D000D0CDB7DEB74C016A
:105AB000FC01828184608283448455846684778477
:105AC000A680B780F501C084D184E284F384C41435
:105AD000D504E604F704C0F47301620110E0FFEF9F
