:100000000C94A8130C9444410C9419410C94EE40A8
:100010000C9479400C9404400C948F3F0C941A3F3C
:100020000C9411300C94D2130C94D2130C94D21360
:100030000C944B290C94302A0C94CD280C94D21398
:100040000C94D2130C94D2130C94339C0C94D213B2
:100050000C9497280C946D280C94D2130C94D21302
:100060000C94D2130C94D2130C94E57D0C94D213FF
:100070000C9437280C940D280C94D2130C94D213A2
:100080000C94D2130C94D2130C94D21308000000D9
:10009000BE922449123EABAAAA2ABECDCCCC4C3E7D
:1000A00000000080BEABAAAAAA3E00000000BF006C
:1000B0000000803F0000000000084178D3BB438768
:1000C000D1133D190E3CC3BD4282AD2B3E68EC827C
:1000D00076BED98FE1A93E4C80EFFFBE01C4FF7F01
:1000E0003F000000000000407A10F35A00A0724E5A
:1000F00018090010A5D4E80000E87648170000E4CD
:100100000B54020000CA9A3B000000E1F505000014
:1001100080969800000040420F000000A086010079
:100120000000102700000000E80300000000640049
:10013000000000000A0000000000010000000000B4
:100140002C76D888DC674F0823DFC1DFAE59E1B1D8
:10015000B796E5E3E453C63AE651997696E8E6C2E7
:100160008426EB898C9B62ED407C6FFCEFBC9C9FEE
:1001700040F2BAA56FA5F490055A2AF75C936B6C10
:10018000F9676DC11BFCE0E40D47FEF520E6B50004
:10019000D0ED902E0300943577050080841E080072
:1001A00000204E0A000000C80C333333330F986E22
:1001B00012831141EF8D2114893BE65516CFFEE6DF
:1001C000DB18D1844B381BF77C1D901DA4BBE424A5
:1001D000203284725E228100C9F124ECA1E53D2722
:1001E00000010203040506070001020304050607D7
:1001F00000010203040506070001020304050607C7
:10020000566261745F6C6F7720707265762F6E65D1
:10021000772000566261745F6C6F77206E6F772F66
:10022000707265762000454550524F4D20577269D7
:1002300074652066696E69736865640029004143CE
:1002400054494F4E20577269746520617070204583
:100250004550524F4D207374617274656428007D5F
:10026000206E6F7420737570706F72746564007D9A
:10027000206D617463682020262061646465642EAB
:10028000003D7B003D005D20004E6F742073757053
:10029000706F72746564205B00414354494F4E2077
:1002A00057726974652061626F727465642E20698B
:1002B0006E737472756374696F6E202700414354C6
:1002C000494F4E20434F5059206E6F742073757004
:1002D000706F72746564207965743A00434F5059A9
:1002E00000575249544500414354494F4E0055531D
:1002F00045520020746F2000424F4F5420746264B6
:100300002000454550524F4D205772697465206159
:10031000626F727465642E20696E73747275637493
:10032000696F6E202700414354494F4E2044454693
:1003300041554C542061707020454550524F4D003E
:1003400044454641554C545F4150505F45455052DD
:100350004F4D00454550524F4D20577269746520EE
:1003600066696E697368656400454550524F4D205B
:10037000577269746520737461727465643A0059C8
:10038000455300454550524F4D5F57524954450023
:10039000426F617264205265763A00424F41524486
:1003A0005F52455600426F61726420536572696105
:1003B0006C4E756D203A00424F4152445F534E00DF
:1003C000426F617264204E616D653A00424F415246
:1003D000445F4E414D4500424F4F540020746F2002
:1003E000004E4554574F524B2074626420005D20EC
:1003F000726561643A004E4554574F524B20536525
:10040000742053454E445F5155455F535A5F4E55D6
:100410004D2064697361626C65642C206572726F33
:10042000722C2072616E67655B004E4554574F52C7
:100430004B205365742053454E445F5155455F53DF
:100440005A5F4E554D2064697361626C6564005358
:10045000454E445F5155455F535A5F4E554D005DC3
:1004600020726561643A004E4554574F524B2053F9
:10047000657420504F53545F4D41585F4E554D2089
:100480006572726F723B2072616E67655B00504FE0
:1004900053545F4D41585F4E554D004E4554574F94
:1004A000524B205365742053454E445F4F4646538C
:1004B00045545F4D494E206572726F723B20287221
:1004C000616E67652030203A2033302920726561E3
:1004D000643A0053454E445F4F46465345545F4D82
:1004E000494E004E4554574F524B2053657420439C
:1004F0004F4C4C4543545F52454144494E4753206D
:100500006572726F723B202872616E6765203020C1
:100510003A2033302920726561643A00434F4C4CD5
:100520004543545F52454144494E4753005769463D
:1005300069507764005769466949640061706E00CC
:100540004E4554574F524B0020746F200053454E78
:10055000534F525320746264200053454E534F5200
:10056000530020746F2000434F4D4D4F4E20746256
:1005700064200047454F47524150484943414C5F32
:1005800049443A0047454F47524150484943414C3E
:100590005F494400434F4D4D4F4E205365742054E6
:1005A000696D655A6F6E65206572726F723B2028A7
:1005B00072616E6765202D3132203A202B3132294D
:1005C00020726561643A0054494D455F5A4F4E456B
:1005D000002920726561643A0020536574204C69DB
:1005E000496F6E2054797065206572726F723B207E
:1005F0002872616E676520302D00207375706572FA
:100600007365646564207573652042415454455296
:10061000595F5459504500434F4D4D4F4E204C6942
:10062000496F6E20547970653A20004C49494F4E0D
:100630005F54595045002920726561643A00205387
:10064000657420424154544552595F5459504520D5
:100650006572726F723B202872616E6765203C0084
:10066000424154544552595F5459504500205365F6
:100670007420424154544552595F6D4168722000C4
:100680002920726561643A00205365742042415408
:10069000544552595F6D416872206572726F723BAA
:1006A000202872616E6765203E3D302026203C0088
:1006B000424154544552595F6D4168720029207778
:1006C00069746820726561643A002053657420691A
:1006D0006E74657276616C206572726F722028721A
:1006E000616E67653A20312D00286D696E2920669C
:1006F000726F6D2064656661756C742000434F4DA8
:100700004D4F4E204C4F4747494E475F494E544549
:100710005256414C5F4D494E5554455320736574B4
:1007200020746F3A2000205573696E67204D617800
:100730002E2052656164696E672069676E6F72650D
:10074000642000434F4D4D4F4E204C4F4747494E7C
:10075000475F494E54455256414C5F4D494E5554A2
:100760004553206D757374206265206C657373202A
:100770007468616E203A20004C4F4747494E475FEE
:10078000494E54455256414C5F4D494E5554455380
:10079000004C4F474745525F494400434F4D4D4F32
:1007A0004E0050524F56494445525F554249444FBE
:1007B00054530050524F56494445525F5453005DC4
:1007C00020726561643A0050524F56494445525F69
:1007D0004D4D57205365742054494D45525F504F3D
:1007E00053545F504143455F4D53206572726F72A1
:1007F0003B202872616E6765200054494D45525F69
:10080000504F53545F504143455F4D53005D20723C
:100810006561643A0050524F56494445525F4D4D10
:1008200057205365742054494D45525F504F5354DF
:100830005F544F55545F4D53206572726F723B2069
:100840002872616E6765205B0054494D45525F50C8
:100850004F53545F544F55545F4D530053414D50C7
:100860004C494E475F464541545552450052454715
:10087000495354524154494F4E5F544F4B454E00DB
:10088000434C4F55445F49440050524F56494445EC
:10089000525F4D4D57004E4F4E45004E4F4E450056
:1008A0004E4F4E45004E4F4E45004E4F4E45004E6A
:1008B0004F4E45004E4F4E45004E4F4E45004E4F59
:1008C0004E45004E4F4E4500574946495057445FEC
:1008D0004E4F4E45005749464949445F4E4F4E459D
:1008E0000041504E5F4E4F4E4500466163746F723B
:1008F000792064656661756C74006D734C6F673048
:1009000031002D2D2D4C425F5057525F55534541BC
:10091000424C455F5245512043414E43454C4C4566
:10092000442D2D4C626174743D002D2D2D4C425F81
:100930005057525F4D4F44454D5F5553455F5245AB
:10094000512043414E43454C4C45442D2D4C626152
:1009500074743D002D2D2D4C425F5057525F53450E
:100960004E534F525F5553455F5245512043414EC0
:1009700043454C4C45442D2D4C626174743D002D13
:100980002D2D74755F787830313A57616B657570CD
:1009900020636865636B20706F7765722E205072DC
:1009A000657373207573657220627574746F6E2041
:1009B000746F20627970617373003A2042617456DB
:1009C000204C6F77203D004261745F56286C6F7732
:1009D000290062617474657279436865636B207283
:1009E00065712F776169742F73726300646174613C
:1009F0005075626C697368657242617365206751F6
:100A00005320636865636B005761746368646F6744
:100A10002064697361626C65642E206261726B731D
:100A2000556E74696C52657365740042616420741C
:100A3000696D6520003A3030003A3030003A30308D
:100A4000003A3030002121212121212121212121A1
:100A5000212121212121212121202D2D2D2D2D204C
:100A60005741524E494E47202D2D2D2D2D2000212E
:100A7000212121212121212121202D2D2D2D2D202C
:100A80005741524E494E47202D2D2D2D2D202121ED
:100A90002121212121212121002D2D2D2D2D2057F6
:100AA00041524E494E47202D2D2D2D2D2021212103
:100AB0002121212121212121212121212121212126
:100AC00021005468652063757272656E7420636CD2
:100AD0006F636B2074696D657374616D70206973E9
:100AE000206E6F742076616C6964210021212121C0
:100AF00021212121212121212121212121212121E6
:100B0000202D2D2D2D2D205741524E494E47202D61
:100B10002D2D2D2D200021212121212121212121B7
:100B2000202D2D2D2D2D205741524E494E47202D41
:100B30002D2D2D2D20212121212121212121210097
:100B40002D2D2D2D2D205741524E494E47202D2D14
:100B50002D2D2D2021212121212121212121212162
:100B60002121212121212121000020467756657273
:100B70002000204877566572200020536E20002008
:100B8000666F72200027002720736E3A27002072BC
:100B900065763A2700426F6172643A20004D6F64B7
:100BA000756C617253656E736F72732076657273C4
:100BB00020002E205377204275696C643A20005340
:100BC00077204E616D653A20002020426174746583
:100BD0007279547970653A200020547A3A200020C6
:100BE000204C6F6767696E67496E74657276616CD9
:100BF00020286D696E293A20004C6F636174696F1B
:100C00006E3A2000004461746520616E642054696E
:100C10006D6520696E2055544300526573756C7480
:100C200020555549443A00526573756C7420556ED1
:100C300069743A005661726961626C65204E616D3B
:100C4000653A0053656E736F72204E616D653A00B0
:100C500053616D706C696E6720466561747572656D
:100C600020555549443A200044617461204C6F6717
:100C70006765722046696C653A20004461746120A2
:100C80004C6F676765723A20004461746120776930
:100C90006C6C206E6F7420626520736176656421D0
:100CA000004572726F723A2053442063617264206F
:100CB0006661696C656420746F20696E697469612E
:100CC0006C697A65206F72206973206D697373692E
:100CD0006E672E00446174612077696C6C206E6FC2
:100CE000742062652073617665642100536C6176BF
:100CF000652F436869702073656C65637420706943
:100D00006E20666F722053442063617264206861B4
:100D100073206E6F74206265656E207365742E009B
:100D20002D2D2D2D5C2F000A205C2F2D2D2D2D20FB
:100D30004C696E6520536176656420746F00556E52
:100D400061626C6520746F20777269746520746FBE
:100D500020534420636172642100200020697320C5
:100D600000207265706F7274732000200020697318
:100D70002063616C63756C6174656420746F2062BC
:100D80006520002D2D2D2D2D2D2D2D2D2D2D2D2D95
:100D90002D2D2D2D2D2D2D2D2D2D2D2D2D2D2D2D83
:100DA0002D2D2D2D2D2D2D2D2D2D2D2D2D0045783D
:100DB0006974696E672074657374696E67206D6FFE
:100DC0006465002D2D2D2D2D2D2D2D2D2D2D2D2D11
:100DD0002D2D2D2D2D2D2D2D2D2D002D2D2D2D2D70
:100DE0002D2D2D2D2D2D2D2D2D2D2D2D2D2D2D2D33
:100DF0002D2D0043757272656E74206C6F67676588
:100E0000722074696D65206973002D2D2D2D2D2D97
:100E10002D2D2D2D2D2D2D2D2D2D2D2D2D2D2D2D02
:100E20002D2D2D2D2D2D2D2D2D2D2D2D2D2D2D2DF2
:100E30002D2D2D2D00456E746572696E67207365CA
:100E40006E736F722074657374696E67206D6F6462
:100E500065002D2D2D2D2D2D2D2D2D2D2D2D2D2DB7
:100E60002D2D2D2D2D2D2D2D2D2D2D2D2D2D2D2DB2
:100E70002D2D2D2D2D2D2D2D2D2D2D2D002D3E00EB
:100E8000416C6C207661726961626C6520555549D0
:100E90004427732061707065617220746F206265F1
:100EA00020636F72726563746C7920666F726D6512
:100EB000642E0A006861732061206E6F6E2D756E5E
:100EC0006971756520555549442100686173206139
:100ED0006E20696E76616C69642055554944210025
:100EE0004C6F6767657220706F7274696F6E206FE8
:100EF000662073657475702066696E6973686564D1
:100F00002E0A0053616D706C696E672066656174AE
:100F100075726520555549442069733A00617265C0
:100F20002063616C63756C617465642E0073656E1B
:100F3000736F727320616E6400636F6D65206672FB
:100F40006F6D007661726961626C65732C206F66EB
:100F50002077686963680054686973206C6F6767FD
:100F60006572206861732061207661726961626CCC
:100F700065206172726179207769746800437572C7
:100F800072656E74206C6F63616C697A6564206C45
:100F90006F676765722074696D652069733A0043F5
:100FA000757272656E74205254432074696D6520A9
:100FB00069733A006265747765656E005254432028
:100FC00076616C69642072616E6765002D2D2D4C11
:100FD0006F67546F534420436F6D706C6574650A7E
:100FE000002D2D2D2D2D2D2D2D2D2D2D2D2D2D2D5E
:100FF0002D2D2D2D2D2D2D2D2D2D2D2D2D2D2D2D21
:101000002D2D2D2D2D2D2D2D2D2D2D0050696E00CA
:101010000074696D6573206265666F72652074681F
:10102000652072657365742E00736563207769743B
:10103000682074686520696E7465727275707420BA
:10104000666972696E670057617463682D646F67C3
:101050002074696D656F75742069732073657420E1
:10106000666F720074696D6573206265666F726584
:10107000207468652073797374656D20726573657B
:1010800074732E005761746368646F6720456E61E6
:10109000626C65642C20496E746572727570742080
:1010A00077696C6C2066697265002065787065638D
:1010B000746564002E2E2E205761746368646F6718
:1010C000206C6F77206261726B73556E74696C521D
:1010D0006573657400205741544348444F47204985
:1010E0005352206261726B73556E74696C526573F2
:1010F000657400202A2A2A2A205741544348444F25
:101100004720576F6F6620576F6F662E20526573AA
:101110006574696E672050726F636573736F722AAE
:101120002A2A004552524F52004C4100544D00545F
:101130004D0041503000414D3000414900444200D3
:101140004C4D004D59002556005450004349002B8A
:101150002B2B00414300575200434E004853004898
:101160005300006661696C656420746F2077616B61
:101170006521006D6F64656D4861726452657365C9
:1011800074206661696C65642100417474656D70DA
:1011900074696E672061206861726420726573658E
:1011A00074206F6E20746865206D6F64656D2120FA
:1011B000004E6F20726573706F6E736520746F20C0
:1011C000415420636F6D6D616E64732100746F20F4
:1011D000726573706F6E6420746F20415420636F6A
:1011E0006D6D616E64732E2E2E006D7320666F72AE
:1011F000000A57616974696E6720757020746F000A
:1012000057616B696E6720757020746865206D6F1B
:1012100064656D20746F20636F6E6E6563742074F7
:101220006F2074686520696E7465726E6574202E17
:101230002E2E00414D00414D00414D00414D0041D9
:101240004E004357004355004D4E004469676920E6
:101250005862656533207365747570206661696CCA
:10126000656421005D0058626565574C544520490E
:101270005023205B00586265654C5445206E6F74A6
:1012800020726563656976656420495023202D6866
:101290006F706520697420776F726B73206E65784C
:1012A000742074696D65005D2027006D646D495080
:1012B0005B004D59004D59004469676920586265CB
:1012C0006533207365747570205375636573732E71
:1012D00020526567697374726174696F6E202700AC
:1012E000547279202B435245472027002B43524507
:1012F00047004149004C6F6F703D5365635D20723C
:1013000078206462203A205374617475732027201A
:101310004F70657261746F7220272023506F6C6C60
:1013200065642043656C6C2053746174757320652B
:101330007665727920317365630041503000544DF9
:10134000005031005444304100444F00534F00538B
:101350004D005030004435004437004439004438D3
:1013600000467756657200487756657200494D45CC
:101370004920004C746520696E7465726E65742036
:10138000636F6D6D7320776974680056520048561C
:1013900000494D004E4953542054696D65207365D2
:1013A0007276657220646964206E6F742072657352
:1013B000706F6E6421006D73004E49535420726546
:1013C00073706F6E646564206166746572005D2081
:1013D000436F6E6E65637420004E6F20696E746596
:1013E000726E657420636F6E6E656374696F6E2CC8
:1013F0002063616E6E6F7420636F6E6E6563742020
:10140000746F204E4953542E00006661696C656408
:1014100020746F2077616B6521006D6F64656D4886
:101420006172645265736574206661696C656421DC
:1014300000417474656D7074696E67206120686125
:101440007264207265736574206F6E207468652005
:101450006D6F64656D2120004E6F20726573706F33
:101460006E736520746F20415420636F6D6D616EE3
:1014700064732100746F20726573706F6E642074E2
:101480006F20415420636F6D6D616E64732E2E2E3C
:10149000006D7320666F72000A57616974696E6728
:1014A00020757020746F002E2E2E205769466920FB
:1014B000636F6E6E656374696F6E206661696C65DB
:1014C0006400454500504B00454500494400272035
:1014D0006661696C65642E00586265652027005856
:1014E0006265655769666920696E69742074657301
:1014F00074205041535345440058626565576966EE
:101500006920696E69742074657374204641494C82
:101510004544202D20686F706520697420776F72B4
:101520006B73206E6578742074696D65004E53008E
:101530005D00586265655769466920495023205B04
:10154000005862656557694669206E6F7420726540
:1015500063656976656420495023202D686F706546
:1015600020697420776F726B73206E6578742074B5
:10157000696D65004D590058626565576946692077
:101580004150206E6F74205265676973746572658F
:1015900064202D207265736574696E67206D6F64B9
:1015A000756C652C20686F706520697420776F7288
:1015B0006B73206E6578742074696D650041490015
:1015C0004C6F6F703D5365635D20727820646220BC
:1015D0003A205374617475732023506F6C6C65648A
:1015E0002053746174757320657665727920317348
:1015F00065632F333073656300302E302E302E300C
:1016000000444C00544D00534F00534D00495000CE
:1016100044390044380050520046775665720048FD
:1016200077566572004D61632F536E2000586265D6
:10163000655769466920696E7465726E65742063CA
:101640006F6D6D73207769746800565200485600BC
:101650005348004552524F520D004F4B0D00534C12
:10166000005D207769746820004E495354206C6FE8
:101670006F6B7570206D646D49505B0075706461AF
:1016800074654D6F64656D4D65746164617461204E
:10169000666F7263696E672072657374617274201D
:1016A000786265652E2E2E0027006465737A714E70
:1016B000657874436820316572726F723A006D53B9
:1016C0002054696D656F7574007761697465642075
:1016D000002D2D20526573706F6E736520436F640B
:1016E00065202D2D00202D2D2047617465776179AF
:1016F0002054696D656F7574207761726E696E67CD
:101700002062756666657220737A20736D616C6CF9
:10171000000A202D2D20556E61626C6520746F20AB
:1017200045737461626C69736820436F6E6E6563A4
:1017300074696F6E20746F20456E7669726F4449CC
:1017400059204461746120506F7274616C202D2D9A
:10175000006D6F646275735F3078004932435F30AB
:10176000783638004932435F30783434006461742D
:10177000615075626C69736865724261736520734C
:1017800065745175656420636865636B00455252EA
:101790004F5221204E6F2077656220636C69656E21
:1017A000742061737369676E656420746F2070754F
:1017B000626C697368206461746121003D005D00A2
:1017C000202050524F56494445525F4D4D572055A9
:1017D0005549447320286E6F6E6520756E6C657375
:1017E00073206C6973746564292C204D61783D0009
:1017F0000A2050524F56494445525F4D4D57207470
:10180000696D6572506F737450616365286D7329DB
:101810003D000A2050524F56494445525F4D4D57A6
:101820002074696D6572506F7374546F7574286D90
:1018300073293D000A2050524F56494445525F4D8E
:101840004D572053616D706C696E672046656174F9
:101850007572653D000A2050524F56494445525F0B
:101860004D4D572052656720546F6B656E3D0020CB
:1018700050524F56494445525F4D4D5720436C6F6F
:10188000756449643D0046726F6D20656570726FC6
:101890006D2050726F76696465723A2050726F766F
:1018A0006964657220547970653D002053454E444B
:1018B0005F5155455F535A5F4E554D3D0020504F87
:1018C00053545F4D41585F4E554D3D002053454E9A
:1018D000445F4F46465345545F4D494E3D000A0D07
:1018E00020434F4C4C4543545F52454144494E4779
:1018F000533D0020576946695077643D000A2057E0
:1019000069466949643D000A2041504E3D004672D7
:101910006F6D20656570726F6D204E6574776F72A4
:101920006B3A204E6574776F726B20547970653D09
:10193000002020204C6F633D0062617474657279F1
:10194000206D4168723D0062617474657279207423
:101950007970653D006D696E757465732C20547ADD
:101960003D005D0A0D2020206C6F6767696E67205F
:10197000696E74657276616C3D0046726F6D2065AC
:101980006570726F6D20636F6D6D6F6E3A204C6F76
:10199000676765722046696C65204E616D655B0006
:1019A0005D005D20736E5B005D20207265765B00DC
:1019B00046726F6D20656570726F6D20626F6F7417
:1019C000204E616D655B00302E3562004D31323343
:1019D0003435363738396162636465666768006537
:1019E0006E7669726F444959206D6179666C790031
:1019F000506172736520696E693B204E6F20666985
:101A00006C652000536561726368206572726F7245
:101A10002120627265616B206F7574206F66206C87
:101A20006F6F70002D3E0050524F56494445525F33
:101A300078780050524F56494445525F4D4D5720DB
:101A400074696D6572506F737420506163696E675D
:101A5000286D73290050524F56494445525F4D4DF1
:101A6000572074696D6572506F737420546F75746C
:101A7000286D73290050524F56494445525F4D4DD1
:101A8000572053616D70696E672046656174757289
:101A9000650050524F56494445525F4D4D572052B4
:101AA0006567697374726174696F6E20546F6B65DA
:101AB0006E0050524F56494445525F4D4D5720439A
:101AC0006C6F75644964004E4554574F524B205318
:101AD000454E445F5155455F535A5F4E554D004E3C
:101AE0004554574F524B20504F53545F4D41585F10
:101AF0004E554D004E4554574F524B2053454E4482
:101B00005F4F46465345545F4D494E004E4554572E
:101B10004F524B20434F4C4C4543545F5245414438
:101B2000494E4753004E4554574F524B2057694634
:101B3000695077643A20004E4554574F524B205716
:101B40006946694964203A20004E4554574F524B2C
:101B50002061706E3A20004E4554574F524B20740E
:101B60007970653A2000434F4D4D4F4E20426174CD
:101B700074657279206D4168723A2000434F4D4D73
:101B80004F4E204261747465727920547970653AC1
:101B90002000434F4D4D4F4E204C6F6767696E7468
:101BA000657276616C3A2000434F4D4D4F4E204C8C
:101BB0006F676765724964205365743A20007365E6
:101BC0007474696E6720746F20275F272C20666FFE
:101BD000756E6420004572726F722021616C6E75A3
:101BE0006D206C6F676765722066696C6520706F29
:101BF000730056005620474F4F443D0056204D4538
:101C00004449554D3D0056204C4F573D00205468E7
:101C1000726573686F6C64732055534541424C453F
:101C20003D004261747465727920547970653D009D
:101C300050757474696E67206D6F64656D20746F84
:101C400020736C65657000436F756C64206E6F74F3
:101C50002077616B65206D6F64656D20666F722003
:101C60005254432073796E632E00436F756C642069
:101C70006E6F7420636F6E6E65637420746F20697D
:101C80006E7465726E657420666F722052544320C4
:101C900073796E632E00436F6E6E656374656420A6
:101CA000746F20696E7465726E657420666F722041
:101CB0005254432073796E632077697468204E49CB
:101CC00053540054686973206D61792074616B65A9
:101CD00020757020746F2074776F206D696E757435
:101CE00065732100417474656D7074696E6720744A
:101CF0006F20636F6E6E65637420746F2074686507
:101D000020696E7465726E657420616E64207379EB
:101D10006E6368726F6E697A6520525443207769EA
:101D20007468204E49535400446174612077696C93
:101D30006C20626520736176656420617300556E66
:101D400061626C6520746F206372656174652061E7
:101D50002066696C6520746F20736176652064610C
:101D6000746120746F210053657474696E67207507
:101D7000702066696C65206F6E2053442063617229
:101D8000640053657474696E672075702073656EA6
:101D9000736F72732E2E2E004C6F63616C2054692A
:101DA0006D65200077697468204E495354206F7622
:101DB0006572200053796E633D002D2D2D70777272
:101DC0002058626565204F4646206F6E2070696E10
:101DD00020004D6F64656D20636F6E6669672073C8
:101DE0006574206173204C54455F444947495F4303
:101DF00041544D31004D6F64656D20636F6E6669AF
:101E0000672073657420617320574946495F4449D0
:101E100047495F5336002D2D2D7061727365496EF1
:101E20006920636F6D706C6574650A002D2D2D70CF
:101E300061727365496E6920537461727400636FD7
:101E40006E6669673A006D6F6462757320426175F2
:101E500064726174653A004261745620476F6F6422
:101E6000203D0020426F6172643A20417373756DAA
:101E700065204D6179666C7920312E31412000203A
:101E8000426F6172643A20466F756E64204D6179CD
:101E9000666C7920302E35620027002720736E3A59
:101EA0002700207265763A2700426F6172643A20FB
:101EB0000054696E7947534D204C696272617279A2
:101EC0002076657273696F6E20004D6F64756C616A
:101ED0007253656E736F72732076657273696F6E7D
:101EE00020005377204E616D653A20000A2D2D2D7C
:101EF000426F6F742E205377204275696C643A20CC
:101F00000000002100240027002A000000220025F4
:101F10000028002B00000000000403080700000058
:101F2000010200090A00000000000000000000009B
:101F300000000000001F1C1F1E1F1E1F1F1E1F1E53
:101F40001F4552524F52004F4400544D00544D0013
:101F5000444500444C004950004354004754004756
:101F60005400415000414D30004652004552524FFE
:101F7000520D004F4B0D00414D3100000020002359
:101F80000026002900706953642065727220646520
:101F90006C2F72656E20002064656C65746564004A
:101FA000706953642065727220636F756C646E276C
:101FB000742072656E616D652000706953642065E0
:101FC000727220636F756C646E27742064656C2078
:101FD0000072656E616D656420746F2000506172DF
:101FE0007365496E695364202000436F6D706C65A2
:101FF0007465642E004572726F72206F6E206C697A
:102000006E65203A003A2070617273696E672D2DFB
:102010002D2D007365727A5264656C5F4C696E6534
:102020003B204E6F2066696C65002D2D2D6C6F670F
:1020300044617461416E6450756252656C6961629D
:102040006C792020436F6D706C6574652D2D2D2D7E
:102050002D2D2D2D2D2D006C6F6744617461416E07
:102060006450756252656C6961626C79202D2073D1
:10207000746F72652072656164696E67732C206E7F
:102080006F2070756200496E7465726E65742066AB
:1020900061696C65642C206E6F205F6C6F674D6F9B
:1020A00064656D20004661696C656420746F2077FB
:1020B000616B652000436F6E6E65637465642049D3
:1020C0006E7465726E6574204661696C6564004368
:1020D0006C6F636B204E697374204661696C656434
:1020E00000436C6F636B204E6973742053796E6389
:1020F00065640053796E6354696D65436865636B0D
:102100002000436F6E6E656374656420496E74656C
:10211000726E657400436F6E6E656374696E6720DE
:10212000746F2074686520496E7465726E657420E2
:102130007769746800526561642073656E736F72AD
:10214000732E2E2E00292D2D2D2D002D2D2D6C6F53
:102150006744617461416E6450756252656C696177
:10216000626C7920283078006C6F6744617461413B
:102170006E6450756252656C6961626C79202D20C5
:1021800074782063616E63656C6C6564006C6F6766
:1021900044617461416E6450756252656C6961623C
:1021A0006C79202D20616C6C2063616E63656C6CB2
:1021B0006564006C6F6744617461416E6450756260
:1021C00052656C6961626C79202D206F7665726949
:1021D000646520776974682000496E7465726E6169
:1021E0006C20436C6F636B207365742000736563B0
:1021F0006F6E6473206F66204E4953542E00496EF3
:102200007465726E616C20436C6F636B20776974C8
:1022100068696E20004261642074696D6573746141
:102220006D702C206E6F742073657474696E6720F6
:10223000636C6F636B2E002C4D53472C00706F73D3
:10224000744C6F674C696E652063616E2774206FF4
:1022500070656E2066696C65007365514646207432
:1022600067746F757446696C652E636C6F73653146
:1022700020657272007365514646207467746F75ED
:102280007446696C652E72656E616D65206572724B
:10229000007365514646207365727A5175656446D0
:1022A000696C652E636C6F736532206572720073A2
:1022B0006551464620636C6F736531206661696CB9
:1022C000656420657272007365514646205245422E
:1022D0004F4F542072656E616D65312065727200DA
:1022E000736551464620657272206661696C65644B
:1022F0002072656D6F766500736551464620657284
:1023000072372072656D6F766500736551464620A1
:1023100072656D6F76653220657272002C6C617427
:102320006573742072656164696E67732064697394
:10233000636172646564002C717565756564007312
:10234000655146462073656E645175652053697A00
:102350006520007365514646207467746F75744636
:10236000696C6520777269746533206572720073D9
:1023700065514646207467746F757446696C6520B4
:1023800077726974653120657272007365514646D3
:10239000206F70656E32206572720073655146461B
:1023A00020657272362072656D6F766500736551B7
:1023B00046462072656D6F766531206572720073D6
:1023C000655143462051756520666F72206E6578B1
:1023D00074207061737320756E73656E74207265FE
:1023E000636F726473007365514346207365727A3C
:1023F0005175656446696C652E636C6F7365322038
:10240000657272007365727A426567696E206572E3
:10241000722072656D6F7665006465535243207259
:10242000656D6F766520657272007365727A4265BC
:1024300067696E2065727220636C6F7365006465F6
:1024400053524320636C6F73652065727200707520
:1024500062527370436F6465205345525645522053
:102460004552524F522064697363617264207265F1
:102470006164696E6700646552533B204E6F20664D
:10248000696C6520007365727A5175656453746177
:102490007274206F70656E20657272007075624490
:1024A00051545220504F53545F4D41585F4E554D3B
:1024B00020726561636865640070756244515452AE
:1024C000206E6F7420656E6F75676820706F77651A
:1024D0007220617661696C61626C65007365632E60
:1024E000205175657565642072656164696E6773F6
:1024F0003D0072656164696E677320696E005365A3
:102500006E740070756244515452207365727A5132
:1025100075656446696C206572720070756244511D
:102520005452205175656446756C6C2C20736B6930
:10253000702072656164696E672E2073656E6451E8
:10254000756520005D000A70756244515452205335
:10255000656E64696E67206461746120746F205BCE
:10256000006C6F67504C4F20657272206F70656E03
:10257000696E670027006465737A4C696E65207226
:10258000656164756E67207374617274206E6F7418
:1025900020666F756E640027006465737A4C696EFF
:1025A000652045706F63682065727227002700649C
:1025B00065737A4C696E652065706F63682073740B
:1025C000617274206E6F7420666F756E64002700F0
:1025D0006465737A4C696E652053746174757320F9
:1025E00065727227002C002C002C504F53542C0085
:1025F000466F7263696E6720726573657400436825
:1026000065636B20534420666F726D61742E002CDD
:1026100030580053644572726F723A20305800652A
:1026200072726F723A20007365744654547A206552
:10263000727220666F72200004040404040404040F
:102640000202020202020202030303030303030362
:102650000101010101010101010204081020408073
:10266000010204081020408001020408102040806C
:102670000102040810204080008080805D52544395
:1026800020416C61726D2073657420666F722065E5
:1026900076657279206D696E7574652E2052656756
:1026A00020636865636B20776173203078000A2EA1
:1026B0002E2E207A7A7A5A5A204177616B65204013
:1026C000002920205A5A7A7A7A2E2E2E002F00477F
:1026D0006F696E6720746F20736C6565702E205271
:1026E000616D28004D4355206E6F7420456E616208
:1026F0006C65642C5573652061206E6F6E2D6E6560
:102700006761746976652077616B652070696E20FA
:10271000746F207265717565737420736C65657074
:102720002100666F720065787065637400455252CF
:102730004F5220696E6920706172616D20746F6FF5
:10274000206C6F6E672C20676F740000B9CF1EC5B8
:1027500011241FBECFEFD0E4DEBFCDBF19E0A0E053
:10276000B1E0E0E0F3EC01E00BBF02C007900D9296
:10277000A031B107D9F720E2A0E1B9E001C01D9274
:10278000A33AB207E1F713E1C7EAD3E104C0219706
:10279000FE010E94CFDDC63AD107C9F70E9447C5A6
:1027A0000C9473E10C940000FC01538D448D252F93
:1027B00030E0842F90E0821B930B541710F0CF96DB
:1027C000089501970895FC01918D828D981761F00D
:1027D000A28DAE0FBF2FB11D5D968C91928D9F5F24
:1027E0009F73928F90E008958FEF9FEF0895FC0103
:1027F000918D828D981731F0828DE80FF11D858DB6
:1028000090E008958FEF9FEF0895FC01918D228D48
:10281000892F90E0805C9F4F821B91098F739927CD
:10282000089583E998E10E94051421E0892B09F4B9
:1028300020E0822F089580E399E10E94051421E0B1
:10284000892B09F420E0822F0895FC01A48DA80FA4
:10285000B92FB11DA35ABF4F2C91848D90E00196E2
:102860008F739927848FA689B7892C93A089B18902
:102870008C91837080648C93938D848D981306C0A3
:102880000288F389E02D80818F7D80830895EF9207
:10289000FF920F931F93CF93DF93EC0181E0888F1A
:1028A0009B8D8C8D98131AC0E889F989808185FFEA
:1028B00015C09FB7F894EE89FF896083E889F9898C
:1028C00080818370806480839FBF81E090E0DF918E
:1028D000CF911F910F91FF90EF900895F62E0B8DE1
:1028E00010E00F5F1F4F0F731127E02E8C8D8E119C
:1028F0000CC00FB607FCFACFE889F989808185FF03
:10290000F5CFCE010E942514F1CFEB8DEC0FFD2FFA
:10291000F11DE35AFF4FF0829FB7F8940B8FEA89BD
:10292000FB8980818062CFCFCF93DF93EC01888DCC
:102930008823B9F0AA89BB89E889F9898C9185FD3A
:1029400003C0808186FD0DC00FB607FCF7CF8C91C8
:1029500085FFF2CF808185FFEDCFCE010E94251447
:10296000E9CFDF91CF91089580E090E0892B29F0A5
:102970000E941B1481110E94000080E090E0892BCE
:1029800029F00E94111481110C94000008955091B7
:10299000180D4091170D842F90E0252F30E054172B
:1029A00018F4821B930B08958C5B9F4FFACF5091C4
:1029B0001B0D40911A0D852F90E0242F30E0541705
:1029C00018F0821B930B0895805B9F4FFACF809184
:1029D0001B0DE0911A0D8E1751F0EF5FE03508F0F6
:1029E000E0E0F0E0EE53F34F808190E008958FEF48
:1029F0009FEF089580911B0D90911A0D891769F032
:102A00009F5F903508F090E0E92FF0E0EE53F34F30
:102A1000808190931A0D90E008958FEF9FEF0895B5
:102A2000DC01ED91FC910084F185E02D0994DC013D
:102A3000ED91FC910680F781E02D099490E080E013
:102A4000089590E080E0089581E00895FC01878575
:102A500090890895FC01708B6787CB010895FC0174
:102A6000858596850895FC0176876587CB01089555
:102A7000FC0180850895FC016087862F0895DC01A4
:102A8000ED91FC910688F789E02D099591E081117F
:102A900001C090E0892F0895FC01E75AFF4F208183
:102AA0003181820F931FFC01878990E00895CF93B5
:102AB000DF931F92CDB7DEB7DC01ED91FC91028868
:102AC000F389E02D41E050E0BE016F5F7F4F099533
:102AD000019731F4898190E00F90DF91CF910895B3
:102AE0008FEF9FEFF9CFDC011C96ED91FC91808177
:102AF0009181DC01ED91FC910680F781E02D099434
:102B0000CF93DF931F92CDB7DEB76983DC01ED91E0
:102B1000FC910280F381E02D41E050E0BE016F5F47
:102B20007F4F09950F90DF91CF910895DC01ED91D2
:102B3000FC910688F789E02D099591E0811101C08B
:102B400090E0892F08950F931F93CF93DF9300D0C8
:102B500000D000D0CDB7DEB78C01DC01ED91FC9147
:102B60000084F185E02D0995892B11F51B821C82CB
:102B70001D821E82D8011C96ED91FC9145855685DB
:102B8000678570898B819C81AD81BE81481759070B
:102B90006A077B0779F0F801858926960FB6F894C5
:102BA000DEBF0FBECDBFDF91CF911F910F91089572
:102BB00081E0F3CF80E0F1CFDC011C96ED91FC9138
:102BC00080819181DC01ED91FC910680F781E02DFF
:102BD0000994DC011C96ED91FC9180819181DC01CE
:102BE000ED91FC910484F585E02D0994CF93DF935A
:102BF0001F92CDB7DEB76983DC01ED91FC910280B5
:102C0000F381E02D41E050E0BE016F5F7F4F0995F9
:102C10000F90DF91CF9108950F931F93CF93DF9380
:102C200000D000D000D0CDB7DEB7DC01ED91FC9133
:102C3000048CF58DE02D22E234E03A832983DB0118
:102C400012960D911D912D913C9115970B831C832C
:102C50002D833E8330E020E0BE016F5F7F4F0995FA
:102C600026960FB6F894DEBF0FBECDBFDF91CF9191
:102C70001F910F910895DC01ED91FC91028CF38D71
:102C8000E02D2BE430E00994DC0112969C91129720
:102C900030E020E080E0291788F4ED91FC91119755
:102CA000A901440F551FE40FF51F0190F081E02D9D
:102CB000428141118F5F2F5F3F4FEDCF0895CF933A
:102CC000DF93EC01E881F981028CF38DE02D60E067
:102CD000CE0109958823B1F3DF91CF910895EF924A
:102CE000FF920F931F93CF93DF93FC0106A17C010A
:102CF000F9E2EF0EF11CEC0110E00117C9F0F70149
:102D000061917F01662389F070E090E080E00E948D
:102D1000FDDB9B01AC016A817B818C819D810E94DE
:102D20009CDE6A837B838C839D831F5F2496E5CF23
:102D3000DF91CF911F910F91FF90EF9008954F92E7
:102D40005F926F927F928F929F92AF92BF92EF921B
:102D5000FF920F931F93CF93DF938C0149015A0188
:102D6000C62FD0E07E01EE0CFF1CEE0CFF1CE00E27
:102D7000F11EF701428053806480758020E03CE3BF
:102D80004CE156ECC301B2010E94F6DB20E03CE3CB
:102D90004CE156EC81111FC0C501B4010E94F6DB65
:102DA000882351F0F70182829382A482B582C00FFA
:102DB000D11F89A58F5F89A7DF91CF911F910F91B7
:102DC000FF90EF90BF90AF909F908F907F906F900B
:102DD0005F904F900895C501B4010E94F6DB8823EF
:102DE00059F3A5019401C301B2010E9430DEF7013D
:102DF0006283738384839583DACFCF93DF93EC016F
:102E000090E08EA1981728F5E92FF0E0B596EE0F27
:102E1000FF1FEC0FFD1FA081B1811097C1F012962A
:102E20008C911297811113C01996EC91199784E037
:102E3000E89FF0011124EC0FFD1F42815381648152
:102E4000758113964D935D936D937C9316979F5F59
:102E5000D8CFDF91CF910895FC0183A10895FC01A3
:102E6000608170E090E080E0982F872F762F6627B2
:102E70002181620F711D811D911D982F872F762F43
:102E800066272281620F711D811D911D982F872F4A
:102E9000762F66272381620F711D811D911D605859
:102EA0007E478A4A934861152BEE720720ED820710
:102EB00021E6920740F061382EE772072AEA82077E
:102EC00023E8920718F060E070E0CB0108950097C6
:102ED000D9F0823A9105B1F0BC01990F880B990B9A
:102EE0000E94FDDB2BEE32EE4EEC5FE30E945CDCD9
:102EF00029E23CE946E353E40E9430DE0E940EDF03
:102F0000CB01089590E080E00895609100017091F8
:102F10000101072E000C880B990B0E94FDDB089520
:102F2000AF92BF92CF92DF92EF92FF920F931F93D7
:102F3000DC01DC96ED91FC91DD97309731F18081D9
:102F400040E050E0BA0183FF0CC0408D518D628D8E
:102F5000738D80899189A289B389481B590B6A0BAB
:102F60007B0B4115B0E85B076105710520F04FEF61
:102F70005FE760E070E0CA011F910F91FF90EF9052
:102F8000DF90CF90BF90AF900895DE96ED91FC91C9
:102F900080E090E0309781F384A583FF23C02089EF
:102FA0003189428953896489758986899789A08086
:102FB000B180C280D380E480F580068117810E94B1
:102FC00011DEF22FE32F2F3F3F47410551056105E9
:102FD00071058105910519F010F0FFEFEFE78F2FD4
:102FE0009E2FCACF20E030E040E050E060E070E08B
:102FF00080E090E0E6CFDC011E967C936E931D97F7
:10300000ED91FC910484F585E02D0994DC01139683
:103010007C936E93129715965C934E931497ED9153
:10302000FC910284F385E02DB90109948091CE19B9
:10303000811107C08091CF19811103C081E0809375
:10304000CD190895089590E080E0089560917C097D
:1030500070917D0980917E0990917F090895CF93A9
:10306000DF938091961F9091971F892BE1F0C0917B
:10307000941FD091951F8A81882329F0EF81F885CC
:10308000DF91CF91099488819981DC01ED91FC91C8
:103090000484F585E02D09956B817C818D819E816D
:1030A000DF91CF91089560E070E0CB01F9CF80917E
:1030B000190D8111FCCF08958091180D8F5F843414
:1030C00008F080E09091170D9817E1F37FB7F8941E
:1030D0009091190D992359F0E82FF0E0E958F34F3A
:1030E00060838093180D7FBF81E090E0089581E0B8
:1030F0008093190D6093BD0C1092BB0C8091160D3E
:103100008823C9F0062E62956025062E6695669581
:1031100060256F5F61FB442740F950E021E030E01B
:10312000823011F030E020E081E04217530709F0CF
:1031300080E08093BC0C82E086BB80916F0082604F
:1031400080936F00809180008F7B806880938000E7
:10315000809184009091850040969093890080939F
:103160008800C1CF8F929F92AF92BF92CF92DF9291
:10317000EF92FF920F931F93CF93DF937C018B010C
:103180004C0182E0880E911C5701E5E0AE0EB11CA7
:10319000D0E0C0E0F40161914F014AE050E0C80185
:1031A0000E94F7A36C016EE2C8010E9410A48C0D6E
:1031B0009D1DC80FD91F8A149B0461F74AE050E097
:1031C000F7016581C8010E94F7A38C0F9D1FDF9155
:1031D000CF911F910F91FF90EF90DF90CF90BF9014
:1031E000AF909F908F900895CF93DF93EC018BA1C8
:1031F00087FD03C061E00E9412818AA187FD03C0A0
:1032000060E00E941281C75BDF4F88818160888304
:1032100081E0DF91CF910895FC01838587FD05C092
:10322000648591E069270E943E7D81E00895FC015C
:10323000838587FD03C064850E943E7D81E00895FB
:10324000CF93DF93EC01FC01E158FF4F0190F08137
:10325000E02D309711F080E009958BA187FD16C015
:1032600060E00E943E7D1DAA1EAA1FAA18AEFE01A4
:10327000FD9610821182128213823896108211827A
:10328000128213823496808181788083C258DF4F06
:10329000888187FD05C060E0DF91CF910C943E7D71
:1032A000DF91CF910895EF92FF921F93CF93DF9319
:1032B000EC010E94F418182F7E018DE7E80EF11C36
:1032C000F701808187FD03C061E00E941281FE0149
:1032D000E258FF4F808187FD03C061E00E941281A8
:1032E000F7018081282F082E000C330BFE01E558D2
:1032F000FF4F4081518131979081329760817E9755
:1033000091836083C759DF4F98835A8349833C83F5
:103310002B8337FD03C061E00E9412818B819C8169
:1033200097FD03C060E00E943E7DE981FA818D85B2
:103330009E85092E000CAA0BBB0B84839583A68364
:10334000B783812FDF91CF911F91FF90EF90089568
:10335000CF93DF93EC018BA187FD17C060E00E9443
:103360003E7D1DAA1EAA1FAA18AEFE01FD96108260
:103370001182128213823896108211821282138275
:10338000C75BDF4F888181788883DF91CF91089573
:10339000CF93DF93FC0123A521112BC0EC01838186
:1033A00087FD03C060E00E9412818B8587FD09C004
:1033B00061E00E9412816C8581E068278B850E9404
:1033C0003E7D8D8187FD09C061E00E9412816E8182
:1033D00081E068278D810E943E7D89A187FD07C01D
:1033E00061E00E94128160E089A10E943E7D81E03F
:1033F0008BA7DF91CF9108951F93CF93DF93EC01BB
:10340000E881F98102A4F3A5E02D099511E0882354
:1034100071F0E881F98104A0F5A1E02DCE010995B4
:10342000182F89A187FD03C060E00E943E7D812F97
:10343000DF91CF911F910895CF93DF93EC018A81A3
:1034400087FD07C060E00E943E7D1AA21BA21CA25D
:103450001DA2DF91CF910895CF93DF93EB01BC01C3
:1034600080E399E10E9433A560E280E399E10E9444
:1034700010A4BE0180E399E1DF91CF910C9472A674
:103480001F93CF93DF93EC01162F49E859E0FA011F
:1034900001900020E9F7AF014A58594069E879E006
:1034A00080E399E10E94B27A112329F06AE080E377
:1034B00099E10E94F9A480E399E10E94941449E8FB
:1034C00059E0FA0101900020E9F7AF014A5859404C
:1034D000E881F9810280F381E02D69E879E0CE018D
:1034E0000995112329F063E276E0CE010E940BA535
:1034F000E881F9810680F781E02DCE010995E9E8A0
:10350000F9E087E79CE011928E179F07E1F7DF91C2
:10351000CF911F910895EF92FF920F931F93CF9336
:10352000DF93EC010E94A5ADF82E811107C0E88160
:10353000F9810684F785E02DCE010995FE01E75B50
:10354000FF4F8081982F9870E92E83FF13C09EA1B2
:10355000DE011296FE01B99680E040E05CE36CE18A
:1035600076EC9817E1F04D935D936D937D931192F6
:103570008F5FF7CFCE010E945F16E881F981028844
:10358000F389E02DCE010995182F8111E0CF812F0D
:10359000DF91CF911F910F91FF90EF900895E881F7
:1035A000F981048CF58DE02D60E0CE010995182F8E
:1035B0008823A9F300E08FA10817D0F4E881F981EE
:1035C0000688F789E02DCE010995E881F981068CFE
:1035D000F78DE02D60E0CE0109958823B1F3E881F5
:1035E000F981008CF18DE02DCE0109950F5FE3CFBD
:1035F000CE010E946F16EE2039F0E881F98104882F
:10360000F589E02DCE010995F11007C0E881F98117
:103610000088F189E02DCE010995CE010E94FD16AA
:10362000B6CFCF92DF92EF92FF920F931F93CF937B
:10363000DF93CDB7DEB7C854D1090FB6F894DEBF1B
:103640000FBECDBFFC01E65AFF4F2081222389F037
:1036500081E0C85BDF4F0FB6F894DEBF0FBECDBF71
:10366000DF91CF911F910F91FF90EF90DF90CF905E
:1036700008958C010E94A5AD882351F368012DE3C4
:10368000C20ED11CF60180819181A281B381892B68
:103690008A2B8B2BE9F281E090E07801FBE5EF0EBD
:1036A000F11CF701958B848BAE014B5D5F4FBE0122
:1036B0006F5F7F4FC7010E94B281F701158A148A9C
:1036C000882339F2F6011082118212821382389611
:1036D000108211821282138234969081977890839F
:1036E000B8CF4F925F926F927F929F92AF92BF92AC
:1036F000CF92DF92EF92FF920F931F93CF93DF93BE
:10370000CDB7DEB7C854D1090FB6F894DEBF0FBEEF
:10371000CDBF8C015C0189E4A80EB11CF50180814C
:1037200086FF71C0C801855A9F4FFC01158A148A13
:10373000AE014B5D5F4FBE016F5F7F4F0E94B28154
:10374000982E49AC5AAC6BAC7CACCD88DE88EF8847
:10375000F88C882309F44DC0A3019201C301B20182
:103760000E9499DF882339F0412C3CE3532E3CE141
:10377000632E36EC732EA7019601C701B6010E9495
:1037800099DF882339F0C12C2CE3D22E2CE1E22ED4
:1037900026ECF22EA301920161E0C8010E949F165F
:1037A000A701960160E0C8010E949F16F801EB5B3B
:1037B000FF4F1082118212821382F50180818F796E
:1037C0008083892DC85BDF4F0FB6F894DEBF0FBE34
:1037D000CDBFDF91CF911F910F91FF90EF90DF90C0
:1037E000CF90BF90AF909F907F906F905F904F90E1
:1037F0000895412C9CE3592E9CE1692E96EC792E7C
:1038000073016201C7CF912CC12C8CE3D82E8CE1BF
:10381000E82E86ECF82E26013701BCCFCF93DF933C
:10382000EC0188819981DC01ED91FC910084F185A6
:10383000E02D0995892B81F088819981DC01ED913A
:10384000FC910284F385E02D099562E070E080E050
:1038500090E00E947381E5CFDF91CF910895CF93DF
:10386000DF93EC0162E070E080E090E00E94738101
:10387000FE01E95AFF4FC75ADF4F808191812881AD
:103880003981821B930B97FF02C0805C9F4FDF91B1
:10389000CF910895CF92DF92EF92FF920F931F93F3
:1038A000CF93DF93EC016B017A010C811D816AE8F3
:1038B00074E0888199810E940BA5B6018881998165
:1038C0000E9433A5B701888199810E940BA5B80198
:1038D000888199810E940BA588819981DC01ED91F5
:1038E000FC910680F781E02D099562E070E080E0B0
:1038F00090E0DF91CF911F910F91FF90EF90DF90BB
:10390000CF900C947381CF93DF93EC0162E070E071
:1039100080E090E00E947381EC85FD85808191813B
:10392000DC01ED91FC910284F385E02DDF91CF91D4
:103930000994CF93DF93EC0162E070E080E090E0C7
:103940000E947381EC85FD8580819181DC01ED9180
:10395000FC910084F185E02DDF91CF910994CF9304
:10396000DF93EC018D8187FD13C06E810E943E7D47
:103970006F81788589859A850E9473816E8181E047
:1039800068278D810E943E7D81E0DF91CF9108956F
:1039900080E0FBCF2F923F924F925F926F927F9287
:1039A0008F929F92AF92BF92CF92DF92EF92FF924F
:1039B0000F931F93CF93DF931F92CDB7DEB78C0188
:1039C0000E94D9A8380181E7680E711CD301ED91DE
:1039D000FC911482158216821782C8010E94F41885
:1039E000282EC8010E94A5AD482E811108C0D8011B
:1039F000ED91FC910684F785E02DC8010995C80179
:103A00000E945F16552453947801BBE5EB0EF11C20
:103A100080E2A82EB12C33243394D3018D909C9056
:103A2000F70184859585009711F00E945DD686E0A8
:103A300090E00E94C1D56C01E4E4DC01EC931296A5
:103A40009C928E92119713961C9213971596BC9286
:103A5000AE921497D7011D969C938E931C970E944B
:103A6000D9A8F6013382C6010E94927C882309F40A
:103A70007AC0F4E9F983D7011C968D919C91FC01E1
:103A800024813581232B09F46EC0208130926F1878
:103A9000209391181092701810929218BE016F5FC7
:103AA0007F4F0E94CE7BD82E882309F45CC061E052
:103AB00070E080E090E00E94738187E090E00E94D7
:103AC000C1D5FC0189E891E09183808381E094E095
:103AD00094838383F682E582D7015196FC93EE931B
:103AE000509787E090E00E94C1D5FC018BE791E000
:103AF0009183808380E094E094838383F682E582DF
:103B0000D7011F96FC93EE931E97F701138A128A32
:103B1000158A148AD11007C0F801E75BFF4F808136
:103B20008E7F806880832D20411008C0D801ED91E0
:103B3000FC910088F189E02DC8010995822D0F9034
:103B4000DF91CF911F910F91FF90EF90DF90CF9079
:103B5000BF90AF909F908F907F906F905F904F90AD
:103B60003F902F9008955394E6E05E1256CFD12CEB
:103B7000CCCF0C945DD60C945DD60C945DD60C9491
:103B80005DD60C945DD68F929F92AF92BF92CF92EA
:103B9000DF92EF92FF92CF93DF93EC01FC01E65AA4
:103BA000FF4FE080F18062E674E0C7010E941CE1F3
:103BB000892B71F067E674E0C7010E941CE126E6DC
:103BC000C22EDC2C26E9E22E20E4F22E892B41F4D1
:103BD00096EFC92E98E2D92E9CEBE92E9FE3F92EA1
:103BE00084E070E060E0C45ADF4F9881983108F0BB
:103BF00098519770906490937C0090917A009064B3
:103C000090937A0090917A0096FDFCCF9091780085
:103C100020917900322F292F620F731F815029F7CD
:103C2000769567957695679590E080E00E94FBDB3E
:103C30004B015C012DE038E643E55BE3C701B601CB
:103C40000E945CDC9B01AC01C501B4010E945CDCFC
:103C5000DF91CF91FF90EF90DF90CF90BF90AF902A
:103C60009F908F9008950F931F93CF93DF9300D071
:103C7000CDB7DEB78C010E94C31D9B01AC0160E093
:103C8000C8010E949F1680919F209091A0200097CC
:103C900011F483EA90E2BE016F5F7F4F681B790BDE
:103CA000072E000C880B990B0E94FDDB9B01AC01D9
:103CB00061E0C8010E949F16F801E35AFF4F60813E
:103CC00071816F5F7F4F71836083072E000C880BBB
:103CD000990B0E94FDDB9B01AC0162E0C8010E94D0
:103CE0009F16F801EB5BFF4F108211821282138244
:103CF000349680818F79808381E00F900F90DF91DF
:103D0000CF911F910F910895CF92DF92EF92FF9282
:103D10001F93CF93DF93EC0181E10E94BFA8182F7E
:103D200082E10E94BFA8682F70E086E075956795D4
:103D30008A95E1F7072E000C880B990B17FF33C00B
:103D40000E94FDDB20E030E040E85EE30E945CDCA6
:103D50006B017C01612F619570E090E080E00E9432
:103D6000FDDB9B01AC01C701B6010E9430DE90581B
:103D70009B01AC0160E0CE010E949F16FE01EB5B4F
:103D8000FF4F1082118212821382C75BDF4F88813E
:103D90008F79888381E0DF91CF911F91FF90EF9021
:103DA000DF90CF9008950E94FDDB20E030E040E8F6
:103DB0005EE30E945CDC6B017C01612F70E090E0AF
:103DC00080E00E94FDDB9B01AC01C701B6010E94AF
:103DD00030DECECFCF93DF93EC010E9489ADCE01D0
:103DE000DF91CF910C94F4182F923F924F925F92F3
:103DF0006F927F928F929F92AF92BF92CF92DF92FB
:103E0000EF92FF920F931F93CF93DF9300D000D0D8
:103E10001F92CDB7DEB71C01875B9F4F9A838983C2
:103E2000FC01808186FFF6C0C101865A9F4F9D83A9
:103E30008C83FC01828180FFE5C08F01015F1F4FF1
:103E400065E270E0C8010E9485A2812CFCE39F2EF0
:103E5000FCE1AF2EF6ECBF2E882329F0C8010E94AA
:103E60004DAE4B015C01EC81FD8183829482A58281
:103E7000B682EC81FD818281C12C6CE3D62E6CE18F
:103E8000E62E66ECF62E81FF1CC08F01015F1F4FEE
:103E90006DE270E0C8010E9485A2C12C7CE3D72EA0
:103EA0007CE1E72E76ECF72E882329F0C8010E94EA
:103EB0004DAE6B017C01EC81FD81C782D086E1862D
:103EC000F286EC81FD818281412C4CE3542E4CE141
:103ED000642E46EC742E82FF1CC08F01015F1F4FC1
:103EE00065E370E0C8010E9485A2412C5CE3552E79
:103EF0005CE1652E56EC752E882329F0C8010E94DE
:103F00004DAE2B013C01EC81FD81438654866586D4
:103F10007686A5019401C501B4010E9499DF88232A
:103F200039F0812C3CE3932E3CE1A32E36ECB32EEA
:103F3000A7019601C701B6010E9499DF882339F0D5
:103F4000C12C2CE3D22E2CE1E22E26ECF22EA30182
:103F50009201C301B2010E9499DF882339F0412CFC
:103F60009CE3592E9CE1692E96EC792E20E03CE3EF
:103F70004CE156ECC501B4010E94F6DB882309F43C
:103F800056C020E030E04AE754E4C501B4010E9485
:103F90005CDC9B01AC01F1E0FB8360E0C1010E94AD
:103FA0009F16A701960161E0C1010E949F16A3011F
:103FB000920162E0C1010E949F16F101EB5BFF4F8D
:103FC0001082118212821382E981FA8180818F79B5
:103FD00080838B810F900F900F900F900F90DF9147
:103FE000CF911F910F91FF90EF90DF90CF90BF90F6
:103FF000AF909F908F907F906F905F904F903F9089
:104000002F900895812CECE39E2EECE1AE2EE6EC91
:10401000BE2E2FCFC12C8CE3D82E8CE1E82E86EC5F
:10402000F82E26013701A70196011B82B6CF20E0AA
:104030003CE34CE156EC81E08B83AFCFCF93DF9331
:10404000EC018BA187FD09C061E00E943E7D0E94CA
:10405000A6816DAB7EAB8FAB98AFFE01E258FF4FF0
:10406000808187FD03C061E00E943E7DFE01E15832
:10407000FF4F0190F081E02D309711F081E009951C
:10408000C75BDF4F888186608883DF91CF91089579
:104090000F931F93CF93DF93FC01E75BFF4F2081CA
:1040A00026FF22C0EC010E94A681FE01EB5BFF4FC0
:1040B0000081118122813381AB01BC01401B510B76
:1040C000620B730BCF5BDF4F81E0088119812A817E
:1040D0003B81041715072607370708F080E0DF91BA
:1040E000CF911F910F91089581E0F9CF0F931F9306
:1040F000CF93DF93FC01E75BFF4F208124FF1FC0BC
:10410000EC010E94A681FE01FD96008111812281B1
:104110003381AB01BC01401B510B620B730B81E07F
:1041200009AD1AAD2BAD3CAD0417150726073707AF
:1041300008F080E0DF91CF911F910F91089581E009
:10414000F9CF0F931F93CF93DF93FC01E75BFF4FF2
:10415000208122FF1DC0EC010E94A6810DA91EA98D
:104160002FA938ADAB01BC01401B510B620B730B87
:1041700081E009A91AA92BA93CA90417150726074C
:10418000370708F080E0DF91CF911F910F910895DC
:1041900081E0F9CF0F931F93CF93DF93EC018C0154
:1041A000075B1F4FF801808180FD07C0E881F9811E
:1041B0000284F385E02DCE010995F8019081892FC5
:1041C00080628083CB5BDF4F94FF10C00E94A6818A
:1041D000688379838A839B83F801808180648083EC
:1041E00081E0DF91CF911F910F910895188219827C
:1041F0001A821B829F7B9062908380E0F2CFCF93E4
:104200000E94CA20C82F882369F08EE00E94BFA8B0
:10421000682F60628EE00E94AFA78EE00E94BFA868
:1042200085FDFBCF8C2FCF9108950F931F93CF93D4
:10423000DF938C01EC01C75BDF4F9881892F886089
:104240008883035C1F4F92FD0EC0F801108211821B
:10425000128213829F7E9860988380E0DF91CF91D5
:104260001F910F9108950E94A681F80160837183C8
:104270008283938388818061888381E0EFCFCF93AD
:10428000DF93EC018BA187FD0EC061E00E941281DB
:1042900061E08BA10E943E7D0E94A6816DAB7EAB4A
:1042A0008FAB98AF08C08DA99EA9AFA9B8AD892BD7
:1042B0008A2B8B2B89F3C75BDF4F888186608883CD
:1042C000DF91CF9108958F929F92AF92BF92FF920C
:1042D0000F931F93CF93DF93CDB7DEB728970FB619
:1042E000F894DEBF0FBECDBF8C0181EF98ED9093A7
:1042F0000101809300019A8389839C838B8383E6E9
:104300008F838DE988878FE097E29E838D830E945B
:10431000A6814B015C01D801ED91FC91008CF18DDF
:10432000E02DAE014D5F5F4FBE016F5F7F4FC80153
:104330000995F82E89819A8190930101809300015B
:10434000009719F0813F984DD1F46AEF70E080E05A
:1043500090E00E94738189819A81009719F0813FD2
:10436000984D69F40E94A681681979098A099B0908
:1043700068397A438105910510F4F110CCCFD8014A
:10438000ED91FC91028CF38DE02D9E012B5F3F4F50
:10439000AE01485F5F4FBE01695F7F4FC80109955D
:1043A000F822D801ED91FC91048CF58DE02DC80127
:1043B00009958F2D28960FB6F894DEBF0FBECDBF9E
:1043C000DF91CF911F910F91FF90BF90AF909F9081
:1043D0008F9008958F929F92AF92BF92FF920F930A
:1043E0001F93CF93DF93EC0181E08AA78AA19BA161
:1043F000ACA1BDA101E0892B8A2B8B2B41F4E88174
:10440000F9810084F185E02DCE01099500E0E88175
:10441000F98102A4F3A5E02DCE010995F82E882399
:1044200001F1E881F98100A4F1A5E02DCE01099503
:10443000182F811101C01AA6011133C0E881F9813A
:104440000684F785E02DCE0109951823812FDF9191
:10445000CF911F910F91FF90BF90AF909F908F9041
:1044600008950E94A6818AA09BA0ACA0BDA0681957
:1044700079098A099B09898C9A8CAB8CBC8C68154C
:1044800079058A059B0568F3E881F9810680F78143
:10449000E02DCE010995182F8111C3CF011103C062
:1044A000CDCFF110D3CFE881F9810484F585E02DDB
:1044B000CACFCF93DF93EC018A8187FD17C08B852C
:1044C00087FD05C06C8591E069270E943E7D61E013
:1044D0008A810E94128161E08A810E943E7D0E9451
:1044E000A6816AA37BA38CA39DA308C08AA19BA1DC
:1044F000ACA1BDA1892B8A2B8B2B89F3DF91CF91A6
:104500000895EF92FF920F931F93CF93DF937C0157
:10451000EB018A0162E070E080E090E00E9473812C
:10452000D7011C96ED91FC91A801BE01808191817B
:10453000DF91CF911F910F91FF90EF900C945CA2AF
:10454000CF92DF92EF92FF920F931F93CF93DF935F
:10455000EC010E94A6816B017C01E881F981048451
:10456000F585E02DCE0109958A8187FD24C08B81D8
:1045700087FD2BC00E94A6816C197D098E099F09B9
:104580000D891E892F89388D60177107820793075F
:1045900038F48B810E94157D2C812817190651F360
:1045A0008B810E94157D60E08A810E943E7D1AA267
:1045B0001BA21CA21DA281E0DF91CF911F910F9140
:1045C000FF90EF90DF90CF9008958D899E89AF89FD
:1045D000B88D892B8A2B8B2B31F30E94A6816C1905
:1045E0007D098E099F090D891E892F89388D6017D5
:1045F00071078207930788F3D6CFCF93DF93EC013F
:10460000E881F9810084F185E02D0995892B31F449
:104610008C859D85DF91CF910C94F6C281E0DF916E
:10462000CF9108952F923F924F925F926F927F9217
:104630008F929F92AF92BF92CF92DF92EF92FF92B2
:104640000F931F93CF93DF93CDB7DEB72C970FB6A1
:10465000F894DEBF0FBECDBF5C011B015E834D83AE
:1046600062E070E080E090E00E9473810E94A68189
:104670002B013C01F12CE12C9501295A3F4F388741
:104680002F83C501875A9F4F9C838B83F5017796B3
:10469000FA87E9872D813E81E216F30608F082C091
:1046A0000E94A6816419750986099709F50104819C
:1046B000158126813781601771078207930708F0FB
:1046C00071C0EF81F8850190F081E02DFA83E983D4
:1046D000EB81FC818081918129813A81281B390BF2
:1046E0003A83298337FF04C0205C3F4F3A832983F4
:1046F00089819A819C878B878D819E818E199F09E4
:10470000EB85FC85E817F90708F446C09C878B8782
:10471000CB84DC843A822982EB81FC818080918089
:10472000EF81F885808191818819990997FF02C0EE
:10473000805C9F4F009749F100E410E008191909C7
:10474000C016D1060CF48601801791070CF48C0179
:1047500069857A85680D791DA80189819A810E94F1
:10476000E4E0800E911EFFE38F229924EB81FC810F
:1047700091828082C01AD10A29813A81200F311F8B
:104780003A832983C114D10439F68B859C85280E80
:10479000391EE80EF91E7ECF2B853C85232B09F4AC
:1047A00079CFB6CFC7012C960FB6F894DEBF0FBEF7
:1047B000CDBFDF91CF911F910F91FF90EF90DF90D0
:1047C000CF90BF90AF909F908F907F906F905F90B1
:1047D0004F903F902F900895EF92FF920F931F9369
:1047E000CF93DF93EC018B017A0162E070E080E00F
:1047F00090E00E947381A701B8018C859D85DF91AF
:10480000CF911F910F91FF90EF900C94AEC4EF9257
:10481000FF920F931F93CF93DF93EC018B017A01EB
:1048200062E070E080E090E00E947381A701B8012F
:104830008C859D85DF91CF911F910F91FF90EF9017
:104840000C94AEC4BC0180E399E10E9433A56CE6F0
:1048500074E080E399E10E940BA561E774E080E3D6
:1048600099E10C94E0A3BC0180E399E10E946CA65D
:104870006CE674E080E399E10E940BA561E774E0C7
:1048800080E399E10C94E0A3CF92DF92EF92FF9244
:104890000F931F93CF93DF9300D000D000D0CDB7FC
:1048A000DEB78C016B017A01FC01848595850E943D
:1048B0000E1CF80184859585268542E254E05A83D2
:1048C0004983F60142815381648175814B835C8306
:1048D0006D837E83A701BE016F5F7F4F0E94F6C18B
:1048E000F801858B90E026960FB6F894DEBF0FBED8
:1048F000CDBFDF91CF911F910F91FF90EF90DF908F
:10490000CF9008954F925F926F927F928F929F9275
:10491000AF92BF92CF92DF92EF92FF920F931F93CD
:10492000CF93DF931F92CDB7DEB7FC0104AD15AD79
:104930000115110589F1F80180889188A288B38852
:10494000C484D584E684F784BE016F5F7F4FC801BD
:104950000E94A2AA0197E9F4898190E0F801808A77
:10496000918AA28AB38AC486D586E686F7860F9096
:10497000DF91CF911F910F91FF90EF90DF90CF903B
:10498000BF90AF909F908F907F906F905F904F906F
:1049900008958FEF9FEFE2CF06AD17AD8FEF9FEF3A
:1049A0000115110521F3F801408051806280738068
:1049B00084809580A680B780C08CD18CE28CF38CEB
:1049C00041E050E0BE016F5F7F4FC8010E94328F0F
:1049D000019781F4898190E0F801408251826282DE
:1049E000738284829582A682B782C08ED18EE28E37
:1049F000F38EBDCF8FEF9FEFEFCFCF93DF931F925B
:104A0000CDB7DEB7FC0184AD95AD009751F0BE0186
:104A10006F5F7F4F0E94A2AA019739F4898190E0CD
:104A200006C086AD97AD009731F48FEF9FEF0F90E2
:104A3000DF91CF91089541E050E0BE016F5F7F4F5D
:104A40000E94328FE9CFFC0184AD95AD009711F043
:104A50000C94428886AD97AD009711F00C94C08BF2
:104A60000895BF92CF92DF92EF92FF920F931F9320
:104A7000CF93DF936B018C01F12CE12CB02ED12F61
:104A8000F801C1918F01CC23F1F0C114D10449F098
:104A90006C2F0C2E000C770BC6010E9411E1892BA4
:104AA00091F4EF2851F06C2F0C2E000C770B8DE752
:104AB00094E00E9411E1892B31F48C2F90E00E9448
:104AC00035D97C01DBCF8B2D9D2FDF91CF911F91AD
:104AD0000F91FF90EF90DF90CF90BF9008950F93CC
:104AE0001F93CF93DF938C01EC0109900020E9F72D
:104AF00021970C171D0740F48A9190E00E9435D948
:104B0000892B11F01882F5CFC801DF91CF911F9149
:104B10000F9108952F923F924F925F926F927F92E2
:104B20008F929F92AF92BF92CF92DF92EF92FF92BD
:104B30000F931F93CF93DF93CDB7DEB7CA5CD10934
:104B40000FB6F894DEBF0FBECDBF2B01FE01EB59AF
:104B5000FF4F1192119220E3DF01322F1D923A95FF
:104B6000E9F7FE01E956FF4F11921192DF011D9204
:104B70002A95E9F7D12CC12CB12CA12C80569D4F40
:104B80003C01FE0131967F01CE010496C753DF4FF1
:104B900099838883C95CD040B701C3010E94E6AC09
:104BA000892B09F4BCC09FEFA91AB90AA1E0AA1683
:104BB000B10409F04FC089818F3E09F04BC08A8152
:104BC0008B3B09F047C08B818F3B09F043C0C75333
:104BD000DF4F8881C95CD040C653DF4F9881CA5CE3
:104BE000D0400E946F258C014801F80131908F015F
:104BF000332031F0832D90E00E9435D9892BA1F725
:104C0000632D032C000C770B8FE794E00E9411E1D9
:104C1000892B11F6C956DF4F8881C759D0408823A8
:104C2000D9F0332009F4B8CFE814F90408F073C0C0
:104C3000A401BE0169567F4FCE018B599F4FF201EF
:104C40000995892B09F0A8CFC114D10409F0A4CF8C
:104C50006501A2CFC701C5CFFBE53F1220C03FEFE2
:104C6000831A930A62E874E0C4010E943125DC01D2
:104C70002C912D3549F71C9241E350E0B401CE014F
:104C80008B599F4F0E944AE1CA56DF4F1882C6597E
:104C9000D040C956DF4F1882C759D0407DCF33204E
:104CA00009F47ACF64E874E0C4010E943125FC0164
:104CB00020812D3311F02A3339F6DC011D928D014C
:104CC000C4010E946F254C0170E060E0C8010E94A1
:104CD0003125FC012081211110821801D8018D910C
:104CE0008D01882329F090E00E9435D9892BA9F7FE
:104CF000C1010E946F2541E350E0B401CE01895605
:104D00009F4F0E944AE1C853DF4F1882C85CD040D1
:104D1000A101B40191CFFBE53F12C4CFA0CF8C2DF0
:104D2000C653DF4F0FB6F894DEBF0FBECDBFDF9185
:104D3000CF911F910F91FF90EF90DF90CF90BF9098
:104D4000AF909F908F907F906F905F904F903F902B
:104D50002F9008954F925F926F927F92AF92BF9281
:104D6000CF92DF92EF92FF920F931F93CF93DF9337
:104D70008AEA9FE10E94C31D6B017C018091770943
:104D8000882309F486C08091760994E0899FF00118
:104D90001124E25AF64FC082D182E282F3828F5F01
:104DA000863008F073C0809376098EE5A82E89E0DE
:104DB000B82E8601DE2DCF2DF501419051906190E6
:104DC00071905F0198014D2F5C2FC301B2010E94C9
:104DD000F6DB87FF03C08201D62DC72DF6E7AF169D
:104DE000F9E0BF0649F7C801AD2FBC2F80937C09BD
:104DF00090937D09A0937E09B0937F09A701960146
:104E0000B8018D2F9C2F0E9444DF18160CF052C061
:104E100063E172E080E399E10E9433A523E0B701EA
:104E2000A60180E399E10E9417A46FEC75E080E38E
:104E300099E10E940BA560917C0970917D09809198
:104E40007E0990917F0943E050E00E9415A6C09230
:104E50007C09D0927D09E0927E09F0927F096091F1
:104E60007C0970917D0980917E0990917F09DF9185
:104E7000CF911F910F91FF90EF90DF90CF90BF9057
:104E8000AF907F906F905F904F9008951092760949
:104E90008CCFEEE5F9E0C192D192E192F19289E0F6
:104EA000E637F807C1F781E0809377098601DE2DA8
:104EB000CF2D99CF60E072E080E399E10E9433A5A5
:104EC00040917C0950917D0960917E0970917F0924
:104ED00023E080E399E10E9417A46FEC75E080E382
:104EE00099E10E940BA543E050E0C701B6010E9482
:104EF00015A6B5CFCF92DF92EF92FF92CF93DF93BB
:104F0000EC010E94AA266B017C01C0920920D0927C
:104F10000A20E0920B20F0920C20C130D10509F458
:104F200066C0229709F46EC020E030E040E05FE305
:104F30000E94F6DB87FF08C084E090E090937B0935
:104F400080937A0981E046C080910D2090910E20D7
:104F500024E1289FE001299FD00D1124C75FDF4D78
:104F60002A893B894C895D89C701B6010E9444DFCB
:104F700087FFE2CF2E853F8548895989C701B60151
:104F80000E9444DF87FF30C02A853B854C855D85C4
:104F9000C701B6010E9444DF87FF23C02E813F81F5
:104FA00048855985C701B6010E9444DF87FF0CC0C0
:104FB00010927B0910927A0970E060E082E099E03B
:104FC0000E942C1A80E006C081E090E090937B095B
:104FD00080937A09DF91CF91FF90EF90DF90CF908F
:104FE000089582E090E0AACF83E090E0A7CF60919F
:104FF0007A0970917B0984E599E0633071050CF0C2
:10500000A1CFDECF60917A0970917B096430710580
:105010000CF098CF8AE299E0D3CF1F920F920FB68F
:105020000F9211240BB60F922F933F934F935F93E0
:105030006F937F938F939F93AF93BF93EF93FF9360
:1050400083E998E10E942514FF91EF91BF91AF9100
:105050009F918F917F916F915F914F913F912F9190
:105060000F900BBE0F900FBE0F901F9018951F92C0
:105070000F920FB60F9211240BB60F922F938F93AE
:105080009F93EF93FF93E091A318F091A418808170
:10509000E091A918F091AA1882FD1DC0908180911D
:1050A000AC188F5F8F732091AD18821741F0E0919B
:1050B000AC18F0E0ED56F74E958F8093AC18FF9149
:1050C000EF919F918F912F910F900BBE0F900FBE7C
:1050D0000F901F9018958081F2CF1F920F920FB6FC
:1050E0000F9211240BB60F922F933F934F935F9320
:1050F0006F937F938F939F93AF93BF93EF93FF93A0
:1051000080E399E10E942514FF91EF91BF91AF9147
:105110009F918F917F916F915F914F913F912F91CF
:105120000F900BBE0F900FBE0F901F9018951F92FF
:105130000F920FB60F9211240BB60F922F938F93ED
:105140009F93EF93FF93E0914019F0914119808173
:10515000E0914619F091471982FD1DC09081809120
:1051600049198F5F8F7320914A19821741F0E0919E
:105170004919F0E0E05DF64E958F80934919FF9153
:10518000EF919F918F912F910F900BBE0F900FBEBB
:105190000F901F9018958081F2CF1F920F920FB63B
:1051A0000F9211240BB60F922F933F934F935F935F
:1051B0006F937F938F939F93EF93FF9380916F00F3
:1051C0008B7F80936F00809181008F7B8093810023
:1051D00040911C0D5091C10C60E8650F7091140D49
:1051E0008091C00C90E0741728F04F5F95958795DB
:1051F000862BF8CF4091120D02C0959587954A9560
:10520000E2F78093C00CE091160DEE23C9F0482F11
:10521000042E42954025042E4695469540254F5F25
:1052200041FB222720F961E070E0E23009F060E004
:105230002627217031E0503809F430E0231789F037
:1052400020911B0D2F5F203508F020E030911A0DC2
:10525000321739F0E22FF0E0EE53F34F80832093C2
:105260001B0D10921C0D809181008F7B809381001B
:105270001092C10CFF91EF919F918F917F916F914F
:105280005F914F913F912F910F900BBE0F900FBEEA
:105290000F901F9018951F920F920FB60F92112426
:1052A0000BB60F920F931F932F933F934F935F93E0
:1052B0006F937F938F939F93AF93BF93CF93EF930E
:1052C000FF9380918600909187003091C10C2091CE
:1052D0008100332309F443C02F7B20938100109277
:1052E000C10C20911C0D211141C0311122C020910F
:1052F0001D0D30911E0D280F391F30938B00209308
:105300008A0024E026BB20916F00246020936F0068
:1053100020911F0D3091200D820F931F36952795F8
:10532000280F391F3093BF0C2093BE0C81E080936F
:105330001C0DFF91EF91CF91BF91AF919F918F91F4
:105340007F916F915F914F913F912F911F910F919D
:105350000F900BBE0F900FBE0F901F9018952064FA
:105360002093810020E82093C10CBBCF4091BE0C5C
:105370005091BF0CE0911F0DF091200D8F01009511
:105380001095B091140DC091C10C3091C00CA0913A
:10539000130D841B950B0817190708F458C0B21792
:1053A00010F036953C2B4E0F5F1F2F5F8E1B9F0B0F
:1053B000A21788F73093C00C80916F008B7F809389
:1053C0006F002091C00C30E08091120D02C0359525
:1053D00027958A95E2F72093C00C4091160D44233F
:1053E000D9F0922F092E92959025092E9695969593
:1053F00090259F5F91FB662760F981E090E0423045
:1054000009F080E08627817091E04091C10C411144
:1054100001C090E0891789F080911B0D8F5F803566
:1054200008F080E090911A0D981739F0E82FF0E01D
:10543000EE53F34F208380931B0D809181008F7B6F
:10544000809381001092C10C10921C0D72CF30938A
:10545000C00C5093BF0C4093BE0C20931C0D69CF21
:105460001F920F920FB60F9211240BB60F922F932B
:105470003F934F935F936F937F938F939F93AF93DC
:10548000BF93CF93DF93EF93FF938091190DE0913A
:10549000BD0C2091880030918900C0911F0DD091E2
:1054A000200DB091BC0C4091140D50E04F5F5F4F48
:1054B000A091160DF091BB0C8B3050F52C0F3D1FB9
:1054C0008930F0F49E2F9170E6958F5F8417150652
:1054D00019F48AE0A11189E0F91771F34091800075
:1054E000992399F0406C4093800030938900209379
:1054F00088009093BB0CE093BD0C8093190D20C0E5
:105500009B2F893011F391E0E0CF4F7B4068EBCFC8
:105510009091180DE091170D9E1334C08B3029F532
:105520008CE08093190D4091150D4C9FC0014D9F4B
:10553000900D1124280F391F309389002093880083
:10554000FF91EF91DF91CF91BF91AF919F918F919B
:105550007F916F915F914F913F912F910F900BBE73
:105560000F900FBE0F901F9018951092190D8091FB
:1055700080008F738093800080916F008D7F809377
:105580006F00DECFEF5FE43408F0E0E0E093170D4A
:10559000F0E0E958F34F90819093BD0C1092BB0C52
:1055A000AA23C9F0092E92959025092E96959695D5
:1055B00090259F5F91FB662760F970E041E050E025
:1055C000A23011F050E040E091E06417750709F057
:1055D00090E09093BC0C909180009F7B906890939A
:1055E00080008B3099F46091150D40911F0D509102
:1055F000200D649FC001659F900D1124280F391F55
:10560000309389002093880081E077CF80918400D7
:105610009091850040969093890080938800F4CF04
:1056200060E086E00E94128160E085E00C941281C7
:1056300062E086E00E94128161E085E00E943E7D8A
:1056400061E085E00C94128181110C94182B0C946C
:10565000102BBC0180E399E10C9457A5DC01149652
:105660006D917C9115976115710531F0ED91FC916B
:105670000680F781E02D09948DE897E10E94292B9F
:1056800090E080E00895CF92DF92EF92FF920F9327
:105690001F93CF93DF93EC016A017B018AA19BA149
:1056A000ACA1BDA1892B8A2B8B2B39F4E881F98120
:1056B0000084F185E02DCE010995E881F98102A4ED
:1056C000F3A5E02DCE010995882379F0B701A60155
:1056D000CE018C5B9F4FDF91CF911F910F91FF9077
:1056E000EF90DF90CF900C9403AE0E94A6810AA1A8
:1056F0001BA12CA13DA1601B710B820B930B098D8B
:105700001A8D2B8D3C8D601771078207930768F304
:1057100080E092E10E94292BE881F9810680F781DF
:10572000E02DCE0109958111D1CFDF91CF911F914D
:105730000F91FF90EF90DF90CF900895CF93DF937C
:10574000EB01BC0180E399E10E9413A560E280E3D4
:1057500099E10E9410A4CE01DF91CF910C94292BE6
:10576000CF93C62FBC0180E399E10E9433A560E28C
:1057700080E399E10E9410A46C2F70E080E399E12E
:10578000CF910C9472A6CF93DF93EC0168858DE6E0
:1057900097E10E94B02B8885DF91CF910895CF9338
:1057A000DF93EC0168858CEE99E00E94B02B888530
:1057B000DF91CF910895CF93DF9320EB33E0DC01AD
:1057C0002D933C93EC01C55ADF4F8E859F85009742
:1057D00039F0DC01ED91FC910280F381E02D099517
:1057E00088899989009749F0DC01ED91FC9102804C
:1057F000F381E02DDF91CF910994DF91CF9108954E
:10580000CF93DF93EC010E94DB2BCE01DF91CF9190
:105810000C945DD6089508950895CF93DF93EB011E
:10582000BC0180E399E10E9433A560E280E399E145
:105830000E9410A4BE0180E399E1DF91CF910C9406
:1058400028A6BC0180E399E10C9472A60895CF9339
:10585000DF93EB01BC0180E399E10E9433A560E294
:1058600080E399E10E9410A4CE01DF91CF910C94C6
:10587000212CBC0180E399E10C94E0A3CF93DF934A
:10588000EB01BC0180E399E10E9433A560E280E373
:1058900099E10E9410A4CE01DF91CF910C94392C94
:1058A000AF92BF92CF92DF92EF92FF920F931F932E
:1058B000CF93DF93CDB7DEB728970FB6F894DEBF4E
:1058C0000FBECDBFFC01AE014F5F5F4F88E0DA0134
:1058D0001D928A95E9F7DB0114960D911C91D12C4C
:1058E00030E020E0AAE0CA2EED2CF12CE016F10603
:1058F00008F049C0DB018D919C91009729F1D701F7
:10590000A80FB91F8C918E3201F52F5F3F4F2430C5
:105910003105A4F182E294E09183808312821382A4
:1059200014821582CF0128960FB6F894DEBF0FBE01
:10593000CDBFDF91CF911F910F91FF90EF90DF903E
:10594000CF90BF90AF90089580E090ED980F9A307F
:10595000B8F4D901AA0FBB1FA40FB51FAD90BC901E
:105960001197CA9C7001CB9CF00C1124082E000CDE
:10597000990BC0978E0D9F1D8D939C93D394B4CF9C
:1059800023303105D9F78F819D812B81398142E206
:1059900054E0518340833283238394838583C2CF31
:1059A000CF92DF92EF92FF920F931F93CF93DF93EB
:1059B000EC016B017A010C811D816AE874E0888139
:1059C00099810E940BA5B601888199810E9433A517
:1059D000B701888199810E946CA6B801888199815C
:1059E0000E940BA588819981DC01ED91FC910680D4
:1059F000F781E02D099562E070E080E090E0DF91B2
:105A0000CF911F910F91FF90EF90DF90CF900C946A
:105A10007381EF92FF920F931F93CF93DF93EC016B
:105A20007B010C811D816AE874E0888199810E9464
:105A30000BA5B701888199810E9433A5B80188819F
:105A400099810E940BA588819981DC01ED91FC91DF
:105A50000680F781E02D099562E070E080E090E03B
:105A6000DF91CF911F910F91FF90EF900C94738174
:105A70000F931F93CF93DF938C01FC01858596854F
:105A8000A785B089892B8A2B8B2B81F0838187FD99
:105A900041C00E94157D21E0892B09F420E081E0BE
:105AA000F8019481921789F180E02FC0C3850C2EF4
:105AB000000CDD0BFE01E85AF94D649170E090E0B6
:105AC00080E00E94FBDB0E9451DFFE01E85CF94DA3
:105AD000E491F0E0EE0FFF1FE558F04EA591B49170
