:100000000C941F110C9442160C9417160C94EC15BA
:100010000C9477150C9402150C948D140C941814F0
:100020000C9468880C9449110C9449110C94491152
:100030000C942B6D0C94A26D0C94E06C0C944911F3
:100040000C9449110C9449110C94309E0C94491154
:100050000C94766B0C944C6B0C9449110C944911D4
:100060000C9449110C9449110C94731C0C94491173
:100070000C94166B0C94EC6A0C9449110C94491175
:100080000C9449110C9449110C944911289D2B9DF5
:100090001E9D229D429D429D2F9D339D399D3D9DDC
:1000A00008000000BE922449123EABAAAA2ABECD87
:1000B000CCCC4C3E00000080BEABAAAAAA3E0000F9
:1000C0000000BF000000803F0000000000084178F1
:1000D000D3BB4387D1133D190E3CC3BD4282AD2B28
:1000E0003E68EC8276BED98FE1A93E4C80EFFFBE20
:1000F00001C4FF7F3F00000000004E414E494E49C1
:100100005459494E46CDCCCC3D0AD7233C17B7D1E4
:100110003877CC2B329595E6241FB14F0A0000208A
:10012000410000C84200401C4620BCBE4CCA1B0E09
:100130005AAEC59D7400407A10F35A00A0724E1852
:10014000090010A5D4E80000E87648170000E40B89
:1001500054020000CA9A3B000000E1F5050000804F
:10016000969800000040420F000000A086010000A9
:1001700000102700000000E80300000000640000F9
:100180000000000A00000000000100000000002C38
:1001900076D888DC674F0823DFC1DFAE59E1B1B7FD
:1001A00096E5E3E453C63AE651997696E8E6C284CA
:1001B00026EB898C9B62ED407C6FFCEFBC9C9F40E2
:1001C000F2BAA56FA5F490055A2AF75C936B6CF907
:1001D000676DC11BFCE0E40D47FEF520E6B500D0DD
:1001E000ED902E0300943577050080841E080000F2
:1001F000204E0A000000C80C333333330F986E12C0
:10020000831141EF8D2114893BE65516CFFEE6DBC5
:1002100018D1844B381BF77C1D901DA4BBE424200F
:100220003284725E228100C9F124ECA1E53D273DB4
:10023000005D00202050524F56494445525F4D4DBD
:100240005720555549447320286E6F6E6520756E92
:100250006C657373206C6973746564292C204D611F
:10026000783D000A2050524F56494445525F4D4D4B
:100270005720706F73744D61783D000A2050524FC3
:1002800056494445525F4D4D572074696D65725013
:100290006F737450616365286D73293D000A2050A7
:1002A000524F56494445525F4D4D572074696D6514
:1002B00072506F7374546F7574286D73293D000A02
:1002C0002050524F56494445525F4D4D572053617F
:1002D0006D706C696E6720466561747572653D006E
:1002E0000A2050524F56494445525F4D4D572052B7
:1002F000656720546F6B656E3D002050524F564924
:100300004445525F4D4D5720436C6F756449643DC1
:100310000046726F6D20656570726F6D2050726F50
:1003200076696465723A2050726F766964657220EE
:10033000547970653D002053656E644F6666736541
:1003400074286D696E293D000A0D20436F6C6C6541
:10035000637452656164696E67733D002057694636
:10036000695077643D000A205769466949643D0039
:100370000A2041504E3D0046726F6D2065657072D7
:100380006F6D204E6574776F726B3A204E6574778F
:100390006F726B20547970653D002020204C6F6394
:1003A0003D0062617474657279206D4168723D0030
:1003B0006261747465727920747970653D006D694D
:1003C0006E757465732C20547A3D005D0A0D2020F3
:1003D000206C6F6767696E6720696E7465727661FD
:1003E0006C3D0046726F6D20656570726F6D2063A5
:1003F0006F6D6D6F6E3A204C6F676765722046694E
:100400006C65204E616D655B005D005D20736E5B09
:10041000005D20207265765B0046726F6D20656519
:1004200070726F6D20626F6F74204E616D655B003E
:10043000302E3562004D313233343536373839613C
:100440006263646566676800656E7669726F4449C9
:1004500059206D6179666C7900506172736520690D
:100460006E693B204E6F2066696C652000436F6D9E
:10047000706C657465642E004572726F72206F6EC9
:10048000206C696E65203A00506172736520696E58
:10049000693B2000536561726368206572726F72F8
:1004A0002120627265616B206F7574206F66206C0D
:1004B0006F6F70002D3E0050524F56494445525FB9
:1004C00078780050524F56494445525F4D4D572061
:1004D00074696D6572506F737420506163696E67E3
:1004E000286D73290050524F56494445525F4D4D77
:1004F000572074696D6572506F737420546F7574F2
:10050000286D73290050524F56494445525F4D4D56
:10051000572053616D70696E67204665617475720E
:10052000650050524F56494445525F4D4D57205239
:100530006567697374726174696F6E20546F6B655F
:100540006E0050524F56494445525F4D4D5720431F
:100550006C6F75644964004E4554574F524B20737D
:10056000656E644F66667365745F6D696E004E45B7
:1005700054574F524B20436F6C6C656374526561E6
:1005800064696E677300272C206E6F772073657423
:1005900020746F2027004E4554574F524B20415036
:1005A0004E20776173202700434F4D4D4F4E204220
:1005B000617474657279206D4168723A2000434F0E
:1005C0004D4D4F4E2042617474657279205479709C
:1005D000653A2000434F4D4D4F4E204C6F67676981
:1005E0006E74657276616C3A2000434F4D4D4F4EEC
:1005F000204C6F676765724964205365743A200028
:1006000073657474696E6720746F20275F272C20D0
:10061000666F756E6420004572726F722021616C86
:100620006E756D206C6F676765722066696C6520FA
:10063000706F730056005620474F4F443D005620C0
:100640004D454449554D3D0056204C4F573D0020E7
:100650005468726573686F6C6473205553454142EA
:100660004C453D004261747465727920547970651F
:100670003D0050757474696E67206D6F64656D2000
:10068000746F20736C65657000436F756C64206EC9
:100690006F742077616B65206D6F64656D20666F88
:1006A0007220636C6F636B2073796E632E00436FEF
:1006B000756C64206E6F7420636F6E6E656374205A
:1006C000746F20696E7465726E657420666F722037
:1006D000636C6F636B2073796E632E00546869736B
:1006E000206D61792074616B6520757020746F20B6
:1006F00074776F206D696E75746573210041747431
:10070000656D7074696E6720746F20636F6E6E65BF
:10071000637420746F2074686520696E7465726EEE
:10072000657420616E642073796E6368726F6E69A0
:100730007A65205254432077697468204E49535497
:1007400000446174612077696C6C2062652073617C
:1007500076656420617300556E61626C6520746F0C
:100760002063726561746520612066696C65207420
:100770006F2073617665206461746120746F21005D
:1007800053657474696E672075702066696C6520A6
:100790006F6E2053442063617264005354433331BD
:1007A000303020646961676E6F73746963207365AC
:1007B00074205220746F206D4F686D732000535465
:1007C000433331303020736E3A0053657474696E70
:1007D000672075702073656E736F72732E2E2E00F6
:1007E0004C6F63616C2054696D6520002D2D2D7058
:1007F00061727365496E6920636F6D706C657465B5
:100800000A002D2D2D7061727365496E6920537435
:10081000617274004261745620476F6F64203D001E
:10082000535443333130307320426174562F6C700F
:100830002F636E747200535443333130307320642D
:10084000657465637465642E0054696E7947534D11
:10085000204C6962726172792076657273696F6E7D
:1008600020004D6F64756C617253656E736F7273A7
:100870002076657273696F6E20005377204E616D2C
:10088000653A20000A2D2D2D426F6F742E2053776C
:10089000204275696C643A20002C002C3078002CC2
:1008A00020002C206D41683D2C002C206D413D2CFA
:1008B0000020563D2C0054696D65207365742074CA
:1008C0006F200020657870656374206174206C650A
:1008D000617374203131206368617273203A27009C
:1008E0006461746520696E76616C69642C20676F41
:1008F00074004C6F63616C2054696D6520000A645C
:1009000079796D6D64643A68686D6D3C63723E2000
:10091000746F2073657420646174652F74696D65EC
:100920000A643F3C63723E20746F207072696E747B
:100930002063757272656E7420646174652F7469CA
:100940006D650A3F3C63723E20666F722074686971
:10095000732068656C700A00736563732E2052659E
:100960007475726E696E6720746F206E6F726D6140
:100970006C206C6F6767696E672E0020546F6F6B19
:1009800020746F6F206C6F6E672C206E656564201D
:10099000746F20636F6D706C65746520776974681F
:1009A000696E2000736563732E2052657475726ED4
:1009B000696E6720746F206E6F726D616C206C6F52
:1009C0006767696E672E00204E6F206B6579626FD6
:1009D00061726420616374697669747920666F72EC
:1009E0000073656373290020456E74657220636D22
:1009F000643A203F3C43523E20666F722068656C2B
:100A0000702E286E6565642061206B657920746F97
:100A1000206265207479706564206576657279203E
:100A2000006D696E2C0040000A0A000001020304F8
:100A3000050607000102030405060700010203047E
:100A400005060700010203040506074552524F52EE
:100A5000004C4100544D00544D3000544D00414D68
:100A60003000465200414D310041503000414D3080
:100A700000414900000000000403080700000001D5
:100A80000200090A00000000000000000000000051
:100A90000000000027006465737A714E6578744326
:100AA0006820316572726F723A006D532054696D1F
:100AB000656F75740077616974656420002D2D2061
:100AC000526573706F6E736520436F6465202D2DC2
:100AD000000A202D2D20556E61626C6520746F20F8
:100AE00045737461626C69736820436F6E6E6563F1
:100AF00074696F6E20746F20456E7669726F444919
:100B000059204461746120506F7274616C202D2DE6
:100B1000004932435F30783638004354363400475A
:100B2000543634004552524F520D004F4B0D004188
:100B30005030004349007365727A5264656C5F4CB3
:100B4000696E653B204E6F2066696C65002D2D2D0A
:100B50006C6F6744617461416E6450756252656C7C
:100B60006961626C792020436F6D706C6574652DCE
:100B70002D2D2D2D2D2D2D2D2D006C6F6744617485
:100B800061416E6450756252656C6961626C792076
:100B90002D2073746F72652072656164696E67736E
:100BA0002C206E6F20707562004661696C65642050
:100BB000746F2077616B652000436F6E6E656374A0
:100BC00020746F2074686520696E7465726E657438
:100BD000206661696C6564207769746800436F6E94
:100BE0006E656374696E6720746F20746865204950
:100BF0006E7465726E657420776974680052656101
:100C0000642073656E736F72732E2E2E00292D2D46
:100C10002D2D002D2D2D6C6F6744617461416E6424
:100C200050756252656C6961626C79202830780079
:100C30006C6F6744617461416E6450756252656C9B
:100C40006961626C79202D2074782063616E636520
:100C50006C6C6564006C6F6744617461416E6450D4
:100C6000756252656C6961626C79202D20616C6CD3
:100C70002063616E63656C6C6564006C6F674461D2
:100C80007461416E6450756252656C6961626C7921
:100C9000202D206F766572696465207769746820FD
:100CA000007365744654547A2065727220666F72C0
:100CB00020007365727A426567696E2065727220E2
:100CC00072656D6F76650064655352432072656D81
:100CD0006F766520657272007365727A4265676926
:100CE0006E2065727220636C6F7365006465535289
:100CF0004320636C6F7365206572720064655253A4
:100D00003B204E6F2066696C6520007365727A51D6
:100D10007565645374617274206F70656E206572BE
:100D200072007365632E2051756575656420726568
:100D30006164696E67733D0072656164696E6773B3
:100D400020696E0053656E74007075624451545290
:100D5000207365727A5175656446696C206572729C
:100D6000005D000A707562445154522053656E64F0
:100D7000696E67206461746120746F205B00506944
:100D80006E00255600545000414D00414D00414D2C
:100D90003000414E004357004355004D4E0044691A
:100DA00067692058626565332073657475702066C5
:100DB00061696C656421005D0058626565574C543B
:100DC0004520495023205B00586265654C544520FE
:100DD0006E6F74207265636569766564204950237F
:100DE000202D686F706520697420776F726B732097
:100DF0006E6578742074696D65005D2027006D64F0
:100E00006D49505B004D59004D5900446967692098
:100E1000586265653320736574757020537563651A
:100E200073732E20526567697374726174696F6E93
:100E3000202700547279202B435245472027002B4E
:100E400043524547004149004C6F6F703D53656305
:100E50005D207278206462203A2053746174757347
:100E60002027204F70657261746F722027202350F5
:100E70006F6C6C65642043656C6C20537461747591
:100E80007320657665727920317365630041503057
:100E900000544D005031005444304100444F005341
:100EA0004F00534D00503000443500443700443962
:100EB00000443800467756657200487756657200E0
:100EC000494D454920004C746520696E7465726E09
:100ED000657420636F6D6D73207769746800565276
:100EE00000485600494D00008080805D52544320E8
:100EF000416C61726D2073657420666F7220657637
:100F0000657279206D696E7574652E205265672053
:100F1000636865636B20776173203078000A2E2E3A
:100F20002E207A7A7A5A5A204177616B65204000E8
:100F30002920205A5A7A7A7A2E2E2E00476F696E0F
:100F40006720746F20736C6565702E2052616D2868
:100F5000004D4355206E6F7420456E61626C656470
:100F60002C5573652061206E6F6E2D6E6567617400
:100F70006976652077616B652070696E20746F20DB
:100F80007265717565737420736C656570210020DE
:100F900046775665722000204877566572200020FB
:100FA000536E20000020666F7220002700272073F8
:100FB0006E3A2700207265763A2700426F617264AC
:100FC0003A20004D6F64756C617253656E736F7279
:100FD00073207665727320002E2053772042756946
:100FE0006C643A20005377204E616D653A200020F2
:100FF0002042617474657279547970653A200020DA
:10100000547A3A200020204C6F6767696E67496EFA
:1010100074657276616C20286D696E293A20004CE7
:101020006F636174696F6E3A2000004461746520DB
:10103000616E642054696D6520696E2055544300CB
:10104000526573756C7420555549443A0052657366
:10105000756C7420556E69743A00566172696162EC
:101060006C65204E616D653A0053656E736F72203A
:101070004E616D653A0053616D706C696E67204614
:1010800065617475726520555549443A2000446184
:101090007461204C6F676765722046696C653A2001
:1010A0000044617461204C6F676765723A200027C5
:1010B000006465737A4C696E652072656164756E53
:1010C00067207374617274206E6F7420666F756E22
:1010D000640027006465737A4C696E652045706F03
:1010E000636820657272270027006465737A4C6913
:1010F0006E652065706F6368207374617274206E12
:101100006F7420666F756E640027006465737A4C97
:10111000696E65205374617475732065727227005F
:101120007365514346207365727A517565644669EB
:101130006C652E636C6F7365322065727200736527
:10114000514346207467746F757446696C652E63ED
:101150006C6F736531206572720073655143462070
:1011600051756520666F72206E65787420706173AA
:101170007320756E73656E74207265636F7264732D
:10118000007365514346207467746F757446696CCB
:1011900065207772697465332065727200736551DA
:1011A0004346207467746F757446696C6520777266
:1011B0006974653120657272007365514346206F12
:1011C00070656E32206572720073655143462072FD
:1011D000656E616D653120657272007365514346BD
:1011E00020657272362072656D6F76650073655189
:1011F00043462072656D6F766531206572720065B9
:1012000072726F723A20002C30580053644572722B
:101210006F723A20305800436865636B2053442056
:10122000666F726D61742E007365636F6E647320F8
:101230006F66204E4953542E00496E7465726E617C
:101240006C20436C6F636B2077697468696E200053
:10125000496E7465726E616C20436C6F636B2073B2
:10126000657420004261642074696D657374616DFA
:10127000702C206E6F742073657474696E672063C0
:101280006C6F636B2E001F1C1F1E1F1E1F1F1E1F57
:101290001E1F4442004C4D004D5900000020002309
:1012A00000260029000404040404040404020202C9
:1012B0000202020202030303030303030301010109
:1012C0000101010101010204081020408001020413
:1012D0000810204080010204081020408001020410
:1012E00008102040804552524F520D004F4B0D00C8
:1012F000414D31004552524F52004F4400544D0071
:10130000544D00444500444C004950005F50696E04
:101310000053444931322D006D6561737572656DFE
:10132000656E747321210054686973206469666670
:101330006572732066726F6D207468652073656EC8
:10134000736F722773207374616E646172642064BA
:10135000657369676E206F6600726573756C747370
:101360002065787065637465640053444931325375
:10137000656E736F72733A3A676574526573756C14
:10138000747332204552524F522073656E736F72E0
:1013900020746F6F6B20746F6F206C6F6E6720749A
:1013A0006F2073656E642064617461005344493139
:1013B0003253656E736F72733A3A67657452657330
:1013C000756C747331204552524F522077616974A5
:1013D000696E6720666F7220726573706F6E7365D9
:1013E0000020536E2000205344493132205665724C
:1013F00073696F6E20746264005344492053656EB4
:10140000736F722000204932435F307800525334AA
:1014100038352057696E67626F6172642053544398
:101420003331303020536E20006461746150756236
:101430006C69736865724261736520736574517578
:10144000656420636865636B004552524F522120EA
:101450004E6F2077656220636C69656E74206173DE
:101460007369676E656420746F207075626C697350
:1014700068206461746121002B2B2B0041430057CD
:101480005200434E00485300485300454550524FC8
:101490004D2057726974652066696E69736865646A
:1014A000002900414354494F4E205772697465200A
:1014B00061707020454550524F4D207374617274B5
:1014C000656428007D206E6F7420737570706F7274
:1014D000746564007D206D6174636820202620613E
:1014E000646465642E003D7B003D005D20004E6F0E
:1014F0007420737570706F72746564205B00414373
:1015000054494F4E2057726974652061626F72743E
:1015100065642E20696E737472756374696F6E20D2
:101520002700414354494F4E20434F5059206E6F7E
:101530007420737570706F72746564207965743A85
:1015400000434F50590057524954450041435449B4
:101550004F4E00555345520020746F2000424F4FAC
:1015600054207462642000454550524F4D205772FC
:101570006974652061626F727465642E20696E7390
:101580007472756374696F6E202700414354494F2C
:101590004E2044454641554C5420617070204545CD
:1015A00050524F4D0044454641554C545F415050B8
:1015B0005F454550524F4D00454550524F4D2057C5
:1015C000726974652066696E697368656400454573
:1015D00050524F4D20577269746520737461727454
:1015E00065643A0059455300454550524F4D5F5789
:1015F0005249544500426F617264205265763A0048
:10160000424F4152445F52455600426F617264201E
:1016100053657269616C4E756D203A00424F4152BC
:10162000445F534E00426F617264204E616D653AB3
:1016300000424F4152445F4E414D4500424F4F548E
:101640000020746F20004E4554574F524B20746257
:10165000642000434F4D4D4F4E2053657420534539
:101660004E445F4F46465345545F4D494E20657288
:10167000726F723B202872616E67652030203A20BD
:1016800033302920726561643A0053454E445F4F00
:1016900046465345545F4D494E00434F4D4D4F4EC6
:1016A0002053657420434F4C4C4543545F52454191
:1016B00044494E4753206572726F723B2028726115
:1016C0006E67652030203A203330292072656164CE
:1016D0003A00434F4C4C4543545F52454144494EB8
:1016E00047530061706E004E4554574F524B0020D7
:1016F000746F200053454E534F5253207462642040
:101700000053454E534F52530020746F2000434FF7
:101710004D4D4F4E20746264200047454F47524163
:1017200050484943414C5F49443A0047454F47526E
:101730004150484943414C5F494400434F4D4D4F50
:101740004E205365742054696D655A6F6E6520652F
:1017500072726F723B202872616E6765202D313284
:10176000203A202B31322920726561643A005449B5
:101770004D455F5A4F4E45002920726561643A001D
:1017800020536574204C69496F6E20547970652030
:101790006572726F723B202872616E676520302D12
:1017A0000020737570657273656465642075736578
:1017B00020424154544552595F5459504500434FBB
:1017C0004D4D4F4E204C69496F6E20547970653AEB
:1017D00020004C49494F4E5F545950450029207212
:1017E0006561643A00205365742042415454455267
:1017F000595F54595045206572726F723B202872B0
:10180000616E6765203C00424154544552595F5413
:101810005950450020536574204241545445525953
:101820005F6D41687220002920726561643A002072
:1018300053657420424154544552595F6D4168725A
:10184000206572726F723B202872616E6765203E60
:101850003D302026203C00424154544552595F6D92
:101860004168720029207769746820726561643A62
:10187000002053657420696E74657276616C206512
:1018800072726F72202872616E67653A20312D0086
:10189000286D696E292066726F6D206465666175BA
:1018A0006C742000434F4D4D4F4E204C4F474749DD
:1018B0004E475F494E54455256414C5F4D494E5537
:1018C0005445532073657420746F3A20002055737B
:1018D000696E67204D61782E2052656164696E677C
:1018E0002069676E6F7265642000434F4D4D4F4E07
:1018F000204C4F4747494E475F494E544552564149
:101900004C5F4D494E55544553206D75737420629C
:1019100065206C657373207468616E203A20004CFA
:101920004F4747494E475F494E54455256414C5FD9
:101930004D494E55544553004C4F474745525F491A
:101940004400434F4D4D4F4E0050524F5649444571
:10195000525F554249444F54530050524F564944E8
:1019600045525F5453005D20726561643A005052E5
:101970004F56494445525F4D4D5720536574205092
:101980004F53545F4D41585F4E554D206572726FF5
:10199000723B2072616E67655B00504F53545F4D20
:1019A00041585F4E554D005D20726561643A0050AC
:1019B000524F56494445525F4D4D57205365742050
:1019C00054494D45525F504F53545F504143455F1A
:1019D0004D53206572726F723B202872616E67658D
:1019E000200054494D45525F504F53545F5041437E
:1019F000455F4D53005D20726561643A0050524F5F
:101A000056494445525F4D4D572053657420544903
:101A10004D45525F504F53545F544F55545F4D5393
:101A2000206572726F723B202872616E6765205B61
:101A30000054494D45525F504F53545F544F5554D5
:101A40005F4D530053414D504C494E475F46454111
:101A50005455524500524547495354524154494FF9
:101A60004E5F544F4B454E00434C4F55445F4944E5
:101A70000050524F56494445525F4D4D57007469CE
:101A80006D6573206265666F72652074686520728B
:101A9000657365742E0073656320776974682074BC
:101AA000686520696E7465727275707420666972FB
:101AB000696E670057617463682D646F672074698D
:101AC0006D656F75742069732073657420666F721D
:101AD000002D3E00416C6C207661726961626C651C
:101AE00020555549442773206170706561722074D8
:101AF0006F20626520636F72726563746C79206613
:101B00006F726D65642E0A006861732061206E6FCC
:101B10006E2D756E697175652055554944210068B3
:101B2000617320616E20696E76616C696420555521
:101B3000494421004C6F6767657220706F72746949
:101B40006F6E206F662073657475702066696E69AC
:101B5000736865642E0A0053616D706C696E67204E
:101B60006665617475726520555549442069733AFC
:101B7000006172652063616C63756C617465642ECD
:101B80000073656E736F727320616E6400636F6DB6
:101B9000652066726F6D007661726961626C657353
:101BA0002C206F6620776869636800546869732029
:101BB0006C6F67676572206861732061207661725F
:101BC0006961626C652061727261792077697468FD
:101BD0000043757272656E74205254432074696DAF
:101BE000652069733A002D2D2D4C6F67546F534457
:101BF00020436F6D706C6574650A002D2D2D2D2DA1
:101C00002D2D2D2D2D2D2D2D2D2D2D2D2D2D2D2D04
:101C10002D2D2D2D2D2D2D2D2D2D2D2D2D2D2D2DF4
:101C20002D2D2D2D2D004E6F6E6500646174615059
:101C300075626C69736865724261736520675153A0
:101C400020636865636B004261642074696D652080
:101C5000003A3030003A3030003A3030003A30301C
:101C60000021212121212121212121212121212185
:101C70002121212121202D2D2D2D2D205741524E66
:101C8000494E47202D2D2D2D2D20002121212121B0
:101C90002121212121202D2D2D2D2D205741524E46
:101CA000494E47202D2D2D2D2D202121212121216F
:101CB00021212121002D2D2D2D2D205741524E491E
:101CC0004E47202D2D2D2D2D202121212121212177
:101CD000212121212121212121212121210054689B
:101CE000652063757272656E7420636C6F636B2020
:101CF00074696D657374616D70206973206E6F74A3
:101D00002076616C6964210021212121212121217A
:101D1000212121212121212121212121202D2D2D90
:101D20002D2D205741524E494E47202D2D2D2D2D22
:101D3000200021212121212121212121202D2D2D92
:101D40002D2D205741524E494E47202D2D2D2D2D02
:101D50002021212121212121212121002D2D2D2D65
:101D60002D205741524E494E47202D2D2D2D2D20EF
:101D70002121212121212121212121212121212153
:101D800021212121000074696D6573206265666FF1
:101D90007265207468652073797374656D2072654F
:101DA000736574732E005761746368646F672045B0
:101DB0006E61626C65642C20496E74657272757018
:101DC000742077696C6C2066697265005761746372
:101DD00068646F672064697361626C65642E206259
:101DE00061726B73556E74696C5265736574002013
:101DF0006578706563746564002E2E2E20576174BB
:101E00006368646F67206C6F77206261726B7355D3
:101E10006E74696C52657365740020574154434871
:101E2000444F4720495352206261726B73556E7460
:101E3000696C526573657400202A2A2A2A2057414A
:101E4000544348444F4720576F6F6620576F6F6663
:101E50002E205265736574696E672050726F6365DA
:101E600073736F722A2A2A00002D2D2D2D5C2F00EE
:101E70000A205C2F2D2D2D2D204C696E652053617D
:101E800076656420746F00556E61626C6520746FB6
:101E900020777269746520746F20534420636172E7
:101EA00064210020002069732000207265706F7229
:101EB0007473200020002069732063616C63756C6B
:101EC0006174656420746F20626520002D2D2D2DB6
:101ED0002D2D2D2D2D2D2D2D2D2D2D2D2D2D2D2D32
:101EE0002D2D2D2D2D2D2D2D2D2D2D2D2D2D2D2D22
:101EF0002D2D2D2D2D2D0045786974696E67207468
:101F0000657374696E67206D6F6465002D2D2D2DCE
:101F10002D2D2D2D2D2D2D2D2D2D2D2D2D2D2D2DF1
:101F20002D2D2D002D2D2D2D2D2D2D2D2D2D2D2D0E
:101F30002D2D2D2D2D2D2D2D2D2D2D004375727216
:101F4000656E74206C6F676765722074696D6520BB
:101F50006973002D2D2D2D2D2D2D2D2D2D2D2D2D5C
:101F60002D2D2D2D2D2D2D2D2D2D2D2D2D2D2D2DA1
:101F70002D2D2D2D2D2D2D2D2D2D2D2D2D00456E65
:101F8000746572696E672073656E736F7220746515
:101F90007374696E67206D6F6465002D2D2D2D2D76
:101FA0002D2D2D2D2D2D2D2D2D2D2D2D2D2D2D2D61
:101FB0002D2D2D2D2D2D2D2D2D2D2D2D2D2D2D2D51
:101FC0002D2D2D2D2D00666F720065787065637460
:101FD000004552524F5220696E6920706172616DE6
:101FE00020746F6F206C6F6E672C20676F740044D5
:101FF0006174612077696C6C206E6F74206265205B
:1020000073617665642100536C6176652F4368695E
:10201000702073656C6563742070696E20666F72E2
:10202000205344206361726420686173206E6F7472
:10203000206265656E207365742E004461746120B2
:1020400077696C6C206E6F742062652073617665B1
:102050006421004572726F723A20534420636172AA
:1020600064206661696C656420746F20696E6974B0
:1020700069616C697A65206F72206973206D69737C
:1020800073696E672E004E4F4E45004E4F4E450011
:102090004E4F4E45004E4F4E45004E4F4E45004E62
:1020A0004F4E45004E4F4E45004E4F4E45004E4F51
:1020B0004E45004E4F4E4500574946495057445FE4
:1020C0004E4F4E45005749464949445F4E4F4E4595
:1020D0000041504E5F4E4F4E4500466163746F7233
:1020E000792064656661756C74006D734C6F673040
:1020F00031002D2D2D4C425F5057525F55534541B5
:10210000424C455F5245512043414E43454C4C455E
:10211000442D2D4C626174743D002D2D2D4C425F79
:102120005057525F4D4F44454D5F5553455F5245A3
:10213000512043414E43454C4C45442D2D4C62614A
:1021400074743D002D2D2D4C425F5057525F534506
:102150004E534F525F5553455F5245512043414EB8
:1021600043454C4C45442D2D4C626174743D002D0B
:102170002D2D74755F787830313A57616B657570C5
:1021800020636865636B20706F7765722E205072D4
:10219000657373207573657220627574746F6E2039
:1021A000746F20627970617373003A2042617456D3
:1021B000204C6F77203D004261745F562873746332
:1021C0003331303029006261747465727943686517
:1021D000636B207265712F776169742F737263006E
:1021E0004E4953542054696D65207365727665724B
:1021F00020646964206E6F7420726573706F6E6402
:1022000021006D73004E49535420726573706F6ED8
:10221000646564206166746572005D20436F6E6E54
:10222000656374200000002100240027002A0000BC
:10223000002200250028002B000037AB07B4112432
:102240001FBECFEFD0E4DEBFCDBF19E0A0E0B1E00C
:10225000E0E3F3E801E00BBF02C007900D92A43E5B
:10226000B107D9F721E2A4EEB9E001C01D92AE3B5F
:10227000B207E1F711E1CEE1D1E104C02197FE01FF
:102280000E942ABECD31D107C9F70E947A9E0C94D4
:102290008BC10C940000DC01ED91FC910688F7895C
:1022A000E02D099591E0811101C090E0892F0895FA
:1022B0000F931F93CF93DF9300D000D000D0CDB702
:1022C000DEB78C01DC01ED91FC910084F185E02DFD
:1022D0000995892BC9F41B821C821D821E82D8019C
:1022E0001C96ED91FC911D974585568567857089F3
:1022F0008B819C81AD81BE81481759076A077B0796
:1023000029F0F801858903C081E001C080E02696AC
:102310000FB6F894DEBF0FBECDBFDF91CF911F91F6
:102320000F910895DC011C96ED91FC911D97808121
:102330009181DC01ED91FC910680F781E02D0994FB
:10234000DC011C96ED91FC911D9780819181DC014F
:10235000ED91FC910484F585E02D0994CF93DF93F2
:102360001F92CDB7DEB76983DC01ED91FC9102804D
:10237000F381E02D41E050E0BE016F5F7F4F099592
:102380000F90DF91CF9108950F931F93CF93DF9319
:1023900000D000D000D0CDB7DEB7DC01ED91FC91CC
:1023A000048CF58DE02D2DE433E03A832983DB01A5
:1023B00012960D911D912D913C9115970B831C83C5
:1023C0002D833E8320E030E0BE016F5F7F4F099593
:1023D00026960FB6F894DEBF0FBECDBFDF91CF912A
:1023E0001F910F910895DC01ED91FC91028CF38D0A
:1023F000E02D2BE430E00994809150218111FCCF35
:102400000895809109218F5F843408F080E09091D5
:1024100008219817E1F32FB7F89490915021992350
:1024200041F0E82FF0E0E65FFE4D608380930921E4
:102430001DC081E08093502160934F2110924E2166
:1024400082E086BB80916F00826080936F008091F4
:1024500080008F7B806880938000809184009091C1
:102460008500409690938900809388002FBF81E07B
:1024700090E0089580E090E00895CF93DF93EC0121
:1024800062E070E080E090E00E94EA9DEC85FD85CE
:1024900080819181DC01ED91FC910284F385E02D36
:1024A000DF91CF910994CF93DF93EC0162E070E06C
:1024B00080E090E00E94EA9DEC85FD85808191811D
:1024C000DC01ED91FC910084F185E02DDF91CF914D
:1024D0000994CF92DF92EF92FF920F931F93CF93C5
:1024E000DF938C01D62FC72F6A0162E070E080E095
:1024F00090E00E94EA9DD8011C96ED91FC911D97F9
:10250000E080F1800D2F1C2FC0E0D0E0CC16DD065E
:1025100051F0C7010E94566997FD05C0F8018193EB
:102520008F012196F3CFCE01DF91CF911F910F91B3
:10253000FF90EF90DF90CF900895EF92FF920F936E
:102540001F93CF93DF93EC018B017A0162E070E07F
:1025500080E090E00E94EA9DA701B8018C859D85EE
:10256000DF91CF911F910F91FF90EF900C946564D4
:10257000CF92DF92EF92FF920F931F93CF93DF934F
:1025800000D000D000D0CDB7DEB78C016B017A014E
:10259000FC01848595850E945B9BF80126858DE46E
:1025A00093E09A838983F60182819381A481B58126
:1025B0008B839C83AD83BE83A701BE016F5F7F4F7A
:1025C000F801848595850E94EE60F801858B90E086
:1025D00026960FB6F894DEBF0FBECDBFDF91CF9128
:1025E0001F910F91FF90EF90DF90CF9008958F9201
:1025F0009F92AF92BF92FF920F931F93CF93DF935F
:10260000EC01FBA0FF2021F08BA1882331F008C052
:1026100065E00E940D748111F7CF84E090E0FEC068
:1026200088859985892B19F4CE010E94E17461E7B0
:102630007AE0CE010E94A99840E157E260E070E0A4
:10264000CE010E949074288539852130364009F0EA
:10265000A8C08332910509F4D7C05CF4833091059A
:102660002CF4813091050CF4A6C0B9C0439789F0D1
:10267000C9C0833491050CF0AFC0803491050CF0D3
:10268000AEC08432910509F4ACC0879709F4A9C0A3
:10269000B9C065E0CE010E940D74882309F4B4C06E
:1026A00088859985892B19F4CE010E94E17488856B
:1026B000998581309640B9F065E67AE0CE010E94B6
:1026C000A99844E25BE06BE27BE0CE010E94154CEE
:1026D000813021F0CE010E94D77396C0CE010E94B6
:1026E000E9738823B9F362E67AE0CE010E94A998E3
:1026F00044E25BE06BE27BE0CE010E94154C81304E
:1027000049F71BA2888599858130964029F460EDB0
:1027100077E080E090E004C064E670E080E090E064
:102720000E94EA9D0E94249E4B015C010E94249E0F
:10273000DC01CB0188199909AA09BB0980369A4E98
:10274000A105B10568F461E0CE010E940D7481110C
:1027500007C06AEF70E080E090E00E94EA9DE6CF5B
:102760008885998581309640A9F06EE57AE0CE01A2
:102770000E94A99844E25BE06BE27BE0CE010E94FC
:10278000154C813009F0A6CFCE010E94E973882351
:1027900009F4A0CFCE010E94D773CE010E94AD27CD
:1027A00033C085329105E9F04CF48432910554F53B
:1027B00082329105A4F4892B49F124C08D32910510
:1027C00044F48B329105F4F48A97E1F46DE67AE0F3
:1027D0000CC08F32910539F08F3F910599F402E0DA
:1027E00016C003E014C069E67AE0CE010E94A99801
:1027F00044E25BE06BE27BE0CE010E94154CCE012F
:102800000E94E97304E003C001E001C000E010E0B1
:10281000F11003C0CE010E94D773C801DF91CF91A0
:102820001F910F91FF90BF90AF909F908F90089550
:102830001F920F920FB60F9211240BB60F922F9387
:102840003F934F935F936F937F938F939F93AF9338
:10285000BF93CF93EF93FF9329B1C091F51C809163
:10286000F41C9091F31C322F309593238223892BF3
:1028700090917300C227C923C8232093F51CCC2351
:10288000C1F1C0FF05C0E091E31CF091E41C099583
:10289000C1FF05C0E091E51CF091E61C0995C2FF5F
:1028A00005C0E091E71CF091E81C0995C3FF05C045
:1028B000E091E91CF091EA1C0995C4FF05C0E09184
:1028C000EB1CF091EC1C0995C5FF05C0E091ED1CD7
:1028D000F091EE1C0995C6FF05C0E091EF1CF09148
:1028E000F01C0995C7FF05C0E091F11CF091F21CA6
:1028F0000995FF91EF91CF91BF91AF919F918F91EA
:102900007F916F915F914F913F912F910F900BBEEF
:102910000F900FBE0F901F9018951F920F920FB639
:102920000F9211240BB60F922F933F934F935F9307
:102930006F937F938F939F93AF93BF93CF93EF93B7
:10294000FF9326B1C091E21C8091101E90910F1E42
:10295000322F309593238223892B90916D00C227CB
:10296000C923C8232093E21CCC23C1F1C0FF05C0BA
:10297000E091D21CF091D31C0995C1FF05C0E091F4
:10298000D41CF091D51C0995C2FF05C0E091D61C5E
:10299000F091D71C0995C3FF05C0E091D81CF091B8
:1029A000D91C0995C4FF05C0E091DA1CF091DB1C2D
:1029B0000995C5FF05C0E091DC1CF091DD1C09956F
:1029C000C6FF05C0E091DE1CF091DF1C0995C7FF32
:1029D00005C0E091E01CF091E11C0995FF91EF9199
:1029E000CF91BF91AF919F918F917F916F915F91A7
:1029F0004F913F912F910F900BBE0F900FBE0F90F4
:102A00001F9018951F920F920FB60F9211240BB6BC
:102A10000F922F933F934F935F936F937F938F9377
:102A20009F93AF93BF93CF93EF93FF9323B1C09145
:102A3000D11C8091121E9091111E322F309593233C
:102A40008223892B90916C00C227C923C82320932D
:102A5000D11CCC23C1F1C0FF05C0E091C11CF09195
:102A6000C21C0995C1FF05C0E091C31CF091C41CB4
:102A70000995C2FF05C0E091C51CF091C61C0995DF
:102A8000C3FF05C0E091C71CF091C81C0995C4FFA5
:102A900005C0E091C91CF091CA1C0995C5FF05C08D
:102AA000E091CB1CF091CC1C0995C6FF05C0E091CC
:102AB000CD1CF091CE1C0995C7FF05C0E091CF1C3D
:102AC000F091D01C0995FF91EF91CF91BF91AF91FB
:102AD0009F918F917F916F915F914F913F912F9136
:102AE0000F900BBE0F900FBE0F901F9018951F9266
:102AF0000F920FB60F9211240BB60F922F933F93A4
:102B00004F935F936F937F938F939F93AF93BF93F5
:102B1000CF93EF93FF9320B1C091C01C8091141EFE
:102B20009091131E322F309593238223892B9091FD
:102B30006B00C227C923C8232093C01CCC23C1F13A
:102B4000C0FF05C0E091B01CF091B11C0995C1FF18
:102B500005C0E091B21CF091B31C0995C2FF05C0FD
:102B6000E091B41CF091B51C0995C3FF05C0E0913C
:102B7000B61CF091B71C0995C4FF05C0E091B81CC4
:102B8000F091B91C0995C5FF05C0E091BA1CF09100
:102B9000BB1C0995C6FF05C0E091BC1CF091BD1C93
:102BA0000995C7FF05C0E091BE1CF091BF1C0995B7
:102BB000FF91EF91CF91BF91AF919F918F917F91B5
:102BC0006F915F914F913F912F910F900BBE0F909E
:102BD0000FBE0F901F9018951F920F920FB60F9275
:102BE00011240BB60F922F933F934F935F936F93E4
:102BF0007F938F939F93AF93BF93EF93FF93E09156
:102C0000AE1CF091AF1C0995FF91EF91BF91AF9170
:102C10009F918F917F916F915F914F913F912F91F4
:102C20000F900BBE0F900FBE0F901F9018951F9224
:102C30000F920FB60F9211240BB60F922F933F9362
:102C40004F935F936F937F938F939F93AF93BF93B4
:102C5000EF93FF93E091AC1CF091AD1C0995FF91AF
:102C6000EF91BF91AF919F918F917F916F915F9104
:102C70004F913F912F910F900BBE0F900FBE0F9071
:102C80001F9018951F920F920FB60F9211240BB63A
:102C90000F922F933F934F935F936F937F938F93F5
:102CA0009F93AF93BF93EF93FF93E091AA1CF09192
:102CB000AB1C0995FF91EF91BF91AF919F918F91BF
:102CC0007F916F915F914F913F912F910F900BBE2C
:102CD0000F900FBE0F901F901895542FE82FEF778D
:102CE00087FD08C0EA3009F4CAC08EEF8E0F82302B
:102CF00008F4C5C08E2F90E0FC01EB53FD4E2491EB
:102D0000FC01EB55FD4E3491452F4D7F4130F9F4D8
:102D1000313031F44091141E422B4093141E17C0E1
:102D2000323031F44091121E422B4093121E0FC0DC
:102D3000333031F44091101E422B4093101E07C0D7
:102D4000343029F44091F41C422B4093F41C4FEF93
:102D5000450F4230F8F4313031F44091131E422BCC
:102D60004093131E17C0323031F44091111E422B94
:102D70004093111E0FC0333031F440910F1E422B8F
:102D800040930F1E07C0343029F44091F31C422BAE
:102D90004093F31CFC01E55DF54FA4913130C1F483
:102DA000B0E0AA0FBB1FA055B34E6D937C93EDE925
:102DB000F2E1A591B4918C918093C01C8BE690E0D8
:102DC0009093A91C8093A81C8091680081604DC0DD
:102DD0003230C1F4B0E0AA0FBB1FAF53B34E6D93B6
:102DE0007C93EFE9F2E1A591B4918C918093D11C91
:102DF0008CE690E09093A91C8093A81C80916800B9
:102E0000826033C03330C1F4B0E0AA0FBB1FAE52B2
:102E1000B34E6D937C93E1EAF2E1A591B4918C916C
:102E20008093E21C8DE690E09093A91C8093A81CEF
:102E300080916800846019C03430C9F4B0E0AA0FF2
:102E4000BB1FAD51B34E6D937C93E3EAF2E1A591C4
:102E5000B4918C918093F51C83E790E09093A91C2A
:102E60008093A81C80916800886080936800A0917E
:102E7000A81CB091A91CEC912E2B2C9308959FB700
:102E8000F894E330B1F0EA3051F1E230E9F5E89836
:102E90007093AB1C6093AA1C809169008C7F809317
:102EA000690040916900452B40936900E09AE89AD7
:102EB0002BC0E9987093AD1C6093AC1C80916900A5
:102EC000837F809369008091690024E0529FA00174
:102ED0001124482B40936900E19AE99A15C0EA98B9
:102EE0007093AF1C6093AE1C809169008F7C8093BF
:102EF00069008091690020E1529FA0011124482BB4
:102F000040936900E29AEA9A9FBF0895BF92CF92D8
:102F1000DF92EF92FF920F931F93CF93DF93CDB782
:102F2000DEB72C970FB6F894DEBF0FBECDBF6C0195
:102F3000FC01848595850E945B9BF601E484F58401
:102F4000C7010E945B9BF701178E10A211A212A26B
:102F5000B3A0BB2041F16BE57AE0C7010E94A998BC
:102F600028E833E140E050E0B701CE0107960E9427
:102F70008C73F7018085918581309640D9F467E59F
:102F80007AE0C7010E94A99804E21BE02BE23BE033
:102F900048E853E160E070E0C7010E94D34BC701ED
:102FA0000E94E97307C065E0C7010E940D7481119A
:102FB000D2CF2AC0BE01695F7F4FCE0101960E9429
:102FC000F368AE014F5F5F4F64E57AE0C7010E948E
:102FD0007E60CE0101960E94426804E21BE02BE273
:102FE0003BE048E853E160E070E0C7010E94D34B4A
:102FF000C7010E94E973B11003C0C7010E94D773D3
:10300000CE0107960E944268F601848595850E944C
:103010005B9BF601158A2C960FB6F894DEBF0FBEA7
:10302000CDBFDF91CF911F910F91FF90EF90DF9077
:10303000CF90BF9008952F923F924F925F926F92E0
:103040007F928F929F92AF92BF92CF92DF92EF9238
:10305000FF920F931F93CF93DF93CDB7DEB76097A7
:103060000FB6F894DEBF0FBECDBF6C017B01588B4D
:103070004F873901DC011C968D919C911D970E9410
:103080005B9BF601F685FD87D6011C960D911C9180
:103090001D97F80133A0332091F1B701CE010196BD
:1030A0000E94FC685801F1E1AF0EB11CBE016F5FD8
:1030B0007F4FC5010E94A966982ECE0101960E94FD
:1030C0004268911023C0B701CE0101960E94FC68AE
:1030D000BE016F5F7F4FC5010E94F466CE0101966D
:1030E0000E944268D80159961C9259975A961C9290
:1030F0005A975B961C925B975C961C9207C065E0A2
:10310000C8010E940D748111C8CFFCC01B821C82B3
:103110001D821E82F801418D528D638D748D8B81CD
:103120009C81AD81BE81481759076A077B0709F06A
:10313000B6C066E578E0CE0107960E94FC6860E1C3
:1031400070E0CE0107960E9400670E94249E4B010A
:103150005C0128EE33E0D3010E9433BE2B013C0119
:10316000D80193962C90211069C065E0C8010E9497
:103170000D74811163C08DE493E09A8389831B826F
:103180001C821D821E827EC00E94249EDC01CB0117
:1031900088199909AA09BB0984159505A605B705DB
:1031A00090F462E070E080E090E00E94EA9DF80117
:1031B00080819181DC01ED91FC910084F185E02D0D
:1031C000099504970CF3F801608171814DE0CE01FF
:1031D00001960E948669BE016F5F7F4FCE01079600
:1031E0000E94BA66CE0101960E944268CE010796FF
:1031F0000E94FA6566E578E0CE0107960E945A665D
:10320000811116C06BE47AE0CE0101960E94BB6882
:10321000BE016F5F7F4FCE0107960E94A9668E8721
:10322000CE0101960E944268BE85BB2309F487C087
:1032300064EC79E080E090E00E94EA9D0E94249E88
:10324000DC01CB0188199909AA09BB0984159505E8
:10325000A605B70538F4A70161E57AE0C8010E9428
:103260003798A5CF211087CFF12CC8010E94D773C2
:10327000FF2009F480CFBE01695F7F4FCE01019628
:103280000E94B597CE0107960E9442688B819C816F
:10329000AD81BE81F801818F928FA38FB48FD80149
:1032A00059964D915D916D917C915C971B821C822A
:1032B0001D821E828B819C81AD81BE81481759077A
:1032C0006A077B07C1F08DE493E09A838983F80154
:1032D000818D928DA38DB48D8B839C83AD83BE83B2
:1032E0002D854F855889BE016F5F7F4FC8010E94B1
:1032F000EE60F82E01C0F12C311003C0C8010E940D
:10330000D7738F2DD60155968C9390E060960FB6AB
:10331000F894DEBF0FBECDBFDF91CF911F910F910B
:10332000FF90EF90DF90CF90BF90AF909F908F90E5
:103330007F906F905F904F903F902F900895211055
:103340009ACFFF24F39491CFFC0114869091161E1E
:103350008091171E981799F0E091161EF0E0EB543B
:10336000F24E20818091161E90E0019661E570E09A
:103370000E94F7BD8093161E822F90E008958FEF74
:103380009FEF08959091161E8091171E981741F097
:10339000E091161EF0E0EB54F24E808190E008952B
:1033A0008FEF9FEF0895FC01848581110EC08091FD
:1033B000171E2091161E90E08F5A9F4F821B910975
:1033C00061E570E00E94F7BD08958FEF9FEF0895CB
:1033D0004091691D262F30E0240F311D2132310527
:1033E000DCF420918F1D2430C9F4FC0180E090E0D2
:1033F000861758F43091691D2191DC01A95BB24E0A
:10340000A30FB11D2C930196F3CF8091691D680F16
:103410006093691D80E0089581E0089582E0089539
:10342000089508950895E0913E1D80913D1DE8178F
:1034300030F4F0E0E35EF24E808190E008958FEF8B
:103440009FEF089590913E1D80913D1D981750F477
:10345000E92FF0E0E35EF24E208130E09F5F909331
:103460003E1D02C02FEF3FEFC901089580913D1D21
:1034700090E020913E1D821B91090895CF92DF922A
:10348000EF92FF920F931F93CF93DF937C01CB01B9
:103490008A0120911C1D222389F0EB016B01C40ECF
:1034A000D51ECC15DD0569F06991D701ED91FC9130
:1034B0000190F081E02DC7010995F3CF642F0E94A0
:1034C000E819C801DF91CF911F910F91FF90EF9004
:1034D000DF90CF900895CF93DF931F92CDB7DEB7E3
:1034E000698320911C1D2223D1F020913F1D2032A1
:1034F00040F021E030E0FC013383228380E090E063
:1035000015C08091401DE82FF0E0E450F34E998102
:1035100090838F5F8093401D80933F1D05C061E0C5
:10352000CE0101960E94E81981E090E00F90DF91B2
:10353000CF910895EF92FF920F931F93CF93DF9354
:103540008C01F62EF894E090B20061E0FC018585D4
:103550000E94439D8F2D082E82958025082E8695EA
:10356000869580258F5F86958170C82FF0E0DF2FCC
:10357000D695DC2FCC27D795C795CF2980E8D9E001
:10358000982F9C2319F0D1508695FACF8091B200E4
:103590008E198A31D8F3F090B200EE24E394ED1640
:1035A00098F4C0FF02C060E001C061E0F8018585C9
:1035B0000E94439D8091B2008F198A31D8F3F09018
:1035C000B200C695E394EBCF60E0F80185850E94D8
:1035D000439D78948AE090E08D1B91099AE1899F40
:1035E000802D11249091B2009F199817D8F3DF9184
:1035F000CF911F910F91FF90EF90089510928F1D22
:1036000081E08093911D1092901D61E081E10E9404
:10361000439D61E080E10E94439DE9EBF0E0808101
:103620008E7F808380818D7F808380E28093B8004D
:1036300085E48093BC0008950F931F93CF93DF938D
:10364000EC010E94249E688779878A879B87E8819E
:10365000F9810484F585E02DCE01099597FF17C007
:103660000E94249E088519852A853B85DC01CB01B3
:10367000801B910BA20BB30B0C811D812E813F810E
:1036800080179107A207B30710F38FEF9FEFDF9129
:10369000CF911F910F910895CF93DF93EC01633089
:1036A0007105A1F064307105B9F06230710519F54A
:1036B00060E08D850E94729D61E08D850E94729D03
:1036C00060E08D85DF91CF910C94439D60E08D8506
:1036D0000E94729D61E014C060E08D850E94439D50
:1036E00060E08D850E94729D78948FEF80930A1E12
:1036F000DF91CF91089560E08D850E94439D60E049
:103700008D85DF91CF910C94729DEF92FF920F9374
:103710001F93CF93DF93EC017B0163E070E00E9485
:103720004C1B61E08D850E94439D84E190E60197EA
:10373000F1F760E070E0CB010E94EA9D60E08D85CA
:103740000E94439D84E692E40197F1F700E010E0C7
:10375000D70114968D919C9115970817190790F42D
:10376000ED91FC91309729F41092FA1CEAEFFCE1FC
:1037700002C0E00FF11F6081CE010E949A1A0F5F14
:103780001F4FE6CF64E070E0CE01DF91CF911F9133
:103790000F91FF90EF900C944C1BCF93DF932091EF
:1037A000F81C3091F91C8217930749F0EC0162E094
:1037B00070E00E944C1BD093F91CC093F81C8091C0
:1037C000B0008093F71C8091B1008093F61C10929A
:1037D000B00086E08093B100DF91CF91089560E062
:1037E00070E00E944C1B1092F91C1092F81C809102
:1037F000F71C8093B0008091F61C8093B10008956F
:103800001F93CF93DF93EC01162F63E070E00E94CB
:103810004C1B612FCE010E949A1A64E070E0CE0129
:103820000E944C1B81E090E0DF91CF911F910895A1
:10383000ECEBF0E080818A7B808360E081E10E9494
:10384000439D60E080E10C94439DCF93DF9391E032
:103850009093461D882361F0C091B800D091BA00C2
:103860000E94181C0E94FE1AD093BA00C093B800A0
:10387000DF91CF91089585ED8093BC008091421D2A
:103880009091431DA091441DB091451D0796A11D27
:10389000B11D23E0B695A795979587952A95D1F701
:1038A0002091BC0024FF1CC04091421D5091431D3B
:1038B0006091441D7091451D452B462B472B81F38C
:1038C0000097A105B10541F02AE12A95F1F700C062
:1038D0000197A109B109E4CF8091411D0C94251CE9
:1038E00010928F1D08951F920F920FB60F92112400
:1038F0000BB60F922F933F934F935F936F937F93EA
:103900008F939F93AF93BF93EF93FF938091B900F1
:10391000887F803609F49CC068F5883209F45BC062
:1039200090F4803109F454C038F4882309F4F6C0C7
:10393000883009F44DC0F6C0883109F44CC080329B
:1039400009F45DC0EFC0803409F468C048F48033E6
:1039500009F455C0883309F0E5C080938E1DD8C0A6
:10396000803509F44FC0883509F45DC0883409F00A
:10397000D9C0D6C0883909F4C7C0A8F4883709F47B
:1039800067C038F4883609F463C0803709F460C032
:10399000C9C0883809F4B8C0803909F45FC08038DC
:1039A00009F0C0C05BC0803B09F486C038F4803A9F
:1039B00009F466C0883A09F47FC0B4C0803C09F4B9
:1039C000A7C0883C09F4A4C0883B09F48AC0AAC0F7
:1039D0008091B41D10C09091B31D8091B21D9817B5
:1039E00070F5E091B31D81E08E0F8093B31DF0E080
:1039F000EE56F24E80818093BB0085EC86C08093AA
:103A00008E1D8EC0E091B31D81E08E0F8093B31D9B
:103A10008091BB00F0E0EE56F24E80839091B31D92
:103A20008091B21D6EC0E091B31D81E08E0F809336
:103A3000B31D8091BB00F0E0EE56F24E8083809182
:103A4000911D81116DC081E08093901D84EA61C059
:103A500083E080938F1D10928D1DCFCF80918D1D9F
:103A6000803208F051C0E0918D1D81E08E0F80936F
:103A70008D1D8091BB00F0E0E359F24E8083BDCFF5
:103A800085EC8093BC0010928F1D80918D1D80323B
:103A900030F4E0918D1DF0E0E359F24E1082609118
:103AA0008D1D70E0E0916B1DF0916C1D8DE69DE128
:103AB000099510928D1D36C084E080938F1D109261
:103AC0006A1D1092691DE091671DF091681D0995AE
:103AD0008091691D811105C081E08093691D10925C
:103AE000471DE0916A1D81E08E0F80936A1DF0E012
:103AF000E95BF24E80818093BB0090916A1D8091BA
:103B0000691D981708F479CF85E88093BC000AC036
:103B100085EC8093BC0010928F1D04C010928E1D06
:103B20000E943B1CFF91EF91BF91AF919F918F91AC
:103B30007F916F915F914F913F912F910F900BBEAD
:103B40000F900FBE0F901F9018958F929F92AF927B
:103B5000BF92CF92DF92EF92FF920F931F93CF937A
:103B6000DF9310913F1D113208F0C2C0D091FB1CB1
:103B70000E94C59D6B017C01C0918F1DCC2311F16A
:103B80008091421D9091431DA091441DB091451D0F
:103B9000892B8A2B8B2B81F30E94C59D8090421D1F
:103BA0009090431DA090441DB090451DDC01CB01B9
:103BB0008C199D09AE09BF0988169906AA06BB068D
:103BC000D8F682C082E080938F1D81E08093911DA2
:103BD0008FEF80938E1D1092B31D1093B21DACEF2A
:103BE000BCE1E2E9FDE180E0181721F09D9191939D
:103BF0008F5FFACF1092B41D9091B41D8D2F880F56
:103C0000892B8093B41D8091901D813089F510928D
:103C1000901D0E94C59D6B017C018091B41D809315
:103C2000BB008091421D9091431DA091441DB09115
:103C3000451D892B8A2B8B2BA9F00E94C59D0091D5
:103C4000421D1091431D2091441D3091451DDC0102
:103C5000CB018C199D09AE09BF09081719072A075E
:103C60003B0790F18091BC0083FDD7CF85EC01C06C
:103C700085EE8093BC000E94C59D6B017C01809104
:103C80008F1D823039F58091421D9091431DA09186
:103C9000441DB091451D892B8A2B8B2B81F30E94EB
:103CA000C59D0091421D1091431D2091441D3091EE
:103CB000451DDC01CB018C199D09AE09BF09081710
:103CC00019072A073B07D8F68091411D0E94251C41
:103CD000C5E013C080918E1D8F3F79F080918E1DBD
:103CE000803241F080918E1D803331F0C4E005C0F8
:103CF000C1E003C0C2E001C0C3E01092401D1092B9
:103D00003F1D10921C1D8C2FDF91CF911F910F91A1
:103D1000FF90EF90DF90CF90BF90AF909F908F90EB
:103D2000089581E080931C1D6093FB1C1092401D40
:103D300010923F1D08958F929F92AF92BF92CF92A3
:103D4000DF92EF92FF920F931F93CF93DF93F62EA4
:103D5000D42F0E94C59D4B015C01C0918F1DCC23C7
:103D600039F18091421D9091431DA091441DB09165
:103D7000451D892B8A2B8B2B81F30E94C59D0091B9
:103D8000421D1091431D2091441D3091451DDC01C1
:103D9000CB0188199909AA09BB09081719072A072D
:103DA0003B07D8F68091411D0E94251CC0E090C0C1
:103DB000D13208F0D0E281E080938F1D8093911D75
:103DC0009FEF90938E1D1092B31D9D0F9093B21D87
:103DD0008093B41D8091B41D6F2D660F682B609386
:103DE000B41D8091901D813089F51092901D0E9424
:103DF000C59D6B017C018091B41D8093BB008091B7
:103E0000421D9091431DA091441DB091451D892BE9
:103E10008A2B8B2BA9F00E94C59D8090421D90900B
:103E2000431DA090441DB090451DDC01CB018C19B1
:103E30009D09AE09BF0988169906AA06BB0690F12E
:103E40008091BC0083FDD7CF85EC01C085EE8093C7
:103E5000BC000E94C59D6B017C0180918F1D81304B
:103E600031F58091421D9091431DA091441DB09168
:103E7000451D892B8A2B8B2B81F30E94C59D809039
:103E8000421D9090431DA090441DB090451DDC0143
:103E9000CB018C199D09AE09BF0988169906AA069F
:103EA000BB06D8F68091411D0E94251C11C080914F
:103EB000B31D8D1710F4D091B31DE2E9FDE1ADE122
:103EC000BDE1C0E0CD1721F081918D93CF5FFACF96
:103ED00010923E1DC0933D1D8C2FDF91CF911F91FD
:103EE0000F91FF90EF90DF90CF90BF90AF909F9099
:103EF0008F90089510923E1D10923D1D1092401D0E
:103F000010923F1D0E94FE1A80E19AE19093681D75
:103F10008093671D81E19AE190936C1D80936B1DE6
:103F20000895CF93DF93282F30E0F901EC58F54F37
:103F30008491F901EB53FD4ED491F901EB55FD4EFF
:103F4000C491CC2391F081110E94149DEC2FF0E0DC
:103F5000EE0FFF1FE556FD4EA591B491EC91ED23B8
:103F600081E090E021F480E002C080E090E0DF9109
:103F7000CF910895DF92EF92FF920F931F93CF930B
:103F8000DF93C091F81CD091F91C209709F485C0EB
:103F90001091B2008D850E94911F082F80910A1EFA
:103FA0008F3F59F4002309F478C010920A1E81E073
:103FB0008093061E1092071E6AC09091081E2AE088
:103FC000210F291B97E2299F90011124232F3327CA
:103FD0002695269549E0481BE42FF0E0E217F30709
:103FE00008F0422F582F540F50930A1E6091071E5D
:103FF0008091061E013071F4962F4150682F660F94
:104000004F3F19F0982B862FF8CF9093071E60939F
:10401000061E0AC0415001C0880F4A95EAF78093F6
:10402000061E862B8093071E583088F14091071E8C
:104030004F774093071E8091171ED090161E90E078
:10404000019651E5E52EF12CB7010E94F7BD6D2DCB
:1040500070E08617970719F481E08C870FC0A09154
:10406000171EB0E0AB54B24E4C938091171E90E0F7
:104070000196B7010E94F7BD8093171E002321F01F
:10408000E217F30708F491CF8FEF80930A1E812F78
:1040900090E09093091E8093081EDF91CF911F91AD
:1040A0000F91FF90EF90DF900895CF92DF92EF9203
:1040B000FF920F931F93CF93DF93CDB7DEB7629735
:1040C0000FB6F894DEBF0FBECDBF7C016C0189E551
:1040D000C80ED11CC6010E94776066E578E0CE016B
:1040E0000D960E94FC68E9E6EE0EF11CF701608176
:1040F000CE010D960E94856769EE78E0CE010D969F
:104100000E94986705E0BE01635F7F4FC6010E9471
:10411000851B6EE170E080E090E00E94EA9D4AE03D
:10412000B601CE0107960E948669CE0107960E94CD
:10413000FA65C6010E947760F7016081CE010196A1
:104140000E94A368BE016F5F7F4FCE0107960E9459
:10415000A966182FCE0101960E944268111122C053
:10416000F7016081CE0101960E94A3684D815E81B6
:104170008B859C858417950778F08F8198850097AB
:1041800059F069817A816115710531F00E9454C13D
:1041900011E0892B09F010E0CE0101960E944268DF
:1041A000117001C011E0CE0107960E944268111102
:1041B00003C0015009F0A7CFCE010D960E944268BE
:1041C000812F62960FB6F894DEBF0FBECDBFDF9190
:1041D000CF911F910F91FF90EF90DF90CF900895B6
:1041E0000C94F4B40C94F4B4AF92BF92CF92DF92DB
:1041F000EF92FF920F931F93CF93DF9300D0CDB731
:10420000DEB78C015C0189E5A80EB11CF501E080E8
:10421000F18065EC77E0C7010E9434C1892B39F049
:104220006AEC77E0C7010E9434C1892BA9F4F80138
:10423000E55AFF4F80810E94AE9DBC01990F880B0B
:10424000990B0E9458BC2DE332E64BE95BE30E94D8
:10425000B7BC6B017C0107C0C12C8CE3D82E8CE16C
:10426000E82E86ECF82EF501A080B1806FEC77E0A7
:10427000C5010E9434C1892B39F069ED75E0C50193
:104280000E9434C1892BA1F4F801E55AFF4F8081C7
:104290000E94AE9DBC01990F880B990B0E9458BCDF
:1042A0002FE037E648E75CE30E94B7BC6B017C0176
:1042B000A701960160E0C8010E94A4318091BA2153
:1042C0009091BB21009711F48EEB91E2BE016F5FDC
:1042D0007F4F681B790B072E000C880B990B0E94EF
:1042E00058BC9B01AC0161E0C8010E94A431F801F7
:1042F000E45AFF4F608171816F5F7F4F71836083EC
:10430000072E000C880B990B0E9458BC9B01AC0136
:1043100062E0C8010E94A431F801EC5BFF4F1082FB
:10432000118212821382349680818F79808381E09A
:104330000F900F90DF91CF911F910F91FF90EF9011
:10434000DF90CF90BF90AF900895CF92DF92EF9221
:10435000FF921F93CF93DF93EC0181E10E94D0493C
:10436000182F82E10E94D049682F70E086E0759591
:1043700067958A95E1F7072E000C880B990B17FFBC
:1043800019C00E9458BC20E030E040E85EE30E9483
:10439000B7BC6B017C01612F619570E080E090E01B
:1043A0000E9458BC9B01AC01C701B6010E9444BEEB
:1043B000905816C00E9458BC20E030E040E85EE310
:1043C0000E94B7BC6B017C01612F70E080E090E03F
:1043D0000E9458BC9B01AC01C701B6010E9444BEBB
:1043E0009B01AC0160E0CE010E94A431FE01EC5BB8
:1043F000FF4F1082118212821382C85BDF4F8881C7
:104400008F79888381E0DF91CF911F91FF90EF90AA
:10441000DF90CF900895CF930E94622EC82F8823FB
:1044200069F08EE00E94D049682F60628EE00E94A1
:10443000B7498EE00E94D04985FDFBCF8C2FCF91EC
:104440000895CF93DF93EC010E94305FCE01DF919E
:10445000CF910C94362F08950895CF93DF93EB01FD
:10446000BC018CE893E10E94B66A60E28CE893E1BB
:104470000E94396ABE018CE893E1DF91CF910C94E0
:10448000138FBC018CE893E10C945F8FCF93DF9383
:10449000EC0168EC75E00E94FC68CE01DF91CF91E1
:1044A00008959F92AF92BF92CF92DF92EF92FF92C8
:1044B0000F931F93CF93DF93CDB7DEB768970FB6F7
:1044C000F894DEBF0FBECDBF8C010E94362F982E10
:1044D000C8010E947E5FC82E811108C0D801ED91ED
:1044E000FC910684F785E02DC8010995C8010E945A
:1044F00064317801B9E5EB0EF11CC7010E94CD1BB8
:1045000086E990E0A0E0B0E0F70184839583A6837C
:10451000B78381EF98ED9787868741E06AEB7FE16B
:10452000D80192968C910E946D16A090F81CB090C4
:10453000F91CEA14FB0419F0C7010E94CD1BC70146
:104540000E947760C8010E945520D82E882309F464
:10455000D6C066E578E0CE0143960E94FC68F8017B
:10456000E759FF4F6081CE0143960E94856764ED55
:1045700077E0CE0143960E949867BE016D5E7F4F43
:10458000C7010E94851B6EE170E080E090E00E9410
:10459000EA9D4AE0B701CE010D960E948669CE01E0
:1045A0000D960E94FA65C7010E947760EA14FB0429
:1045B00019F0C7010E94EF1B89899A89029708F4B4
:1045C00095C021E030E040E050E0BE01635F7F4FE6
:1045D000CE0107960E94116923E030E041E050E0EF
:1045E000BE01635F7F4FCE0101960E9411698981F0
:1045F0009A81009711F00E94B8B7CE0101960E94EF
:1046000042682BE030E043E050E0BE01635F7F4F43
:10461000CE0101960E941169BE016F5F7F4F580164
:10462000BAE6AB0EB11CC5010E94F466CE0101963C
:104630000E944268C5010E94FA6521E130E04BE02A
:1046400050E0BE01635F7F4FCE0101960E94116969
:10465000BE016F5F7F4F5801E0E7AE0EB11CC50190
:104660000E94F466CE0101960E944268C5010E9434
:10467000FA6524E130E041E150E0BE01635F7F4F25
:10468000CE0101960E941169BE016F5F7F4F5801F4
:10469000F6E7AF0EB11CC5010E94F466CE0101968B
:1046A0000E944268C5010E94FA6529893A8944E15D
:1046B00050E0BE01635F7F4FCE0101960E941169F9
:1046C000BE016F5F7F4F58018CE7A80EB11CC5017A
:1046D0000E94F466CE0101960E944268C5010E94C4
:1046E000FA65CE0107960E94426801C0D12CCE0126
:1046F0000D960E944268CE0143960E944268D920DE
:10470000C7010E947760C7010E94EF1BC11008C05B
:10471000D801ED91FC910088F189E02DC80109953F
:10472000D11007C0F801E85BFF4F80818E7F806861
:1047300080838D2D68960FB6F894DEBF0FBECDBF77
:10474000DF91CF911F910F91FF90EF90DF90CF906D
:10475000BF90AF909F900895CF93DF93EC018FE4CB
:1047600092E099838883CE0184589F4F0E944268CB
:10477000CE018A589F4F0E944268CE0180599F4FB8
:104780000E944268CE0186599F4F0E944268C75AD4
:10479000DF4F8DE392E09983888360E070E0CE0183
:1047A0000E944C1B8091F81C9091F91CC817D907E6
:1047B00021F41092F91C1092F81C8091F71C809340
:1047C000B0008091F61C8093B100DF91CF910895E5
:1047D000CF93DF93EC010E94AC23CE01DF91CF9108
:1047E0000C94F4B4CF93DF93EC0161E17BE00E9481
:1047F000BB68CE01DF91CF9108952F923F924F92E7
:104800005F926F927F928F929F92AF92BF92CF9260
:10481000DF92EF92FF920F931F93CF93DF93CDB769
:10482000DEB7AD970FB6F894DEBF0FBECDBF8C01DB
:104830006B011A821982FE01339683E2DF011D9219
:104840008A95E9F7E8E1FEE101900020E9F787E0C9
:1048500091E28E1B9F0B8C3B924020F460E0C601DE
:104860000E942D60D601ED91FC910088F189E02D28
:1048700040E550E067ED77E0C6010995892B09F422
:1048800047C26AEE77E088E19EE10E943DC160EF99
:1048900077E088E19EE10E941EC162E078E088E155
:1048A0009EE10E941EC16CE078E088E19EE10E94DA
:1048B0001EC167ED77E088E19EE10E941EC165E1BF
:1048C00078E088E19EE10E941EC1F8016185728551
:1048D00088E19EE10E941EC16FE178E088E19EE1DF
:1048E0000E941EC1F12C93E6A92EB12CD80112967C
:1048F0006D917C911397DB011D96ED91FC911E97B4
:104900009281F8018085F91640F5F7E2AF0EB11CEF
:10491000811121C04F2DCE0186960E94217F8AA54C
:104920009BA5A80EB91ECE0186960E9442682F2D27
:1049300030E02F5F3F4FD8011296ED91FC91139715
:104940000584F685E02D828190E02817390719F05B
:10495000BFEFAB1ABB0AF394C9CF882339F0FB0130
:10496000E453FD4F80819181A80EB91E4AE0FE01FB
:1049700031967F01BF01C50101960E942EB8B70193
:1049800088E19EE10E941EC162E378E088E19EE139
:104990000E941EC167E578E088E19EE10E941EC189
:1049A000D8011296ED91FC9113976385748588E187
:1049B0009EE10E941EC1F80180856DE678E08823A3
:1049C00009F4F0C088E19EE10E941EC1D801129650
:1049D000ED91FC911397EC53FD4F40815181628121
:1049E0007381CE0186960E94DC8045E250E0B701DB
:1049F000CE0186960E948E49CE0186960E9442681C
:104A0000B70188E19EE10E941EC1E8E1FEE1DF01FD
:104A10000D900020E9F7119782E28C93019000201D
:104A2000E9F731978CE28083912CB8E12B2EBEE11F
:104A30003B2E82E2882ED8011296ED91FC911397BD
:104A40000584F685E02D8281981608F072C1F10187
:104A500001900020E9F7319780821296ED91FC9148
:104A600013970584F685E02DA92CB12CC501880F7C
:104A7000991F0190F081E02DE80FF91F0190F0815E
:104A8000E02D61897289CE0186960E94FC6845E21C
:104A900050E0B701CE0186960E948E49CE018696DF
:104AA0000E944268B70188E19EE10E941EC1F101A7
:104AB00001900020E9F731978082F10101900020F8
:104AC000E9F73197BAE3B083F80182819381FC0161
:104AD000E653FD4F4081518132976081718188E1B9
:104AE0009EE10E9444C1FFEFAF1ABF0AD80112969F
:104AF000ED91FC9113970584F685E02D828190E07D
:104B0000F10101900020E9F73197A816B90619F0D4
:104B1000BCE2B08302C02DE72083D8011296AD908D
:104B2000BC901397F501E853FD4FFDA7ECA740801B
:104B300051804CE4B201C5010E94787B01963C0192
:104B4000ACA5BDA58D939C93F501E653FD4F5F0188
:104B50004816590651F41182108244E95AE0B20114
:104B600086E99AE00E94DA7BE4C06CE270E00E9481
:104B700029C1F30101900020E9F73197E619F709FF
:104B800009F4D4C0009729F43197D501ED93FC9333
:104B9000CBC086199709F50191838083892B09F091
:104BA000C3C0C7C088E19EE10E941EC140910B1E98
:104BB00050910C1E60910D1E70910E1ECE018696B6
:104BC0000E94DC8045E250E0B701CE0186960E944B
:104BD0008E49CE0186960E944268B70188E19EE127
:104BE0000E941EC1E8E1FEE1DF010D900020E9F71F
:104BF000119782E28C9301900020E9F731978CE2C3
:104C00008083B12C38E1832E3EE1932E42E2A42E24
:104C10005AE3552E6DE7462E7CE2372ED8011296C8
:104C2000ED91FC9113970584F685E02D8281B816ED
:104C300008F07FC0F40101900020E9F73197A082CD
:104C40001296ED91FC9113970584F685E02D6B2C5F
:104C5000712CC301880F991F0190F081E02DE80F9E
:104C6000F91F0190F081E02D61897289CE0186964D
:104C70000E94FC6845E250E0B701CE0186960E9492
:104C80008E49CE0186960E944268B70188E19EE176
:104C90000E941EC1F40101900020E9F73197A08223
:104CA000F40101900020E9F731975082F801628108
:104CB00073814B2DCE0186960E94217F45E250E004
:104CC000B701CE0186960E948E49CE0186960E943B
:104CD0004268B70188E19EE10E941EC1FFEF6F1A92
:104CE0007F0AD8011296ED91FC9113970584F68501
:104CF000E02D828190E0F40101900020E9F73197E6
:104D00006816790611F0308201C04082B39486CFD4
:104D100081ED9AE00E942D6E412C512C320185E8E4
:104D2000E82E83E0F82E71C0939485CED5011D92B4
:104D30001C9261E0C6010E942D600E94249E4B01DE
:104D40005C01412C512C3201212C312CF80183853E
:104D50009485A0E0B0E0481659066A067B06E0F4A8
:104D6000FCE02F163104C0F46AE070E080E090E0CF
:104D70000E94EA9DD601ED91FC910084F185E02D21
:104D8000C60109951C010E94249E2B013C01481874
:104D900059086A087B08DACF85E2F70111928A95F3
:104DA000E9F75701E12CF12CC6010E94566997FDE5
:104DB0000AC0D5018D935D01BFEFEB1AFB0AECE051
:104DC000EE16F10489F764E670E080E090E00E945E
:104DD000EA9DD601ED91FC910488F589E02DC6018C
:104DE0000995BCE0EB16F10429F098EFE92EFF24B9
:104DF000F3940BC08A858EA38B858FA38C8588A79F
:104E0000CE0186960E94BCB77C011DA2F8010385E5
:104E100014856DEB7AE08CE893E10E94B66A60E25B
:104E20008CE893E10E94396AB7018CE893E10E9413
:104E3000598F60E28CE893E10E94396A65EB7AE071
:104E40008CE893E10E94B66A60E28CE893E10E94EC
:104E5000396A2AE030E0B301A2018CE893E10E94B4
:104E60000D6A60E28CE893E10E94396AB8018AEA2F
:104E70009AE00E942D22C701AD960FB6F894DEBFCE
:104E80000FBECDBFDF91CF911F910F91FF90EF909B
:104E9000DF90CF90BF90AF909F908F907F906F905A
:104EA0005F904F903F902F900895CF93DF93EC0148
:104EB000FB01828193819B838A8389E593E09983B7
:104EC000888384819581A681B7818C839D83AE83FD
:104ED000BF8380859185A285B38588879987AA87B6
:104EE000BB8780E23C96DE011C9601900D928A956C
:104EF000E1F78FED93E099838883DF91CF91089557
:104F0000FF920F931F93CF93DF938C01FC01F3A0CB
:104F1000FF20A1F063E37BE0C8010E94A99848EE5E
:104F200053E060E070E0C8010E949074D82FC92F50
:104F3000F1100BC0C8010E94D77307C065E00E9442
:104F40000D748111E7CF90E002C08D2F9C2FDF916F
:104F5000CF911F910F91FF900895FF920F931F9390
:104F6000CF93DF93EC018A8587FD07C061E00E9443
:104F7000729D61E08A850E94439D0BA1002339F157
:104F80006FE27BE0CE010E94A99844E25BE06BE215
:104F90007BE0CE010E94154CF82E6FE17BE0CE0144
:104FA0000E94A99844E25BE06BE27BE0CE010E94A4
:104FB000154C11E0F11210E091E0813009F090E021
:104FC000192369F08EE690E09F838E8308C06AE023
:104FD000CE010E940D74182F8111D2CF1EC06AE13C
:104FE0007BE0CE010E94A99844E25BE06BE27BE0AB
:104FF000CE010E94154CF82ECE010E94E97391E07B
:10500000F91290E08123192F1823CE010E94E17438
:10501000011103C0CE010E94D773812FDF91CF9180
:105020001F910F91FF900895EF92FF920F931F939E
:10503000CF93DF9300D000D000D0CDB7DEB77B0197
:105040008A01BC018CE893E10E94B66A60E28CE8B8
:1050500093E10E94396AB701CE0101960E94F3687C
:10506000B801CE0101960E94C988CE0101960E9426
:10507000426826960FB6F894DEBF0FBECDBFDF9113
:10508000CF911F910F91FF90EF9008952F923F9233
:105090004F925F926F927F928F929F92AF92BF9248
:1050A000CF92DF92EF92FF920F931F93CF93DF93F4
:1050B000CDB7DEB7E1970FB6F894DEBF0FBECDBF18
:1050C000282E9DE4E92E94E1F92EC12CD12C312C0F
:1050D000D70151966D917C9152976115710509F434
:1050E000CBC13092F816DB01ED91FC910480F58183
:1050F000E02DCE018796099563E67DE08CE893E18B
:105100000E94B66A60E28CE893E10E94396ABE01AF
:10511000695D7F4FCE0181960E94F3684AE050E0BE
:10512000632D8CE893E10E94206A60E28CE893E1B1
:105130000E94396ABE016F5D7F4FCE0101960E94C9
:10514000F368BE016F5F7F4F81E69DE00E94E487B8
:10515000CE0101960E944268CE0181960E9442686B
:10516000CE0187960E944268F70181899289DC010D
:10517000ED91FC910288F389E02D0995882309F4CB
:105180007BC1F70181899289DC01ED91FC91028C50
:10519000F38DE02D09952C0180E3830D8DA760919F
:1051A000EE177091EF1781EE97E10E943DC141E04B
:1051B00050E0BE01635D7F4F81EE97E10E9444C1E4
:1051C0006EED78E081EE97E10E941EC145E161EE4F
:1051D00077E181EC97E10E946647811104C08BE082
:1051E0009DE00E942D6E1092201710921F171092B2
:1051F0001E1710921D17E1E2F7E1F0931617E093E6
:1052000015176091B3177091B41742E183E997E1E4
:105210000E946647811108C06091B3177091B4175E
:105220008CEF9CE00E947C9B0E94249E6EA77FA72F
:1052300088AB99AB4201A12CB12C87E897E10E9481
:1052400094508823C1F1222071F0D70151968D919D
:105250009C915297DC01ED91FC910084F185E02D49
:1052600009956C0104C086E8C82E83E0D82E86E636
:1052700094E10E94F086B9ECCB16D104B9F061E25A
:1052800077E185EB97E10E94C156892B29F460E014
:1052900089E49DE00E94476E809185179091861762
:1052A00001969093861780938517C7CFC501B401E7
:1052B0000E94EA9DC2CF83E997E10E94DD468111F9
:1052C0000CC06091B3177091B4178CEE9CE00E94F3
:1052D0007C9B88ED9CE00E942C4A8091B3179091B2
:1052E000B4170E94824A811116C06091B317709161
:1052F000B41787EC9CE00E947C9B6FEF71E18CE817
:1053000093E10E94B66A62EB7CE08CE893E10E9434
:10531000DA6A0E94EE4980E00E94534D6090851742
:10532000709086170E94249E4B015C0100911D170E
:1053300010911E1764E47DE08CE893E10E94B66A48
:1053400060E28CE893E10E94396A4AE050E0B801DB
:105350008CE893E10E941A6A60E28CE893E10E9473
:10536000396A68E37DE08CE893E10E94B66A60E206
:105370008CE893E10E94396AC501B4012EA53FA5CE
:1053800048A959A9621B730B840B950B0E9456BC4C
:1053900020E030E04AE754E40E94B0BEAB01BC011B
:1053A00022E030E08CE893E10E944C9060E28CE8CF
:1053B00093E10E94396AB30182E29DE00E942D22AE
:1053C00039ECC316D10409F057C019821A821B8226
:1053D0004AE654E1452B09F44FC020E041EE57E185
:1053E00065E976E1CE0101960E94E746882309F43B
:1053F00043C01092201710921F1710921E17109280
:105400001D1781E297E1909316178093151742E0DC
:1054100061EE77E181EC97E10E94664701E010E0E0
:10542000812C912C612C712C85EB97E10E9494507A
:105430008823D9F001151105C1F0C301B2010E9402
:10544000EA9DF70181899289DC01ED91FC9100844C
:10545000F185E02D09955C0186E694E10E94F086D5
:10546000B9ECAB16B10441F16501892811F081E076
:1054700001C080E00E94534D3394A2E0EA0EF11C7B
:10548000B4E03B1225CEE1960FB6F894DEBF0FBE16
:10549000CDBFDF91CF911F910F91FF90EF90DF90E3
:1054A000CF90BF90AF909F908F907F906F905F90C4
:1054B0004F903F902F9008959FEF891A990A10926C
:1054C00021178091FB169091FC160817190718F404
:1054D0000F5F1F4FA9CFE091F916F091FA163097A0
:1054E00019F401E010E0A0CF80E090E00995E09190
:1054F000F916F091FA1682E090E00995082F10E075
:1055000093CFDF92EF92FF920F931F93CF93DF938E
:10551000CDB7DEB7A1970FB6F894DEBF0FBECDBFF3
:105520007C01FB01D2848281D11012C0882329F032
:105530000780F085E02D099504C063817481858121
:1055400096810E9422BF4AE0C7010E944A681EC09D
:10555000882329F00780F085E02D099504C0638138
:10556000748185819681F7011182108213821282E3
:105570001582148242E04D0D8E010F5F1F4F2D2DBD
:105580000E943CB4BC01C7010E941468C701A196E7
:105590000FB6F894DEBF0FBECDBFDF91CF911F9144
:1055A0000F91FF90EF90DF9008956F927F928F920E
:1055B0009F92AF92BF92CF92DF92EF92FF920F93A2
:1055C0001F93CF93DF93CDB7DEB727970FB6F8942D
:1055D000DEBF0FBECDBF7C01C62E0E94BD7EAB01DB
:1055E000BC01405853446D467843CE0101960E9459
:1055F0000E52F701848583FF70C0098110E0C80155
:105600008053984F8C3398400CF067C07A808FEFAE
:10561000870D8C3008F061C06B808FEF860D8F3165
:1056200008F05BC0AC8027E12A1508F456C0BD80A5
:105630004BE34B1508F451C0DE804D1508F44DC006
:105640004701FCE08F0E911CC4010E94415E88233B
:1056500009F443C061E0C4010E947547FC01892B35
:10566000E1F198012C5E3F4F322F2227330F60E289
:10567000769EC00111248629282B392B8A2D90E093
:10568000982F8827990F990F990F60E2B69EA00175
:105690001124842B952B4D2D50E055954795842B47
:1056A000952BC0FE02C0338B228BC1FE09C0318B0B
:1056B000208B978786874D2D4170D0FC44E6458727
:1056C000C2FE04C0318F208F978B868BF7018289B1
:1056D00093890E944A48811157C0FE80ED80DC808A
:1056E000CB80BA80098110E00053184F61EA7CE05A
:1056F0008CE893E10E94B66A60E28CE893E10E9434
:10570000396A4AE050E0B8018CE893E10E941A6AD5
:1057100060E28CE893E10E94396A4AE050E06B2D28
:105720008CE893E10E94206A60E28CE893E10E9499
:10573000396A4AE050E06C2D8CE893E10E94206ABF
:1057400060E28CE893E10E94396A4AE050E06D2DF6
:105750008CE893E10E94206A60E28CE893E10E9469
:10576000396A4AE050E06E2D8CE893E10E94206A8D
:1057700060E28CE893E10E94396A4AE050E06F2DC4
:105780008CE893E10E94276A27960FB6F894DEBF53
:105790000FBECDBFDF91CF911F910F91FF90EF9082
:1057A000DF90CF90BF90AF909F908F907F906F9041
:1057B0000895CF92DF92EF92FF921F93CF93DF93E2
:1057C000CDB7DEB72C970FB6F894DEBF0FBECDBFB6
:1057D000F82E86E694E10E94F0868DE494E10E9422
:1057E000E882182FFF2091F00E94BD7E609305177C
:1057F0007093061780930717909308170E94DC8216
:105800006F2D8BE79CE00E94647B1F2DE091F916C1
:10581000F091FA16309719F180E090E00995E09147
:10582000F916F091FA1681E090E00995811105C012
:1058300085E59CE00E942D6E10E0E091F916F09154
:10584000FA1682E090E00995811109C011FF07C0A6
:105850001D7F146080E39CE00E942D6E03C0112325
:1058600009F485C181E080932B1486E694E10E94BF
:10587000F08663E17CE08CE893E10E94B66A40E147
:1058800050E0612F8CE893E10E94206A6DE07CE09B
:105890008CE893E10E94DA6A8DE494E10E94427FF1
:1058A0008091541487FD03C061E00E94439D10FF66
:1058B00071C08DEF9BE00E942D6E86E694E10E9400
:1058C000F08680915A1490915B140E942E3286E6E5
:1058D00094E10E94F0868DE494E10E947B8E6091B9
:1058E000B3177091B41745E183E997E10E946647C9
:1058F000882309F447C06DE778E087E897E10E94C4
:10590000946A40910B1E50910C1E60910D1E709177
:105910000E1E2AE030E087E897E10E940D6AF12C24
:10592000E0915A14F0915B148281F81610F54F2D16
:105930006DE474E1CE0107960E94217F6CE2CE01F6
:1059400001960E94A368BE01695F7F4FCE01019658
:105950000E94E067BC0187E897E10E94966ACE0149
:1059600001960E944268CE0107960E944268F39415
:10597000D7CF87E897E10E94F76983E997E10E9412
:10598000DD4608C06091B3177091B41786E39BE0C1
:105990000E947C9B11FFD3C080915C1490915D1498
:1059A000009709F4D5C0DC01ED91FC910680F781E8
:1059B000E02D0995882309F4A1C086E694E10E94B0
:1059C000F08660915C1470915D14645D7F4FCE0130
:1059D00001960E94F368BE016F5F7F4F8DED9BE0E3
:1059E0000E94E487CE0101960E94426880915C1477
:1059F00090915D14DC01ED91FC910288F389E02D1A
:105A000040E553EC60E070E00995882309F45CC040
:105A100086E694E10E94F08681E00E94462886E6B0
:105A200094E10E94F086C0900B1ED0900C1EE09076
:105A30000D1EF0900E1EC114D104E104F10469F0B2
:105A4000C701B60120E831E541E050E00E949BBD6E
:105A5000603C784A8105910579F021EED21A2BE05D
:105A6000E20A2EE5F20A81E8C81687EFD8068FEC25
:105A7000E80682E1F80688F080915C1490915D144C
:105A8000DC01ED91FC910688F789E02D09950E94D3
:105A9000EC4C86E694E10E94F08680915C14909133
:105AA0005D14DC01ED91FC91068CF78DE02D0995DC
:105AB00080915C1490915D14DC01ED91FC9104885F
:105AC000F589E02D09952FC060915C1470915D14EB
:105AD000645D7F4FCE0101960E94F368BE016F5F47
