:100000000C9431120C94C5330C949A330C946F33C6
:100010000C94FA320C9485320C9410320C949B316F
:100020000C94F8710C945B120C945B120C945B12A0
:100030000C942D6D0C94DC6D0C94E26C0C945B12A2
:100040000C945B120C945B120C94E25E0C945B12A9
:100050000C94AC6C0C94826C0C945B120C945B1240
:100060000C945B120C945B120C943C8B0C945B1202
:100070000C944C6C0C94226C0C945B120C945B12E0
:100080000C945B120C945B120C945B120800000041
:10009000BE922449123EABAAAA2ABECDCCCC4C3E7D
:1000A00000000080BEABAAAAAA3E00000000BF006C
:1000B0000000803F0000000000084178D3BB438768
:1000C000D1133D190E3CC3BD4282AD2B3E68EC827C
:1000D00076BED98FE1A93E4C80EFFFBE01C4FF7F01
:1000E0003F000000000007634236B79BD8A71A39CB
:1000F000685618AEBAAB558C1D3CB7CC5763BD6D76
:10010000EDFD753EF6177231BF000000803F0040E4
:100110007A10F35A00A0724E18090010A5D4E80016
:1001200000E87648170000E40B54020000CA9A3B2E
:10013000000000E1F50500008096980000004042B4
:100140000F000000A0860100000010270000000042
:10015000E803000000006400000000000A00000046
:1001600000000100000000002C76D888DC674F08F2
:1001700023DFC1DFAE59E1B1B796E5E3E453C63AF8
:10018000E651997696E8E6C28426EB898C9B62ED6F
:10019000407C6FFCEFBC9C9F40F2BAA56FA5F49029
:1001A000055A2AF75C936B6CF9676DC11BFCE0E4A0
:1001B0000D47FEF520E6B500D0ED902E03009435F6
:1001C00077050080841E080000204E0A000000C849
:1001D0000C333333330F986E12831141EF8D21149A
:1001E000893BE65516CFFEE6DB18D1844B381BF76A
:1001F0007C1D901DA4BBE424203284725E22810009
:10020000C9F124ECA1E53D2700010203040506071E
:1002100000010203040506070001020304050607A6
:1002200000010203040506074552524F52004C419B
:1002300000544D00544D0041503000414D300041BC
:1002400049004349002B2B2B0041430057520043E8
:100250004E004853004853002020774C696F6E428F
:1002600061745374633331303020657272206D6570
:100270006173204C69496F6E205600454550524FBE
:100280004D2057726974652066696E69736865648C
:10029000002900414354494F4E205772697465202C
:1002A00061707020454550524F4D207374617274D7
:1002B000656428007D206E6F7420737570706F7296
:1002C000746564007D206D61746368202026206160
:1002D000646465642E003D7B003D005D20004E6F30
:1002E0007420737570706F72746564205B00414395
:1002F00054494F4E2057726974652061626F727461
:1003000065642E20696E737472756374696F6E20F4
:100310002700414354494F4E20434F5059206E6FA0
:100320007420737570706F72746564207965743AA7
:1003300000434F50590057524954450041435449D6
:100340004F4E00555345520020746F2000424F4FCE
:1003500054207462642000454550524F4D2057721E
:100360006974652061626F727465642E20696E73B2
:100370007472756374696F6E202700414354494F4E
:100380004E2044454641554C5420617070204545EF
:1003900050524F4D0044454641554C545F415050DA
:1003A0005F454550524F4D00454550524F4D2057E7
:1003B000726974652066696E697368656400454595
:1003C00050524F4D20577269746520737461727476
:1003D00065643A0059455300454550524F4D5F57AB
:1003E0005249544500426F617264205265763A006A
:1003F000424F4152445F52455600426F6172642041
:1004000053657269616C4E756D203A00424F4152DE
:10041000445F534E00426F617264204E616D653AD5
:1004200000424F4152445F4E414D4500424F4F54B0
:100430000020746F20004E4554574F524B20746279
:100440006420005D20726561643A004E4554574F48
:10045000524B205365742053454E445F5155455FC0
:10046000535A5F4E554D2064697361626C65642C0C
:10047000206572726F722C2072616E67655B004E30
:100480004554574F524B205365742053454E445F9B
:100490005155455F535A5F4E554D206469736162F3
:1004A0006C65640053454E445F5155455F535A5F38
:1004B0004E554D005D20726561643A004E455457BB
:1004C0004F524B2053657420504F53545F4D415849
:1004D0005F4E554D206572726F723B2072616E6780
:1004E000655B00504F53545F4D41585F4E554D0072
:1004F0004E4554574F524B205365742053454E443C
:100500005F4F46465345545F4D494E206572726FAA
:10051000723B202872616E67652030203A203330AC
:100520002920726561643A0053454E445F4F464648
:100530005345545F4D494E004E4554574F524B2042
:1005400053657420434F4C4C4543545F52454144DE
:10055000494E4753206572726F723B202872616E5C
:1005600067652030203A2033302920726561643A73
:1005700000434F4C4C4543545F52454144494E471C
:100580005300576946695077640057694669496462
:10059000004E4554574F524B0020746F2000534576
:1005A0004E534F525320746264200053454E534FB4
:1005B00052530020746F2000434F4D4D4F4E207416
:1005C0006264200047454F47524150484943414CDF
:1005D0005F49443A0047454F4752415048494341DB
:1005E0004C5F494400434F4D4D4F4E20536574209E
:1005F00054696D655A6F6E65206572726F723B202B
:100600002872616E6765202D3132203A202B3132FD
:100610002920726561643A0054494D455F5A4F4E36
:1006200045002920726561643A0020536574204CAE
:1006300069496F6E2054797065206572726F723BE4
:10064000202872616E676520302D002073757065FB
:100650007273656465642075736520424154544526
:1006600052595F5459504500434F4D4D4F4E204C09
:1006700069496F6E20547970653A20004C49494FA2
:100680004E5F54595045002920726561643A00203C
:1006900053657420424154544552595F5459504552
:1006A000206572726F723B202872616E6765203C14
:1006B00000424154544552595F545950450020530B
:1006C000657420424154544552595F6D416872200F
:1006D000002920726561643A00205365742042410C
:1006E00054544552595F6D416872206572726F7241
:1006F0003B202872616E6765203E3D302026203CFD
:1007000000424154544552595F6D4168720029209E
:100710007769746820726561643A002053657420BB
:10072000696E74657276616C206572726F722028D2
:1007300072616E67653A20312D00286D696E29203F
:1007400066726F6D2064656661756C742000434F3E
:100750004D4D4F4E204C4F4747494E475F494E54F1
:10076000455256414C5F4D494E5554455320736593
:100770007420746F3A2000205573696E67204D61B4
:10078000782E2052656164696E672069676E6F72AA
:1007900065642000434F4D4D4F4E204C4F47474915
:1007A0004E475F494E54455256414C5F4D494E5558
:1007B000544553206D757374206265206C657373A6
:1007C000207468616E203A20004C4F4747494E47DD
:1007D0005F494E54455256414C5F4D494E55544524
:1007E00053004C4F474745525F494400434F4D4DDE
:1007F0004F4E0050524F56494445525F554249446E
:100800004F54530050524F56494445525F54530081
:100810005D20726561643A0050524F56494445521A
:100820005F4D4D57205365742054494D45525F50DC
:100830004F53545F504143455F4D53206572726F73
:10084000723B202872616E6765200054494D455205
:100850005F504F53545F504143455F4D53005D20FF
:10086000726561643A0050524F56494445525F4D9B
:100870004D57205365742054494D45525F504F5396
:10088000545F544F55545F4D53206572726F723BE5
:10089000202872616E6765205B0054494D45525FA8
:1008A000504F53545F544F55545F4D530053414D77
:1008B000504C494E475F46454154555245005245BC
:1008C00047495354524154494F4E5F544F4B454E44
:1008D00000434C4F55445F49440050524F564944E1
:1008E00045525F4D4D57004E4F4E45004E4F4E45C1
:1008F000004E4F4E45004E4F4E45004E4F4E450068
:100900004E4F4E45004E4F4E45004E4F4E45004E09
:100910004F4E45004E4F4E450057494649505744AB
:100920005F4E4F4E45005749464949445F4E4F4E32
:10093000450041504E5F4E4F4E4500466163746F17
:1009400072792064656661756C74006D734C6F67B5
:100950003031002D2D2D4C425F5057525F5553457D
:1009600041424C455F5245512043414E43454C4C1A
:1009700045442D2D4C626174743D002D2D2D4C424B
:100980005F5057525F4D4F44454D5F5553455F5241
:1009900045512043414E43454C4C45442D2D4C621E
:1009A0006174743D002D2D2D4C425F5057525F53A2
:1009B000454E534F525F5553455F52455120434179
:1009C0004E43454C4C45442D2D4C626174743D00A2
:1009D0002D2D2D74755F787830313A57616B6575C0
:1009E0007020636865636B20706F7765722E20508E
:1009F00072657373207573657220627574746F6E9F
:100A000020746F20627970617373003A20426174C0
:100A100056204C6F77203D004261745F56287374F6
:100A200063333130302900626174746572794368D0
:100A300065636B207265712F776169742F737263C0
:100A4000001F1C1F1E1F1E1F1F1E1F1E1F4E6F6E0E
:100A50006500646174615075626C697368657242A7
:100A60006173652067515320636865636B0057614C
:100A7000746368646F672064697361626C65642E77
:100A8000206261726B73556E74696C526573657424
:100A9000004261642074696D6520003A3030003A8C
:100AA0003030003A3030003A30300021212121210D
:100AB0002121212121212121212121212121212027
:100AC0002D2D2D2D2D205741524E494E47202D2D95
:100AD0002D2D2D2000212121212121212121212005
:100AE0002D2D2D2D2D205741524E494E47202D2D75
:100AF0002D2D2D2021212121212121212121002DD8
:100B00002D2D2D2D205741524E494E47202D2D2D54
:100B10002D2D2021212121212121212121212121AE
:100B200021212121212121005468652063757272E1
:100B3000656E7420636C6F636B2074696D6573748C
:100B4000616D70206973206E6F742076616C6964CA
:100B500021002121212121212121212121212121A6
:100B6000212121212121202D2D2D2D2D20574152B4
:100B70004E494E47202D2D2D2D2D200021212121A4
:100B8000212121212121202D2D2D2D2D2057415294
:100B90004E494E47202D2D2D2D2D20212121212163
:100BA0002121212121002D2D2D2D2D205741524E67
:100BB000494E47202D2D2D2D2D2021212121212170
:100BC0002121212121212121212121212121000057
:100BD00020467756657220002048775665722000BF
:100BE00020536E200020666F72200027002720739C
:100BF0006E3A2700207265763A2700426F61726470
:100C00003A20004D6F64756C617253656E736F723C
:100C100073207665727320002E2053772042756909
:100C20006C643A20005377204E616D653A200020B5
:100C30002042617474657279547970653A2000209D
:100C4000547A3A200020204C6F6767696E67496EBE
:100C500074657276616C20286D696E293A20004CAB
:100C60006F636174696F6E3A20000044617465209F
:100C7000616E642054696D6520696E20555443008F
:100C8000526573756C7420555549443A005265732A
:100C9000756C7420556E69743A00566172696162B0
:100CA0006C65204E616D653A0053656E736F7220FE
:100CB0004E616D653A0053616D706C696E672046D8
:100CC00065617475726520555549443A2000446148
:100CD0007461204C6F676765722046696C653A20C5
:100CE0000044617461204C6F676765723A2000446C
:100CF0006174612077696C6C206E6F74206265206E
:100D0000736176656421004572726F723A205344B4
:100D10002063617264206661696C656420746F2071
:100D2000696E697469616C697A65206F7220697394
:100D3000206D697373696E672E004461746120775A
:100D4000696C6C206E6F74206265207361766564D7
:100D50002100536C6176652F436869702073656C60
:100D60006563742070696E20666F7220534420633F
:100D700061726420686173206E6F74206265656EB5
:100D8000207365742E002D2D2D2D5C2F000A205C04
:100D90002F2D2D2D2D204C696E65205361766564B5
:100DA00020746F00556E61626C6520746F207772DD
:100DB00069746520746F205344206361726421005C
:100DC00020002069732000207265706F7274732098
:100DD0000020002069732063616C63756C61746529
:100DE0006420746F20626520002D2D2D2D2D2D2D5A
:100DF0002D2D2D2D2D2D2D2D2D2D2D2D2D2D2D2D23
:100E00002D2D2D2D2D2D2D2D2D2D2D2D2D2D2D2D12
:100E10002D2D2D0045786974696E67207465737493
:100E2000696E67206D6F6465002D2D2D2D2D2D2D84
:100E30002D2D2D2D2D2D2D2D2D2D2D2D2D2D2D2DE2
:100E4000002D2D2D2D2D2D2D2D2D2D2D2D2D2D2DFF
:100E50002D2D2D2D2D2D2D2D0043757272656E7447
:100E6000206C6F676765722074696D652069730017
:100E70002D2D2D2D2D2D2D2D2D2D2D2D2D2D2D2DA2
:100E80002D2D2D2D2D2D2D2D2D2D2D2D2D2D2D2D92
:100E90002D2D2D2D2D2D2D2D2D2D00456E74657292
:100EA000696E672073656E736F7220746573746901
:100EB0006E67206D6F6465002D2D2D2D2D2D2D2D30
:100EC0002D2D2D2D2D2D2D2D2D2D2D2D2D2D2D2D52
:100ED0002D2D2D2D2D2D2D2D2D2D2D2D2D2D2D2D42
:100EE0002D2D002D3E00416C6C207661726961628F
:100EF0006C65205555494427732061707065617297
:100F000020746F20626520636F72726563746C7900
:100F100020666F726D65642E0A006861732061201F
:100F20006E6F6E2D756E697175652055554944213A
:100F30000068617320616E20696E76616C6964205F
:100F40005555494421004C6F6767657220706F7278
:100F500074696F6E206F66207365747570206669A2
:100F60006E69736865642E0A0053616D706C696EFA
:100F7000672066656174757265205555494420691E
:100F8000733A006172652063616C63756C617465AE
:100F9000642E0073656E736F727320616E640063FC
:100FA0006F6D652066726F6D007661726961626C4B
:100FB00065732C206F6620776869636800546869E0
:100FC00073206C6F6767657220686173206120769B
:100FD00061726961626C6520617272617920776902
:100FE00074680043757272656E74205254432074A5
:100FF000696D652069733A002D2D2D4C6F67546F14
:10100000534420436F6D706C6574650A002D2D2D5F
:101010002D2D2D2D2D2D2D2D2D2D2D2D2D2D2D2D00
:101020002D2D2D2D2D2D2D2D2D2D2D2D2D2D2D2DF0
:101030002D2D2D2D2D2D2D0050696E000074696D04
:101040006573206265666F726520746865207265DD
:101050007365742E00736563207769746820746803
:101060006520696E74657272757074206669726944
:101070006E670057617463682D646F672074696DD3
:10108000656F75742069732073657420666F7200D4
:1010900074696D6573206265666F7265207468653A
:1010A0002073797374656D207265736574732E0097
:1010B0005761746368646F6720456E61626C656434
:1010C0002C20496E746572727570742077696C6C2F
:1010D00020666972650020657870656374656400D8
:1010E0002E2E2E205761746368646F67206C6F77B3
:1010F000206261726B73556E74696C5265736574AE
:1011000000205741544348444F47204953522062DE
:1011100061726B73556E74696C52657365740020EF
:101120002A2A2A2A205741544348444F4720576FC0
:101130006F6620576F6F662E205265736574696EF7
:10114000672050726F636573736F722A2A2A004496
:1011500042004C4D004D5900255600006661696CF7
:10116000656420746F2077616B6521006D6F646525
:101170006D486172645265736574206661696C655F
:10118000642100417474656D7074696E672061201C
:1011900068617264207265736574206F6E20746874
:1011A00065206D6F64656D2120004E6F2072657340
:1011B000706F6E736520746F20415420636F6D6D86
:1011C000616E64732100746F20726573706F6E645A
:1011D00020746F20415420636F6D6D616E64732EB7
:1011E0002E2E006D7320666F72000A576169746954
:1011F0006E6720757020746F002E2E2E2057694662
:101200006920636F6E6E656374696F6E20666169D5
:101210006C656400545000454500504B0045450046
:1012200049440027206661696C65642E0058626538
:1012300065202700586265655769666920696E698F
:1012400074207465737420504153534544005862B0
:1012500065655769666920696E6974207465737481
:10126000204641494C4544202D20686F7065206917
:101270007420776F726B73206E6578742074696D5B
:1012800065004E53005D00586265655769466920E8
:10129000495023205B005862656557694669206E96
:1012A0006F742072656365697665642049502320F8
:1012B0002D686F706520697420776F726B73206E74
:1012C0006578742074696D65004D590058626565D4
:1012D00057694669204150206E6F742052656769D6
:1012E000737465726564202D207265736574696E10
:1012F00067206D6F64756C652C20686F7065206960
:101300007420776F726B73206E6578742074696DCA
:1013100065004149004C6F6F703D5365635D2072FD
:1013200078206462203A20537461747573202350CE
:101330006F6C6C6564205374617475732065766599
:10134000727920317365632F333073656300302EFB
:10135000302E302E3000444C00544D00534F00537B
:101360004D0049500044390044380050520046773F
:10137000566572004877566572004D61632F536E53
:101380002000586265655769466920696E74657208
:101390006E657420636F6D6D732077697468005695
:1013A00052004856005348004552524F520D004FCC
:1013B0004B0D00534C005D207769746820004E4946
:1013C0005354206C6F6F6B7570206D646D49505B6A
:1013D000007570646174654D6F64656D4D65746111
:1013E0006461746120666F7263696E6720726573F1
:1013F0007461727420786265652E2E2E0027006459
:1014000065737A714E657874436820316572726FC6
:10141000723A006D532054696D656F757400776181
:101420006974656420002D2D20526573706F6E7392
:101430006520436F6465202D2D00202D2D204761F0
:1014400074657761792054696D656F757420776173
:10145000726E696E672062756666657220737A20A7
:10146000736D616C6C000A202D2D20556E61626CCD
:101470006520746F2045737461626C6973682043E2
:101480006F6E6E656374696F6E20746F20456E7643
:1014900069726F444959204461746120506F7274BD
:1014A000616C202D2D004932435F30784238006D49
:1014B0006F646275735F3078004932435F3078360D
:1014C0003800204932435F30780052533438352099
:1014D00057696E67626F61726420535443333130D1
:1014E0003020536E2000646174615075626C6973C2
:1014F0006865724261736520736574517565642017
:10150000636865636B004552524F5221204E6F2035
:1015100077656220636C69656E74206173736967B7
:101520006E656420746F207075626C6973682064E6
:1015300061746121003D005D00202050524F5649EA
:101540004445525F4D4D5720555549447320286EF0
:101550006F6E6520756E6C657373206C697374654E
:1015600064292C204D61783D000A2050524F564985
:101570004445525F4D4D572074696D6572506F73CD
:101580007450616365286D73293D000A2050524FE5
:1015900056494445525F4D4D572074696D657250F0
:1015A0006F7374546F7574286D73293D000A205051
:1015B000524F56494445525F4D4D572053616D700F
:1015C0006C696E6720466561747572653D000A201E
:1015D00050524F56494445525F4D4D572052656712
:1015E00020546F6B656E3D002050524F5649444564
:1015F000525F4D4D5720436C6F756449643D004602
:10160000726F6D20656570726F6D2050726F7669B4
:101610006465723A2050726F7669646572205479FD
:1016200070653D002053454E445F5155455F535A08
:101630005F4E554D3D0020504F53545F4D41585F14
:101640004E554D3D002053454E445F4F4646534551
:10165000545F4D494E3D000A0D20434F4C4C4543CD
:10166000545F52454144494E47533D002057694617
:10167000695077643D000A205769466949643D0016
:101680000A2041504E3D0046726F6D2065657072B4
:101690006F6D204E6574776F726B3A204E6574776C
:1016A0006F726B20547970653D002020204C6F6371
:1016B0003D0062617474657279206D4168723D000D
:1016C0006261747465727920747970653D006D692A
:1016D0006E757465732C20547A3D005D0A0D2020D0
:1016E000206C6F6767696E6720696E7465727661DA
:1016F0006C3D0046726F6D20656570726F6D206382
:101700006F6D6D6F6E3A204C6F676765722046692A
:101710006C65204E616D655B005D005D20736E5BE6
:10172000005D20207265765B0046726F6D206565F6
:1017300070726F6D20626F6F74204E616D655B001B
:10174000302E3562004D3132333435363738396119
:101750006263646566676800656E7669726F4449A6
:1017600059206D6179666C790050617273652069EA
:101770006E693B204E6F2066696C65200053656181
:10178000726368206572726F722120627265616B8C
:10179000206F7574206F66206C6F6F70002D3E0097
:1017A00050524F56494445525F78780050524F5638
:1017B000494445525F4D4D572074696D6572506FB5
:1017C000737420506163696E67286D7329005052ED
:1017D0004F56494445525F4D4D572074696D6572AF
:1017E000506F737420546F7574286D7329005052B4
:1017F0004F56494445525F4D4D572053616D7069B6
:101800006E6720466561747572650050524F564987
:101810004445525F4D4D572052656769737472613C
:1018200074696F6E20546F6B656E0050524F56494D
:101830004445525F4D4D5720436C6F7564496400B9
:101840004E4554574F524B2053454E445F515545DA
:101850005F535A5F4E554D004E4554574F524B20E3
:10186000504F53545F4D41585F4E554D004E4554B7
:10187000574F524B2053454E445F4F4646534554B5
:101880005F4D494E004E4554574F524B20434F4CED
:101890004C4543545F52454144494E47530027202D
:1018A0006E6F772027004E4554574F524B20576993
:1018B00046695077643A2077617320270027206EAD
:1018C0006F772027004E4554574F524B205769469B
:1018D0006949643A20776173202700434F4D4D4F8B
:1018E0004E2042617474657279206D4168723A20AD
:1018F00000434F4D4D4F4E20426174746572792004
:10190000547970653A2000434F4D4D4F4E204C6F37
:101910006767696E74657276616C3A2000434F4D5B
:101920004D4F4E204C6F6767657249642053657454
:101930003A200073657474696E6720746F20275FA6
:10194000272C20666F756E6420004572726F7220BE
:1019500021616C6E756D206C6F67676572206669BA
:101960006C6520706F730056005620474F4F443D02
:101970000056204D454449554D3D0056204C4F578B
:101980003D00205468726573686F6C647320555312
:101990004541424C453D0042617474657279205462
:1019A0007970653D0050757474696E67206D6F6461
:1019B000656D20746F20736C65657000436F756C86
:1019C00064206E6F742077616B65206D6F64656D48
:1019D00020666F72205254432073796E632E004349
:1019E0006F756C64206E6F7420636F6E6E656374C8
:1019F00020746F20696E7465726E657420666F72F4
:101A0000205254432073796E632E00436F6E6E65CF
:101A10006374656420746F20696E7465726E65749A
:101A200020666F72205254432073796E6320776969
:101A30007468204E4953540054686973206D61796D
:101A40002074616B6520757020746F2074776F202F
:101A50006D696E757465732100417474656D707481
:101A6000696E6720746F20636F6E6E656374207497
:101A70006F2074686520696E7465726E657420618C
:101A80006E642073796E6368726F6E697A65205236
:101A900054432077697468204E495354004461745C
:101AA000612077696C6C20626520736176656420C3
:101AB000617300556E61626C6520746F206372659E
:101AC00061746520612066696C6520746F207361A4
:101AD0007665206461746120746F210053657474AD
:101AE000696E672075702066696C65206F6E205383
:101AF00044206361726400535443333130302064B6
:101B00006961676E6F737469632073657420522016
:101B1000746F206D4F686D73200053544333313020
:101B20003020736E3A0053657474696E6720757067
:101B30002073656E736F72732E2E2E004C6F63616F
:101B40006C2054696D65200053796E632077697449
:101B500068204E495354206F766572205769466954
:101B6000206E6574776F726B20002D2D2D70617261
:101B70007365496E6920636F6D706C6574650A00EA
:101B80002D2D2D7061727365496E692053746172D9
:101B900074004261745620476F6F64203D0020201E
:101BA000426174562F6C702F636E74720027002789
:101BB00020736E3A2700207265763A2700426F61E3
:101BC00072643A200054696E7947534D204C696223
:101BD000726172792076657273696F6E20004D6F45
:101BE00064756C617253656E736F72732076657283
:101BF00073696F6E20005377204E616D653A200047
:101C00000A2D2D2D426F6F742E2053772042756957
:101C10006C643A20002C3078002C204541206D4126
:101C2000683D002C204555206D41683D002C204327
:101C3000206D41683D2C002C206D413D2C0020562C
:101C40003D2C0000002100240027002A0000002273
:101C500000250028002B000000200023002600297A
:101C60000000000000040308070000000102000952
:101C70000A0000000000000000000000000000005A
:101C80000070695364206572722064656C2F726500
:101C90006E20002064656C6574656400706953642F
:101CA0002065727220636F756C646E277420726594
:101CB0006E616D65200070695364206572722063E7
:101CC0006F756C646E27742064656C200072656E9D
:101CD000616D656420746F20005061727365496E98
:101CE000695364202000436F6D706C657465642EC9
:101CF000004572726F72206F6E206C696E65203ABB
:101D0000003A2070617273696E672D2D2D2D00458C
:101D100052524F52004F4400544D00544D00444520
:101D200000444C00495000435400475400475400BD
:101D3000415000414D3000465200414D3100455266
:101D4000524F520D004F4B0D007365727A5264650D
:101D50006C5F4C696E653B204E6F2066696C650058
:101D60002D2D2D6C6F6744617461416E64507562F6
:101D700052656C6961626C792020436F6D706C658F
:101D800074652D2D2D2D2D2D2D2D2D2D006C6F6776
:101D900044617461416E6450756252656C69616240
:101DA0006C79202D2073746F72652072656164698F
:101DB0006E67732C206E6F2070756200496E7465BB
:101DC000726E6574206661696C65642C206E6F208C
:101DD0005F6C6F674D6F64656D20004661696C656F
:101DE0006420746F2077616B652000436F6E6E65B1
:101DF0006374656420496E7465726E657420466113
:101E0000696C656400436C6F636B204E697374206A
:101E10004661696C656400436C6F636B204E697347
:101E2000742053796E6365640053796E6354696DF1
:101E300065436865636B2000436F6E6E6563746510
:101E40006420496E7465726E657400436F6E6E65D2
:101E50006374696E6720746F2074686520496E74BE
:101E600065726E65742077697468005265616420DC
:101E700073656E736F72732E2E2E00292D2D2D2DEE
:101E8000002D2D2D6C6F6744617461416E64507537
:101E90006252656C6961626C7920283078006C6FE1
:101EA0006744617461416E6450756252656C69612A
:101EB000626C79202D2074782063616E63656C6C90
:101EC0006564006C6F6744617461416E6450756253
:101ED00052656C6961626C79202D20616C6C2063A5
:101EE000616E63656C6C6564006C6F6744617461FE
:101EF000416E6450756252656C6961626C79202D27
:101F0000206F766572696465207769746820007354
:101F100065636F6E6473206F66204E4953542E00C4
:101F2000496E7465726E616C20436C6F636B2077D1
:101F3000697468696E2000496E7465726E616C2008
:101F4000436C6F636B20736574200042616420747E
:101F5000696D657374616D702C206E6F742073658C
:101F60007474696E6720636C6F636B2E002C4D5325
:101F7000472C00706F73744C6F674C696E652063FB
:101F8000616E2774206F70656E2066696C650073E2
:101F900065514646207467746F757446696C652E8A
:101FA000636C6F73653120657272007365514646CC
:101FB000207467746F757446696C652E72656E6106
:101FC0006D652065727200736551464620736572B7
:101FD0007A5175656446696C652E636C6F73653202
:101FE0002065727200736551464620636C6F73659D
:101FF00031206661696C6564206572720073655199
:102000004646205245424F4F542072656E616D65C1
:1020100031206572720073655146462065727220E8
:102020006661696C65642072656D6F7665007365C5
:1020300051464620657272372072656D6F76650075
:1020400073655146462072656D6F76653220657204
:1020500072002C6C61746573742072656164696EC2
:10206000677320646973636172646564002C7175C1
:10207000657565640073655146462073656E6451ED
:1020800075652053697A6520007365514646207452
:1020900067746F757446696C65207772697465330F
:1020A00020657272007365514646207467746F75BF
:1020B0007446696C65207772697465312065727247
:1020C000007365514646206F70656E3220657272EE
:1020D00000736551464620657272362072656D6FD9
:1020E00076650073655146462072656D6F76653181
:1020F00020657272007365514346205175652066F4
:102100006F72206E657874207061737320756E73C2
:10211000656E74207265636F7264730073655143FA
:1021200046207365727A5175656446696C652E63E5
:102130006C6F73653220657272007365727A4265E6
:1021400067696E206572722072656D6F76650064D6
:10215000655352432072656D6F766520657272001B
:102160007365727A426567696E2065727220636C6E
:102170006F736500646553524320636C6F73652011
:1021800065727200646552533B204E6F2066696C25
:102190006520007365727A51756564537461727459
:1021A000206F70656E2065727200707562445154C4
:1021B0005220504F53545F4D41585F4E554D207241
:1021C0006561636865640070756244515452206EA5
:1021D0006F7420656E6F75676820706F7765722009
:1021E000617661696C61626C65007365632E205174
:1021F00075657565642072656164696E67733D001D
:1022000072656164696E677320696E0053656E74F0
:102210000070756244515452207365727A5175652D
:102220006446696C20657272007075624451545244
:10223000205175656446756C6C2C20736B69702039
:1022400072656164696E672E2073656E6451756591
:1022500020005D000A707562445154522053656E2F
:1022600064696E67206461746120746F205B006C28
:102270006F67504C4F20657272206F70656E696E8B
:10228000670027006465737A4C696E65207265612A
:1022900064756E67207374617274206E6F7420664B
:1022A0006F756E640027006465737A4C696E6520F3
:1022B00045706F636820657272270027006465733C
:1022C0007A4C696E652065706F6368207374617203
:1022D00074206E6F7420666F756E640027006465ED
:1022E000737A4C696E6520537461747573206572DE
:1022F0007227002C302C002C002C002C504F5354F3
:102300002C00466F7263696E672072657365740096
:102310002C30580053644572726F723A2030580066
:10232000436865636B20534420666F726D61742E41
:10233000006572726F723A20007365744654547A65
:102340002065727220666F72200004040404040485
:102350000404020202020202020203030303030353
:102360000303010101010101010101020408102020
:10237000408001020408102040800102040810205F
:1023800040800102040810204080008080805D525F
:10239000544320416C61726D2073657420666F72C6
:1023A000206576657279206D696E7574652E205290
:1023B000656720636865636B207761732030780000
:1023C0000A2E2E2E207A7A7A5A5A204177616B652E
:1023D0002040002920205A5A7A7A7A2E2E2E002F59
:1023E00000476F696E6720746F20736C6565702E8F
:1023F0002052616D28004D4355206E6F7420456E4C
:1024000061626C65642C5573652061206E6F6E2D62
:102410006E656761746976652077616B65207069A8
:102420006E20746F207265717565737420736C65AE
:1024300065702100666F7200657870656374004591
:1024400052524F5220696E6920706172616D207422
:102450006F6F206C6F6E672C20676F7400002AB05E
:102460002CA411241FBECFEFD0E4DEBFCDBF1CE0F3
:10247000A0E0B1E0ECE7FCE801E00BBF02C0079090
:102480000D92AC34B107D9F725E2ACE4BCE001C051
:102490001D92A335B207E1F712E1C0E3D2E104C017
:1024A0002197FE010E94E2C1CF32D107C9F70E94F5
:1024B00059A40C9431C60C940000DC011E967C9348
:1024C0006E931D97ED91FC910484F585E02D0994A0
:1024D000DC0113967C936E93129715965C934E9342
:1024E0001497ED91FC910284F385E02DB9010994D4
:1024F0008091B21A811107C08091B31A811103C073
:1025000081E08093B11A0895089590E080E00895E5
:102510001F93CF93DF93EC018AA19BA1DC01ED9186
:10252000FC910284F385E02D0995182F8AA19BA1C7
:10253000DC01ED91FC910284F385E02D099520E00A
:10254000382FC901812BDF91CF911F910895DC01B4
:1025500050E0E1E4FAE081E0861730F49491490F0D
:10256000511D8F5F3196F8CF633038F0CD01837005
:102570009927892B11F44F5F5F4F9D012D5F3F4FCE
:1025800036952795369527956DE671E0A69FC00193
:10259000A79F900DB69F900D11240197820F931F56
:1025A000840F951F08958EBD00000DB407FEFDCF6A
:1025B0008EB50895BF92CF92DF92EF92FF920F9364
:1025C0001F93CF93DF93DB01FC019F012F5F3F4FF0
:1025D0008081803209F49EC01496FC93EE93139789
:1025E0009F0189010E1B1F0B722F632FE901899137
:1025F0009E01882379F08F3209F08EC0CF01800FC1
:10260000911F782F692FEC012991CE012032C9F357
:102610002F32B9F3EA0178836983E801CE0FDF1F17
:102620008E010E1B1F0BCE17DF0709F495C08A9190
:102630008E32B1F38032A1F30F3F110511F00CF08F
:102640006DC012961C930E931197ED012696CD0145
:10265000419620E229938C179D07E1F7EF019E0137
:102660002E1B3F0B89918E32D1F38032C1F381E072
:102670002115310509F080E0A80141505109EF0111
:10268000C00FD11F4F3F540709F069C0F12C67E01C
:10269000B12C70E0D8E0ED2E201731070CF0ACC063
:1026A0006F01C20ED31EE6019881903209F483C0F7
:1026B0009E3221F42417350709F07DC0D92F9232BC
:1026C000E1F09C37D1F0C6EDDC2ED90EC5E0CD157A
:1026D00010F09D3291F4C6ECDC2ED90EC5E0CD157C
:1026E00060F4C5EADC2ED90EC2E0CD1530F4CFED92
:1026F000DC2ED90ECDE5CD15C8F52417350709F028
:1027000076C06A3009F477C06AE098E0B92EC0E17B
:10271000EC2E52C0F90159CF8C3559F480E0DF918D
:10272000CF911F910F91FF90EF90DF90CF90BF90CE
:102730000895982F977F923289F38A3379F3982FEF
:102740009F7B9C3359F392EC980F923038F3805270
:102750008F3508F446CFE2CF10E000E072CF9A91B7
:102760009E3209F493CF415051098CCF241735077D
:1027700041F26B15F0F1CFE9DC2ED90EC9E1CD1590
:1027800008F19052FE28DD24D394DB0CED01CB0D33
:10279000D11D9E83D6E0DD1518F01596DC921597B5
:1027A000BD2C0AC04217530734F19A016AE0D8E001
:1027B000BD2E80E1E82E80E02F5F3F4F6DCF80E09F
:1027C0009FE5DFE5D154DA31F0F67E29DCCF81E0F8
:1027D0008C9315966C911597A60FB11D8EE71696E2
:1027E0008C93169781E317968C9381E098CF6B15A5
:1027F00030F76A30B9F680E016969C9116979032C1
:1028000009F48CCF882319F37F2111F0D2E0FD2E3B
:10281000FC9285CFFC019C01255F3F4F80E080FB4F
:10282000879587F99191890F2E173F07C1F7089572
:10283000FC01848583FF17C084A195A1A6A1B7A13F
:10284000448D558D668D778D841B950BA60BB70B2C
:10285000811520E89207A105B10520F08FEF9FE7D1
:10286000A0E0B0E0089580E090E0DC01F1CFDC0171
:10287000ED91FC910688F789E02D099591E0811191
:1028800001C090E0892F0895FC01E75AFF4F208195
:102890003181820F931FFC01878990E00895CF93C7
:1028A000DF931F92CDB7DEB7DC01ED91FC9102887A
:1028B000F389E02D41E050E0BE016F5F7F4F099545
:1028C000019731F4898190E00F90DF91CF910895C5
:1028D0008FEF9FEFF9CFDC011C96ED91FC91808189
:1028E0009181DC01ED91FC910680F781E02D099446
:1028F000CF93DF931F92CDB7DEB76983DC01ED91F3
:10290000FC910280F381E02D41E050E0BE016F5F59
:102910007F4F09950F90DF91CF910895DC01ED91E4
:10292000FC910688F789E02D099591E0811101C09D
:1029300090E0892F08950F931F93CF93DF9300D0DA
:1029400000D000D0CDB7DEB78C01DC01ED91FC9159
:102950000084F185E02D0995892B11F51B821C82DD
:102960001D821E82D8011C96ED91FC9145855685ED
:10297000678570898B819C81AD81BE81481759071D
:102980006A077B0779F0F801858926960FB6F894D7
:10299000DEBF0FBECDBFDF91CF911F910F91089584
:1029A00081E0F3CF80E0F1CFDC011C96ED91FC914A
:1029B00080819181DC01ED91FC910680F781E02D11
:1029C0000994DC011C96ED91FC9180819181DC01E0
:1029D000ED91FC910484F585E02D0994CF93DF936C
:1029E0001F92CDB7DEB76983DC01ED91FC910280C7
:1029F000F381E02D41E050E0BE016F5F7F4F09950C
:102A00000F90DF91CF9108950F931F93CF93DF9392
:102A100000D000D000D0CDB7DEB7DC01ED91FC9145
:102A2000048CF58DE02D2AEF34E03A832983DB0115
:102A300012960D911D912D913C9115970B831C833E
:102A40002D833E8330E020E0BE016F5F7F4F09950C
:102A500026960FB6F894DEBF0FBECDBFDF91CF91A3
:102A60001F910F910895DC01ED91FC91028CF38D83
:102A7000E02D2BE430E009948091EB0C8111FCCF28
:102A800008958091EA0C8F5F843408F080E0909183
:102A9000E90C9817E1F32FB7F8949091EB0C992378
:102AA00059F0E82FF0E0ED55F34F60838093EA0C86
:102AB0002FBF81E090E0089581E08093EB0C60935C
:102AC000E80C1092E70C82E086BB80916F00826078
:102AD00080936F00809180008F7B8068809380005E
:102AE0008091840090918500409690938900809316
:102AF0008800DECF90E080E00895BF92CF92DF9211
:102B0000EF92FF920F931F93CF93DF936B018C0192
:102B1000F12CE12CB02ED12FF801C1918F01CC23E3
:102B2000F1F0C114D10449F06C2F0C2E000C770B7E
:102B3000C6010E94DDC5892B91F4EF2851F06C2F5E
:102B40000C2E000C770B8FE395E00E94DDC5892BDE
:102B500031F48C2F90E00E943DBD7C01DBCF8B2DAA
:102B60009D2FDF91CF911F910F91FF90EF90DF90FC
:102B7000CF90BF9008950F931F93CF93DF938C0155
:102B8000EC0109900020E9F721970C171D0740F48C
:102B90008A9190E00E943DBD892B11F01882F5CFFB
:102BA000C801DF91CF911F910F9108952F923F920D
:102BB0004F925F926F927F928F929F92AF92BF924D
:102BC000CF92DF92EF92FF920F931F93CF93DF93F9
:102BD000CDB7DEB7CA5CD1090FB6F894DEBF0FBE21
:102BE000CDBF2B01FE01EB59FF4F1192119220E353
:102BF000DF01322F1D923A95E9F7FE01E956FF4FAA
:102C000011921192DF011D922A95E9F7D12CC12C66
:102C1000B12CA12C8B579D4F3C01FE0131967F01B9
:102C2000CE010496C753DF4F99838883C95CD04097
:102C3000B701C3010E949486892B09F4BCC09FEFA1
:102C4000A91AB90AA1E0AA16B10409F04FC08981F6
:102C50008F3E09F04BC08A818B3B09F047C08B81C6
:102C60008F3B09F043C0C753DF4F8881C95CD04018
:102C7000C653DF4F9881CA5CD0400E94BB158C01BF
:102C80004801F80131908F01332031F0832D90E01D
:102C90000E943DBD892BA1F7632D032C000C770BFF
:102CA00081E495E00E94DDC5892B11F6C956DF4FFE
:102CB0008881C759D0408823D9F0332009F4B8CF90
:102CC000E814F90408F073C0A401BE0169567F4FEF
:102CD000CE018B599F4FF2010995892B09F0A8CF9E
:102CE000C114D10409F0A4CF6501A2CFC701C5CF9B
:102CF000FBE53F1220C03FEF831A930A64E475E0BE
:102D0000C4010E947D15DC012C912D3549F71C92E0
:102D100041E350E0B401CE018B599F4F0E9408C699
:102D2000CA56DF4F1882C659D040C956DF4F1882A5
:102D3000C759D0407DCF332009F47ACF66E475E0DF
:102D4000C4010E947D15FC0120812D3311F02A332E
:102D500039F6DC011D928D01C4010E94BB154C01A6
:102D600070E060E0C8010E947D15FC012081211106
:102D700010821801D8018D918D01882329F090E0EF
:102D80000E943DBD892BA9F7C1010E94BB1541E3FB
:102D900050E0B401CE0189569F4F0E9408C6C85327
:102DA000DF4F1882C85CD040A101B40191CFFBE590
:102DB0003F12C4CFA0CF8C2DC653DF4F0FB6F8946F
:102DC000DEBF0FBECDBFDF91CF911F910F91FF905E
:102DD000EF90DF90CF90BF90AF909F908F907F90BB
:102DE0006F905F904F903F902F900895CF93DF9317
:102DF000EC019A818B819CBD8DBD60E08A850E942B
:102E0000378781E08C87DF91CF910895CF93DF934F
:102E1000FC012485222349F0EC0161E082850E94B7
:102E200037878FEF0E94D3121C86DF91CF910895D0
:102E3000CF93DF93EC0162E070E080E090E00E94CD
:102E4000B18CFE01E95AFF4FC75ADF4F8081918153
:102E500028813981821B930B97FF02C0805C9F4FB2
:102E6000DF91CF910895CF93DF93EC0162E070E0A2
:102E700080E090E00E94B18CEC85FD85808191819D
:102E8000DC01ED91FC910284F385E02DDF91CF917F
:102E90000994CF93DF93EC0162E070E080E090E072
:102EA0000E94B18CEC85FD8580819181DC01ED91E2
:102EB000FC910084F185E02DDF91CF910994CF93AF
:102EC000DF93EB01BC0184E19AE10E94E56960E2D5
:102ED00084E19AE10E943168BE0184E19AE1DF91C8
:102EE000CF910C9413850C9465BACF93DF93EC01CA
:102EF000688582E59AE00E946F6F8885DF91CF91A7
:102F00000895FC01808181110FC080E2DF01982FBC
:102F10001D929A95E9F777836683DB0115969C915C
:102F2000903129F0903211F080E0089580E48083A0
:102F300081E0828308952F923F924F925F926F9229
:102F40007F928F929F92AF92BF92CF92DF92EF9239
:102F5000FF920F931F93CF93DF93CDB7DEB72C97DC
:102F60000FB6F894DEBF0FBECDBF5C011B015E83C0
:102F70004D8362E070E080E090E00E94B18C0E949E
:102F80003B8D2B013C01F12CE12C9501295A3F4F3F
:102F900038872F83C501875A9F4F9C838B83F50108
:102FA0007796FA87E9872D813E81E216F30608F0CD
:102FB00082C00E943B8D6419750986099709F50145
:102FC0000481158126813781601771078207930775
:102FD00008F071C0EF81F8850190F081E02DFA834F
:102FE000E983EB81FC818081918129813A81281BD1
:102FF000390B3A83298337FF04C0205C3F4F3A8363
:10300000298389819A819C878B878D819E818E19E6
:103010009F09EB85FC85E817F90708F446C09C87F3
:103020008B87CB84DC843A822982EB81FC8180808F
:103030009180EF81F885808191818819990997FFA6
:1030400002C0805C9F4F009749F100E410E008192E
:103050001909C016D1060CF48601801791070CF4EB
:103060008C0169857A85680D791DA80189819A810D
:103070000E94B0C5800E911EFFE38F229924EB8140
:10308000FC8191828082C01AD10A29813A81200F65
:10309000311F3A832983C114D10439F68B859C856D
:1030A000280E391EE80EF91E7ECF2B853C85232B7A
:1030B00009F479CFB6CFC7012C960FB6F894DEBFCE
:1030C0000FBECDBFDF91CF911F910F91FF90EF9079
:1030D000DF90CF90BF90AF909F908F907F906F9038
:1030E0005F904F903F902F900895EF92FF920F9333
:1030F0001F93CF93DF931F92CDB7DEB77C01962F3E
:10310000F70140895189628973898A019B0185E0B1
:1031100036952795179507958A95D1F70F7011F079
:10312000911129C0BE016F5F7F4FC7010E946A8560
:10313000813051F090E080E00F90DF91CF911F91AE
:103140000F91FF90EF900895F70180899189A289EE
:10315000B3894F96A11DB11D808B918BA28BB38B30
:10316000F701868197818B96F0E20F9F90011124E1
:10317000820F931FE1CF405E5F4F6F4F7F4F408BB9
:10318000518B628B738BECCF8F929F92AF92BF92D9
:10319000CF92DF92EF92FF920F931F93CF93DF9323
:1031A0001F92CDB7DEB78C01FC01848C958CA68C68
:1031B000B78CC08CD18CE28CF38CBE016F5F7F4FDB
:1031C0000C960E946A850197C9F4898190E0F80104
:1031D000848E958EA68EB78EC08ED18EE28EF38EA3
:1031E0000F90DF91CF911F910F91FF90EF90DF90A3
:1031F000CF90BF90AF909F908F9008958FEF9FEFEB
:10320000E6CFCF93DF931F92CDB7DEB7BE016F5FDE
:103210007F4F0C960E946A85019731F4898190E076
:103220000F90DF91CF9108958FEF9FEFF9CFCF925D
:10323000DF92EF92FF92C090281FD090291FE0905C
:103240002A1FF0902B1F2DEC3CEC4CE950E4C701F9
:10325000B6010E9410C31816D4F468E572E084E148
:103260009AE10E94E56924E030E0B701A60184E11B
:103270009AE10E941C6984E19AE10E94F56784E268
:10328000C82E89EBD82E8CEFE82E8DE3F82EC701DF
:10329000B601FF90EF90DF90CF900895CF92DF922C
:1032A000EF92FF92CF93DF93EC010E9417196B010D
:1032B0007C01C0923123D0923223E0923323F092EA
:1032C0003423C130D10509F466C0229709F46EC0D9
:1032D00020E030E040E05FE30E9409C087FF08C0C3
:1032E00084E090E090939D0C80939C0C81E046C01C
:1032F000809135239091362324E1289FE001299F76
:10330000D00D1124CF5CDC4D2A893B894C895D8925
:10331000C701B6010E9410C387FFE2CF2E853F850B
:1033200048895989C701B6010E9410C387FF30C080
:103330002A853B854C855D85C701B6010E9410C377
:1033400087FF23C02E813F8148855985C701B6017B
:103350000E9410C387FF0CC010929D0C10929C0C11
:1033600070E060E083E599E00E945F1780E006C0AE
:1033700081E090E090939D0C80939C0CDF91CF9125
:10338000FF90EF90DF90CF90089582E090E0AACF79
:1033900083E090E0A7CF60919C0C70919D0C85EA32
:1033A00099E0633071050CF0A1CFDECF60919C0CE9
:1033B00070919D0C643071050CF098CF8BE799E00B
:1033C000D3CFCF93DF93EC01E881F9810084F185BD
:1033D000E02D0995892B31F48C859D85DF91CF9166
:1033E0000C942F9381E0DF91CF910895EF92FF929B
:1033F0000F931F93CF93DF93EC018B017A0162E06F
:1034000070E080E090E00E94B18CA701B8018C854B
:103410009D85DF91CF911F910F91FF90EF900C94BC
:10342000E994EF92FF920F931F93CF93DF93EC01F8
:103430008B017A0162E070E080E090E00E94B18C44
:10344000A701B8018C859D85DF91CF911F910F91C8
:10345000FF90EF900C94E99481110C947E6E0C9483
:10346000766EEF92FF920F931F93CF93DF937C01C1
:10347000EB018A0162E070E080E090E00E94B18C94
:10348000D7011C96ED91FC91A801BE01808191812C
:10349000DF91CF911F910F91FF90EF900C94716786
:1034A000CF92DF92EF92FF920F931F93CF93DF9310
:1034B00000D000D000D0CDB7DEB78C016B017A010F
:1034C000FC01848595850E94AD6FF8018485958502
:1034D00026854AEF54E05A834983F601428153819D
:1034E000648175814B835C836D837E83A701BE01FC
:1034F0006F5F7F4F0E9443A2F801858B90E0269674
:103500000FB6F894DEBF0FBECDBFDF91CF911F91F4
:103510000F91FF90EF90DF90CF900895EF92FF9280
:103520000F931F93CF93DF937B01EA018901BC01C5
:1035300084E19AE10E94E56960E284E19AE10E94F7
:1035400031684AE050E0B70184E19AE10E941268D4
:1035500060E284E19AE10E943168B801CE01DF9116
:10356000CF911F910F91FF90EF900C94936FCF9399
:10357000C62FBC0184E19AE10E94E56960E284E122
:103580009AE10E9431684AE050E06C2F84E19AE1B0
:10359000CF910C941F68BC0184E19AE10C94F96707
:1035A000CF93DF93EB01BC0184E19AE10E94E569CE
:1035B00060E284E19AE10E943168CE01DF91CF910F
:1035C0000C94CB1ACF93DF93EC01FB0182819381A2
:1035D0009B838A8386E394E09983888384819581A1
:1035E000A681B7818C839D83AE83BF8380859185BF
:1035F000A285B38588879987AA87BB8780E23C9696
:10360000DE011C9601900D928A95E1F787E292E027
:1036100099838883DF91CF9108952F923F924F92A3
:103620005F926F927F928F929F92AF92BF92CF9252
:10363000DF92EF92FF920F931F93CF93DF9300D00F
:1036400000D000D01F92CDB7DEB70E94C6895C8340
:103650006D837E83632F822F90E00E94A7129C01CE
:10366000A8E1B0E00E9480C12C817B018C01E20EB8
:10367000F11C011D111DA8019701ACE3B0E00E94EF
:1036800075C12D817B018C01E20EF11C011D111D04
:10369000A80197010E9475C12E811B012C01220EE9
:1036A000311C411C511C00E8201A0CEB300A02E9C5
:1036B000400A07EC500A6091E51920E13EE0620300
:1036C000A001639F500D1124952F990F990B9A011A
:1036D000492F592F692F792F892F51016201E12C30
:1036E000F12C00E010E00E94F2C1B901CA01279656
:1036F0000FB6F894DEBF0FBECDBFDF91CF911F9103
:103700000F91FF90EF90DF90CF90BF90AF909F9080
:103710008F907F906F905F904F903F902F90089583
:10372000CF93DF93EC01DB011D96ED91FC9150E00E
:10373000440F551F80819181480F591FFA01608104
:103740007181CE010E94629FCE01DF91CF910895D9
:10375000FC01818587FD03C060E00C9437870895E4
:10376000FC01818587FD03C061E00C9437870895D3
:103770001F93CF93DF93EC018F8187FD13C0162F2A
:1037800061E00E94608C60E08F810E943787112386
:1037900049F068EE73E080E090E0DF91CF911F91F7
:1037A0000C94B18CDF91CF911F910895FC0113828D
:1037B000128288EE93E0A0E0B0E084839583A68334
:1037C000B78314861586168687E292E091838083FC
:1037D00008958F929F92AF92BF92CF92DF92EF9215
:1037E000FF92CF93DF93EC0189819A812DA13EA1B5
:1037F0007C01E21AF30A9EA38DA36D8D7E8D90E06D
:1038000080E00E940EC09B01AC0166E676E686ED84
:1038100090E40E9468C24B015C01B701FF0C880B69
:10382000990B0E9410C09B01AC01C501B4010E941C
:103830006FC06FA378A789A79AA72FA538A949A910
:103840005AA90E94FCC16B017C01CFA6D8AAE9AAA3
:10385000FAAA20E030E040E251E40E9409C087FF6C
:1038600013C080E090E0A0E2B1E48FA798ABA9ABD1
:10387000BAABDF91CF91FF90EF90DF90CF90BF90E8
:10388000AF909F908F9008958BA49CA4ADA4BEA4EC
:10389000A5019401C701B6010E9410C318164CF788
:1038A0008FA698AAA9AABAAAE4CF0F931F93CF9381
:1038B000DF93EC01062F142F8CA10E9460858AA152
:1038C0009BA1DC01ED91FC910190F081E02D602F36
:1038D00009958AA19BA1DC01ED91FC910190F081F9
:1038E000E02D612F09958AA19BA1DF91CF911F91B6
:1038F0000F910C94C389CF93DF93EC0181E089A3EE
:1039000043E061E0CE010E94551C88A1811180E155
:103910004F8D440F482B60E0CE010E94551C81E082
:10392000DF91CF910895EF92FF920F931F93CF9362
:10393000DF938C01EB01FC01608170E06053784FF4
:10394000CE010E94D1616DE2CE010E945A62F8015F
:10395000E180F12CFAE0EF16F10420F460E3CE01EF
:103960000E945A62B701CE010E94D1616DE2CE0180
:103970000E945A62F801E280F12CFAE0EF16F1049D
:1039800020F460E3CE010E945A62B701CE010E948A
:10399000D16160E2CE010E945A62F801E380F12C0D
:1039A000FAE0EF16F10420F460E3CE010E945A62BF
:1039B000B701CE010E94D1616AE3CE010E945A6232
:1039C000F801E480F12CFAE0EF16F10420F460E352
:1039D000CE010E945A62B701CE010E94D1616AE312
:1039E000CE010E945A62F801058110E00A301105EB
:1039F00020F460E3CE010E945A62B801CE01DF914B
:103A0000CF911F910F91FF90EF900C94D1618F9205
:103A10009F92AF92BF92CF92DF92EF92FF920F935D
:103A20001F93CF93DF93EC016A017B012CE3822E7D
:103A3000912CA12CB12CCB01BA01A50194010E94BB
:103A4000C3C16D83CA01B901A50194010E94C3C11C
:103A50006C83C701B60120E13EE040E050E00E94E7
:103A6000C3C1CA01B90128E130E040E050E00E9442
:103A7000C3C16B83C701B60120E831E541E050E0E6
:103A80000E94C3C118829881692F637041E050E0A1
:103A900011F050E040E0FA01E459FE4FE217F3075D
:103AA00044F443595E4F241B350BE1E0E90FE883F2
:103AB000EACF81E089838981E82EF12CF701E05C6F
:103AC000F54FE491611103C0823009F4EF5FF0E03B
:103AD0002E173F0724F02E1B3F0B8F5FEBCF2F5F7E
:103AE0002A83E92FF0E0E053F84F41E050E08330C3
:103AF00010F050E040E0E41BF50B8F0115950795A1
:103B0000159507950E0F1F1FCF016CE97FEF0E94DF
:103B1000AFC1060F171FCF0160E971E00E94AFC16E
:103B2000060F171FF701EE0FFF1FE75FFE4F8081A3
:103B30009181800F911F820F911D67E070E00E94BC
:103B4000AFC18F5F8E83DF91CF911F910F91FF9057
:103B5000EF90DF90CF90BF90AF909F908F9008959F
:103B6000DC01ED91FC910190F081E02D0994CF9260
:103B7000DF92EF92FF920F931F93CF93DF93EC01AD
:103B80008B018CA10E94608568E170E08AA19BA1F5
:103B90000E94B01D8AA19BA10E94C3896CA1062E20
:103BA000000C770B48E050E08AA19BA10E94AE88F0
:103BB0007801680188E0C80ED11C8AA19BA1DC01B4
:103BC000ED91FC910284F385E02D0995F701819335
:103BD0007F01EC15FD0589F79801295F3F4FD8015A
:103BE000E0E02A173B0739F08D91E827F0E0ED5D22
:103BF000FE4FE081F6CF81E0D80117969C919E138D
:103C000080E0DF91CF911F910F91FF90EF90DF90B7
:103C1000CF9008958F929F92AF92BF92FF920F9391
:103C20001F93CF93DF93EC018CA10E94608562E02B
:103C300070E08AA19BA10E94B01D8AA19BA10E9455
:103C4000C389F82E81118AC06CA1062E000C770B57
:103C50004AE050E08AA19BA10E94AE88CE010E945A
:103C600088128C019A8389836D8D7E8D90E080E02F
:103C70000E940EC09B01AC0166E676E686ED90E4FC
:103C80000E9468C24B015C01B801110F880B990BAF
:103C90000E9410C09B01AC01C501B4010E946FC01D
:103CA0006B837C838D839E83CE010E9488129887CC
:103CB0008F83CE010E9488128C011F73011520E2B0
:103CC00012070CF010546D8D7E8D90E080E00E9404
:103CD0000EC09B01AC016CEE71E58CE391E40E9497
:103CE00068C24B015C01B801110F880B990B0E944F
:103CF00010C09B01AC01C501B4010E946FC069876F
:103D00007A878B879C87CE010E948812BC0190E045
:103D100080E00E940EC028E638EE4FE15BE30E948F
:103D20006FC06D877E878F87988BCE010E94881227
:103D30009F70811528E092070CF09051BC01990FFB
:103D4000880B990B0E9410C020E030E040E05EE359
:103D50000E946FC0698B7A8B8B8B9C8B8F2DDF9130
:103D6000CF911F910F91FF90BF90AF909F908F9038
:103D700008958FEF0C94D3120F931F93CF93DF937B
:103D80008C01862FEA010E94D312FE0181918EBD23
:103D9000DE5FEC17FD0741F081910DB407FEFDCF0A
:103DA0008EBD00000000F5CF0DB407FEFDCF8FEFF4
:103DB0000E94D3128FEF0E94D3120E94B91EF80105
:103DC00085878F71853059F080E28387C8010E9412
:103DD000061780E0DF91CF911F910F91089581E048
:103DE000F9CFDF92EF92FF920F931F93CF93DF9360
:103DF000EC01162F022FF32EE42ED52E888581118B
:103E00002DC08C85811103C0CE010E94F6161123AE
:103E100021F08CE291E00E94478D812F80640E9406
:103E2000D3128D2D0E94D3128E2D0E94D3128F2D6E
:103E30000E94D312802F0E94D31287E8111101C073
:103E400085E90E94D3120E94B91E1BE00E94B91E90
:103E50008D8787FF09C01150C9F706C0CE010E94A7
:103E60003C1F8111CECF8FEFDF91CF911F910F912A
:103E7000FF90EF90DF9008951F93CF93DF93EC01B5
:103E8000888518868230A9F488E592E00E94478DE3
:103E9000182F882359F08DEF0E94D312CE010E9473
:103EA0000617812FDF91CF911F9108958EE18B87A7
:103EB000F5CF813099F420E030E0A9016CE0CE012B
:103EC0000E94F11E882339F089E08B87CE010E9481
:103ED000061710E0E6CFCE010E94061711E0E1CFF1
:103EE0008F929F92AF92BF92CF92DF92EF92FF920A
:103EF0000F931F93CF93DF93EC014A015B0169019C
:103F00008885823049F48C819D81AE81BF8188157E
:103F10009905AA05BB05C1F08E85A50194018330E2
:103F200039F089E0220F331F441F551F8A95D1F7BE
:103F300069E1CE010E94F11E811113C08C829D8225
:103F4000AE82BF8282E08887F12CE12CE016F10678
:103F500059F188E592E00E94478D811118C084E2F2
:103F600001C08EE08B87CE010E940617CE010E9411
:103F7000061780E0DF91CF911F910F91FF90EF9096
:103F8000DF90CF90BF90AF909F908F900895A60143
:103F90006CEFCE010E94BC1E882329F38FEFE81A34
:103FA000F80A8EEFD81AD2CF8C819D81AE81BF8165
:103FB0008E0D9F1DA11DB11D8C839D83AE83BF837C
:103FC0008985882379F0CE01DF91CF911F910F91E0
:103FD000FF90EF90DF90CF90BF90AF909F908F9029
:103FE0000C943C1F81E0C6CFEF92FF920F931F937A
:103FF000CF93DF93EC0179018985882361F18E8568
:10400000833039F089E0440F551F661F771F8A956A
:10401000D1F79A01AB0168E1CE010E94F11E88231D
:1040200039F08DE08B87CE010E94061710E00BC09F
:10403000A7016EEFCE010E94BC1E182F882399F3B2
:10404000CE010E940617812FDF91CF911F910F9112
:10405000FF90EF90089501E010E0CE010E94701FE4
:10406000182FF1CFEF92FF921F93CF93DF93FC01B4
:10407000208111E020FF12C0EC017C01FBE0EF0E7B
:10408000F11C4F81588569857A85970189819A81CC
:104090000E94F41F182F811108C010E0812FDF91BA
:1040A000CF911F91FF90EF900895888181FD04C00A
:1040B00088818E7F8883F2CF4F81588569857A8584
:1040C0008B819C81AD81BE81480F591F6A1F7B1F68
:1040D000970189819A810E94F41F8111E9CFDDCF78
:1040E0008F929F92AF92BF92CF92DF92EF92FF9208
:1040F0000F931F93CF93DF93EC014A015B0179018A
:104100008885813049F48C819D81AE81BF8188157D
:104110009905AA05BB05C1F08E85A50194018330E0
:1041200039F089E0220F331F441F551F8A95D1F7BC
:1041300062E1CE010E94F11E811123C08C829D821A
:10414000AE82BF8281E0888781E0E81A8EEFF80AAC
:10415000D12CC12C99249A94C016D10609F449C0D7
:104160000E943B8D5B010E94B91E8D878F3FE1F459
:104170000E943B8D6A197B096D327140A0F38DE17D
:1041800001C08CE08B87CE010E94061780E0DF9192
:10419000CF911F910F91FF90EF90DF90CF90BF9044
:1041A000AF909F908F9008958E3F11F088E1EACFF5
:1041B0009EBCF701EF5FF140EE16FF0649F00DB42B
:1041C00007FEFDCF8EB59EBC819300000000F4CFAA
:1041D0000DB407FEFDCF8EB5F70180831D860E94CA
:1041E000B91E0E94B91EFFEFCF1ADF0A8EEFF81A30
:1041F000B3CF8C819D81AE81BF818C0D9D1DA11D92
:10420000B11D8C839D83AE83BF838985882379F01C
:10421000CE01DF91CF911F910F91FF90EF90DF9032
:10422000CF90BF90AF909F908F900C943C1F81E0F7
:10423000AECF8F929F92AF92BF92FF920F931F9338
:10424000CF93DF93DC011196ED91FC91EF2B61F49C
:1042500090E080E0DF91CF911F910F91FF90BF9090
:10426000AF909F908F900895F22E4A015B01EC0170
:104270008F819885A985BA8588159905AA05BB05FA
:1042800061F0CE010E943220882311F3F2FE0DC0AE
:1042900018828F829886A986BA862F2D2370F8807F
:1042A000F22AF882CE010B96D5CF01E010E09E01F4
:1042B000255F3F4FB501A40189819A810E9470203A
:1042C0008111E6CFC5CF8F929F92AF92BF92CF92CE
:1042D000DF92EF92FF920F931F93423051056105D9
:1042E000710560F480E01F910F91FF90EF90DF90D7
:1042F000CF90BF90AF909F908F900895FC01C08C9D
:10430000D18CE28CF38CC416D506E606F70650F382
:10431000480159016A017B018581803241F5848918
:104320009589A689B78917E076956795579547953A
:104330001A95D1F7480F591F6A1F7B1F23E0CF0141
:1043400080960E941921009769F2E894C7F8DD244D
:10435000EE24FF24CC0CDD1CCC0CDD1C8C0D9D1D33
:10436000FC0180829182A282B38281E0BCCF803145
:1043700009F0B8CF44895589668977894D0D511D5B
:10438000611D711D23E0CF0180960E9419210097C5
:1043900009F4A8CFDD24EE24FF24CC0CDD1CC80ECC
:1043A000D91EF60111830083E0CFCF92DF92EF9206
:1043B000FF920F931F93CF93DF9342305105610516
:1043C000710550F48FEFDF91CF911F910F91FF9006
:1043D000EF90DF90CF900895FC01C08CD18CE28CDF
:1043E000F38CC416D506E606F70660F389016A0168
:1043F0007B01EC0185818032B1F584899589A6899C
:10440000B789E7E07695679557954795EA95D1F78F
:10441000480F591F6A1F7B1F22E0CE0180960E9421
:104420001921009779F2E894C7F8DD24EE24FF24DF
:10443000CC0CDD1CCC0CDD1C8C0D9D1DFC01808189
:104440009181A281B381488D598D6A8D7B8D4817EA
:1044500059076A077B0738F1F80180839183A283AB
:10446000B38381E0B0CF803109F0ACCF4489558966
:10447000668977894D0D511D611D711D22E0CF01A7
:1044800080960E941921009709F49CCFDD24EE2428
:10449000FF24CC0CDD1CC80ED91EF6018081918151
:1044A000B0E0A0E0D0CF80E08ECF9F92AF92BF92DD
:1044B000CF92DF92EF92FF920F931F93CF93DF93F0
:1044C00000D000D0CDB7DEB75C016A017B019E0150
:1044D0002F5F3F4FB701A601C5010E94D521982E3D
:1044E00087FD34C000E010E09801B701A601C501C6
:1044F0000E946321882351F1F50140855185628531
:104500007385C416D506E606F70650F4F1E0CF1A17
:10451000D108E108F108F501C086D186E286F3866C
:10452000C980DA80EB80FC809110D1CF0F900F9082
:104530000F900F90DF91CF911F910F91FF90EF900F
:10454000DF90CF90BF90AF909F90089580E0EECF26
:104550004F925F926F927F928F929F92AF92BF9293
:10456000CF92DF92EF92FF920F931F93CF93DF933F
:10457000EC014A015B014C845D846E847F84288158
:10458000222309F45CC0488959896A897B894815C6
:1045900059056A057B0581F081149104A104B104D9
:1045A00069F41C861D861E861F86888A998AAA8AB7
:1045B000BB8A8A818F7D8A8381E046C023FF2CC01D
:1045C000888D998DAA8DBB8D88159905AA05BB0587
:1045D000B0F1EE81FF813481375F7501640181E0C4
:1045E000C81AD108E108F108032E04C0F694E79434
:1045F000D794C7940A94D2F78A8186FF36C08C8DEF
:104600009D8DAE8DBF8D8C0D9D1DAE1DBF1D8C87EC
:104610009D87AE87BF87C9CF25FFDBCFEE81FF81A6
:104620008681978125E0880F991F2A95E1F7B0E0F0
:10463000A0E088159905AA05BB0508F0B6CF4C8601
:104640005D866E867F8680E0DF91CF911F910F910E
:10465000FF90EF90DF90CF90BF90AF909F908F90A2
:104660007F906F905F904F900895DB01CA01019792
:10467000A109B10904C0B695A795979587953A9574
:10468000D2F7C816D906EA06FB0620F0452B462BC2
:10469000472B49F526FF22C0848D958DA68DB78DB9
:1046A0008C879D87AE87BF878E01045F1F4FC11423
:1046B000D104E104F10409F478CF4C855D856E8561
:1046C0007F8598018E819F810E94D52191E0C91A32
:1046D000D108E108F108181654F3B1CF8C8D9D8DE7
:1046E000AE8DBF8DDDCFC81AD90AEA0AFB0ADCCF2E
:1046F0003F924F925F926F927F928F929F92AF9272
:10470000BF92CF92DF92EF92FF920F931F93CF93BE
:10471000DF9300D000D0CDB7DEB75C01FC0144844C
:1047200055846684778486809780F401C084D18420
:10473000E284F384C414D504E604F704C0F47301DE
:10474000620110E0FFEFCF1ADF0AEF0AFF0AF4015F
:10475000808D918DA28DB38D8C159D05AE05BF0505
:1047600040F4111132C0C084D184E284F38411E09A
:10477000E9CF4C145D046E047F0439F19E012F5F74
:104780003F4FB701A601C4010E94D52187FD1DC07E
:104790008823C1F289819A81AB81BC81892B8A2BC4
:1047A0008B2B81F6112329F0F401C086D186E28695
:1047B000F3860FEF1FEF2FEF3FE0B701A601C40113
:1047C0000E946321382E811118C0312C832D0F9047
:1047D0000F900F900F90DF91CF911F910F91FF904D
:1047E000EF90DF90CF90BF90AF909F908F907F9091
:1047F0006F905F904F903F90089541145104610471
:104800007104B9F4F501C486D586E686F7868281FF
:104810004114510461047104B1F0FFEF4F1A5F0AB3
:104820006F0A7F0A4C145D046E047F0479F08F7B5D
:104830000BC097018601B301A201C4010E9463214C
:104840008111E0CFC2CF8064F5018283F5018281BE
:1048500080688283BBCFAF92BF92CF92DF92EF92FC
:10486000FF920F931F93CF93DF93EC01888185FF15
:104870000DC010E0812FDF91CF911F910F91FF901C
:10488000EF90DF90CF90BF90AF900895888999897D
:10489000AA89BB8981159E4FAF41B10550F7CE0162
:1048A0000E947823182F882321F3EE81FF81CC8486
:1048B000DD84EE84FF8432E0C31AD108E108F108F8
:1048C000848104C0CC0CDD1CEE1CFF1C8A95D2F741
:1048D00080899189A289B389C80ED91EEA1EFB1E60
:1048E00025E0B701A601CF0180960E9419215C0145
:1048F000892B09F4BECF80E092E0F5019C01119272
:1049000021503040E1F701E0EE81FF8182810817FC
:1049100080F49501B701A601400F511D611D711D65
:10492000808191810E94F41F882309F4A2CF0F5F38
:10493000EBCF848120E032E002C0220F331F8A9542
:10494000E2F788899989AA89BB89820F931FA11DE3
:10495000B11D888B998BAA8BBB8B8CCF2F923F92EA
:104960004F925F926F927F928F929F92AF92BF927F
:10497000CF92DF92EF92FF920F931F93CF93DF932B
:10498000CDB7DEB72B970FB6F894DEBF0FBECDBF05
:104990008C017B836A83FA01DB018C91807711F4AF
:1049A00080E0D7C2D8018C918111FACF418052802A
:1049B00080818370BB24B394882349F0C2010C9694
:1049C0006DE070E00E949BC1BB24B394B60E2983B6
:1049D0003F01EA81FB81FB87EA8740E050E0BA01B2
:1049E000CF010E94A822A12C912CC12CD12CE12C0A
:1049F000F12C812C93012A5F3F4F3F832E834B2D57
:104A00004150550B59874887EA85FB8580899189F4
:104A1000A289B3899C01AD0165E05695479537950C
:104A200027956A95D1F72A833B834C835D832A803F
:104A30003B8061E0CF010E947518009709F064C0C7
:104A4000AA85BB8511968C918111AACF298124FF5B
:104A5000A7CF822F83708150823008F0A1CFEE2043
:104A600011F02A2C392CEB1408F560E08A859B851F
:104A70000E947518892B09F027C1AA85BB8511965C
:104A80008C9181118DCF8A859B850E942B24882350
:104A900009F486CFAA85BB851696ED91FC9182819B
:104AA000823020F4B0E1EB0EEB1468F3882009F4B7
:104AB0003EC1F301A58082E0C82ED12C9EE7992E3D
:104AC0007301F6E0EF0EF11CD30111962D913C918C
:104AD0001297C601820F931F1396ED91FC912E0F32
:104AE0003F1F2E173F0709F4F1C0AC01B5E0440F9A
:104AF000551FBA95E1F7480F591F8191082E000CF8
:104B0000990B84279527EDCFFC012081253E11F0DC
:104B100021110EC0E11002C0AA809B80EB1408F4A2
:104B2000E394222309F492CF253E21F4F12C6CCF9B
:104B3000EB1488F12E32D1F3DC011B963C911B97CC
:104B40003F3009F05FC0F11028C026FF5DCF2F7104
:104B5000D22EE885F9852E171F0609F055CF1D9630
:104B6000CC90F22EED2DE150FF0BAF01FDE0F49F54
:104B70009001F59F300D112424153505B8F6FC0180
:104B800060E0653090F48181928142165306A9F469
:104B9000892B61F639CFE12CCDCFDA942D11C6CF18
:104BA0001D962C912C15F1F2C1CF6B3018F4848135
:104BB0009581EBCF86819781E8CF8F3F910511F0EA
:104BC00008F0B4CF4FEB480F782F4A3110F470E261
:104BD000780FA9014F5F5F4FD30113968D919C9180
:104BE000280F391FD9018C919FEB980F9A3108F447
:104BF000805E87139BCF6F5F32966D3009F404CFD0
:104C00009A01BFCF33FD92CFFF2009F44DC0B1E030
:104C1000DB12C6CE0E940A148C11C2CEF981F6FDB9
:104C2000BFCE80E2F80111928A95E9F7AA85BB858B
:104C300016962D913C911797F8013783268335827C
:104C400024825C964D915D916D917C915F97408738
:104C5000518762877387F901BB96BFE02B2233240B
:104C600045E0220C331C4A95E1F7E20DF31D8385E4
:104C700083FD15C08771D8018C939385987111F4C9
:104C800088608C93D8011396FC928981837081305F
:104C900009F47AC108F41EC1823009F473C1D80145
:104CA0001C9212961C927CCE4BE050E06E817F816C
:104CB0000E94A3C5892B09F0A7CEF301808180FF54
:104CC000ADCF88248394A0CEE394CDCEB3E0BA15C3
:104CD00010F4A3E0AA2E34E03A0D282F2F702A30CA
:104CE00008F08EC0205DF301E30FF11D2683F4E090
:104CF00096958795FA95E1F73150A31670F3F30175
:104D0000EA0DF11D968240E050E0BA018A859B854C
:104D10000E94A82261E08A859B850E9475180097F1
:104D200009F070C0EA85FB858181811139CEA1012E
:104D300070E060E0E5E0440F551F661F771FEA95BD
:104D4000D1F78A859B850E94A822882309F428CE62
:104D5000FF24FA94FB0CEF2C6FE0962E5301F6E043
:104D6000AF0EB11C7DE0872EEE2009F479C060E023
:104D70008A859B850E9475186C01892B09F410CED9
:104D8000AA85BB851696ED91FC9180A1816080A3D8
:104D90003E2CEF1002C0689436F8F60130829386FC
:104DA0001486C5010E940A14D6011D968C931D9786
:104DB0005B961C921E925A97F30143815481832D76
:104DC0008F718150990B889E9001899E300D11241E
:104DD000F60160E02415350580F5DA01A20FB31F56
:104DE0008C91082E000C990B653090F5928381838D
:104DF0006F5F2F5F3F4F32966D3061F7EA94B4CF0B
:104E0000295C71CFDC012C91222309F490CF1B96F1
:104E10002C9123FD7FCF4BE050E0BC01C7010E94E5
:104E2000A3C5892B09F076CFBFEFCB1ADB0AE4E6E6
:104E3000CE16D10409F048CEB3CD81E090E0421601
:104E4000530611F490E080E0919581959109CCCFC3
:104E50006B3018F495838483CBCF97838683C8CF38
:104E6000AA85BB8550968D909D90AD90BC90539730
:104E700060E0CD010E947518009709F491CD55E0CE
:104E8000B694A794979487945A95D1F7140120E289
:104E9000FC0111922A95E9F7F30136962BE0DC012B
:104EA00001900D922A95E1F7D3012C912871FC0114
:104EB000248721E232E5318B208B318F208F338B99
:104EC000228BAA85BB851696ED91FC9180A181600D
:104ED00080A3A7CE81E0D80112968C9312971296E8
:104EE0008C91129781FF04C08C91817109F0D7CE0B
:104EF000D90197964D915D916D917C919A97D801CA
:104F000054964D935D936D937C93579784899589BF
:104F1000B0E0A0E0DC0199278827428D538D70E036
:104F200060E0482B592B6A2B7B2BD8015C964D9364
:104F30005D936D937C935F97448D558D668D778DD2
:104F4000F801408F518F628F738FF981F2FD1EC07F
:104F500081E02B960FB6F894DEBF0FBECDBFDF9178
:104F6000CF911F910F91FF90EF90DF90CF90BF9066
:104F7000AF909F908F907F906F905F904F903F90F9
:104F80002F90089583E0A7CF82E0A5CFC8010E94AB
:104F9000A822882309F483CEDBCF2F923F924F9231
:104FA0005F926F927F928F929F92AF92BF92CF92B9
:104FB000DF92EF92FF920F931F93CF93DF93CDB7C2
:104FC000DEB728970FB6F894DEBF0FBECDBF988727
:104FD0008F833B011A01DC0112968C9181FFB7C0CF
:104FE00083FDA8C0A10170E060E0EF81F8858089B1
:104FF0009189A289B38980959095A095B0958417E1
:105000009507A607B70708F4A2C061013C96FE8386
:10501000ED83EF81F88580889188A288B388C114D8
:10502000D10409F40CC146805780D2011396FC903C
:10503000B501A40199E076956795579547959A959E
:10504000D1F7F42284011170F11023C044855585F5
:10505000668577850115110509F01DC141155105BA
:105060006105710509F48CC0228126FF79C0808D0D
:10507000918DA28DB38D88169906AA06BB0608F0FD
:105080006FC04F5F5F4F6F4F7F4F44875587668775
:105090007787AF81B8851696ED91FC9117971C968E
:1050A0004D915D916D917C911F974250510961091D
:1050B0007109848104C0440F551F661F771F8A95AC
:1050C000D2F780899189A289B389840F951FA61F81
:1050D000B71FAC01BD014F0D511D611D711D0115A3
:1050E000110509F0EDC0C114B2E0DB0608F4E8C018
:1050F00087A090A4A1A4B2A441A052A0C11484E0AE
:10510000D80608F060C0481559056A057B0541F4CA
:1051100010A28FEF9FEFDC0187A390A7A1A7B2A7F2
:105120009301C2010E94F41F882389F0E12C92E0D0
:10513000F92E09C1AF81B88558964D915D916D9159
:105140007C915B97CD010E94A82281114BCFEF810A
:10515000F88581818160818322242A94322C81C048
:105160002D813E81C2010E94D52187FDF0CF8111A2
:1051700090CF8F8198850E94782381118ACFE7CFC5
:10518000EF81F885848D958DA68DB78D0097A1054B
:10519000B10581F4CF010E9478238823C1F2EF8109
:1051A000F88584859585A685B785848F958FA68F8C
:1051B000B78F6FCFEF81F88584879587A687B787EC
:1051C00068CF21E0A4C08601012F1127069530E0A9
:1051D00020E082818F19990B092E000CAA0BBB0BC2
:1051E000081719072A073B0710F4D901C8018C01D9
:1051F0009D010F2EF9E0000F111F221F331FFA959A
:10520000D1F7F02D78018C0184169506A606B70615
:1052100088F0840F951FA61FB71F88169906AA0647
:10522000BB0640F410A28FEF9FEFDC0187A390A78D
:10523000A1A7B2A79301C2010E94701F81C0EF8194
:10524000F885808D918DA28DB38D88159905AA055D
:10525000BB0538F4808E918EA28EB38E82818068D9
:105260008283C10128960FB6F894DEBF0FBECDBF72
:10527000DF91CF911F910F91FF90EF90DF90CF9032
:10528000BF90AF909F908F907F906F905F904F9066
:105290003F902F900895F201425051096109710920
:1052A000848104C0440F551F661F771F8A95D2F76B
:1052B00080899189A289B389480F591F6A1F7B1F72
:1052C00080E092E0801B910B76018C159D0508F41F
:1052D0007C010115110509F074CFAF81B885509696
:1052E0008D909D90AD90BC90539758968D919D91C7
:1052F0000D90BC91A02D88169906AA06BB0630F425
:10530000AF81B88512968C9185FF5BCF25E0CF01E8
:1053100080960E941921009709F419CFA701B301C3
:10532000800F911F0E94B0C50E0D1F1D0115124068
:1053300051F4EF81F8858681978180960E94322012
:10534000882309F404CFEF81F88580899189A289A7
:10535000B3898E0D9F1DA11DB11D808B918BA28BDA
:10536000B38B6E0C7F1CCE18DF0853CE0C960C94BA
:10537000CD27CF93DF93EC01262F4C895D896E8971
:105380007F898E819F8180960E941921009771F0FC
:105390002C813D812F70332745E0220F331F4A9522
:1053A000E1F7820F931FDF91CF91089590E080E0A5
:1053B000FACFCF93DF93EC0180960E9432208823AE
:1053C00031F088819981DF91CF910C943C1F80E06E
:1053D000DF91CF9108959F92AF92BF92CF92DF92CB
:1053E000EF92FF920F931F93CF93DF93CDB7DEB76A
:1053F000A0970FB6F894DEBF0FBECDBF19821A82F8
:105400001B82DC0112962C9121FF12C08C01FC0141
:10541000448D558D668D778D41155105610571055A
:1054200049F461E0C8010E94B9297C01009749F460
:1054300080E077C0868197810E9455228111F1CF4B
:10544000F7CF0E940A14982E85EEF7018083D801C9
:105450001C9212961C92129716968D919C910E9406
:10546000D929882329F3F8019381992309F459C094
:1054700080859185A285B385668177819E012F5FA6
:105480003F4F69010097A105B10509F05CC0C90152
:105490000E948117882361F2EE24E394F12C25EE1B
:1054A000A22ED80113968C9113978E1508F214969C
:1054B0004D915C914E195F0970E060E085E0440F0A
:1054C000551F661F771F8A95D1F7C6010E94A82233
:1054D000882309F4ADCF60E0C6010E947518FC0175
:1054E000892B09F4A5CF83858F3009F0A1CF908156
:1054F000892F8F71E8129CCF8585891199CFA08261
:10550000D8011696ED91FC9180A1816080A3BFEF38
:10551000EB1AFB0A96FFC5CFF801868197810E949E
:10552000D929A0960FB6F894DEBF0FBECDBFDF918C
:10553000CF911F910F91FF90EF90DF90CF90BF9090
:10554000AF909F9008952CE1F60111922A95E9F70A
:1055500020E1298321E02B8378876F838D8F9E8FB5
:10556000AF8FB8A399CFCF93DF93FC012081211196
:1055700004C081E0DF91CF910895EC01828187FF23
:1055800025C061E0CF010E94B929FC01892B29F4D3
:1055900089818160898380E0EDCF8081853EC1F380
:1055A000888183FF08C0888D998DAA8DBB8D848FDB
:1055B000958FA68FB78F8C8D9D8DAE8DBF8D938F60
:1055C000828FB58BA48B8A818F778A838E819F810E
:1055D0000E94D9298823E1F2CCCFCF93DF93EC014D
:1055E0000E94B32A18821A82DF91CF910895DF9228
:1055F000EF92FF920F931F93CF93DF93CDB7DEB758
:10560000E3970FB6F894DEBF0FBECDBF7C018B01D0
:105610005BAB4AABD22E19821A821B82FC018081BD
:10562000882379F080E0E3960FB6F894DEBF0FBED2
:10563000CDBFDF91CF911F910F91FF90EF90DF9041
:105640000895FB018081807769F3EAA9FBA9808135
:105650008F32D9F4EAA9FBA980818F3221F43196E7
:10566000FBABEAABF7CFF80166817781811104C00B
:10567000C7010E948117D7CFCE0101960E948117E2
:10568000882381F28E010F5F1F4FAE014E5C5F4F8A
:10569000BE016F5D7F4F8AA99BA90E94DA12882301
:1056A00009F4C0CFEAA9FBA980818823B9F020E0E2
:1056B000AE014F5D5F4FB801C7010E94AE24882341
:1056C00009F4B0CF80E2F701DE01119601900D924E
:1056D0008A95E1F7C7010E94ED2AD4CF2D2DAE01A6
:1056E0004F5D5F4FB801C7010E94AE249CCF242FAD
:1056F000E0919E0CF0919F0C309731F0E55DFD4FED
:10570000AB01BF010C94F72A80E008950C960C942D
:10571000B32ACF92DF92EF92FF920F931F93CF9312
:10572000DF93CDB7DEB7C35BD1090FB6F894DEBF08
:105730000FBECDBF8C017B016A01A2961FAEA2975E
:10574000A3961FAEA397A4961FAEA497CF57DF4F83
:105750001882C158D040CE57DF4F1882C258D0406F
:10576000CD57DF4F1882C358D040DC018C9188712F
:1057700089F480E0CD54DF4F0FB6F894DEBF0FBE42
:10578000CDBFDF91CF911F910F91FF90EF90DF90F0
:10579000CF900895F80126813781DB0116968D910F
:1057A0009C912817390729F7C8010E94B32A80E283
:1057B000F801DE01AF57BF4F01900D928A95E1F7D6
:1057C00060E0C8010E94B929FC01892B91F290E2A6
:1057D000DE01AF5BBF4F01900D929A95E1F7F801A2
:1057E000808183FFDBC021E5A601B701CE018F597F
:1057F0009F4F0E94F72AC12CD12C7601882309F4EF
:10580000B8CFE9968CAD9DADAEADBFADE997F801CF
:10581000848B958BA68BB78BA7968EAD9FADA797E4
:1058200095838483A5968FADA5978383AD968CAD24
:105830009DADAEADBFADAD9780879187A287B38791
:10584000A2961FAEA297A4961FAEA49761E0C801CE
:105850000E94B929009709F48CCFDC011D96E1E480
:10586000F0E0EC0FFD1F3D9623E101900D922A958B
:10587000E1F72D962FAD2D97DC011B962C93C114CB
:10588000D104E104F10409F467C0D8011696ED9142
:10589000FC918481B701A601425051096109710947
:1058A00004C0440F551F661F771F8A95D2F7808961
:1058B0009189A289B389480F591F6A1F7B1F20E075
:1058C000CF0180960E941921FC01892B09F451CF48
:1058D00090E2B096DE01AF5BBF4F01900D929A95BA
:1058E000E1F7B701A601F801868197810E94552250
:1058F000882309F43ECFD8011696ED91FC911797B5
:105900005C964D915D916D917C915F9742505109EC
:1059100061097109848104C0440F551F661F771FF8
:105920008A95D2F780899189A289B389480F591F36
:105930006A1F7B1F21E0CF0180960E941921DC01A4
:10594000892B09F416CF90E2FE01EF5BFF4F909692
:1059500001900D929A95E1F7C356DF4F1882198294
:105960001A821B82CD59D04082E0CD57DF4F888309
:10597000C358D04088E0CF57DF4F8883C158D0400C
:10598000CE018F579F4F0E94EB29882309F4F1CE57
:10599000F801868197810E94D929ECCECE54DF4F41
:1059A000D982C882C25BD04019A21AA21BA2A296B9
:1059B0008FADA2978111DDCED7018C91807709F44C
:1059C000D8CEF60180818F32F9F4CE54DF4FE881D2
:1059D000F981C25BD04080818F3241F43196CE5440
:1059E000DF4FF983E883C25BD040EFCFD701169633
:1059F0006D917C91CE0181960E948117882309F4D4
:105A0000B8CECE0181967C01AE014E545F4FBE01EF
:105A10006F557F4FCE54DF4F88819981C25BD04054
:105A20000E94DA12882309F4A4CECE54DF4FE88115
:105A3000F981C25BD0408081882301F120E0AE0172
:105A40004F555F4FB701CE018F599F4F0E94AE2433
:105A5000882309F48ECE80E2FE01EF59FF4FDE016C
:105A6000919601900D928A95E1F7CE018F599F4F43
:105A70000E94ED2AFE01B1967F01C6CFD7018C911D
:105A8000807709F476CE22E5AE014F555F4FB7011E
:105A9000CE018F599F4F0E94AE24882309F469CE0E
:105AA00081E0A4968FAFA49780E1D82EA296DFAEB6
:105AB000A297CE018F599F4F0E942B24882309F46F
:105AC00058CEE1968CAD9DADAEADBFADE197C3585C
:105AD000DF4F88839983AA83BB83CD57D04040E0B2
