:100000000C94B0130C9499410C946E410C944341A0
:100010000C94CE400C9459400C94E43F0C946F3FE8
:100020000C9480300C94DA130C94DA130C94DA13D9
:100030000C94B4290C94992A0C9436290C94DA1354
:100040000C94DA130C94DA130C94E29B0C94DA13EC
:100050000C9400290C94D6280C94DA130C94DA131F
:100060000C94DA130C94DA130C94947D0C94DA1338
:100070000C94A0280C9476280C94DA130C94DA13C0
:100080000C94DA130C94DA130C94DA1308000000C1
:10009000BE922449123EABAAAA2ABECDCCCC4C3E7D
:1000A00000000080BEABAAAAAA3E00000000BF006C
:1000B0000000803F0000000000084178D3BB438768
:1000C000D1133D190E3CC3BD4282AD2B3E68EC827C
:1000D00076BED98FE1A93E4C80EFFFBE01C4FF7F01
:1000E0003F000000000000407A10F35A00A0724E5A
:1000F00018090010A5D4E80000E87648170000E4CD
:100100000B54020000CA9A3B000000E1F505000014
:1001100080969800000040420F000000A086010079
:100120000000102700000000E80300000000640049
:10013000000000000A0000000000010000000000B4
:100140002C76D888DC674F0823DFC1DFAE59E1B1D8
:10015000B796E5E3E453C63AE651997696E8E6C2E7
:100160008426EB898C9B62ED407C6FFCEFBC9C9FEE
:1001700040F2BAA56FA5F490055A2AF75C936B6C10
:10018000F9676DC11BFCE0E40D47FEF520E6B50004
:10019000D0ED902E0300943577050080841E080072
:1001A00000204E0A000000C80C333333330F986E22
:1001B00012831141EF8D2114893BE65516CFFEE6DF
:1001C000DB18D1844B381BF77C1D901DA4BBE424A5
:1001D000203284725E228100C9F124ECA1E53D2722
:1001E000566261745F6C6F7720707265762F6E65F2
:1001F000772000566261745F6C6F77206E6F772F87
:100200007072657620002066696C7465725F737A1F
:100210003D00566261745F6C6F7720696E69743D52
:10022000005662617420736C6F7720726973652069
:10023000646574656374203A00454550524F4D2003
:1002400057726974652066696E6973686564002910
:1002500000414354494F4E205772697465206170C4
:100260007020454550524F4D20737461727465641F
:1002700028007D206E6F7420737570706F727465C6
:1002800064007D206D6174636820202620616464B1
:1002900065642E003D7B003D005D20004E6F7420A4
:1002A000737570706F72746564205B0041435449CC
:1002B0004F4E2057726974652061626F7274656475
:1002C0002E20696E737472756374696F6E202700D7
:1002D000414354494F4E20434F5059206E6F742074
:1002E000737570706F72746564207965743A004339
:1002F0004F505900575249544500414354494F4EBD
:1003000000555345520020746F2000424F4F542037
:100310007462642000454550524F4D2057726974F5
:10032000652061626F727465642E20696E737472E9
:10033000756374696F6E202700414354494F4E2006
:1003400044454641554C54206170702045455052FB
:100350004F4D0044454641554C545F4150505F4518
:100360004550524F4D00454550524F4D20577269F0
:1003700074652066696E697368656400454550520E
:100380004F4D20577269746520737461727465648F
:100390003A0059455300454550524F4D5F57524919
:1003A000544500426F617264205265763A00424FB4
:1003B0004152445F52455600426F6172642053655A
:1003C0007269616C4E756D203A00424F4152445F34
:1003D000534E00426F617264204E616D653A004277
:1003E0004F4152445F4E414D4500424F4F54002013
:1003F000746F20004E4554574F524B207462642056
:10040000005D20726561643A004E4554574F524B6F
:10041000205365742053454E445F5155455F535AF0
:100420005F4E554D2064697361626C65642C206574
:1004300072726F722C2072616E67655B004E45545C
:10044000574F524B205365742053454E445F5155CE
:10045000455F535A5F4E554D2064697361626C6508
:10046000640053454E445F5155455F535A5F4E55A6
:100470004D005D20726561643A004E4554574F52FD
:100480004B2053657420504F53545F4D41585F4E7D
:10049000554D206572726F723B2072616E67655BAD
:1004A00000504F53545F4D41585F4E554D004E45DF
:1004B00054574F524B205365742053454E445F4F61
:1004C00046465345545F4D494E206572726F723BEC
:1004D000202872616E67652030203A203330292051
:1004E000726561643A0053454E445F4F464653453A
:1004F000545F4D494E004E4554574F524B20536563
:100500007420434F4C4C4543545F52454144494E3F
:100510004753206572726F723B202872616E676567
:100520002030203A2033302920726561643A00433C
:100530004F4C4C4543545F52454144494E4753004C
:100540005769466950776400576946694964006194
:10055000706E004E4554574F524B0020746F200070
:1005600053454E534F525320746264200053454EFE
:10057000534F52530020746F2000434F4D4D4F4E48
:1005800020746264200047454F4752415048494318
:10059000414C5F49443A0047454F47524150484912
:1005A00043414C5F494400434F4D4D4F4E205365EE
:1005B000742054696D655A6F6E65206572726F7232
:1005C0003B202872616E6765202D3132203A202B46
:1005D00031322920726561643A0054494D455F5AB1
:1005E0004F4E45002920726561643A0020536574BE
:1005F000204C69496F6E2054797065206572726F66
:10060000723B202872616E676520302D0020737563
:10061000706572736564656420757365204241542A
:10062000544552595F5459504500434F4D4D4F4E1C
:10063000204C69496F6E20547970653A20004C490E
:10064000494F4E5F54595045002920726561643A04
:10065000002053657420424154544552595F545907
:100660005045206572726F723B202872616E67651B
:10067000203C00424154544552595F545950450062
:100680002053657420424154544552595F6D41686E
:100690007220002920726561643A0020536574203D
:1006A000424154544552595F6D41687220657272DF
:1006B0006F723B202872616E6765203E3D302026B8
:1006C000203C00424154544552595F6D41687200CC
:1006D00029207769746820726561643A0020536547
:1006E0007420696E74657276616C206572726F72C7
:1006F000202872616E67653A20312D00286D696E81
:10070000292066726F6D2064656661756C742000C7
:10071000434F4D4D4F4E204C4F4747494E475F4941
:100720004E54455256414C5F4D494E555445532009
:1007300073657420746F3A2000205573696E6720CA
:100740004D61782E2052656164696E672069676E1D
:100750006F7265642000434F4D4D4F4E204C4F4704
:1007600047494E475F494E54455256414C5F4D49AB
:100770004E55544553206D757374206265206C6529
:100780007373207468616E203A20004C4F474749CC
:100790004E475F494E54455256414C5F4D494E5568
:1007A000544553004C4F474745525F494400434F1F
:1007B0004D4D4F4E0050524F56494445525F5542A1
:1007C00049444F54530050524F56494445525F5488
:1007D00053005D20726561643A0050524F5649449F
:1007E00045525F4D4D57205365742054494D455235
:1007F0005F504F53545F504143455F4D53206572E6
:10080000726F723B202872616E6765200054494DFB
:1008100045525F504F53545F504143455F4D530025
:100820005D20726561643A0050524F56494445520A
:100830005F4D4D57205365742054494D45525F50CC
:100840004F53545F544F55545F4D53206572726F30
:10085000723B202872616E6765205B0054494D45EC
:10086000525F504F53545F544F55545F4D53005394
:10087000414D504C494E475F464541545552450005
:10088000524547495354524154494F4E5F544F4B80
:10089000454E00434C4F55445F49440050524F561B
:1008A000494445525F4D4D57004E4F4E45004E4F07
:1008B0004E45004E4F4E45004E4F4E45004E4F4E5A
:1008C00045004E4F4E45004E4F4E45004E4F4E4553
:1008D000004E4F4E45004E4F4E4500574946495039
:1008E00057445F4E4F4E45005749464949445F4E75
:1008F0004F4E450041504E5F4E4F4E45004661639E
:10090000746F72792064656661756C74006D734CE8
:100910006F673031002D2D2D4C425F5057525F557F
:10092000534541424C455F5245512043414E43455A
:100930004C4C45442D2D4C626174743D002D2D2D81
:100940004C425F5057525F4D4F44454D5F555345A4
:100950005F5245512043414E43454C4C45442D2D5B
:100960004C626174743D002D2D2D4C425F505752E6
:100970005F53454E534F525F5553455F524551208B
:1009800043414E43454C4C45442D2D4C626174749B
:100990003D002D2D2D74755F787830313A57616B9D
:1009A00065757020636865636B20706F7765722E64
:1009B000205072657373207573657220627574744C
:1009C0006F6E20746F20627970617373003A2042F9
:1009D000617456204C6F77203D004261745F562849
:1009E0006C6F77290062617474657279436865631E
:1009F0006B207265712F776169742F737263006465
:100A00006174615075626C69736865724261736587
:100A10002067515320636865636B00576174636896
:100A2000646F672064697361626C65642E20626123
:100A3000726B73556E74696C5265736574004261B4
:100A4000642074696D6520003A3030003A3030001F
:100A50003A3030003A30300021212121212121215A
:100A6000212121212121212121212121202D2D2D53
:100A70002D2D205741524E494E47202D2D2D2D2DE5
:100A8000200021212121212121212121202D2D2D55
:100A90002D2D205741524E494E47202D2D2D2D2DC5
:100AA0002021212121212121212121002D2D2D2D28
:100AB0002D205741524E494E47202D2D2D2D2D20B2
:100AC0002121212121212121212121212121212116
:100AD00021212121005468652063757272656E744E
:100AE00020636C6F636B2074696D657374616D70E6
:100AF000206973206E6F742076616C696421002117
:100B000021212121212121212121212121212121D5
:100B1000212121202D2D2D2D2D205741524E494E82
:100B200047202D2D2D2D2D20002121212121212176
:100B3000212121202D2D2D2D2D205741524E494E62
:100B400047202D2D2D2D2D20212121212121212135
:100B50002121002D2D2D2D2D205741524E494E473C
:100B6000202D2D2D2D2D202121212121212121213B
:100B7000212121212121212121212100002046772D
:100B80005665722000204877566572200020536E0B
:100B9000200020666F72200027002720736E3A27FE
:100BA00000207265763A2700426F6172643A200035
:100BB0004D6F64756C617253656E736F72732076DE
:100BC00065727320002E205377204275696C643A59
:100BD00020005377204E616D653A2000202042614D
:100BE0007474657279547970653A200020547A3AA9
:100BF000200020204C6F6767696E67496E746572CC
:100C000076616C20286D696E293A20004C6F636113
:100C100074696F6E3A2000004461746520616E64EF
:100C20002054696D6520696E2055544300526573E8
:100C3000756C7420555549443A00526573756C744F
:100C400020556E69743A005661726961626C652064
:100C50004E616D653A0053656E736F72204E616D23
:100C6000653A0053616D706C696E6720466561740A
:100C700075726520555549443A20004461746120DD
:100C80004C6F676765722046696C653A2000446165
:100C90007461204C6F676765723A2000446174612B
:100CA0002077696C6C206E6F7420626520736176AA
:100CB000656421004572726F723A2053442063616B
:100CC0007264206661696C656420746F20696E6966
:100CD0007469616C697A65206F72206973206D692F
:100CE0007373696E672E00446174612077696C6C60
:100CF000206E6F74206265207361766564210053F5
:100D00006C6176652F436869702073656C656374E8
:100D10002070696E20666F72205344206361726494
:100D200020686173206E6F74206265656E20736544
:100D3000742E002D2D2D2D5C2F000A205C2F2D2DC3
:100D40002D2D204C696E6520536176656420746F8B
:100D500000556E61626C6520746F207772697465EE
:100D600020746F20534420636172642100200020AE
:100D700069732000207265706F7274732000200008
:100D80002069732063616C63756C617465642074A1
:100D90006F20626520002D2D2D2D2D2D2D2D2D2D1B
:100DA0002D2D2D2D2D2D2D2D2D2D2D2D2D2D2D2D73
:100DB0002D2D2D2D2D2D2D2D2D2D2D2D2D2D2D2D63
:100DC0000045786974696E672074657374696E672D
:100DD000206D6F6465002D2D2D2D2D2D2D2D2D2D8C
:100DE0002D2D2D2D2D2D2D2D2D2D2D2D2D002D2D60
:100DF0002D2D2D2D2D2D2D2D2D2D2D2D2D2D2D2D23
:100E00002D2D2D2D2D0043757272656E74206C6F23
:100E1000676765722074696D65206973002D2D2DDB
:100E20002D2D2D2D2D2D2D2D2D2D2D2D2D2D2D2DF2
:100E30002D2D2D2D2D2D2D2D2D2D2D2D2D2D2D2DE2
:100E40002D2D2D2D2D2D2D00456E746572696E672B
:100E50002073656E736F722074657374696E67209A
:100E60006D6F6465002D2D2D2D2D2D2D2D2D2D2DEE
:100E70002D2D2D2D2D2D2D2D2D2D2D2D2D2D2D2DA2
:100E80002D2D2D2D2D2D2D2D2D2D2D2D2D2D2D00BF
:100E90002D3E00416C6C207661726961626C652048
:100EA0005555494427732061707065617220746FD5
:100EB00020626520636F72726563746C7920666F5F
:100EC000726D65642E0A006861732061206E6F6E1A
:100ED0002D756E697175652055554944210068610D
:100EE0007320616E20696E76616C69642055554986
:100EF0004421004C6F6767657220706F7274696F70
:100F00006E206F662073657475702066696E6973F4
:100F10006865642E0A0053616D706C696E672066A7
:100F200065617475726520555549442069733A00AE
:100F30006172652063616C63756C617465642E0019
:100F400073656E736F727320616E6400636F6D659D
:100F50002066726F6D007661726961626C65732CD8
:100F6000206F662077686963680054686973206C35
:100F70006F676765722068617320612076617269AE
:100F800061626C65206172726179207769746800B2
:100F900043757272656E74206C6F63616C697A65FB
:100FA00064206C6F676765722074696D6520697372
:100FB0003A0043757272656E74205254432074690E
:100FC0006D652069733A006265747765656E0052DD
:100FD00054432076616C69642072616E6765002DF0
:100FE0002D2D4C6F67546F534420436F6D706C65AB
:100FF00074650A002D2D2D2D2D2D2D2D2D2D2D2DF2
:101000002D2D2D2D2D2D2D2D2D2D2D2D2D2D2D2D10
:101010002D2D2D2D2D2D2D2D2D2D2D2D2D2D00500A
:10102000696E000074696D6573206265666F726534
:10103000207468652072657365742E007365632083
:10104000776974682074686520696E74657272755A
:10105000707420666972696E670057617463682DE9
:10106000646F672074696D656F7574206973207390
:10107000657420666F720074696D657320626566C1
:101080006F7265207468652073797374656D207262
:1010900065736574732E005761746368646F6720AD
:1010A000456E61626C65642C20496E746572727560
:1010B00070742077696C6C206669726500206578B1
:1010C000706563746564002E2E2E2057617463680A
:1010D000646F67206C6F77206261726B73556E74FA
:1010E000696C526573657400205741544348444FFE
:1010F0004720495352206261726B73556E74696C5C
:10110000526573657400202A2A2A2A2057415443C5
:1011100048444F4720576F6F6620576F6F662E20E9
:101120005265736574696E672050726F636573737F
:101130006F722A2A2A004552524F52004C410054E5
:101140004D00544D0041503000414D3000414900A8
:101150004442004C4D004D59002556005450004368
:1011600049002B2B2B00414300575200434E0048AF
:101170005300485300006661696C656420746F20F9
:1011800077616B6521006D6F64656D4861726452B3
:1011900065736574206661696C65642100417474CF
:1011A000656D7074696E6720612068617264207279
:1011B00065736574206F6E20746865206D6F64655B
:1011C0006D2120004E6F20726573706F6E73652005
:1011D000746F20415420636F6D6D616E64732100E4
:1011E000746F20726573706F6E6420746F20415449
:1011F00020636F6D6D616E64732E2E2E006D7320F3
:10120000666F72000A57616974696E672075702095
:10121000746F0057616B696E672075702074686524
:10122000206D6F64656D20746F20636F6E6E6563F3
:101230007420746F2074686520696E7465726E65C1
:1012400074202E2E2E00414D00414D00414D004195
:101250004D00414E004357004355004D4E00446938
:101260006769205862656533207365747570206600
:1012700061696C656421005D0058626565574C5476
:101280004520495023205B00586265654C54452039
:101290006E6F7420726563656976656420495023BA
:1012A000202D686F706520697420776F726B7320D2
:1012B0006E6578742074696D65005D2027006D642B
:1012C0006D49505B004D59004D59004469676920D4
:1012D0005862656533207365747570205375636556
:1012E00073732E20526567697374726174696F6ECF
:1012F000202700547279202B435245472027002B8A
:1013000043524547004149004C6F6F703D53656340
:101310005D207278206462203A2053746174757382
:101320002027204F70657261746F72202720235030
:101330006F6C6C65642043656C6C205374617475CC
:101340007320657665727920317365630041503092
:1013500000544D005031005444304100444F00537C
:101360004F00534D0050300044350044370044399D
:10137000004438004677566572004877566572001B
:10138000494D454920004C746520696E7465726E44
:10139000657420636F6D6D732077697468005652B1
:1013A00000485600494D004E4953542054696D651C
:1013B0002073657276657220646964206E6F742094
:1013C000726573706F6E6421006D73004E495354E3
:1013D00020726573706F6E646564206166746572F7
:1013E000005D20436F6E6E65637420004E6F206950
:1013F0006E7465726E657420636F6E6E656374697A
:101400006F6E2C2063616E6E6F7420636F6E6E65FD
:10141000637420746F204E4953542E000066616936
:101420006C656420746F2077616B6521006D6F645B
:10143000656D486172645265736574206661696C9C
:1014400065642100417474656D7074696E67206114
:101450002068617264207265736574206F6E2074F9
:101460006865206D6F64656D2120004E6F20726588
:1014700073706F6E736520746F20415420636F6DBD
:101480006D616E64732100746F20726573706F6E8E
:101490006420746F20415420636F6D6D616E6473BE
:1014A0002E2E2E006D7320666F72000A57616974CC
:1014B000696E6720757020746F002E2E2E2057697C
:1014C000466920636F6E6E656374696F6E20666136
:1014D000696C656400454500504B00454500494432
:1014E0000027206661696C65642E0058626565207E
:1014F0002700586265655769666920696E697420BE
:1015000074657374205041535345440058626565B7
:101510005769666920696E69742074657374204622
:1015200041494C4544202D20686F70652069742026
:10153000776F726B73206E6578742074696D6500C7
:101540004E53005D005862656557694669204950F1
:1015500023205B005862656557694669206E6F7489
:1015600020726563656976656420495023202D6883
:101570006F706520697420776F726B73206E657869
:10158000742074696D65004D59005862656557692E
:101590004669204150206E6F7420526567697374EC
:1015A00065726564202D207265736574696E6720AD
:1015B0006D6F64756C652C20686F70652069742090
:1015C000776F726B73206E6578742074696D650037
:1015D0004149004C6F6F703D5365635D2072782008
:1015E0006462203A205374617475732023506F6CC9
:1015F0006C656420537461747573206576657279C7
:1016000020317365632F333073656300302E302EC5
:10161000302E3000444C00544D00534F00534D00C9
:10162000495000443900443800505200467756650E
:1016300072004877566572004D61632F536E20002B
:10164000586265655769466920696E7465726E6592
:101650007420636F6D6D7320776974680056520053
:101660004856005348004552524F520D004F4B0D03
:1016700000534C005D207769746820004E49535434
:10168000206C6F6F6B7570206D646D49505B0075D9
:1016900070646174654D6F64656D4D6574616461FE
:1016A000746120666F7263696E672072657374611E
:1016B000727420786265652E2E2E00270064657393
:1016C0007A714E657874436820316572726F723A30
:1016D000006D532054696D656F757400776169748E
:1016E000656420002D2D20526573706F6E73652028
:1016F000436F6465202D2D00202D2D2047617465DA
:101700007761792054696D656F7574207761726EA9
:10171000696E672062756666657220737A20736DE4
:10172000616C6C000A202D2D20556E61626C652065
:10173000746F2045737461626C69736820436F6EC7
:101740006E656374696F6E20746F20456E76697282
:101750006F444959204461746120506F7274616C08
:10176000202D2D006D6F646275735F3078004932F3
:10177000435F30783638004932435F307834340084
:10178000646174615075626C6973686572426173FB
:1017900065207365745175656420636865636B00CB
:1017A0004552524F5221204E6F2077656220636C64
:1017B00069656E742061737369676E656420746F08
:1017C000207075626C697368206461746121003DEA
:1017D000005D00202050524F56494445525F4D4D08
:1017E0005720555549447320286E6F6E6520756EDD
:1017F0006C657373206C6973746564292C204D616A
:10180000783D000A2050524F56494445525F4D4D95
:10181000572074696D6572506F73745061636528E9
:101820006D73293D000A2050524F56494445525F7E
:101830004D4D572074696D6572506F7374546F7598
:1018400074286D73293D000A2050524F5649444573
:10185000525F4D4D572053616D706C696E67204625
:101860006561747572653D000A2050524F564944B7
:1018700045525F4D4D572052656720546F6B656E22
:101880003D002050524F56494445525F4D4D572020
:10189000436C6F756449643D0046726F6D206565E9
:1018A00070726F6D2050726F76696465723A205065
:1018B000726F766964657220547970653D002053BB
:1018C000454E445F5155455F535A5F4E554D3D005F
:1018D00020504F53545F4D41585F4E554D3D0020B1
:1018E00053454E445F4F46465345545F4D494E3D28
:1018F000000A0D20434F4C4C4543545F5245414430
:10190000494E47533D0020576946695077643D0072
:101910000A205769466949643D000A2041504E3DFE
:101920000046726F6D20656570726F6D204E657434
:10193000776F726B3A204E6574776F726B205479B3
:1019400070653D002020204C6F633D00626174741F
:10195000657279206D4168723D00626174746572D0
:101960007920747970653D006D696E757465732CAE
:1019700020547A3D005D0A0D2020206C6F67676956
:101980006E6720696E74657276616C3D0046726F99
:101990006D20656570726F6D20636F6D6D6F6E3A4F
:1019A000204C6F676765722046696C65204E616DDB
:1019B000655B005D005D20736E5B005D20207265DD
:1019C000765B0046726F6D20656570726F6D206288
:1019D0006F6F74204E616D655B00302E3562004D77
:1019E000313233343536373839616263646566675E
:1019F0006800656E7669726F444959206D61796639
:101A00006C7900506172736520696E693B204E6F7E
:101A10002066696C65200053656172636820657299
:101A2000726F722120627265616B206F7574206F16
:101A300066206C6F6F70002D3E0050524F56494427
:101A400045525F78780050524F56494445525F4D99
:101A50004D572074696D6572506F737420506163C7
:101A6000696E67286D73290050524F56494445529C
:101A70005F4D4D572074696D6572506F73742054BB
:101A80006F7574286D73290050524F564944455262
:101A90005F4D4D572053616D70696E6720466561DB
:101AA000747572650050524F56494445525F4D4D12
:101AB0005720526567697374726174696F6E205440
:101AC0006F6B656E0050524F56494445525F4D4D05
:101AD0005720436C6F75644964004E4554574F520C
:101AE0004B2053454E445F5155455F535A5F4E5509
:101AF0004D004E4554574F524B20504F53545F4D5D
:101B000041585F4E554D004E4554574F524B205350
:101B1000454E445F4F46465345545F4D494E004E37
:101B20004554574F524B20434F4C4C4543545F5202
:101B3000454144494E4753004E4554574F524B2060
:101B4000576946695077643A20004E4554574F52C2
:101B50004B20576946694964203A20004E45545746
:101B60004F524B2061706E3A20004E4554574F52F1
:101B70004B20747970653A2000434F4D4D4F4E20F5
:101B800042617474657279206D4168723A20004335
:101B90004F4D4D4F4E2042617474657279205479D7
:101BA00070653A2000434F4D4D4F4E204C6F676794
:101BB000696E74657276616C3A2000434F4D4D4FEB
:101BC0004E204C6F676765724964205365743A20F4
:101BD0000073657474696E6720746F20275F272C0B
:101BE00020666F756E6420004572726F72202161ED
:101BF0006C6E756D206C6F676765722066696C65C9
:101C000020706F730056005620474F4F443D0056DA
:101C1000204D454449554D3D0056204C4F573D0001
:101C2000205468726573686F6C6473205553454126
:101C3000424C453D0042617474657279205479705C
:101C4000653D00436F756C64206E6F742077616B27
:101C500065206D6F64656D20666F7220525443205D
:101C600073796E632E00436F756C64206E6F742001
:101C7000636F6E6E65637420746F20696E74657235
:101C80006E657420666F72205254432073796E63C0
:101C90002E00436F6E6E656374656420746F2069F7
:101CA0006E7465726E657420666F722052544320A4
:101CB00073796E632077697468204E4953540054D9
:101CC000686973206D61792074616B65207570207F
:101CD000746F2074776F206D696E75746573210061
:101CE000417474656D7074696E6720746F20636FE2
:101CF0006E6E65637420746F2074686520696E74FD
:101D000065726E657420616E642073796E636872AB
:101D10006F6E697A65205254432077697468204E4B
:101D200049535400446174612077696C6C2062658A
:101D300020736176656420617300556E61626C6525
:101D400020746F2063726561746520612066696C20
:101D50006520746F207361766520646174612074FE
:101D60006F210053657474696E6720757020666911
:101D70006C65206F6E20534420636172640053656C
:101D80007474696E672075702073656E736F7273FB
:101D90002E2E2E004C6F63616C2054696D652000FF
:101DA00077697468204E495354206F76657220001D
:101DB00053796E633D002D2D2D707772205862652A
:101DC00065204F4646206F6E2070696E20004D6F73
:101DD00064656D20636F6E6669672073657420614A
:101DE00073204C54455F444947495F4341544D314A
:101DF000004D6F64656D20636F6E66696720736563
:101E00007420617320574946495F444947495F53ED
:101E100036002D2D2D7061727365496E6920636FD8
:101E20006D706C6574650A002D2D2D70617273657F
:101E3000496E6920537461727400636F6E666967DE
:101E40003A006D6F646275732042617564726174EB
:101E5000653A0020426F6172643A20417373756D78
:101E600065204D6179666C7920312E31412000204A
:101E7000426F6172643A20466F756E64204D6179DD
:101E8000666C7920302E35620027002720736E3A69
:101E90002700207265763A2700426F6172643A200B
:101EA0000054696E7947534D204C696272617279B2
:101EB0002076657273696F6E20004D6F64756C617A
:101EC0007253656E736F72732076657273696F6E8D
:101ED00020005377204E616D653A20000A2D2D2D8C
:101EE000426F6F742E205377204275696C643A20DC
:101EF0000000002100240027002A00000022002505
:101F00000028002B00000000000403080700000068
:101F1000010200090A0000000000000000000000AB
:101F200000000000001F1C1F1E1F1E1F1F1E1F1E63
:101F30001F4552524F52004F4400544D00544D0023
:101F4000444500444C004950004354004754004766
:101F50005400415000414D30004652004552524F0E
:101F6000520D004F4B0D00414D31007069536420FC
:101F70006572722064656C2F72656E200020646546
:101F80006C657465640070695364206572722063C7
:101F90006F756C646E27742072656E616D652000CC
:101FA000706953642065727220636F756C646E276C
:101FB000742064656C200072656E616D65642074C8
:101FC0006F20005061727365496E69536420200070
:101FD000436F6D706C657465642E004572726F722C
:101FE000206F6E206C696E65203A003A2070617235
:101FF00073696E672D2D2D2D007365727A5264659D
:102000006C5F4C696E653B204E6F2066696C6500A5
:102010002D2D2D6C6F6744617461416E6450756243
:1020200052656C6961626C792020436F6D706C65DC
:1020300074652D2D2D2D2D2D2D2D2D2D006C6F67C3
:1020400044617461416E6450756252656C6961628D
:102050006C79202D2073746F7265207265616469DC
:102060006E67732C206E6F2070756200496E746508
:10207000726E6574206661696C65642C206E6F20D9
:102080005F6C6F674D6F64656D20004661696C65BC
:102090006420746F2077616B652000436F6E6E65FE
:1020A0006374656420496E7465726E657420466160
:1020B000696C656400436C6F636B204E69737420B8
:1020C0004661696C656400436C6F636B204E697395
:1020D000742053796E6365640053796E6354696D3F
:1020E00065436865636B2000436F6E6E656374655E
:1020F0006420496E7465726E657400436F6E6E6520
:102100006374696E6720746F2074686520496E740B
:1021100065726E6574207769746800526561642029
:1021200073656E736F72732E2E2E00292D2D2D2D3B
:10213000002D2D2D6C6F6744617461416E64507584
:102140006252656C6961626C7920283078006C6F2E
:102150006744617461416E6450756252656C696177
:10216000626C79202D2074782063616E63656C6CDD
:102170006564006C6F6744617461416E64507562A0
:1021800052656C6961626C79202D20616C6C2063F2
:10219000616E63656C6C6564006C6F67446174614B
:1021A000416E6450756252656C6961626C79202D74
:1021B000206F7665726964652077697468200049CC
:1021C0006E7465726E616C20436C6F636B20736517
:1021D0007420007365636F6E6473206F66204E49D0
:1021E00053542E00496E7465726E616C20436C6F9F
:1021F000636B2077697468696E20004261642074A3
:10220000696D657374616D702C206E6F74207365D9
:102210007474696E6720636C6F636B2E002C4D5372
:10222000472C00706F73744C6F674C696E65206348
:10223000616E2774206F70656E2066696C6500732F
:1022400065514646207467746F757446696C652ED7
:10225000636C6F7365312065727200736551464619
:10226000207467746F757446696C652E72656E6153
:102270006D65206572720073655146462073657204
:102280007A5175656446696C652E636C6F7365324F
:102290002065727200736551464620636C6F7365EA
:1022A00031206661696C65642065727200736551E6
:1022B0004646205245424F4F542072656E616D650F
:1022C0003120657272007365514646206572722036
:1022D0006661696C65642072656D6F766500736513
:1022E00051464620657272372072656D6F766500C3
:1022F00073655146462072656D6F76653220657252
:1023000072002C6C61746573742072656164696E0F
:10231000677320646973636172646564002C71750E
:10232000657565640073655146462073656E64513A
:1023300075652053697A652000736551464620749F
:1023400067746F757446696C65207772697465335C
:1023500020657272007365514646207467746F750C
:102360007446696C65207772697465312065727294
:10237000007365514646206F70656E32206572723B
:1023800000736551464620657272362072656D6F26
:1023900076650073655146462072656D6F766531CE
:1023A0002065727200736551434620517565206641
:1023B0006F72206E657874207061737320756E7310
:1023C000656E74207265636F726473007365514348
:1023D00046207365727A5175656446696C652E6333
:1023E0006C6F73653220657272007365727A426534
:1023F00067696E206572722072656D6F7665006424
:10240000655352432072656D6F7665206572720068
:102410007365727A426567696E2065727220636CBB
:102420006F736500646553524320636C6F7365205E
:1024300065727200707562527370436F64652053E9
:102440004552564552204552524F5220646973639B
:102450006172642072656164696E670064655253DD
:102460003B204E6F2066696C6520007365727A515F
:102470007565645374617274206F70656E20657247
:1024800072007075624451545220504F53545F4D46
:1024900041585F4E554D20726561636865640070F8
:1024A000756244515452206E6F7420656E6F75676B
:1024B0006820706F77657220617661696C61626C0B
:1024C00065007365632E20517565756564207265BE
:1024D0006164696E67733D0072656164696E6773FC
:1024E00020696E0053656E740070756244515452D9
:1024F000207365727A5175656446696C20657272E5
:102500000070756244515452205175656446756C73
:102510006C2C20736B69702072656164696E672E24
:102520002073656E6451756520005D000A707562E8
:10253000445154522053656E64696E67206461741F
:102540006120746F205B006C6F67504C4F20657288
:1025500072206F70656E696E670027006465737A1C
:102560004C696E652072656164756E672073746175
:102570007274206E6F7420666F756E64002700643D
:1025800065737A4C696E652045706F63682065726B
:1025900072270027006465737A4C696E6520657048
:1025A0006F6368207374617274206E6F7420666F3D
:1025B000756E640027006465737A4C696E652053FC
:1025C00074617475732065727227002C002C002CC6
:1025D000504F53542C00466F7263696E67207265CA
:1025E00073657400436865636B20534420666F72A3
:1025F0006D61742E002C30580053644572726F72F6
:102600003A203058006572726F723A200073657418
:102610004654547A2065727220666F7220000080E2
:1026200080805D52544320416C61726D20736574EB
:1026300020666F72206576657279206D696E75749B
:10264000652E2052656720636865636B2077617330
:10265000203078000A2E2E2E207A7A7A5A5A20417B
:1026600077616B652040002920205A5A7A7A7A2EA9
:102670002E2E002F00476F696E6720746F20736CD9
:102680006565702E2052616D28004D4355206E6F98
:102690007420456E61626C65642C55736520612001
:1026A0006E6F6E2D6E656761746976652077616BFC
:1026B000652070696E20746F207265717565737422
:1026C00020736C6565702100000020002300260047
:1026D00029000001020304050607000102030405A6
:1026E00006070001020304050607000102030405B2
:1026F00006070404040404040404020202020202A1
:1027000002020303030303030303010101010101A7
:102710000101010204081020408001020408102079
:1027200040800102040810204080010204081020AB
:102730004080666F72006578706563740045525220
:102740004F5220696E6920706172616D20746F6FE5
:10275000206C6F6E672C20676F7400008ED005C6EA
:1027600011241FBECFEFD0E4DEBFCDBF19E0A0E043
:10277000B1E0E4ECF4EC01E00BBF02C007900D9275
:10278000A431B107D9F720E2A4E1B9E001C01D925C
:10279000A73AB207E1F713E1CFEAD3E104C02197EA
:1027A000FE010E94A2DECE3AD107C9F70E942EC6D2
:1027B0000C9455E20C940000FC01538D448D252FA0
:1027C00030E0842F90E0821B930B541710F0CF96CB
:1027D000089501970895FC01918D828D981761F0FD
:1027E000A28DAE0FBF2FB11D5D968C91928D9F5F14
:1027F0009F73928F90E008958FEF9FEF0895FC01F3
:10280000918D828D981731F0828DE80FF11D858DA5
:1028100090E008958FEF9FEF0895FC01918D228D38
:10282000892F90E0805C9F4F821B91098F739927BD
:10283000089585E998E10E940D1421E0892B09F49F
:1028400020E0822F089582E399E10E940D1421E097
:10285000892B09F420E0822F0895FC01A48DA80F94
:10286000B92FB11DA35ABF4F2C91848D90E00196D2
:102870008F739927848FA689B7892C93A089B189F2
:102880008C91837080648C93938D848D981306C093
:102890000288F389E02D80818F7D80830895EF92F7
:1028A000FF920F931F93CF93DF93EC0181E0888F0A
:1028B0009B8D8C8D98131AC0E889F989808185FFDA
:1028C00015C09FB7F894EE89FF896083E889F9897C
:1028D00080818370806480839FBF81E090E0DF917E
:1028E000CF911F910F91FF90EF900895F62E0B8DD1
:1028F00010E00F5F1F4F0F731127E02E8C8D8E118C
:102900000CC00FB607FCFACFE889F989808185FFF2
:10291000F5CFCE010E942D14F1CFEB8DEC0FFD2FE2
:10292000F11DE35AFF4FF0829FB7F8940B8FEA89AD
:10293000FB8980818062CFCFCF93DF93EC01888DBC
:102940008823B9F0AA89BB89E889F9898C9185FD2A
:1029500003C0808186FD0DC00FB607FCF7CF8C91B8
:1029600085FFF2CF808185FFEDCFCE010E942D142F
:10297000E9CFDF91CF91089580E090E0892B29F095
:102980000E94231481110E94000080E090E0892BB6
:1029900029F00E94191481110C940000089550919F
:1029A000CE0C4091CD0C842F90E0252F30E05417B1
:1029B00018F4821B930B08958C5B9F4FFACF5091B4
:1029C000D10C4091D00C852F90E0242F30E054178B
:1029D00018F0821B930B0895805B9F4FFACF809174
:1029E000D10CE091D00C8E1751F0EF5FE03508F07C
:1029F000E0E0F0E0E858F34F808190E008958FEF39
:102A00009FEF08958091D10C9091D00C891769F0B7
:102A10009F5F903508F090E0E92FF0E0E858F34F21
:102A200080819093D00C90E008958FEF9FEF0895F0
:102A3000DC01ED91FC910084F185E02D0994DC012D
:102A4000ED91FC910680F781E02D099490E080E003
:102A5000089590E080E0089581E00895FC01878565
:102A600090890895FC01708B6787CB010895FC0164
:102A7000858596850895FC0176876587CB01089545
:102A8000FC0180850895FC016087862F0895DC0194
:102A9000ED91FC910688F789E02D099591E081116F
:102AA00001C090E0892F0895FC01E75AFF4F208173
:102AB0003181820F931FFC01878990E00895CF93A5
:102AC000DF931F92CDB7DEB7DC01ED91FC91028858
:102AD000F389E02D41E050E0BE016F5F7F4F099523
:102AE000019731F4898190E00F90DF91CF910895A3
:102AF0008FEF9FEFF9CFDC011C96ED91FC91808167
:102B00009181DC01ED91FC910680F781E02D099423
:102B1000CF93DF931F92CDB7DEB76983DC01ED91D0
:102B2000FC910280F381E02D41E050E0BE016F5F37
:102B30007F4F09950F90DF91CF910895DC01ED91C2
:102B4000FC910688F789E02D099591E0811101C07B
:102B500090E0892F08950F931F93CF93DF9300D0B8
:102B600000D000D0CDB7DEB78C01DC01ED91FC9137
:102B70000084F185E02D0995892B11F51B821C82BB
:102B80001D821E82D8011C96ED91FC9145855685CB
:102B9000678570898B819C81AD81BE8148175907FB
:102BA0006A077B0779F0F801858926960FB6F894B5
:102BB000DEBF0FBECDBFDF91CF911F910F91089562
:102BC00081E0F3CF80E0F1CFDC011C96ED91FC9128
:102BD00080819181DC01ED91FC910680F781E02DEF
:102BE0000994DC011C96ED91FC9180819181DC01BE
:102BF000ED91FC910484F585E02D0994CF93DF934A
:102C00001F92CDB7DEB76983DC01ED91FC910280A4
:102C1000F381E02D41E050E0BE016F5F7F4F0995E9
:102C20000F90DF91CF9108950F931F93CF93DF9370
:102C300000D000D000D0CDB7DEB7DC01ED91FC9123
:102C4000048CF58DE02D22E234E03A832983DB0108
:102C500012960D911D912D913C9115970B831C831C
:102C60002D833E8330E020E0BE016F5F7F4F0995EA
:102C700026960FB6F894DEBF0FBECDBFDF91CF9181
:102C80001F910F910895DC01ED91FC91028CF38D61
:102C9000E02D2BE430E00994DC0112969C91129710
:102CA00030E020E080E0291788F4ED91FC91119745
:102CB000A901440F551FE40FF51F0190F081E02D8D
:102CC000428141118F5F2F5F3F4FEDCF0895CF932A
:102CD000DF93EC01E881F981028CF38DE02D60E057
:102CE000CE0109958823B1F3DF91CF910895EF923A
:102CF000FF920F931F93CF93DF93FC0106A17C01FA
:102D0000F9E2EF0EF11CEC0110E00117C9F0F70138
:102D100061917F01662389F070E090E080E00E947D
:102D2000D0DC9B01AC016A817B818C819D810E94FA
:102D30006FDF6A837B838C839D831F5F2496E5CF3F
:102D4000DF91CF911F910F91FF90EF9008954F92D7
:102D50005F926F927F928F929F92AF92BF92EF920B
:102D6000FF920F931F93CF93DF938C0149015A0178
:102D7000C62FD0E07E01EE0CFF1CEE0CFF1CE00E17
:102D8000F11EF701428053806480758020E03CE3AF
:102D90004CE156ECC301B2010E94C9DC20E03CE3E7
:102DA0004CE156EC81111FC0C501B4010E94C9DC81
:102DB000882351F0F70182829382A482B582C00FEA
:102DC000D11F89A58F5F89A7DF91CF911F910F91A7
:102DD000FF90EF90BF90AF909F908F907F906F90FB
:102DE0005F904F900895C501B4010E94C9DC88230B
:102DF00059F3A5019401C301B2010E9403DFF70159
:102E00006283738384839583DACFCF93DF93EC015E
:102E100090E08EA1981728F5E92FF0E0B596EE0F17
:102E2000FF1FEC0FFD1FA081B1811097C1F012961A
:102E30008C911297811113C01996EC91199784E027
:102E4000E89FF0011124EC0FFD1F42815381648142
:102E5000758113964D935D936D937C9316979F5F49
:102E6000D8CFDF91CF910895FC0183A10895FC0193
:102E7000608170E090E080E0982F872F762F6627A2
:102E80002181620F711D811D911D982F872F762F33
:102E900066272281620F711D811D911D982F872F3A
:102EA000762F66272381620F711D811D911D605849
:102EB0007E478A4A934861152BEE720720ED820700
:102EC00021E6920740F061382EE772072AEA82076E
:102ED00023E8920718F060E070E0CB0108950097B6
:102EE000D9F0823A9105B1F0BC01990F880B990B8A
:102EF0000E94D0DC2BEE32EE4EEC5FE30E942FDD21
:102F000029E23CE946E353E40E9403DF0E94E1DF4B
:102F1000CB01089590E080E00895609100017091E8
:102F20000101072E000C880B990B0E94D0DC08953C
:102F3000AF92BF92CF92DF92EF92FF920F931F93C7
:102F4000DC01DC96ED91FC91DD97309731F18081C9
:102F500040E050E0BA0183FF0CC0408D518D628D7E
:102F6000738D80899189A289B389481B590B6A0B9B
:102F70007B0B4115B0E85B076105710520F04FEF51
:102F80005FE760E070E0CA011F910F91FF90EF9042
:102F9000DF90CF90BF90AF900895DE96ED91FC91B9
:102FA00080E090E0309781F384A583FF23C02089DF
:102FB0003189428953896489758986899789A08076
:102FC000B180C280D380E480F580068117810E94A1
:102FD000E4DEF22FE32F2F3F3F4741055105610506
:102FE00071058105910519F010F0FFEFEFE78F2FC4
:102FF0009E2FCACF20E030E040E050E060E070E07B
:1030000080E090E0E6CFDC011E967C936E931D97E6
:10301000ED91FC910484F585E02D0994DC01139673
:103020007C936E93129715965C934E931497ED9143
:10303000FC910284F385E02DB90109948091D019A7
:10304000811107C08091D119811103C081E0809363
:10305000CF190895089590E080E0089560913209B5
:103060007091330980913409909135090895CF9377
:10307000DF938091981F9091991F892BE1F0C09167
:10308000961FD091971F8A81882329F0EF81F885B8
:10309000DF91CF91099488819981DC01ED91FC91B8
:1030A0000484F585E02D09956B817C818D819E815D
:1030B000DF91CF91089560E070E0CB01F9CF80916E
:1030C000CF0C8111FCCF08958091CE0C8F5F84349A
:1030D00008F080E09091CD0C9817E1F37FB7F89459
:1030E0009091CF0C992359F0E82FF0E0E35DF34F76
:1030F00060838093CE0C7FBF81E090E0089581E0F3
:103100008093CF0C6093730C1092710C8091CC0C57
:103110008823C9F0062E62956025062E6695669571
:1031200060256F5F61FB442740F950E021E030E00B
:10313000823011F030E020E081E04217530709F0BF
:1031400080E08093720C82E086BB80916F00826089
:1031500080936F00809180008F7B806880938000D7
:10316000809184009091850040969093890080938F
:103170008800C1CF8F929F92AF92BF92CF92DF9281
:10318000EF92FF920F931F93CF93DF937C018B01FC
:103190004C0182E0880E911C5701E5E0AE0EB11C97
:1031A000D0E0C0E0F40161914F014AE050E0C80175
:1031B0000E94A6A36C016EE2C8010E94BFA38C0D01
:1031C0009D1DC80FD91F8A149B0461F74AE050E087
:1031D000F7016581C8010E94A6A38C0F9D1FDF9196
:1031E000CF911F910F91FF90EF90DF90CF90BF9004
:1031F000AF909F908F900895CF93DF93EC018BA1B8
:1032000087FD03C061E00E94C1808AA187FD03C0E1
:1032100060E00E94C180C75BDF4F88818160888346
:1032200081E0DF91CF910895FC01838587FD05C082
:10323000648591E069270E94ED7C81E00895FC019E
:10324000838587FD03C064850E94ED7C81E008953D
:10325000CF93DF93EC01FC01E158FF4F0190F08127
:10326000E02D309711F080E009958BA187FD16C005
:1032700060E00E94ED7C1DAA1EAA1FAA18AEFE01E6
:10328000FD9610821182128213823896108211826A
:10329000128213823496808181788083C258DF4FF6
:1032A000888187FD05C060E0DF91CF910C94ED7CB3
:1032B000DF91CF910895EF92FF921F93CF93DF9309
:1032C000EC010E94FC18182F7E018DE7E80EF11C1E
:1032D000F701808187FD03C061E00E94C180FE018B
:1032E000E258FF4F808187FD03C061E00E94C180EA
:1032F000F7018081282F082E000C330BFE01E558C2
:10330000FF4F4081518131979081329760817E9744
:1033100091836083C759DF4F98835A8349833C83E5
:103320002B8337FD03C061E00E94C1808B819C81AB
:1033300097FD03C060E00E94ED7CE981FA818D85F4
:103340009E85092E000CAA0BBB0B84839583A68354
:10335000B783812FDF91CF911F91FF90EF90089558
:10336000CF93DF93EC018BA187FD17C060E00E9433
:10337000ED7C1DAA1EAA1FAA18AEFE01FD961082A2
:103380001182128213823896108211821282138265
:10339000C75BDF4F888181788883DF91CF91089563
:1033A000CF93DF93FC0123A521112BC0EC01838176
:1033B00087FD03C060E00E94C1808B8587FD09C046
:1033C00061E00E94C1806C8581E068278B850E9446
:1033D000ED7C8D8187FD09C061E00E94C1806E8116
:1033E00081E068278D810E94ED7C89A187FD07C05F
:1033F00061E00E94C18060E089A10E94ED7C81E0D3
:103400008BA7DF91CF9108951F93CF93DF93EC01AA
:10341000E881F98102A4F3A5E02D099511E0882344
:1034200071F0E881F98104A0F5A1E02DCE010995A4
:10343000182F89A187FD03C060E00E94ED7C812FD9
:10344000DF91CF911F910895CF93DF93EC018A8193
:1034500087FD07C060E00E94ED7C1AA21BA21CA29F
:103460001DA2DF91CF910895CF93DF93EB01BC01B3
:1034700082E399E10E94E2A460E282E399E10E9482
:10348000BFA3BE0182E399E1DF91CF910C94F6A531
:103490001F93CF93DF93EC01162F4FE359E0FA010E
:1034A00001900020E9F7AF01405459406FE379E003
:1034B00082E399E10E94617A112329F06AE082E3B4
:1034C00099E10E94A8A482E399E10E949C144FE331
:1034D00059E0FA0101900020E9F7AF01405459404A
:1034E000E881F9810280F381E02D6FE379E0CE017C
:1034F0000995112329F063E276E0CE010E94BAA477
:10350000E881F9810680F781E02DCE010995EFE38E
:10351000F9E08DE29CE011928E179F07E1F7DF91B1
:10352000CF911F910895DF92EF92FF920F931F9317
:10353000CF93DF93EC010E945FAEE82E811107C0AC
:10354000E881F9810684F785E02DCE010995FE0119
:10355000E75BFF4F8081982F9870D92E83FF13C0AF
:103560009EA1DE011296FE01B99680E040E05CE388
:103570006CE176EC9817E9F04D935D936D937D9334
:1035800011928F5FF7CFCE010E946716E881F98113
:103590000288F389E02DCE010995182F8111E0CF23
:1035A000812FDF91CF911F910F91FF90EF90DF90CE
:1035B0000895E881F981048CF58DE02D60E0CE015D
:1035C0000995182F8823A9F300E08FA10817E8F4C4
:1035D000E881F9810688F789E02DCE010995F82E5A
:1035E000E881F981068CF78DE02D60E0CE01099528
:1035F0008823B1F3E881F981008CF18DE02DCE01B3
:1036000009958F2118230F5FE0CFCE010E94771616
:10361000DD2039F0E881F9810488F589E02DCE01BB
:103620000995E11007C0E881F9810088F189E02D52
:10363000CE010995CE010E940517B2CFCF92DF923D
:10364000EF92FF920F931F93CF93DF93CDB7DEB727
:10365000C854D1090FB6F894DEBF0FBECDBFFC0130
:10366000E65AFF4F2081222389F081E0C85BDF4FBB
:103670000FB6F894DEBF0FBECDBFDF91CF911F9183
:103680000F91FF90EF90DF90CF9008958C010E94F2
:103690005FAE882351F368012DE3C20ED11CF60101
:1036A00080819181A281B381892B8A2B8B2BE9F2B6
:1036B00081E090E07801FBE5EF0EF11CF701958BBE
:1036C000848BAE014B5D5F4FBE016F5F7F4FC701C3
:1036D0000E946181F701158A148A882339F2F60164
:1036E0001082118212821382389610821182128205
:1036F00013823496908197789083B8CF4F925F92DF
:103700006F927F929F92AF92BF92CF92DF92EF9291
:10371000FF920F931F93CF93DF93CDB7DEB7C854BB
:10372000D1090FB6F894DEBF0FBECDBF8C015C018E
:1037300089E4A80EB11CF501808186FF71C0C80123
:10374000855A9F4FFC01158A148AAE014B5D5F4F6D
:10375000BE016F5F7F4F0E946181982E49AC5AACC9
:103760006BAC7CACCD88DE88EF88F88C882309F4BC
:103770004DC0A3019201C301B2010E946CE08823F5
:1037800039F0412C3CE3532E3CE1632E36EC732E92
:10379000A7019601C701B6010E946CE0882339F0A9
:1037A000C12C2CE3D22E2CE1E22E26ECF22EA3012A
:1037B000920161E0C8010E94A716A701960160E08E
:1037C000C8010E94A716F801EB5BFF4F108211821F
:1037D00012821382F50180818F798083892DC85BE5
:1037E000DF4F0FB6F894DEBF0FBECDBFDF91CF9194
:1037F0001F910F91FF90EF90DF90CF90BF90AF900F
:103800009F907F906F905F904F900895412C9CE324
:10381000592E9CE1692E96EC792E73016201C7CF77
:10382000912CC12C8CE3D82E8CE1E82E86ECF82E5E
:1038300026013701BCCFCF93DF93EC0188819981BA
:10384000DC01ED91FC910084F185E02D0995892B37
:1038500081F088819981DC01ED91FC910284F385EE
:10386000E02D099562E070E080E090E00E94228106
:10387000E5CFDF91CF910895CF93DF93EC0162E024
:1038800070E080E090E00E942281FE01E95AFF4F43
:10389000C75ADF4F8081918128813981821B930B28
:1038A00097FF02C0805C9F4FDF91CF910895CF9228
:1038B000DF92EF92FF920F931F93CF93DF93EC0170
:1038C0006B017A010C811D816AE874E0888199811D
:1038D0000E94BAA4B601888199810E94E2A4B7012E
:1038E000888199810E94BAA4B801888199810E9437
:1038F000BAA488819981DC01ED91FC910680F78161
:10390000E02D099562E070E080E090E0DF91CF91DA
:103910001F910F91FF90EF90DF90CF900C94228138
:10392000CF93DF93EC0162E070E080E090E00E94D2
:103930002281EC85FD8580819181DC01ED91FC91F6
:103940000284F385E02DDF91CF910994CF93DF932B
:10395000EC0162E070E080E090E00E942281EC8562
:10396000FD8580819181DC01ED91FC910084F185E0
:10397000E02DDF91CF910994CF93DF93EC018D81FE
:1039800087FD13C06E810E94ED7C6F8178858985EB
:103990009A850E9422816E8181E068278D810E9434
:1039A000ED7C81E0DF91CF91089580E0FBCF0C9416
:1039B00030D72F923F924F925F926F927F928F9269
:1039C0009F92AF92BF92CF92DF92EF92FF920F93AE
:1039D0001F93CF93DF931F92CDB7DEB78C010E9468
:1039E00093A9380181E7680E711CD301ED91FC9118
:1039F0001482158216821782C8010E94FC18282E94
:103A0000C8010E945FAE482E811108C0D801ED9117
:103A1000FC910684F785E02DC8010995C8010E9434
:103A20006716552453947801BBE5EB0EF11C80E238
:103A3000A82EB12C33243394D3018D909C90F701A0
:103A400084859585009711F00E9430D786E090E03C
:103A50000E9494D66C01E4E4DC01EC9312969C92F3
:103A60008E92119713961C9213971596BC92AE9254
:103A70001497D7011D969C938E931C970E9493A92F
:103A8000F6013382C6010E94417C882309F47AC082
:103A9000F4E9F983D7011C968D919C91FC01248156
:103AA0003581232B09F46EC0208130921F1820939A
:103AB00041181092201810924218BE016F5F7F4F7C
:103AC0000E947D7BD82E882309F45CC061E070E001
:103AD00080E090E00E94228187E090E00E9494D6EE
:103AE000FC0189E891E09183808381E094E09483F4
:103AF0008383F682E582D7015196FC93EE9350972B
:103B000087E090E00E9494D6FC018BE791E09183DE
:103B1000808380E094E094838383F682E582D701FA
:103B20001F96FC93EE931E97F701138A128A158A4B
:103B3000148AD11007C0F801E75BFF4F80818E7FA8
:103B4000806880832D20411008C0D801ED91FC9140
:103B50000088F189E02DC8010995822D0F90DF9131
:103B6000CF911F910F91FF90EF90DF90CF90BF907A
:103B7000AF909F908F907F906F905F904F903F900D
:103B80002F9008955394E6E05E1256CFD12CCCCFFF
:103B90000C9430D70C9430D70C9430D70C9430D789
:103BA0008F929F92AF92BF92CF92DF92EF92FF924D
:103BB000CF93DF93EC01FC01E65AFF4FE080F180E8
:103BC00062E674E0C7010E94EFE1892B71F067E6BD
:103BD00074E0C7010E94EFE126E6C22EDC2C26E944
:103BE000E22E20E4F22E892B41F496EFC92E98E2C2
:103BF000D92E9CEBE92E9FE3F92E84E070E060E083
:103C0000C45ADF4F9881983108F0985197709064AA
:103C100090937C0090917A00906490937A009091B8
:103C20007A0096FDFCCF9091780020917900322F98
:103C3000292F620F731F815029F776956795769526
:103C4000679590E080E00E94CEDC4B015C012DE0A6
:103C500038E643E55BE3C701B6010E942FDD9B0117
:103C6000AC01C501B4010E942FDDDF91CF91FF901F
:103C7000EF90DF90CF90BF90AF909F908F9008957E
:103C80000F931F93CF93DF9300D0CDB7DEB78C0196
:103C90000E94D01D9B01AC0160E0C8010E94A716E4
:103CA0008091A3209091A420009711F487EA90E2DC
:103CB000BE016F5F7F4F681B790B072E000C880BCE
:103CC000990B0E94D0DC9B01AC0161E0C8010E940D
:103CD000A716F801E35AFF4F608171816F5F7F4F34
:103CE00071836083072E000C880B990B0E94D0DC37
:103CF0009B01AC0162E0C8010E94A716F801EB5BD2
:103D0000FF4F1082118212821382349680818F7944
:103D1000808381E00F900F90DF91CF911F910F91E1
:103D20000895CF92DF92EF92FF921F93CF93DF938C
:103D3000EC0181E10E9479A9182F82E10E9479A902
:103D4000682F70E086E0759567958A95E1F7072EF4
:103D5000000C880B990B17FF33C00E94D0DC20E0C9
:103D600030E040E85EE30E942FDD6B017C01612FB3
:103D7000619570E090E080E00E94D0DC9B01AC0196
:103D8000C701B6010E9403DF90589B01AC0160E0BF
:103D9000CE010E94A716FE01EB5BFF4F108211823D
:103DA00012821382C75BDF4F88818F79888381E01D
:103DB000DF91CF911F91FF90EF90DF90CF9008950A
:103DC0000E94D0DC20E030E040E85EE30E942FDD7E
:103DD0006B017C01612F70E090E080E00E94D0DCFC
:103DE0009B01AC01C701B6010E9403DFCECFCF9388
:103DF000DF93EC010E9443AECE01DF91CF910C9492
:103E0000FC182F923F924F925F926F927F928F9207
:103E10009F92AF92BF92CF92DF92EF92FF920F9359
:103E20001F93CF93DF9300D000D01F92CDB7DEB7A2
:103E30001C01875B9F4F9A838983FC01808186FFE9
:103E4000F6C0C101865A9F4F9D838C83FC018281FD
:103E500080FFE5C08F01015F1F4F65E270E0C80180
:103E60000E9434A2812CFCE39F2EFCE1AF2EF6ECE5
:103E7000BF2E882329F0C8010E9407AF4B015C01C7
:103E8000EC81FD8183829482A582B682EC81FD81E2
:103E90008281C12C6CE3D62E6CE1E62E66ECF62E08
:103EA00081FF1CC08F01015F1F4F6DE270E0C801F0
:103EB0000E9434A2C12C7CE3D72E7CE1E72E76EC65
:103EC000F72E882329F0C8010E9407AF6B017C01FF
:103ED000EC81FD81C782D086E186F286EC81FD818E
:103EE0008281412C4CE3542E4CE1642E46EC742E1E
:103EF00082FF1CC08F01015F1F4F65E370E0C801A6
:103F00000E9434A2412C5CE3552E5CE1652E56ECF8
:103F1000752E882329F0C8010E9407AF2B013C01B0
:103F2000EC81FD814386548665867686A5019401E1
:103F3000C501B4010E946CE0882339F0812C3CE378
:103F4000932E3CE1A32E36ECB32EA7019601C701B8
:103F5000B6010E946CE0882339F0C12C2CE3D22EEC
:103F60002CE1E22E26ECF22EA3019201C301B20154
:103F70000E946CE0882339F0412C9CE3592E9CE18F
:103F8000692E96EC792E20E03CE34CE156ECC5011D
:103F9000B4010E94C9DC882309F456C020E030E057
:103FA0004AE754E4C501B4010E942FDD9B01AC0136
:103FB000F1E0FB8360E0C1010E94A716A701960112
:103FC00061E0C1010E94A716A301920162E0C10154
:103FD0000E94A716F101EB5BFF4F10821182128243
:103FE0001382E981FA8180818F7980838B810F90A0
:103FF0000F900F900F900F90DF91CF911F910F9125
:10400000FF90EF90DF90CF90BF90AF909F908F90F8
:104010007F906F905F904F903F902F900895812CEC
:10402000ECE39E2EECE1AE2EE6ECBE2E2FCFC12CA3
:104030008CE3D82E8CE1E82E86ECF82E2601370191
:10404000A70196011B82B6CF20E03CE34CE156EC81
:1040500081E08B83AFCFCF93DF93EC018BA187FD02
:1040600009C061E00E94ED7C0E9455816DAB7EAB82
:104070008FAB98AFFE01E258FF4F808187FD03C0F0
:1040800061E00E94ED7CFE01E158FF4F0190F0815C
:10409000E02D309711F081E00995C75BDF4F8881F3
:1040A00086608883DF91CF9108950F931F93CF93FC
:1040B000DF93FC01E75BFF4F208126FF22C0EC016C
:1040C0000E945581FE01EB5BFF4F0081118122812F
:1040D0003381AB01BC01401B510B620B730BCF5BF7
:1040E000DF4F81E0088119812A813B810417150780
:1040F0002607370708F080E0DF91CF911F910F91DD
:10410000089581E0F9CF0F931F93CF93DF93FC01C4
:10411000E75BFF4F208124FF1FC0EC010E94558107
:10412000FE01FD960081118122813381AB01BC012A
:10413000401B510B620B730B81E009AD1AAD2BAD27
:104140003CAD041715072607370708F080E0DF911C
:10415000CF911F910F91089581E0F9CF0F931F9395
:10416000CF93DF93FC01E75BFF4F208122FF1DC04F
:10417000EC010E9455810DA91EA92FA938ADAB01F4
:10418000BC01401B510B620B730B81E009A91AA9FA
:104190002BA93CA9041715072607370708F080E06C
:1041A000DF91CF911F910F91089581E0F9CF0F9387
:1041B0001F93CF93DF93EC018C01075B1F4FF80136
:1041C000808180FD07C0E881F9810284F385E02DBC
:1041D000CE010995F8019081892F80628083CB5BA5
:1041E000DF4F94FF10C00E945581688379838A83D2
:1041F0009B83F80180818064808381E0DF91CF918F
:104200001F910F910895188219821A821B829F7B39
:104210009062908380E0F2CFCF930E94D720C82F86
:10422000882369F08EE00E9479A9682F60628EE091
:104230000E9469A88EE00E9479A985FDFBCF8C2F92
:10424000CF9108950F931F93CF93DF938C01EC01CF
:10425000C75BDF4F9881892F88608883035C1F4F7D
:1042600092FD0EC0F80110821182128213829F7E8D
:104270009860988380E0DF91CF911F910F9108950E
:104280000E945581F80160837183828393838881C2
:104290008061888381E0EFCFCF93DF93EC018BA126
:1042A00087FD0EC061E00E94C18061E08BA10E9489
:1042B000ED7C0E9455816DAB7EAB8FAB98AF08C093
:1042C0008DA99EA9AFA9B8AD892B8A2B8B2B89F319
:1042D000C75BDF4F888186608883DF91CF91089527
:1042E0008F929F92AF92BF92FF920F931F93CF93A3
:1042F000DF93CDB7DEB728970FB6F894DEBF0FBEB9
:10430000CDBF8C0181EF98ED909301018093000166
:104310009A8389839C838B8383E68F838DE9888747
:104320008FE097E29E838D830E9455814B015C0153
:10433000D801ED91FC91008CF18DE02DAE014D5F27
:104340005F4FBE016F5F7F4FC8010995F82E8981CD
:104350009A819093010180930001009719F0813FA9
:10436000984DD1F46AEF70E080E090E00E942281E5
:1043700089819A81009719F0813F984D69F40E94D4
:104380005581681979098A099B0968397A43810539
:10439000910510F4F110CCCFD801ED91FC91028C75
:1043A000F38DE02D9E012B5F3F4FAE01485F5F4FC5
:1043B000BE01695F7F4FC8010995F822D801ED91D0
:1043C000FC91048CF58DE02DC80109958F2D289660
:1043D0000FB6F894DEBF0FBECDBFDF91CF911F9116
:1043E0000F91FF90BF90AF909F908F9008958F9204
:1043F0009F92AF92BF92FF920F931F93CF93DF9341
:10440000EC0181E08AA78AA19BA1ACA1BDA101E03A
:10441000892B8A2B8B2B41F4E881F9810084F1856B
:10442000E02DCE01099500E0E881F98102A4F3A511
:10443000E02DCE010995F82E882301F1E881F9815C
:1044400000A4F1A5E02DCE010995182F811101C01E
:104450001AA6011133C0E881F9810684F785E02DA1
:10446000CE0109951823812FDF91CF911F910F91D4
:10447000FF90BF90AF909F908F9008950E945581BC
:104480008AA09BA0ACA0BDA0681979098A099B09E4
:10449000898C9A8CAB8CBC8C681579058A059B0538
:1044A00068F3E881F9810680F781E02DCE01099556
:1044B000182F8111C3CF011103C0CDCFF110D3CF7D
:1044C000E881F9810484F585E02DCACFCF93DF938D
:1044D000EC018A8187FD17C08B8587FD05C06C853F
:1044E00091E069270E94ED7C61E08A810E94C18091
:1044F00061E08A810E94ED7C0E9455816AA37BA3C2
:104500008CA39DA308C08AA19BA1ACA1BDA1892BAE
:104510008A2B8B2B89F3DF91CF910895EF92FF9235
:104520000F931F93CF93DF937C01EB018A0162E02D
:1045300070E080E090E00E942281D7011C96ED910E
:10454000FC91A801BE0180819181DF91CF911F91E3
:104550000F91FF90EF900C940BA2CF92DF92EF920D
:10456000FF920F931F93CF93DF93EC010E9455812D
:104570006B017C01E881F9810484F585E02DCE0191
:1045800009958A8187FD24C08B8187FD2BC00E94FD
:1045900055816C197D098E099F090D891E892F8906
:1045A000388D601771078207930738F48B810E945A
:1045B000C47C2C812817190651F38B810E94C47C7E
:1045C00060E08A810E94ED7C1AA21BA21CA21DA29F
:1045D00081E0DF91CF911F910F91FF90EF90DF90DD
:1045E000CF9008958D899E89AF89B88D892B8A2BAC
:1045F0008B2B31F30E9455816C197D098E099F091F
:104600000D891E892F89388D6017710782079307DE
:1046100088F3D6CFCF93DF93EC01E881F981008452
:10462000F185E02D0995892B31F48C859D85DF91ED
:10463000CF910C94DDC381E0DF91CF9108952F924B
:104640003F924F925F926F927F928F929F92AF9222
:10465000BF92CF92DF92EF92FF920F931F93CF936F
:10466000DF93CDB7DEB72C970FB6F894DEBF0FBE41
:10467000CDBF5C011B015E834D8362E070E080E092
:1046800090E00E9422810E9455812B013C01F12C77
:10469000E12C9501295A3F4F38872F83C501875A4E
:1046A0009F4F9C838B83F5017796FA87E9872D814D
:1046B0003E81E216F30608F082C00E94558164191B
:1046C000750986099709F5010481158126813781CD
:1046D000601771078207930708F071C0EF81F885B2
:1046E0000190F081E02DFA83E983EB81FC818081E8
:1046F000918129813A81281B390B3A83298337FF1D
:1047000004C0205C3F4F3A83298389819A819C872A
:104710008B878D819E818E199F09EB85FC85E8171B
:10472000F90708F446C09C878B87CB84DC843A82E7
:104730002982EB81FC8180809180EF81F8858081E6
:1047400091818819990997FF02C0805C9F4F00975B
:1047500049F100E410E008191909C016D1060CF45B
:104760008601801791070CF48C0169857A85680DA4
:10477000791DA80189819A810E94B7E1800E911E5E
:10478000FFE38F229924EB81FC8191828082C01A01
:10479000D10A29813A81200F311F3A832983C1141C
:1047A000D10439F68B859C85280E391EE80EF91E3A
:1047B0007ECF2B853C85232B09F479CFB6CFC7015B
:1047C0002C960FB6F894DEBF0FBECDBFDF91CF9110
:1047D0001F910F91FF90EF90DF90CF90BF90AF901F
:1047E0009F908F907F906F905F904F903F902F9011
:1047F0000895EF92FF920F931F93CF93DF93EC01F5
:104800008B017A0162E070E080E090E00E942281FA
:10481000A701B8018C859D85DF91CF911F910F91E4
:10482000FF90EF900C9495C5EF92FF920F931F931A
:10483000CF93DF93EC018B017A0162E070E080E0BE
:1048400090E00E942281A701B8018C859D85DF91AF
:10485000CF911F910F91FF90EF900C9495C5BC01E3
:1048600082E399E10E94E2A46CE674E082E399E1BC
:104870000E94BAA461E774E082E399E10C948FA3EB
:10488000BC0182E399E10E94F0A56CE674E082E34A
:1048900099E10E94BAA461E774E082E399E10C9483
:1048A0008FA3CF92DF92EF92FF920F931F93CF933C
:1048B000DF9300D000D000D0CDB7DEB78C016B0104
:1048C0007A01FC01848595850E941B1CF801848572
:1048D0009585268542E254E05A834983F601428158
:1048E0005381648175814B835C836D837E83A701D3
:1048F000BE016F5F7F4F0E94DDC2F801858B90E0A3
:1049000026960FB6F894DEBF0FBECDBFDF91CF91D4
:104910001F910F91FF90EF90DF90CF9008954F92ED
:104920005F926F927F928F929F92AF92BF92CF923F
:10493000DF92EF92FF920F931F93CF93DF931F921B
:10494000CDB7DEB7FC0104AD15AD0115110589F138
:10495000F80180889188A288B388C484D584E684CD
:10496000F784BE016F5F7F4FC8010E945CAB019767
:10497000E9F4898190E0F801808A918AA28AB38A59
:10498000C486D586E686F7860F90DF91CF911F917A
:104990000F91FF90EF90DF90CF90BF90AF909F90DE
:1049A0008F907F906F905F904F9008958FEF9FEF63
:1049B000E2CF06AD17AD8FEF9FEF0115110521F383
:1049C000F801408051806280738084809580A68049
:1049D000B780C08CD18CE28CF38C41E050E0BE01FA
:1049E0006F5F7F4FC8010E94E18E019781F489813A
:1049F00090E0F801408251826282738284829582C3
:104A0000A682B782C08ED18EE28EF38EBDCF8FEF9D
:104A10009FEFEFCFCF93DF931F92CDB7DEB7FC01AF
:104A200084AD95AD009751F0BE016F5F7F4F0E943E
:104A30005CAB019739F4898190E006C086AD97ADF3
:104A4000009731F48FEF9FEF0F90DF91CF91089592
:104A500041E050E0BE016F5F7F4F0E94E18EE9CFE1
:104A6000FC0184AD95AD009711F00C94F18786ADF3
:104A700097AD009711F00C946F8B0895BF92CF9271
:104A8000DF92EF92FF920F931F93CF93DF936B010F
:104A90008C01F12CE12CB02ED12FF801C1918F01A6
:104AA000CC23F1F0C114D10449F06C2F0C2E000C72
:104AB000770BC6010E94E4E1892B91F4EF2851F0B5
:104AC0006C2F0C2E000C770B8DE794E00E94E4E134
:104AD000892B31F48C2F90E00E9408DA7C01DBCF27
:104AE0008B2D9D2FDF91CF911F910F91FF90EF9014
:104AF000DF90CF90BF9008950F931F93CF93DF93D4
:104B00008C01EC0109900020E9F721970C171D0793
:104B100040F48A9190E00E9408DA892B11F0188203
:104B2000F5CFC801DF91CF911F910F9108952F927A
:104B30003F924F925F926F927F928F929F92AF922D
:104B4000BF92CF92DF92EF92FF920F931F93CF937A
:104B5000DF93CDB7DEB7CA5CD1090FB6F894DEBFDC
:104B60000FBECDBF2B01FE01EB59FF4F11921192E9
:104B700020E3DF01322F1D923A95E9F7FE01E95655
:104B8000FF4F11921192DF011D922A95E9F7D12C66
:104B9000C12CB12CA12C80569D4F3C01FE013196B9
:104BA0007F01CE010496C753DF4F99838883C95C88
:104BB000D040B701C3010E94A0AD892B09F4BCC04D
:104BC0009FEFA91AB90AA1E0AA16B10409F04FC0D3
:104BD00089818F3E09F04BC08A818B3B09F047C029
:104BE0008B818F3B09F043C0C753DF4F8881C95C7D
:104BF000D040C653DF4F9881CA5CD0400E947C25CC
:104C00008C014801F80131908F01332031F0832D60
:104C100090E00E9408DA892BA1F7632D032C000C89
:104C2000770B8FE794E00E94E4E1892B11F6C956D7
:104C3000DF4F8881C759D0408823D9F0332009F449
:104C4000B8CFE814F90408F073C0A401BE01695696
:104C50007F4FCE018B599F4FF2010995892B09F0A7
:104C6000A8CFC114D10409F0A4CF6501A2CFC70118
:104C7000C5CFFBE53F1220C03FEF831A930A62E8DD
:104C800074E0C4010E943E25DC012C912D3549F7CA
:104C90001C9241E350E0B401CE018B599F4F0E941A
:104CA0001DE2CA56DF4F1882C659D040C956DF4FA1
:104CB0001882C759D0407DCF332009F47ACF64E8F9
:104CC00074E0C4010E943E25FC0120812D3311F0C7
:104CD0002A3339F6DC011D928D01C4010E947C2526
:104CE0004C0170E060E0C8010E943E25FC0120817B
:104CF000211110821801D8018D918D01882329F08E
:104D000090E00E9408DA892BA9F7C1010E947C2556
:104D100041E350E0B401CE0189569F4F0E941DE24D
:104D2000C853DF4F1882C85CD040A101B40191CFB5
:104D3000FBE53F12C4CFA0CF8C2DC653DF4F0FB67B
:104D4000F894DEBF0FBECDBFDF91CF911F910F91C1
:104D5000FF90EF90DF90CF90BF90AF909F908F909B
:104D60007F906F905F904F903F902F900895CF92DB
:104D7000DF92EF92FF926A017B01BC0182E399E12D
:104D80000E94E2A460E282E399E10E94BFA342E0B4
:104D900050E0C701B601FF90EF90DF90CF900C94E8
:104DA0000EA64F925F926F927F92AF92BF92CF9278
:104DB000DF92EF92FF920F931F93CF93DF938CEAD2
:104DC0009FE10E94D01D8B01D82FC92F80912D0902
:104DD000882309F487C080912C0994E0899FF00111
:104DE0001124EC5EF64FA8016D2F7C2F4083518378
:104DF000628373838F5F863008F071C080932C09C3
:104E000094E1A92E99E0B92E6801ED2EFC2EF50152
:104E100041905190619071905F01A7019601C3018B
:104E2000B2010E94C9DC87FF02C073016201FCE28B
:104E3000AF16F9E0BF0659F7C0923209D092330994
:104E4000E0923409F0923509A7019601B8018D2F3F
:104E50009C2F0E94C9DC87FF95C063EF71E082E35D
:104E600099E10E94E2A423E0A8016D2F7C2F82E348
:104E700099E10E94C6A36FEC75E082E399E10E947C
:104E8000BAA46091320970913309809134099091EC
:104E9000350943E050E00E940EA6C801AD2FBC2F9B
:104EA0008093320990933309A0933409B093350964
:104EB00060913209709133098091340990913509DC
:104EC000DF91CF911F910F91FF90EF90DF90CF90E6
:104ED000BF90AF907F906F905F904F900895109229
:104EE0002C098ECF8CEA9FE10E94D01D6B017C01C2
:104EF00085E0B82E68EC70E080E090E00E942281AE
:104F00008CEA9FE10E94D01D8B01D82FC92FA701E9
:104F100096010E9417E0181654F4A8016D2F7C2FFB
:104F200081E292E00E94B7266801ED2EFC2EBA9431
:104F3000B110E0CFE4E1F9E0C192D192E192F192B7
:104F400089E0EC32F807C1F781E080932D0962E136
:104F500072E082E399E10E94E2A423E0A8016D2FB0
:104F60007C2F82E399E10E94C6A366E072E082E3AF
:104F700099E10E94E2A466E070E082E399E10E9478
:104F8000F6A55ACF60EE71E082E399E10E94E2A4B7
:104F9000409132095091330960913409709135097B
:104FA00023E082E399E10E94C6A36FEC75E082E3FF
:104FB00099E10E94BAA443E050E0B8018D2F9C2FE4
:104FC0000E940EA675CFCF92DF92EF92FF92CF9301
:104FD000DF93EC010E94D1266B017C01C0920B2073
:104FE000D0920C20E0920D20F0920E20C130D1051D
:104FF00009F466C0229709F46EC020E030E040E07A
:105000005FE30E94C9DC87FF08C084E090E09093D2
:1050100031098093300981E046C080910F20909142
:10502000102024E1289FE001299FD00D1124C55FA5
:10503000DF4D2A893B894C895D89C701B6010E94F1
:1050400017E087FFE2CF2E853F8548895989C70140
:10505000B6010E9417E087FF30C02A853B854C854A
:105060005D85C701B6010E9417E087FF23C02E812E
:105070003F8148855985C701B6010E9417E087FF27
:105080000CC0109231091092300970E060E085E1A7
:1050900099E00E94341A80E006C081E090E090938D
:1050A000310980933009DF91CF91FF90EF90DF902D
:1050B000CF90089582E090E0AACF83E090E0A7CF60
:1050C000609130097091310987E699E0633071058C
:1050D0000CF0A1CFDECF60913009709131096430BE
:1050E00071050CF098CF8DE399E0D3CF1F920F920A
:1050F0000FB60F9211240BB60F922F933F934F933D
:105100005F936F937F938F939F93AF93BF93EF932F
:10511000FF9385E998E10E942D14FF91EF91BF91D3
:10512000AF919F918F917F916F915F914F913F913F
:105130002F910F900BBE0F900FBE0F901F901895E0
:105140001F920F920FB60F9211240BB60F922F934E
:105150008F939F93EF93FF93E091A518F091A6187A
:105160008081E091AB18F091AC1882FD1DC0908158
:105170008091AE188F5F8F732091AF18821741F026
:10518000E091AE18F0E0EB56F74E958F8093AE1895
:10519000FF91EF919F918F912F910F900BBE0F90E8
:1051A0000FBE0F901F9018958081F2CF1F920F9223
:1051B0000FB60F9211240BB60F922F933F934F937C
:1051C0005F936F937F938F939F93AF93BF93EF936F
:1051D000FF9382E399E10E942D14FF91EF91BF911B
:1051E000AF919F918F917F916F915F914F913F917F
:1051F0002F910F900BBE0F900FBE0F901F90189520
:105200001F920F920FB60F9211240BB60F922F938D
:105210008F939F93EF93FF93E0914219F09143197D
:105220008081E0914819F091491982FD1DC090815B
:1052300080914B198F5F8F7320914C19821741F029
:10524000E0914B19F0E0EE5CF64E958F80934B1990
:10525000FF91EF919F918F912F910F900BBE0F9027
:105260000FBE0F901F9018958081F2CF1F920F9262
:105270000FB60F9211240BB60F922F933F934F93BB
:105280005F936F937F938F939F93EF93FF9380919F
:105290006F008B7F80936F00809181008F7B809364
:1052A00081004091D20C5091770C60E8650F7091AD
:1052B000CA0C8091760C90E0741728F04F5F95959A
:1052C0008795862BF8CF4091C80C02C0959587959D
:1052D0004A95E2F78093760CE091CC0CEE23C9F06E
:1052E000482F042E42954025042E4695469540258C
:1052F0004F5F41FB222720F961E070E0E23009F0C6
:1053000060E02627217031E0503809F430E023179F
:1053100089F02091D10C2F5F203508F020E03091EA
:10532000D00C321739F0E22FF0E0E858F34F8083C9
:105330002093D10C1092D20C809181008F7B8093AE
:1053400081001092770CFF91EF919F918F917F9147
:105350006F915F914F913F912F910F900BBE0F90E6
:105360000FBE0F901F9018951F920F920FB60F92BD
:1053700011240BB60F920F931F932F933F934F93CC
:105380005F936F937F938F939F93AF93BF93CF93CD
:10539000EF93FF9380918600909187003091770C76
:1053A00020918100332309F443C02F7B2093810097
:1053B0001092770C2091D20C211141C0311122C0E2
:1053C0002091D30C3091D40C280F391F30938B00CF
:1053D00020938A0024E026BB20916F002460209354
:1053E0006F002091D50C3091D60C820F931F36950B
:1053F0002795280F391F3093750C2093740C81E08A
:105400008093D20CFF91EF91CF91BF91AF919F917B
:105410008F917F916F915F914F913F912F911F914C
:105420000F910F900BBE0F900FBE0F901F9018950D
:1054300020642093810020E82093770CBBCF40911B
:10544000740C5091750CE091D50CF091D60C8F0135
:1054500000951095B091CA0CC091770C3091760CE4
:10546000A091C90C841B950B0817190708F458C0A4
:10547000B21710F036953C2B4E0F5F1F2F5F8E1B1F
:105480009F0BA21788F73093760C80916F008B7F6B
:1054900080936F002091760C30E08091C80C02C0A0
:1054A000359527958A95E2F72093760C4091CC0CA0
:1054B0004423D9F0922F092E92959025092E969586
:1054C000969590259F5F91FB662760F981E090E0BB
:1054D000423009F080E08627817091E04091770C9E
:1054E000411101C090E0891789F08091D10C8F5F44
:1054F000803508F080E09091D00C981739F0E82FB3
:10550000F0E0E858F34F20838093D10C8091810024
:105510008F7B809381001092770C1092D20C72CF07
:105520003093760C5093750C4093740C2093D20CEE
:1055300069CF1F920F920FB60F9211240BB60F92E4
:105540002F933F934F935F936F937F938F939F938B
:10555000AF93BF93CF93DF93EF93FF938091CF0CE3
:10556000E091730C2091880030918900C091D50C96
:10557000D091D60CB091720C4091CA0C50E04F5FA4
:105580005F4FA091CC0CF091710C8B3050F52C0F2B
:105590003D1F8930F0F49E2F9170E6958F5F841740
:1055A000150619F48AE0A11189E0F91771F3409109
:1055B0008000992399F0406C4093800030938900DB
:1055C000209388009093710CE093730C8093CF0C20
:1055D00020C09B2F893011F391E0E0CF4F7B4068D2
:1055E000EBCF9091CE0CE091CD0C9E1334C08B305C
:1055F00029F58CE08093CF0C4091CB0C4C9FC001DF
:105600004D9F900D1124280F391F3093890020934E
:105610008800FF91EF91DF91CF91BF91AF919F9162
:105620008F917F916F915F914F913F912F910F904B
:105630000BBE0F900FBE0F901F9018951092CF0CBD
:10564000809180008F738093800080916F008D7FA8
:1056500080936F00DECFEF5FE43408F0E0E0E0938A
:10566000CD0CF0E0E35DF34F90819093730C1092BA
:10567000710CAA23C9F0092E92959025092E9695B2
:10568000969590259F5F91FB662760F970E041E059
:1056900050E0A23011F050E040E091E0641775074F
:1056A00009F090E09093720C909180009F7B90683D
:1056B000909380008B3099F46091CB0C4091D50C85
:1056C0005091D60C649FC001659F900D1124280F46
:1056D000391F309389002093880081E077CF809133
:1056E0008400909185004096909389008093880073
:1056F000F4CF60E086E00E94C18060E085E00C9419
:10570000C18062E086E00E94C18061E085E00E9485
:10571000ED7C61E085E00C94C18081110C94812BBB
:105720000C94792BBC0182E399E10C9406A5DC0171
:1057300014966D917C9115976115710531F0ED917D
:10574000FC910680F781E02D099480EA97E10E94A0
:10575000922B90E080E00895CF92DF92EF92FF923B
:105760000F931F93CF93DF93EC016A017B018AA112
:105770009BA1ACA1BDA1892B8A2B8B2B39F4E8818D
:10578000F9810084F185E02DCE010995E881F98148
:1057900002A4F3A5E02DCE010995882379F0B70185
:1057A000A601CE018C5B9F4FDF91CF911F910F918E
:1057B000FF90EF90DF90CF900C94BDAE0E9455818A
:1057C0000AA11BA12CA13DA1601B710B820B930BA5
:1057D000098D1A8D2B8D3C8D6017710782079307F9
:1057E00068F383E192E10E94922BE881F9810680BF
:1057F000F781E02DCE0109958111D1CFDF91CF91B5
:105800001F910F91FF90EF90DF90CF900895CF936D
:10581000DF93EB01BC0182E399E10E94C2A460E244
:1058200082E399E10E94BFA3CE01DF91CF910C9456
:10583000922BCF93C62FBC0182E399E10E94E2A490
:1058400060E282E399E10E94BFA36C2F70E082E3E3
:1058500099E1CF910C94F6A5CF93DF93EC01688585
:1058600080E897E10E94192C8885DF91CF910895F7
:10587000CF93DF93EC0168858FEF99E00E94192C9C
:105880008885DF91CF910895CF93DF9320EB33E0AC
:10589000DC012D933C93EC01C55ADF4F8E859F852B
:1058A000009739F0DC01ED91FC910280F381E02D4D
:1058B000099588899989009749F0DC01ED91FC915F
:1058C0000280F381E02DDF91CF910994DF91CF9198
:1058D0000895CF93DF93EC010E94442CCE01DF9119
:1058E000CF910C9430D7089508950895CF93DF9306
:1058F000EB01BC0182E399E10E94E2A460E282E351
:1059000099E10E94BFA3BE0182E399E1DF91CF91AB
:105910000C9421A6BC0182E399E10C94F6A50895AC
:10592000CF93DF93EB01BC0182E399E10E94E2A4F3
:1059300060E282E399E10E94BFA3CE01DF91CF91A3
:105940000C948A2CBC0182E399E10C948FA3CF9331
:10595000DF93EB01BC0182E399E10E94E2A460E2E3
:1059600082E399E10E94BFA3CE01DF91CF910C9415
:10597000A22CAF92BF92CF92DF92EF92FF920F9341
:105980001F93CF93DF93CDB7DEB728970FB6F89468
:10599000DEBF0FBECDBFFC01AE014F5F5F4F88E0A1
:1059A000DA011D928A95E9F7DB0114960D911C919D
:1059B000D12C30E020E0AAE0CA2EED2CF12CE0162C
:1059C000F10608F049C0DB018D919C91009729F107
:1059D000D701A80FB91F8C918E3201F52F5F3F4F71
:1059E00024303105A4F182E294E091838083128215
:1059F000138214821582CF0128960FB6F894DEBF69
:105A00000FBECDBFDF91CF911F910F91FF90EF900F
:105A1000DF90CF90BF90AF90089580E090ED980F09
:105A20009A30B8F4D901AA0FBB1FA40FB51FAD90CF
:105A3000BC901197CA9C7001CB9CF00C1124082ECD
:105A4000000C990BC0978E0D9F1D8D939C93D39442
:105A5000B4CF23303105D9F78F819D812B813981D6
:105A600042E254E0518340833283238394838583CD
:105A7000C2CFCF92DF92EF92FF920F931F93CF93FB
:105A8000DF93EC016B017A010C811D816AE874E0FF
:105A9000888199810E94BAA4B601888199810E9467
:105AA000E2A4B701888199810E94F0A5B80188819C
:105AB00099810E94BAA488819981DC01ED91FC91C1
:105AC0000680F781E02D099562E070E080E090E0CB
:105AD000DF91CF911F910F91FF90EF90DF90CF90CA
