:100000000C94B8110C944E670C9423670C94F8660A
:100010000C9483660C940E660C9499650C9424657C
:100020000C9445360C94E2110C94E2110C94E211FC
:100030000C94DE2D0C94552E0C94932D0C94E211FF
:100040000C94E2110C94E2110C946E8F0C94E2115A
:100050000C945D2D0C94332D0C94E2110C94E21150
:100060000C94E2110C94E2110C94038A0C94E211AA
:100070000C94FD2C0C94D32C0C94E2110C94E211F2
:100080000C94E2110C94E2110C94E21108000000AF
:10009000BE922449123EABAAAA2ABECDCCCC4C3E7D
:1000A00000000080BEABAAAAAA3E00000000BF006C
:1000B0000000803F0000000000084178D3BB438768
:1000C000D1133D190E3CC3BD4282AD2B3E68EC827C
:1000D00076BED98FE1A93E4C80EFFFBE01C4FF7F01
:1000E0003F00000000004E414E494E495459494ED0
:1000F00046CDCCCC3D0AD7233C17B7D13877CC2B93
:10010000329595E6241FB14F0A000020410000C837
:100110004200401C4620BCBE4CCA1B0E5AAEC59DB8
:100120007400407A10F35A00A0724E18090010A50E
:10013000D4E80000E87648170000E40B5402000001
:10014000CA9A3B000000E1F5050000809698000087
:100150000040420F000000A08601000000102700B0
:10016000000000E803000000006400000000000A36
:1001700000000000000100000000002C76D888DCA0
:10018000674F0823DFC1DFAE59E1B1B796E5E3E47D
:1001900053C63AE651997696E8E6C28426EB898CF6
:1001A0009B62ED407C6FFCEFBC9C9F40F2BAA56F58
:1001B000A5F490055A2AF75C936B6CF9676DC11B27
:1001C000FCE0E40D47FEF520E6B500D0ED902E03EF
:1001D00000943577050080841E080000204E0A0038
:1001E0000000C80C333333330F986E12831141EF84
:1001F0008D2114893BE65516CFFEE6DB18D1844BE2
:10020000381BF77C1D901DA4BBE424203284725E51
:10021000228100C9F124ECA1E53D2750696E000060
:1002200074696D6573206265666F726520746865B8
:100230002072657365742E00736563207769746836
:100240002074686520696E746572727570742066BA
:100250006972696E670057617463682D646F672007
:1002600074696D656F757420697320736574206699
:100270006F720074696D6573206265666F726520C8
:100280007468652073797374656D20726573657425
:10029000732E005761746368646F6720456E6162F6
:1002A0006C65642C20496E74657272757074207769
:1002B000696C6C206669726500206578706563748E
:1002C0006564002E2E2E205761746368646F67206A
:1002D0006C6F77206261726B73556E74696C5265D6
:1002E00073657400205741544348444F4720495395
:1002F00052206261726B73556E74696C52657365DE
:100300007400202A2A2A2A205741544348444F4740
:1003100020576F6F6620576F6F662E20526573658A
:1003200074696E672050726F636573736F722A2AE7
:100330002A004442004C4D00414D00006661696C4A
:10034000656420746F2077616B6521006D6F646553
:100350006D486172645265736574206661696C658D
:10036000642100417474656D7074696E672061204A
:1003700068617264207265736574206F6E207468A2
:1003800065206D6F64656D2120004E6F207265736E
:10039000706F6E736520746F20415420636F6D6DB4
:1003A000616E64732100746F20726573706F6E6488
:1003B00020746F20415420636F6D6D616E64732EE5
:1003C0002E2E006D7320666F72000A576169746982
:1003D0006E6720757020746F0057616B696E6720BF
:1003E000757020746865206D6F64656D20746F2072
:1003F000636F6E6E65637420746F20746865206926
:100400006E7465726E6574202E2E2E002556005473
:100410005000414D00414D00414D00414E004357B9
:10042000004355004D4E0044696769205862656578
:1004300033207365747570206661696C6564210092
:100440005D0058626565574C544520495023205B38
:1004500000586265654C5445206E6F742072656368
:10046000656976656420495023202D686F7065208A
:10047000697420776F726B73206E6578742074696D
:100480006D65005D2027006D646D49505B004D591E
:10049000004D5900446967692058626565332073CF
:1004A00065747570205375636573732E205265678C
:1004B000697374726174696F6E20270054727920B9
:1004C0002B435245472027002B43524547004149C3
:1004D000004C6F6F703D5365635D207278206462DD
:1004E000203A205374617475732027204F70657211
:1004F00061746F7220272023506F6C6C65642043F9
:10050000656C6C20537461747573206576657279BF
:1005100020317365630041503000544D005031006C
:100520005444304100444F00534F00534D0050306D
:1005300000443500443700443900443800467756BB
:10054000657200487756657200494D454920004C58
:10055000746520696E7465726E657420636F6D6D6D
:10056000732077697468005652004856004552520D
:100570004F520D004F4B0D00494D004E4953542032
:1005800054696D65207365727665722064696420B4
:100590006E6F7420726573706F6E6421006D7300EE
:1005A0004E49535420726573706F6E6465642061A8
:1005B00066746572005D20436F6E6E656374200023
:1005C0004E6F20696E7465726E657420636F6E6E17
:1005D000656374696F6E2C2063616E6E6F74206347
:1005E0006F6E6E65637420746F204E4953542E00F5
:1005F0004D590027006465737A714E6578744368BD
:1006000020316572726F723A006D532054696D65C6
:100610006F75740077616974656420002D2D205218
:100620006573706F6E736520436F6465202D2D00B8
:100630000A202D2D20556E61626C6520746F204557
:10064000737461626C69736820436F6E6E65637466
:10065000696F6E20746F20456E7669726F444959D8
:10066000204461746120506F7274616C202D2D00E4
:100670004932435F30783638005F50696E0053442A
:100680004931322D006D6561737572656D656E74EB
:10069000732121005468697320646966666572730A
:1006A0002066726F6D207468652073656E736F725B
:1006B0002773207374616E6461726420646573696A
:1006C000676E206F6600726573756C747320657851
:1006D00070656374656400534449313253656E73C9
:1006E0006F72733A3A676574526573756C747332DE
:1006F000204552524F522073656E736F7220746F93
:100700006F6B20746F6F206C6F6E6720746F207337
:10071000656E6420646174610053444931325365ED
:100720006E736F72733A3A676574526573756C7461
:100730007331204552524F522077616974696E6758
:1007400020666F7220726573706F6E736500205340
:100750006E20002053444931322056657273696F10
:100760006E20746264005344492053656E736F7247
:100770002000204932435F3078005253343835200E
:1007800057696E67626F617264205354433331302E
:100790003020536E2000646174615075626C69731F
:1007A0006865724261736520736574517565642074
:1007B000636865636B004552524F5221204E6F2093
:1007C00077656220636C69656E7420617373696715
:1007D0006E656420746F207075626C697368206444
:1007E00061746121003D005D00202050524F564948
:1007F0004445525F4D4D5720555549447320286E4E
:100800006F6E6520756E6C657373206C69737465AB
:1008100064292C204D61783D000A2050524F5649E2
:100820004445525F4D4D572074696D6572506F732A
:100830007450616365286D73293D000A2050524F42
:1008400056494445525F4D4D572074696D6572504D
:100850006F7374546F7574286D73293D000A2050AE
:10086000524F56494445525F4D4D572053616D706C
:100870006C696E6720466561747572653D000A207B
:1008800050524F56494445525F4D4D57205265676F
:1008900020546F6B656E3D002050524F56494445C1
:1008A000525F4D4D5720436C6F756449643D00465F
:1008B000726F6D20656570726F6D2050726F766912
:1008C0006465723A2050726F76696465722054795B
:1008D00070653D0020504F53545F4D41585F4E5559
:1008E0004D3D002053454E445F4F46465345545FAF
:1008F0004D494E3D000A0D20434F4C4C4543545F3B
:1009000052454144494E47533D002057694669507E
:1009100077643D000A205769466949643D000A2012
:1009200041504E3D0046726F6D20656570726F6D6F
:10093000204E6574776F726B3A204E6574776F72D4
:100940006B20547970653D002020204C6F633D0082
:1009500062617474657279206D4168723D006261F4
:10096000747465727920747970653D006D696E7577
:100970007465732C20547A3D005D0A0D2020206C94
:100980006F6767696E6720696E74657276616C3D2A
:100990000046726F6D20656570726F6D20636F6DBC
:1009A0006D6F6E3A204C6F676765722046696C65A3
:1009B000204E616D655B005D005D20736E5B005DC8
:1009C00020207265765B0046726F6D2065657072DF
:1009D0006F6D20626F6F74204E616D655B00302E0D
:1009E0003562004D31323334353637383961626320
:1009F000646566676800656E7669726F4449592060
:100A00006D6179666C7900466F7263696E672072FA
:100A10006573657400506172736520696E693B206F
:100A20004E6F2066696C65200053656172636820B3
:100A30006572726F722120627265616B206F7574CE
:100A4000206F66206C6F6F70002D3E0050524F5625
:100A5000494445525F78780050524F5649444552B8
:100A60005F4D4D572074696D6572506F73742050DF
:100A70006163696E67286D73290050524F5649446F
:100A800045525F4D4D572074696D6572506F737498
:100A900020546F7574286D73290050524F56494485
:100AA00045525F4D4D572053616D70696E6720460A
:100AB0006561747572650050524F56494445525FE6
:100AC0004D4D5720526567697374726174696F6E1A
:100AD00020546F6B656E0050524F56494445525F2B
:100AE0004D4D5720436C6F75644964004E45545713
:100AF0004F524B20504F53545F4D41585F4E554D10
:100B0000004E4554574F524B2053454E445F4F467D
:100B1000465345545F4D494E004E4554574F524B36
:100B200020434F4C4C4543545F52454144494E4746
:100B30005300272C206E6F772073657420746F200C
:100B400027004E4554574F524B2041504E2077615D
:100B500073202700434F4D4D4F4E20426174746502
:100B60007279206D4168723A2000434F4D4D4F4ECF
:100B7000204261747465727920547970653A20005E
:100B8000434F4D4D4F4E204C6F6767696E746572D1
:100B900076616C3A2000434F4D4D4F4E204C6F67AD
:100BA0006765724964205365743A200073657474F4
:100BB000696E6720746F20275F272C20666F756E23
:100BC0006420004572726F722021616C6E756D2019
:100BD0006C6F676765722066696C6520706F730063
:100BE00056005620474F4F443D0056204D4544493E
:100BF000554D3D0056204C4F573D002054687265BE
:100C000073686F6C64732055534541424C453D00F9
:100C10004261747465727920547970653D00507535
:100C20007474696E67206D6F64656D20746F2073D6
:100C30006C65657000436F756C64206E6F7420770F
:100C4000616B65206D6F64656D20666F7220525414
:100C5000432073796E632E00436F756C64206E6F52
:100C60007420636F6E6E65637420746F20696E7498
:100C700065726E657420666F7220525443207379DA
:100C80006E632E00436F6E6E656374656420746FCF
:100C900020696E7465726E657420666F722052549E
:100CA000432073796E632077697468204E495354EA
:100CB0000054686973206D61792074616B652075DB
:100CC0007020746F2074776F206D696E7574657312
:100CD0002100417474656D7074696E6720746F20B3
:100CE000636F6E6E65637420746F2074686520692D
:100CF0006E7465726E657420616E642073796E63C4
:100D000068726F6E697A65205254432077697468FF
:100D1000204E49535400446174612077696C6C2003
:100D2000626520736176656420617300556E61624F
:100D30006C6520746F206372656174652061206644
:100D4000696C6520746F20736176652064617461DD
:100D500020746F210053657474696E67207570206C
:100D600066696C65206F6E20534420636172640075
:100D70005354433331303020646961676E6F73744C
:100D8000696320736574205220746F206D4F686D05
:100D90007320005354433331303020736E3A005384
:100DA000657474696E672075702073656E736F72F9
:100DB000732E2E2E004C6F63616C2054696D65207C
:100DC000002D2D2D7061727365496E6920636F6D02
:100DD000706C6574650A002D2D2D70617273654904
:100DE0006E69205374617274004261745620476FBB
:100DF0006F64203D002020426174562F6C702F6379
:100E00006E74720054696E7947534D204C6962725A
:100E10006172792076657273696F6E20004D6F6420
:100E2000756C617253656E736F7273207665727341
:100E3000696F6E20005377204E616D653A20000A7D
:100E40002D2D2D426F6F742E205377204275696CC3
:100E5000643A20002C3078002C204541206D4168F8
:100E60003D002C204555206D41683D002C2043203D
:100E70006D41683D2C002C206D413D2C0020563DDD
:100E80002C0000010203040506070001020304050B
:100E9000060700010203040506070001020304051A
:100EA00006074552524F52004C4100544D00544DDC
:100EB0003000544D00414D3000465200414D31004C
:100EC00041503000414D30004149004349002B2B37
:100ED0002B00414300575200434E004853004853F3
:100EE00000454550524F4D20577269746520666920
:100EF0006E6973686564002900414354494F4E2070
:100F000057726974652061707020454550524F4D8D
:100F1000207374617274656428007D206E6F742084
:100F2000737570706F72746564007D206D61746399
:100F3000682020262061646465642E003D7B003DAE
:100F4000005D20004E6F7420737570706F72746551
:100F500064205B00414354494F4E205772697465C9
:100F60002061626F727465642E20696E737472758D
:100F70006374696F6E202700414354494F4E2043EC
:100F80004F5059206E6F7420737570706F72746556
:100F900064207965743A00434F50590057524954C0
:100FA0004500414354494F4E00555345520020746B
:100FB0006F2000424F4F542074626420004545501A
:100FC000524F4D2057726974652061626F7274656B
:100FD000642E20696E737472756374696F6E202756
:100FE00000414354494F4E2044454641554C5420FE
:100FF00061707020454550524F4D00444546415563
:101000004C545F4150505F454550524F4D0045454F
:1010100050524F4D2057726974652066696E69732E
:1010200068656400454550524F4D2057726974659C
:1010300020737461727465643A00594553004545E4
:1010400050524F4D5F575249544500426F61726490
:10105000205265763A00424F4152445F5245560055
:10106000426F6172642053657269616C4E756D20C8
:101070003A00424F4152445F534E00426F617264E6
:10108000204E616D653A00424F4152445F4E414DE2
:101090004500424F4F540020746F20004E45545776
:1010A0004F524B2074626420005D20726561643A87
:1010B000004E4554574F524B2053657420504F53A8
:1010C000545F4D41585F4E554D206572726F723BB3
:1010D0002072616E67655B00504F53545F4D4158FD
:1010E0005F4E554D004E4554574F524B205365743B
:1010F0002053454E445F4F46465345545F4D494E3D
:10110000206572726F723B202872616E67652030B5
:10111000203A2033302920726561643A0053454EED
:10112000445F4F46465345545F4D494E004E45542B
:10113000574F524B2053657420434F4C4C454354FA
:101140005F52454144494E4753206572726F723B6E
:10115000202872616E67652030203A2033302920C4
:10116000726561643A00434F4C4C4543545F5245AD
:101170004144494E47530061706E004E4554574FED
:10118000524B0020746F200053454E534F52532052
:10119000746264200053454E534F52530020746FC5
:1011A0002000434F4D4D4F4E207462642000474550
:1011B0004F47524150484943414C5F49443A0047E8
:1011C000454F47524150484943414C5F49440043D1
:1011D0004F4D4D4F4E205365742054696D655A6FC5
:1011E0006E65206572726F723B202872616E676552
:1011F000202D3132203A202B313229207265616452
:101200003A0054494D455F5A4F4E450029207265BA
:1012100061643A0020536574204C69496F6E205414
:10122000797065206572726F723B202872616E67FB
:101230006520302D00207375706572736564656478
:101240002075736520424154544552595F5459509A
:101250004500434F4D4D4F4E204C69496F6E205411
:101260007970653A20004C49494F4E5F54595045BA
:10127000002920726561643A002053657420424160
:1012800054544552595F54595045206572726F72DB
:101290003B202872616E6765203C004241545445F2
:1012A00052595F54595045002053657420424154AF
:1012B000544552595F6D4168722000292072656162
:1012C000643A002053657420424154544552595F9A
:1012D0006D416872206572726F723B202872616E78
:1012E0006765203E3D302026203C00424154544555
:1012F00052595F6D416872002920776974682072C5
:101300006561643A002053657420696E7465727675
:10131000616C206572726F72202872616E67653A27
:1013200020312D00286D696E292066726F6D206452
:10133000656661756C742000434F4D4D4F4E204CD7
:101340004F4747494E475F494E54455256414C5FBF
:101350004D494E555445532073657420746F3A209F
:1013600000205573696E67204D61782E20526561AB
:1013700064696E672069676E6F7265642000434F11
:101380004D4D4F4E204C4F4747494E475F494E54B5
:10139000455256414C5F4D494E55544553206D754D
:1013A0007374206265206C657373207468616E20AD
:1013B0003A20004C4F4747494E475F494E544552EB
:1013C00056414C5F4D494E55544553004C4F47478D
:1013D00045525F494400434F4D4D4F4E0050524FD0
:1013E00056494445525F554249444F545300505268
:1013F0004F56494445525F5453005D207265616405
:101400003A0050524F56494445525F4D4D57205374
:1014100065742054494D45525F504F53545F5041BD
:1014200043455F4D53206572726F723B2028726195
:101430006E6765200054494D45525F504F53545FCD
:10144000504143455F4D53005D20726561643A0031
:1014500050524F56494445525F4D4D572053657485
:101460002054494D45525F504F53545F544F55548B
:101470005F4D53206572726F723B202872616E67F8
:1014800065205B0054494D45525F504F53545F54A3
:101490004F55545F4D530053414D504C494E475F9B
:1014A00046454154555245005245474953545241CF
:1014B00054494F4E5F544F4B454E00434C4F55449B
:1014C0005F49440050524F56494445525F4D4D5775
:1014D000004E4F4E45004E4F4E45004E4F4E45007C
:1014E0004E4F4E45004E4F4E45004E4F4E45004E1E
:1014F0004F4E45004E4F4E45004E4F4E45004E4F0D
:101500004E4500574946495057445F4E4F4E45009F
:101510005749464949445F4E4F4E450041504E5F42
:101520004E4F4E4500466163746F72792064656664
:1015300061756C74006D734C6F673031002D2D2D0B
:101540004C425F5057525F55534541424C455F52A4
:1015500045512043414E43454C4C45442D2D4C6252
:101560006174743D002D2D2D4C425F5057525F4DDC
:101570004F44454D5F5553455F5245512043414EC1
:1015800043454C4C45442D2D4C626174743D002DF7
:101590002D2D4C425F5057525F53454E534F525F73
:1015A0005553455F5245512043414E43454C4C45B0
:1015B000442D2D4C626174743D002D2D2D74755F8A
:1015C000787830313A57616B657570206368656370
:1015D0006B20706F7765722E205072657373207563
:1015E00073657220627574746F6E20746F206279F7
:1015F00070617373003A2042617456204C6F7720FB
:101600003D004261745F5628737463333130302972
:101610000062617474657279436865636B207265FA
:10162000712F776169742F737263001F1C1F1E1F57
:101630001E1F1F1E1F1E1F4E6F6E650064617461AA
:101640005075626C69736865724261736520675199
:101650005320636865636B004261642074696D6543
:1016600020003A3030003A3030003A3030003A3022
:10167000300021212121212121212121212121216C
:10168000212121212121202D2D2D2D2D2057415289
:101690004E494E47202D2D2D2D2D20002121212179
:1016A000212121212121202D2D2D2D2D2057415269
:1016B0004E494E47202D2D2D2D2D20212121212138
:1016C0002121212121002D2D2D2D2D205741524E3C
:1016D000494E47202D2D2D2D2D2021212121212145
:1016E00021212121212121212121212121210054D8
:1016F00068652063757272656E7420636C6F636BCE
:101700002074696D657374616D70206973206E6FEC
:10171000742076616C69642100212121212121211D
:1017200021212121212121212121212121202D2D92
:101730002D2D2D205741524E494E47202D2D2D2D18
:101740002D200021212121212121212121202D2D88
:101750002D2D2D205741524E494E47202D2D2D2DF8
:101760002D2021212121212121212121002D2D2D5B
:101770002D2D205741524E494E47202D2D2D2D2DD8
:10178000202121212121212121212121212121214A
:10179000212121212100002046775665722000205A
:1017A0004877566572200020536E200020666F72C5
:1017B000200027002720736E3A2700207265763AB2
:1017C0002700426F6172643A20004D6F64756C614E
:1017D0007253656E736F7273207665727320002E7C
:1017E000205377204275696C643A20005377204E6D
:1017F000616D653A200020204261747465727954ED
:101800007970653A200020547A3A200020204C6FED
:101810006767696E67496E74657276616C20286DC2
:10182000696E293A20004C6F636174696F6E3A20CB
:1018300000004461746520616E642054696D652008
:10184000696E2055544300526573756C742055556C
:1018500049443A00526573756C7420556E69743A48
:10186000005661726961626C65204E616D653A0077
:1018700053656E736F72204E616D653A0053616DF2
:10188000706C696E67204665617475726520555588
:1018900049443A200044617461204C6F6767657267
:1018A0002046696C653A200044617461204C6F6782
:1018B0006765723A2000446174612077696C6C201E
:1018C0006E6F7420626520736176656421004572D5
:1018D000726F723A205344206361726420666169BA
:1018E0006C656420746F20696E697469616C697AD3
:1018F00065206F72206973206D697373696E672E3E
:1019000000446174612077696C6C206E6F74206292
:10191000652073617665642100536C6176652F43A1
:101920006869702073656C6563742070696E2066E9
:101930006F72205344206361726420686173206E6B
:101940006F74206265656E207365742E002D2D2DD9
:101950002D5C2F000A205C2F2D2D2D2D204C696E23
:101960006520536176656420746F00556E61626C0A
:101970006520746F20777269746520746F205344FA
:1019800020636172642100200020697320002072AE
:1019900065706F727473200020002069732063618A
:1019A0006C63756C6174656420746F2062652000DF
:1019B0002D2D2D2D2D2D2D2D2D2D2D2D2D2D2D2D57
:1019C0002D2D2D2D2D2D2D2D2D2D2D2D2D2D2D2D47
:1019D0002D2D2D2D2D2D2D2D2D2D00457869746942
:1019E0006E672074657374696E67206D6F6465003F
:1019F0002D2D2D2D2D2D2D2D2D2D2D2D2D2D2D2D17
:101A00002D2D2D2D2D2D2D002D2D2D2D2D2D2D2D33
:101A10002D2D2D2D2D2D2D2D2D2D2D2D2D2D2D0023
:101A200043757272656E74206C6F6767657220749F
:101A3000696D65206973002D2D2D2D2D2D2D2D2DDA
:101A40002D2D2D2D2D2D2D2D2D2D2D2D2D2D2D2DC6
:101A50002D2D2D2D2D2D2D2D2D2D2D2D2D2D2D2DB6
:101A60002D00456E746572696E672073656E736FC5
:101A7000722074657374696E67206D6F6465002DE4
:101A80002D2D2D2D2D2D2D2D2D2D2D2D2D2D2D2D86
:101A90002D2D2D2D2D2D2D2D2D2D2D2D2D2D2D2D76
:101AA0002D2D2D2D2D2D2D2D2D002D3E00416C6C1D
:101AB000207661726961626C6520555549442773CF
:101AC0002061707065617220746F20626520636FA1
:101AD00072726563746C7920666F726D65642E0A2C
:101AE000006861732061206E6F6E2D756E6971756F
:101AF000652055554944210068617320616E206955
:101B00006E76616C6964205555494421004C6F67BD
:101B100067657220706F7274696F6E206F662073D4
:101B2000657475702066696E69736865642E0A0055
:101B300053616D706C696E6720666561747572655E
:101B400020555549442069733A00617265206361EC
:101B50006C63756C617465642E0073656E736F726F
:101B60007320616E6400636F6D652066726F6D0037
:101B70007661726961626C65732C206F662077688C
:101B80006963680054686973206C6F6767657220C9
:101B90006861732061207661726961626C652061A1
:101BA0007272617920776974680043757272656E2C
:101BB00074205254432074696D652069733A002D76
:101BC0002D2D4C6F67546F534420436F6D706C65BF
:101BD00074650A002D2D2D2D2D2D2D2D2D2D2D2D06
:101BE0002D2D2D2D2D2D2D2D2D2D2D2D2D2D2D2D25
:101BF0002D2D2D2D2D2D2D2D2D2D2D2D2D2D00006F
:101C0000002100240027002A0000002200250028CF
:101C1000002B000000000004030807000000010280
:101C200000090A00000000000000000000000000A1
:101C300000000000002000230026002900706953E6
:101C400064206572722064656C2F72656E200020BE
:101C500064656C65746564007069536420657272B4
:101C600020636F756C646E27742072656E616D659C
:101C70002000706953642065727220636F756C6414
:101C80006E27742064656C200072656E616D6564FA
:101C900020746F20005061727365496E695364202F
:101CA0002000436F6D706C657465642E0045727220
:101CB0006F72206F6E206C696E65203A003A20705A
:101CC000617273696E672D2D2D2D004552524F5252
:101CD000004F4400544D00544D00444500444C0016
:101CE00049500043540047540047540041500045B8
:101CF00052524F520D004F4B0D007365727A526471
:101D0000656C5F4C696E653B204E6F2066696C6543
:101D1000002D2D2D6C6F6744617461416E645075A8
:101D20006252656C6961626C792020436F6D706CE2
:101D30006574652D2D2D2D2D2D2D2D2D2D006C6FC8
:101D40006744617461416E6450756252656C69618B
:101D5000626C79202D2073746F72652072656164E6
:101D6000696E67732C206E6F2070756200496E7407
:101D700065726E6574206661696C65642C206E6F97
:101D8000205F6C6F674D6F64656D20004661696C04
:101D9000656420746F2077616B652000436F6E6E01
:101DA000656374656420496E7465726E657420465F
:101DB00061696C656400436C6F636B204E6973747A
:101DC000204661696C656400436C6F636B204E69EB
:101DD00073742053796E6365640053796E6354693C
:101DE0006D65436865636B2000436F6E6E65637459
:101DF000656420496E7465726E657400436F6E6E23
:101E0000656374696E6720746F2074686520496E1D
:101E10007465726E657420776974680052656164D8
:101E20002073656E736F72732E2E2E00292D2D2D4B
:101E30002D002D2D2D6C6F6744617461416E6450CF
:101E4000756252656C6961626C7920283078006C2B
:101E50006F6744617461416E6450756252656C696C
:101E600061626C79202D2074782063616E63656CEB
:101E70006C6564006C6F6744617461416E64507599
:101E80006252656C6961626C79202D20616C6C20F6
:101E900063616E63656C6C6564006C6F674461744C
:101EA00061416E6450756252656C6961626C792043
:101EB0002D206F76657269646520776974682000EB
:101EC0007365636F6E6473206F66204E4953542EA2
:101ED00000496E7465726E616C20436C6F636B2099
:101EE00077697468696E2000496E7465726E616C02
:101EF00020436C6F636B2073657420004261642023
:101F000074696D657374616D702C206E6F742073CD
:101F1000657474696E6720636C6F636B2E002C4D63
:101F200053472C007365514646207467746F75746F
:101F300046696C652E636C6F736531206572720043
:101F40007365514646207467746F757446696C6595
:101F50002E72656E616D6520657272007365514603
:101F600046207365727A5175656446696C652E63A7
:101F70006C6F73653220657272007365514646203E
:101F800072656E616D6531206572720073655146D0
:101F90004620657272372072656D6F7665007365D5
:101FA0005146462072656D6F76653220657272000B
:101FB0007365514646207467746F757446696C6525
:101FC00020777269746533206572720073655146BB
:101FD00046207467746F757446696C652077726902
:101FE00074653120657272007365514646206F70CA
:101FF000656E3220657272007365514646206572C7
:1020000072362072656D6F766500736551464620A5
:1020100072656D6F7665312065727200736551432C
:10202000462051756520666F72206E657874207049
:1020300061737320756E73656E74207265636F7261
:102040006473007365514346207365727A517565F8
:102050006446696C652E636C6F73653220657272BD
:10206000007365727A426567696E206572722072CC
:10207000656D6F76650064655352432072656D6FC0
:10208000766520657272007365727A426567696E63
:102090002065727220636C6F7365006465535243F0
:1020A00020636C6F73652065727200646552533BE8
:1020B000204E6F2066696C6520007365727A5175D9
:1020C00065645374617274206F70656E20657272FE
:1020D000007075624451545220504F53545F4D412B
:1020E000585F4E554D207265616368656400707578
:1020F0006244515452206E6F7420656E6F7567682C
:1021000020706F77657220617661696C61626C65C1
:10211000007365632E205175657565642072656175
:1021200064696E67733D0072656164696E677320F0
:10213000696E0053656E740070756244515452208C
:102140007365727A5175656446696C2065727200B8
:102150005D000A707562445154522053656E646983
:102160006E67206461746120746F205B006C6F6720
:10217000504C4F20657272206F70656E696E6700FB
:1021800027006465737A4C696E65207265616475B9
:102190006E67207374617274206E6F7420666F7541
:1021A0006E640027006465737A4C696E6520457023
:1021B0006F636820657272270027006465737A4C2C
:1021C000696E652065706F63682073746172742036
:1021D0006E6F7420666F756E640027006465737A95
:1021E0004C696E6520537461747573206572722733
:1021F000002C002C002C504F53542C002C30580035
:1022000053644572726F723A2030580043686563B8
:102210006B20534420666F726D61742E006572727C
:102220006F723A20007365744654547A2065727256
:1022300020666F72200004040404040404040202F3
:102240000202020202020303030303030303010168
:102250000101010101010102040810204080010276
:102260000408102040800102040810204080010270
:10227000040810204080008080805D52544320413B
:102280006C61726D2073657420666F72206576656F
:102290007279206D696E7574652E205265672063B2
:1022A0006865636B20776173203078000A2E2E2ECC
:1022B000207A7A7A5A5A204177616B65204000294A
:1022C00020205A5A7A7A7A2E2E2E002F00476F69D4
:1022D0006E6720746F20736C6565702E2052616D7F
:1022E00028004D4355206E6F7420456E61626C6509
:1022F000642C5573652061206E6F6E2D6E6567616D
:10230000746976652077616B652070696E20746FE3
:10231000207265717565737420736C65657021003A
:102320005761746368646F672064697361626C6588
:10233000642E206261726B73556E74696C526573A2
:10234000657400666F72006578706563740045524D
:10235000524F5220696E6920706172616D20746FF6
:102360006F206C6F6E672C20676F7400EAADBFAD95
:1023700011241FBECFEFD0E4DEBFCDBF19E0A0E037
:10238000B1E0E6E0F8E801E00BBF02C007900D9273
:10239000A23CB107D9F721E2A2ECB9E001C01D923D
:1023A000A13CB207E1F711E1C7EBD1E104C02197ED
:1023B000FE010E9499C0C63BD107C9F70E94BFA287
:1023C0000C94F6C30C9400000895AF92BF92CF9284
:1023D000DF92EF92FF920F931F93CF93DF936C01E5
:1023E0007B018B01040F151FEB015E01AE18BF08C6
:1023F000C017D10759F06991D601ED91FC91019078
:10240000F081E02DC6010995892B79F7C501DF918F
:10241000CF911F910F91FF90EF90DF90CF90BF90E1
:10242000AF900895FC01538D448D252F30E0842F0B
:1024300090E0821B930B541710F0CF9608950197EC
:102440000895FC01918D828D981761F0A28DAE0FD9
:10245000BF2FB11D5D968C91928D9F5F9F73928F60
:1024600090E008958FEF9FEF0895FC01918D828D8C
:10247000981731F0828DE80FF11D858D90E0089559
:102480008FEF9FEF0895FC01918D228D892F90E0B1
:10249000805C9F4F821B91098F739927089584E96F
:1024A0009EE10E94431221E0892B09F420E0822F53
:1024B000089580EB97E10E94431221E0892B09F4F3
:1024C00020E0822F0895FC01A48DA80FB92FB11D23
:1024D000A35ABF4F2C91848D90E001968F7399275A
:1024E000848FA689B7892C93A089B1898C91837038
:1024F00080648C93938D848D981306C00288F38931
:10250000E02D80818F7D80830895EF92FF920F935D
:102510001F93CF93DF93EC0181E0888F9B8D8C8D8F
:1025200098131AC0E889F989808185FF15C09FB783
:10253000F894EE89FF896083E889F9898081837046
:10254000806480839FBF81E090E0DF91CF911F91F5
:102550000F91FF90EF900895F62E0B8D10E00F5F16
:102560001F4F0F731127E02E8C8D8E110CC00FB6EC
:1025700007FCFACFE889F989808185FFF5CFCE0184
:102580000E946312F1CFEB8DEC0FFD2FF11DE35A8A
:10259000FF4FF0829FB7F8940B8FEA89FB89808107
:1025A0008062CFCFCF93DF93EC01888D8823B9F081
:1025B000AA89BB89E889F9898C9185FD03C080814E
:1025C00086FD0DC00FB607FCF7CF8C9185FFF2CFCB
:1025D000808185FFEDCFCE010E946312E9CFDF91AC
:1025E000CF91089580E090E0892B29F00E94591244
:1025F00081110E94000080E090E0892B29F00E9468
:102600004F1281110C940000089550910C0A4091D2
:102610000B0A842F90E0252F30E0541718F4821B0A
:10262000930B08958C5B9F4FFACF50910A0A40910B
:10263000090A852F90E0242F30E0541718F0821BF0
:10264000930B0895805B9F4FFACF80910A0AE09127
:10265000090A8E1751F0EF5FE03508F0E0E0F0E096
:10266000E450F94E808190E008958FEF9FEF089538
:1026700080910A0A9091090A891769F09F5F903545
:1026800008F090E0E92FF0E0E450F94E808190935B
:10269000090A90E008958FEF9FEF0895FC011486DA
:1026A0009091EE168091EF16981799F0E091EE1642
:1026B000F0E0E356F94E20818091EE1690E001960D
:1026C00061E570E00E9466C08093EE16822F90E074
:1026D00008958FEF9FEF08951092EF161092EE1667
:1026E000FC01148608959091EE168091EF169817CC
:1026F00041F0E091EE16F0E0E356F94E808190E073
:1027000008958FEF9FEF0895FC01848581110EC01D
:102710008091EF162091EE1690E08F5A9F4F821B0A
:10272000910961E570E00E9466C008958FEF9FEF08
:102730000895DC01ED91FC910084F185E02D099470
:10274000DC01ED91FC910680F781E02D099490E089
:1027500080E008954F925F926F927F928F929F9246
:10276000AF92BF92EF92FF920F931F93CF93DF939D
:102770008C0149015A01C62FD0E07E01EE0CFF1CEE
:10278000EE0CFF1CE00EF11EF701428053806480C6
:10279000758020E03CE34CE156ECC301B2010E949D
:1027A000C0BE20E03CE34CE156EC81111FC0C501E6
:1027B000B4010E94C0BE882351F0F7018282938247
:1027C000A482B582C00FD11F88A58F5F88A7DF9133
:1027D000CF911F910F91FF90EF90BF90AF909F907E
:1027E0008F907F906F905F904F900895C501B401D6
:1027F0000E94C0BE882359F3A5019401C301B20110
:102800000E94B3C0F7016283738384839583DACF18
:10281000FC01858596850895FC0176876587CB0147
:102820000895FC01838594850895FC01748763876E
:10283000CB010895FC0180850895FC016087862FF7
:102840000895CF93DF93EC01E881F981028CF38D39
:10285000E02D60E0CE0109958823B1F3DF91CF919F
:10286000089581E00895FC0183A10895609100011D
:1028700070910101072E000C880B990B0E94C7BEB6
:102880000895EF92FF920F931F93CF93DF93EC0184
:10289000162FF894F090B20061E08D850E94458972
:1028A000612F062E62956025062E66956695602539
:1028B00070E06F5F7F4F759567957695762F6627E9
:1028C00077956795162B80E809E0982F912319F0EA
:1028D00001508695FACF8091B2008F198A31D8F3D2
:1028E000F090B200EE24E3948D85E01678F460E079
:1028F00010FF61E00E9445898091B2008F198A31F2
:10290000D8F3F090B2001695E394EECF60E00E9409
:10291000458978948AE090E0801B91099AE1899F2B
:10292000802D11249091B2009F199817D8F3DF9150
:10293000CF911F910F91FF90EF900895FC01838537
:1029400087FD05C0648591E069270E94458981E083
:102950000895FC01838587FD03C064850E94458935
:1029600081E00895CF93DF93EC018BA187FD17C021
:1029700060E00E9445891CAA1DAA1EAA1FAA1CAEBF
:102980001DAE1EAE1FAEFE01EC5BFF4F108211822A
:1029900012821382C85BDF4F888181788883DF9140
:1029A000CF910895CF93DF93EC018D8187FD13C004
:1029B0006E810E9445896F81788589859A850E94FC
:1029C000738E6E8181E068278D810E94458981E048
:1029D000DF91CF91089580E0FBCF1F93CF93DF93DA
:1029E000EC01E881F98102A4F3A5E02D099511E03D
:1029F000882371F0E881F98104A0F5A1E02DCE01D2
:102A00000995182F89A187FD03C060E00E944589C0
:102A1000812FDF91CF911F910895CF93DF93EC0128
:102A20008A8187FD07C060E00E9445891AA21BA227
:102A30001CA21DA2DF91CF910895CF93DF93EC01EB
:102A40008D856330710599F064307105C9F062308D
:102A5000710521F560E00E94228E61E08D850E9463
:102A6000228E60E08D85DF91CF910C94458960E0E6
:102A70000E94228E61E08D85DF91CF910C94228E91
:102A800060E00E94458960E08D850E94228E7894E6
:102A90008FEF8093F416DF91CF91089560E00E944C
:102AA000458960E0E8CFEF92FF920F931F93CF9399
:102AB000DF93EC017B01142F63E070E00E941D1591
:102AC00061E08D850E94458984E190E60197F1F7E8
:102AD000612F110F770B880B990B0E94738E60E0AA
:102AE0008D850E94458984E692E40197F1F710E014
:102AF00000E0D70114968D919C911597081719073E
:102B000090F4ED91FC91309759F410929C16ECE9F9
:102B1000F6E16081CE010E9441140F5F1F4FE9CFA3
:102B2000E00FF11FF6CF64E070E0CE01DF91CF91AE
:102B30001F910F91FF90EF900C941D151F93CF9351
:102B4000DF93EC01162F63E070E00E941D15612FEA
:102B5000CE010E94411464E070E0CE010E941D1578
:102B600081E090E0DF91CF911F91089570E060E0E7
:102B70000E941D151092F6161092F51680919B1664
:102B80008093B00080919A168093B1000895CF93FE
:102B9000DF932091F5163091F6168217930749F0CE
:102BA000EC0162E070E00E941D15D093F616C09310
:102BB000F5168091B00080939B168091B1008093B0
:102BC0009A161092B00086E08093B100DF91CF9109
:102BD0000895CF93DF93EC018BA187FD03C061E0E3
:102BE0000E94228E8AA187FD03C060E00E94228E8F
:102BF000C85BDF4F88818160888381E0DF91CF915E
:102C00000895CF93DF93FC0123A521112BC0EC0184
:102C1000838187FD03C060E00E94228E8B8587FD43
:102C200009C061E00E94228E6C8581E068278B8557
:102C30000E9445898D8187FD09C061E00E94228E36
:102C40006E8181E068278D810E94458989A187FD79
:102C500007C061E00E94228E60E089A10E94458940
:102C600081E08BA7DF91CF9108954F925F926F9291
:102C70007F929F92AF92BF92CF92DF92EF92FF929C
:102C80000F931F93CF93DF93EC017C0188E4E80E50
:102C9000F11CF701808186FF66C08E01075A1F4F25
:102CA000C8010E941051982E81115DC06E01F2E69C
:102CB000CF0ED11C5E0186E6A80EB11C8EA198161F
:102CC00008F06CC0E1E09E1681F19E1678F0F2E00B
:102CD0009F16A9F183E0981609F43FC0412C8CE3BC
:102CE000582E8CE1682E86EC782E17C0F5014080B6
:102CF0005180628073802DEC3CEC4CE45EEBC301B0
:102D0000B2010E94C0BE87FDE9CFA3019201C301B9
:102D1000B2010E941CC28111E1CFA3019201692D71
:102D2000CE010E94AA139394C9CFF601408051802E
:102D30006280738020E030EC4AED55ECE0CFF80182
:102D400084A9882321F014AAC8010E945A4FF801CF
:102D500047A050A461A472A4D8CFF80147A450A8FA
:102D600061A872A8D2CF80E0CC5BDF4F18821982B5
:102D70001A821B82F70190819F799083DF91CF9116
:102D80001F910F91FF90EF90DF90CF90BF90AF9089
:102D90009F907F906F905F904F90089581E0E4CF77
:102DA000CF93DF93EC01A881B981EB01E881F98130
:102DB0001097F1F03097B1F4EC018C819D81892B53
:102DC000C9F08C9190E00BC0DB0114968D919C9121
:102DD000892B81F0808190E0919581959109DF9117
:102DE000CF910895BF01CD01DF91CF910C949FC386
:102DF000309751F790E080E0F2CF0E9437C30C94F7
:102E000066B70C9466B70C9466B70C9466B70F93CC
:102E10001F93CF93DF93EC010E94E98E6887798737
:102E20008A879B87E881F9810484F585E02DCE01AE
:102E3000099597FF15C00E94E98E088519852A8596
:102E40003B85601B710B820B930B0C811D812E81C6
:102E50003F81601771078207930720F38FEF9FEF81
:102E6000DF91CF911F910F9108950F931F93CF93EF
:102E7000DF93FC01E85BFF4F208126FF22C0EC01BD
:102E80000E94E98EFE01EC5BFF4F008111812281DF
:102E90003381AB01BC01401B510B620B730BC05C57
:102EA000DF4F81E0088119812A813B8104171507D2
:102EB0002607370708F080E0DF91CF911F910F912F
:102EC000089581E0F9CF0F931F93CF93DF93FC0117
:102ED000E85BFF4F208124FF1DC0EC010E94E98EBA
:102EE0000CAD1DAD2EAD3FADAB01BC01401B510B78
:102EF000620B730B81E008AD19AD2AAD3BAD041731
:102F000015072607370708F080E0DF91CF911F9162
:102F10000F91089581E0F9CF0F931F93CF93DF9323
:102F2000FC01E85BFF4F208122FF1DC0EC010E94E5
:102F3000E98E0CA91DA92EA93FA9AB01BC01401B1C
:102F4000510B620B730B81E008A919A92AA93BA9AF
:102F5000041715072607370708F080E0DF91CF91A7
:102F60001F910F91089581E0F9CF0F931F93CF9395
:102F7000DF93EC018C01085B1F4FF801808180FD1D
:102F800007C0E881F9810284F385E02DCE0109951F
:102F9000F8019081892F80628083CC5BDF4F94FFA2
:102FA00010C00E94E98E688379838A839B83F8012D
:102FB00080818064808381E0DF91CF911F910F91A8
:102FC0000895188219821A821B829F7B90629083D7
:102FD00080E0F2CF0F931F93CF93DF93FC01EC01BE
:102FE000C85BDF4F9881892F8860888392FD0DC070
:102FF00014AE15AE16AE17AE9F7E9860988380E033
:10300000DF91CF911F910F9108958F010E94E98E5A
:10301000F80164AF75AF86AF97AF88818061888310
:1030200081E0EECFCF93DF93EC018BA187FD0EC043
:1030300061E00E94228E61E08BA10E9445890E947E
:10304000E98E6CAB7DAB8EAB9FAB08C08CA99DA904
:10305000AEA9BFA9892B8A2B8B2B89F3C85BDF4FC5
:10306000888186608883DF91CF9108958F929F92A7
:10307000AF92BF92FF920F931F93CF93DF93CDB781
:10308000DEB728970FB6F894DEBF0FBECDBF8C0118
:1030900081EF98ED90930101809300019A838983D9
:1030A0009C838B8383E68F838DE988878FE097E20B
:1030B0009E838D830E94E98E4B015C01D801ED91C6
:1030C000FC91008CF18DE02DAE014D5F5F4FBE0194
:1030D0006F5F7F4FC8010995F82E89819A8190937F
:1030E000010180930001009719F0813F984DD1F4C0
:1030F0006AEF70E080E090E00E94738E89819A818F
:10310000009719F0813F984D69F40E94E98E681983
:1031100079098A099B0968397A438105910510F478
:10312000F110CCCFD801ED91FC91028CF38DE02D04
:103130009E012B5F3F4FAE01485F5F4FBE01695F4D
:103140007F4FC8010995F822D801ED91FC91048CBC
:10315000F58DE02DC80109958F2D28960FB6F894AE
:10316000DEBF0FBECDBFDF91CF911F910F91FF90BA
:10317000BF90AF909F908F9008958F929F92AF9243
:10318000BF92FF920F931F93CF93DF93EC0181E0E7
:103190008AA78AA19BA1ACA1BDA101E0892B8A2BA2
:1031A0008B2B41F4E881F9810084F185E02DCE017B
:1031B000099500E0E881F98102A4F3A5E02DCE0194
:1031C0000995F82E882301F1E881F98100A4F1A581
:1031D000E02DCE010995182F811101C01AA6011109
:1031E00033C0E881F9810684F785E02DCE01099589
:1031F0001823812FDF91CF911F910F91FF90BF90E6
:10320000AF909F908F9008950E94E98E8AA09BA016
:10321000ACA0BDA0681979098A099B09898C9A8C90
:10322000AB8CBC8C681579058A059B0568F3E88131
:10323000F9810680F781E02DCE010995182F8111C3
:10324000C3CF011103C0CDCFF110D3CFE881F981F5
:103250000484F585E02DCACFCF93DF93EC018A81FA
:1032600087FD17C08B8587FD05C06C8591E06927B8
:103270000E94458961E08A810E94228E61E08A81F4
:103280000E9445890E94E98E6AA37BA38CA39DA31B
:1032900008C08AA19BA1ACA1BDA1892B8A2B8B2B35
:1032A00089F3DF91CF910895DF92EF92FF920F9310
:1032B0001F93CF93DF93C091F516D091F616209708
:1032C000C9F01091B2008D850E941C89082F609171
:1032D000F4166F3FB9F4882369F01092F41681E078
:1032E0008093F0161092F116812F90E09093F316D0
:1032F0008093F216DF91CF911F910F91FF90EF9085
:10330000DF9008958091F2162AE0210F281B87E2B2
:10331000289F90011124232F33272695269589E095
:10332000861BE82FF0E0E217F30708F0822F680F02
:103330006093F4164091F0167091F116013071F51A
:103340008150942F990F8F3F19F0742B492FF8CF8C
:103350007093F1169093F016683030F24091F116A8
:103360004F774093F1168091EF16D090EE1690E0D3
:10337000019651E5E52EF12CB7010E9466C0D816E2
:103380001906E1F481E08C87002321F0E217F307AE
:1033900008F4A3CF8FEF8093F416A6CF50E08150AE
:1033A000990BDA0102C0AA0FBB1F8A95E2F7CD0183
:1033B000A093F016872B8093F116CECFA091EF1635
:1033C000B0E0A356B94E4C938091EF1690E0019671
:1033D000B7010E9466C08093EF16D6CFCF92DF92DE
:1033E000EF92FF920F931F93CF93DF93EC010E9414
:1033F000E98E6B017C01E881F9810484F585E02D7B
:10340000CE0109958A8187FD24C08B8187FD2BC061
:103410000E94E98E6C197D098E099F090D891E890C
:103420002F89388D601771078207930738F48B81D5
:103430000E941C892C812817190651F38B810E9448
:103440001C8960E08A810E9445891AA21BA21CA2E5
:103450001DA281E0DF91CF911F910F91FF90EF901E
:10346000DF90CF9008958D899E89AF89B88D892B83
:103470008A2B8B2B31F30E94E98E6C197D098E0902
:103480009F090D891E892F89388D60177107820762
:10349000930788F3D6CFCF93DF93EC010E949E89E8
:1034A000CE01875A9F4F0E94C151882329F0CE0137
:1034B000DF91CF910C94E91580E0DF91CF910895D1
:1034C000AF92BF92CF92DF92EF92FF920F931F9332
:1034D000CF93DF9300D0CDB7DEB78C015C0189E5D7
:1034E000A80EB11CF501E080F1806CEC74E0C7011E
:1034F0000E949FC3892B41F061ED74E0C7010E94D7
:103500009FC3892B09F086C0F801E55AFF4F8081DF
:103510000E945E8EBC01990F880B990B0E94C7BE5A
:103520002DE332E64BE95BE30E9426BF6B017C0191
:10353000F501A080B18066ED74E0C5010E949FC3D3
:10354000892B39F06BED74E0C5010E949FC3892B74
:10355000A1F4F801E55AFF4F80810E945E8EBC0104
:10356000990F880B990B0E94C7BE2FE037E648E7FA
:103570005CE30E9426BF6B017C01A701960160E01D
:10358000C8010E94AA138091BD219091BE2100978D
:1035900011F481EC91E2BE016F5F7F4F681B790BE4
:1035A000072E000C880B990B0E94C7BE9B01AC0133
:1035B00061E0C8010E94AA13F801E45AFF4F60813C
:1035C00071816F5F7F4F71836083072E000C880BC2
:1035D000990B0E94C7BE9B01AC0162E0C8010E942A
:1035E000AA13F801EC5BFF4F108211821282138242
:1035F000349680818F79808381E00F900F90DF91E6
:10360000CF911F910F91FF90EF90DF90CF90BF90DF
:10361000AF900895C12C8CE3D82E8CE1E82E86EC77
:10362000F82E86CFCF92DF92EF92FF921F93CF9327
:10363000DF93EC0181E10E94088E182F82E10E9445
:10364000088E682F70E086E0759567958A95E1F79A
:10365000072E000C880B990B17FF33C00E94C7BEC2
:1036600020E030E040E85EE30E9426BF6B017C0171
:10367000612F619570E090E080E00E94C7BE9B01E1
:10368000AC01C701B6010E94B3C090589B01AC01C8
:1036900060E0CE010E94AA13FE01EC5BFF4F108296
:1036A000118212821382C85BDF4F88818F798883F1
:1036B00081E0DF91CF911F91FF90EF90DF90CF904D
:1036C00008950E94C7BE20E030E040E85EE30E941B
:1036D00026BF6B017C01612F70E090E080E00E94CA
:1036E000C7BE9B01AC01C701B6010E94B3C0CECFDB
:1036F000CF930E94B517C82F882369F08EE00E94EF
:10370000088E682F60628EE00E940E8C8EE00E9410
:10371000088E85FDFBCF8C2FCF910895CF93DF933B
:10372000EC010E94CD8ECE01DF91CF910C94E91572
:103730000F931F93CF93DF93FC01238527FD24C0B4
:10374000EC018C010C5B1F4F65E0C8010E94A46472
:103750008823A1F050E040E065E174E0C8010E94D8
:103760005A624DE655E064E775E0C8010E94D891C1
:10377000C8010E948064C8010E946E646C8581E06B
:1037800068278B850E94458981E0DF91CF911F9149
:103790000F910895CF93DF93EC018B8587FD1FC0B8
:1037A0006C850E944589CC5BDF4F65E0CE010E94AD
:1037B000A4648823A1F050E040E062E174E0CE010F
:1037C0000E945A624DE655E064E775E0CE010E9422
:1037D000D891CE010E948064CE010E946E6481E087
:1037E000DF91CF910895DF92EF92FF920F931F9395
:1037F000CF93DF937901EC01CC5BDF4FFB011082AB
:10380000FA011082DBA0DD2009F188859985892BDA
:1038100019F4CE010E942F698885998500E010E097
:103820008130964069F46CE074E0CE010E949362AE
:1038300048EE53E060E070E0CE010E94A2688C0187
:10384000D1100CC0CE010E946E6408C065E0CE01AC
:103850000E94A46400E010E08111D7CFF70100833B
:10386000118381E0DF91CF911F910F91FF90EF9035
:10387000DF900895FF920F931F93CF93DF93EC0196
:10388000FBA0FF2069F188859985892B19F4CE0169
:103890000E942F698885998565E373E081309640A1
:1038A00011F062E373E0CE010E94936248EE53E0B0
:1038B00060E070E0CE010E94A2688C01F11003C0AC
:1038C000CE010E946E648885998588302BE092072E
:1038D00099F40936110509F400E0802F819506C09E
:1038E00065E00E94A4648111CECF80E0DF91CF918A
:1038F0001F910F91FF9008958130964071F783EAF0
:10390000800F0F3F110591F7F0CF8F929F92AF92EA
:10391000BF92EF92FF920F931F93CF93DF932FEFFE
:103920003FEF30930101209300012091020130917B
:103930000301232B09F441C0EC017C0124E4E20ED5
:10394000F11C65E0C7010E94A4640E94E98E4B014E
:103950005C01C7010E943A1C082F880F110B01154A
:10396000110589F46AEF70E080E090E00E94738EA8
:103970000E94E98E681979098A099B0968397A4396
:103980008105910530F31093010100930001E88156
:10399000F981048CF58DE02DCE010995C7010E94B7
:1039A0006E6481E0DF91CF911F910F91FF90EF90B6
:1039B000BF90AF909F908F90089580E0F3CF0F93CA
:1039C0001F93CF93DF938B01EA018C5B9F4F0E9483
:1039D0003A1C682F082E000C770BF8017183608366
:1039E00061157105A9F0682F880F770B880B990B6B
:1039F0000E94C7BE2BEE32EE4EEC5FE30E9426BF64
:103A000029E23CE946E353E40E94B3C00E9491C11D
:103A10007983688381E0DF91CF911F910F910895A1
:103A2000FF920F931F93CF93DF93EC01FBA0FF2036
:103A3000C1F008E813E120E030E041E050E068E345
:103A400073E0CE010E94F26811E0882321F0CE01DC
:103A50000E948064182FF1100AC0CE010E946E648B
:103A600006C065E00E94A464182F8111E2CF812F67
:103A7000DF91CF911F910F91FF9008958C5B9F4F25
:103A80000C94101DFF920F931F93CF93DF938C0123
:103A9000FC0185859685A785B089892B8A2B8B2B80
:103AA00081F0838187FD42C00E941C8921E0892B1F
:103AB00009F420E081E0F8019481921789F180E017
:103AC0002FC0C3850C2E000CDD0BFE01EA5AFD4D04
:103AD000649170E090E080E00E94C5BE0E94D4C175
:103AE000FE01EA5CFD4DE491F0E0EE0FFF1FED5C9E
:103AF000F34EA591B491CC91D0E028E132E741E3B7
:103B00005FE30E941FC10E9491C102C0D595C79575
:103B10006A95E2F7C17081E0F8019485C913CFCFAF
:103B2000DF91CF911F910F91FF90089585E0F82EBE
:103B3000E801CC5BDF4F6BE373E0CE010E94936240
:103B40000DE615E024E735E044E650E060E070E083
:103B5000CE010E949691813051F062E370E080E0E6
:103B600090E00E94738EFA94F110E5CFA8CF81E027
:103B7000D7CFCF93DF931F92CDB7DEB7698341E0F4
:103B800050E0BE016F5F7F4F0C960E943C5B0F9030
:103B9000DF91CF9108952F923F924F925F926F9253
:103BA0007F928F929F92AF92BF92CF92DF92EF92CD
:103BB000FF920F931F93CF93DF93CDB7DEB7CA5C0D
:103BC000D1090FB6F894DEBF0FBECDBF2B01FE01A9
:103BD000EB59FF4F1192119220E3DF01322F1D921A
:103BE0003A95E9F7FE01E956FF4F11921192DF0174
:103BF0001D922A95E9F7D12CC12CB12CA12C8B5701
:103C00009D4F3C01FE0131967F01CE010496C753C2
:103C1000DF4F99838883C95CD040B701C3010E94FC
:103C2000BB88892B09F4BCC09FEFA91AB90AA1E08F
:103C3000AA16B10409F04FC089818F3E09F04BC02C
:103C40008A818B3B09F047C08B818F3B09F043C0D1
:103C5000C753DF4F8881C95CD040C653DF4F98817E
:103C6000CA5CD0400E94384E8C014801F801319066
:103C70008F01332031F0832D90E00E9469BA892BA7
:103C8000A1F7632D032C000C770B81EE94E00E94CA
:103C900094C3892B11F6C956DF4F8881C759D0408C
:103CA0008823D9F0332009F4B8CFE814F90408F0D8
:103CB00073C0A401BE0169567F4FCE018B599F4F3F
:103CC000F2010995892B09F0A8CFC114D10409F09C
:103CD000A4CF6501A2CFC701C5CFFBE53F1220C02D
:103CE0003FEF831A930A64EE74E0C4010E94FA4D18
:103CF000DC012C912D3549F71C9241E350E0B401D1
:103D0000CE018B599F4F0E94CDC3CA56DF4F1882F8
:103D1000C659D040C956DF4F1882C759D0407DCF11
:103D2000332009F47ACF66EE74E0C4010E94FA4DA4
:103D3000FC0120812D3311F02A3339F6DC011D926C
:103D40008D01C4010E94384E4C0170E060E0C80152
:103D50000E94FA4DFC012081211110821801D80126
:103D60008D918D01882329F090E00E9469BA892BFA
:103D7000A9F7C1010E94384E41E350E0B401CE01E1
:103D800089569F4F0E94CDC3C853DF4F1882C85C2D
:103D9000D040A101B40191CFFBE53F12C4CFA0CF29
:103DA0008C2DC653DF4F0FB6F894DEBF0FBECDBFCC
:103DB000DF91CF911F910F91FF90EF90DF90CF9007
:103DC000BF90AF909F908F907F906F905F904F903B
:103DD0003F902F900895AF92BF92CF92DF92EF92D3
:103DE000FF920F931F93CF93DF93DC01CD90DC9074
:103DF0001197C114D10439F01496CD91DC918C0146
:103E00007601209761F4DF91CF911F910F91FF9080
:103E1000EF90DF90CF90BF90AF900895750157015C
:103E2000BFEFAB1ABB0AF7018081082E000C990B7B
:103E30000E9469BA892B91F72197CC0DDD1D8881ED
:103E4000082E000C990B0E9469BA892B29F0CE1517
:103E5000DF0510F02197F3CFAE014F5F5F4F4E1992
:103E60005F09D80115965C934E931497CE14DF0426
:103E700020F4B701C6010E9467C3D801ED91FC91FF
:103E8000119714968D919C91E80FF91F1082BBCF6A
:103E90002F923F924F925F926F927F928F929F925A
:103EA000AF92BF92CF92DF92EF92FF920F931F9348
:103EB000CF93DF9300D000D0CDB7DEB7FC014480B4
:103EC00055804114510409F412C1FB0164807580CE
:103ED0006114710409F40BC17A016B019C838B831B
:103EE000FA01A480B580A618B708FC0100811181F1
:103EF000A114B104B9F4F60160817181C8010E9476
:103F0000DCC38C01009709F4F2C0F7016081718174
:103F1000448155810E9467C3F70184819581080F10
:103F2000191FE9CFB7FC10C0FB012080318042018E
:103F3000C801B1010E94DCC3009709F44EC0860D90
:103F4000971D8A0C9B1CF5CF3801F60160817181A9
:103F5000C8010E94DCC32C01009729F14C01801A92
:103F6000910AA401B801C3010E9467C3680C791CBF
:103F7000F7016081718144815581C3010E9467C34B
:103F8000F70184809580680C791CF6010481158105
:103F9000040D151DEB81FC81848195818A0D9B1D8B
:103FA00095838483D2CFB801C3010F900F900F90F7
:103FB0000F90DF91CF911F910F91FF90EF90DF90C5
:103FC000CF90BF90AF909F908F907F906F905F90B9
:103FD0004F903F902F900C94A8C34814590409F4B3
:103FE00086C0EB81FC81828193818815990578F4E4
:103FF000B4016F5F7F4FC8010E9456C2009709F459
:1040000076C0EB81FC819183808393828282EB81F5
:10401000FC81048115810150110917FD68C0380128
:10402000F601248035802114310409F460C0EB814D
:10403000FC81848095808114910409F458C0821415
:10404000930408F454C00815190520F03401F1E078
:104050006F1A7108EB81FC8140805180C2010FEF23
:104060001FEF9201260D371D3A832983E981FA81DA
:10407000E817F90788F0F601608171810E94DCC3BE
:10408000009751F09C01241935096216730608F453
:10409000980101968901EACF17FD29C0200E311E33
:1040A000C201820D931DA40142195309BC018A0D5E
:1040B0009B1D0E9470C3EB81FC81848195818A0DD8
:1040C0009B1D9583848320813181820F931FFC0186
:1040D0001082EB81FC8180819181F7016081718187
:1040E00044815581800F911F0E9467C394CF0F9028
:1040F0000F900F900F90DF91CF911F910F91FF9034
:10410000EF90DF90CF90BF90AF909F908F907F9077
:104110006F905F904F903F902F900895FC01248105
:104120003581FB014481558124173507A0F0FC013E
:1041300080819181009779F0FB0160817181611527
:10414000710549F0241B350B820F931F0E949FC3FA
:1041500021E0892B09F020E0822F0895FC012481C1
:104160003581232B39F421E0FB018081882349F03C
:1041700020E007C0808191810E949FC321E0892BAC
:10418000B9F7822F0895FC0144815581FB012481F8
:1041900035814217530729F40E94D01621E0892B5C
:1041A00009F020E0822F08950F931F93CF93DF93A0
:1041B0008C01EB01FC01808191810097E1F0688125
:1041C000798161157105A9F0428153812C813D816E
:1041D0004217530770F00E94A8C38C819D81F8019B
:1041E000958384831D821C82DF91CF911F910F9153
:1041F00008950E9466B788819981F8019183808330
:104200008A819B81938382838C819D819583848322
:10421000198218821B821A82E5CFCF93DF93EC01BB
:104220008617970711F00E94D420CE01DF91CF911D
:1042300008950F931F93CF93DF93EC0188819981A9
:10424000009759F02A813B812617370730F081E02B
:10425000DF91CF911F910F9108958B016F5F7F4F79
:104260000E9456C2009759F0998388831B830A8362
:104270002C813D81232B59F7FC011082E8CF80E08F
:10428000E7CFEF92FF920F931F93CF93DF936115C8
:10429000710541F480E0DF91CF911F910F91FF9064
:1042A000EF9008957B01EC01CB010E9482BA009748
:1042B000A9F00C811D81080F191FB801CE010E94C1
:1042C0001921882339F3288139818C819D81B70197
:1042D000820F931F0E947BBA1D830C8381E0DBCF8A
:1042E000EF92FF920F931F93CF93DF9361157105A8
:1042F00041F480E0DF91CF911F910F91FF90EF90FB
:10430000089541155105B1F07B01EC010C811D812F
:10431000040F151FB8010E941921882351F3288129
:1043200039818C819D81B701820F931F0E94A8C3A0
:104330001D830C8381E0DECFEF92FF920F931F93DA
:10434000CF93DF9300D000D000D01F92CDB7DEB75F
:104350007C01CB014AE08E010F5F1F4FB8010E9424
:10436000C9BAF80101900020E9F73197AF01401B6D
:10437000510BB801C7010E94702127960FB6F8941F
:10438000DEBF0FBECDBFDF91CF911F910F91FF9088
:10439000EF900895EF92FF920F931F93CF93DF93C7
:1043A000CDB7DEB728970FB6F894DEBF0FBECDBFEE
:1043B0007C01CB014AE08E010F5F1F4FB8010E94C4
:1043C00096BAF80101900020E9F73197AF01401B40
:1043D000510BB801C7010E94702128960FB6F894BE
:1043E000DEBF0FBECDBFDF91CF911F910F91FF9028
:1043F000EF900895EF92FF920F931F93CF93DF9367
:1044000000D000D0CDB7DEB77C01862F4AE08E0108
:104410000F5F1F4FB80190E00E9496BAF80101901B
:104420000020E9F73197AF01401B510BB801C701DC
:104430000E9470210F900F900F900F90DF91CF91FD
:104440001F910F91FF90EF900895CF93DF9300D0CD
:10445000CDB7DEB769831A8241E050E0BE016F5FDD
:104460007F4F0E9470210F900F90DF91CF910895A0
:10447000FB0101900020E9F73197AF01461B570B74
:104480000C947021FB0144815581608171810C94F1
:104490007021CF93DF93EC0188819981009711F00F
:1044A0000E9466B7198218821D821C821B821A82A2
:1044B000DF91CF910895CF93DF93EC010E944121CA
:1044C000811103C0CE010E944922CE01DF91CF911C
:1044D0000895CF93DF93EC01FB0101900020E9F7F1
:1044E0003197AF01461B570B0E947021811103C009
:1044F000CE010E944922CE01DF91CF910895CF9342
:10450000DF93EC01FB0144815581608171810E9440
:104510007021811103C0CE010E944922CE01DF919A
:10452000CF910895EF92FF920F931F93CF93DF9354
:10453000EC017B018A01BA010E94192181110BC093
:10454000CE010E944922CE01DF91CF911F910F91A0
:10455000FF90EF9008951D830C83B70188819981A6
:104560000E94A8C3F0CFFB0101900020E9F731972A
:10457000AF01461B570B0C949222CF93DF93EC01B3
:104580006115710531F00E94B322CE01DF91CF9108
:1045900008950E944922F9CFCF93DF93EC01FB01EC
:1045A0008617970749F0608171816115710541F0A7
:1045B000448155810E949222CE01DF91CF910895CE
:1045C0000E944922F9CFFC0180819181009711F06E
:1045D0000C9466B70895CF93DF93EC0188E793E0DE
:1045E00099838883CE0183589F4F0E94E322CE0196
:1045F00089589F4F0E94E322CE018F589F4F0E94FF
:10460000E322CE0185599F4F0E94E322C75ADF4F14
:1046100086E693E09983888370E060E0CE010E9493
:104620001D158091F5169091F616C817D90721F43B
:104630001092F6161092F51680919B168093B0009A
:1046400080919A168093B100DF91CF910895CF9316
:10465000DF93EC010E94EB22CE01DF91CF910C940D
:1046600066B70F931F93CF93DF93CDB7DEB76197F4
:104670000FB6F894DEBF0FBECDBF8C01CB01F801A1
:1046800011821082138212821582148250E0BE01C0
:104690006F5F7F4F0E94BEBABE016F5F7F4FC80140
:1046A0000E94B32261960FB6F894DEBF0FBECDBF55
:1046B000DF91CF911F910F9108950F931F93CF9387
:1046C000DF93CDB7DEB762970FB6F894DEBF0FBEAB
:1046D000CDBF8C01CB01F8011182108213821282AE
:1046E0001582148250E0BE016F5F7F4F0E948BBA2B
:1046F000BE016F5F7F4FC8010E94B32262960FB662
:10470000F894DEBF0FBECDBFDF91CF911F910F9107
:1047100008950F931F93CF93DF93CDB7DEB72997FB
:104720000FB6F894DEBF0FBECDBF8C01862FF80107
:1047300011821082138212821582148250E0BE010F
:104740006F5F7F4F90E00E94BEBABE016F5F7F4FE8
:10475000C8010E94B32229960FB6F894DEBF0FBE9F
:10476000CDBFDF91CF911F910F910895CF93DF932C
:1047700000D0CDB7DEB7FC01118210821382128205
:104780001582148269831A82BE016F5F7F4F0E9477
:10479000B3220F900F90DF91CF910895EF92FF9287
:1047A0000F931F93CF93DF93EC01198218821B8222
:1047B0001A821D821C826115710509F18B01CB01E2
:1047C0000E9482BA7C01BC01CE010E941921811194
:1047D00009C0CE01DF91CF911F910F91FF90EF9013
:1047E0000C944922FD82EC82B80188819981DF9185
:1047F000CF911F910F91FF90EF900C947BBADF91B6
:10480000CF911F910F91FF90EF900895EF92FF923B
:104810000F931F93CF93DF9300D000D000D0CDB77C
:10482000DEB78C017B016AE777E00E94CE23B701F7
:10483000675A7F4FCE0101960E940285BE016F5FCD
:104840007F4FC8010E944222CE0101960E94E322BE
:10485000C80126960FB6F894DEBF0FBECDBFDF911C
:10486000CF911F910F91FF90EF900895EF92FF92DB
:104870000F931F93CF93DF9300D000D000D0CDB71C
:10488000DEB78C017B0162E777E00E94CE23F7015F
:10489000E257FF4F6081062E000C770B40E1CE01FE
:1048A00001960E945D23BE016F5F7F4FC8010E9489
:1048B0004222CE0101960E94E322C80126960FB63D
:1048C000F894DEBF0FBECDBFDF91CF911F910F9146
:1048D000FF90EF900895CF93DF93EC0160E776E0CF
:1048E0000E94CE23CE01DF91CF910895EF92FF92E7
:1048F0000F931F93CF93DF9300D000D000D0CDB79C
:10490000DEB78C017B016BE172E00E94CE23F701E0
:1049100062A1062E000C770B4AE0CE0101960E94A0
:104920005D23BE016F5F7F4FC8010E944222CE010E
:1049300001960E94E322C80126960FB6F894DEBFC6
:104940000FBECDBFDF91CF911F910F91FF90EF90E0
:104950000895FC0111821082138212821582148242
:104960000C94CC22EF92FF920F931F93CF93DF937F
:10497000CDB7DEB762970FB6F894DEBF0FBECDBFDE
:104980007C018B016EE776E00E94CE23F80162A1E4
:10499000062E000C770B4AE0CE010D960E945D2397
:1049A000F801E759FF4F6081CE0101960E94B623BE
:1049B000BE016F5F7F4FCE0107960E94A92469E771
:1049C00076E0CE0107960E945B22BE01635F7F4FB7
:1049D0000E947F22BC01C7010E944222CE0107969D
:1049E0000E94E322CE0101960E94E322CE010D96A1
:1049F0000E94E322C70162960FB6F894DEBF0FBE95
:104A0000CDBFDF91CF911F910F91FF90EF9008954F
:104A1000FC011182108213821282158214826115A8
:104A2000710551F0FB0101900020E9F73197AF01CA
:104A3000461B570B0C9492220895AF92BF92CF92CF
:104A4000DF92EF92FF920F931F93CF93DF935C015E
:104A50006B017A0189012417350720F48F2D790124
:104A6000042F182F6DE476E0C5010E940825D601B9
:104A70001496CD91DC91EC16FD06C8F40C171D07B9
:104A800008F4E801D601ED91FC911197EC0FFD1FA0
:104A9000108110826D917C916E0D7F1DC5010E9469
:104AA000BD22F60180819181C80FD91F1883C501ED
:104AB000DF91CF911F910F91FF90EF90DF90CF90FA
:104AC000BF90AF900895EF92FF920F931F93CF93F3
:104AD000DF93CDB7DEB768970FB6F894DEBF0FBE91
:104AE000CDBF7C018B0166E677E00E94CE2368E8AB
:104AF00079E0CE0143960E94082563E577E0CE0178
:104B00000D960E94CE236EE477E0CE0107960E94B8
:104B1000CE23B80165597F4FCE0101960E94A9248A
:104B2000BE016D5E7F4FCE0101960E947F22B801CB
:104B30006F587F4F0E947F22BE016D5E7F4F0E94A3
:104B40007F22B80169587F4F0E947F22BE01695FB2
:104B50007F4F0E947F22B80163587F4F0E947F22BF
:104B6000BE01635F7F4F0E947F22BC01C7010E948C
:104B70004222CE0101960E94E322CE0107960E94B6
:104B8000E322CE010D960E94E322CE0143960E94BD
:104B9000E322C70168960FB6F894DEBF0FBECDBF03
:104BA000DF91CF911F910F91FF90EF900895CF93D8
:104BB000DF93EC0169EE74E00E940825CE01DF91DD
:104BC000CF910895CF93DF93EC016AEF74E00E94D8
:104BD0000825CE01DF91CF910895CF92DF92EF9219
:104BE000FF920F931F93CF93DF93CDB7DEB76297FA
:104BF0000FB6F894DEBF0FBECDBF8C01FC01F3A051
:104C0000F11038C065E00E94A464811133C06DE4E6
:104C100076E0CE010D960E940825BE01635F7F4FAE
:104C2000CE0101960E94DA61CB80DC80ED80FE80AF
:104C3000CE010D960E94E3221B821C821D821E82E1
:104C40004B815C816D817E8181E04C155D056E0537
:104C50007F0509F480E062960FB6F894DEBF0FBEC0
:104C6000CDBFDF91CF911F910F91FF90EF90DF901B
:104C7000CF90089560EF75E0C8010E9493626DE4E3
:104C800076E0CE0107960E94082560E170E0CE0133
:104C900007960E94192120E335E740E050E0B80173
:104CA000CE0101960E942564BE016F5F7F4FCE0149
:104CB00007960E94D420CE0101960E94E322F110B3
:104CC00003C0C8010E946E64CE0107960E94EB1ECD
:104CD0001E861D86188A1F861A8A198ABE01695F78
:104CE0007F4FCE010D960E94D420CE0107960E94E0
:104CF000E32293CFCF93DF93EC01CC5BDF4FCE0168
:104D00000E948069892B29F4CE01DF91CF910C9408
:104D1000ED2580E0DF91CF910895CF93DF93EC01F3
:104D200062308BE0780709F150F4613086E0780753
:104D300081F061307B40B1F068E875E00CC066300E
:104D40008BE07807A9F068307B40B1F76EE675E03C
:104D500002C06DE075E0CE010E940825CE01DF9112
:104D6000CF9108956DE175E0F6CF6AE375E0F3CF7A
:104D700060E575E0F0CFAF92BF92DF92EF92FF92C5
:104D80000F931F93CF93DF9300D000D000D0CDB707
:104D9000DEB78C017B015A01FB01D3A0D1101CC0EE
:104DA00065E0C7010E94A464811116C06DE476E03D
:104DB000C8010E940825C80126960FB6F894DEBFE8
:104DC0000FBECDBFDF91CF911F910F91FF90EF905C
:104DD000DF90BF90AF900895B501C7010E94936224
:104DE00028EE33E040E050E0B701CE0101960E948A
:104DF0002564D11003C0C7010E946E64F8011182BE
:104E000010821382128215821482BE016F5F7F4F5F
:104E1000C8010E94D420CE0101960E94E322CBCF8C
:104E2000CF92DF92EF92FF920F931F93CF93DF9376
:104E3000CDB7DEB72B970FB6F894DEBF0FBECDBF50
:104E40008C010C5B1F4FF801D3A0DD20D1F14FE0A6
:104E500054E0B801CE0101960E94BB266DE476E0D5
:104E6000CE0101960E94AE20811149C07E01F7E07B
:104E7000EF0EF11C85E0F70111928A95E9F745E004
:104E800050E0B701CE0101960E947A8840E150E0DF
:104E900070E060E0C7010E94EFB7F62ED11003C0AA
:104EA000C8010E946E646F2DFF0C770B880B990B65
:104EB0000E94C7BE6B017C01CE0101960E94E322D5
:104EC0000DC065E0C8010E94A4648111C0CFC12C4F
:104ED0009CE3D92E9CE1E92E96ECF92EC701B60190
:104EE0002B960FB6F894DEBF0FBECDBFDF91CF91EA
:104EF0001F910F91FF90EF90DF90CF900895C12CFC
:104F00008CE3D82E8CE1E82E86ECF82ED5CFCF930B
:104F1000DF93EC016DE476E00E940825CE01DF917D
:104F2000CF910895CF93DF93EC01FB0164A175A1AC
:104F30000E940825CE01DF91CF9108950F931F9312
:104F4000CF93DF93EC010E94E98E688779878A8787
:104F50009B87E881F9810284F385E02DCE010995D4
:104F600097FF15C00E94E98E088519852A853B8523
:104F7000601B710B820B930B0C811D812E813F8175
:104F8000601771078207930720F38FEF9FEFDF9180
:104F9000CF911F910F910895EF92FF920F931F935E
:104FA000CF93DF93EC017B01042F6DE476E00E9448
:104FB0000825C7010E949E27002E000C110B97FDAB
:104FC0000BC00817190741F0682FCE010E94252257
:104FD000C7010E949E27F3CFCE01DF91CF911F9191
:104FE0000F91FF90EF900895AF92BF92CF92DF9212
:104FF000EF92FF920F931F93CF93DF93CDB7DEB75E
:1050000062970FB6F894DEBF0FBECDBF7C016C0176
:1050100089E5C80ED11CC6010E946C136DE476E0D0
:10502000CE010D960E9408255701E9E6AE0EB11C8F
:10503000F5016081CE010D960E9425226EE975E092
:10504000CE010D960E94382205E0FAE6EF0EF11C23
:10505000F7014081BE01635F7F4FC6010E94531577
:105060006EE170E080E090E00E94738E4AE0B6014D
:10507000CE0107960E94CC27CE0107960E94EB1E18
:10508000C6010E946C13F5016081CE0101960E9459
:10509000B623BE016F5F7F4FCE0107960E94C320EB
:1050A000182FCE0101960E94E322111140C0F50194
:1050B0006081CE0101960E94B6234D815E818B8571
:1050C0009C858417950778F08F819885009759F013
:1050D00069817A816115710531F00E94BFC311E0C9
:1050E000892B09F010E0CE0101960E94E322117095
:1050F000CE0107960E94E322111103C0015009F06E
:10510000A7CFCE010D960E94E322812F62960FB6A3
:10511000F894DEBF0FBECDBFDF91CF911F910F91ED
:10512000FF90EF90DF90CF90BF90AF90089511E087
:10513000DFCF3F924F925F926F927F928F929F92BA
:10514000AF92BF92CF92DF92EF92FF920F931F9395
:10515000CF93DF93CDB7DEB76E970FB6F894DEBF6F
:105160000FBECDBF8C010E94E915382EC8010E94E8
:10517000108F682E811108C0D801ED91FC91068432
:10518000F785E02DC8010995C8010E942114780116
:10519000B9E5EB0EF11CC7010E94C71586E990E046
:1051A000A0E0B0E0F70184839583A683B78381EF05
:1051B00098ED9787868741E064E579E1D80192967A
:1051C0008C910E947967C090F516D090F616EC1479
:1051D000FD0419F0C7010E94C715C7010E946C1396
:1051E000C8010E94F427782E882309F415C16DE4C4
:1051F00076E0CE0149960E9408254801B9E68B0E5B
:10520000911CF4016081CE0149960E94252262E939
:1052100075E0CE0149960E9438222801FAE64F0E29
:10522000511CD2014C91BE01675E7F4FC7010E94A5
:1052300053156EE170E080E090E00E94738E4AE0CA
:10524000B701CE0143960E94CC27CE0143960E941F
:10525000EB1EC7010E946C13EC14FD0419F0C7018A
:105260000E94B6158F89988D029708F408C121E035
:1052700030E050E040E0BE016D5E7F4FCE010D9604
:105280000E941D2523E030E041E050E0BE016D5E4C
:105290007F4FCE0101960E941D2589819A8100973A
:1052A00011F00E9420BACE0101960E94E3222BE069
:1052B00030E043E050E0BE016D5E7F4FCE010196CD
:1052C0000E941D25BE016F5F7F4F6801BBE6CB0EBC
:1052D000D11CC6010E940D21CE0101960E94E3223D
:1052E000C6010E94EB1E21E130E04BE050E0BE0120
:1052F0006D5E7F4FCE0101960E941D25BE016F5F3E
:105300007F4F5801E1E7AE0EB11CC5010E940D218F
:10531000CE0101960E94E322C5010E94EB1E24E10A
:1053200030E041E150E0BE016D5E7F4FCE0101965D
:105330000E941D25BE016F5F7F4F5801F7E7AF0E3A
:10534000B11CC5010E940D21CE0101960E94E322ED
:10535000C5010E94EB1E2F89388D44E150E0BE014B
:105360006D5E7F4FCE0101960E941D25BE016F5FCD
:105370007F4F58018DE7A80EB11CC5010E940D2179
:10538000CE0101960E94E322C5010E94EB1E65E951
:1053900075E0C6010E94AE20882391F16DE476E0AD
:1053A000CE0107960E940825D4016C91CE01079684
:1053B0000E9425226BE975E0CE0107960E943822F3
:1053C000F2014081BE01695F7F4FC7010E94531502
:1053D0006EE170E080E090E00E94738E4AE0B701D9
:1053E000CE0101960E94CC27CE0101960E94EB1EB1
:1053F000CE0101960E94E322CE0107960E94E3228D
:10540000CE010D960E94E322CE0143960E94E32234
:10541000CE0149960E94E3227320C7010E946C13BB
:10542000C7010E94B615611008C0D801ED91FC912A
:105430000088F189E02DC8010995711007C0F801B5
:10544000E85BFF4F80818E7F80688083872D6E961A
:105450000FB6F894DEBF0FBECDBFDF91CF911F9185
:105460000F91FF90EF90DF90CF90BF90AF909F9003
:105470008F907F906F905F904F903F900895712C28
:10548000C3CFFB0101900020E9F73197AF01461B24
:10549000570BDC01ED91FC910280F381E02D099422
:1054A0008F929F92AF92BF92EF92FF920F931F93B2
:1054B000CF93DF93CDB7DEB7A1970FB6F894DEBFD9
:1054C0000FBECDBF7C01FA01CB0119A2223008F436
:1054D0002AE08E010F5D1F4F822E912CB12CA12C42
:1054E000BF01A50194010E940AC0F901CA016A30F6
:1054F0000CF5605DD8016E938D01232B242B252B99
:1055000079F790E080E0109721F0BD01C7010E947B
:10551000412AA1960FB6F894DEBF0FBECDBFDF9132
:10552000CF911F910F91FF90EF90BF90AF909F9000
:105530008F900895695CDECF6BE476E00C94412A8D
:105540000F931F93CF93DF938C01D0E0C0E06115E0
:10555000710519F00E94412AEC01C8010E949C2AA1
:105560008C0F9D1FDF91CF911F910F9108950C9487
:10557000502A9A01AB0170E060E00C94B72A9A01BE
:10558000462F50E070E060E00C94B72A0F931F9311
:10559000CF93DF93EC010E94BF2A8C01CE010E94C1
:1055A0009C2A800F911FDF91CF911F910F91089539
:1055B000DC01ED91FC910190F081E02D09942F9296
:1055C0003F924F925F926F927F928F929F92AF9293
:1055D000BF92CF92DF92EF92FF921F93CF93DF9310
:1055E000EC016A017B01722EAB019601CB01B60181
:1055F0000E941CC260EA75E0811126C04601570175
:10560000E894B7F82FEF3FEF4FE75FE7C501B4012C
:105610000E941CC281110CC02FEF3FEF4FE75FE7E4
:10562000C501B4010E94C0BE64EA75E0181664F0BA
:105630002FEF3FEF4FE75FE4C701B6010E94C7C1FC
:105640001816B4F468EA75E0CE01DF91CF911F918E
:10565000FF90EF90DF90CF90BF90AF909F908F9092
:105660007F906F905F904F903F902F900C94412AC5
:105670002FEF3FEF4FE75FECC701B6010E94C0BEBE
:1056800087FDE0CF20E030E0A901C701B6010E940C
:10569000C0BE312C212C87FF09C06DE2CE010E94D3
:1056A000D82A1C01F7FAF094F7F8F09410E060E0C3
:1056B00070E080E09FE3711641F020E030E040E2CE
:1056C00051E40E941FC11F5FF6CFA70196010E94FF
:1056D000B3C02B013C010E9498C14B015C012AE040
:1056E000BC01A401CE010E94502A7C01E20CF31CF3
:1056F0001123B1F1C501B4010E94C5BE9B01AC01EB
:10570000C301B2010E94B2C04B015C016EE2CE0146
:105710000E94D82AE80EF91E115010F120E030E066
:1057200040E251E4C501B4010E9426BF2B013C01B7
:105730000E9498C14B014AE050E0CE010E94B92A74
:10574000E80EF91EB40190E080E00E94C5BE9B0106
:10575000AC01C301B2010E94B2C04B015C01DCCFBD
:10576000C701DF91CF911F91FF90EF90DF90CF9015
:10577000BF90AF909F908F907F906F905F904F9071
:105780003F902F9008950C94DF2A0F931F93CF938F
:10579000DF93EC010E94D82A8C01CE010E949C2A42
:1057A000800F911FDF91CF911F910F9108958F92DC
:1057B0009F92AF92BF92CF92DF92EF92FF920F93A0
:1057C0001F93CF93DF937C018B014C0182E0880E05
:1057D000911C5701E5E0AE0EB11CD0E0C0E0F40131
:1057E00061914F014AE050E0C8010E94BF2A6C015C
:1057F0006EE2C8010E94D82A8C0D9D1DC80FD91FCA
:105800008A149B0461F74AE050E0F7016581C80102
:105810000E94BF2A8C0F9D1FDF91CF911F910F9186
:10582000FF90EF90DF90CF90BF90AF909F908F90C0
:1058300008956115710511F00C94412A90E080E003
:1058400008951F93CF93DF93EC01162F4CEA53E199
:10585000FA0101900020E9F7AF014D5A53416CEA7B
:1058600073E180EB97E10E94E511112329F06AE0D2
:1058700080EB97E10E94C52B80EB97E10E94D2124A
:105880004CEA53E1FA0101900020E9F7AF014D5ACB
:105890005341E881F9810280F381E02D6CEA73E1E4
:1058A000CE010995112329F06BE476E0CE010E9428
:1058B000192CE881F9810680F781E02DCE01099548
:1058C000ECEAF3E18AE996E111928E179F07E1F77E
:1058D000DF91CF911F910895DB0114964D915C915A
:1058E00015976D917C91DC01ED91FC910280F38123
:1058F000E02D09940F931F93CF93DF93EC010E9447
:105900006C2C8C01CE010E949C2A800F911FDF918C
:10591000CF911F910F910895EF92FF920F931F93D4
:10592000CF93DF938C017B01D0E0C0E0F701EC0F57
:10593000FD1F6491662361F0D801ED91FC91019007
:10594000F081E02DC8010995892B11F02196EECF49
:10595000CE01DF91CF911F910F91FF90EF900895AD
:105960000F931F93CF93DF93EC010E948C2C8C013B
:10597000CE010E949C2A800F911FDF91CF911F9131
:105980000F910895BC0180EB97E10E948C2C6CEA8A
:1059900075E080EB97E10E94192C61EB75E080EBDC
:1059A00097E10C94A02A1F920F920FB60F92112428
:1059B0000BB60F922F933F934F935F936F937F9309
:1059C0008F939F93AF93BF93EF93FF9384E99EE1EF
:1059D0000E946312FF91EF91BF91AF919F918F91C0
:1059E0007F916F915F914F913F912F910F900BBEDF
:1059F0000F900FBE0F901F9018951F920F920FB629
:105A00000F9211240BB60F922F938F939F93EF93C6
:105A1000FF93E091A41EF091A51E8081E091AA1E43
:105A2000F091AB1E82FD1DC090818091AD1E8F5FF5
:105A30008F732091AE1E821741F0E091AD1EF0E011
:105A4000EC56F14E958F8093AD1EFF91EF919F9193
:105A50008F912F910F900BBE0F900FBE0F901F9044
:105A600018958081F2CF1F920F920FB60F921124DA
:105A70000BB60F922F933F934F935F936F937F9348
:105A80008F939F93AF93BF93EF93FF9380EB97E137
:105A90000E946312FF91EF91BF91AF919F918F91FF
:105AA0007F916F915F914F913F912F910F900BBE1E
:105AB0000F900FBE0F901F9018951F920F920FB668
:105AC0000F9211240BB60F922F938F939F93EF9306
:105AD000FF93E091C017F091C1178081E091C61744
