:100000000C944E0C0C94CD120C94A2120C947712FA
:100010000C9402120C948D110C9418110C94A310D2
:100020000C9451340C94780C0C94780C0C94780C3F
:100030000C94DB550C9452560C9490550C94780CFF
:100040000C94780C0C94780C0C94687A0C94780CC2
:100050000C941F740C94F5730C94780C0C94780C1D
:100060000C94780C0C94780C0C9442480C94780CFA
:100070000C94BF730C9495730C94780C0C94780CBE
:100080000C94780C0C94780C0C94780CB479B779A7
:10009000AA79AE79CE79CE79BB79BF79C579C9799C
:1000A00008000000BE922449123EABAAAA2ABECD87
:1000B000CCCC4C3E00000080BEABAAAAAA3E0000F9
:1000C0000000BF000000803F0000000000084178F1
:1000D000D3BB4387D1133D190E3CC3BD4282AD2B28
:1000E0003E68EC8276BED98FE1A93E4C80EFFFBE20
:1000F00001C4FF7F3F000000000000407A10F35A67
:1001000000A0724E18090010A5D4E80000E8764857
:10011000170000E40B54020000CA9A3B000000E103
:10012000F505000080969800000040420F00000096
:10013000A08601000000102700000000E803000076
:1001400000006400000000000A0000000000010040
:10015000000000002C76D888DC674F0823DFC1DF61
:10016000AE59E1B1B796E5E3E453C63AE651997664
:1001700096E8E6C28426EB898C9B62ED407C6FFC9E
:10018000EFBC9C9F40F2BAA56FA5F490055A2AF7E0
:100190005C936B6CF9676DC11BFCE0E40D47FEF5E9
:1001A00020E6B500D0ED902E030094357705008051
:1001B000841E080000204E0A000000C80C333333B0
:1001C000330F986E12831141EF8D2114893BE65550
:1001D00016CFFEE6DB18D1844B381BF77C1D901D33
:1001E000A4BBE424203284725E228100C9F124EC95
:1001F000A1E53D270A4C6F676765723A7365744CD9
:100200006F676765724964206572726F72202D2076
:100210006578706563746564204E554C4C2070742D
:1002200072000A0D2020204C6F676765723A736573
:10023000744C6F67676572496420746F6F206C6FD0
:100240006E673A205472696D6D656420746F20008A
:100250002020204C6F633D006261747465727920C8
:10026000747970653D006D696E757465732C2054EA
:100270007A3D005D0A0D2020206C6F6767696E670C
:1002800020696E74657276616C3D0046726F6D20F8
:10029000656570726F6D20636F6D6D6F6E3A204C87
:1002A0006F676765722046696C65204E616D655B9E
:1002B00000466163746F72792064656661756C7461
:1002C000006D734C6F673031005D005D20736E5BB5
:1002D000005D20207265765B0046726F6D2065655B
:1002E00070726F6D20626F6F74204E616D655B0080
:1002F000302E3562004D313233343536373839617E
:100300006263646566676800656E7669726F44490A
:1003100059206D6179666C7900506172736520694E
:100320006E693B204E6F2066696C652000436F6DDF
:10033000706C657465642E004572726F72206F6E0A
:10034000206C696E65203A00506172736520696E99
:10035000693B200056005620474F4F443D00562031
:100360004D454449554D3D0056204C4F573D0020CA
:100370005468726573686F6C6473205553454142CD
:100380004C453D0042617474657279205479706502
:100390003D007365636F6E6473206F66204E495332
:1003A000542E00496E7465726E616C20436C6F63ED
:1003B0006B2077697468696E2000496E7465726E8F
:1003C000616C20436C6F636B207365742000426125
:1003D000642074696D657374616D702C206E6F7428
:1003E0002073657474696E6720636C6F636B2E0095
:1003F00050757474696E67206D6F64656D20746FDD
:1004000020736C65657000436F756C64206E6F744B
:100410002077616B65206D6F64656D20666F72205B
:10042000636C6F636B2073796E632E00436F756C22
:1004300064206E6F7420636F6E6E65637420746FDA
:1004400020696E7465726E657420666F7220636CCD
:100450006F636B2073796E632E0054686973206D2F
:1004600061792074616B6520757020746F207477DA
:100470006F206D696E757465732100417474656DCC
:100480007074696E6720746F20636F6E6E6563743D
:1004900020746F2074686520696E7465726E65746F
:1004A00020616E642073796E6368726F6E697A651D
:1004B000205254432077697468204E4953540044B5
:1004C0006174612077696C6C206265207361766568
:1004D0006420617300556E61626C6520746F2063E7
:1004E000726561746520612066696C6520746F2097
:1004F00073617665206461746120746F21005365B7
:100500007474696E672075702066696C65206F6E03
:1005100020534420636172640053657474696E678C
:100520002075702073656E736F72732E2E2E0054BB
:10053000696D65200053796E632077697468204E79
:10054000495354206F7665722057694669206E655D
:1005500074776F726B2000456E7669726F794449CB
:10056000595075626C697368657220736574517552
:10057000656420000A0A2D2D2D7061727365496E25
:100580006920636F6D706C65746520002D2D2D7072
:1005900061727365496E692000476F6F6420426124
:1005A00074563D002D2D2D2D57616B657570003AE9
:1005B00020426174746572794C6F772D536C656558
:1005C0007036307365632C20426174563D00546967
:1005D0006E7947534D204C6962726172792076655D
:1005E0007273696F6E20004D6F64756C6172536534
:1005F0006E736F72732076657273696F6E20000A76
:100600002D2D2D426F6F742E204275696C643A2037
:10061000002D2D2D4E657752656164696E6720430C
:10062000414E43454C4C45442D2D4C626174745FE2
:10063000563D00207374617475733D00436F6C6C9C
:100640006563742072656164696E67732026206C2F
:100650006F672E2062617474657279563D00455251
:10066000524F52004C4100544D00544D3000544DF7
:1006700000414D3000465200414D310041503000A4
:10068000414D30004149002B2B2B00414300575274
:1006900000434E004853004853000A4C6F6767659B
:1006A000724D6F64656D3A3A73657457694669496E
:1006B00064206572726F72202D6E6F20627566669F
:1006C000657220000A4C6F676765724D6F64656DD7
:1006D0003A3A736574576946694964206572726F66
:1006E00072202D206578706563746564204E554CCA
:1006F0004C20707472000A0D2020204C6F676765D3
:10070000724D6F64656D3A736574576946694964E3
:1007100020746F6F206C6F6E673A205472696D6D34
:10072000656420746F20000A4C6F676765724D6FB7
:1007300064656D3A3A736574576946695077642009
:100740006572726F72202D6E6F20627566666572BB
:1007500020000A4C6F676765724D6F64656D3A3AA9
:1007600073657457694669507764206572726F7259
:10077000202D206578706563746564204E554C4C5F
:1007800020707472000A0D2020204C6F676765721C
:100790004D6F64656D3A7365745769466950776447
:1007A00020746F6F206C6F6E673A205472696D6DA4
:1007B000656420746F20003D005D20004E6F742042
:1007C000737570706F72746564205B0041435449A7
:1007D0004F4E2057726974652061626F7274656450
:1007E0002E20696E737472756374696F6E202700B2
:1007F000414354494F4E20434F5059206E6F74204F
:10080000737570706F72746564207965743A004313
:100810004F505900454550524F4D205772697465ED
:100820002066696E697368656400414354494F4EA0
:100830002057726974652061707020454550524F91
:100840004D20737461727465643A0057524954457F
:1008500000414354494F4E00555345520020746F98
:100860002000424F4F54207462642000454550528E
:100870004F4D2057726974652061626F72746564B0
:100880002E20696E737472756374696F6E20270011
:10089000454550524F4D2057726974652066696E08
:1008A000697368656400454550524F4D2057726921
:1008B000746520737461727465643A00594553001D
:1008C000454550524F4D5F575249544500426F6164
:1008D0007264205265763A00424F4152445F52455D
:1008E0005600426F6172642053657269616C4E7587
:1008F0006D203A00424F4152445F534E00426F61B7
:100900007264204E616D653A00424F4152445F4E21
:10091000414D4500424F4F540020746F20004E451A
:1009200054574F524B207462642000434F4D4D4F3B
:100930004E205365742053454E445F4F4646534501
:10094000545F4D494E206572726F723B2028726170
:100950006E67652030203A2033302920726561644B
:100960003A00434F4D4D4F4E205365742053454E32
:10097000445F4F46465345545F4D494E3A2000531D
:10098000454E445F4F46465345545F4D494E0043E4
:100990004F4D4D4F4E2053657420434F4C4C4543B3
:1009A000545F52454144494E4753206572726F72FD
:1009B0003B202872616E67652030203A2033302951
:1009C00020726561643A00434F4D4D4F4E20536590
:1009D0007420434F4C4C4543545F52454144494E6B
:1009E00047533A2000434F4C4C4543545F524541D6
:1009F00044494E475300434F4D4D4F4E205365746D
:100A000020504F53545F4D41585F4E554D206572F5
:100A1000726F723B202872616E67652030203A2029
:100A200035302920726561643A00434F4D4D4F4E79
:100A30002053657420504F53545F4D41585F4E55BD
:100A40004D3A2000504F53545F4D41585F4E554D25
:100A500000434F4D4D4F4E205365742054494D4532
:100A6000525F504F53545F504143455F4D53206593
:100A700072726F723B202872616E67652030203A77
:100A800020353030302920726561643A00434F4D83
:100A90004D4F4E205365742054494D45525F504F81
:100AA00053545F504143455F4D533A200054494DE4
:100AB00045525F504F53545F504143455F4D530083
:100AC000434F4D4D4F4E205365742054494D455270
:100AD0005F504F53545F544F55545F4D53206572D0
:100AE000726F723B202872616E6765203130302052
:100AF0003A2033303030302920726561643A004347
:100B00004F4D4D4F4E205365742054494D45525F13
:100B1000504F53545F544F55545F4D53203A20006B
:100B200054494D45525F504F53545F544F55545F95
:100B30004D530027206E6F772027004E4554574FA6
:100B4000524B20576946695077643A207761732089
:100B50002700576946695077640027206E6F772019
:100B600027004E4554574F524B20576946694964F8
:100B70003A20776173202700576946694964004E1F
:100B80004554574F524B0020746F200053454E532D
:100B90004F525320746264200053454E534F5253BA
:100BA0000020746F2000434F4D4D4F4E20746264FF
:100BB000200047454F47524150484943414C5F4907
:100BC000443A0047454F47524150484943414C5FE2
:100BD000494400434F4D4D4F4E2053657420546996
:100BE0006D655A6F6E65206572726F723B20287258
:100BF000616E6765202D3132203A202B3132292059
:100C0000726561643A00434F4D4D4F4E20536574F9
:100C10002054696D655A6F6E653A200054494D4500
:100C20005F5A4F4E450020536574204C69496F6EE2
:100C30002054797065206572726F723B2028726152
:100C40006E676520302D322920726561643A004359
:100C50004F4D4D4F4E204C69496F6E205479706551
:100C60003A20004C49494F4E5F545950450020539B
:100C70006574204C69496F6E2054797065206572E7
:100C8000726F723B202872616E676520302D3229A9
:100C900020726561643A00434F4D4D4F4E204261D2
:100CA000747465727920547970653A200042415419
:100CB000544552595F54595045002920776974684A
:100CC00020726561643A002053657420696E746512
:100CD0007276616C206572726F72202872616E6725
:100CE000653A20312D00286D696E292066726F6D7E
:100CF0002064656661756C742000434F4D4D4F4E06
:100D0000204C4F4747494E475F494E544552564144
:100D10004C5F4D494E555445532073657420746F94
:100D20003A2000205573696E67204D61782E20525D
:100D3000656164696E672069676E6F726564200023
:100D4000434F4D4D4F4E204C4F4747494E475F490B
:100D50004E54455256414C5F4D494E5554455320D3
:100D60006D757374206265206C657373207468619F
:100D70006E203A20004C4F4747494E475F494E543A
:100D8000455256414C5F4D494E5554455300434FD3
:100D90004D4D4F4E204C6F67676572496420536517
:100DA000743A20004C4F474745525F494400434F37
:100DB0004D4D4F4E007D2055554944206E6F742097
:100DC000737570706F72746564007D206F75742028
:100DD0006F662072616E67652E204E6F7475736545
:100DE00064007D007D207265706C6163696E6720B0
:100DF0007B00696E646578007D206D617463682096
:100E000020262061646465642E003D7B00005555FA
:100E10004944730050524F5649444552206E6F74F6
:100E200020737570706F727465643A0050524F563B
:100E3000494445522053657474696E672053616D4F
:100E4000706C696E67466561747572653A2000530F
:100E5000414D504C494E475F46454154555245001F
:100E600050524F56494445522053657474696E6719
:100E700020636C6F756449643A2000434C4F5544BD
:100E80005F49440050524F564944455220536574BF
:100E900074696E6720726567697374726174696FD3
:100EA0006E20746F6B656E3A20005245474953546B
:100EB000524154494F4E5F544F4B454E0050524F94
:100EC0005649444552000054500027206661696C21
:100ED00065642E0058626565202700586265655775
:100EE00069666920696E6974207465737420504165
:100EF0005353454400586265655769666920696EB9
:100F000069742074657374204641494C4544202D12
:100F100020686F706520697420776F726B73206E24
:100F20006578742074696D65004E53005D005862E9
:100F300065655769466920495023205B0058626502
:100F40006557694669206E6F7420726563656976BE
:100F5000656420495023202D686F706520697420D6
:100F6000776F726B73206E6578742074696D65009D
:100F70004D59005862656557694669206E6F742047
:100F800041502052656769737465726564202D2035
:100F900061626F7274696E6720617474656D7074DC
:100FA0002C20686F706520697420776F726B7320D6
:100FB0006E6578742074696D65004149004C6F6FEF
:100FC000703D5365635D207278206462203A20533F
:100FD00074617475732023506F6C6C656420537456
:100FE0006174757320657665727920317365632F3E
:100FF000333073656300544D00534F00534D004927
:1010000050004439004438005052002700586265AF
:10101000655769466920496E697469616C697A69C6
:101020006E6720496E7465726E657420636F6D6DB6
:10103000732077697468206D6F64656D2027004C9C
:101040004174696D652E6E6973742E676F7600202A
:10105000002069732000207265706F727473200025
:1010600020002069732063616C63756C6174656432
:1010700020746F20626520002D2D2D2D2D2D2D2DFE
:101080002D2D2D2D2D2D2D2D2D2D2D2D2D2D2D2D90
:101090002D2D2D2D2D2D2D2D2D2D2D2D2D2D2D2D80
:1010A0002D2D0045786974696E67207465737469C5
:1010B0006E67206D6F6465002D2D2D2D2D2D2D2D2E
:1010C0002D2D2D2D2D2D2D2D2D2D2D2D2D2D2D007D
:1010D0002D2D2D2D2D2D2D2D2D2D2D2D2D2D2D2D40
:1010E0002D2D2D2D2D2D2D0043757272656E7420C2
:1010F0006C6F676765722074696D65206973002D78
:101100002D2D2D2D2D2D2D2D2D2D2D2D2D2D2D2D0F
:101110002D2D2D2D2D2D2D2D2D2D2D2D2D2D2D2DFF
:101120002D2D2D2D2D2D2D2D2D00456E74657269C3
:101130006E672073656E736F722074657374696E69
:1011400067206D6F6465002D2D2D2D2D2D2D2D2DDE
:101150002D2D2D2D2D2D2D2D2D2D2D2D2D2D2D2DBF
:101160002D2D2D2D2D2D2D2D2D2D2D2D2D2D2D2DAF
:101170002D002D3E00416C6C207661726961626CBD
:101180006520555549442773206170706561722050
:10119000746F20626520636F72726563746C79206E
:1011A000666F726D65642E0A006861732061206E3F
:1011B0006F6E2D756E697175652055554944210016
:1011C00068617320616E20696E76616C6964205578
:1011D00055494421004C6F6767657220706F7274C7
:1011E000696F6E206F662073657475702066696E16
:1011F00069736865642E0A0053616D706C696E676F
:10120000206665617475726520555549442069737F
:101210003A006172652063616C63756C617465642A
:101220002E0073656E736F727320616E6400636F5E
:101230006D652066726F6D007661726961626C65C2
:10124000732C206F6620776869636800546869733F
:10125000206C6F676765722068617320612076611A
:10126000726961626C65206172726179207769745C
:10127000680043757272656E74205254432074691D
:101280006D652069733A0050696E004D5900456ED6
:101290007669726F794449595075626C69736865F3
:1012A0007220675153200027006465737A714E6580
:1012B0007874436820316572726F723A006D532002
:1012C00054696D656F757400776169746564200099
:1012D0002D2D20526573706F6E736520436F6465AA
:1012E000202D2D000A202D2D20556E61626C652069
:1012F000746F2045737461626C69736820436F6E0C
:101300006E656374696F6E20746F20456E766972C6
:101310006F444959204461746120506F7274616C4C
:10132000202D2D005F4368616E6E656C0041445353
:10133000313131355F307800646174615075626CB1
:1013400069736865724261736520675153206368F1
:1013500065636B002D2D2D2D2D205741524E494E8A
:1013600047202D2D2D2D2D2021212121212121210D
:1013700021212121212121212121212100426164DA
:101380002074696D65200021212121212121212145
:101390002121212121212121212121202D2D2D2D0E
:1013A0002D205741524E494E47202D2D2D2D2D20B9
:1013B000003A3030003A3030003A3030003A3030C5
:1013C0000000002200250028002B0000000000047F
:1013D000030807000000010200090A0000000000E5
:1013E00000000000000000000000004944004545E6
:1013F00000504B004552524F520D004F4B0D0045CF
:1014000045004442004C4D00255600212121212158
:1014100021212121212121212121212121212120BD
:101420002D2D2D2D2D205741524E494E47202D2D2B
:101430002D2D2D200021212121212121212121209B
:101440002D2D2D2D2D205741524E494E47202D2D0B
:101450002D2D2D2021212121212121212121002D6E
:101460002D2D2D2D205741524E494E47202D2D2DEB
:101470002D2D202121212121212121212121212145
:101480002121212121212100546865206375727278
:10149000656E7420636C6F636B2074696D65737423
:1014A000616D70206973206E6F742076616C696461
:1014B000210021212121212121212121212121213D
:1014C000212121212121202D2D2D2D2D205741524B
:1014D0004E494E47202D2D2D2D2D2000212121213B
:1014E000212121212121202D2D2D2D2D205741522B
:1014F0004E494E47202D2D2D2D2D202121212121FA
:101500002121212121002D2D2D2D2D205741524EFD
:10151000494E47202D2D2D2D2D2021212121212106
:101520002121212121212121212121212121002DC0
:101530002D2D2D5C2F000A205C2F2D2D2D2D204CC4
:10154000696E6520536176656420746F00556E6125
:10155000626C6520746F20777269746520746F20E7
:101560005344206361726421002D2D2D2D2D2D2DCE
:101570002D2D2D2D2D2D2D2D2D2D2D2D2D2D2D2D9B
:101580002D2D2D2D2D2D2D2D2D2D2D2D2D2D2D2D8B
:101590002D2D2D0A002D2D2D2D2D2D2D2D2D2D2DCB
:1015A0002D2D2D2D2D2D2D2D2D2D2D2D2D2D2D2D6B
:1015B0002D2D2D2D2D2D2D2D2D2D2D2D2D2D2D0088
:1015C0004932435F3078363800616E6C674563207E
:1015D00050726F6320446174612F507772006461B0
:1015E00074615075626C69736865724261736520DD
:1015F0007365745175656420636865636B0045525B
:10160000524F5221204E6F2077656220636C6965CE
:101610006E742061737369676E656420746F2070E7
:1016200075626C697368206461746121001F1C1FFE
:101630001E1F1E1F1F1E1F1E1F4349007365745669
:10164000617255554944206572726F72202D206E6B
:101650006577206469646E277420776F726B2066EB
:101660006F720027002720736E3A2700207265767C
:101670003A2700426F6172643A2000204D6F647512
:101680006C617253656E736F72732076657273202E
:10169000005377204275696C643A20002020426133
:1016A0007474657279547970653A200020547A3ADE
:1016B000200020204C6F6767696E67496E74657201
:1016C00076616C20286D696E293A20004C6F636149
:1016D00074696F6E3A20004461746520616E642005
:1016E00054696D6520696E205554430052657375C9
:1016F0006C7420555549443A00526573756C7420DA
:10170000556E69743A005661726961626C65204E6B
:10171000616D653A0053656E736F72204E616D6541
:101720003A0053616D706C696E672046656174752F
:10173000726520555549443A200044617461204C3B
:101740006F676765722046696C653A200044617472
:1017500061204C6F676765723A20004461746120B4
:1017600077696C6C206E6F7420626520736176659A
:10177000642100536C6176652F436869702073653E
:101780006C6563742070696E20666F72205344200C
:101790006361726420686173206E6F742062656596
:1017A0006E207365742E00446174612077696C6CDF
:1017B000206E6F7420626520736176656421004538
:1017C00072726F723A2053442063617264206661C2
:1017D000696C656420746F20696E697469616C69F5
:1017E0007A65206F72206973206D697373696E6703
:1017F0002E004552524F52004F4400544D00544D5C
:1018000000444500444C00495000435436340047DE
:10181000543634004552524F520D004F4B0D00418B
:1018200050300000002000230026002900000102A3
:101830000304050607000102030405060700010270
:101840000304050607000102030405060704040457
:10185000040404040402020202020202020303035B
:10186000030303030301010101010101010102045A
:10187000081020408001020408102040800102046A
:101880000810204080010204081020408000002140
:1018900000240027002A00002882F38911241FBE9B
:1018A000CFEFD0E4DEBFCDBF17E0A0E0B1E0E2E3D0
:1018B000FBE201E00BBF02C007900D92A23CB10712
:1018C000D9F726E1A2ECB7E001C01D92A73BB20711
:1018D000E1F71CE0CDE4DCE004C02197FE010E94AA
:1018E0005792CC34D107C9F70E94B27A0C948C95E8
:1018F0000C940000DC01ED91FC910688F789E02D45
:10190000099591E0811101C090E0892F08950F930E
:101910001F93CF93DF9300D000D000D0CDB7DEB7B8
:101920008C01DC01ED91FC910084F185E02D09959D
:10193000892BC9F41B821C821D821E82D8011C9631
:10194000ED91FC911D9745855685678570898B8142
:101950009C81AD81BE81481759076A077B0729F032
:10196000F801858903C081E001C080E026960FB6AA
:10197000F894DEBF0FBECDBFDF91CF911F910F91C5
:101980000895DC011C96ED91FC911D978081918159
:10199000DC01ED91FC910680F781E02D0994DC01DA
:1019A0001C96ED91FC911D9780819181DC01ED9158
:1019B000FC910484F585E02D0994CF93DF931F9269
:1019C000CDB7DEB76983DC01ED91FC910280F38134
:1019D000E02D41E050E0BE016F5F7F4F09950F9011
:1019E000DF91CF9108950F931F93CF93DF9300D092
:1019F00000D000D0CDB7DEB7DC01ED91FC91048CB6
:101A0000F58DE02D23E033E03A832983DB01129644
:101A10000D911D912D913C9115970B831C832D8366
:101A20003E8320E030E0BE016F5F7F4F0995269630
:101A30000FB6F894DEBF0FBECDBFDF91CF911F91DF
:101A40000F910895DC01ED91FC91028CF38DE02D56
:101A50002BE430E00994809185158111FCCF089525
:101A6000809189158F5F843408F080E0909188150B
:101A70009817E1F32FB7F89490918515992341F0C9
:101A8000E82FF0E0E15CFA4E6083809389151DC079
:101A900081E080938515609384151092831582E010
:101AA00086BB80916F00826080936F008091800080
:101AB0008F7B806880938000809184009091850066
:101AC000409690938900809388002FBF81E090E03A
:101AD0000895FC01848583FF0DC084A195A1A6A172
:101AE000B7A1448D558D668D778D841B950BA60B04
:101AF000B70B03C080E090E0DC01811520E892077D
:101B0000A105B10520F08FEF9FE7A0E0B0E00895B8
:101B100080E090E00895CF93DF93EC0162E070E005
:101B200080E090E00E94227AEC85FD8580819181A1
:101B3000DC01ED91FC910284F385E02DDF91CF91E2
:101B40000994CF93DF93EC0162E070E080E090E0D5
:101B50000E94227AEC85FD8580819181DC01ED91E6
:101B6000FC910084F185E02DDF91CF910994CF9213
:101B7000DF92EF92FF920F931F93CF93DF938C012D
:101B8000D62FC72F6A0162E070E080E090E00E94EB
:101B9000227AD8011C96ED91FC911D97E080F1808E
:101BA0000D2F1C2FC0E0D0E0CC16DD0651F0C70190
:101BB0000E94577297FD05C0F80181938F0121960D
:101BC000F3CFCE01DF91CF911F910F91FF90EF9056
:101BD000DF90CF900895EF92FF920F931F93CF93D2
:101BE000DF93EC018B017A0162E070E080E090E02D
:101BF0000E94227AA701B8018C859D85DF91CF9143
:101C00001F910F91FF90EF900C94296DCF92DF926E
:101C1000EF92FF920F931F93CF93DF9300D000D0EA
:101C200000D0CDB7DEB78C016B017A01FC01848551
:101C300095850E948067F801268583E093E09A836A
:101C40008983F60182819381A481B5818B839C83F2
:101C5000AD83BE83A701BE016F5F7F4FF80184850E
:101C600095850E94426AF801858B90E026960FB612
:101C7000F894DEBF0FBECDBFDF91CF911F910F91C2
:101C8000FF90EF90DF90CF9008950C960C94455AFA
:101C90008F929F92AF92BF92CF92DF92EF92FF927C
:101CA0000F931F93CF93DF931F92CDB7DEB78C01B5
:101CB000FC01848C958CA68CB78CC08CD18CE28C6A
:101CC000F38CBE016F5F7F4F0C960E946C59019799
:101CD00019F4898190E002C08FEF9FEF8F3FFFEFF3
:101CE0009F0749F0F801848E958EA68EB78EC08E20
:101CF000D18EE28EF38E0F90DF91CF911F910F91D5
:101D0000FF90EF90DF90CF90BF90AF909F908F901B
:101D10000895CF93DF931F92CDB7DEB7BE016F5FFB
:101D20007F4F0C960E946C59019719F4898190E0BD
:101D300002C08FEF9FEF0F90DF91CF9108950C9627
:101D40000C946465CF93DF93EC0167E976E00E9421
:101D5000956848EE53E060E070E0CE010E94771590
:101D60008F3F910589F464E976E0CE010E94956881
:101D700048EE53E060E070E0CE010E9477158F3F9F
:101D8000910511F480E090E099878887DF91CF91E9
:101D90000895CF93DF93EC0161E976E00E949568A6
:101DA00044E158E16BE178E1CE010E946B5E1BA239
:101DB000DF91CF910895CF93DF93EC016EE876E049
:101DC0000E94956844E158E16BE178E1CE010E9400
:101DD0006B5E813079F46BE876E0CE010E94956805
:101DE00044E158E16BE178E1CE010E946B5E91E045
:101DF000813009F090E0892FDF91CF9108958F9283
:101E00009F92AF92BF92DF92EF92FF920F931F9338
:101E1000CF93DF93EC01D62E1BA1112391F00E94EA
:101E20005C7A8CA09DA0AEA0BFA0DC01CB0188197C
:101E30009909AA09BB0980319742A105B10508F4A7
:101E400054C0CE010E94806784E0F82EE12CDE149D
:101E500009F44AC06E817F81665F7F4F072E000CB8
:101E6000880B990B0E94227A67E876E08881998135
:101E70000E945F734E815F81440F551F052E000C39
:101E8000660B770B04E118E12BE138E1CE010E94EB
:101E9000295E182F81111BC0FA94F11018C08A8591
:101EA00087FD0DC060E00E949D4961E070E080E028
:101EB00090E00E94227A61E08A850E949D496AEF43
:101EC00070E080E090E00E94227A94E0F92EE394A2
:101ED000113009F0BCCF1BA30E945C7A6CA37DA3D8
:101EE0008EA39FA311E001C010E0812FDF91CF915D
:101EF0001F910F91FF90EF90DF90BF90AF909F9058
:101F00008F9008958F929F92AF92BF92FF920F93FE
:101F10001F93CF93DF93EC01FBA0FF2021F08BA157
:101F2000882331F008C065E00E94FF0E8111F7CFD1
:101F300084E090E0FEC088859985892B19F4CE0154
:101F40000E94A20E64E876E0CE010E94956840E10E
:101F500057E260E070E0CE010E9477152885398550
:101F60002130364009F0A8C08332910509F4D7C06A
:101F70005CF4833091052CF4813091050CF4A6C0FB
:101F8000B9C0439789F0C9C0833491050CF0AFC044
:101F9000803491050CF0AEC08432910509F4ACC0D8
:101FA000879709F4A9C0B9C065E0CE010E94FF0E71
:101FB000882309F4B4C088859985892B19F4CE014A
:101FC0000E94A20E8885998581309640B9F068E715
:101FD00076E0CE010E94956844E158E16BE178E13A
:101FE000CE010E946B5E813021F0CE010E94C90EAD
:101FF00096C0CE010E94DB0E8823B9F365E776E038
:10200000CE010E94956844E158E16BE178E1CE0190
:102010000E946B5E813049F71BA2888599858130CB
:10202000964029F460ED77E080E090E004C064E63B
:1020300070E080E090E00E94227A0E945C7A4B017E
:102040005C010E945C7ADC01CB0188199909AA091C
:10205000BB0980369A4EA105B10568F461E0CE0156
:102060000E94FF0E811107C06AEF70E080E090E0EF
:102070000E94227AE6CF8885998581309640A9F022
:1020800061E776E0CE010E94956844E158E16BE19A
:1020900078E1CE010E946B5E813009F0A6CFCE01BF
:1020A0000E94DB0E882309F4A0CFCE010E94C90E46
:1020B000CE010E94EF6833C085329105E9F04CF4FF
:1020C0008432910554F582329105A4F4892B49F1AB
:1020D00024C08D32910544F48B329105F4F48A9733
:1020E000E1F460E876E00CC08F32910539F08F3F63
:1020F000910599F402E016C003E014C06CE776E0A5
:10210000CE010E94956844E158E16BE178E1CE018F
:102110000E946B5ECE010E94DB0E04E003C001E072
:1021200001C000E010E0F11003C0CE010E94C90E12
:10213000C801DF91CF911F910F91FF90BF90AF9099
:102140009F908F9008951F920F920FB60F921124B7
:102150000BB60F922F933F934F935F936F937F93A1
:102160008F939F93AF93BF93CF93EF93FF9329B137
:10217000C091EC158091341690913016322F309525
:1021800093238223892B90917300C227C923C823EC
:102190002093EC15CC23C1F1C0FF05C0E091ED15F3
:1021A000F091EE150995C1FF05C0E091EF15F09192
:1021B000F0150995C2FF05C0E091F115F091F215F7
:1021C0000995C3FF05C0E091F315F091F415099549
:1021D000C4FF05C0E091F515F091F6150995C5FF0E
:1021E00005C0E091F715F091F8150995C6FF05C0F7
:1021F000E091F915F091FA150995C7FF05C0E09136
:10220000FB15F091FC150995FF91EF91CF91BF91CE
:10221000AF919F918F917F916F915F914F913F917E
:102220002F910F900BBE0F900FBE0F901F9018951F
:102230001F920F920FB60F9211240BB60F922F938D
:102240003F934F935F936F937F938F939F93AF933E
:10225000BF93CF93EF93FF9326B1C091FD1580916B
:10226000351690913116322F309593238223892B86
:1022700090916D00C227C923C8232093FD15CC235C
:10228000C1F1C0FF05C0E091FE15F091FF15099561
:10229000C1FF05C0E0910016F09101160995C2FF3B
:1022A00005C0E0910216F09103160995C3FF05C021
:1022B000E0910416F09105160995C4FF05C0E09160
:1022C0000616F09107160995C5FF05C0E09108169E
:1022D000F09109160995C6FF05C0E0910A16F09124
:1022E0000B160995C7FF05C0E0910C16F0910D166D
:1022F0000995FF91EF91CF91BF91AF919F918F91F0
:102300007F916F915F914F913F912F910F900BBEF5
:102310000F900FBE0F901F9018951F920F920FB63F
:102320000F9211240BB60F922F933F934F935F930D
:102330006F937F938F939F93AF93BF93CF93EF93BD
:10234000FF9323B1C0910E168091361690913216EC
:10235000322F309593238223892B90916C00C227D2
:10236000C923C82320930E16CC23C1F1C0FF05C09A
:10237000E0910F16F09110160995C1FF05C0E0918C
:102380001116F09112160995C2FF05C0E0911316BF
:10239000F09114160995C3FF05C0E0911516F09150
:1023A00016160995C4FF05C0E0911716F09118168E
:1023B0000995C5FF05C0E0911916F0911A16099507
:1023C000C6FF05C0E0911B16F0911C160995C7FFCA
:1023D00005C0E0911D16F0911E160995FF91EF9131
:1023E000CF91BF91AF919F918F917F916F915F91AD
:1023F0004F913F912F910F900BBE0F900FBE0F90FA
:102400001F9018951F920F920FB60F9211240BB6C2
:102410000F922F933F934F935F936F937F938F937D
:102420009F93AF93BF93CF93EF93FF9320B1C0914E
:102430001F168091371690913316322F30959323C3
:102440008223892B90916B00C227C923C823209334
:102450001F16CC23C1F1C0FF05C0E0912016F091FA
:1024600021160995C1FF05C0E0912216F0912316AF
:102470000995C2FF05C0E0912416F0912516099533
:10248000C3FF05C0E0912616F09127160995C4FFF9
:1024900005C0E0912816F09129160995C5FF05C0E1
:1024A000E0912A16F0912B160995C6FF05C0E09120
:1024B0002C16F0912D160995C7FF05C0E0912E1638
:1024C000F0912F160995FF91EF91CF91BF91AF91A8
:1024D0009F918F917F916F915F914F913F912F913C
:1024E0000F900BBE0F900FBE0F901F9018951F926C
:1024F0000F920FB60F9211240BB60F922F933F93AA
:102500004F935F936F937F938F939F93AF93BF93FB
:10251000EF93FF93E091EA15F091EB150995FF9188
:10252000EF91BF91AF919F918F917F916F915F914B
:102530004F913F912F910F900BBE0F900FBE0F90B8
:102540001F9018951F920F920FB60F9211240BB681
:102550000F922F933F934F935F936F937F938F933C
:102560009F93AF93BF93EF93FF93E091E815F091A2
:10257000E9150995FF91EF91BF91AF919F918F91CF
:102580007F916F915F914F913F912F910F900BBE73
:102590000F900FBE0F901F9018951F920F920FB6BD
:1025A0000F9211240BB60F922F933F934F935F938B
:1025B0006F937F938F939F93AF93BF93EF93FF930B
:1025C000E091E615F091E7150995FF91EF91BF9124
:1025D000AF919F918F917F916F915F914F913F91BB
:1025E0002F910F900BBE0F900FBE0F901F9018955C
:1025F000BF92CF92DF92EF92FF920F931F93CF93F0
:10260000DF93CDB7DEB72C970FB6F894DEBF0FBEC1
:10261000CDBF6C01FC01848595850E948067F60121
:10262000E484F584C7010E948067F701178E10A229
:1026300011A212A2B3A0BB2041F16EE676E0C70161
:102640000E94956828E833E140E050E0B701CE01F0
:1026500007960E942D15F70180859185813096405F
:10266000D9F46AE676E0C7010E94956804E118E1B2
:102670002BE138E148E853E160E070E0C7010E94D7
:10268000295EC7010E94DB0E07C065E0C7010E94FA
:10269000FF0E8111D2CF2AC0BE01695F7F4FCE01EC
:1026A00001960E94F471AE014F5F5F4F67E676E0DE
:1026B000C7010E94D269CE0101960E948A7104E18D
:1026C00018E12BE138E148E853E160E070E0C70130
:1026D0000E94295EC7010E94DB0EB11003C0C70132
:1026E0000E94C90ECE0107960E948A71F601848568
:1026F00095850E948067F601158A2C960FB6F8948E
:10270000DEBF0FBECDBFDF91CF911F910F91FF9024
:10271000EF90DF90CF90BF9008952F923F924F920D
:102720005F926F927F928F929F92AF92BF92CF9261
:10273000DF92EF92FF920F931F93CF93DF93CDB76A
:10274000DEB762970FB6F894DEBF0FBECDBF9E878F
:102750008D876B015A8B498B3901DC011C968D9159
:102760009C911D970E948067ED85FE85F685FF8709
:10277000AD85BE851C960D911C911D97F80133A067
:102780003320A9F0B601CE0101967C010E94FD71B3
:10279000580191E1A90EB11CB701C5010E94FD6F5E
:1027A000982EC7010E948A71911022C007C065E06F
:1027B000C8010E94FF0E8111E5CF09C1B601C70112
:1027C0000E94FD71EA14FB0421F0B701C5010E94CB
:1027D0000E70C7010E948A71D80159961C925997B0
:1027E0005A961C925A975B961C925B975C961C9229
:1027F0001B821C821D821E82F801418D528D638DC9
:10280000748D8B819C81AD81BE81481759076A0701
:102810007B0709F0ABC06AEB76E0CE0107960E9419
:10282000FD7160E170E0CE0107960E9448700E9441
:102830005C7A4B015C0128EE33E0D3010E94609288
:102840002B013C01D80193962C9021105DC065E0CE
:10285000C8010E94FF0E811157C083E093E09A8364
:1028600089831B821C821D821E8273C00E945C7A37
:10287000DC01CB0188199909AA09BB0984159505C2
:10288000A605B70590F462E070E080E090E00E9459
:10289000227AF80180819181DC01ED91FC91008424
:1028A000F185E02D099504970CF3F80160817181A1
:1028B000C7010E94785EB701CE0107960E940E7094
:1028C000C7010E948A71CE0107960E946D6FCE01EA
:1028D00007960E941759811111C06EE576E0C70175
:1028E0000E94BC71B701CE0107960E94FD6F888BD4
:1028F000C7010E948A71B889BB23D9F064EC79E0E2
:1029000080E090E00E94227A0E945C7ADC01CB0198
:1029100088199909AA09BB0984159505A605B70563
:1029200008F073C0A60164E676E0C8010E9423683F
:10293000B0CF211008C0DD24D394C8010E94C90E75
:10294000DD2009F48ACFBE01695F7F4FC7010E9475
:10295000A167CE0107960E948A718B819C81AD810F
:10296000BE81F801818F928FA38FB48FD8015996C1
:102970004D915D916D917C915C971B821C821D82B3
:102980001E828B819C81AD81BE81481759076A07E1
:102990007B07B1F083E093E09A838983F801818D0E
:1029A000928DA38DB48D8B839C83AD83BE832F8545
:1029B00049895A89B701C8010E94426AF82E01C0AC
:1029C000F12C311003C0C8010E94C90E8F2DAD85B6
:1029D000BE8555968C9390E062960FB6F894DEBF54
:1029E0000FBECDBFDF91CF911F910F91FF90EF9060
:1029F000DF90CF90BF90AF909F908F907F906F901F
:102A00005F904F903F902F900895211026CFD12CAA
:102A100094CF680F791F20E030E086179707D9F030
:102A2000FC014191CF012427422F42954227042ED9
:102A3000469546954025042E469540254770022E22
:102A4000232F469507944795302D242706944795C4
:102A500030252427E2CFC90108958F929F92AF922B
:102A6000BF92CF92DF92EF92FF920F931F93CF937B
:102A7000DF93EC018B0169017A0162E070E080E094
:102A800090E00E94227A0E945C7A4B015C01D8019E
:102A90008D919C91DC01ED91FC910084F185E02DFC
:102AA0000995892B69F40E945C7ADC01CB018819B5
:102AB0009909AA09BB098C159D05AE05BF0538F318
:102AC000F80160817181CE010E94785ECE010E9482
:102AD0006D6FCE01DF91CF911F910F91FF90EF901D
:102AE000DF90CF90BF90AF909F908F900895CF923E
:102AF000DF92EF92FF920F931F93CF93DF93CDB7A7
:102B0000DEB72B970FB6F894DEBF0FBECDBF9A018C
:102B1000AB01BC01CE0101960E942D15CE0101969C
:102B20000E941759882331F061EF75E0CE010196BC
:102B30000E945C718E01095F1F4F85E0F8011192C0
:102B40008A95E9F745E050E0B801CE0101960E9470
:102B5000755C40E150E060E070E0C8010E94618B6C
:102B60006B017C01CE0101960E948A71C6012B96F1
:102B70000FB6F894DEBF0FBECDBFDF91CF911F918E
:102B80000F91FF90EF90DF90CF9008958F929F92DA
:102B9000AF92BF92CF92DF92EF92FF920F931F936B
:102BA000CF93DF9300D000D000D0CDB7DEB76C015B
:102BB0007B018A011092B2161092B1166DEB7EE085
:102BC0000E94C38D892B09F051C06AEA7EE0C701DB
:102BD0000E94C38D892B71F4B80183EF98E00E94A5
:102BE0004C9564E87EE08BE499E00E945F7363EFAC
:102BF00078E050C56BE77EE0C7010E94C38D892B4A
:102C000071F4B8018DEC98E00E944C9560E67EE08E
:102C10008BE499E00E945F736DEC78E03BC56FE454
:102C20007EE0C7010E94C38D892B71F4B80189E150
:102C300099E00E944C956CE27EE08BE499E00E9462
:102C40005F7369E179E026C564E17EE08BE499E099
:102C50000E945F73B7018BE499E00E943D7369E0C5
:102C600076E08BE499E00E943D7313C56EE07EE050
:102C7000C6010E94C38D892B09F0ADC06DE07EE0D6
:102C80008BE499E00E945F73609105128BE499E0F8
:102C90000E94557468E877E08BE499E00E943D73E8
:102CA000B7018BE499E00E943D736AE07EE08BE41B
:102CB00099E00E945F73B8018BE499E00E943D7334
:102CC000D12CAD2CB12CC501880F991F9C012D531F
:102CD000324F5901D901ED91FC9161897289CE0180
:102CE00001960E94FD71B70189819A810E944395E6
:102CF0004C01CE0101960E948A71892869F4F50180
:102D000080819181DC0152961C930E935197B801FA
:102D10000E94A95C55E0D52ED394B4E0BD1588F689
:102D2000E5E0DE1619F068EF7DE04BC062EF7DE074
:102D3000C7010E94C38D892B09F041C08091051203
:102D400090E00597CCF564EE7DE08BE499E00E947D
:102D50005F73E0910512F0E0EE0FFF1FED53F24FAD
:102D60000190F081E02D61897289CE0101960E9467
:102D7000FD71BE016F5F7F4F8BE499E00E943F734E
:102D8000CE0101960E948A7162EE7DE08BE499E0AB
:102D90000E948373E0910512F0E0EE0FFF1FED53E8
:102DA000F24F80819181DC0152961C930E935197D2
:102DB000B8010E94A95C09C06AEC7DE002C065EB25
:102DC0007DE08BE499E00E948373809105128F5F10
:102DD0008093051263C46EEA7DE0C6010E94C38D34
:102DE000892B09F042C164EA7DE0C7010E94C38DCE
:102DF000892BB9F46EE87DE08BE499E00E945F7363
:102E0000B8018BE499E00E94D472B80188E198E09F
:102E10000E944C9588E198E09093FD098093FC090D
:102E20003DC465E77DE0C7010E94C38D892B09F091
:102E30006AC04AE050E0BE016F5F7F4FC8010E9448
:102E40008F8C6B017C0116161706180619060CF0FC
:102E50004BC08091B1169091B216829709F444C08C
:102E6000B9E6CB16B1E0DB06E104F104ECF060E476
:102E70007DE08BE499E00E945F7368E671E08BE48B
:102E800099E00E94A07463E27DE08BE499E00E94E7
:102E90005F73C701B6010E94975C28E6C22EDD244D
:102EA000D394E12CF12C17C06AEF7CE08BE499E01D
:102EB0000E945F73B701A6018BE499E00E946E74D3
:102EC00066EE7CE08BE499E00E945F736FE08BE438
:102ED00099E00E945C74D092FF09C092FE09D092E2
:102EE0001508C0921408DAC367EC7CE08BE499E023
:102EF0000E945F7368E671E08BE499E00E94A07421
:102F00006AEB7CE082C26DEA7CE0C7010E94C38D5F
:102F1000892B29F54AE050E0BE016F5F7F4FC80161
:102F20000E948F8C6B017C01DC01CB010197A10910
:102F3000B1090497A105B10578F48091B11690917B
:102F4000B216829749F0D0927911C0927811C0924E
:102F5000170867E97CE059C26EE67CE056C263E67A
:102F60007CE0C7010E94C38D892B09F54AE050E03F
:102F7000BE016F5F7F4FC8010E948F8C6B017C0187
:102F8000653071058105910578F48091B1169091B5
:102F9000B216829749F0D0927911C0927811C092FE
:102FA00017086FE47CE031C266E27CE02EC26CE17F
:102FB0007CE0C7010E94C38D892B29F54AE050E0CF
:102FC000BE016F5F7F4FC8010E94618B6B017C0166
:102FD000DC01CB010C96A11DB11D4997A105B105DE
:102FE00078F48091B1169091B216829749F066E01C
:102FF0007CE08BE499E00E945F73C092160809C2DE
:1030000063ED7BE002C263EC7BE0C7010E94C38DED
:10301000892BE9F462EB7BE08BE499E00E945F731B
:10302000B8018BE499E00E94D472F801019000206D
:10303000E9F73197E01BF10BFC9718F0D801DD960A
:103040001C92B8018DE298E00E944C9527C366EA75
:103050007BE08BE499E00E945F73B7018BE499E019
:103060000E943D7361EA7BE010C369E97BE0C60121
:103070000E94C38D892B71F46CE87BE08BE499E0AE
:103080000E945F73B7018BE499E00E943D7367E88B
:103090007BE0FBC26FE77BE0C6010E94C38D892BFA
:1030A00009F0CAC168E77BE0C7010E94C38D892B84
:1030B00009F068C062E67BE08BE499E00E945F73F0
:1030C0006091AB0F7091AC0FCE0101960E94FD7123
:1030D000BE016F5F7F4F8BE499E00E943F73CE018A
:1030E00001960E948A71F80101900020E9F731975A
:1030F0007F01E01AF10A8E2D1093AC0F0093AB0FF5
:10310000813250F06E2D86EF96E00E94C839F801AA
:10311000EE0DF11D108280E22091AF0F3091B00FC3
:10312000232B49F490E002960E94408A9093B00FBE
:103130008093AF0F04C084EC96E00E94DD5680912E
:10314000AF0F9091B00F009739F460E070E08AE91A
:1031500096E00E94B4390BC0B8010E944C95809152
:10316000AF0F9091B00F9093AC0F8093AB0F6AE5C7
:103170007BE08BE499E00E945F736091AB0F7091EC
:10318000AC0F6FC062E57BE0C7010E94C38D892B45
:1031900009F077C06BE37BE08BE499E00E945F73FA
:1031A0006091AD0F7091AE0FCE0101960E94FD713E
:1031B000BE016F5F7F4F8BE499E00E943F73CE01A9
:1031C00001960E948A71F80101900020E9F7319779
:1031D0007F01E01AF10A8E2D1093AE0F0093AD0F10
:1031E000803450F06E2D85E897E00E94C839F801D0
:1031F000EE0DF11D10828FE32091B10F3091B20FCF
:10320000232B49F490E002960E94408A9093B20FDB
:103210008093B10F04C082E597E00E94DD56809153
:10322000B10F9091B20F009739F460E070E087E23F
:1032300097E00E94B4390BC0B8010E944C95809170
:10324000B10F9091B20F9093AE0F8093AD0F63E3E7
:103250007BE08BE499E00E945F736091AD0F709109
:10326000AE0FCE0101960E94FD71BE016F5F7F4FD0
:103270008BE499E00E943F73CE0101960E948A710F
:10328000E9C160E27BE0C7010E94C38D892B49F54B
:103290004AE050E0BE016F5F7F4FC8010E94618B22
:1032A0006B017C01DC01CB0184569109A109B109B4
:1032B0008D3C9447A105B10588F48091B116909199
:1032C000B216829759F06FEF7AE08BE499E00E9492
:1032D0005F73D0920201C09201019BC060EC7AE062
:1032E00094C06DEA7AE0C7010E94C38D892BD9F49E
:1032F0004AE050E0BE016F5F7F4FC8010E94618BC2
:103300006B017C01693873418105910548F4809116
:10331000B1169091B216829719F06DE87AE075C0F7
:1033200061E57AE072C064E47AE0C7010E94C38D6F
:10333000892BD9F44AE050E0BE016F5F7F4FC8018E
:103340000E94618B6B017C016333710581059105DE
:1033500048F48091B1169091B216829719F06AE202
:103360007AE053C066EF79E050C065EE79E0C701BE
:103370000E94C38D892B09F54AE050E0BE016F5FC2
:103380007F4FC8010E94618B6B017C016F31710519
:103390008105910578F48091B1169091B2168297CB
:1033A00049F067EC79E08BE499E00E945F73C0928A
:1033B00000012FC06FE879E028C06FE779E0C7010E
:1033C0000E94C38D892B51F54AE050E0BE016F5F2A
:1033D0007F4FC8010E94618B6B017C018FE1C81691
:1033E000D104E104F10478F48091B1169091B21601
:1033F000829749F062E679E08BE499E00E945F737E
:10340000C092C40706C06BE279E08BE499E00E94A9
:103410005F73C701B6010E94975C40C16EE179E01D
:103420008BE499E00E945F73B7018BE499E00E94FE
:103430003D7369E179E029C164E179E0C6010E9448
:10344000C38D892B09F0ABC069E079E0C7010E9408
:10345000C38D892BD1F4F80101900020E9F7319751
:10346000E01BF10B749718F0D80155961C92B80127
:1034700088EC97E00E944C956DEF78E08BE499E042
:103480000E945F7368EC77E005C164EF78E0C701E4
:103490000E94C38D892BC9F4F80101900020E9F73F
:1034A0003197E01BF10B749710F0F801158AB80101
:1034B0008DED97E00E944C9562EE78E08BE499E008
:1034C0000E945F736DED77E0E5C068ED78E0C701BD
:1034D0000E94C38D892BD1F4F80101900020E9F7F7
:1034E0003197E01BF10B3A9718F0D8011B961C920C
:1034F000B80182EF97E00E944C956DEC78E08BE488
:1035000099E00E945F7362EF77E0C4C060EC78E0FE
:10351000C7010E94C38D892BA1F56CEB78E0C8012F
:103520000E94C38D892B51F566EA78E08BE499E01F
:103530000E94837367E470E087EC97E00E940915AE
:103540009093C6078093C50795ECE92E97E0F92E76
:1035500000E010E0F701D1907F01C8010E94A29124
:10356000D81621F06D2DC8010E94AA910F5F1F4F40
:103570000934110579F760E978E05CC06CE678E021
:1035800060C062E678E08BE499E00E945F73B70167
:103590008BE499E00E943D736DE578E076C068E5C4
:1035A00078E0C6010E94C38D892B09F056C061E501
:1035B00078E0C7010E94C38D892B09F06FC06BE4CE
:1035C00078E0C8010E94C38D892B59F56AE278E042
:1035D0008BE499E00E9483736FE271E080E198E0F0
:1035E0000E94091590930F0880930E088EE0E82E34
:1035F00088E0F82E09E410E0D701DD907D01C801D4
:103600000E94A291D81621F06D2DC8010E94AA91A6
:103610000F5F1F4F0A37B1E01B0771F764E178E0D5
:1036200009C06FE078E0C8010E94C38D892B39F48E
:1036300060EF77E08BE499E00E9483732FC06CEC1D
:1036400077E08BE499E00E945F73B8018BE499E026
:103650000E943D7364EF75E01DC06CEB77E08BE476
:1036600099E00E945F73B6018BE499E00E943D737C
:1036700069EB77E08BE499E00E948373B7018BE4F8
:1036800099E00E943D7367EB77E08BE499E00E943C
:103690005F73B8018BE499E00E94D47281E090E0FE
:1036A00026960FB6F894DEBF0FBECDBFDF91CF9147
:1036B0001F910F91FF90EF90DF90CF90BF90AF9050
:1036C0009F908F900895CF93DF93E901FB011082C3
:1036D000FA011082C2960E94D2469983888381E0C3
:1036E000DF91CF91089580E00895AF92BF92CF927D
:1036F000DF92FF920F931F93CF93DF93EC015B0157
:103700008A0181EF98EDFA0191838083FB01918317
:103710008083CE01C2960E940B47F82EC82E880FD8
:10372000DD08C65ADF4FCE010E94870C882319F0AE
:10373000CE010E94F812F501D182C082CD28B1F0ED
:103740006F2DFF0C770B880B990B0E9485902BEE49
:1037500032EE4EEC5FE30E94E49029E23CE946E35E
:1037600053E40E9471920E944F9302C060E070E0A7
:10377000F8017183608381E0DF91CF911F910F91F8
:10378000FF90DF90CF90BF90AF900895C2960C94B9
:10379000B1364F925F926F927F928F929F92AF92CB
:1037A000BF92CF92DF92EF92FF920F931F93CF932E
:1037B0008C012A013B017C0182E3E80EF11CC70168
:1037C0000E94B136C82F882311F0C1E048C05801CB
:1037D000E7EBAE0EB11C6801F5EBCF0ED11CF50185
:1037E00040815181F60160817181C7010E945A4771
:1037F0008823A9F3F801EB5AFF4F1081112329F018
:103800000E945C7A4B015C0112C065E0C7010E9416
:10381000FF0E8111F5CF23C0C7010E94B13681117F
:103820001AC06AEF70E080E090E00E94227A0E9465
:103830005C7ADC01CB0188199909AA09BB098415B6
:103840009505A605B70540F3111109C0C0E0C701F1
:103850000E94C90E04C01111B8CFC1E0F8CF8C2F5F
:10386000CF911F910F91FF90EF90DF90CF90BF907D
:10387000AF909F908F907F906F905F904F90089542
:103880003F924F925F926F927F928F929F92AF92F0
:10389000BF92CF92DF92EF92FF920F931F93CF933D
:1038A000DF93EC018AA19BA1ACA1BDA1892B8A2B3E
:1038B0008B2B39F4E881F9810084F185E02DCE016C
:1038C0000995E881F98100A0F1A1E02DCE010995CB
:1038D0000E945C7A0AA11BA12CA13DA1DC01CB01B5
:1038E000801B910BA20BB30B098D1A8D2B8D3C8D78
:1038F00080179107A207B30758F3E881F98102A462
:10390000F3A5E02DCE010995811107C0E881F98169
:1039100006A0F7A1E02DCE01099583E0382ECE0157
:10392000C2967C016E0195E5C90ED11C3A943320F4
:1039300029F18D8C9E8CAF8CB8A0A4EF8A0EA1E0EB
:103940009A1EA11CB11C0E945C7A2B013C010E94B2
:103950005C7ADC01CB0184199509A609B7098815A1
:103960009905AA05BB0508F447C0E881F9810088DC
:10397000F189E02DCE0109958111D8CF10E08AA9F7
:103980009BA9DC01ED91FC910084F185E02D099566
:10399000892B79F08AA99BA9DC01ED91FC91028425
:1039A000F385E02D099560E070E0CB010E94227A5A
:1039B000E6CF8AA5811109C0E881F9810480F581EB
:1039C000E02DCE010995182F04C0C7010E94EF68B1
:1039D0001823FE01E65AFF4FF586E4861686158AFF
:1039E000FDABECAB112309F44CC089A187FD49C0A4
:1039F00061E00E949D4945C0F601808181110BC0A4
:103A000065E0C7010E94FF0E182F882389F1C701C6
:103A10000E94C90E2DC00EA91FA966EF75E08AA9E4
:103A20009BA90E943D73B8018AA99BA90E943D737E
:103A30008AA99BA9DC01ED91FC910680F781E02D1C
:103A4000099560E070E0CB010E94227A04EF13E157
:103A50002BEF33E148EC50E060E070E0C7010E94DA
:103A6000295E813021F0F601108210E001C011E0E2
:103A70006AEF70E080E090E00E94227A11117FCF1F
:103A800066CF812FDF91CF911F910F91FF90EF9023
:103A9000DF90CF90BF90AF909F908F907F906F906E
:103AA0005F904F903F900895FF920F931F93CF9395
:103AB000DF938C01FC0185859685A785B089892BCC
:103AC0008A2B8B2B79F0838187FD3EC00E9474493D
:103AD00021E0892B09F420E081E0F8019481291389
:103AE00052C054C0F801C3850C2E000CDD0BFE0142
:103AF000E359F74EE4916E2F70E080E090E00E9471
:103B000083900E949293FE01E35BF74EE491F0E014
:103B1000EE0FFF1FED5DF74EA591B491CC91D0E073
:103B200028E132E741E35FE30E94DD920E944F9378
:103B300002C0D595C7956A95E2F7C17081E0F8019A
:103B40009485C91320C022C085E0F82EE801E296D2
:103B500066EC7EE0CE010E94956804EF13E12BEF46
:103B600033E144E650E060E070E0CE010E94295E5F
:103B7000813059F062E370E080E090E00E94227AA8
:103B8000FA94F110E5CF80E001C081E0DF91CF91A0
:103B90001F910F91FF9008952F923F924F925F9245
:103BA0006F927F928F929F92AF92BF92CF92DF924D
:103BB000EF92FF920F931F93CF93DF93CDB7DEB7B2
:103BC000C056D1090FB6F894DEBF0FBECDBF5C0161
:103BD000DC01ED91FC9102A0F3A1E02D0995882371
:103BE00009F4ECC06501BAE5CB0ED11CC6010E94F8
:103BF000F8126AEB76E0CE018B5A9F4F0E94FD715E
:103C0000FE0131964F01A4E64A2E512C612C712CF5
:103C1000A096EFAFA097A1969FAEA1971501F2E3F2
:103C20002F0E311C0E945C7AD50196960D911D9144
:103C30002D913C9199970056104F2F4F3F4F601791
:103C400071078207930770F388E4EDE8F3E0A0962C
:103C5000AFADA097A196BFADA19701900D928A95A7
:103C6000E1F7E3E0F3E06196FFAFEEAF6197F4E8D0
:103C70006296FFAF629723EA63962FAF639731E6B0
:103C800064963FAF649741E065964FAF65976FE3E9
:103C900070E1C1010E949568F4EFEF2EF3E1FF2E71
:103CA0000BEF13E19E012B5A3F4F40EA5FE060E0CB
:103CB00070E0C1010E94025DCE018B5A9F4F0E94AD
:103CC0006D6F6B968EAD9FAD6B9707970E9710F04B
:103CD000B40104C067966EAD7FAD6797CE01815B7E
:103CE0009F4F0E949F4683E093E02B969FAF8EAF3D
:103CF0002B9765968CAD9DADAEADBFAD65972F96FC
:103D00008CAF9DAFAEAFBFAF2F9745E250E0BE0185
:103D1000675B7F4FC6010E94F30C892BA9F1C30199
:103D2000B2010E94227A0E945C7A6F966CAF7DAFDE
:103D30008EAF9FAF6F9761E2C6010E94ED72C60120
:103D40000E947A0C8823C1F0C6010E94A10D04973D
:103D50009CF40E945C7ADC01CB016F962CAD3DADEA
:103D60004EAD5FAD6F97821B930BA40BB50B8838DC
:103D70009341A105B10518F3C6010E94A10D049756
:103D800014F5C6010E94F81284E6480E511C611C0D
:103D9000711C92E1890E911CA4EF4A16A1E05A060B
:103DA0006104710409F03ECFA12CB12CC12CD12C9F
:103DB000CE018B5A9F4F0E948A7159C0A12CB12C01
:103DC000C12CD12C54C02D961CAE1DAE1EAE1FAE04
:103DD0002D9744E050E0BE01675B7F4FC6010E9413
:103DE000B70DC6010E94F8122A968FAD2A9790E06F
:103DF000A0E0B0E0BA2FA92F982F88272B962FADDF
:103E00002B97820F911DA11DB11DBA2FA92F982F9D
:103E100088272C962FAD2C97820F911DA11DB11DC7
:103E20002D964FAD2D9750E060E070E040585E4712
:103E30006A4A7348BA2FA92F982F8827840F951F95
:103E4000A61FB71F80384DEA94074AE2A4074CE545
:103E5000B40708F4A9CF813858ED95075BEDA507A5
:103E600050E7B50708F0A0CF5C016D01A1CFB50107
:103E7000C601C05ADF4F0FB6F894DEBF0FBECDBFEC
:103E8000DF91CF911F910F91FF90EF90DF90CF9036
:103E9000BF90AF909F908F907F906F905F904F906A
:103EA0003F902F900895CF92DF92EF92FF920F9361
:103EB0001F93CF93DF93CDB7DEB72C970FB6F8944F
:103EC000DEBF0FBECDBF8C010E5C1F4F7C0125E510
:103ED000E20EF11CF701D080DD2029F0F701F0801F
:103EE000F1101CC00EC065E0C8010E94FF0E8111D8
:103EF000F5CFC12C9CE3D92E9CE1E92E96ECF92E4E
:103F000068C065E0C8010E94FF0E811107C06AEB1E
:103F100076E0CE0107960E94FD7124C067EC7EE03A
:103F2000C8010E94956828EE33E040E050E0B801F7
:103F3000CE0101960E942D15F11003C0C8010E9408
:103F4000C90E18861F821A8619861C861B86BE011A
:103F50006F5F7F4FCE0107960E940E70CE010196D3
:103F60000E948A71CE0107960E941759811126C0BE
:103F7000CE0101967C0185E0F70111928A95E9F75F
:103F800045E050E0B701CE0107960E94755C40E124
:103F900050E060E070E0C7010E94618BF62ED11006
:103FA00003C0C8010E94C90E6F2DFF0C770B880B50
:103FB000990B0E9485906B017C0107C0C12C8CE39A
:103FC000D82E8CE1E82E86ECF82ECE0107960E94C2
:103FD0008A71C701B6012C960FB6F894DEBF0FBEEA
:103FE000CDBFDF91CF911F910F91FF90EF90DF90A8
:103FF000CF9008952F923F924F925F926F927F924F
:104000008F929F92AF92BF92CF92DF92EF92FF92E8
:104010000F931F93CF93DF93CDB7DEB7C254D1096F
:104020000FB6F894DEBF0FBECDBF7C015C0122E36A
:10403000A20EB11CC5010E94EF68182FF701E65AC5
:10404000FF4FB586A4861686158AD701D596FC93B0
:10405000EE93D497DA966D917C91DB97FE013196C1
:104060006F01CF010E94BA3D4701FCE28F0E911C07
:10407000C814D90421F0B601C4010E940E70C60113
:104080000E948A7165E0C5010E94FF0E882309F431
:10409000EAC1C5010E94A20ED701DA966D917C910A
:1040A000DB97C6010E94BA3DC814D90421F0B601BD
:1040B000C4010E940E70C6010E948A71B401C6013B
:1040C0000E94F4714BE050E1B6018DE090E10E9456
:1040D000DC49C6010E948A7149EF55E068E070E151
:1040E000C5010E94236844EF53E16BEF73E1C50102
:1040F0000E946B5E41E050E065E070E1C5010E9406
:104100005C6844EF53E16BEF73E1C5010E946B5EA5
:1041100041E050E062E070E1C5010E945C6844EF5C
:1041200053E16BEF73E1C5010E946B5E41E050E02B
:104130006FEF7FE0C5010E945C6844EF53E16BEFD5
:1041400073E1C5010E946B5E41E050E06CEF7FE0DF
:10415000C5010E945C6844EF53E16BEF73E1C50158
:104160000E946B5E48EC50E069EF7FE0C5010E9461
:104170005C6844EF53E16BEF73E1C5010E946B5E35
:10418000F701E954FF4F408151813297608171817D
:10419000C5010E945A4740E450E066EF7FE0C50148
:1041A0000E945C6844EF53E16BEF73E1C5010E942C
:1041B0006B5E23968FAF2397C5010E94DB0E8E01A5
:1041C0000E5D1F4F6AEB76E0C8010E94FD718DEB1A
:1041D0009FE00E94DD560E945C7A1B012C01219613
:1041E0001FAE2197612C712CF02EE12E0E945C7A7B
:1041F000DC01CB0182199309A409B509803E9349DA
:10420000A440B10508F040C16AEB7FE0C5010E94FF
:10421000956840E157E260E070E0C5010E947715C3
:1042200022968FAF229740E1682FCE01CA960E9456
:104230008F7160E070E0CE01C4960E9476690E94A2
:104240005C7A1FA61EA619AA18AA1BAA1AAA0E945F
:10425000839020E030E04AE754E40E94DD9286013A
:1042600022E044E00E94208ABC01CE018E960E948A
:104270005C7119A618A61BA61AA61DA61CA64AE0C4
:10428000B601C3010E94028EB601CE0188960E943B
:104290005C71BE01685D7F4FC6010E94F47169E0E8
:1042A00076E0C6010E940F71BE01625D7F4F0E94E1
:1042B00028716EEF75E00E940F71BE016C5C7F4F3C
:1042C0000E94287161E076E00E940F71BE01665C79
:1042D0007F4F0E942871BC018F2D9E2D0E9473710B
:1042E000C6010E948A71CE0188960E948A71CE0111
:1042F0008E960E948A71CE01C4960E948A71CE0168
:10430000CA960E948A712296FFAD2297F11135C09C
:104310004AE021966FAD2197CE0188960E948F7159
:1043200065E076E0C6010E94FD71BE01685D7F4FC9
:10433000C6010E942871BC018F2D9E2D0E946F69BD
:10434000C6010E948A71CE0188960E948A716F2DE3
:104350007E2DC6010E94F471B6018BE499E00E94A3
:104360004D73C6010E948A7121962FAD21972F5F50
:1043700021962FAF21972430B8F46F2D7E2DC601E2
:104380000E94F471B6018BE499E00E944D73C6015E
:104390000E948A7168EE73E080E090E00E94227AC9
:1043A0008FEF681A780A22CF6AEB76E0C6010E9486
:1043B000FD7194EF492E55245394612C712CC30147
:1043C000B2010E94227A60E77FE0C5010E949568F1
:1043D00034EFE32E33E1F32E0BEF13E1960148EEB9
:1043E00053E060E070E0C5010E94025D6BE076E0A2
:1043F000CE0188960E94FD71BE01685D7F4FC601A7
:104400000E94CD6F892B09F44BC011E08D819E81F4
:10441000089708F445C0CE0188960E948A71111150
:1044200041C06AEB76E0C6010E945C7194EF490ED0
:1044300091E0591E611C711CA4E34A16A1E25A06C0
:104440006104710409F0BBCF8DE39FE00E94DD564B
:1044500010E0C6010E948A71C5010E94C90ECE01FA
:1044600082960E948A7111118DC0B401C6010E940A
:10447000F4714AEC5EE0B60184ED9EE00E94DC49F6
:10448000C6010E948A717EC083E79FE00E94DD56CC
:1044900064E670E080E090E00E94227A10E0DCCFD9
:1044A00010E0B9CFB601CE0188960E94F4714CE2BB
:1044B0005FE0BE01685D7F4F8EE29FE00E94DC49B5
:1044C000CE0188960E948A716AEB76E0C6010E944E
:1044D0005C7184EF482E55245394612C712CC301D8
:1044E000B2010E94227A69E27FE0C5010E949568CC
:1044F00024EFE22E23E1F22E0BEF13E1960148EEBA
:1045000053E060E070E0C5010E94025D6BE076E080
:10451000CE0188960E94FD71BE01685D7F4FC60185
:104520000E94CD6F892B29F011E08D819E81089723
:1045300008F410E0CE0188960E948A71111116C00D
:104540006AEB76E0C6010E945C71B4EF4B0EB1E0FD
:104550005B1E611C711CE0E74E16E7E15E0661041C
:10456000710409F0BCCF85EF9EE070CF11E0239677
:10457000FFAD2397F13009F010E08BED9EE00E9433
:10458000DD5667CF812FCE5BDF4F0FB6F894DEBFCD
:104590000FBECDBFDF91CF911F910F91FF90EF9094
:1045A000DF90CF90BF90AF909F908F907F906F9053
:1045B0005F904F903F902F9008958091E90981116D
:1045C00007C08091EA09811103C081E08093E80966
:1045D0000895DC011E967C936E931D97ED91FC91DE
:1045E0000484F585E02D0994DC0113967C936E9389
:1045F000129715965C934E931497ED91FC9102845B
:10460000F385E02DB90109947F928F929F92AF922A
:10461000BF92CF92DF92EF92FF920F931F93CF93AF
:10462000DF93CDB7DEB7AC970FB6F894DEBF0FBE01
:10463000CDBF8C014B01742EE22EADB6BEB60E94EA
:10464000955E811102C0F12C63C0D40114968C9147
:104650008F5F482F50E0EDB7FEB7E41BF50B0FB6A8
:10466000F894FEBF0FBEEDBF2DB73EB72F5F3F4F93
:104670006901882321F0B901C4010E94755C4801D9
:1046800033E8831A3DEF930A45E0B601C4010E9466
:10469000CF3FF82E882321F0B8016F587D4F2FC0EF
:1046A000772089F245E1B601C4010E94CF3FF82E80
:1046B000882349F268018FE8C81A8DEFD80AB6013D
:1046C000CE0101960E94DE4562E0CE0101960E9475
:1046D000FC44EE2099F0D801ED91FC910480F58125
:1046E000E02DB601C8010995B601CE0101960E94E0
:1046F000DE4564E0CE0101960E94FC44B601CE0185
:1047000001960E94DE4561E0CE0101960E94FC44C4
:104710008F2D0FB6F894BEBE0FBEADBEAC960FB6D1
:10472000F894DEBF0FBECDBFDF91CF911F910F91E7
:10473000FF90EF90DF90CF90BF90AF909F908F90C1
:104740007F9008958F929F92AF92BF92CF92DF9207
:10475000EF92FF920F931F93CF93DF93CDB7DEB706
:1047600062970FB6F894DEBF0FBECDBF7C018C01FF
:10477000035E1F4F84E893E0A0E0B0E0F701858F6F
:10478000968FA78FB0A380E790E0A0E0B0E0809381
:10479000F8149093F914A093FA14B093FB14C80181
:1047A0000E949934D70117968C9187FD08C061E06B
:1047B0000E94CF7960E0F70187810E949D49D7016F
:1047C00016968C9187FD03C061E00E94CF79F701B6
:1047D000818587FD03C061E00E94CF79D7011A96D9
:1047E0008C9187FD09C062E00E94CF796DED72E285
:1047F000F70182850E944078C8010E9406460E9407
:104800004979C8010E940646109243091092440952
:104810001092450910924609D70118968C9187FD90
:1048200003C062E00E94CF790E946058C8010E94D4
:104830000646C8010E9406460E940B3EAB01BC0121
:10484000CE0101960E94DA41BE016F5F7F4F82E781
:1048500092E10E948236CE0101960E948A71C801BF
:104860000E940646F70105851685C8010E94063894
:10487000D80114968C93C8010E946338F801838391
:10488000A12C99249394D80112968C911297A81672
:1048900008F0A6C0CA2CD12CCC0CDD1CED91FC91EB
:1048A000EC0DFD1D20813181D9015196ED91FC91D6
:1048B000529780818823E1F1DF010D900020E9F714
:1048C000CD0185978E179F0709F580858D32F1F40C
:1048D00085858D32D9F482898D32C1F487898D32F4
:1048E000A9F4AF014C5D5F4F619180E0A82FB0E06B
:1048F000AD5EB94F9C91691303C087E191E001C09F
:1049000090E08F5F911159C1873180F3F90167857C
:104910007089CE0101960E94FD7160EC71E1CE01BB
:1049200001960E948938CE0101960E948A71912CCD
:10493000A394BA2CD80112968C911297B81608F04D
:10494000A2CF9C9111968C91E92FF82FEB0DF11DC0
:10495000EB0DF11D0190F081E02D61897289CE018E
:1049600001960E94FD71D801ED91FC91EC0DFD1DA9
:104970000190F081E02D61897289CE0107960E9435
:10498000FD71BE016F5F7F4FCE0107960E94FD6FE4
:10499000882ECE0107960E948A71CE0101960E9450
:1049A0008A718820D9F0D801ED91FC91EC0DFD1DA4
:1049B0000190F081E02D67857089CE0101960E94FB
:1049C000FD7169EA71E1CE0101960E948938CE013C
:1049D00001960E948A71F801B280912CB394AACFFB
:1049E000992021F085E791E10E94DD56B12CD80194
:1049F00012968C911297B81608F048C0CB2CD12C87
:104A0000CC0CDD1CED91FC91EC0DFD1D0190F081B5
:104A1000E02D67857089CE0107960E94FD71F8012F
:104A200080819181FC01EC0DFD1D0190F081E02D54
:104A300061897289CE010D960E94FD71BE01635F8E
:104A40007F4F8BE499E00E943F7360E28BE499E032
:104A50000E94E672BE01695F7F4FCE0101960E94FF
:104A6000F471BE016F5F7F4F82E791E10E94823651
:104A7000CE0101960E948A71CE010D960E948A7124
:104A8000CE0107960E948A71B394B1CF60E28BE4A5
:104A900099E00E94ED72D7011D960D911C911E9711
:104AA000C8010E94B934C82EC8010E946338B82ECC
:104AB000F70185859685DC011296DC900E94B93459
:104AC0000D2D10E0081B11096CE472E18BE499E0F4
:104AD0000E945F7360E28BE499E00E94E6726D2DA4
:104AE0008BE499E00E94557460E28BE499E00E94A7
:104AF000E67268E372E18BE499E00E945F7360E222
:104B00008BE499E00E94E672B8018BE499E00E9480
:104B1000A07460E28BE499E00E94E6726EE272E1BA
:104B20008BE499E00E945F7360E28BE499E00E945D
:104B3000E6726B2D8BE499E00E94557460E28BE481
:104B400099E00E94E67262E272E18BE499E00E94D1
:104B50005F7360E28BE499E00E94E6726C2D8BE457
:104B600099E00E94557460E28BE499E00E94E6723D
:104B700082E192E10E94DD56F7016385748561153B
:104B8000710521F088EF91E10E94B43985ED91E142
:104B90000E94DD5662960FB6F894DEBF0FBECDBF01
:104BA000DF91CF911F910F91FF90EF90DF90CF9009
:104BB000BF90AF909F908F900895E417F50709F08C
:104BC00093CEB6CE2F923F924F925F926F927F928A
:104BD0008F929F92AF92BF92CF92DF92EF92FF920D
:104BE0000F931F93CF93DF93CDB7DEB762970FB6C6
:104BF000F894DEBF0FBECDBF7C016DB67EB67F865A
:104C00006E8681E08093E9091092E80987E491E1DA
:104C10000E94DD568AE291E10E94DD5664E670E072
:104C200080E090E00E94227AD7011F968D919C919E
:104C30005097009741F1DC01ED91FC910084F185E2
:104C4000E02D0995F70187859089DC01ED91FC91B4
:104C50000680F781E02D09958701035E1F4FC8018B
:104C60000E940646F70187859089DC01ED91FC9151
:104C70000288F389E02D40E553EC60E070E009958F
:104C8000C8010E940646F701858596850E94353841
:104C9000D7011D960D911C911E97A12CB12CF801E6
:104CA0008281A81650F5CA2CD12CB601C8010E94E9
:104CB000AB37882391F0CC0CDD1CD801ED91FC9131
:104CC000EC0DFD1D0190F081E02D0190F081E02DB3
:104CD000E85BFF4F808183FDB394A394E0CFCA2C9F
:104CE000D12CB601C8010E94AB3781110CC0A3942E
:104CF000D80112968C91A81690F3F8018381B8160A
:104D000090F5A12CF5CFCC0CDD1CD801ED91FC91D8
:104D1000EC0DFD1D0190F081E02D80819181FC0161
:104D2000E85BFF4F208123FDE2CFDC01ED91FC9198
:104D3000028CF38DE02D60E009958823C1F2F80123
:104D400080819181FC01EC0DFD1D0190F081E02D31
:104D500080819181DC01ED91FC910288F389E02D45
:104D60000995B394C4CFB9E1B88B1701EDE12E0ECC
:104D7000311C8FEF90E10E94DD56D7011F968D9177
:104D80009C915097DC01ED91FC91068CF78DE02D04
:104D90000995C1010E940646F701058516856DB685
:104DA0007EB67D866C86D80112968C91EDB7FEB7E3
:104DB000E81BF1090FB6F894FEBF0FBEEDBF2DB78B
:104DC0003EB72F5F3F4F5901812CD80112969C901E
:104DD000891460F4C82CD12CB601C8010E94AB37ED
:104DE000F501EC0DFD1D80838394EFCF892D90E0BC
:104DF000EDB7FEB7E81BF90B0FB6F894FEBF0FBE78
:104E0000EDBF2DB73EB72F5F3F4F39872887690128
:104E1000F9012E2F3885231B291510F41192F9CF93
:104E2000ADB7BEB7A81BB90B0FB6F894BEBF0FBE87
:104E3000ADBFEDB7FEB73196FB87EA87FA8BE98BFA
:104E40002501A50120E030E0291510F020E01EC06A
:104E5000DA018D91AD01882399F0D8016D917C9193
:104E6000C901880F991F860F971FDC018D919C91B6
:104E7000DC018D919C91DC0197968C91808301C01F
:104E800010822F5F3F4F3196DFCF2F5FF8014281B5
:104E9000241760F5822F90E0F501E80FF91F3081AB
:104EA000332399F3880F991FD801ED91FC91E80FF6
:104EB000F91F0190F081E02D0190F081E02D36A1E5
:104EC000CF010296B89640E03417F9F2DC01612C6C
:104ED0006CE3762E6CE1862E66EC962E6D927D92BA
:104EE0008D929D92CD0111924F5FEECF80E090E0C8
:104EF000612C841788F5F20121912F012223A9F05A
:104F0000D801ED91FC919C01220F331FE20FF31F9A
:104F10000190F081E02D0190F081E02DE85BFF4FE2
:104F200020812871283109F00BC20196E989FA899C
:104F30003196FA8BE98BFFEFCF1ADF0ADACFC52C57
:104F4000D12CF501EC0DFD1D808181110EC0539413
:104F5000F8018281581698F3D80113968C9168163F
:104F600010F4512CF5CF912C8EC0EA85FB85EC0D09
:104F7000FD1D7080888499848C0C9D1CD4014C90FC
:104F8000471428F7CC0CDD1CD801ED91FC91EC0DF9
:104F9000FD1D0190F081E02D80819181DC01ED917A
:104FA000FC91048CF58DE02D60E00995882309F4CF
:104FB00040C0D801ED91FC91EC0DFD1D0190F081F8
:104FC000E02D80819181FC01E85BFF4F208125FD70
:104FD00007C0DC01ED91FC910688F789E02D099569
:104FE000D801ED91FC91EC0DFD1D0190F081E02DBB
:104FF00080819181DC01ED91FC91068CF78DE02D93
:1050000060E009958823A9F0F80180819181FC0175
:10501000EC0DFD1D0190F081E02D80819181DC017E
:10502000ED91FC91008CF18DE02D09954394F401F4
:105030004082D4018C9178128ACF639488CFC92C96
:10504000D12CF501EC0DFD1D80818823D9F0CC0C0D
:10505000DD1CD801ED91FC91EC0DFD1D0190F0815E
:10506000E02D808191810E94D434F801808191816A
:10507000FC01EC0DFD1D0190F081E02D80819181FE
:105080000E9461359394F80182819816C0F26C8475
:105090007D840FB6F8947EBE0FBE6DBE0E940543A0
:1050A000AB01BC01CE0101960E94DA41BE016F5FE7
:1050B0007F4F88EE90E10E948236CE0101960E94D9
:1050C0008A7180ED90E10E94DD56D7011D96CD904A
:1050D000DC901E97B12CF6018281B81608F0B3C09F
:1050E0000B2D10E0000F111F0190F081E02DE00F5B
:1050F000F11F60817181DB0112968C9112978823D8
:1051000091F11B966D917C911C97CE0101960E94A6
:10511000FD71BE016F5F7F4F8BE499E00E943F738A
:10512000CE0101960E948A7162E670E18BE499E0FB
:105130000E945F73D601ED91FC91E00FF11F608139
:105140007181CE0101960E941C46BE016F5F7F4FA8
:105150008BE499E00E943F73CE0101960E948A7110
:1051600060E670E14CC0CE0101960E944437BE015A
:105170006F5F7F4F8BE499E00E943F73CE010196F1
:105180000E948A7166E570E18BE499E00E945F738A
:10519000D601ED91FC91E00FF11F0190F081E02D1F
:1051A00063857485CE0101960E94FD71BE016F5F1B
:1051B0007F4F8BE499E00E943F73CE0101960E94DD
:1051C0008A7161E570E18BE499E00E945F73D6011A
:1051D000ED91FC91E00FF11F60817181CE0101968C
:1051E0000E941C46BE016F5F7F4F8BE499E00E94D6
:1051F0003F73CE0101960E948A716FE470E18BE4E7
:1052000099E00E945F73F60180819181FC01E00FBB
:10521000F11F0190F081E02D65857685CE01019624
:105220000E94FD71BE016F5F7F4F8BE499E00E9489
:105230003F73CE0101960E948A718BE499E00E942F
:10524000D072B39448CF88EB90E10E94DD56C10143
:105250000E94064668E873E180E090E00E94227AAE
:10526000C1010E940646F889F150F88BF11181CDF9
:1052700057012DE1A20EB11CD7011D96CD90DC90F7
:105280001E97912CF60182819816E8F4092D10E002
:10529000B801C6010E94AB37882399F0000F111F97
:1052A000D601ED91FC91E00FF11F0190F081E02D0E
:1052B00080819181DC01ED91FC910488F589E02DDC
:1052C00009959394DFCFF701C584D684912CD6013C
:1052D00012968C919816E8F4092D10E0B801C601D9
:1052E0000E94AB37882399F0000F111FD601ED9172
:1052F000FC91E00FF11F0190F081E02D8081918100
:10530000DC01ED91FC910088F189E02D09959394E1
:10531000DECFF701878590890097C9F0DC01ED9118
:10532000FC910488F589E02D0995F701878590891E
:10533000DC01ED91FC910684F785E02D099507C00D
:10534000E989FA892081D6012C936394EECD83EA12
:1053500090E10E94DD5688E790E10E94DD56C5018C
:105360000E9406461092E90960E0C7010E948E3E45
:105370006E847F840FB6F8947EBE0FBE6DBE6296BB
:105380000FB6F894DEBF0FBECDBFDF91CF911F9156
:105390000F91FF90EF90DF90CF90BF90AF909F90D4
:1053A0008F907F906F905F904F903F902F900895D7
:1053B0000F931F93CF93DF93EB010E945C7A8B01D5
:1053C0000E94B7418F3F49F00E945C7A601B710BCD
:1053D000C617D707A8F780E001C081E0DF91CF9121
:1053E0001F910F910895CF93DF93FC012381222316
:1053F00061F0EC010180F281E02D61E082810E9488
:105400009D498FEF0E94B2411B82DF91CF91089599
:105410000F931F93CF93DF938C01862FEA010E9495
:10542000B24188818EBD8981FE013296DE5F0DB466
:1054300007FEFDCF8EBDEC17FD0711F08191F7CF70
:105440000DB407FEFDCF8FEF0E94B2418FEF0E9497
:10545000B2410E94B741F80184838F71853039F0E1
:1054600087E58083C8010E94F32980E001C081E0C4
:10547000DF91CF911F910F910895FF920F931F938A
:10548000CF93DF9300D000D0CDB7DEB78C01F62EDE
:1054900029833A834B835C83FC018381811103C0A0
:1054A000C8010E949E41FF2029F06CE271E0C80112
:1054B0000E94D8298F2D80640E94B2418C810E9465
:1054C000B2418B810E94B2418A810E94B24189819E
:1054D0000E94B241FF2011F087E801C085E90E94D7
:1054E000B2410E94B7418BE0F82E0E94B741F8010B
:1054F000848387FF03C0FA94F110F7CF0F900F90C9
:105500000F900F90DF91CF911F910F91FF90089511
:105510000F931F93CF93DF93EC0189018D8183302B
:1055200039F089E0440F551F661F771F8A95D1F720
:105530009A01AB0168E1CE010E943D2A882311F057
:1055400082E323C0A8016EEFCE010E94082A8823BF
:10555000E9F060ED77E0CE010E94D829182F811183
:1055600002C08AE512C020E030E0A9016DE0CE0162
:105570000E943D2A811108C00E94B741811104C0D8
:10558000CE010E94F32906C089E28883CE010E94E1
:10559000F32910E0812FDF91CF911F910F91089592
:1055A0000F931F93CF93DF93EC0189018D8183309B
:1055B00039F089E0440F551F661F771F8A95D1F790
:1055C0009A01AB0161E1CE010E943D2A882319F0C6
:1055D00080E388830BC0B801CE010E942859182FA0
:1055E000882321F0CE010E94F32904C0CE010E943D
:1055F000F32910E0812FDF91CF911F910F91089532
:10560000EF92FF921F93CF93DF93FC01208120FF45
:1056100032C0EC017C01F7E0EF0EF11C4B815C81A4
:105620006D817E81E981FA819701808191810E945B
:10563000882A182F811102C010E01EC0888181FDC8
:1056400004C088818E7F888317C0E981FA814B81ED
:105650005C816D817E8184859585A685B785480F9F
:10566000591F6A1F7B1F9701808191810E94882AA0
:105670008111E7CFE1CF11E0812FDF91CF911F9111
:10568000FF90EF900895CF92DF92EF92FF921F93D9
:10569000CF93DF93EC016A017B01122F8B819C81F8
:1056A000AD81BE8184179507A607B707F1F0CE013B
:1056B0000E94002B811103C080E090E01CC012FF0B
:1056C00006C01882CB82DC82ED82FE820EC0E981A8
:1056D000FA819E01295F3F4FB701A6018081918128
:1056E0000E94D02A8111EDCFE7CF13708881182B4B
:1056F0001883CE010796DF91CF911F91FF90EF9015
:10570000DF90CF900895CF92DF92EF92FF920F93A8
:105710001F93CF93DF93EC01162F1D8281E090E061
:10572000A0E0B0E088879987AA87BB87DAA3C9A3DE
:1057300018A28FEF9FEFDC018BA39CA3ADA3BEA3A8
:10574000662331F1653008F0C4C020E040E050E04D
:10575000BA01CE0180960E94432B009709F4B9C08C
:1057600000E1109F800D911D11244097FC01E2542F
:10577000FE4F20812F7709F0ACC03896C080D180D1
:10578000E280F380C114D104E104F10421F4A1C04A
:10579000C12CD12C760120E0B701A601CE01809664
:1057A0000E94432BFC01892B09F493C083859485C7
:1057B0008115924009F08DC08089823009F089C03E
:1057C00086859785892B09F484C025852A838FEFE8
:1057D000820F8B831C8249E050E091E0921749F0E0
:1057E0004150510909F475C0990F8C818F5F8C83EA
:1057F000F5CF468957894115510519F060E070E0F1
:1058000004C044A155A166A177A14C875D876E872E
:105810007F878685978597018601080F191F211DAF
:10582000311D0C8B1D8B2E8B3F8B818992899F8321
:105830008E83440F551F661F771F400F511F621F35
:10584000731F4C8F5D8F6E8F7F8FB5E0880F991F10
:10585000BA95E1F781509E4F892F99278695480F79
:10586000591F611D711D488B598B6A8B7B8B238956
:1058700034892115310521F0C901A0E0B0E004C050
:1058800080A191A1A2A1B3A197018601041B150BD0
:10589000260B370BB901A801480F591F6A1F7B1F40
:1058A0000C8004C076956795579547950A94D2F772
:1058B000DB01CA010196A11DB11D888F998FAA8FA6
:1058C000BB8F453F1FE051076105710520F48CE057
:1058D0008D8380E012C0453F5F4F6105710510F474
:1058E00080E109C084A595A5A6A5B7A58C8F9D8F3D
:1058F000AE8FBF8F80E28D8381E0DF91CF911F91CA
:105900000F91FF90EF90DF90CF9008958F929F922C
:10591000AF92BF92CF92DF92EF92FF920F931F93BD
:10592000423051056105710510F480E055C0FC015D
:10593000C08CD18CE28CF38CC416D506E606F70633
:10594000A0F3480159016A017B018581803239F554
:1059500084899589A689B78917E0769567955795C3
:1059600047951A95D1F7480F591F6A1F7B1F23E0EF
:10597000CF0180960E94432B0097B9F2E894C7F8B4
:10598000DD24EE24FF24CC0CDD1CCC0CDD1CFC0142
:10599000EC0DFD1D80829182A282B3821CC08031F9
:1059A00021F644895589668977894D0D511D611D00
:1059B000711D23E0CF0180960E94432B009709F4CC
:1059C000B4CFDD24EE24FF24CC0CDD1CFC01EC0D57
:1059D000FD1D9182808281E01F910F91FF90EF90D9
:1059E000DF90CF90BF90AF909F908F900895CF920F
:1059F000DF92EF92FF920F931F93CF93DF9342308A
:105A000051056105710510F48FEF68C0FC01C08C71
:105A1000D18CE28CF38CC416D506E606F706A0F30B
:105A200089016A017B01EC018581803241F584891D
:105A30009589A689B789E7E0769567955795479543
:105A4000EA95D1F7480F591F6A1F7B1F22E0CE014C
:105A500080960E94432B0097B9F2E894C7F8DD24A2
:105A6000EE24FF24CC0CDD1CCC0CDD1CFC01EC0D69
:105A7000FD1D80819181A281B381BF701EC08031E4
:105A800019F644895589668977894D0D511D611D27
:105A9000711D22E0CF0180960E94432B009709F4EC
:105AA000B3CFDD24EE24FF24CC0CDD1CFC01EC0D77
:105AB000FD1D80819181A0E0B0E0488D598D6A8DF7
:105AC0007B8D481759076A077B0738F0F8018083F8
:105AD0009183A283B38381E001C080E0DF91CF9105
