:100000000C94140E0C9493130C9468130C943D13DD
:100010000C94C8120C9453120C94DE110C946911B8
:100020000C94C6430C943E0E0C943E0E0C943E0E63
:100030000C948D6D0C943B6E0C94426D0C943E0EA2
:100040000C943E0E0C943E0E0C9452900C943E0E6A
:100050000C94BC6B0C94926B0C943E0E0C943E0E64
:100060000C943E0E0C943E0E0C942D650C943E0E9A
:100070000C945C6B0C94326B0C943E0E0C943E0E04
:100080000C943E0E0C943E0E0C943E0EBF64C26463
:10009000B564B964D964D964C664CA64D064D464EC
:1000A00008000000BE922449123EABAAAA2ABECD87
:1000B000CCCC4C3E00000080BEABAAAAAA3E0000F9
:1000C0000000BF000000803F0000000000084178F1
:1000D000D3BB4387D1133D190E3CC3BD4282AD2B28
:1000E0003E68EC8276BED98FE1A93E4C80EFFFBE20
:1000F00001C4FF7F3F000000000007634236B79B4A
:10010000D8A71A39685618AEBAAB558C1D3CB7CC77
:100110005763BD6DEDFD753EF6177231BF000000EF
:10012000803F4E414E494E495459494E46CDCCCC64
:100130003D0AD7233C17B7D13877CC2B329595E6BB
:10014000241FB14F0A000020410000C84200401C9B
:100150004620BCBE4CCA1B0E5AAEC59D7400407AE8
:1001600010F35A00A0724E18090010A5D4E8000040
:10017000E87648170000E40B54020000CA9A3B00DE
:100180000000E1F505000080969800000040420F55
:10019000000000A08601000000102700000000E819
:1001A00003000000006400000000000A00000000DE
:1001B000000100000000002C76D888DC674F08237F
:1001C000DFC1DFAE59E1B1B796E5E3E453C63AE6E5
:1001D00051997696E8E6C28426EB898C9B62ED40C5
:1001E0007C6FFCEFBC9C9F40F2BAA56FA5F4900514
:1001F0005A2AF75C936B6CF9676DC11BFCE0E40D48
:1002000047FEF520E6B500D0ED902E03009435773B
:10021000050080841E080000204E0A000000C80C63
:10022000333333330F986E12831141EF8D211489CC
:100230003BE65516CFFEE6DB18D1844B381BF77C26
:100240001D901DA4BBE424203284725E228100C96B
:10025000F124ECA1E53D270A4C6F676765723A739C
:1002600065744C6F676765724964206572726F725E
:10027000202D206578706563746564204E554C4C64
:1002800020707472000A0D2020204C6F6767657221
:100290003A7365744C6F67676572496420746F6F59
:1002A000206C6F6E673A205472696D6D65642074BE
:1002B0006F20002020204C6F633D006261747465E4
:1002C000727920747970653D006D696E757465731F
:1002D0002C20547A3D005D0A0D2020206C6F67674A
:1002E000696E6720696E74657276616C3D00467256
:1002F0006F6D20656570726F6D20636F6D6D6F6ED1
:100300003A204C6F676765722046696C65204E61C4
:100310006D655B00466163746F7279206465666128
:10032000756C74006D734C6F673031005D005D203B
:10033000736E5B005D20207265765B0046726F6DA8
:1003400020656570726F6D20626F6F74204E616DF5
:10035000655B00302E3562004D313233343536372F
:100360003839616263646566676800656E766972D4
:100370006F444959206D6179666C790050617273E0
:100380006520696E693B204E6F2066696C652000B0
:10039000436F6D706C657465642E004572726F7288
:1003A000206F6E206C696E65203A00506172736533
:1003B00020696E693B200056005620474F4F443D50
:1003C0000056204D454449554D3D0056204C4F5751
:1003D0003D00205468726573686F6C6473205553D8
:1003E0004541424C453D0042617474657279205428
:1003F0007970653D0050757474696E67206D6F6427
:10040000656D20746F20736C65657000436F756C4B
:1004100064206E6F742077616B65206D6F64656D0D
:1004200020666F7220636C6F636B2073796E632E2E
:1004300000436F756C64206E6F7420636F6E6E6521
:10044000637420746F20696E7465726E65742066C3
:100450006F7220636C6F636B2073796E632E005430
:10046000686973206D61792074616B6520757020F7
:10047000746F2074776F206D696E757465732100D9
:10048000417474656D7074696E6720746F20636F5A
:100490006E6E65637420746F2074686520696E7475
:1004A00065726E657420616E642073796E63687224
:1004B0006F6E697A65205254432077697468204EC4
:1004C00049535400446174612077696C6C20626503
:1004D00020736176656420617300556E61626C659E
:1004E00020746F2063726561746520612066696C99
:1004F0006520746F20736176652064617461207477
:100500006F210053657474696E6720757020666989
:100510006C65206F6E2053442063617264005365E4
:100520007474696E672075702073656E736F727373
:100530002E2E2E0054696D65200053796E6320774E
:10054000697468204E495354206F7665722057694C
:100550004669206E6574776F726B2000456E766910
:10056000726F794449595075626C6973686572207D
:100570007365745175656420000A0A2D2D2D706114
:10058000727365496E6920636F6D706C6574652068
:10059000002D2D2D7061727365496E692000476FC3
:1005A0006F6420426174563D002D2D2D2D57616BD7
:1005B000657570003A20426174746572794C6F778A
:1005C0002D536C65657036307365632C2042617401
:1005D000563D0054696E7947534D204C69627261F3
:1005E00072792076657273696F6E20004D6F647545
:1005F0006C617253656E736F727320766572736986
:100600006F6E20005377204E616D653A20000A2DF1
:100610002D2D426F6F742E205377204275696C64C4
:100620003A20007365727A426567696E206572725E
:100630002072656D6F766500646553524320726564
:100640006D6F766520657272007365727A426567B8
:10065000696E2065727220636C6F73650064655308
:10066000524320636C6F736520657272006465523B
:10067000533B204E6F2066696C6520007365727A6B
:10068000517565645374617274206F70656E206576
:100690007272006C6F67504C4F20657272206F70E1
:1006A000656E696E67007365632E205175657565AB
:1006B000642072656164696E67733D007265616490
:1006C000696E677320696E0053656E7400707562A1
:1006D00044515452207365727A5175656446696C51
:1006E00020657272005D000A707562445154522098
:1006F00053656E64696E67206461746120746F2055
:100700005B007365727A5264656C5F4C696E653B21
:10071000204E6F2066696C65002D2D2D2D2D2D2D01
:100720002D2D2D2D2D2D2D2D2D2D2D2D2D2D2D2DF9
:100730002D2D2D2D2D2D2D2D2D2D2D2D2D2D2D2DE9
:100740002D2D2D0A002D2D2D2D2D2D2D2D2D2D2D29
:100750002D2D2D2D2D2D2D2D2D2D2D2D2D2D2D2DC9
:100760002D2D2D2D2D2D2D2D2D2D2D2D2D2D2D00E6
:10077000204C626174743D00206C6F672650756276
:1007800020565F6261747400204C626174743D0095
:10079000204C6F674F6E6C792E205620746F6F203F
:1007A0006C6F772062617474657279563D002D2DEF
:1007B0002D4E657752656164696E672043414E43F3
:1007C000454C4C45442D2D4C626174745F563D0080
:1007D0004552524F52004C4100544D00544D300090
:1007E000544D00414D3000465200414D31004150C2
:1007F0003000414D30004149002B2B2B004143007C
:10080000575200434E004853004853000A4C6F674C
:100810006765724D6F64656D3A3A736574576946E2
:10082000694964206572726F72202D6E6F20627547
:100830006666657220000A4C6F676765724D6F646B
:10084000656D3A3A73657457694669496420657203
:10085000726F72202D206578706563746564204E18
:10086000554C4C20707472000A0D2020204C6F678C
:100870006765724D6F64656D3A7365745769466953
:10088000496420746F6F206C6F6E673A20547269F0
:100890006D6D656420746F20000A4C6F6767657228
:1008A0004D6F64656D3A3A73657457694669507760
:1008B00064206572726F72202D6E6F20627566669D
:1008C000657220000A4C6F676765724D6F64656DD5
:1008D0003A3A736574576946695077642065727255
:1008E0006F72202D206578706563746564204E55A5
:1008F0004C4C20707472000A0D2020204C6F6767EA
:1009000065724D6F64656D3A7365745769466950D9
:10091000776420746F6F206C6F6E673A2054726931
:100920006D6D656420746F20003D005D20004E6F8A
:100930007420737570706F72746564205B0041433E
:1009400054494F4E2057726974652061626F72740A
:1009500065642E20696E737472756374696F6E209E
:100960002700414354494F4E20434F5059206E6F4A
:100970007420737570706F72746564207965743A51
:1009800000434F505900454550524F4D2057726912
:1009900074652066696E69736865640041435449F3
:1009A0004F4E205772697465206170702045455024
:1009B000524F4D20737461727465643A0057524906
:1009C000544500414354494F4E0055534552002071
:1009D000746F2000424F4F542074626420004545DC
:1009E00050524F4D2057726974652061626F727466
:1009F00065642E20696E737472756374696F6E20FE
:100A00002700454550524F4D205772697465206646
:100A1000696E697368656400454550524F4D2057B3
:100A20007269746520737461727465643A00594523
:100A30005300454550524F4D5F575249544500426F
:100A40006F617264205265763A00424F4152445FB2
:100A500052455600426F6172642053657269616C41
:100A60004E756D203A00424F4152445F534E004252
:100A70006F617264204E616D653A00424F4152448D
:100A80005F4E414D4500424F4F540020746F20008F
:100A90004E4554574F524B207462642000434F4DD3
:100AA0004D4F4E205365742053454E445F4F46468C
:100AB0005345545F4D494E206572726F723B20283A
:100AC00072616E67652030203A20333029207265CC
:100AD00061643A00434F4D4D4F4E2053657420538F
:100AE000454E445F4F46465345545F4D494E3A206C
:100AF0000053454E445F4F46465345545F4D494E63
:100B000000434F4D4D4F4E2053657420434F4C4C86
:100B10004543545F52454144494E475320657272E4
:100B20006F723B202872616E67652030203A203357
:100B3000302920726561643A00434F4D4D4F4E207D
:100B400053657420434F4C4C4543545F52454144D8
:100B5000494E47533A2000434F4C4C4543545F5253
:100B6000454144494E475300434F4D4D4F4E20534E
:100B7000657420504F53545F4D41585F4E554D2082
:100B80006572726F723B202872616E67652030203B
:100B90003A2035302920726561643A00434F4D4D4B
:100BA0004F4E2053657420504F53545F4D41585F52
:100BB0004E554D3A2000504F53545F4D41585F4EB3
:100BC000554D00434F4D4D4F4E20536574205449B1
:100BD0004D45525F504F53545F504143455F4D5315
:100BE000206572726F723B202872616E67652030DB
:100BF000203A20353030302920726561643A004354
:100C00004F4D4D4F4E205365742054494D45525F12
:100C1000504F53545F504143455F4D533A20005469
:100C2000494D45525F504F53545F504143455F4DCE
:100C30005300434F4D4D4F4E205365742054494D42
:100C400045525F504F53545F544F55545F4D53209E
:100C50006572726F723B202872616E676520313059
:100C600030203A2033303030302920726561643AC8
:100C700000434F4D4D4F4E205365742054494D4510
:100C8000525F504F53545F544F55545F4D53203A69
:100C9000200054494D45525F504F53545F544F55B7
:100CA000545F4D530027206E6F772027004E455428
:100CB000574F524B20576946695077643A20776105
:100CC00073202700576946695077640027206E6FAC
:100CD000772027004E4554574F524B20576946699D
:100CE00049643A207761732027005769466949644F
:100CF000004E4554574F524B0020746F200053450F
:100D00004E534F525320746264200053454E534F4C
:100D100052530020746F2000434F4D4D4F4E2074AE
:100D20006264200047454F47524150484943414C77
:100D30005F49443A0047454F475241504849434173
:100D40004C5F494400434F4D4D4F4E205365742036
:100D500054696D655A6F6E65206572726F723B20C3
:100D60002872616E6765202D3132203A202B313296
:100D70002920726561643A00434F4D4D4F4E205318
:100D800065742054696D655A6F6E653A2000544948
:100D90004D455F5A4F4E450020536574204C6949BC
:100DA0006F6E2054797065206572726F723B2028D7
:100DB00072616E676520302D322920726561643A58
:100DC00000434F4D4D4F4E204C69496F6E20547972
:100DD00070653A20004C49494F4E5F5459504500C8
:100DE00020536574204C69496F6E205479706520DA
:100DF0006572726F723B202872616E676520302DBC
:100E0000322920726561643A00434F4D4D4F4E20A8
:100E10004261747465727920547970653A20004299
:100E20004154544552595F5459504500292077691F
:100E3000746820726561643A002053657420696E9D
:100E400074657276616C206572726F7220287261AF
:100E50006E67653A20312D00286D696E2920667213
:100E60006F6D2064656661756C742000434F4D4D55
:100E70004F4E204C4F4747494E475F494E544552CD
:100E800056414C5F4D494E5554455320736574206F
:100E9000746F3A2000205573696E67204D61782E7B
:100EA0002052656164696E672069676E6F72656460
:100EB0002000434F4D4D4F4E204C4F4747494E4722
:100EC0005F494E54455256414C5F4D494E5554452D
:100ED00053206D757374206265206C657373207484
:100EE00068616E203A20004C4F4747494E475F49A2
:100EF0004E54455256414C5F4D494E555445530052
:100F0000434F4D4D4F4E204C6F67676572496420CB
:100F10005365743A20004C4F474745525F4944009F
:100F2000434F4D4D4F4E007D2055554944206E6F27
:100F30007420737570706F72746564007D206F75B6
:100F400074206F662072616E67652E204E6F747517
:100F5000736564007D007D207265706C6163696EED
:100F600067207B00696E646578007D206D61746325
:100F7000682020262061646465642E003D7B0000AB
:100F800055554944730050524F5649444552206EBE
:100F90006F7420737570706F727465643A0050528C
:100FA0004F56494445522053657474696E67205307
:100FB000616D706C696E67466561747572653A2023
:100FC0000053414D504C494E475F464541545552A0
:100FD000450050524F564944455220536574746938
:100FE0006E6720636C6F756449643A2000434C4F10
:100FF00055445F49440050524F564944455220538E
:10100000657474696E672072656769737472617460
:10101000696F6E20746F6B656E3A200052454749C8
:101020005354524154494F4E5F544F4B454E00501C
:10103000524F5649444552002D3E00416C6C20767B
:1010400061726961626C652055554944277320615E
:10105000707065617220746F20626520636F7272B8
:101060006563746C7920666F726D65642E0A006822
:1010700061732061206E6F6E2D756E6971756520CC
:1010800055554944210068617320616E20696E7670
:10109000616C6964205555494421004C6F67676550
:1010A0007220706F7274696F6E206F662073657442
:1010B00075702066696E69736865642E0A005361F5
:1010C0006D706C696E672066656174757265205518
:1010D0005549442069733A006172652063616C630D
:1010E000756C617465642E0073656E736F72732026
:1010F000616E6400636F6D652066726F6D0076616E
:10110000726961626C65732C206F66207768696311
:10111000680054686973206C6F6767657220686146
:10112000732061207661726961626C652061727200
:10113000617920776974680043757272656E7420F6
:101140005254432074696D652069733A002D2D2D2A
:101150002D2D2D2D2D2D2D2D2D2D2D2D2D2D2D2DBF
:101160002D2D2D2D2D2D2D2D2D2D2D2D2D2D2D2DAF
:101170002D2D2D2D2D2D2D0A002D2D2D2D2D2D2DEF
:101180002D2D2D2D2D2D2D2D2D2D2D2D2D2D2D2D8F
:101190002D2D2D2D2D2D2D2D2D2D2D2D2D2D2D2D7F
:1011A0002D2D2D0050696E000054500027206661DF
:1011B000696C65642E005862656520270058626579
:1011C000655769666920696E697420746573742057
:1011D000504153534544005862656557696669201C
:1011E000696E69742074657374204641494C4544A6
:1011F000202D20686F706520697420776F726B7383
:10120000206E6578742074696D65004E53005D0032
:10121000586265655769466920495023205B00582C
:1012200062656557694669206E6F742072656365F3
:101230006976656420495023202D686F70652069A8
:101240007420776F726B73206E6578742074696D8B
:1012500065004D59005862656557694669206E6F93
:10126000742041502052656769737465726564200B
:101270002D2061626F7274696E6720617474656D90
:1012800070742C20686F706520697420776F726BA2
:1012900073206E6578742074696D65004149004C57
:1012A0006F6F703D5365635D207278206462203AF1
:1012B000205374617475732023506F6C6C656420C7
:1012C0005374617475732065766572792031736526
:1012D000632F333073656300544D00534F00534DFB
:1012E000004950004439004438005052002700584B
:1012F0006265655769466920496E697469616C6900
:101300007A696E6720496E7465726E657420636FCA
:101310006D6D732077697468206D6F64656D20272B
:10132000004C4174696D652E6E6973742E676F761B
:10133000007365514346207365727A517565644642
:10134000696C652E636C6F73653220657272007311
:1013500065514346207467746F757446696C652ED9
:10136000636C6F736531206572720073655143461B
:101370002051756520666F72206E657874207061EB
:10138000737320756E73656E74207265636F72641B
:1013900073007365514346207467746F75744669B2
:1013A0006C652077726974653320657272007365AD
:1013B000514346207467746F757446696C65207775
:1013C00072697465312065727200736551434620FD
:1013D0006F70656E322065727200736551434620EE
:1013E00072656E616D65312065727200736551437F
:1013F0004620657272362072656D6F766500736582
:101400005143462072656D6F7665312065727200BA
:101410002C3058005344206572726F72436F6465BC
:101420003A203058006572726F723A200073465449
:10143000534D65742065727220666F72200073656B
:10144000636F6E6473206F66204E4953542E0049BB
:101450006E7465726E616C20436C6F636B2077698C
:101460007468696E2000496E7465726E616C204309
:101470006C6F636B20736574200042616420746933
:101480006D657374616D702C206E6F74207365745C
:1014900074696E6720636C6F636B2E006D6F64629E
:1014A00075735F3078004932435F30783638005FBB
:1014B00050696E0053444931322D006461746150AB
:1014C00075626C69736865724261736520736574D7
:1014D0005175656420636865636B004D5900455222
:1014E000524F52004F4400544D00544D00444500AB
:1014F000444C00495000456E7669726F79444959F1
:101500005075626C697368657220675153200027BB
:10151000006465737A714E65787443682031657232
:10152000726F723A006D532054696D656F75740067
:1015300077616974656420002D2D20526573706F8A
:101540006E736520436F6465202D2D00202D2D20A6
:10155000476174657761792054696D656F75742092
:101560007761726E696E6720627566666572207358
:101570007A20736D616C6C000A202D2D20556E61F0
:10158000626C6520746F2045737461626C69736866
:1015900020436F6E6E656374696F6E20746F2045B3
:1015A0006E7669726F444959204461746120506FAE
:1015B0007274616C202D2D005F4368616E6E656CE6
:1015C00000414453313131355F30780064617461DA
:1015D0005075626C6973686572426173652067510A
:1015E0005320636865636B002D2D2D2D2D205741F1
:1015F000524E494E47202D2D2D2D2D2021212121C8
:1016000021212121212121212121212121212121CA
:10161000004261642074696D65200021212121212F
:1016200021212121212121212121212121212120AB
:101630002D2D2D2D2D205741524E494E47202D2D19
:101640002D2D2D20003A3030003A3030003A303025
:10165000003A303000212121212121212121212185
:10166000212121212121212121202D2D2D2D2D2030
:101670005741524E494E47202D2D2D2D2D20002112
:10168000212121212121212121202D2D2D2D2D2010
:101690005741524E494E47202D2D2D2D2D202121D1
:1016A0002121212121212121002D2D2D2D2D2057DA
:1016B00041524E494E47202D2D2D2D2D20212121E7
:1016C000212121212121212121212121212121210A
:1016D00021005468652063757272656E7420636CB6
:1016E0006F636B2074696D657374616D70206973CD
:1016F000206E6F742076616C6964210021212121A4
:1017000021212121212121212121212121212121C9
:10171000202D2D2D2D2D205741524E494E47202D45
:101720002D2D2D2D2000212121212121212121219B
:10173000202D2D2D2D2D205741524E494E47202D25
:101740002D2D2D2D2021212121212121212121007B
:101750002D2D2D2D2D205741524E494E47202D2DF8
:101760002D2D2D2021212121212121212121212146
:1017700021212121212121210049440045450050FA
:101780004B004552524F520D004F4B0D0045450046
:101790004442004C4D0025560027006465737A4C86
:1017A000696E652072656164756E6720737461721D
:1017B00074206E6F7420666F756E64002700646518
:1017C000737A4C696E652045706F6368206572722C
:1017D000270027006465737A4C696E652065706F19
:1017E0006368207374617274206E6F7420666F7505
:1017F0006E640027006465737A4C696E65205374CB
:10180000617475732065727227002C002C002C0007
:1018100000002100240027002A00000022002500EB
:1018200028002B000000000004030807000000014E
:101830000200090A00000000000000000000000093
:10184000000000004552524F5221204E6F20776514
:101850006220636C69656E742061737369676E657D
:101860006420746F207075626C69736820646174A1
:101870006121001F1C1F1E1F1E1F1F1E1F1E1F2752
:10188000002720736E3A2700207265763A270042BF
:101890006F6172643A20004D6F64756C61725365BC
:1018A0006E736F7273207665727320002E205377EB
:1018B000204275696C643A20005377204E616D6553
:1018C0003A20002020426174746572795479706501
:1018D0003A200020547A3A200020204C6F67676934
:1018E0006E67496E74657276616C20286D696E2929
:1018F0003A20004C6F636174696F6E3A2000446156
:10190000746520616E642054696D6520696E205590
:10191000544300526573756C7420555549443A0020
:10192000526573756C7420556E69743A0056617215
:101930006961626C65204E616D653A0053656E7336
:101940006F72204E616D653A0053616D706C696E07
:1019500067204665617475726520555549443A2083
:101960000044617461204C6F676765722046696C42
:10197000653A200044617461204C6F676765723A74
:101980002000446174612077696C6C206E6F742054
:1019900062652073617665642100536C6176652F02
:1019A000436869702073656C6563742070696E208C
:1019B000666F7220534420636172642068617320F3
:1019C0006E6F74206265656E207365742E004461CD
:1019D00074612077696C6C206E6F7420626520736F
:1019E0006176656421004572726F723A205344201B
:1019F00063617264206661696C656420746F20693C
:101A00006E697469616C697A65206F7220697320F0
:101A10006D697373696E672E002D2D2D2D5C2F005F
:101A20000A205C2F2D2D2D2D204C696E65205361D1
:101A300076656420746F00556E61626C6520746F0A
:101A400020777269746520746F205344206361723B
:101A500064210020002069732000207265706F727D
:101A60007473200020002069732063616C63756CBF
:101A70006174656420746F20626520002D2D2D2D0A
:101A80002D2D2D2D2D2D2D2D2D2D2D2D2D2D2D2D86
:101A90002D2D2D2D2D2D2D2D2D2D2D2D2D2D2D2D76
:101AA0002D2D2D2D2D2D0045786974696E672074BC
:101AB000657374696E67206D6F6465002D2D2D2D23
:101AC0002D2D2D2D2D2D2D2D2D2D2D2D2D2D2D2D46
:101AD0002D2D2D002D2D2D2D2D2D2D2D2D2D2D2D63
:101AE0002D2D2D2D2D2D2D2D2D2D2D00437572726B
:101AF000656E74206C6F676765722074696D652010
:101B00006973002D2D2D2D2D2D2D2D2D2D2D2D2DB0
:101B10002D2D2D2D2D2D2D2D2D2D2D2D2D2D2D2DF5
:101B20002D2D2D2D2D2D2D2D2D2D2D2D2D00456EB9
:101B3000746572696E672073656E736F7220746569
:101B40007374696E67206D6F6465002D2D2D2D2DCA
:101B50002D2D2D2D2D2D2D2D2D2D2D2D2D2D2D2DB5
:101B60002D2D2D2D2D2D2D2D2D2D2D2D2D2D2D2DA5
:101B70002D2D2D2D2D00435436340047543634007E
:101B80004552524F520D004F4B0D00415030004313
:101B900049007365745661725555494420657272E7
:101BA0006F72202D206E6577206469646E27742023
:101BB000776F726B20666F72000000200023002692
:101BC00000290000010203040506070001020304C6
:101BD00005060700010203040506070001020304CD
:101BE00005060704040404040404040202020202B9
:101BF00002020203030303030303030101010101C2
:101C000001010101020408102040800102040810B3
:101C100020408001020408102040800102040810C6
:101C200020408000CD9BF7A411241FBECFEFD0E44D
:101C3000DEBFCDBF1AE0A0E0B1E0EEE4F6E601E0E1
:101C40000BBF02C007900D92AA3DB107D9F72BE157
:101C5000AAEDBAE001C01D92A63CB207E1F71EE072
:101C6000C3E1DEE004C02197FE010E94D7AEC2317D
:101C7000D107C9F70E949C900C941AB30C940000F1
:101C8000DC01ED91FC910688F789E02D099591E042
:101C9000811101C090E0892F08950F931F93CF9376
:101CA000DF9300D000D000D0CDB7DEB78C01DC01CF
:101CB000ED91FC910084F185E02D0995892BC9F403
:101CC0001B821C821D821E82D8011C96ED91FC9104
:101CD0001D9745855685678570898B819C81AD816F
:101CE000BE81481759076A077B0729F0F8018589E3
:101CF00003C081E001C080E026960FB6F894DEBFF5
:101D00000FBECDBFDF91CF911F910F910895DC01E0
:101D10001C96ED91FC911D9780819181DC01ED91E4
:101D2000FC910680F781E02D0994DC011C96ED9171
:101D3000FC911D9780819181DC01ED91FC910484DF
:101D4000F585E02D0994CF93DF931F92CDB7DEB7D1
:101D50006983DC01ED91FC910280F381E02D41E08B
:101D600050E0BE016F5F7F4F09950F90DF91CF91DB
:101D700008950F931F93CF93DF9300D000D000D02E
:101D8000CDB7DEB7DC01ED91FC91048CF58DE02D33
:101D900025E833E03A832983DB0112960D911D91EA
:101DA0002D913C9115970B831C832D833E8320E05E
:101DB00030E0BE016F5F7F4F099526960FB6F8940D
:101DC000DEBF0FBECDBFDF91CF911F910F91089560
:101DD000DC01ED91FC91028CF38DE02D2BE430E0E1
:101DE00009948091DC0A8111FCCF08958091DB0A6F
:101DF0008F5F843408F080E09091DA0A9817E1F35D
:101E00002FB7F8949091DC0A992341F0E82FF0E085
:101E1000E053F54E60838093DB0A1DC081E0809320
:101E2000DC0A6093151B1092141B82E086BB809124
:101E30006F00826080936F00809180008F7B80684C
:101E400080938000809184009091850040969093CB
:101E50008900809388002FBF81E090E00895FC0105
:101E6000848583FF0DC084A195A1A6A1B7A1448D4F
:101E7000558D668D778D841B950BA60BB70B03C014
:101E800080E090E0DC01811520E89207A105B10512
:101E900020F08FEF9FE7A0E0B0E0089580E090E0B1
:101EA0000895CF93DF93EC0162E070E080E090E072
:101EB0000E948D68EC85FD8580819181DC01ED912A
:101EC000FC910284F385E02DDF91CF910994CF93AB
:101ED000DF93EC0162E070E080E090E00E948D68AA
:101EE000EC85FD8580819181DC01ED91FC91008480
:101EF000F185E02DDF91CF910994EF92FF920F933E
:101F00001F93CF93DF937C01EB018A0162E070E0C5
:101F100080E090E00E948D68D7011C96ED91FC91C5
:101F20001D97A801BE0180819181DF91CF911F9102
:101F30000F91FF90EF900C945A87EF92FF920F93BE
:101F40001F93CF93DF93EC018B017A0162E070E085
:101F500080E090E00E948D68A701B8018C859D8586
:101F6000DF91CF911F910F91FF90EF900C9437501C
:101F7000CF92DF92EF92FF920F931F93CF93DF9355
:101F800000D000D000D0CDB7DEB78C016B017A0154
:101F9000FC01848595850E94B77BF801268585E83C
:101FA00093E09A838983F60182819381A481B5812C
:101FB0008B839C83AD83BE83A701BE016F5F7F4F80
:101FC000F801848595850E944F4DF801858B90E03E
:101FD00026960FB6F894DEBF0FBECDBFDF91CF912E
:101FE0001F910F91FF90EF90DF90CF9008950C9686
:101FF0000C94FD788F929F92AF92BF92CF92DF9216
:10200000EF92FF920F931F93CF93DF931F92CDB761
:10201000DEB78C01FC01848C958CA68CB78CC08CAF
:10202000D18CE28CF38CBE016F5F7F4F0C960E94C7
:102030007F88019719F4898190E002C08FEF9FEFAC
:102040008F3FFFEF9F0749F0F801848E958EA68E93
:10205000B78EC08ED18EE28EF38E0F90DF91CF912E
:102060001F910F91FF90EF90DF90CF90BF90AF90B6
:102070009F908F900895CF93DF931F92CDB7DEB7D7
:10208000BE016F5F7F4F0C960E947F88019719F405
:10209000898190E002C08FEF9FEF0F90DF91CF9189
:1020A00008950C960C94C2782FEA32E0FC0131833B
:1020B00020830C94383ECF93DF93EC010E945410A0
:1020C000CE01DF91CF910C94E0A58F929F92AF92B9
:1020D000BF92CF92DF92EF92FF920F931F93CF9315
:1020E000DF93EC018B0169017A0162E070E080E02E
:1020F00090E00E948D680E94C7684B015C01D80186
:102100008D919C91DC01ED91FC910084F185E02D95
:102110000995892B69F40E94C768DC01CB018819F5
:102120009909AA09BB098C159D05AE05BF0538F3B1
:10213000F801608171814DE0CE010E943287CE01AD
:102140000E942484CE01DF91CF911F910F91FF90C7
:10215000EF90DF90CF90BF90AF909F908F900895B9
:10216000CF93DF93EC0163E078E00E94517E40E87A
:102170005BE167E87BE1CE010E94798B1BA2DF91D6
:10218000CF910895CF93DF93EC0160E078E00E9457
:10219000517E40E85BE167E87BE1CE010E94798BEC
:1021A000813079F46DEF77E0CE010E94517E40E8F6
:1021B0005BE167E87BE1CE010E94798B91E08130A1
:1021C00009F090E0892FDF91CF9108958F929F922F
:1021D000AF92BF92DF92EF92FF920F931F93CF9334
:1021E000DF93EC01D62E1BA1112391F00E94C7684A
:1021F0008CA09DA0AEA0BFA0DC01CB0188199909DD
:10220000AA09BB0980319742A105B10508F454C061
:10221000CE010E94B77B84E0F82EE12CDE1409F495
:102220004AC06E817F81665F7F4F072E000C880B4E
:10223000990B0E948D6869EF77E0888199810E94EF
:1022400029884E815F81440F551F052E000C660BB7
:10225000770B00E81BE127E83BE1CE010E94378BBA
:10226000182F81111BC0FA94F11018C08A8587FDC0
:102270000DC060E00E94236761E070E080E090E0C4
:102280000E948D6861E08A850E9423676AEF70E092
:1022900080E090E00E948D6894E0F92EE394113084
:1022A00009F0BCCF1BA30E94C7686CA37DA38EA3BB
:1022B0009FA311E001C010E0812FDF91CF911F910A
:1022C0000F91FF90EF90DF90BF90AF909F908F9015
:1022D00008951F920F920FB60F9211240BB60F9212
:1022E0002F933F934F935F936F937F938F939F931E
:1022F000AF93BF93CF93EF93FF9329B1C091711B1D
:102300008091B91B9091B51B322F30959323822376
:10231000892B90917300C227C923C8232093711B76
:10232000CC23C1F1C0FF05C0E091721BF091731B7B
:102330000995C1FF05C0E091741BF091751B0995CB
:10234000C2FF05C0E091761BF091771B0995C3FF92
:1023500005C0E091781BF091791B0995C4FF05C079
:10236000E0917A1BF0917B1B0995C5FF05C0E091B8
:102370007C1BF0917D1B0995C6FF05C0E0917E1B7B
:10238000F0917F1B0995C7FF05C0E091801BF0917C
:10239000811B0995FF91EF91CF91BF91AF919F91D3
:1023A0008F917F916F915F914F913F912F910F90FE
:1023B0000BBE0F900FBE0F901F9018951F920F929B
:1023C0000FB60F9211240BB60F922F933F934F939A
:1023D0005F936F937F938F939F93AF93BF93CF93AD
:1023E000EF93FF9326B1C091821B8091BA1B90910D
:1023F000B61B322F309593238223892B90916D0049
:10240000C227C923C8232093821BCC23C1F1C0FF5C
:1024100005C0E091831BF091841B0995C1FF05C0A5
:10242000E091851BF091861B0995C2FF05C0E091E4
:10243000871BF091881B0995C3FF05C0E091891B9C
:10244000F0918A1B0995C4FF05C0E0918B1BF091A8
:102450008C1B0995C5FF05C0E0918D1BF0918E1B6B
:102460000995C6FF05C0E0918F1BF091901B09955F
:10247000C7FF05C0E091911BF091921B0995FF9158
:10248000EF91CF91BF91AF919F918F917F916F917C
:102490005F914F913F912F910F900BBE0F900FBE08
:1024A0000F901F9018951F920F920FB60F92112444
:1024B0000BB60F922F933F934F935F936F937F933E
:1024C0008F939F93AF93BF93CF93EF93FF9323B1DA
:1024D000C091931B8091BB1B9091B71B322F3095FD
:1024E00093238223892B90916C00C227C923C82390
:1024F0002093931BCC23C1F1C0FF05C0E091941B36
:10250000F091951B0995C1FF05C0E091961BF091D4
:10251000971B0995C2FF05C0E091981BF091991B8C
:102520000995C3FF05C0E0919A1BF0919B1B09958B
:10253000C4FF05C0E0919C1BF0919D1B0995C5FF50
:1025400005C0E0919E1BF0919F1B0995C6FF05C039
:10255000E091A01BF091A11B0995C7FF05C0E09178
:10256000A21BF091A31B0995FF91EF91CF91BF9111
:10257000AF919F918F917F916F915F914F913F911B
:102580002F910F900BBE0F900FBE0F901F901895BC
:102590001F920F920FB60F9211240BB60F922F932A
:1025A0003F934F935F936F937F938F939F93AF93DB
:1025B000BF93CF93EF93FF9320B1C091A41B809161
:1025C000BC1B9091B81B322F309593238223892B0B
:1025D00090916B00C227C923C8232093A41BCC234E
:1025E000C1F1C0FF05C0E091A51BF091A61B0995A4
:1025F000C1FF05C0E091A71BF091A81B0995C2FF80
:1026000005C0E091A91BF091AA1B0995C3FF05C065
:10261000E091AB1BF091AC1B0995C4FF05C0E091A4
:10262000AD1BF091AE1B0995C5FF05C0E091AF1B36
:10263000F091B01B0995C6FF05C0E091B11BF09168
:10264000B21B0995C7FF05C0E091B31BF091B41B05
:102650000995FF91EF91CF91BF91AF919F918F918C
:102660007F916F915F914F913F912F910F900BBE92
:102670000F900FBE0F901F9018951F920F920FB6DC
:102680000F9211240BB60F922F933F934F935F93AA
:102690006F937F938F939F93AF93BF93EF93FF932A
:1026A000E0916F1BF091701B0995FF91EF91BF9125
:1026B000AF919F918F917F916F915F914F913F91DA
:1026C0002F910F900BBE0F900FBE0F901F9018957B
:1026D0001F920F920FB60F9211240BB60F922F93E9
:1026E0003F934F935F936F937F938F939F93AF939A
:1026F000BF93EF93FF93E0916D1BF0916E1B0995D3
:10270000FF91EF91BF91AF919F918F917F916F91C9
:102710005F914F913F912F910F900BBE0F900FBE85
:102720000F901F9018951F920F920FB60F921124C1
:102730000BB60F922F933F934F935F936F937F93BB
:102740008F939F93AF93BF93EF93FF93E0916B1B96
:10275000F0916C1B0995FF91EF91BF91AF919F9103
:102760008F917F916F915F914F913F912F910F903A
:102770000BBE0F900FBE0F901F901895CF92DF9257
:10278000EF92FF920F931F93CF93DF93CDB7DEB7F6
:102790002B970FB6F894DEBF0FBECDBF9A01AB01E9
:1027A000BC01CE0101960E946510CE0101960E94E7
:1027B000F48E882331F060E377E0CE0101960E9429
:1027C0001F868E01095F1F4F85E0F80111928A95DF
:1027D000E9F745E050E0B801CE0101960E94588922
:1027E00040E150E060E070E0C8010E9469A66B0122
:1027F0007C01CE0101960E944D86C6012B960FB634
:10280000F894DEBF0FBECDBFDF91CF911F910F9126
:10281000FF90EF90DF90CF900895CF93DF93EC017E
:1028200069E078E00E94517E48EE53E060E070E09D
:10283000CE010E94BE138F3F910589F466E078E0D7
:10284000CE010E94517E48EE53E060E070E0CE0180
:102850000E94BE138F3F910511F480E090E09987AC
:102860008887DF91CF9108958F929F92AF92BF9208
:10287000FF920F931F93CF93DF93EC01FBA0FF20F8
:1028800021F08BA1882331F008C065E00E94E6109A
:102890008111F7CF84E090E0FEC088859985892B6F
:1028A00019F4CE010E940D1466EF77E0CE010E946C
:1028B000517E40E157E260E070E0CE010E94BE131D
:1028C000288539852130364009F0A8C0833291052A
:1028D00009F4D7C05CF4833091052CF48130910564
:1028E0000CF4A6C0B9C0439789F0C9C083349105E0
:1028F0000CF0AFC0803491050CF0AEC0843291056D
:1029000009F4ACC0879709F4A9C0B9C065E0CE014D
:102910000E94E610882309F4B4C088859985892B24
:1029200019F4CE010E940D14888599858130964056
:10293000B9F06AEE77E0CE010E94517E40E85BE19B
:1029400067E87BE1CE010E94798B813021F0CE01D6
:102950000E94B01096C0CE010E94C2108823B9F325
:1029600067EE77E0CE010E94517E40E85BE167E8C8
:102970007BE1CE010E94798B813049F71BA28885CB
:1029800099858130964029F460ED77E080E090E011
:1029900004C064E670E080E090E00E948D680E94D0
:1029A000C7684B015C010E94C768DC01CB01881934
:1029B0009909AA09BB0980369A4EA105B10568F4A8
:1029C00061E0CE010E94E610811107C06AEF70E05D
:1029D00080E090E00E948D68E6CF888599858130FF
:1029E0009640A9F063EE77E0CE010E94517E40E868
:1029F0005BE167E87BE1CE010E94798B813009F0D1
:102A0000A6CFCE010E94C210882309F4A0CFCE0128
:102A10000E94B010CE010E94868B33C08532910592
:102A2000E9F04CF48432910554F582329105A4F416
:102A3000892B49F124C08D32910544F48B329105E4
:102A4000F4F48A97E1F462EF77E00CC08F329105DD
:102A500039F08F3F910599F402E016C003E014C0ED
:102A60006EEE77E0CE010E94517E40E85BE167E8C0
:102A70007BE1CE010E94798BCE010E94C21004E05E
:102A800003C001E001C000E010E0F11003C0CE017E
:102A90000E94B010C801DF91CF911F910F91FF905C
:102AA000BF90AF909F908F900895BF92CF92DF928A
:102AB000EF92FF920F931F93CF93DF93CDB7DEB7C3
:102AC0002C970FB6F894DEBF0FBECDBF6C01FC0192
:102AD000848595850E94B77BF601E484F584C7015F
:102AE0000E94B77BF701178E10A211A212A2B3A009
:102AF000BB2041F160EE77E0C7010E94517E28E8DB
:102B000033E140E050E0B701CE0107960E94651026
:102B1000F7018085918581309640D9F46CED77E09E
:102B2000C7010E94517E00E81BE127E83BE148E82D
:102B300053E160E070E0C7010E94378BC7010E943B
:102B4000C21007C065E0C7010E94E6108111D2CF14
:102B50002AC0BE01695F7F4FCE0101960E94CF86D9
:102B6000AE014F5F5F4F69ED77E0C7010E94ED8BCB
:102B7000CE0101960E944D8600E81BE127E83BE16B
:102B800048E853E160E070E0C7010E94378BC7015D
:102B90000E94C210B11003C0C7010E94B010CE0144
:102BA00007960E944D86F601848595850E94B77B25
:102BB000F601158A2C960FB6F894DEBF0FBECDBF76
:102BC000DF91CF911F910F91FF90EF90DF90CF9009
:102BD000BF9008952F923F924F925F926F927F9293
:102BE0008F929F92AF92BF92CF92DF92EF92FF921D
:102BF0000F931F93CF93DF93CDB7DEB760970FB6D8
:102C0000F894DEBF0FBECDBF6C017B01588B4F87A0
:102C10003901DC011C968D919C911D970E94B77B18
:102C2000F601F685FD87D6011C960D911C911D9726
:102C3000F80133A0332091F1B701CE0101960E9433
:102C4000D8865801F1E1AF0EB11CBE016F5F7F4F16
:102C5000C5010E94B484982ECE0101960E944D8633
:102C6000911023C0B701CE0101960E94D886BE0103
:102C70006F5F7F4FC5010E94FF84CE0101960E94C5
:102C80004D86D80159961C9259975A961C925A977C
:102C90005B961C925B975C961C9207C065E0C8012E
:102CA0000E94E6108111C8CFFAC01B821C821D82CF
:102CB0001E82F801418D528D638D748D8B819C81B4
:102CC000AD81BE81481759076A077B0709F0B4C078
:102CD0006AEB78E0CE0107960E94D88660E170E04A
:102CE000CE0107960E940B850E94C7684B015C01CC
:102CF00028EE33E0D3010E94E0AE2B013C01D80165
:102D000093962C90211067C065E0C8010E94E610E0
:102D1000811161C085E893E09A8389831B821C82BC
:102D20001D821E827CC00E94C768DC01CB0188190D
:102D30009909AA09BB0984159505A605B70590F45C
:102D400062E070E080E090E00E948D68F801808190
:102D50009181DC01ED91FC910084F185E02D0995D4
:102D600004970CF3F801608171814DE0CE0101966A
:102D70000E943287BE016F5F7F4FCE0107960E948F
:102D8000C584CE0101960E944D86CE0107960E9411
:102D90002484CE0107960E94F48E811116C060ED46
:102DA00077E0CE0101960E949786BE016F5F7F4F4C
:102DB000CE0107960E94B4848E87CE0101960E94B0
:102DC0004D86BE85BB2309F487C064EC79E080E0C2
:102DD00090E00E948D680E94C768DC01CB018819D1
:102DE0009909AA09BB0984159505A605B70538F404
:102DF000A70166ED77E0C8010E94DF7DA7CF211013
:102E000089CFF12CC8010E94B010FF2009F482CFB5
:102E1000BE01695F7F4FCE0101960E945D7DCE01AC
:102E200007960E944D868B819C81AD81BE81F80101
:102E3000818F928FA38FB48FD80159964D915D9158
:102E40006D917C915C971B821C821D821E828B81FE
:102E50009C81AD81BE81481759076A077B07C1F085
:102E600085E893E09A838983F801818D928DA38D03
:102E7000B48D8B839C83AD83BE832D854F8558890C
:102E8000BE016F5F7F4FC8010E944F4DF82E01C0F9
:102E9000F12C311003C0C8010E94B0108F2DD60153
:102EA00055968C9390E060960FB6F894DEBF0FBEF7
:102EB000CDBFDF91CF911F910F91FF90EF90DF90E9
:102EC000CF90BF90AF909F908F907F906F905F90CA
:102ED0004F903F902F90089521109ACFFF24F394A4
:102EE00091CFCF92DF92EF92FF92E091B011F091EB
:102EF000B1118281882339F00780F085E02D099592
:102F00006B017C0104C0C380D480E580F68020E0A2
:102F10003CE34CE156ECC701B6010E94FEAC8823AD
:102F2000A9F028ED32ED43E25CEBC701B6010E9447
:102F3000FEAC882399F028E439EF41E550E4C7015D
:102F4000B6010E9464AD6B017C0108C088EDC82EFB
:102F500082EDD82E83E2E82E8CEBF82EC701B60165
:102F6000FF90EF90DF90CF9008950C94E0A5680F4C
:102F7000791F20E030E086179707D9F0FC014191D6
:102F8000CF012427422F42954227042E469546958D
:102F90004025042E469540254770022E232F469546
:102FA00007944795302D24270694479530252427EC
:102FB000E2CFC901089508958F929F92AF92BF9278
:102FC000CF92DF92EF92FF920F931F93CF93DF93F5
:102FD00000D000D000D0CDB7DEB76C017B018A01F4
:102FE0001092C11B1092C01B6FE270E10E94CFA82B
:102FF000892B09F051C06CE170E1C7010E94CFA894
:10300000892B71F4B80185E19CE00E94CCB266EF97
:103010007FE08EE69CE00E94298865E17CE052C555
:103020006DEE7FE0C7010E94CFA8892B71F4B80133
:103030008FEE9BE00E94CCB262ED7FE08EE69CE0DA
:103040000E9429886FEE7BE03DC561EC7FE0C701FF
:103050000E94CFA8892B71F4B8018BE39CE00E94F9
:10306000CCB26EE97FE08EE69CE00E9429886BE39B
:103070007CE028C566E87FE08EE69CE00E94298817
:10308000B7018EE69CE00E9407886AE677E08EE64C
:103090009CE00E94078815C560E87FE0C6010E9499
:1030A000CFA8892B09F0AFC06FE77FE08EE69CE0E8
:1030B0000E9429884AE050E06091BA158EE69CE0B3
:1030C0000E94DE876DE377E08EE69CE00E94078831
:1030D000B7018EE69CE00E9407886CE77FE08EE6F1
:1030E0009CE00E942988B8018EE69CE00E94078837
:1030F000D12CAD2CB12CC501880F991F9C012A51F0
:103100003F4E5901D901ED91FC9161897289CE013F
:1031100001960E94D886B70189819A810E94C3B224
:103120004C01CE0101960E944D86892869F4F50173
:1031300080819181DC0152961C930E935197B801C6
:103140000E948C8958E0D52ED394B7E0BD1588F63F
:10315000E8E0DE1619F06AE67FE04BC064E67FE047
:10316000C7010E94CFA8892B09F041C08091BA15F0
:1031700090E00897CCF566E57FE08EE69CE00E9443
:103180002988E091BA15F0E0EE0FFF1FEA51FF4EDB
:103190000190F081E02D61897289CE0101960E9433
:1031A000D886BE016F5F7F4F8EE69CE00E94098843
:1031B000CE0101960E944D8664E57FE08EE69CE09C
:1031C0000E944D88E091BA15F0E0EE0FFF1FEA5122
:1031D000FF4E80819181DC0152961C930E93519792
:1031E000B8010E948C8909C06CE37FE002C067E2ED
:1031F0007FE08EE69CE00E944D888091BA158F5F3B
:103200008093BA1563C460E27FE0C6010E94CFA834
:10321000892B09F042C166E17FE0C7010E94CFA877
:10322000892BB9F460E07FE08EE69CE00E9429885B
:10323000B8018EE69CE00E94CC87B8018AE39BE04F
:103240000E94CCB28AE39BE09093200D80931F0DE7
:103250003DC467EE7EE0C7010E94CFA8892B09F02C
:103260006AC04AE050E0BE016F5F7F4FC8010E9414
:1032700097A76B017C0116161706180619060CF0A5
:103280004BC08091C01B9091C11B829709F444C030
:10329000B9E6CB16B1E0DB06E104F104ECF062EB39
:1032A0007EE08EE69CE00E94298868E671E08EE66A
:1032B0009CE00E94A38C65E97EE08EE69CE00E9483
:1032C0002988C701B6010E947A8928E6C22EDD242A
:1032D000D394E12CF12C17C06CE67EE08EE69CE0E6
:1032E0000E942988B701A6018EE69CE00E94718C9D
:1032F00068E57EE08EE69CE00E9429886FE08EE61D
:103300009CE00E945D8CD092220DC092210DD09243
:10331000370BC092360BDAC369E37EE08EE69CE0A1
:103320000E94298868E671E08EE69CE00E94A38CEA
:103330006CE27EE082C26FE17EE0C7010E94CFA80E
:10334000892B29F54AE050E0BE016F5F7F4FC8012D
:103350000E9497A76B017C01DC01CB010197A109B9
:10336000B1090497A105B10578F48091C01B909133
:10337000C11B829749F0D0922E15C0922D15C09294
:10338000390B69E07EE059C260EE7DE056C265ED22
:103390007DE0C7010E94CFA8892B09F54AE050E0E3
:1033A000BE016F5F7F4FC8010E9497A76B017C0130
:1033B000653071058105910578F48091C01B90916D
:1033C000C11B829749F0D0922E15C0922D15C09244
:1033D000390B61EC7DE031C268E97DE02EC26EE818
:1033E0007DE0C7010E94CFA8892B29F54AE050E073
:1033F000BE016F5F7F4FC8010E9469A66B017C010F
:10340000DC01CB010C96A11DB11D4997A105B105A9
:1034100078F48091C01B9091C11B829749F068E7B6
:103420007DE08EE69CE00E942988C092380B09C29C
:1034300065E47DE002C265E37DE0C7010E94CFA89C
:10344000892BE9F464E27DE08EE69CE00E94298805
:10345000B8018EE69CE00E94CC87F8010190002024
:10346000E9F73197E01BF10BFC9718F0D801DD96D6
:103470001C92B8018FE49BE00E94CCB227C368E1A4
:103480007DE08EE69CE00E942988B7018EE69CE0F4
:103490000E94078863E17DE010C36BE07DE0C60118
:1034A0000E94CFA8892B71F46EEF7CE08EE69CE041
:1034B0000E942988B7018EE69CE00E94078869EF88
:1034C0007CE0FBC261EF7CE0C6010E94CFA8892BA3
:1034D00009F0CAC16AEE7CE0C7010E94CFA8892B1F
:1034E00009F068C064ED7CE08EE69CE00E942988CB
:1034F0006091601370916113CE0101960E94D8868D
:10350000BE016F5F7F4F8EE69CE00E940988CE016E
:1035100001960E944D86F80101900020E9F731974D
:103520007F01E01AF10A8E2D10936113009360134E
:10353000813250F06E2D88E698E00E947052F801BA
:10354000EE0DF11D108280E220916413309165131D
:10355000232B49F490E002960E9448A590936513AE
:103560008093641304C086E398E00E94EC6E80911F
:10357000641390916513009739F460E070E08CE07B
:1035800098E00E945C520BC0B8010E94CCB28091BE
:1035900064139091651390936113809360136CECA6
:1035A0007CE08EE69CE00E94298860916013709117
:1035B00061136FC064EC7CE0C7010E94CFA8892B27
:1035C00009F077C06DEA7CE08EE69CE00E942988D5
:1035D0006091621370916313CE0101960E94D886A8
:1035E000BE016F5F7F4F8EE69CE00E940988CE018E
:1035F00001960E944D86F80101900020E9F731976D
:103600007F01E01AF10A8E2D109363130093621369
:10361000803450F06E2D87EF98E00E947052F801D0
:10362000EE0DF11D10828FE3209166133091671328
:10363000232B49F490E002960E9448A590936713CB
:103640008093661304C084EC98E00E94EC6E809135
:10365000661390916713009739F460E070E089E990
:1036600098E00E945C520BC0B8010E94CCB28091DD
:10367000661390916713909363138093621365EAC6
:103680007CE08EE69CE00E94298860916213709134
:103690006313CE0101960E94D886BE016F5F7F4FF3
:1036A0008EE69CE00E940988CE0101960E944D861C
:1036B000E9C162E97CE0C7010E94CFA8892B49F5E6
:1036C0004AE050E0BE016F5F7F4FC8010E9469A6CB
:1036D0006B017C01DC01CB0184569109A109B10980
:1036E0008D3C9447A105B10588F48091C01B909151
:1036F000C11B829759F061E77CE08EE69CE00E9456
:103700002988D0920201C09201019BC062E37CE053
:1037100094C06FE17CE0C7010E94CFA8892BD9F447
:103720004AE050E0BE016F5F7F4FC8010E9469A66A
:103730006B017C01693873418105910548F48091E2
:10374000C01B9091C11B829719F06FEF7BE075C091
:1037500063EC7BE072C066EB7BE0C7010E94CFA800
:10376000892BD9F44AE050E0BE016F5F7F4FC8015A
:103770000E9469A66B017C01633371058105910587
:1037800048F48091C01B9091C11B829719F06CE99D
:103790007BE053C068E67BE050C067E57BE0C70193
:1037A0000E94CFA8892B09F54AE050E0BE016F5F67
:1037B0007F4FC8010E9469A66B017C016F317105C2
:1037C0008105910578F48091C01B9091C11B82976F
:1037D00049F069E37BE08EE69CE00E942988C09274
:1037E00000012FC061E07BE028C061EF7AE0C701F3
:1037F0000E94CFA8892B51F54AE050E0BE016F5FCF
:103800007F4FC8010E9469A66B017C018FE1C81639
:10381000D104E104F10478F48091C01B9091C11BA4
:10382000829749F064ED7AE08EE69CE00E94298858
:10383000C092E60A06C06DE97AE08EE69CE00E943E
:103840002988C701B6010E947A8940C160E97AE0FF
:103850008EE69CE00E942988B7018EE69CE00E94DB
:1038600007886BE87AE029C166E87AE0C6010E9421
:10387000CFA8892B09F0ABC06BE77AE0C7010E94A3
:10388000CFA8892BD1F4F80101900020E9F73197F6
:10389000E01BF10B749718F0D80155961C92B801F3
:1038A0008AEE9AE00E94CCB26FE67AE08EE69CE067
:1038B0000E9429886AEE7AE005C166E67AE0C701CF
:1038C0000E94CFA8892BC9F4F80101900020E9F7E4
:1038D0003197E01BF10B749710F0F801158AB801CD
:1038E0008FEF9AE00E94CCB264E57AE08EE69CE02D
:1038F0000E9429886FEF7AE0E5C06AE47AE0C701A8
:103900000E94CFA8892BD1F4F80101900020E9F79B
:103910003197E01BF10B3A9718F0D8011B961C92D7
:10392000B80184E19BE00E94CCB26FE37AE08EE6BE
:103930009CE00E94298864E17BE0C4C062E37AE0F5
:10394000C7010E94CFA8892BA1F56EE27AE0C801D9
:103950000E94CFA8892B51F568E17AE08EE69CE0C1
:103960000E944D8867E470E089EE9AE00E94B717E4
:103970009093E80A8093E70A97EEE92E9AE0F92EF1
:1039800000E010E0F701D1907F01C8010E9422AE53
:10399000D81621F06D2DC8010E942AAE0F5F1F4F6F
:1039A0000934110579F762E07AE05CC06EED79E0E8
:1039B00060C064ED79E08EE69CE00E942988B70142
:1039C0008EE69CE00E9407886FEC79E076C06AEC96
:1039D00079E0C6010E94CFA8892B09F056C063EC9C
:1039E00079E0C7010E94CFA8892B09F06FC06DEB69
:1039F00079E0C8010E94CFA8892B59F56CE979E0DC
:103A00008EE69CE00E944D886FE271E082E39BE0CD
:103A10000E94B7179093310B8093300B80E3E82E10
:103A20008BE0F82E09E410E0D701DD907D01C8019C
:103A30000E9422AED81621F06D2DC8010E942AAE38
:103A40000F5F1F4F0A37B1E01B0771F766E879E097
:103A500009C061E879E0C8010E94CFA8892B39F438
:103A600062E679E08EE69CE00E944D882FC06EE30E
:103A700079E08EE69CE00E942988B8018EE69CE001
:103A80000E94078863E377E01DC06EE279E08EE66E
:103A90009CE00E942988B6018EE69CE00E9407887F
:103AA0006BE279E08EE69CE00E944D88B7018EE6DD
:103AB0009CE00E94078869E279E08EE69CE00E9423
:103AC0002988B8018EE69CE00E94CC8781E090E0D6
:103AD00026960FB6F894DEBF0FBECDBFDF91CF9113
:103AE0001F910F91FF90EF90DF90CF90BF90AF901C
:103AF0009F908F900895FC0183A108956091030128
:103B000070910401072E000C880B990B0E9405ADE3
:103B100008958F929F92AF92BF92FF920F931F933F
:103B2000CF93DF93EC0181E08AA78AA19BA1ACA18E
:103B3000BDA1892B8A2B8B2B49F4E881F981008464
:103B4000F185E02DCE01099500E001C001E0E8819A
:103B5000F98102A4F3A5E02DCE010995F82E882362
:103B600061F0E881F98100A4F1A5E02DCE0109956D
:103B7000811123C01AA610E021C00E94C7688AA044
:103B80009BA0ACA0BDA0DC01CB0188199909AA09B2
:103B9000BB09898C9A8CAB8CBC8C88159905AA05BD
:103BA000BB0558F3E881F9810680F781E02DCE014D
:103BB0000995182F8823A9F0D4CF11E0011106C070
:103BC000E881F9810684F785E02D07C0F1100CC06B
:103BD000E881F9810484F585E02DCE01099518234B
:103BE00003C00111F5CFECCF812FDF91CF911F9151
:103BF0000F91FF90BF90AF909F908F9008951F936B
:103C0000CF93DF93EC01E881F98102A4F3A5E02DC5
:103C10000995882379F0E881F98104A0F5A1E02DC8
:103C2000CE010995182F89A187FD05C060E00E948B
:103C3000236701C011E0812FDF91CF911F9108957B
:103C4000CF93DF93FC01828187FD08C0EF0160E024
:103C50000E9423671AA21BA21CA21DA2DF91CF9172
:103C60000895CF93DF93EC018BA187FD08C061E03D
:103C70000E94B66761E08BA10E94236708C08CA9EF
:103C80009DA9AEA9BFA9892B8A2B8B2B31F40E9449
:103C9000C7686CAB7DAB8EAB9FABC85BDF4F8881D9
:103CA00086608883DF91CF910895CF93DF93FC01E5
:103CB00023A521112CC0EC01838187FD04C060E0A5
:103CC00085810E94B6678B8587FD09C061E00E94EF
:103CD000B6676C8581E068278B850E9423678D819C
:103CE00087FD09C061E00E94B6676E8181E06827A8
:103CF0008D810E94236789A187FD07C061E00E9432
:103D0000B66760E089A10E94236781E08BA7DF91FD
:103D1000CF910895CF93DF93EC018A8187FD11C085
:103D20008B8587FD05C06C8591E069270E9423671C
:103D300061E08A810E94B66761E08A810E94236700
:103D400008C08AA19BA1ACA1BDA1892B8A2B8B2B7A
:103D500031F40E94C7686AA37BA38CA39DA3DF9163
:103D6000CF9108958F929F92AF92BF92FF920F933F
:103D70001F93CF93DF93CDB7DEB728970FB6F89494
:103D8000DEBF0FBECDBF8C0181EF98ED9093040193
:103D9000809303019A8389839C838B8383E68F833B
:103DA0008DE988878FE097E29E838D830E94C768A4
:103DB0004B015C01D801ED91FC91008CF18DE02D5F
:103DC000AE014D5F5F4FBE016F5F7F4FC801099528
:103DD000F82E89819A8190930401809303010097C2
:103DE00019F0813F984DE1F46AEF70E080E090E0D7
:103DF0000E948D6889819A81009719F0813F984DC2
:103E000079F40E94C768DC01CB0188199909AA09D5
:103E1000BB0988399A43A105B10510F4F110CACF46
:103E2000D801ED91FC91028CF38DE02D9E012B5F6A
:103E30003F4FAE01485F5F4FBE01695F7F4FC801D2
:103E40000995F822D801ED91FC91048CF58DE02DB7
:103E5000C80109958F2D28960FB6F894DEBF0FBEC6
:103E6000CDBFDF91CF911F910F91FF90BF90AF9089
:103E70009F908F900895CF93DF93EC018D8187FD04
:103E800011C06E810E9423676F81788589859A852C
:103E90000E948D686E8181E068278D810E94236772
:103EA00081E001C080E0DF91CF910895CF92DF9251
:103EB000EF92FF920F931F93CF93DF93EC010E9439
:103EC000C7686B017C01E881F9810484F585E02DE8
:103ED000CE0109958A8187FD43C08B8187FD1AC079
:103EE0000E94C768DC01CB018C199D09AE09BF098E
:103EF0000D891E892F89388D80179107A207B30776
:103F000058F58B810E945F662C8130E08217930701
:103F100019F5E6CF8D899E89AF89B88D892B8A2BBB
:103F20008B2B89F00E94C768DC01CB018C199D099D
:103F3000AE09BF090D891E892F89388D8017910719
:103F4000A207B30778F360E08A810E9423671AA270
:103F50001BA21CA21DA204C08B810E945F66F3CF2E
:103F600081E0DF91CF911F910F91FF90EF90DF9053
:103F7000CF900895BF92CF92DF92EF92FF920F936E
:103F80001F93CF93DF936B018C01E12CF12CB02EAA
:103F9000D12FF801C1918F01CC23F1F0C114D104CC
:103FA00049F06C2F0C2E000C770BC6010E94B8B2A2
:103FB000892B91F4EF2851F06C2F0C2E000C770B0D
:103FC00085E397E00E94B8B2892B31F48C2F90E002
:103FD0000E94C6A87C01DBCF8B2D9D2FDF91CF9156
:103FE0001F910F91FF90EF90DF90CF90BF900895B9
:103FF0000F931F93CF93DF938C01EC010990002066
:10400000E9F721970C171D0740F48A9190E00E9470
:10401000C6A8892B11F01882F5CFC801DF91CF9186
:104020001F910F9108952F923F924F925F926F923E
:104030007F928F929F92AF92BF92CF92DF92EF9238
:10404000FF920F931F93CF93DF93CDB7DEB7CA5C78
:10405000D1090FB6F894DEBF0FBECDBF2B01FE0114
:10406000EB59FF4F1192119220E3DF01322F1D9285
:104070003A95E9F7FE01E956FF4F11921192DF01DF
:104080001D922A95E9F7C12CD12CA12CB12C835873
:104090009D4F3C01FE0131967F01CE010496C7532E
:1040A000DF4F99838883C95CD040B701C3010E9468
:1040B000F335892B09F4B9C09FEFA91AB90AA1E019
:1040C000AA16B104A1F489818F3E89F48A818B3BC1
:1040D00071F48B818F3B59F4C753DF4F8881C95CE2
:1040E000D040C653DF4F9881CA5CD04001C0C701A1
:1040F0000E94F81F8C014801F80131908F01332094
:1041000031F0832D90E00E94C6A8892BA1F7632D82
:10411000032C000C770B87E397E00E94B8B2892B41
:1041200021F6C956DF4F8881C759D040882361F0F6
:10413000332009F4BACFE814F90408F072C0A401DE
:10414000BE0169567F4F5FC0FBE53F1221C03FEFC4
:10415000831A930A6AE377E0C4010E94BA1FDC0164
:104160002C912D3509F057C01C9241E350E0B40169
:10417000CE018B599F4F0E94F1B2CA56DF4F188271
:10418000C659D040C956DF4F1882C759D0408DCF8D
:10419000332009F48ACF6CE377E0C4010E94BA1F90
:1041A000FC0120812D3311F02A33A9F5DC011D9289
:1041B0008D01C4010E94F81F4C0160E070E0C8014D
:1041C0000E94BA1FFC012081211110821801D80120
:1041D0008D918D01882329F090E00E94C6A8892B3B
:1041E000A9F7C1010E94F81F41E350E0B401CE01DC
:1041F00089569F4F0E94F1B2C853DF4F1882C85CA6
:10420000D040A101B401CE018B599F4FF201099515
:10421000892B09F04ACFC114D10409F046CF6501BA
:1042200044CFFBE53F12B7CF92CF8C2DC653DF4F63
:104230000FB6F894DEBF0FBECDBFDF91CF911F91B7
:104240000F91FF90EF90DF90CF90BF90AF909F9035
:104250008F907F906F905F904F903F902F90089538
:104260000F931F93CF93DF93EC018C01035E1F4FDD
:10427000C8010E940244CE010E941C5B882369F1A0
:1042800081E080930D0DC8010E94024489E791E10D
:104290000E94EC6ECE010E9471588F8187FD03C091
:1042A00061E00E942367C8010E9402448D859E85BB
:1042B0000E94A447C8010E940244CE010E943B8391
:1042C00061E0CE010E947958CE010E9469588DE4C8
:1042D00091E10E94EC6E10920D0D80910B0D8823E0
:1042E00039F0E881F9810680F781E02DCE0109954A
:1042F00060E0CE01DF91CF911F910F910C94215777
:104300000F931F93CF93DF938B01EA01BC018EE6DD
:104310009CE00E94298860E28EE69CE00E94EE8785
:10432000B8018EE69CE00E94078860E28EE69CE081
:104330000E94EE87CE01DF91CF911F910F910C94D7
:10434000EC6ECF93DF93EC01FB0164A175A10E9499
:10435000D886CE01DF91CF910895EF92FF920F930F
:104360001F93CF93DF9300D000D000D0CDB7DEB73E
:104370008C017B0164EA71E10E949786F70162A1DA
:10438000062E000C770BCE0101960E940A4CBE014E
:104390006F5F7F4FC8010E94034CCE0101960E94BF
:1043A0004D86C80126960FB6F894DEBF0FBECDBF6E
:1043B000DF91CF911F910F91FF90EF9008958F9211
:1043C0009F92AF92BF92CF92DF92EF92FF920F93A4
:1043D0001F93CF93DF93CDB7DEB762970FB6F894F4
:1043E000DEBF0FBECDBF7C018C01035E1F4F84E892
:1043F00093E0A0E0B0E0F701858F968FA78FB0A380
:1044000080E790E0A0E0B0E08093C6159093C715D8
:10441000A093C815B093C915C8010E942444D701C0
:1044200017968C9187FD08C061E00E94B66760E036
:10443000F70187810E942367D70116968C9187FD2B
:1044400003C061E00E94B667F701818587FD03C064
:1044500061E00E94B667D7011A968C9187FD09C06A
:1044600062E00E94B6676BE97EE7F70182850E94F1
:10447000058FC8010E9402440E94F734C8010E94BF
:1044800002441092660C1092670C1092680C109205
:10449000690CD70118968C9187FD03C062E00E94D9
:1044A000B6670E942935C8010E940244C8010E94D3
:1044B00002440E949E56AB01BC01CE0101960E94AF
:1044C000EF58BE016F5F7F4F88E391E10E94C345C3
:1044D000CE0101960E944D86C8010E940244F70158
:1044E00005851685C8010E944747D80114968C930C
:1044F000C8010E94E74AF8018383A12C9924939470
:10450000D80112968C911297A81608F0A6C0CA2C52
:10451000D12CCC0CDD1CED91FC91EC0DFD1D20810E
:104520003181D9015196ED91FC9152978081882378
:10453000E1F1DF010D900020E9F7CD0185978E179D
:104540009F0709F580858D32F1F485858D32D9F488
:1045500082898D32C1F487898D32A9F4AF014C5D17
:104560005F4F619180E0A82FB0E0A15CB84F9C91B3
:10457000691303C087E191E001C090E08F5F911162
:104580005FC1873180F3F90167857089CE0101969B
:104590000E94D88666E870E1CE0101960E94014B28
:1045A000CE0101960E944D86912CA394BA2CD8017D
:1045B00012968C911297B81608F0A2CF9C91119682
:1045C0008C91E92FF82FEB0DF11DEB0DF11D0190F2
:1045D000F081E02D61897289CE0101960E94D88612
:1045E000D801ED91FC91EC0DFD1D0190F081E02DC5
:1045F00061897289CE0107960E94D886BE016F5FDD
:104600007F4FCE0107960E94B484882ECE01079674
:104610000E944D86CE0101960E944D868820D9F0D9
:10462000D801ED91FC91EC0DFD1D0190F081E02D84
:1046300067857089CE0101960E94D8866FE670E189
:10464000CE0101960E94014BCE0101960E944D863B
:10465000F801B280912CB394AACF992021F08BE37A
:1046600090E10E94EC6EB12CD80112968C911297B9
:10467000B81608F048C0CB2CD12CCC0CDD1CED9129
:10468000FC91EC0DFD1D0190F081E02D6785708996
:10469000CE0107960E94D886F80180819181FC01A5
:1046A000EC0DFD1D0190F081E02D61897289CE0134
:1046B0000D960E94D886BE01635F7F4F8EE69CE018
:1046C0000E94098860E28EE69CE00E94EE87BE01AF
:1046D000695F7F4FCE0101960E94CF86BE016F5F5A
:1046E0007F4F88E390E10E94C345CE0101960E946E
:1046F0004D86CE010D960E944D86CE0107960E94F2
:104700004D86B394B1CF60E28EE69CE00E94F587BF
:10471000D7011D960D911C911E97C8010E9444441B
:10472000C82EC8010E94E74AB82EF70185859685F4
:10473000DC011296DC900E9444440D2D10E0081B11
:10474000110962E171E18EE69CE00E94298860E235
:104750008EE69CE00E94EE874AE050E06D2D8EE6EA
:104760009CE00E94DE8760E28EE69CE00E94EE877D
:104770006EEF70E18EE69CE00E94298860E28EE692
:104780009CE00E94EE87B8018EE69CE00E94A38C1C
:1047900060E28EE69CE00E94EE8764EF70E18EE6B8
:1047A0009CE00E94298860E28EE69CE00E94EE87F1
:1047B0004AE050E06B2D8EE69CE00E94DE8760E2CE
:1047C0008EE69CE00E94EE8768EE70E18EE69CE04B
:1047D0000E94298860E28EE69CE00E94EE874AE013
:1047E00050E06C2D8EE69CE00E94DE8760E28EE653
:1047F0009CE00E94EE8788ED90E10E94EC6EF7014C
:10480000638574856115710521F08EEB90E10E943E
:104810005C528BE990E10E94EC6E62960FB6F894C0
:10482000DEBF0FBECDBFDF91CF911F910F91FF90E3
:10483000EF90DF90CF90BF90AF909F908F900895B2
:10484000E417F50709F08DCEB0CECF93DF93E901E1
:10485000FB011082FA011082C2960E94945E998335
:10486000888381E0DF91CF9108958F929F92AF92DC
:10487000BF92CF92DF92EF92FF921F93CF93DF937D
:104880002FEF3FEF30930401209303011091E50ACD
:10489000112309F43FC0EC017C0122E3E20EF11C7C
:1048A00065E0C7010E94E610182F0E94C7684B01FF
:1048B0005C01C7010E94CD5EC82E880FDD08C114BF
:1048C000D10491F0D0920401C0920301C7010E946B
:1048D000945EE881F981048CF58DE02DCE01099577
:1048E000C7010E94B01016C06AEF70E080E090E04F
:1048F0000E948D680E94C768DC01CB018819990964
:10490000AA09BB0988399A43A105B105D8F6111146
:10491000D0CFD8CF812FDF91CF911F91FF90EF9013
:10492000DF90CF90BF90AF909F908F900895AF92FF
:10493000BF92CF92DF92FF920F931F93CF93DF939B
:10494000EC015B018A0181EF98EDFA01918380838C
:10495000FB0191838083CE01C2960E94CD5EF82E2A
:10496000C82E880FDD08C65ADF4FCE010E944D0EBB
:10497000882319F0CE010E945515F501D182C0821D
:10498000CD28B1F06F2DFF0C770B880B990B0E948F
:1049900005AD2BEE32EE4EEC5FE30E9464AD29E2F2
:1049A0003CE946E353E40E94F1AE0E94CFAF02C05F
:1049B00060E070E0F8017183608381E0DF91CF9166
:1049C0001F910F91FF90DF90CF90BF90AF9008950F
:1049D000C2960C94F2454F925F926F927F928F92A3
:1049E0009F92AF92BF92CF92DF92EF92FF920F937E
:1049F0001F93CF938C012A013B017C0182E3E80ED7
:104A0000F11CC7010E94F245C82F882311F0C1E0B4
:104A100048C05801E7EBAE0EB11C6801F5EBCF0EB4
:104A2000D11CF50140815181F60160817181C7017E
:104A30000E941C5F8823A9F3F801EB5AFF4F1081F5
:104A4000112329F00E94C7684B015C0112C065E088
:104A5000C7010E94E6108111F5CF23C0C7010E9453
:104A6000F24581111AC06AEF70E080E090E00E9488
:104A70008D680E94C768DC01CB0188199909AA09D1
:104A8000BB0984159505A605B70540F3111109C0AA
:104A9000C0E0C7010E94B01004C01111B8CFC1E03E
:104AA000F8CF8C2FCF911F910F91FF90EF90DF9057
:104AB000CF90BF90AF909F908F907F906F905F90BE
:104AC0004F9008953F924F925F926F927F928F9294
:104AD0009F92AF92BF92CF92DF92EF92FF920F938D
:104AE0001F93CF93DF93EC018AA19BA1ACA1BDA141
:104AF000892B8A2B8B2B39F4E881F9810084F1858D
:104B0000E02DCE010995E881F98100A0F1A1E02D09
:104B1000CE0109950E94C7680AA11BA12CA13DA145
:104B2000DC01CB01801B910BA20BB30B098D1A8DFD
:104B30002B8D3C8D80179107A207B30758F3E881AE
:104B4000F98102A4F3A5E02DCE010995811107C0DA
:104B5000E881F98106A0F7A1E02DCE01099583E057
:104B6000382ECE01C2967C016E0195E5C90ED11C8E
:104B70003A94332029F18D8C9E8CAF8CB8A0A4EF91
:104B80008A0EA1E09A1EA11CB11C0E94C7682B01CD
:104B90003C010E94C768DC01CB0184199509A60974
:104BA000B70988159905AA05BB0508F447C0E8812F
:104BB000F9810088F189E02DCE0109958111D8CFC6
:104BC00010E08AA99BA9DC01ED91FC910084F1859C
:104BD000E02D0995892B79F08AA99BA9DC01ED913B
:104BE000FC910284F385E02D099560E070E0CB0133
:104BF0000E948D68E6CF8AA5811109C0E881F981FC
:104C00000480F581E02DCE010995182F04C0C7015D
:104C10000E94868B1823FE01E65AFF4FF586E48634
:104C20001686158AFDABECAB112309F44CC089A1A3
:104C300087FD49C061E00E94236745C0F60180817D
:104C400081110BC065E0C7010E94E610182F882370
:104C500089F1C7010E94B0102DC00EA91FA967E5F8
:104C600077E08AA99BA90E940788B8018AA99BA915
:104C70000E9407888AA99BA9DC01ED91FC9106801E
:104C8000F781E02D099560E070E0CB010E948D680E
:104C900002E817E129E837E148EC50E060E070E015
:104CA000C7010E94378B813021F0F601108210E09D
:104CB00001C011E06AEF70E080E090E00E948D6832
:104CC00011117FCF66CF812FDF91CF911F910F916F
:104CD000FF90EF90DF90CF90BF90AF909F908F901C
:104CE0007F906F905F904F903F900895FF920F9349
:104CF0001F93CF93DF938C01FC0185859685A78553
:104D0000B089892B8A2B8B2B79F0838187FD3EC05C
:104D10000E945F6621E0892B09F420E081E0F80120
:104D20009481291352C054C0F801C3850C2E000C85
:104D3000DD0BFE01ED5FF34EE4916E2F70E080E03D
:104D400090E00E9403AD0E9412B0FE01ED51F44EBE
:104D5000E491F0E0EE0FFF1FE754F44EA591B491FB
:104D6000CC91D0E028E132E741E35FE30E945DAF00
:104D70000E94CFAF02C0D595C7956A95E2F7C17082
:104D800081E0F8019485C91320C022C085E0F82E87
:104D9000E801E29668EA71E1CE010E94517E02E8E4
:104DA00017E129E837E144E650E060E070E0CE0129
:104DB0000E94378B813059F062E370E080E090E030
:104DC0000E948D68FA94F110E5CF80E001C081E087
:104DD000DF91CF911F910F91FF900895CF93DF93B3
:104DE000EC010E94AD45CE01DF91CF910C94E0A57E
:104DF0002F923F924F925F926F927F928F929F92EB
:104E0000AF92BF92CF92DF92EF92FF920F931F93D8
:104E1000CF93DF93CDB7DEB7C056D1090FB6F89464
:104E2000DEBF0FBECDBF5C01DC01ED91FC9102A0A5
:104E3000F3A1E02D0995882309F4ECC06501BAE5DA
:104E4000CB0ED11CC6010E9455156AEB78E0CE014D
:104E50008B5A9F4F0E94D886FE0131964F01A4E6DF
:104E60004A2E512C612C712CA096EFAFA097A196E1
:104E70009FAEA1971501F2E32F0E311C0E94C76867
:104E8000D50196960D911D912D913C9199970056C3
:104E9000104F2F4F3F4F601771078207930770F332
:104EA00088E4E2E1F4E0A096AFADA097A196BFAD93
:104EB000A19701900D928A95E1F7E5E8F3E06196FC
:104EC000FFAFEEAF6197F4E86296FFAF629723EA17
:104ED00063962FAF639731E664963FAF649741E0E6
:104EE00065964FAF659761E273E1C1010E94517E03
:104EF000F2E8EF2EF7E1FF2E09E817E19E012B5AA9
:104F00003F4F40EA5FE060E070E0C1010E94108A1C
:104F1000CE018B5A9F4F0E9424846B968EAD9FAD1D
:104F20006B9707970E9710F0B40104C067966EADAB
:104F30007FAD6797CE01815B9F4F0E94615E85E8E0
:104F400093E02B969FAF8EAF2B9765968CAD9DAD62
:104F5000AEADBFAD65972F968CAF9DAFAEAFBFAF77
:104F60002F9745E250E0BE01675B7F4FC6010E946C
:104F7000B90E892BA9F1C301B2010E948D680E946C
:104F8000C7686F966CAF7DAF8EAF9FAF6F9761E2D2
:104F9000C6010E94F587C6010E94400E8823C1F019
:104FA000C6010E94670F04979CF40E94C768DC0149
:104FB000CB016F962CAD3DAD4EAD5FAD6F97821BB3
:104FC000930BA40BB50B88389341A105B10518F3D9
:104FD000C6010E94670F049714F5C6010E9455157B
:104FE00084E6480E511C611C711C92E1890E911CD3
:104FF000A4EF4A16A1E05A066104710409F03ECFFD
:10500000A12CB12CC12CD12CCE018B5A9F4F0E94C8
:105010004D8659C0A12CB12CC12CD12C54C02D9639
:105020001CAE1DAE1EAE1FAE2D9744E050E0BE017B
:10503000675B7F4FC6010E947D0FC6010E94551518
:105040002A968FAD2A9790E0A0E0B0E0BA2FA92F62
:10505000982F88272B962FAD2B97820F911DA11D7E
:10506000B11DBA2FA92F982F88272C962FAD2C97DA
:10507000820F911DA11DB11D2D964FAD2D9750E0B2
:1050800060E070E040585E476A4A7348BA2FA92F23
:10509000982F8827840F951FA61FB71F80384DEAC9
:1050A00094074AE2A4074CE5B40708F4A9CF813875
:1050B00058ED95075BEDA50750E7B50708F0A0CFC1
:1050C0005C016D01A1CFB501C601C05ADF4F0FB61B
:1050D000F894DEBF0FBECDBFDF91CF911F910F912E
:1050E000FF90EF90DF90CF90BF90AF909F908F9008
:1050F0007F906F905F904F903F902F900895CF9248
:10510000DF92EF92FF920F931F93CF93DF93CDB770
:10511000DEB72C970FB6F894DEBF0FBECDBF8C0163
:105120000E5C1F4F7C0125E5E20EF11CF701D080DB
:10513000DD2029F0F701F080F1101CC00EC065E001
:10514000C8010E94E6108111F5CFC12C9CE3D92E35
:105150009CE1E92E96ECF92E68C065E0C8010E943A
:10516000E610811107C06AEB78E0CE0107960E9435
:10517000D88624C069EA71E1C8010E94517E28EEF8
:1051800033E040E050E0B801CE0101960E94651086
:10519000F11003C0C8010E94B01018861F821A8641
:1051A00019861C861B86BE016F5F7F4FCE01079656
:1051B0000E94C584CE0101960E944D86CE010796BD
:1051C0000E94F48E811126C0CE0101967C0185E0FB
:1051D000F70111928A95E9F745E050E0B701CE0159
:1051E00007960E94588940E150E060E070E0C701F6
:1051F0000E9469A6F62ED11003C0C8010E94B0100B
:105200006F2DFF0C770B880B990B0E9405AD6B017E
:105210007C0107C0C12C8CE3D82E8CE1E82E86ECF3
:10522000F82ECE0107960E944D86C701B6012C9636
:105230000FB6F894DEBF0FBECDBFDF91CF911F91A7
:105240000F91FF90EF90DF90CF9008952F923F92B3
:105250004F925F926F927F928F929F92AF92BF9286
:10526000CF92DF92EF92FF920F931F93CF93DF9332
:10527000CDB7DEB7C054D1090FB6F894DEBF0FBE6C
:10528000CDBF7C016C0122E3C20ED11CC6010E947D
:10529000868B182FF701E65AFF4FD586C4861686EF
:1052A000158AD701D596FC93EE93D497DA966D9133
:1052B0007C91DB97CE0101960E94D7525701BCE248
:1052C000AB0EB11CBE016F5F7F4FC5010E94FF8412
:1052D000CE0101960E944D8665E0C6010E94E6104F
:1052E000882309F4E6C1C6010E940D14F70162ADDE
:1052F00073ADCE0101960E94D752BE016F5F7F4F02
:10530000C5010E94FF84CE0101960E944D86B50121
:10531000CE0101960E94CF864DEE52E1BE016F5F35
:105320007F4F8FEE92E10E947963CE0101960E9439
:105330004D864AE557E06AEE72E1C6010E94DF7DC4
:1053400042E857E169E877E1C6010E94798B41E0C4
:1053500050E067EE72E1C6010E94187E42E857E114
:1053600069E877E1C6010E94798B41E050E064EE84
:1053700072E1C6010E94187E42E857E169E877E1D0
:10538000C6010E94798B41E050E061EE72E1C601F6
:105390000E94187E42E857E169E877E1C6010E9461
:1053A000798B41E050E06EED72E1C6010E94187EFB
:1053B00042E857E169E877E1C6010E94798B48EC41
:1053C00050E06BED72E1C6010E94187E42E857E1A1
:1053D00069E877E1C6010E94798BF701E954FF4F34
:1053E00040815181329760817181C6010E941C5FAA
:1053F00040E450E068ED72E1C6010E94187E42E888
:1054000057E169E877E1C6010E94798B21968FAF59
:105410002197C6010E94C2107E01F2E2EF0EF11C3C
:105420006AEB78E0C7010E94D8868FE992E10E947A
:10543000EC6E0E94C7681B012C01912C612C712C11
:105440000E94C768DC01CB0182199309A409B50940
:10545000803E9349A440B10508F040C16CE972E177
:10546000C6010E94517E40E157E260E070E0C60153
:105470000E94BE13882E40E1682FCE01CA960E947A
:10548000528660E070E0CE01C4960E940A4C0E94F1
:10549000C7681FA61EA619AA18AA1BAA1AAA0E94A4
:1054A00003AD20E030E04AE754E40E945DAF8E0196
:1054B0000F5F1F4F22E044E00E9428A5BC01CE01EF
:1054C0008E960E941F8619A618A61BA61AA61DA6B0
:1054D0001CA64AE0B801C3010E940EA9B801CE0182
:1054E00088960E941F86BE01685D7F4FC8010E949A
:1054F000CF866AE677E0C8010E94D285BE01625D70
:105500007F4F0E94EB856FE577E00E94D285BE0158
:105510006C5C7F4F0E94EB8562E677E00E94D2854B
:10552000BE01665C7F4F0E94EB85BC01C7010E94F3
:105530003686C8010E944D86CE0188960E944D860F
:10554000CE018E960E944D86CE01C4960E944D8655
:10555000CE01CA960E944D8681102CC04AE0692D6A
:10556000CE0188960E94528666E677E0C8010E94C6
:10557000D886BE01685D7F4FC8010E94EB85BC01E3
:10558000C7010E94034CC8010E944D86CE01889637
:105590000E944D86B701C8010E94CF86B8018EE6F1
:1055A0009CE00E941788C8010E944D86939483E076
:1055B0008915D0F0B701CE0101960E94CF86BE01B9
:1055C0006F5F7F4F8EE69CE00E941788CE010196A8
:1055D0000E944D8668EE73E080E090E00E948D6846
:1055E000AFEF6A1A7A0A2CCF6AEB78E0CE01019607
:1055F0000E94D88694EF492E55245394612C712C27
:10560000C301B2010E948D6862E572E1C6010E9489
:10561000517E32E8E32E37E1F32E09E817E19E01CF
:105620002F5F3F4F48EE53E060E070E0C6010E94FC
:10563000108A6CE677E0CE0188960E94D886BE017B
:10564000685D7F4FCE0101960E948484892B09F406
:1056500051C011E08D819E81089708F44BC0CE01A6
:1056600088960E944D86111147C06AEB78E0CE0102
:1056700001960E941F86B4EF4B0EB1E05B1E611CC9
:10568000711CE4E34E16E1E25E066104710409F068
:10569000B7CF8FE192E10E94EC6E10E0CE0101964F
:1056A0000E944D86C6010E94B010CE0182960E94D3
:1056B0004D86111198C0B501CE0101960E94CF868A
:1056C0004CEA51E1BE016F5F7F4F86EB91E10E9492
:1056D0007963CE0101960E944D8685C085E592E1F1
:1056E0000E94EC6E64E670E080E090E00E948D68BD
:1056F00010E0D8CF10E0B3CFBE016F5F7F4FCE0177
:1057000088960E94CF864EE052E1BE01685D7F4FD1
:1057100080E192E10E947963CE0188960E944D86D5
:105720006AEB78E0CE0101960E941F8684EF482E36
:1057300055245394612C712CC301B2010E948D68D1
:105740006BE072E1C6010E94517E22E8E22E27E161
:10575000F22E09E817E19E012F5F3F4F48EE53E01C
:1057600060E070E0C6010E94108A6CE677E0CE012E
:1057700088960E94D886BE01685D7F4FCE01019653
:105780000E948484892B29F011E08D819E810897E5
:1057900008F410E0CE0188960E944D86111117C0C2
:1057A0006AEB78E0CE0101960E941F86F4EF4F0E5F
:1057B000F1E05F1E611C711C20E7421627E15206D2
:1057C0006104710409F0B8CF87ED91E164CF11E075
:1057D00021968FAD2197813009F010E08DEB91E19A
:1057E0000E94EC6E5BCF812FC05CDF4F0FB6F89448
:1057F000DEBF0FBECDBFDF91CF911F910F91FF9004
:10580000EF90DF90CF90BF90AF909F908F907F9060
:105810006F905F904F903F902F9008950F931F933C
:10582000CF93DF93EB010E94C7688B010E94CC5895
:105830008F3F49F00E94C768601B710BC617D707DE
:10584000A8F780E001C081E0DF91CF911F910F9117
:105850000895CF93DF93FC012381222361F0EC01B3
:105860000180F281E02D61E082810E9423678FEF49
:105870000E94C7581B82DF91CF9108950F931F9309
:10588000CF93DF938C01862FEA010E94C75888814D
:105890008EBD8981FE013296DE5F0DB407FEFDCF1D
:1058A0008EBDEC17FD0711F08191F7CF0DB407FE07
:1058B000FDCF8FEF0E94C7588FEF0E94C7580E94FC
:1058C000CC58F80184838F71853039F087E5808367
:1058D000C8010E94292C80E001C081E0DF91CF91B6
:1058E0001F910F910895FF920F931F93CF93DF9312
:1058F00000D000D0CDB7DEB78C01F62E29833A83D5
:105900004B835C83FC018381811103C0C8010E9429
:10591000B358FF2029F06CE271E0C8010E940E2C00
:105920008F2D80640E94C7588C810E94C7588B813C
:105930000E94C7588A810E94C75889810E94C7580F
:10594000FF2011F087E801C085E90E94C7580E9436
:10595000CC588BE0F82E0E94CC58F801848387FF46
:1059600003C0FA94F110F7CF0F900F900F900F90A3
:10597000DF91CF911F910F91FF9008950F931F9387
:10598000CF93DF93EC0189018D81833039F089E079
:10599000440F551F661F771F8A95D1F79A01AB01F7
:1059A00068E1CE010E94732C882311F082E323C0AA
:1059B000A8016EEFCE010E943E2C8823E9F060ED35
:1059C00077E0CE010E940E2C182F811102C08AE5CB
:1059D00012C020E030E0A9016DE0CE010E94732CDE
:1059E000811108C00E94CC58811104C0CE010E94D0
:1059F000292C06C089E28883CE010E94292C10E060
:105A0000812FDF91CF911F910F9108950F931F93D5
:105A1000CF93DF93EC0189018D81833039F089E0E8
:105A2000440F551F661F771F8A95D1F79A01AB0166
:105A300061E1CE010E94732C882319F080E38883F2
:105A40000BC0B801CE010E940E90182F882321F0C0
:105A5000CE010E94292C04C0CE010E94292C10E006
:105A6000812FDF91CF911F910F910895EF92FF92B7
:105A70001F93CF93DF93FC01208120FF32C0EC0104
:105A80007C01F7E0EF0EF11C4B815C816D817E8122
:105A9000E981FA819701808191810E94BE2C182FA3
:105AA000811102C010E01EC0888181FD04C0888180
:105AB0008E7F888317C0E981FA814B815C816D817B
:105AC0007E8184859585A685B785480F591F6A1FF5
:105AD0007B1F9701808191810E94BE2C8111E7CFAD
