:100000000C94920D0C9448140C941D140C94F2133F
:100010000C947D130C9408130C9493120C941E12E0
:100020000C940D860C94BC0D0C94BC0D0C94BC0D62
:100030000C9453780C9401790C9408780C94BC0DB2
:100040000C94BC0D0C94BC0D0C9425900C94BC0D20
:100050000C9482760C9458760C94BC0D0C94BC0DC8
:100060000C94BC0D0C94BC0D0C94F36F0C94BC0D53
:100070000C9422760C94F8750C94BC0D0C94BC0D69
:100080000C94BC0D0C94BC0D0C94BC0D856F886F4A
:100090007B6F7F6F9F6F9F6F8C6F906F966F9A6F64
:1000A00008000000BE922449123EABAAAA2ABECD87
:1000B000CCCC4C3E00000080BEABAAAAAA3E0000F9
:1000C0000000BF000000803F0000000000084178F1
:1000D000D3BB4387D1133D190E3CC3BD4282AD2B28
:1000E0003E68EC8276BED98FE1A93E4C80EFFFBE20
:1000F00001C4FF7F3F000000000007634236B79B4A
:10010000D8A71A39685618AEBAAB558C1D3CB7CC77
:100110005763BD6DEDFD753EF6177231BF000000EF
:10012000803F4E414E494E495459494E46CDCCCC64
:100130003D0AD7233C17B7D13877CC2B329595E6BB
:10014000241FB14F0A000020410000C84200401C9B
:100150004620BCBE4CCA1B0E5AAEC59D7400407AE8
:1001600010F35A00A0724E18090010A5D4E8000040
:10017000E87648170000E40B54020000CA9A3B00DE
:100180000000E1F505000080969800000040420F55
:10019000000000A08601000000102700000000E819
:1001A00003000000006400000000000A00000000DE
:1001B000000100000000002C76D888DC674F08237F
:1001C000DFC1DFAE59E1B1B796E5E3E453C63AE6E5
:1001D00051997696E8E6C28426EB898C9B62ED40C5
:1001E0007C6FFCEFBC9C9F40F2BAA56FA5F4900514
:1001F0005A2AF75C936B6CF9676DC11BFCE0E40D48
:1002000047FEF520E6B500D0ED902E03009435773B
:10021000050080841E080000204E0A000000C80C63
:10022000333333330F986E12831141EF8D211489CC
:100230003BE65516CFFEE6DB18D1844B381BF77C26
:100240001D901DA4BBE424203284725E228100C96B
:10025000F124ECA1E53D270A4C6F676765723A739C
:1002600065744C6F676765724964206572726F725E
:10027000202D206578706563746564204E554C4C64
:1002800020707472000A0D2020204C6F6767657221
:100290003A7365744C6F67676572496420746F6F59
:1002A000206C6F6E673A205472696D6D65642074BE
:1002B0006F20002020204C6F633D006261747465E4
:1002C000727920747970653D006D696E757465731F
:1002D0002C20547A3D005D0A0D2020206C6F67674A
:1002E000696E6720696E74657276616C3D00467256
:1002F0006F6D20656570726F6D20636F6D6D6F6ED1
:100300003A204C6F676765722046696C65204E61C4
:100310006D655B00466163746F7279206465666128
:10032000756C74006D734C6F673031005D005D203B
:10033000736E5B005D20207265765B0046726F6DA8
:1003400020656570726F6D20626F6F74204E616DF5
:10035000655B00302E3562004D313233343536372F
:100360003839616263646566676800656E766972D4
:100370006F444959206D6179666C790050617273E0
:100380006520696E693B204E6F2066696C652000B0
:10039000436F6D706C657465642E004572726F7288
:1003A000206F6E206C696E65203A00506172736533
:1003B00020696E693B200056005620474F4F443D50
:1003C0000056204D454449554D3D0056204C4F5751
:1003D0003D00205468726573686F6C6473205553D8
:1003E0004541424C453D0042617474657279205428
:1003F0007970653D0050757474696E67206D6F6427
:10040000656D20746F20736C65657000436F756C4B
:1004100064206E6F742077616B65206D6F64656D0D
:1004200020666F7220636C6F636B2073796E632E2E
:1004300000436F756C64206E6F7420636F6E6E6521
:10044000637420746F20696E7465726E65742066C3
:100450006F7220636C6F636B2073796E632E005430
:10046000686973206D61792074616B6520757020F7
:10047000746F2074776F206D696E757465732100D9
:10048000417474656D7074696E6720746F20636F5A
:100490006E6E65637420746F2074686520696E7475
:1004A00065726E657420616E642073796E63687224
:1004B0006F6E697A65205254432077697468204EC4
:1004C00049535400446174612077696C6C20626503
:1004D00020736176656420617300556E61626C659E
:1004E00020746F2063726561746520612066696C99
:1004F0006520746F20736176652064617461207477
:100500006F210053657474696E6720757020666989
:100510006C65206F6E2053442063617264005365E4
:100520007474696E672075702073656E736F727373
:100530002E2E2E0054696D652000456E7669726F0F
:10054000794449595075626C6973686572207365A6
:10055000745175656420000A0A2D2D2D7061727327
:1005600065496E6920636F6D706C65746520002D40
:100570002D2D7061727365496E692000476F6F643D
:1005800020426174563D002D2D2D2D57616B6575F0
:1005900070003A20426174746572794C6F772D5304
:1005A0006C65657036307365632C20426174563D0E
:1005B0000054696E7947534D204C696272617279BB
:1005C0002076657273696F6E20004D6F64756C6183
:1005D0007253656E736F72732076657273696F6E96
:1005E00020005377204E616D653A20000A2D2D2D95
:1005F000426F6F742E205377204275696C643A20E5
:10060000007365727A426567696E20657272207246
:10061000656D6F76650064655352432072656D6F3A
:10062000766520657272007365727A426567696EDD
:100630002065727220636C6F73650064655352436A
:1006400020636C6F73652065727200646552533B62
:10065000204E6F2066696C6520007365727A517553
:1006600065645374617274206F70656E2065727278
:10067000006C6F67504C4F20657272206F70656E12
:10068000696E67007365632E20517565756564201A
:1006900072656164696E67733D0072656164696E5D
:1006A000677320696E0053656E7400707562445103
:1006B0005452207365727A5175656446696C206581
:1006C0007272005D000A7075624451545220536585
:1006D0006E64696E67206461746120746F205B00D2
:1006E0007365727A5264656C5F4C696E653B204E2F
:1006F0006F2066696C65002D2D2D2D2D2D2D2D2D36
:100700002D2D2D2D2D2D2D2D2D2D2D2D2D2D2D2D19
:100710002D2D2D2D2D2D2D2D2D2D2D2D2D2D2D2D09
:100720002D0A002D2D2D2D2D2D2D2D2D2D2D2D2D49
:100730002D2D2D2D2D2D2D2D2D2D2D2D2D2D2D2DE9
:100740002D2D2D2D2D2D2D2D2D2D2D2D2D00204CF4
:10075000626174743D00206C6F672650756220568C
:100760005F6261747400204C626174743D00204CBF
:100770006F674F6E6C792E205620746F6F206C6FF0
:10078000772062617474657279563D002D2D2D4E6F
:10079000657752656164696E672043414E43454CFD
:1007A0004C45442D2D4C626174745F563D0045529A
:1007B000524F52004C4100544D00544D3000544DA6
:1007C00000414D3000465200414D31004150300053
:1007D000414D30004149002B2B2B00414300575223
:1007E00000434E0048530048530073655143462070
:1007F0007365727A5175656446696C652E636C6FBA
:1008000073653220657272007365514346207467C8
:10081000746F757446696C652E636C6F73653120F7
:100820006572720073655143462051756520666F8D
:1008300072206E657874207061737320756E7365B5
:100840006E74207265636F72647300736551434602
:10085000207467746F757446696C6520777269746B
:100860006533206572720073655143462074677466
:100870006F757446696C652077726974653120659F
:100880007272007365514346206F70656E32206549
:1008900072720073655143462072656E616D6531F9
:1008A000206572720073655143462065727236206E
:1008B00072656D6F76650073655143462072656D94
:1008C0006F76653120657272002C305800534420D9
:1008D0006572726F72436F64653A203058006572BA
:1008E000726F723A2000734654534D6574206572DE
:1008F0007220666F7220007365636F6E6473206F81
:1009000066204E4953542E00496E7465726E616CB8
:1009100020436C6F636B2077697468696E200049AF
:100920006E7465726E616C20436C6F636B207365CF
:100930007420004261642074696D657374616D7028
:100940002C206E6F742073657474696E6720636CFD
:100950006F636B2E00255600545000414D00414DF1
:1009600000414D3000414E004D4E00446967692002
:100970005862656533207365747570206661696CB3
:10098000656421005D0058626565574C54452049F7
:100990005023205B00586265654C5445206E6F748F
:1009A00020726563656976656420495023202D684F
:1009B0006F706520697420776F726B73206E657835
:1009C000742074696D65005D2027006D646D495069
:1009D0005B004D59004D59004469676920586265B4
:1009E0006533207365747570205375636573732E5A
:1009F00020526567697374726174696F6E20270095
:100A0000547279202B435245472027002B435245EF
:100A100047004149004C6F6F703D5365635D207224
:100A200078206462203A2053746174757320272003
:100A30004F70657261746F7220272023506F6C6C49
:100A400065642043656C6C20537461747573206514
:100A50007665727920317365630041503000544DE2
:100A6000005031005444304100444F00534F005374
:100A70004D005030004435004437004439004552A1
:100A8000524F520D004F4B0D004438004E49535405
:100A90002054696D6520736572766572206469649F
:100AA000206E6F7420726573706F6E6421006D73B9
:100AB000004E49535420726573706F6E64656420F4
:100AC0006166746572005D20436F6E6E65637420AD
:100AD00000446174612077696C6C206E6F742062D1
:100AE000652073617665642100536C6176652F43E0
:100AF0006869702073656C6563742070696E206628
:100B00006F72205344206361726420686173206EA9
:100B10006F74206265656E207365742E0044617485
:100B2000612077696C6C206E6F7420626520736140
:100B300076656421004572726F723A2053442063D7
:100B4000617264206661696C656420746F20696EEF
:100B5000697469616C697A65206F72206973206DB0
:100B6000697373696E672E002D2D2D2D5C2F000A81
:100B7000205C2F2D2D2D2D204C696E652053617624
:100B8000656420746F00556E61626C6520746F201F
:100B9000777269746520746F2053442063617264B6
:100BA000210020002069732000207265706F72742C
:100BB00073200020002069732063616C63756C6191
:100BC00074656420746F20626520002D2D2D2D2DFD
:100BD0002D2D2D2D2D2D2D2D2D2D2D2D2D2D2D2D45
:100BE0002D2D2D2D2D2D2D2D2D2D2D2D2D2D2D2D35
:100BF0002D2D2D2D2D0045786974696E6720746543
:100C00007374696E67206D6F6465002D2D2D2D2D19
:100C10002D2D2D2D2D2D2D2D2D2D2D2D2D2D2D2D04
:100C20002D2D002D2D2D2D2D2D2D2D2D2D2D2D2D21
:100C30002D2D2D2D2D2D2D2D2D2D004375727265F1
:100C40006E74206C6F676765722074696D652069CA
:100C500073002D2D2D2D2D2D2D2D2D2D2D2D2D2DAB
:100C60002D2D2D2D2D2D2D2D2D2D2D2D2D2D2D2DB4
:100C70002D2D2D2D2D2D2D2D2D2D2D2D00456E7431
:100C80006572696E672073656E736F722074657329
:100C900074696E67206D6F6465002D2D2D2D2D2DCF
:100CA0002D2D2D2D2D2D2D2D2D2D2D2D2D2D2D2D74
:100CB0002D2D2D2D2D2D2D2D2D2D2D2D2D2D2D2D64
:100CC0002D2D2D2D00646174615075626C697368FF
:100CD0006572426173652067515320636865636B79
:100CE000002D2D2D2D2D205741524E494E47202DA0
:100CF0002D2D2D2D202121212121212121212121B5
:100D000021212121212121212100426164207469B6
:100D10006D65200021212121212121212121212155
:100D20002121212121212121202D2D2D2D2D205743
:100D300041524E494E47202D2D2D2D2D20003A3069
:100D400030003A3030003A3030003A3030005069EC
:100D50006E006D6F646275735F3078004932435F77
:100D600030783638005F50696E0053444931322D77
:100D700000646174615075626C6973686572426188
:100D80007365207365745175656420636865636B72
:100D9000000A4C6F676765724D6F64656D3A3A7310
:100DA000657441504E206572726F72202D6E6F20F7
:100DB00062756666657220000A4C6F676765724DE2
:100DC0006F64656D3A3A73657441504E2065727276
:100DD0006F72202D206578706563746564204E55B0
:100DE0004C4C20707472000A0D2020204C6F6767F5
:100DF00065724D6F64656D3A73657441504E207431
:100E00006F6F206C6F6E673A205472696D6D656408
:100E100020746F20003D005D20004E6F74207375BC
:100E200070706F72746564205B00414354494F4E8B
:100E30002057726974652061626F727465642E2038
:100E4000696E737472756374696F6E202700414315
:100E500054494F4E20434F5059206E6F7420737584
:100E600070706F72746564207965743A00434F50F6
:100E70005900454550524F4D2057726974652066A0
:100E8000696E697368656400414354494F4E205749
:100E9000726974652061707020454550524F4D2035
:100EA000737461727465643A005752495445004145
:100EB0004354494F4E00555345520020746F200053
:100EC000424F4F54207462642000454550524F4DAC
:100ED0002057726974652061626F727465642E2098
:100EE000696E737472756374696F6E20270045456F
:100EF00050524F4D2057726974652066696E697350
:100F000068656400454550524F4D205772697465BD
:100F100020737461727465643A0059455300454505
:100F200050524F4D5F575249544500426F617264B1
:100F3000205265763A00424F4152445F5245560076
:100F4000426F6172642053657269616C4E756D20E9
:100F50003A00424F4152445F534E00426F61726407
:100F6000204E616D653A00424F4152445F4E414D03
:100F70004500424F4F540020746F20004E45545797
:100F80004F524B207462642000434F4D4D4F4E2012
:100F90005365742053454E445F4F46465345545F56
:100FA0004D494E206572726F723B202872616E67E8
:100FB000652030203A2033302920726561643A0080
:100FC000434F4D4D4F4E205365742053454E445F63
:100FD0004F46465345545F4D494E3A200053454EC7
:100FE000445F4F46465345545F4D494E00434F4D75
:100FF0004D4F4E2053657420434F4C4C4543545F36
:1010000052454144494E4753206572726F723B20EE
:101010002872616E67652030203A203330292072B3
:101020006561643A00434F4D4D4F4E205365742027
:10103000434F4C4C4543545F52454144494E4753FE
:101040003A2000434F4C4C4543545F52454144497C
:101050004E475300434F4D4D4F4E20536574205023
:101060004F53545F4D41585F4E554D206572726F1E
:10107000723B202872616E67652030203A2035303F
:101080002920726561643A00434F4D4D4F4E205305
:10109000657420504F53545F4D41585F4E554D3A43
:1010A0002000504F53545F4D41585F4E554D004303
:1010B0004F4D4D4F4E205365742054494D45525F5E
:1010C000504F53545F504143455F4D5320657272FA
:1010D0006F723B202872616E67652030203A2035A0
:1010E0003030302920726561643A00434F4D4D4FD6
:1010F0004E205365742054494D45525F504F535410
:101100005F504143455F4D533A200054494D45528D
:101110005F504F53545F504143455F4D5300434F21
:101120004D4D4F4E205365742054494D45525F50EC
:101130004F53545F544F55545F4D53206572726F37
:10114000723B202872616E676520313030203A2072
:1011500033303030302920726561643A00434F4D9E
:101160004D4F4E205365742054494D45525F504FAA
:1011700053545F544F55545F4D53203A2000544907
:101180004D45525F504F53545F544F55545F4D532C
:1011900000272C206E6F772073657420746F2027D2
:1011A000004E4554574F524B2041504E20776173AB
:1011B00020270061706E004E4554574F524B00205F
:1011C000746F200053454E534F5253207462642075
:1011D0000053454E534F52530020746F2000434F2D
:1011E0004D4D4F4E20746264200047454F47524199
:1011F00050484943414C5F49443A0047454F4752A4
:101200004150484943414C5F494400434F4D4D4F85
:101210004E205365742054696D655A6F6E65206564
:1012200072726F723B202872616E6765202D3132B9
:10123000203A202B31322920726561643A00434FF5
:101240004D4D4F4E205365742054696D655A6F6E35
:10125000653A200054494D455F5A4F4E4500205392
:101260006574204C69496F6E2054797065206572F1
:10127000726F723B202872616E676520302D3229B3
:1012800020726561643A00434F4D4D4F4E204C69CA
:10129000496F6E20547970653A20004C49494F4E91
:1012A0005F545950450020536574204C69496F6E56
:1012B0002054797065206572726F723B20287261CC
:1012C0006E676520302D322920726561643A0043D3
:1012D0004F4D4D4F4E2042617474657279205479A0
:1012E00070653A2000424154544552595F54595058
:1012F000450029207769746820726561643A00208E
:1013000053657420696E74657276616C20657272C3
:101310006F72202872616E67653A20312D00286D4A
:10132000696E292066726F6D2064656661756C74E4
:101330002000434F4D4D4F4E204C4F4747494E479D
:101340005F494E54455256414C5F4D494E555445A8
:10135000532073657420746F3A2000205573696EB2
:1013600067204D61782E2052656164696E6720693F
:10137000676E6F7265642000434F4D4D4F4E204C99
:101380004F4747494E475F494E54455256414C5F7F
:101390004D494E55544553206D7573742062652038
:1013A0006C657373207468616E203A20004C4F475F
:1013B00047494E475F494E54455256414C5F4D494F
:1013C0004E5554455300434F4D4D4F4E204C6F6783
:1013D0006765724964205365743A20004C4F474753
:1013E00045525F494400434F4D4D4F4E007D2055BF
:1013F000554944206E6F7420737570706F727465F8
:1014000064007D206F7574206F662072616E676561
:101410002E204E6F7475736564007D007D207265AB
:10142000706C6163696E67207B00696E646578002B
:101430007D206D617463682020262061646465648A
:101440002E003D7B000055554944730050524F56C5
:1014500049444552206E6F7420737570706F7274BA
:1014600065643A0050524F564944455220536574C2
:1014700074696E672053616D706C696E6746656153
:10148000747572653A200053414D504C494E475F88
:10149000464541545552450050524F5649444552D5
:1014A0002053657474696E6720636C6F756449645A
:1014B0003A2000434C4F55445F49440050524F5628
:1014C000494445522053657474696E67207265679C
:1014D000697374726174696F6E20746F6B656E3AB4
:1014E0002000524547495354524154494F4E5F548E
:1014F0004F4B454E0050524F5649444552004552BD
:10150000524F52004F4400544D00544D004445008A
:10151000444C00495000456E7669726F79444959D0
:101520005075626C6973686572206751532000279B
:10153000006465737A714E65787443682031657212
:10154000726F723A006D532054696D656F75740047
:1015500077616974656420002D2D20526573706F6A
:101560006E736520436F6465202D2D00202D2D2086
:10157000476174657761792054696D656F75742072
:101580007761726E696E6720627566666572207338
:101590007A20736D616C6C000A202D2D20556E61D0
:1015A000626C6520746F2045737461626C69736846
:1015B00020436F6E6E656374696F6E20746F204593
:1015C0006E7669726F444959204461746120506F8E
:1015D0007274616C202D2D005F4368616E6E656CC6
:1015E00000414453313131355F3078004442004C82
:1015F0004D004D590027006465737A4C696E652073
:1016000072656164756E67207374617274206E6FA9
:101610007420666F756E640027006465737A4C6988
:101620006E652045706F6368206572722700270021
:101630006465737A4C696E652065706F63682073AA
:1016400074617274206E6F7420666F756E6400270B
:10165000006465737A4C696E6520537461747573A8
:101660002065727227002C002C002C0021212121E2
:10167000212121212121212121212121212121215A
:10168000202D2D2D2D2D205741524E494E47202DD6
:101690002D2D2D2D2000212121212121212121212C
:1016A000202D2D2D2D2D205741524E494E47202DB6
:1016B0002D2D2D2D2021212121212121212121000C
:1016C0002D2D2D2D2D205741524E494E47202D2D89
:1016D0002D2D2D20212121212121212121212121D7
:1016E0002121212121212121005468652063757267
:1016F00072656E7420636C6F636B2074696D6573C3
:1017000074616D70206973206E6F742076616C69EE
:101710006421002121212121212121212121212197
:1017200021212121212121202D2D2D2D2D20574119
:10173000524E494E47202D2D2D2D2D2000212121A7
:1017400021212121212121202D2D2D2D2D205741F9
:10175000524E494E47202D2D2D2D2D202121212166
:10176000212121212121002D2D2D2D2D20574152C8
:101770004E494E47202D2D2D2D2D20212121212177
:10178000212121212121212121212121212121006A
:1017900027002720736E3A2700207265763A2700CB
:1017A000426F6172643A20004D6F64756C617253D0
:1017B000656E736F7273207665727320002E2053EE
:1017C00077204275696C643A20005377204E616D32
:1017D000653A2000202042617474657279547970F2
:1017E000653A200020547A3A200020204C6F676729
:1017F000696E67496E74657276616C20286D696EDA
:10180000293A20004C6F636174696F6E3A2000447E
:1018100061746520616E642054696D6520696E2075
:1018200055544300526573756C7420555549443ABC
:1018300000526573756C7420556E69743A00566178
:10184000726961626C65204E616D653A0053656E28
:10185000736F72204E616D653A0053616D706C69F3
:101860006E67204665617475726520555549443A26
:10187000200044617461204C6F676765722046697F
:101880006C653A200044617461204C6F6767657233
:101890003A200000002100240027002A0000002236
:1018A00000250028002B00000000000403080700AA
:1018B0000000010200090A00000000000000000012
:1018C000000000000000004552524F5221204E6F90
:1018D0002077656220636C69656E7420617373693B
:1018E000676E656420746F207075626C6973682020
:1018F0006461746121001F1C1F1E1F1E1F1F1E1FFD
:101900001E1F2D3E00416C6C207661726961626C15
:1019100065205555494427732061707065617220B8
:10192000746F20626520636F72726563746C7920D6
:10193000666F726D65642E0A006861732061206EA7
:101940006F6E2D756E69717565205555494421007E
:1019500068617320616E20696E76616C69642055E0
:1019600055494421004C6F6767657220706F72742F
:10197000696F6E206F662073657475702066696E7E
:1019800069736865642E0A0053616D706C696E67D7
:1019900020666561747572652055554944206973E8
:1019A0003A006172652063616C63756C6174656493
:1019B0002E0073656E736F727320616E6400636FC7
:1019C0006D652066726F6D007661726961626C652B
:1019D000732C206F662077686963680054686973A8
:1019E000206C6F6767657220686173206120766183
:1019F000726961626C6520617272617920776974C5
:101A0000680043757272656E742052544320746985
:101A10006D652069733A002D2D2D2D2D2D2D2D2D29
:101A20002D2D2D2D2D2D2D2D2D2D2D2D2D2D2D2DE6
:101A30002D2D2D2D2D2D2D2D2D2D2D2D2D2D2D2DD6
:101A40002D0A002D2D2D2D2D2D2D2D2D2D2D2D2D16
:101A50002D2D2D2D2D2D2D2D2D2D2D2D2D2D2D2DB6
:101A60002D2D2D2D2D2D2D2D2D2D2D2D2D000041EC
:101A70004D310043543634004754363400455252F9
:101A80004F520D004F4B0D00415030004349007341
:101A9000657456617255554944206572726F7220A3
:101AA0002D206E6577206469646E277420776F72CD
:101AB0006B20666F720000002000230026002900C2
:101AC00000010203040506070001020304050607DE
:101AD00000010203040506070001020304050607CE
:101AE00004040404040404040202020202020202C6
:101AF00003030303030303030101010101010101C6
:101B000001020408102040800102040810204080D7
:101B100001020408102040800102040810204080C7
:101B2000629B73A411241FBECFEFD0E4DEBFCDBFF4
:101B30001AE0A0E0B1E0E6E4F5E601E00BBF02C088
:101B400007900D92AE39B107D9F72BE1AEE9BAE0B3
:101B500001C01D92A238B207E1F71DE0C1E9DDE046
:101B600004C02197FE010E9453AEC039D107C9F7C6
:101B70000E946F900C9496B20C940000DC01ED91E1
:101B8000FC910688F789E02D099591E0811101C04B
:101B900090E0892F08950F931F93CF93DF9300D088
:101BA00000D000D0CDB7DEB78C01DC01ED91FC9107
:101BB0000084F185E02D0995892BC9F41B821C82D4
:101BC0001D821E82D8011C96ED91FC911D974585C2
:101BD0005685678570898B819C81AD81BE81481750
:101BE00059076A077B0729F0F801858903C081E05E
:101BF00001C080E026960FB6F894DEBF0FBECDBFC1
:101C0000DF91CF911F910F910895DC011C96ED910A
:101C1000FC911D9780819181DC01ED91FC91068002
:101C2000F781E02D0994DC011C96ED91FC911D9744
:101C300080819181DC01ED91FC910484F585E02D9A
:101C40000994CF93DF931F92CDB7DEB76983DC0190
:101C5000ED91FC910280F381E02D41E050E0BE0166
:101C60006F5F7F4F09950F90DF91CF9108950F938C
:101C70001F93CF93DF9300D000D000D0CDB7DEB755
:101C8000DC01ED91FC91048CF58DE02D25E833E02D
:101C90003A832983DB0112960D911D912D913C9180
:101CA00015970B831C832D833E8320E030E0BE011B
:101CB0006F5F7F4F099526960FB6F894DEBF0FBE73
:101CC000CDBFDF91CF911F910F910895DC01ED9170
:101CD000FC91028CF38DE02D2BE430E0099480918F
:101CE000A00A8111FCCF089580919F0A8F5F8434F0
:101CF00008F080E090919E0A9817E1F32FB7F894CE
:101D00009091A00A992341F0E82FF0E0E757F54EB3
:101D1000608380939F0A1DC081E08093A00A609336
:101D2000CE1A1092CD1A82E086BB80916F0082603D
:101D300080936F00809180008F7B8068809380000B
:101D400080918400909185004096909389008093C3
:101D500088002FBF81E090E00895FC01848583FF17
:101D60000DC084A195A1A6A1B7A1448D558D668D06
:101D7000778D841B950BA60BB70B03C080E090E01A
:101D8000DC01811520E89207A105B10520F08FEF55
:101D90009FE7A0E0B0E0089580E090E00895CF9341
:101DA000DF93EC0162E070E080E090E00E9453730A
:101DB000EC85FD8580819181DC01ED91FC910284AF
:101DC000F385E02DDF91CF910994CF93DF93EC0160
:101DD00062E070E080E090E00E945373EC85FD8546
:101DE00080819181DC01ED91FC910084F185E02DF1
:101DF000DF91CF910994EF92FF920F931F93CF93AE
:101E0000DF937C01EB018A0162E070E080E090E00A
:101E10000E945373D7011C96ED91FC911D97A80168
:101E2000BE0180819181DF91CF911F910F91FF9031
:101E3000EF900C948D82EF92FF920F931F93CF93AC
:101E4000DF93EC018B017A0162E070E080E090E0CA
:101E50000E945373A701B8018C859D85DF91CF91B6
:101E60001F910F91FF90EF900C942753CF92DF9228
:101E7000EF92FF920F931F93CF93DF9300D000D088
:101E800000D0CDB7DEB78C016B017A01FC018485EF
:101E900095850E941528F801268585E893E09A83A8
:101EA0008983F60182819381A481B5818B839C8390
:101EB000AD83BE83A701BE016F5F7F4FF8018485AC
:101EC00095850E943F50F801858B90E026960FB6CD
:101ED000F894DEBF0FBECDBFDF91CF911F910F9160
:101EE000FF90EF90DF90CF9008950C960C94FD59E1
:101EF0008F929F92AF92BF92CF92DF92EF92FF921A
:101F00000F931F93CF93DF931F92CDB7DEB78C0152
:101F1000FC01848C958CA68CB78CC08CD18CE28C07
:101F2000F38CBE016F5F7F4F0C960E945288019721
:101F300019F4898190E002C08FEF9FEF8F3FFFEF90
:101F40009F0749F0F801848E958EA68EB78EC08EBD
:101F5000D18EE28EF38E0F90DF91CF911F910F9172
:101F6000FF90EF90DF90CF90BF90AF909F908F90B9
:101F70000895CF93DF931F92CDB7DEB7BE016F5F99
:101F80007F4F0C960E945288019719F4898190E046
:101F900002C08FEF9FEF0F90DF91CF9108950C96C5
:101FA0000C94C2598F929F92AF92BF92CF92DF92C0
:101FB000EF92FF920F931F93CF93DF93EC018B016E
:101FC00069017A0162E070E080E090E00E94537362
:101FD0000E948D734B015C01D8018D919C91DC01B5
:101FE000ED91FC910084F185E02D0995892B69F430
:101FF0000E948D73DC01CB0188199909AA09BB09DC
:102000008C159D05AE05BF0538F3F801608171811F
:102010004DE0CE010E946582CE010E94577FCE0125
:10202000DF91CF911F910F91FF90EF90DF90CF90B4
:10203000BF90AF909F908F900895CF93DF93EC0166
:1020400067EE77E00E943E2948EE53E060E070E0E2
:10205000CE010E9485488F3F910589F464EE77E0B8
:10206000CE010E943E2948EE53E060E070E0CE01D0
:102070000E9485488F3F910511F480E090E0998798
:102080008887DF91CF910895CF93DF93EC0161EEC4
:1020900077E00E943E294DE75AE164E87AE1CE01FB
:1020A0000E944C8B1BA2DF91CF910895CF93DF93B9
:1020B000EC016EED77E00E943E294DE75AE164E8BD
:1020C0007AE1CE010E944C8B813079F46BED77E0A0
:1020D000CE010E943E294DE75AE164E87AE1CE0143
:1020E0000E944C8B91E0813009F090E0892FDF91C4
:1020F000CF9108958F929F92AF92BF92DF92EF920D
:10210000FF920F931F93CF93DF93EC01D62E1BA169
:10211000112391F00E948D738CA09DA0AEA0BFA052
:10212000DC01CB0188199909AA09BB0980319742C2
:10213000A105B10508F454C0CE010E94152884E021
:10214000F82EE12CDE1409F44AC06E817F81665FAF
:102150007F4F072E000C880B990B0E94537367ED7D
:1021600077E0888199810E945C834E815F81440F72
:10217000551F052E000C660B770B0DE71AE124E8BE
:102180003AE1CE010E940A8B182F81111BC0FA94EC
:10219000F11018C08A8587FD0DC060E00E94E971CA
:1021A00061E070E080E090E00E94537361E08A8516
:1021B0000E94E9716AEF70E080E090E00E94537342
:1021C00094E0F92EE394113009F0BCCF1BA30E94D8
:1021D0008D736CA37DA38EA39FA311E001C010E0BB
:1021E000812FDF91CF911F910F91FF90EF90DF90A2
:1021F000BF90AF909F908F9008958F929F92AF92D3
:10220000BF92FF920F931F93CF93DF93EC01FBA03C
:10221000FF2021F08BA1882331F008C065E00E94E7
:102220007A108111F7CF84E090E0FEC0888599850F
:10223000892B19F4CE010E941D1064ED77E0CE01C8
:102240000E943E2940E157E260E070E0CE010E942A
:102250008548288539852130364009F0A8C0833269
:10226000910509F4D7C05CF4833091052CF48130DA
:1022700091050CF4A6C0B9C0439789F0C9C0833456
:1022800091050CF0AFC0803491050CF0AEC08432E3
:10229000910509F4ACC0879709F4A9C0B9C065E0FD
:1022A000CE010E947A10882309F4B4C088859985EC
:1022B000892B19F4CE010E941D10888599858130E3
:1022C0009640B9F068EC77E0CE010E943E294DE7D8
:1022D0005AE164E87AE1CE010E944C8B813021F012
:1022E000CE010E94441096C0CE010E945610882351
:1022F000B9F365EC77E0CE010E943E294DE75AE143
:1023000064E87AE1CE010E944C8B813049F71BA230
:10231000888599858130964029F460ED77E080E0EA
:1023200090E004C064E670E080E090E00E945373A7
:102330000E948D734B015C010E948D73DC01CB0107
:1023400088199909AA09BB0980369A4EA105B105D9
:1023500068F461E0CE010E947A10811107C06AEF33
:1023600070E080E090E00E945373E6CF8885998505
:1023700081309640A9F061EC77E0CE010E943E29C1
:102380004DE75AE164E87AE1CE010E944C8B81303E
:1023900009F0A6CFCE010E945610882309F4A0CFE1
:1023A000CE010E944410CE010E94598B33C0853269
:1023B0009105E9F04CF48432910554F5823291058F
:1023C000A4F4892B49F124C08D32910544F48B3259
:1023D0009105F4F48A97E1F460ED77E00CC08F3258
:1023E000910539F08F3F910599F402E016C003E0A2
:1023F00014C06CEC77E0CE010E943E294DE75AE113
:1024000064E87AE1CE010E944C8BCE010E94561006
:1024100004E003C001E001C000E010E0F11003C0DF
:10242000CE010E944410C801DF91CF911F910F91FE
:10243000FF90BF90AF909F908F9008951F920F9242
:102440000FB60F9211240BB60F922F933F934F9319
:102450005F936F937F938F939F93AF93BF93CF932C
:10246000EF93FF9329B1C0912D1B8091751B909123
:10247000711B322F309593238223892B9091730007
:10248000C227C923C82320932D1BCC23C1F1C0FF31
:1024900005C0E0912E1BF0912F1B0995C1FF05C0CF
:1024A000E091301BF091311B0995C2FF05C0E0910E
:1024B000321BF091331B0995C3FF05C0E091341B1B
:1024C000F091351B0995C4FF05C0E091361BF091D2
:1024D000371B0995C5FF05C0E091381BF091391BEA
:1024E0000995C6FF05C0E0913A1BF0913B1B099589
:1024F000C7FF05C0E0913C1BF0913D1B0995FF9182
:10250000EF91CF91BF91AF919F918F917F916F91FB
:102510005F914F913F912F910F900BBE0F900FBE87
:102520000F901F9018951F920F920FB60F921124C3
:102530000BB60F922F933F934F935F936F937F93BD
:102540008F939F93AF93BF93CF93EF93FF9326B156
:10255000C0913E1B8091761B9091721B322F30955B
:1025600093238223892B90916D00C227C923C8230E
:1025700020933E1BCC23C1F1C0FF05C0E0913F1B5F
:10258000F091401B0995C1FF05C0E091411BF091FE
:10259000421B0995C2FF05C0E091431BF091441B0B
:1025A0000995C3FF05C0E091451BF091461B0995B5
:1025B000C4FF05C0E091471BF091481B0995C5FF7A
:1025C00005C0E091491BF0914A1B0995C6FF05C063
:1025D000E0914B1BF0914C1B0995C7FF05C0E091A2
:1025E0004D1BF0914E1B0995FF91EF91CF91BF913B
:1025F000AF919F918F917F916F915F914F913F919B
:102600002F910F900BBE0F900FBE0F901F9018953B
:102610001F920F920FB60F9211240BB60F922F93A9
:102620003F934F935F936F937F938F939F93AF935A
:10263000BF93CF93EF93FF9323B1C0914F1B809132
:10264000771B9091731B322F309593238223892B14
:1026500090916C00C227C923C82320934F1BCC2321
:10266000C1F1C0FF05C0E091501BF091511B0995CD
:10267000C1FF05C0E091521BF091531B0995C2FFA9
:1026800005C0E091541BF091551B0995C3FF05C08F
:10269000E091561BF091571B0995C4FF05C0E091CE
:1026A000581BF091591B0995C5FF05C0E0915A1BB5
:1026B000F0915B1B0995C6FF05C0E0915C1BF09192
:1026C0005D1B0995C7FF05C0E0915E1BF0915F1B84
:1026D0000995FF91EF91CF91BF91AF919F918F910C
:1026E0007F916F915F914F913F912F910F900BBE12
:1026F0000F900FBE0F901F9018951F920F920FB65C
:102700000F9211240BB60F922F933F934F935F9329
:102710006F937F938F939F93AF93BF93CF93EF93D9
:10272000FF9320B1C091601B8091781B9091741B26
:10273000322F309593238223892B90916B00C227EF
:10274000C923C8232093601BCC23C1F1C0FF05C05F
:10275000E091611BF091621B0995C1FF05C0E091FA
:10276000631BF091641B0995C2FF05C0E091651BD6
:10277000F091661B0995C3FF05C0E091671BF091BE
:10278000681B0995C4FF05C0E091691BF0916A1BA5
:102790000995C5FF05C0E0916B1BF0916C1B099575
:1027A000C6FF05C0E0916D1BF0916E1B0995C7FF38
:1027B00005C0E0916F1BF091701B0995FF91EF919F
:1027C000CF91BF91AF919F918F917F916F915F91C9
:1027D0004F913F912F910F900BBE0F900FBE0F9016
:1027E0001F9018951F920F920FB60F9211240BB6DF
:1027F0000F922F933F934F935F936F937F938F939A
:102800009F93AF93BF93EF93FF93E0912B1BF091B6
:102810002C1B0995FF91EF91BF91AF919F918F91E3
:102820007F916F915F914F913F912F910F900BBED0
:102830000F900FBE0F901F9018951F920F920FB61A
:102840000F9211240BB60F922F933F934F935F93E8
:102850006F937F938F939F93AF93BF93EF93FF9368
:10286000E091291BF0912A1B0995FF91EF91BF91EF
:10287000AF919F918F917F916F915F914F913F9118
:102880002F910F900BBE0F900FBE0F901F901895B9
:102890001F920F920FB60F9211240BB60F922F9327
:1028A0003F934F935F936F937F938F939F93AF93D8
:1028B000BF93EF93FF93E091271BF091281B09959D
:1028C000FF91EF91BF91AF919F918F917F916F9108
:1028D0005F914F913F912F910F900BBE0F900FBEC4
:1028E0000F901F901895BF92CF92DF92EF92FF92B8
:1028F0000F931F93CF93DF93CDB7DEB72C970FB60F
:10290000F894DEBF0FBECDBF6C01FC0184859585B8
:102910000E941528F601E484F584C7010E94152859
:10292000F701178E10A211A212A2B3A0BB2041F191
:102930006EEB77E0C7010E943E2928E833E140E0D2
:1029400050E0B701CE0107960E94D20FF7018085B3
:10295000918581309640D9F46AEB77E0C7010E94F7
:102960003E290DE71AE124E83AE148E853E160E046
:1029700070E0C7010E940A8BC7010E94561007C071
:1029800065E0C7010E947A108111D2CF2AC0BE0132
:10299000695F7F4FCE0101960E940282AE014F5FB8
:1029A0005F4F67EB77E0C7010E94C08BCE010196B5
:1029B0000E9480810DE71AE124E83AE148E853E1FA
:1029C00060E070E0C7010E940A8BC7010E945610A8
:1029D000B11003C0C7010E944410CE0107960E94A7
:1029E0008081F601848595850E941528F601158A57
:1029F0002C960FB6F894DEBF0FBECDBFDF91CF91FE
:102A00001F910F91FF90EF90DF90CF90BF900895AE
:102A10002F923F924F925F926F927F928F929F92EE
:102A2000AF92BF92CF92DF92EF92FF920F931F93DC
:102A3000CF93DF93CDB7DEB760970FB6F894DEBFC4
:102A40000FBECDBF6C017B01588B4F873901DC0174
:102A50001C968D919C911D970E941528F601F68574
:102A6000FD87D6011C960D911C911D97F80133A08E
:102A7000332091F1B701CE0101960E940B825801DB
:102A8000F1E1AF0EB11CBE016F5F7F4FC5010E9427
:102A9000E77F982ECE0101960E948081911023C07D
:102AA000B701CE0101960E940B82BE016F5F7F4F7E
:102AB000C5010E943280CE0101960E948081D8011A
:102AC00059961C9259975A961C925A975B961C924B
:102AD0005B975C961C9207C065E0C8010E947A1063
:102AE0008111C8CFFAC01B821C821D821E82F80190
:102AF000418D528D638D748D8B819C81AD81BE81A2
:102B0000481759076A077B0709F0B4C06DE578E0FC
:102B1000CE0107960E940B8260E170E0CE0107961D
:102B20000E943E800E948D734B015C0128EE33E0D1
:102B3000D3010E945CAE2B013C01D80193962C90EE
:102B4000211067C065E0C8010E947A10811161C040
:102B500085E893E09A8389831B821C821D821E82F2
:102B60007CC00E948D73DC01CB0188199909AA09E8
:102B7000BB0984159505A605B70590F462E070E0E1
:102B800080E090E00E945373F80180819181DC0124
:102B9000ED91FC910084F185E02D099504970CF3EB
:102BA000F801608171814DE0CE0101960E9465823D
:102BB000BE016F5F7F4FCE0107960E94F87FCE0166
:102BC00001960E948081CE0107960E94577FCE0118
:102BD00007960E94C78E811116C06EEA77E0CE017B
:102BE00001960E94CA81BE016F5F7F4FCE0107969A
:102BF0000E94E77F8E87CE0101960E948081BE856C
:102C0000BB2309F487C064EC79E080E090E00E9487
:102C100053730E948D73DC01CB0188199909AA09AD
:102C2000BB0984159505A605B70538F4A70164EB23
:102C300077E0C8010E94CC28A7CF211089CFF12CC2
:102C4000C8010E944410FF2009F482CFBE01695FD1
:102C50007F4FCE0101960E944A28CE0107960E941E
:102C600080818B819C81AD81BE81F801818F928FA3
:102C7000A38FB48FD80159964D915D916D917C9140
:102C80005C971B821C821D821E828B819C81AD8180
:102C9000BE81481759076A077B07C1F085E893E0B2
:102CA0009A838983F801818D928DA38DB48D8B8356
:102CB0009C83AD83BE832D854F855889BE016F5F90
:102CC0007F4FC8010E943F50F82E01C0F12C3110F7
:102CD00003C0C8010E9444108F2DD60155968C93D5
:102CE00090E060960FB6F894DEBF0FBECDBFDF91C7
:102CF000CF911F910F91FF90EF90DF90CF90BF90F9
:102D0000AF909F908F907F906F905F904F903F908B
:102D10002F90089521109ACFFF24F39491CF8F9292
:102D20009F92AF92CF92EF92FF920F931F93CF9308
:102D3000DF93CDB7DEB7AA970FB6F894DEBF0FBE0C
:102D4000CDBF4C01162F0E9466360E943836A72E42
:102D50000E9466360E943836C62E0E9466360E9451
:102D60003836E52E0E9466360E943836042F0E94BF
:102D700066360E943836F32E0E9466360E94383638
:102D8000422F50E04053584F2F2D612FC4010C9615
:102D90000E94034EAA960FB6F894DEBF0FBECDBFB9
:102DA000DF91CF911F910F91FF90EF90CF90AF9057
:102DB0009F908F900895CF93DF93EC0180E2FB0109
:102DC0003C96DE011C9601900D928A95E1F7FB017D
:102DD000828193819B838A8384819581A681B78137
:102DE0008C839D83AE83BF8380859185A285B385C7
:102DF00088879987AA87BB8784E194E09983888331
:102E0000DF91CF910895CF93C62F91E09093CD1588
:102E100098E69093EF151092CE151092F015682F4A
:102E200086E29CE00E94426F6C2F86E29CE00E944A
:102E3000426FCF910C94974E91E09093CD1598E608
:102E40009093EF151092CE151092F015682F86E230
:102E50009CE00E94426F0E94974E81E090E00E94A9
:102E6000984F86E29CE00E94F96E089510928415B6
:102E7000109283151092CE151092F0151092CC1569
:102E800081E08093CB151092A61561E081E10E944C
:102E9000E97161E080E10E94E971E9EBF0E0808195
:102EA0008E7F808380818D7F808380E28093B800D5
:102EB00085E48093BC0087EE9EE690937F15809317
:102EC0007E1588EE9EE690937D1580937C1508957F
:102ED0000E9436176CE18EE00E9403176AE070E0F2
:102EE00080E090E00E94537382E00E941C17682FDC
:102EF0006F7B82E00E9403176AE070E080E090E060
:102F00000E94537381E00895EF92FF920F931F93F5
:102F1000CF93DF93EC0134E0F32E00E010E08091DA
:102F200051150E943C73080F191FFA94F110F7CF46
:102F3000E0904F15F090501566EE76E0C7010E94C4
:102F40003FB2892B71F4B8017695679576956795B0
:102F500080E090E00E947FAC23E039E948E75CE341
:102F600037C06DEE76E0C7010E943FB2892B39F081
:102F70006EEE74E0C7010E943FB2892B71F4B80174
:102F8000769567957695679580E090E00E947FAC96
:102F90002FE037E648E75CE31BC062EF76E0C7014D
:102FA0000E943FB2892B39F067EF76E0C7010E949B
:102FB0003FB2892B99F4B801769567957695679518
:102FC00080E090E00E947FAC2DE332E64BE95BE3CA
:102FD0000E94E0AC688379838A839B8368817981CE
:102FE0008A819B81DF91CF911F910F91FF90EF908C
:102FF0000895CF93DF93EC016EED78E082E39CE0DF
:103000000E945C83BE0182E39CE00E9480838091E9
:10301000490F882321F16DEC78E082E39CE00E9467
:103020005C8340E150E06091490F82E39CE00E94A4
:10303000118369EC78E082E39CE00E945C8340911C
:103040004D0F50E060E070E020E182E39CE00E94E0
:10305000B28282E39CE0DF91CF910C94FB82DF91FE
:10306000CF9108950F931F93CF93DF93EC010E94AC
:103070007C8C8C01CE010E94FB82800F911FDF911E
:10308000CF911F910F910895AF92BF92CF92DF928F
:10309000EF92FF920F931F93CF93DF931F92CDB7C1
:1030A000DEB76C017B018FEF9FEF00E010E058016D
:1030B0002FEFA21AB20A24E6A216B104CCF4BE0184
:1030C0006F5F7F4FC6010E9452888130910581F465
:1030D00029812D3061F3F701E00FF11F2083850175
:1030E0002A3029F7F701E00FF11F1082C80104C050
:1030F00097FFF8CF8FEF9FEF0F90DF91CF911F9148
:103100000F91FF90EF90DF90CF90BF90AF90089518
:10311000CF93DF93CDB7DEB7A0970FB6F894DEBF9D
:103120000FBECDBF19821A8221E0AC0169E27FE0B7
:10313000CE0101960E945026882321F0CE010196EF
:103140000E945454A0960FB6F894DEBF0FBECDBFB8
:10315000DF91CF910895CF92DF92EF92FF921F936C
:10316000CF93DF9300D000D000D0CDB7DEB76B0196
:103170007C01672B682B692B31F483E399E00E9473
:10318000B27980E053C0109180150E946636DC0150
:10319000CB018C199D09AE09BF09B7FF07C0B095D7
:1031A000A095909581959F4FAF4FBF4F0697A10572
:1031B000B1050CF1C701B6010E947853A12F110F80
:1031C000BB0B20E13EE00E945CAEAB01BC014C0DAC
:1031D0005D1D6E1D7F1DCE0101960E944635BE010C
:1031E0006F5F7F4F8FE199E00E94AB86CE01019621
:1031F0000E9480811AC068E079E082E39CE00E942E
:103200005C8360E282E39CE00E94218365E070E0E1
:1032100082E39CE00E94768C60E282E39CE00E9464
:10322000218387EF98E00E94B27981E026960FB65D
:10323000F894DEBF0FBECDBFDF91CF911F91FF90FD
:10324000EF90DF90CF9008958F929F92AF92CF92A0
:10325000DF92EF92FF920F931F93CF93DF93CDB73F
:10326000DEB727970FB6F894DEBF0FBECDBF4C0177
:10327000162F409178155091791560917A157091BB
:103280007B15405853446D467843CE0101960E9409
:103290002C77498150E04053584FAE80CD80EC8070
:1032A0000B812A81612FC4010C960E94034E81116B
:1032B00053C09E808D80FC80EB80DA80098110E015
:1032C0000053184F66EE78E082E39CE00E945C8336
:1032D00060E282E39CE00E942183B80182E39CE0EB
:1032E0000E947C8C60E282E39CE00E9421834AE0A1
:1032F00050E06D2D82E39CE00E94118360E282E346
:103300009CE00E9421834AE050E06E2D82E39CE025
:103310000E94118360E282E39CE00E9421834AE0E4
:1033200050E06F2D82E39CE00E94118360E282E313
:103330009CE00E9421834AE050E0682D82E39CE0FB
:103340000E94118360E282E39CE00E942183692D48
:1033500082E39CE00E94308C27960FB6F894DEBF83
:103360000FBECDBFDF91CF911F910F91FF90EF90D6
:10337000DF90CF90AF909F908F900895CF92DF9283
:10338000EF92FF920F931F93CF93DF93CDB7DEB7EA
:10339000CF5DD1090FB6F894DEBF0FBECDBF182F99
:1033A000CE0101960E94E430112309F4E8C11DA664
:1033B0001EA620E04CEF56E069E27FE0CE018D963C
:1033C0000E945026882381F08CEF96E00E94881896
:1033D00081110AC066E970E187EB98E00E94305DD8
:1033E00085EA98E00E94F9170091761510917715FB
:1033F000C357DF4F1882CD58D040C257DF4F1882D5
:10340000CE58D040AE961FAEAE97AF961FAEAF97D8
:1034100080917610887111F410E0AAC120917C107F
:1034200030917D10F8018681978128173907A1F71F
:1034300086E790E10E94C25980E2E6E7F0E1DE0112
:10344000A359BF4F01900D928A95E1F760E086E79E
:1034500090E10E94D126FC01892BF1F290E2DE017D
:10346000A355BF4F01900D929A95E1F78091761088
:1034700083FD93C18CEF96E0C252DF4F998388831E
:10348000CE5DD0402E961FAE2E972F961FAE2F9753
:10349000C357DF4F8881CD58D0408111BDCF011572
:1034A000110509F4B9CFF8018081807709F4B4CF10
:1034B000AE0142525F4FBE0163537F4FC252DF4F96
:1034C00088819981CE5DD0400E948B58882309F471
:1034D000A3CFC252DF4FE881F981CE5DD040808119
:1034E00081116BC1F8018081807709F495CF22E5C5
:1034F000AE0143535F4FB801CE0183579F4F0E94E7
:103500002655882309F488CF81E0C157DF4F88838F
:10351000CF58D04080E1F82EC357DF4FF882CD5806
:10352000D040CE0183579F4F0E948F27882309F4F4
:1035300073CFC756DF4F88819981AA81BB81C95952
:10354000D040C755DF4F88839983AA83BB83C95A6C
:10355000D04040E050E0BA01CE0183579F4F0E9417
:103560002025CE0183579F4F0E94C259882309F41A
:1035700053CF61E0CE0183579F4F0E94D126009721
:1035800009F44ACFFC01F38620E2DE019D9601900A
:103590000D922A95E1F7FC01C488D588E28CF38C62
:1035A0008EE28DA7FE01BE96CE01C89620E2219341
:1035B0008E179F07E1F7CD56DF4FE881F981C35998
:1035C000D040C755DF4F488159816A817B81C95AF4
:1035D000D0404250510961097109048004C0440F70
:1035E000551F661F771F0A94D2F780899189A28997
:1035F000B389480F591F6A1F7B1F21E0CF018096B6
:103600000E948A32009709F407CF2396DFAECEAE30
:1036100023972996FFAEEEAE299720E2FE01BD96D4
:10362000DC0101900D922A95E1F72EE22EA7F80118
:10363000448D558D668D778D23967FAF6EAF239722
:1036400029965FAF4EAF299720E2FE01BD96DC01BF
:10365000909601900D922A95E1F7CD56DF4F888123
:103660009981C359D0400E941228882309F4D4CEEE
:10367000C755DF4FC880D980EA80FB80C95AD04047
:10368000CF55DF4F88819981AA81BB81C15AD04033
:1036900080938A1090938B10A0938C10B0938D1010
:1036A000CF56DF4F88819981C159D04090937B10CC
:1036B00080937A10C057DF4F8881C059D0408093E3
:1036C0007910CB56DF4F88819981AA81BB81C5597A
:1036D000D04080937E1090937F10A0938010B09381
:1036E0008110C357DF4F1882CD58D04061E086E784
:1036F00090E10E94D126009709F48ECEDC011D9640
:1037000023E1EDEAF0E0EC0FFD1F3D9601900D92F4
:103710002A95E1F7C854DF4F2881C85BD040FC01EF
:103720002387C114D104E104F10409F067C0C7572D
:10373000DF4F188219821A821B82C958D04082E05A
:10374000E0968FAFE09788E0AE968FAFAE97CE0150
:1037500083599F4F0E945454882309F45DCE809171
:103760007C1090917D100E941228182F8111B0C0FA
:103770006CEF76E083E998E00E94305D25C186E732
:1037800090E10E944726811106C08AEE97E00E94D0
:10379000F91710E019C111E017C121E54CEF56E00F
:1037A000B801CE0183579F4F0E945026882309F409
:1037B00033CEC12CD12C760163CF20E0AE01435330
:1037C0005F4FB801CE0183579F4F0E942655882333
:1037D00009F422CE80E2FE01E357FF4FDE01A35B36
:1037E000BF4F01900D928A95E1F7CE0183579F4F0D
:1037F0000E9447268E01035B1F4F5ACEE0917C103A
:10380000F0917D10B701A60142505109610971097B
:10381000048004C0440F551F661F771F0A94D2F717
:1038200080899189A289B389480F591F6A1F7B1F1C
:1038300020E0CF0180960E948A32FC01892B09F496
:10384000EBCD90E2B096DE01A355BF4F01900D92F3
:103850009A95E1F7B701A60180917C1090917D10B7
:103860000E94BE34882309F4D7CDE0917C10F091FA
:103870007D1040919210509193106091941070912E
:1038800095104250510961097109048004C0440F28
:10389000551F661F771F0A94D2F780899189A289E4
:1038A000B389480F591F6A1F7B1F21E0CF01809603
:1038B0000E948A32DC01892B09F4AECD90E2FE0130
:1038C000E355FF4F909601900D929A95E1F72FCF17
:1038D00041E166E970E1CE010D960E94F63081115A
:1038E00007C066E970E183E898E00E94305D51CF3F
:1038F000E8EAFFE001900020E9F78F01095A1F4034
:1039000009F44EC0A80168EA7FE0CE010D960E943E
:10391000FD590817190719F400E010E011C067E617
:1039200078E082E39CE00E945C8360E282E39CE0BA
:103930000E942183C8010E942A5D32C00F5F1F4F81
:1039400068EA7FE086E790E10E9444187C0118163F
:10395000190644F5AC0168EA7FE0CE010D960E949D
:10396000FD596C0110920B10E816F90639F36BE45F
:1039700078E082E39CE00E945C8360E282E39CE06A
:103980000E942183B70182E39CE00E94768C60E272
:1039900082E39CE00E942183C6010E942A5D02C04E
:1039A00000E010E0B80184E298E00E94165D1093F8
:1039B0000D1000930C10CE010D960E944726811128
:1039C000DECE88E098E0E3CE812FC152DF4F0FB604
:1039D000F894DEBF0FBECDBFDF91CF911F910F9145
:1039E000FF90EF90DF90CF9008950F931F93CF93A8
:1039F000DF938B01EA01C2960E94ED62682F082EC8
:103A0000000C990BF80191838083892BB1F0062E6D
:103A1000000C770B880B990B0E9481AC2BEE32EED9
:103A20004EEC5FE30E94E0AC29E23CE946E353E45C
:103A30000E946DAE0E944BAF02C060E070E07983DF
:103A4000688381E0DF91CF911F910F9108958F924C
:103A50009F92AF92BF92DF92EF92FF920F931F93CC
:103A6000CF93DF932FEF3FEF3093040120930301B7
:103A7000D090A90ADD20C9F1EC017C0122E3E20E1D
:103A8000F11C65E0C7010E947A100E948D734B0102
:103A90005C01C7010E94ED62082F880F110B011510
:103AA000110579F01093040100930301E881F98175
:103AB000048CF58DE02DCE010995C7010E944410BC
:103AC00014C06AEF70E080E090E00E9453730E949F
:103AD0008D73DC01CB0188199909AA09BB098839C2
:103AE0009A43A105B105A8F2DDCF8D2DDF91CF91CD
:103AF0001F910F91FF90EF90DF90BF90AF909F903C
:103B00008F900895DF92EF92FF920F931F93CF93C0
:103B1000DF93EC0179018C010E5C1F4FFB011082D9
:103B2000FA011082FC01EB5AFF4FD080DD2041F0FA
:103B30008AAD9BAD892B69F4C8010E941D1009C094
:103B400065E0C8010E947A108111F2CFD0E0C0E098
:103B50001BC08AAD9BAD8130964079F465E579E074
:103B6000C8010E943E2948EE53E060E070E0C801C1
:103B70000E948548D82FC92F02C0D0E0C0E0D110E4
:103B800003C0C8010E944410F701D083C18381E0C3
:103B9000DF91CF911F910F91FF90EF90DF900895EB
:103BA0000F931F93CF93DF93FC01238527FD24C040
:103BB000EC018C010E5C1F4F65E0C8010E947A1079
:103BC0008823A1F040E050E06EE579E0C8010E9452
:103BD00005294EE75AE065E87AE0C8010E944C8B5F
:103BE000C8010E945610C8010E9444106C8581E0F3
:103BF00068278B850E94E97181E0DF91CF911F9149
:103C00000F910895CF93DF93EC018B8587FD1EC044
:103C10006C850E94E971E29665E0CE010E947A10FF
:103C20008823A1F040E050E06BE579E0CE010E94EE
:103C300005294EE75AE065E87AE0CE010E944C8BF8
:103C4000CE010E945610CE010E94441081E0DF9107
:103C5000CF910895CF92DF92EF92FF921F93CF936F
:103C6000DF93CDB7DEB72B970FB6F894DEBF0FBE4C
:103C7000CDBF6C0122E3C20ED11CFC01EB5AFF4FF9
:103C80001081112371F048E559E0B601CE0101968B
:103C90000E94DA86CE0101960E94C78E811136C03D
:103CA0000EC065E0C6010E947A108111ECCFC12CD4
:103CB0009CE3D92E9CE1E92E96ECF92E32C07E01D0
:103CC00087E0E80EF11C85E0F70111928A95E9F78B
:103CD00045E050E0B701CE0101960E942B8940E1FA
:103CE00050E060E070E0C7010E94E5A5F62E1111DA
:103CF00003C0C6010E9444106F2DFF0C770B880B88
:103D0000990B0E9481AC6B017C0107C0C12C8CE334
:103D1000D82E8CE1E82E86ECF82ECE0101960E947A
:103D20008081C701B6012B960FB6F894DEBF0FBE97
:103D3000CDBFDF91CF911F91FF90EF90DF90CF909B
:103D400008954F925F926F927F928F929F92AF925F
:103D5000BF92CF92DF92FF920F931F93CF93DF9387
:103D600000D000D0CDB7DEB76C01DC01ED91FC9145
:103D700002A0F3A1E02D0995882309F4C2C034E61E
:103D8000832E912CA12CB12CF12C8601065A1F4FA9
:103D90000E948D73F60146A057A060A471A4F0EABA
:103DA0004F0EFFE05F1E611C711C641575058605D2
:103DB000970570F34AE050E06F2D82E39CE00E948B
:103DC000118360E282E39CE00E94218366E077E059
:103DD00086EC9AE00E94305D2FE030E045E250E052
:103DE00066E077E0C8010E940815892B09F492C0AB
:103DF000C501B4010E9453730E948D732B013C01D5
:103E000061E2C8010E942883C8010E94BE0D882378
:103E100091F0C8010E94E50E04976CF40E948D7326
:103E2000DC01CB0184199509A609B70988389341AB
:103E3000A105B10548F3C8010E94E50E04970CF4F2
:103E400065C00E948D734B015C0184189508A6081B
:103E5000B70861EB7AE082E39CE00E945C8360E259
:103E600082E39CE00E9421832AE0B501A40182E361
:103E70009CE00E94B28260E282E39CE00E94218387
:103E80008EEA9AE00E94B27919821A821B821C8201
:103E900044E050E0BE016F5F7F4FC8010E94FB0EFF
:103EA000C8010E947314498150E060E070E0762FF1
:103EB000652F542F44278A81480F511D611D711DA4
:103EC000762F652F542F44278B81480F511D611D7C
:103ED000711D8C8190E0A0E0B0E080589E47AA4A16
:103EE000B348762F652F542F4427480F591F6A1F58
:103EF0007B1F40388DEA58078AE268078CE578070F
:103F0000B0F430E020E080E090E01CC08CE89AE063
:103F10000E94B279C8010E947314F394B4E68B0E28
:103F2000911CA11CB11CEAE0FE1232CFEACF41384D
:103F3000A8ED5A07ABED6A07A0E77A0710F7342F10
:103F4000252FCB01632F722F0F900F900F900F90A2
:103F5000DF91CF911F910F91FF90DF90CF90BF9095
:103F6000AF909F908F907F906F905F904F9008954B
:103F70002F923F924F925F926F927F929F92AF9259
:103F8000BF92CF92DF92EF92FF920F931F93CF9346
:103F9000DF93CDB7DEB7C155D1090FB6F894DEBFB8
:103FA0000FBECDBF8C016DE578E0CE01845B9F4FE5
:103FB0000E940B82680122E3C20ED11CC6010E943E
:103FC000598BF801E65AFF4FD586C4861686158AA6
:103FD000D801D596FC93EE93D497DA966D917C91A7
:103FE000DB97CE0101960E94AB5D7801BCE2EB0E3F
:103FF000F11CBE016F5F7F4FC7010E943280CE016E
:1040000001960E94808165E0C6010E947A10882393
:1040100009F41BC2C6010E941D10F80162AD73AD08
:10402000CE0101960E94AB5DBE016F5F7F4FC7015D
:104030000E943280CE0101960E94808141E050E0D2
:1040400069E87AE0C6010E9405294EE75AE065E872
:104050007AE0C6010E944C8B41E050E06BE77AE0C9
:10406000C6010E9405294EE75AE065E87AE0C601DC
:104070000E944C8B41E050E068E77AE0C6010E9464
:1040800005294EE75AE065E87AE0C6010E944C8BAC
:1040900041E050E065E77AE0C6010E9405294EE75D
:1040A0005AE065E87AE0C6010E944C8B41E050E09E
:1040B00062E77AE0C6010E9405294EE75AE065E80A
:1040C0007AE0C6010E944C8B41E050E06FE67AE056
:1040D000C6010E9405294EE75AE065E87AE0C6016C
:1040E0000E944C8B40E050E06CE67AE0C6010E94F2
:1040F00005294EE75AE065E87AE0C6010E944C8B3C
:1041000040E050E069E67AE0C6010E9405294EE7EA
:104110005AE065E87AE0C6010E944C8B64E67AE0DA
:10412000C6010E943E294EE75AE065E87AE0C601E2
:104130000E944C8B40E050E061E67AE0C6010E94AC
:1041400005294EE75AE065E87AE0C6010E944C8BEB
:1041500040E450E06EE57AE0C6010E9405294EE792
:104160005AE065E87AE0C6010E944C8BF801EB54F6
:10417000FF4FA080B180E056F109F080FF2031F1BF
:10418000A50165E679E0C6010E94CC284EE75AE019
:1041900065E87AE0C6010E944C8B61E679E0C601D1
:1041A0000E943E290EE71AE025E83AE048E853E18C
:1041B00060E070E0C6010E940A8BC6010E945610A2
:1041C000F1100AC0C6010E94441006C065E0C60195
:1041D0000E947A108111D4CF6AE57AE0C6010E946C
:1041E0003E294EE75AE065E87AE0C6010E944C8B12
:1041F000C6010E9456108E01005C1F4F6DE578E0ED
:10420000C8010E940B8285E19AE00E94B2790E9467
:104210008D731B012C01FF24F394A12CB12CE02EF3
:10422000912E0E948D73DC01CB0182199309A409A0
:10423000B509803E9349A440B10508F0FCC062E195
:104240007AE0C6010E943E2940E157E260E070E05A
:10425000C6010E948548782E48E659E0B601CE0195
:10426000CA960E94DA8640E1672DCE01C4960E946C
:10427000858160E070E0CE018E960E94FA4E0E9429
:104280008D7319A618A61BA61AA61DA61CA60E9409
:104290007FAC20E030E04AE754E40E94D9AE8E01C2
:1042A0000F5F1F4F22E044E00E94A4A4BC01CE0196
:1042B00088960E9452811BA21AA21DA21CA21FA2B4
:1042C0001EA24AE0B801C5010E948AA8B801CE0129
:1042D00082960E945281BE016E5D7F4FC8010E948E
:1042E000028265E277E0C8010E940581BE01685D37
:1042F0007F4F0E941E8164E177E00E940581BE012C
:10430000625D7F4F0E941E8167E177E00E94058118
:10431000BE016C5C7F4F0E941E816BE177E00E94C2
:104320000581BE01665C7F4F0E941E816CE177E0D3
:104330000E940581BC018E2D992D0E946981C801C2
:104340000E948081CE0182960E948081CE01889653
:104350000E948081CE018E960E948081CE01C496FB
:104360000E948081CE01CA960E948081772019F038
:1043700023E2721236C04AE06F2DCE0182960E946F
:1043800085816EE177E0CE0101960E940B82BE012D
:104390006E5D7F4FCE0101960E941E81BC018E2D65
:1043A000992D0E94F34ECE0101960E948081CE018C
:1043B00082960E9480816E2D792DCE0101960E94F9
:1043C0000282BE016F5F7F4F82E39CE00E944A83BE
:1043D000CE0101960E948081F39483E08F1508F549
:1043E0003AC06E2D792DCE0101960E940282BE0147
:1043F0006F5F7F4F82E39CE00E944A83CE0101966B
:104400000E948081AAE0AA16B10449F46CE07AE027
:10441000C6010E943E2980E09AE00E94B279FF2402
:10442000F39468EE73E080E090E00E945373BFEF76
:10443000AB1ABB0AF6CE10E0C6010E944410CE01B2
:10444000805C9F4F0E94808170C18BE699E00E9442
:10445000B27910E06AC1C6010E94FD10BC01CE0114
:1044600001960E94FA4EBE016F5F7F4FCE01845BC2
:104470009F4F0E94F87FCE0101960E948081BE016D
:10448000645B7F4FCE0182960E94028268ED79E0E4
:1044900082E39CE00E945C8360E282E39CE00E94F5
:1044A0002183BE016E5D7F4FCE0101960E94028284
:1044B000BE016F5F7F4F82E39CE00E943C8360E21D
:1044C00082E39CE00E9421836CE177E082E39CE040
:1044D0000E94FF82CE0101960E948081CE018296C9
:1044E0000E9480816DE578E0CE01CA960E940B8221
:1044F00065ED79E0C6010E943E298EE7E82E8AE04C
:10450000F82E05E81AE09E01265C3F4F48EE53E086
:1045100060E070E0C6010E94E38994EF492E5524C3
:104520005394612C712CAA24A394B12C6DE578E0EE
:10453000CE01CA960E945281C301B2010E945373F8
:1045400062ED79E0C6010E943E293EE7E32E3AE0A3
:10455000F32E05E81AE09E01265C3F4F48EE53E03B
:1045600060E070E0C6010E94E3890EAD1FADBE01A0
:10457000665C7F4FCE018A5B9F4F0E9402826BEC8C
:1045800079E082E39CE00E945C8360E282E39CE04D
:104590000E942183BE016A5B7F4FCE01C4960E94B8
:1045A0000282B50182E39CE00E94768C60E282E3A5
:1045B0009CE00E942183BE016C5C7F4FCE018E96F1
:1045C0000E94028267E078E082E39CE00E943A83E6
:1045D00060E282E39CE00E942183BE01625D7F4F26
:1045E000CE0188960E94028260E170E082E39CE046
:1045F0000E94768C60E282E39CE00E942183BE01EF
:10460000685D7F4FCE0182960E94028267EC79E05E
:1046100082E39CE00E945C8360E282E39CE00E9473
:104620002183BE016E5D7F4FCE0101960E94028202
:10463000BE016F5F7F4F82E39CE00E943C8360E29B
:1046400082E39CE00E94218364E277E082E39CE0C5
:104650000E943A8360E282E39CE00E942183B801D9
:1046600082E39CE00E943218CE0101960E94808174
:10467000CE0182960E948081CE0188960E94808120
:10468000CE018E960E948081CE01C4960E948081C8
:10469000CE018A5B9F4F0E94808167E277E0CE0166
:1046A00001960E940B82BE016F5F7F4FCE01CA96BA
:1046B0000E94B77F892B29F011E08EAD9FAD08973E
:1046C00008F410E0CE0101960E948081111118C0FB
:1046D000EFEFAE1ABE0AF4EF4F0EF1E05F1E611C61
:1046E000711C21E1A216B10409F020CF85E999E0FF
:1046F0000E94B279CE01CA960E94808111E09CCEC0
:10470000BE01665C7F4FCE0101960E94028244E8A2
:1047100059E0BE016F5F7F4F86E899E00E942967EC
:10472000CE0101960E948081E5CFCE01845B9F4F30
:104730000E948081812FCF5ADF4F0FB6F894DEBFE1
:104740000FBECDBFDF91CF911F910F91FF90EF90E2
:10475000DF90CF90BF90AF909F907F906F905F90D1
:104760004F903F902F900895DC01ED91FC910688C9
:10477000F789E02D099591E0811101C090E0892F22
:104780000895CF93DF93EC01E881F9810084F185EE
:10479000E02D0995892B11F48D8901C081E0DF910D
:1047A000CF9108958FEF9FEF0895CF93DF931F92DE
:1047B000CDB7DEB7DC01ED91FC910288F389E02DE5
:1047C00041E050E0BE016F5F7F4F0995019719F4FA
:1047D000898190E002C08FEF9FEF0F90DF91CF9122
:1047E0000895DC011C96ED91FC911D9780819181CB
:1047F000DC01ED91FC910680F781E02D0994CF93C7
:10480000DF931F92CDB7DEB76983DC01ED91FC9198
:104810000280F381E02D41E050E0BE016F5F7F4FE9
:1048200009950F90DF91CF910895CF93DF93EC011D
:1048300062E070E080E090E00E945373FE01E95A6C
:10484000FF4FC75ADF4F8081918128813981821BB8
:10485000930B97FF02C0805C9F4FDF91CF9108952B
:104860002F923F924F925F926F927F928F929F9280
:10487000AF92BF92CF92DF92EF92FF920F931F936E
:10488000CF93DF93CDB7DEB72C970FB6F894DEBF8A
:104890000FBECDBF5C011B015E834D8362E070E003
:1048A00080E090E00E9453730E948D732B013C01C5
:1048B000E12CF12C9501295A3F4F38872F83C501F0
:1048C000875A9F4F9C838B83F5017796FA87E987F8
:1048D0002D813E81E216F30608F07DC00E948D73A3
:1048E000DC01CB0184199509A609B709F5010481FA
:1048F00015812681378180179107A207B30708F039
:104900006AC0EF81F88580819181EB81FC812081F3
:104910003181821B930B97FF02C0805C9F4F0D81FA
:104920001E810E191F098017910708F48C010115CB
:10493000110571F268013A822982EB81FC81808045
:104940009180EF81F8850190F081E02DE819F90957
:10495000FC87EB87F7FF04C0E05CFF4FFC87EB8729
:104960002B853C85232B29F4200E311EE00EF11EF1
:10497000AFCF80E490E088199909C816D9060CF4E5
:10498000C601EB85FC858E179F0714F49C878B87E7
:1049900069857A85680D791D4B855C8589819A8149
:1049A0000E9407B22B853C85820E931E3FE3832233
:1049B0009924EB81FC81918280822B853C85C21AEF
:1049C000D30A89819A81820F931F9A838983C114A4
:1049D000D10451F2B2CFC7012C960FB6F894DEBFC6
:1049E0000FBECDBFDF91CF911F910F91FF90EF9040
:1049F000DF90CF90BF90AF909F908F907F906F90FF
:104A00005F904F903F902F900895EF92FF920F93F9
:104A10001F93CF93DF93EC018B017A0162E070E08A
:104A200080E090E00E945373A701B8018C859D85BA
:104A3000DF91CF911F910F91FF90EF900C9427532E
:104A40004F925F926F927F928F929F92AF92BF929E
:104A5000CF92DF92EF92FF920F931F93CF93DF934A
:104A6000EC014A015B014C845D846E847F84A881E3
:104A7000AA2309F491C0488959896A897B89481514
:104A800059056A057B0509F48DC081149104A104C0
:104A9000B10429F41C861D861E861F8678C0A3FFDC
:104AA0000BC0088D198D2A8D3B8D081519052A0517
:104AB0003B0508F471C014C0A5FF12C0EE81FF8150
:104AC0008681978125E0880F991F2A95E1F7A0E05C
:104AD000B0E088159905AA05BB0508F45DC057C06C
:104AE000EE81FF81848190E009968A019B0101504B
:104AF000110921093109082E04C03695279517950B
:104B000007950A94D2F775016401B1E0CB1AD10878
:104B1000E108F10804C0F694E794D794C7948A9505
:104B2000D2F7C016D106E206F30620F0452B462B3D
:104B3000472B99F4A6FF05C0848D958DA68DB78D62
:104B400004C08C8D9D8DAE8DBF8D8C879D87AE876B
:104B5000BF878E01045F1F4F15C0C01AD10AE20A39
:104B6000F30AF7CF4C855D856E857F8598018E8130
:104B70009F810E943E3491E0C91AD108E108F108F2
:104B8000181654F4C114D104E104F10459F7888AC9
:104B9000998AAA8ABB8A06C04C865D866E867F8605
:104BA00080E001C081E0DF91CF911F910F91FF90D4
:104BB000EF90DF90CF90BF90AF909F908F907F90BD
:104BC0006F905F904F900895FF920F931F93CF9334
:104BD000DF931F92CDB7DEB78C01FC0180899189EC
:104BE000A289B3899C01AD0175E05695479537952B
:104BF00027957A95D1F7F22FFF70FF2E11F06111F2
:104C000014C0BE016F5F7F4FC8010E94528881307F
:104C100019F080E090E01AC0F80180899189A2899A
:104C2000B3894F96A11DB11D04C08096A11DB11D71
:104C3000F801808B918BA28BB38BF80186819781D1
:104C40008796F0E2FF9E800D911D11240F90DF9159
:104C5000CF911F910F91FF900895FC0180818111E8
:104C600014C080E2DF01982F1D929A95E9F77783AF
:104C70006683DB0115969C91903119F0903229F4EE
:104C800080E4808381E08283089580E00895CF935B
:104C9000DF93EC010E94C2591882DF91CF910895F1
:104CA000DF92EF92FF920F931F93CF93DF93CDB7D5
:104CB000DEB7E3970FB6F894DEBF0FBECDBF7C0121
:104CC0008B015BAB4AABD22E19821A82FC01808128
:104CD000882311F080E057C061157105D9F3FB01FD
:104CE00080818077B9F3EAA9FBA980818F32D9F45A
:104CF000EAA9FBA980818F3221F43196FBABEAABA4
:104D0000F7CFF80166817781811104C0C7010E9445
:104D10002D2639C0CE0101960E942D268823D1F27E
:104D20008E010F5F1F4FAE014E5C5F4FBE016F5D86
:104D30007F4F8AA99BA90E948B58882359F2EAA920
:104D4000FBA980818823B9F020E0AE014F5D5F4F61
:104D5000B801C7010E942655882309F4BBCF80E221
:104D6000F701DE01119601900D928A95E1F7C701D6
:104D70000E944726D5CF2D2DAE014F5D5F4FB80164
:104D8000C7010E942655E3960FB6F894DEBF0FBE0A
:104D9000CDBFDF91CF911F910F91FF90EF90DF90EA
:104DA0000895CF93DF93EC01262F4C895D896E899E
:104DB0007F898E819F8180960E948A32009761F060
:104DC0002C813D812F70332745E0220F331F4A95F8
:104DD000E1F7820F931F02C080E090E0DF91CF9156
:104DE00008953F924F925F926F927F928F929F921F
:104DF000AF92BF92CF92DF92EF92FF920F931F93E9
:104E0000CF93DF9300D000D0CDB7DEB74C01FC01CB
:104E10008281846082834484558466847784A680FA
:104E2000B780F501C084D184E284F384C414D5042E
:104E3000E604F704C0F47301620110E0FFEFCF1A3B
:104E4000DF0AEF0AFF0AF501808D918DA28DB38DE7
:104E50008C159D05AE05BF0540F4111132C0C0840C
:104E6000D184E284F38411E0E9CF4C145D046E0434
:104E70007F0439F19E012F5F3F4FB701A601C501A5
:104E80000E943E3487FD1DC08823C1F289819A812A
:104E9000AB81BC81892B8A2B8B2B81F6112329F0C6
:104EA000F501C086D186E286F3860FEF1FEF2FEF64
:104EB0003FE0B701A601C5010E94CD33382E811114
:104EC00002C0312C15C0411451046104710431F445
:104ED000F401C486D586E686F7860AC09701860166
:104EE000B301A201C5010E94CD338111F1CFE9CFF9
:104EF000832D0F900F900F900F90DF91CF911F9106
:104F00000F91FF90EF90DF90CF90BF90AF909F9068
:104F10008F907F906F905F904F903F9008958F9209
:104F20009F92AF92BF92EF92FF920F931F93CF93F6
:104F3000DF93EC01888185FF02C010E067C088899B
:104F40009989AA89BB8981159E4FAF41B105A8F700
:104F5000CE010E94F126182F882379F3EE81FF817C
:104F60004C855D856E857F854250510961097109C7
:104F7000048004C0440F551F661F771F0A94D2F7A0
:104F800080889188A288B388840E951EA61EB71EBD
:104F900025E0B501A401CF0180960E948A327C01F0
:104FA000892B59F280E092E0F7019C011192215087
:104FB0003040E1F701E0EE81FF818281081780F443
:104FC0009701B501A401400F511D611D711D808124
:104FD00091810E94CF31882309F4AFCF0F5FEBCFCF
:104FE00090E0A0E0B0E029E0880F991FAA1FBB1F46
:104FF0002A95D1F7488959896A897B89840F951F39
:10500000A61FB71F888B998BAA8BBB8B812FDF9133
:10501000CF911F910F91FF90EF90BF90AF909F9015
:105020008F90089580960C944732CF93DF93EC01D4
:1050300088819981DC01ED91FC910084F185E02D5E
:105040000995892B81F088819981DC01ED91FC9192
:105050000284F385E02D099562E070E080E090E045
:105060000E945373E5CFDF91CF910895CF93DF93E3
:10507000EB01BC0182E39CE00E945C8360E282E37E
:105080009CE00E942183BE0182E39CE0DF91CF91EE
:105090000C946E8DAF92BF92CF92DF92EF92FF92FF
:1050A0000F931F93CF93DF93CDB7DEB728970FB63B
:1050B000F894DEBF0FBECDBFFC01AE014F5F5F4F66
:1050C00088E0DA011D928A95E9F7DB0114960D91CB
:1050D0001C911597D12C20E030E0AAE0CA2E8D2D2E
:1050E00090E080179107D0F5DB01ED90FC90E11482
:1050F000F104A1F0D701A80FB91F8C918E3279F479
:105100002F5F3F4F243031053CF185E893E09183D8
:10511000808312821382148215822CC080E090ED6D
:10512000980F9A30B0F4D901AA0FBB1FA40FB51F76
:10513000AD90BC901197CA9C7001CB9CF00C1124CF
:10514000082E000C990BC0978E0D9F1D8D939C937C
:1051500003C02330310511F0D394C1CF8F819D81DD
:105160002B81398145E853E0518340833283238387
:1051700094838583CF0128960FB6F894DEBF0FBEC7
:10518000CDBFDF91CF911F910F91FF90EF90DF90F6
:10519000CF90BF90AF900895CF92DF92EF92FF92A1
:1051A0000F931F93CF93DF93EC016B017A010C8176
:1051B0001D816FE277E0888199810E943A83B60170
:1051C000888199810E945C83B701888199810E94BE
:1051D0003A83B801888199810E943A8388819981B4
:1051E000DC01ED91FC910680F781E02D099562E0EC
:1051F00070E080E090E0DF91CF911F910F91FF90E0
:10520000EF90DF90CF900C945373CF92DF92EF9298
:10521000FF920F931F93CF93DF93EC016B017A0101
:105220000C811D816FE277E0888199810E943A8329
:10523000B601888199810E945C83B7018881998138
:105240000E94768CB801888199810E943A83888176
:105250009981DC01ED91FC910680F781E02D0995A3
:1052600062E070E080E090E0DF91CF911F910F91BC
:10527000FF90EF90DF90CF900C945373EF92FF92DA
:105280000F931F93CF93DF93EC017B010C811D8162
:105290006FE277E0888199810E943A83B701888123
:1052A00099810E945C83B801888199810E943A8328
:1052B00088819981DC01ED91FC910680F781E02DD8
:1052C000099562E070E080E090E0DF91CF911F915E
:1052D0000F91FF90EF900C9453738091D00C81113B
:1052E00007C08091D10C811103C081E08093CF0C65
:1052F00008954F925F926F927F92AF92BF92CF923A
:10530000DF92EF92FF920F931F93CF93DF938C0165
:10531000DC0116967C9077FE07C089EE9AE00E9429
:10532000B27981ED9AE03DC1EC01C859DD4F1B8295
:1053300018821D8282599D4F9A8389830E948D73A2
:105340006B017C01A980BA80F501728261E0872D32
:105350000E947C7261E0D50112968C910E94E971E5
:10536000BFB6F89480918115811127C0ECEEFAE167
:105370008491ECE0FBE19491E82FF0E0EE0FFF1F49
:10538000ED56F74EA591B491EC91E92321F461E03B
:105390008CE00E94E97161E08CE00E947C728CB527
:1053A00080618CBD8CB580648CBD61E08FE00E9413
:1053B0007C7261E08DE00E947C72809181158F5F2C
:1053C00080938115BFBEE981FA8182E5808381E007
:1053D00081838B81811103C0CE010E94FF3058016F
:1053E000B7E9AB1ABDEFBB0AD501ED91FC9161E0C5
:1053F00082810E94E9714AE0742E8FEF0E9413317E
:105400007A947110FACFD501ED91FC9160E0828120
:105410000E94E9713AE0B32E20E030E0A90160E09B
:10542000CE010E948431A82EB1E08B1799F0BA9476
:10543000B11002C080E267C08DEF0E94133128E0F6
:10544000622E22E0722E0E941831E1E06E1A71087D
:10545000D1F7E2CF2AEA31E040E050E068E0CE0147
:105460000E948431853029F4F801E359FD4FA08270
:1054700012C094E0B92E0E9418318C83BA94B110F6
:10548000FACF8A3A31F482E0F801E359FD4F808384
:1054900002C085E238C05801F3E9AF1AFDEFBF0A38
:1054A000D5018C91823021F0412C512C320105C064
:1054B000412C512C612C80E4782E20E030E0A901B1
:1054C00067E3CE010E948431A301920169E2CE011B
:1054D0000E948431882349F00E948D736C197D09E4
:1054E000613D774050F383E40EC0F5018081823046
:1054F000E9F420E030E0A9016AE3CE010E948431A2
:10550000882331F087E38883CE010E943A3143C07B
:105510000E941831807C803C19F483E0D5018C9383
:105520000E9418310E9418310E941831CE010E9449
:105530003A31E981FA8180E5808381E08183F80155
:10554000D2A3C1A37801F1E2EF0EF11CE801C85B20
:10555000DD4FCE010E94472661E0C7010E94CA329A
:10556000882339F0B701CE010E942D26882399F0B7
:1055700007C060E0C7010E94CA328111F3CF0BC09F
:10558000209749F08881807731F0D0937715C093C8
:10559000761581E009C085E39BE00E94B2798DE138
:1055A0009BE00E94B27980E0DF91CF911F910F9133
:1055B000FF90EF90DF90CF90BF90AF907F906F9073
:1055C0005F904F9008957F928F929F92AF92BF927B
:1055D000CF92DF92EF92FF920F931F93CF93DF93BF
:1055E000CDB7DEB7AC970FB6F894DEBF0FBECDBF18
:1055F0008C014B01742EE22EADB6BEB60E94792905
:10560000811102C0F12C63C0D40114968C918F5F7C
:10561000482F50E0EDB7FEB7E41BF50B0FB6F8943A
:10562000FEBF0FBEEDBF2DB73EB72F5F3F4F6901E5
:10563000882321F0B901C4010E942B89480133E875
:10564000831A3DEF930A45E0B601C4010E94F6308B
:10565000F82E882321F0B8016F587D4F2FC0772096
:1056600089F245E1B601C4010E94F630F82E882384
:1056700049F268018FE8C81A8DEFD80AB601CE0149
:1056800001960E94DB1662E0CE0101960E948F1601
:10569000EE2099F0D801ED91FC910480F581E02D88
:1056A000B601C8010995B601CE0101960E94DB162C
:1056B00064E0CE0101960E948F16B601CE010196DC
:1056C0000E94DB1661E0CE0101960E948F168F2D9D
:1056D0000FB6F894BEBE0FBEADBEAC960FB6F89432
:1056E000DEBF0FBECDBFDF91CF911F910F91FF9015
:1056F000EF90DF90CF90BF90AF909F908F907F9072
:1057000008952F923F924F925F926F927F928F9265
:105710009F92AF92BF92CF92DF92EF92FF920F9340
:105720001F93CF93DF93CDB7DEB762970FB6F89490
:10573000DEBF0FBECDBF7C016DB67EB67F866E86A6
:1057400081E08093D00C1092CF0C8AE99CE00E94FB
:10575000B2798DE79CE00E94B27964E670E080E067
:1057600090E00E945373D7011F968D919C915097A2
:10577000009741F1DC01ED91FC910084F185E02D71
:105780000995F70187859089DC01ED91FC910680F0
:10579000F781E02D09958701035E1F4FC8010E9424
:1057A0004986F70187859089DC01ED91FC9102889B
:1057B000F389E02D40E553EC60E070E00995C80105
:1057C0000E944986F701858596850E94DC3AD701BB
:1057D0001D960D911C911E97A12CB12CF801828170
:1057E000A81650F5CA2CD12CB601C8010E94968784
:1057F000882391F0CC0CDD1CD801ED91FC91EC0DCF
:10580000FD1D0190F081E02D0190F081E02DE85B1D
:10581000FF4F808183FDB394A394E0CFCA2CD12C99
:10582000B601C8010E94968781110CC0A394D801CB
:1058300012968C91A81690F3F8018381B81690F512
:10584000A12CF5CFCC0CDD1CD801ED91FC91EC0D19
:10585000FD1D0190F081E02D80819181FC01E85BCC
:10586000FF4F208123FDE2CFDC01ED91FC91028C02
:10587000F38DE02D60E009958823C1F2F801808165
:105880009181FC01EC0DFD1D0190F081E02D8081E6
:105890009181DC01ED91FC910288F389E02D09955D
:1058A000B394C4CFB9E1B88B1701EDE12E0E311CD2
:1058B00082E59CE00E94B279D7011F968D919C9160
:1058C0005097DC01ED91FC91068CF78DE02D099548
:1058D000C1010E944986F701058516856DB67EB621
:1058E0007D866C86D80112968C91EDB7FEB7E81BC9
:1058F000F1090FB6F894FEBF0FBEEDBF2DB73EB74E
:105900002F5F3F4F5901812CD80112969C9089142A
:1059100060F4C82CD12CB601C8010E949687F5010D
:10592000EC0DFD1D80838394EFCF892D90E0EDB7C2
:10593000FEB7E81BF90B0FB6F894FEBF0FBEEDBF24
:105940002DB73EB72F5F3F4F398728876901F9018F
:105950002E2F3885231B291510F41192F9CFADB7DE
:10596000BEB7A81BB90B0FB6F894BEBF0FBEADBF34
:10597000EDB7FEB73196FB87EA87FA8BE98B2501F5
:10598000A50120E030E0291510F020E01EC0DA016A
:105990008D91AD01882399F0D8016D917C91C90159
:1059A000880F991F860F971FDC018D919C91DC0158
:1059B0008D919C91DC0197968C91808301C010821F
:1059C0002F5F3F4F3196DFCF2F5FF80142812417C1
:1059D00060F5822F90E0F501E80FF91F3081332345
:1059E00099F3880F991FD801ED91FC91E80FF91FE9
:1059F0000190F081E02D0190F081E02D36A1CF01E2
:105A00000296B89640E03417F9F2DC01612C6CE3A1
:105A1000762E6CE1862E66EC962E6D927D928D929E
:105A20009D92CD0111924F5FEECF80E090E0612C0E
:105A3000841788F5F20121912F012223A9F0D801C2
:105A4000ED91FC919C01220F331FE20FF31F019097
:105A5000F081E02D0190F081E02DE85BFF4F208187
:105A60002871283109F00BC20196E989FA8931962B
:105A7000FA8BE98BFFEFCF1ADF0ADACFC52CD12CD6
:105A8000F501EC0DFD1D808181110EC05394F801CC
:105A90008281581698F3D80113968C91681610F4E9
:105AA000512CF5CF912C8EC0EA85FB85EC0DFD1DA8
:105AB0007080888499848C0C9D1CD4014C90471470
:105AC00028F7CC0CDD1CD801ED91FC91EC0DFD1DEF
:105AD0000190F081E02D80819181DC01ED91FC91BC
