:100000000C947F0D0C94B1130C9486130C945B1319
:100010000C94E6120C9471120C94FC110C94871140
:100020000C94AC850C94A90D0C94A90D0C94A90DFD
:100030000C94F2770C94A0780C94A7770C94A90DEB
:100040000C94A90D0C94A90D0C94C48F0C94A90DBB
:100050000C9421760C94F7750C94A90D0C94A90DB1
:100060000C94A90D0C94A90D0C94926F0C94A90DED
:100070000C94C1750C9497750C94A90D0C94A90D52
:100080000C94A90D0C94A90D0C94A90D246F276F45
:100090001A6F1E6F3E6F3E6F2B6F2F6F356F396F6C
:1000A00008000000BE922449123EABAAAA2ABECD87
:1000B000CCCC4C3E00000080BEABAAAAAA3E0000F9
:1000C0000000BF000000803F0000000000084178F1
:1000D000D3BB4387D1133D190E3CC3BD4282AD2B28
:1000E0003E68EC8276BED98FE1A93E4C80EFFFBE20
:1000F00001C4FF7F3F000000000007634236B79B4A
:10010000D8A71A39685618AEBAAB558C1D3CB7CC77
:100110005763BD6DEDFD753EF6177231BF000000EF
:10012000803F4E414E494E495459494E46CDCCCC64
:100130003D0AD7233C17B7D13877CC2B329595E6BB
:10014000241FB14F0A000020410000C84200401C9B
:100150004620BCBE4CCA1B0E5AAEC59D7400407AE8
:1001600010F35A00A0724E18090010A5D4E8000040
:10017000E87648170000E40B54020000CA9A3B00DE
:100180000000E1F505000080969800000040420F55
:10019000000000A08601000000102700000000E819
:1001A00003000000006400000000000A00000000DE
:1001B000000100000000002C76D888DC674F08237F
:1001C000DFC1DFAE59E1B1B796E5E3E453C63AE6E5
:1001D00051997696E8E6C28426EB898C9B62ED40C5
:1001E0007C6FFCEFBC9C9F40F2BAA56FA5F4900514
:1001F0005A2AF75C936B6CF9676DC11BFCE0E40D48
:1002000047FEF520E6B500D0ED902E03009435773B
:10021000050080841E080000204E0A000000C80C63
:10022000333333330F986E12831141EF8D211489CC
:100230003BE65516CFFEE6DB18D1844B381BF77C26
:100240001D901DA4BBE424203284725E228100C96B
:10025000F124ECA1E53D270A4C6F676765723A739C
:1002600065744C6F676765724964206572726F725E
:10027000202D206578706563746564204E554C4C64
:1002800020707472000A0D2020204C6F6767657221
:100290003A7365744C6F67676572496420746F6F59
:1002A000206C6F6E673A205472696D6D65642074BE
:1002B0006F20002020204C6F633D006261747465E4
:1002C000727920747970653D006D696E757465731F
:1002D0002C20547A3D005D0A0D2020206C6F67674A
:1002E000696E6720696E74657276616C3D00467256
:1002F0006F6D20656570726F6D20636F6D6D6F6ED1
:100300003A204C6F676765722046696C65204E61C4
:100310006D655B00466163746F7279206465666128
:10032000756C74006D734C6F673031005D005D203B
:10033000736E5B005D20207265765B0046726F6DA8
:1003400020656570726F6D20626F6F74204E616DF5
:10035000655B00302E3562004D313233343536372F
:100360003839616263646566676800656E766972D4
:100370006F444959206D6179666C790050617273E0
:100380006520696E693B204E6F2066696C652000B0
:10039000436F6D706C657465642E004572726F7288
:1003A000206F6E206C696E65203A00506172736533
:1003B00020696E693B200056005620474F4F443D50
:1003C0000056204D454449554D3D0056204C4F5751
:1003D0003D00205468726573686F6C6473205553D8
:1003E0004541424C453D0042617474657279205428
:1003F0007970653D0050757474696E67206D6F6427
:10040000656D20746F20736C65657000436F756C4B
:1004100064206E6F742077616B65206D6F64656D0D
:1004200020666F7220636C6F636B2073796E632E2E
:1004300000436F756C64206E6F7420636F6E6E6521
:10044000637420746F20696E7465726E65742066C3
:100450006F7220636C6F636B2073796E632E005430
:10046000686973206D61792074616B6520757020F7
:10047000746F2074776F206D696E757465732100D9
:10048000417474656D7074696E6720746F20636F5A
:100490006E6E65637420746F2074686520696E7475
:1004A00065726E657420616E642073796E63687224
:1004B0006F6E697A65205254432077697468204EC4
:1004C00049535400446174612077696C6C20626503
:1004D00020736176656420617300556E61626C659E
:1004E00020746F2063726561746520612066696C99
:1004F0006520746F20736176652064617461207477
:100500006F210053657474696E6720757020666989
:100510006C65206F6E2053442063617264005365E4
:100520007474696E672075702073656E736F727373
:100530002E2E2E0054696D652000456E7669726F0F
:10054000794449595075626C6973686572207365A6
:10055000745175656420000A0A2D2D2D7061727327
:1005600065496E6920636F6D706C65746520002D40
:100570002D2D7061727365496E692000476F6F643D
:1005800020426174563D002D2D2D2D57616B6575F0
:1005900070003A20426174746572794C6F772D5304
:1005A0006C65657036307365632C20426174563D0E
:1005B0000054696E7947534D204C696272617279BB
:1005C0002076657273696F6E20004D6F64756C6183
:1005D0007253656E736F72732076657273696F6E96
:1005E00020005377204E616D653A20000A2D2D2D95
:1005F000426F6F742E205377204275696C643A20E5
:10060000007365727A426567696E20657272207246
:10061000656D6F76650064655352432072656D6F3A
:10062000766520657272007365727A426567696EDD
:100630002065727220636C6F73650064655352436A
:1006400020636C6F73652065727200646552533B62
:10065000204E6F2066696C6520007365727A517553
:1006600065645374617274206F70656E2065727278
:10067000006C6F67504C4F20657272206F70656E12
:10068000696E67007365632E20517565756564201A
:1006900072656164696E67733D0072656164696E5D
:1006A000677320696E0053656E7400707562445103
:1006B0005452207365727A5175656446696C206581
:1006C0007272005D000A7075624451545220536585
:1006D0006E64696E67206461746120746F205B00D2
:1006E0007365727A5264656C5F4C696E653B204E2F
:1006F0006F2066696C65002D2D2D2D2D2D2D2D2D36
:100700002D2D2D2D2D2D2D2D2D2D2D2D2D2D2D2D19
:100710002D2D2D2D2D2D2D2D2D2D2D2D2D2D2D2D09
:100720002D0A002D2D2D2D2D2D2D2D2D2D2D2D2D49
:100730002D2D2D2D2D2D2D2D2D2D2D2D2D2D2D2DE9
:100740002D2D2D2D2D2D2D2D2D2D2D2D2D00204CF4
:10075000626174743D00206C6F672650756220568C
:100760005F6261747400204C626174743D00204CBF
:100770006F674F6E6C792E205620746F6F206C6FF0
:10078000772062617474657279563D002D2D2D4E6F
:10079000657752656164696E672043414E43454CFD
:1007A0004C45442D2D4C626174745F563D0045529A
:1007B000524F52004C4100544D00544D3000544DA6
:1007C00000414D3000465200414D31004150300053
:1007D000414D30004149002B2B2B00414300575223
:1007E00000255600545000414D00414D00414D3010
:1007F00000414E004D4E00446967692058626565AE
:1008000033207365747570206661696C65642100BE
:100810005D0058626565574C544520495023205B64
:1008200000586265654C5445206E6F742072656394
:10083000656976656420495023202D686F706520B6
:10084000697420776F726B73206E65787420746999
:100850006D65005D2027006D646D49505B004D594A
:10086000004D5900446967692058626565332073FB
:1008700065747570205375636573732E20526567B8
:10088000697374726174696F6E20270054727920E5
:100890002B435245472027002B43524547004149EF
:1008A000004C6F6F703D5365635D20727820646209
:1008B000203A205374617475732027204F7065723D
:1008C00061746F7220272023506F6C6C6564204325
:1008D000656C6C20537461747573206576657279EC
:1008E00020317365630041503000544D0050310099
:1008F0005444304100444F00534F00534D0050309A
:10090000004435004437004439004552524F520DDF
:10091000004F4B0D004438004E4953542054696D2C
:10092000652073657276657220646964206E6F74E9
:1009300020726573706F6E6421006D73004E4953B1
:100940005420726573706F6E6465642061667465AF
:1009500072005D20436F6E6E6563742000446174A5
:10096000612077696C6C206E6F7420626520736102
:100970007665642100536C6176652F436869702049
:1009800073656C6563742070696E20666F722053A6
:1009900044206361726420686173206E6F7420620A
:1009A00065656E207365742E0044617461207769FB
:1009B0006C6C206E6F7420626520736176656421B3
:1009C000004572726F723A20534420636172642052
:1009D0006661696C656420746F20696E6974696111
:1009E0006C697A65206F72206973206D6973736911
:1009F0006E672E002D2D2D2D5C2F000A205C2F2DD3
:100A00002D2D2D204C696E65205361766564207410
:100A10006F00556E61626C6520746F207772697427
:100A20006520746F205344206361726421002000AC
:100A30002069732000207265706F7274732000202B
:100A4000002069732063616C63756C617465642058
:100A5000746F20626520002D2D2D2D2D2D2D2D2D17
:100A60002D2D2D2D2D2D2D2D2D2D2D2D2D2D2D2DB6
:100A70002D2D2D2D2D2D2D2D2D2D2D2D2D2D2D2DA6
:100A80002D0045786974696E672074657374696EAA
:100A900067206D6F6465002D2D2D2D2D2D2D2D2D95
:100AA0002D2D2D2D2D2D2D2D2D2D2D2D2D2D002DA3
:100AB0002D2D2D2D2D2D2D2D2D2D2D2D2D2D2D2D66
:100AC0002D2D2D2D2D2D0043757272656E74206CA9
:100AD0006F676765722074696D65206973002D2DDD
:100AE0002D2D2D2D2D2D2D2D2D2D2D2D2D2D2D2D36
:100AF0002D2D2D2D2D2D2D2D2D2D2D2D2D2D2D2D26
:100B00002D2D2D2D2D2D2D2D00456E746572696EA8
:100B1000672073656E736F722074657374696E6796
:100B2000206D6F6465002D2D2D2D2D2D2D2D2D2D3E
:100B30002D2D2D2D2D2D2D2D2D2D2D2D2D2D2D2DE5
:100B40002D2D2D2D2D2D2D2D2D2D2D2D2D2D2D2DD5
:100B500000434E004853004853000A4C6F676765D6
:100B6000724D6F64656D3A3A73657441504E2065FD
:100B700072726F72202D6E6F2062756666657220CC
:100B8000000A4C6F676765724D6F64656D3A3A7322
:100B9000657441504E206572726F72202D20657809
:100BA000706563746564204E554C4C2070747200FF
:100BB0000A0D2020204C6F676765724D6F64656D6C
:100BC0003A73657441504E20746F6F206C6F6E677E
:100BD0003A205472696D6D656420746F20003D0089
:100BE0005D20004E6F7420737570706F7274656451
:100BF000205B00414354494F4E2057726974652071
:100C000061626F727465642E20696E7374727563AD
:100C100074696F6E202700414354494F4E20434F63
:100C20005059206E6F7420737570706F72746564A4
:100C3000207965743A00434F505900454550524F52
:100C40004D2057726974652066696E6973686564C2
:100C500000414354494F4E205772697465206170BA
:100C60007020454550524F4D207374617274656415
:100C70003A00575249544500414354494F4E00559C
:100C80005345520020746F2000424F4F542074622D
:100C9000642000454550524F4D20577269746520BD
:100CA00061626F727465642E20696E73747275630D
:100CB00074696F6E202700454550524F4D20577282
:100CC0006974652066696E6973686564004545509E
:100CD000524F4D2057726974652073746172746548
:100CE000643A0059455300454550524F4D5F5752A5
:100CF00049544500426F617264205265763A004261
:100D00004F4152445F52455600426F617264205316
:100D1000657269616C4E756D203A00424F415244D4
:100D20005F534E00426F617264204E616D653A0000
:100D3000424F4152445F4E414D4500424F4F540097
:100D400020746F20004E4554574F524B20746264FC
:100D50002000434F4D4D4F4E205365742053454E58
:100D6000445F4F46465345545F4D494E206572726D
:100D70006F723B202872616E67652030203A203305
:100D8000302920726561643A00434F4D4D4F4E202B
:100D90005365742053454E445F4F46465345545F58
:100DA0004D494E3A200053454E445F4F4646534509
:100DB000545F4D494E00434F4D4D4F4E2053657487
:100DC00020434F4C4C4543545F52454144494E47A4
:100DD00053206572726F723B202872616E676520C6
:100DE00030203A2033302920726561643A00434F45
:100DF0004D4D4F4E2053657420434F4C4C4543544A
:100E00005F52454144494E47533A2000434F4C4CB2
:100E10004543545F52454144494E475300434F4D6B
:100E20004D4F4E2053657420504F53545F4D4158E1
:100E30005F4E554D206572726F723B202872616E55
:100E400067652030203A2035302920726561643A88
:100E500000434F4D4D4F4E2053657420504F535417
:100E60005F4D41585F4E554D3A2000504F53545FEF
:100E70004D41585F4E554D00434F4D4D4F4E205301
:100E800065742054494D45525F504F53545F504153
:100E900043455F4D53206572726F723B202872612B
:100EA0006E67652030203A20353030302920726559
:100EB00061643A00434F4D4D4F4E205365742054AA
:100EC000494D45525F504F53545F504143455F4D2C
:100ED000533A200054494D45525F504F53545F5090
:100EE0004143455F4D5300434F4D4D4F4E20536599
:100EF000742054494D45525F504F53545F544F55E1
:100F0000545F4D53206572726F723B202872616E80
:100F1000676520313030203A20333030303029209E
:100F2000726561643A00434F4D4D4F4E20536574D6
:100F30002054494D45525F504F53545F544F5554C0
:100F40005F4D53203A200054494D45525F504F5356
:100F5000545F544F55545F4D5300272C206E6F77CC
:100F60002073657420746F2027004E4554574F52EC
:100F70004B2041504E2077617320270061706E0036
:100F80004E4554574F524B0020746F200053454E2E
:100F9000534F525320746264200053454E534F52B6
:100FA000530020746F2000434F4D4D4F4E2074620C
:100FB00064200047454F47524150484943414C5FE8
:100FC00049443A0047454F47524150484943414CF4
:100FD0005F494400434F4D4D4F4E2053657420549C
:100FE000696D655A6F6E65206572726F723B20285D
:100FF00072616E6765202D3132203A202B31322903
:1010000020726561643A00434F4D4D4F4E20536549
:10101000742054696D655A6F6E653A200054494DCD
:10102000455F5A4F4E450020536574204C69496F07
:101030006E2054797065206572726F723B20287241
:10104000616E676520302D322920726561643A0037
:10105000434F4D4D4F4E204C69496F6E205479706F
:10106000653A20004C49494F4E5F54595045002085
:10107000536574204C69496F6E2054797065206502
:1010800072726F723B202872616E676520302D325C
:101090002920726561643A00434F4D4D4F4E204206
:1010A00061747465727920547970653A2000424108
:1010B00054544552595F545950450029207769745A
:1010C0006820726561643A002053657420696E740B
:1010D000657276616C206572726F72202872616E23
:1010E00067653A20312D00286D696E292066726F80
:1010F0006D2064656661756C742000434F4D4D4FE3
:101100004E204C4F4747494E475F494E5445525633
:10111000414C5F4D494E55544553207365742074BE
:101120006F3A2000205573696E67204D61782E203C
:1011300052656164696E672069676E6F72656420CD
:1011400000434F4D4D4F4E204C4F4747494E475F50
:10115000494E54455256414C5F4D494E55544553A6
:10116000206D757374206265206C657373207468DC
:10117000616E203A20004C4F4747494E475F494E29
:1011800054455256414C5F4D494E555445530043CA
:101190004F4D4D4F4E204C6F676765724964205329
:1011A00065743A20004C4F474745525F494400431D
:1011B0004F4D4D4F4E007D2055554944206E6F7464
:1011C00020737570706F72746564007D206F757424
:1011D000206F662072616E67652E204E6F74757386
:1011E0006564007D007D207265706C6163696E6767
:1011F000207B00696E646578007D206D6174636892
:101200002020262061646465642E003D7B0000552B
:10121000554944730050524F5649444552206E6F11
:101220007420737570706F727465643A0050524F19
:1012300056494445522053657474696E6720536162
:101240006D706C696E67466561747572653A2000F1
:1012500053414D504C494E475F46454154555245C8
:101260000050524F56494445522053657474696E7C
:101270006720636C6F756449643A2000434C4F5596
:10128000445F49440050524F5649444552205365EB
:101290007474696E672072656769737472617469CA
:1012A0006F6E20746F6B656E3A200052454749534C
:1012B00054524154494F4E5F544F4B454E0050528B
:1012C0004F564944455200646174615075626C69BF
:1012D0007368657242617365206751532063686566
:1012E000636B002D2D2D2D2D205741524E494E4719
:1012F000202D2D2D2D2D20212121212121212121A4
:10130000212121212121212121212100426164204B
:1013100074696D65200021212121212121212121B4
:1013200021212121212121212121202D2D2D2D2D72
:10133000205741524E494E47202D2D2D2D2D200056
:101340003A3030003A3030003A3030003A30300035
:1013500050696E006D6F646275735F30780049325A
:10136000435F30783638005F50696E00534449312E
:10137000322D00646174615075626C6973686572C6
:101380004261736520736574517565642063686597
:10139000636B007365514346207365727A517565BE
:1013A0006446696C652E636C6F736532206572727A
:1013B000007365514346207467746F757446696C99
:1013C000652E636C6F7365312065727200736551B1
:1013D0004346207467746F757446696C6520777234
:1013E00069746533206572720073655143462074D9
:1013F00067746F757446696C6520777269746531BE
:1014000020657272007365514346206F70656E32BD
:10141000206572720073655143462072656E616D7E
:1014200065312065727200736551434620657272A2
:10143000362072656D6F7665007365514346207284
:10144000656D6F76653120657272002C30580053DF
:1014500044206572726F72436F64653A20305800A1
:101460006572726F723A2000734654534D65742052
:1014700065727220666F7220007365636F6E6473AD
:10148000206F66204E4953542E00496E7465726E6B
:10149000616C20436C6F636B2077697468696E20A0
:1014A00000496E7465726E616C20436C6F636B20D3
:1014B00073657420004261642074696D65737461A2
:1014C0006D702C206E6F742073657474696E672064
:1014D000636C6F636B2E004552524F52004F4400B5
:1014E000544D00544D00444500444C0049500045C3
:1014F0006E7669726F794449595075626C69736888
:10150000657220675153200027006465737A714E1D
:10151000657874436820316572726F723A006D535A
:101520002054696D656F7574007761697465642016
:10153000002D2D20526573706F6E736520436F64AC
:1015400065202D2D00202D2D204761746577617950
:101550002054696D656F7574207761726E696E676E
:101560002062756666657220737A20736D616C6C9B
:10157000000A202D2D20556E61626C6520746F204D
:1015800045737461626C69736820436F6E6E656346
:1015900074696F6E20746F20456E7669726F44496E
:1015A00059204461746120506F7274616C202D2D3C
:1015B000005F4368616E6E656C00414453313131A8
:1015C000355F3078004442004C4D004D59002700F3
:1015D0006465737A4C696E652072656164756E67C7
:1015E000207374617274206E6F7420666F756E6400
:1015F0000027006465737A4C696E652045706F63DF
:101600006820657272270027006465737A4C696EE2
:10161000652065706F6368207374617274206E6FEB
:101620007420666F756E640027006465737A4C6978
:101630006E65205374617475732065727227002C77
:10164000002C002C002121212121212121212121D7
:10165000212121212121212121202D2D2D2D2D2040
:101660005741524E494E47202D2D2D2D2D20002122
:10167000212121212121212121202D2D2D2D2D2020
:101680005741524E494E47202D2D2D2D2D202121E1
:101690002121212121212121002D2D2D2D2D2057EA
:1016A00041524E494E47202D2D2D2D2D20212121F7
:1016B000212121212121212121212121212121211A
:1016C00021005468652063757272656E7420636CC6
:1016D0006F636B2074696D657374616D70206973DD
:1016E000206E6F742076616C6964210021212121B4
:1016F00021212121212121212121212121212121DA
:10170000202D2D2D2D2D205741524E494E47202D55
:101710002D2D2D2D200021212121212121212121AB
:10172000202D2D2D2D2D205741524E494E47202D35
:101730002D2D2D2D2021212121212121212121008B
:101740002D2D2D2D2D205741524E494E47202D2D08
:101750002D2D2D2021212121212121212121212156
:1017600021212121212121210027002720736E3AE8
:101770002700207265763A2700426F6172643A2032
:10178000004D6F64756C617253656E736F72732078
:101790007665727320002E205377204275696C6441
:1017A0003A20005377204E616D653A200020204298
:1017B000617474657279547970653A200020547AA6
:1017C0003A200020204C6F6767696E67496E746528
:1017D0007276616C20286D696E293A20004C6F6327
:1017E0006174696F6E3A20004461746520616E64B3
:1017F0002054696D6520696E20555443005265730D
:10180000756C7420555549443A00526573756C7473
:1018100020556E69743A005661726961626C652088
:101820004E616D653A0053656E736F72204E616D47
:10183000653A0053616D706C696E6720466561742E
:1018400075726520555549443A2000446174612001
:101850004C6F676765722046696C653A2000446189
:101860007461204C6F676765723A200000002100A8
:10187000240027002A0000002200250028002B0059
:101880000000000004030807000000010200090A2C
:101890000000000000000000000000000000000048
:1018A0004552524F5221204E6F2077656220636C63
:1018B00069656E742061737369676E656420746F07
:1018C000207075626C697368206461746121001F07
:1018D0001C1F1E1F1E1F1F1E1F1E1F2D3E00416CA2
:1018E0006C207661726961626C65205555494427A8
:1018F000732061707065617220746F20626520636F
:101900006F72726563746C7920666F726D65642E98
:101910000A006861732061206E6F6E2D756E6971AB
:1019200075652055554944210068617320616E201A
:10193000696E76616C6964205555494421004C6F8D
:101940006767657220706F7274696F6E206F6620B2
:1019500073657475702066696E69736865642E0AB4
:101960000053616D706C696E672066656174757295
:101970006520555549442069733A006172652063BA
:10198000616C63756C617465642E0073656E736F52
:10199000727320616E6400636F6D652066726F6D97
:1019A000007661726961626C65732C206F662077C6
:1019B000686963680054686973206C6F6767657253
:1019C000206861732061207661726961626C6520B4
:1019D000617272617920776974680043757272650B
:1019E0006E74205254432074696D652069733A0007
:1019F0002D2D2D2D2D2D2D2D2D2D2D2D2D2D2D2D17
:101A00002D2D2D2D2D2D2D2D2D2D2D2D2D2D2D2D06
:101A10002D2D2D2D2D2D2D2D2D2D0A002D2D2D2D46
:101A20002D2D2D2D2D2D2D2D2D2D2D2D2D2D2D2DE6
:101A30002D2D2D2D2D2D2D2D2D2D2D2D2D2D2D2DD6
:101A40002D2D2D2D2D2D0000414D310043543634C8
:101A50000047543634004552524F520D004F4B0D43
:101A6000004150300043490073657456617255550A
:101A70004944206572726F72202D206E6577206454
:101A800069646E277420776F726B20666F72000036
:101A9000002000230026002900000102030405069F
:101AA00007000102030405060700010203040506FE
:101AB00007000102030405060704040404040404E7
:101AC00004020202020202020203030303030303ED
:101AD000030101010101010101010204081020407C
:101AE00080010204081020408001020408102040F8
:101AF00080010204081020408000FE9ACDA311242A
:101B00001FBECFEFD0E4DEBFCDBF1AE0A0E0B1E052
:101B1000EAEFF3E601E00BBF02C007900D92A63892
:101B2000B107D9F72BE1A6E8BAE001C01D92A636AD
:101B3000B207E1F71DE0CEE7DDE004C02197FE012A
:101B40000E94ADADCD37D107C9F70E940E900C941D
:101B5000F0B10C940000DC01ED91FC910688F7894E
:101B6000E02D099591E0811101C090E0892F089541
:101B70000F931F93CF93DF9300D000D000D0CDB749
:101B8000DEB78C01DC01ED91FC910084F185E02D44
:101B90000995892BC9F41B821C821D821E82D801E3
:101BA0001C96ED91FC911D9745855685678570893A
:101BB0008B819C81AD81BE81481759076A077B07DD
:101BC00029F0F801858903C081E001C080E02696F4
:101BD0000FB6F894DEBF0FBECDBFDF91CF911F913E
:101BE0000F910895DC011C96ED91FC911D97808169
:101BF0009181DC01ED91FC910680F781E02D099443
:101C0000DC011C96ED91FC911D9780819181DC0196
:101C1000ED91FC910484F585E02D0994CF93DF9339
:101C20001F92CDB7DEB76983DC01ED91FC91028094
:101C3000F381E02D41E050E0BE016F5F7F4F0995D9
:101C40000F90DF91CF9108950F931F93CF93DF9360
:101C500000D000D000D0CDB7DEB7DC01ED91FC9113
:101C6000048CF58DE02D25E833E03A832983DB01F0
:101C700012960D911D912D913C9115970B831C830C
:101C80002D833E8320E030E0BE016F5F7F4F0995DA
:101C900026960FB6F894DEBF0FBECDBFDF91CF9171
:101CA0001F910F910895DC01ED91FC91028CF38D51
:101CB000E02D2BE430E009948091880A8111FCCF5B
:101CC00008958091870A8F5F843408F080E09091B6
:101CD000860A9817E1F32FB7F8949091880A992310
:101CE00041F0E82FF0E0E359F54E60838093870AD6
:101CF0001DC081E08093880A6093B21A1092B11AD5
:101D000082E086BB80916F00826080936F0080913B
:101D100080008F7B80688093800080918400909108
:101D20008500409690938900809388002FBF81E0C2
:101D300090E00895FC01848583FF0DC084A195A1E6
:101D4000A6A1B7A1448D558D668D778D841B950B0B
:101D5000A60BB70B03C080E090E0DC01811520E802
:101D60009207A105B10520F08FEF9FE7A0E0B0E05A
:101D7000089580E090E00895CF93DF93EC0162E056
:101D800070E080E090E00E94F272EC85FD85808139
:101D90009181DC01ED91FC910284F385E02DDF91CE
:101DA000CF910994CF93DF93EC0162E070E080E083
:101DB00090E00E94F272EC85FD8580819181DC01CA
:101DC000ED91FC910084F185E02DDF91CF91099494
:101DD000EF92FF920F931F93CF93DF937C01EB0160
:101DE0008A0162E070E080E090E00E94F272D70128
:101DF0001C96ED91FC911D97A801BE0180819181F7
:101E0000DF91CF911F910F91FF90EF900C942C8256
:101E1000EF92FF920F931F93CF93DF93EC018B010F
:101E20007A0162E070E080E090E00E94F272A70127
:101E3000B8018C859D85DF91CF911F910F91FF9007
:101E4000EF900C94B452CF92DF92EF92FF920F93E7
:101E50001F93CF93DF9300D000D000D0CDB7DEB773
:101E60008C016B017A01FC01848595850E94384CB8
:101E7000F801268585E893E09A838983F6018281BB
:101E80009381A481B5818B839C83AD83BE83A7019D
:101E9000BE016F5F7F4FF801848595850E94CC4F0E
:101EA000F801858B90E026960FB6F894DEBF0FBE42
:101EB000CDBFDF91CF911F910F91FF90EF90DF90F9
:101EC000CF9008950C960C948A598F929F92AF925E
:101ED000BF92CF92DF92EF92FF920F931F93CF9317
:101EE000DF931F92CDB7DEB78C01FC01848C958CFB
:101EF000A68CB78CC08CD18CE28CF38CBE016F5F4A
:101F00007F4F0C960E94F187019719F4898190E028
:101F100002C08FEF9FEF8F3FFFEF9F0749F0F8015F
:101F2000848E958EA68EB78EC08ED18EE28EF38E65
:101F30000F90DF91CF911F910F91FF90EF90DF9065
:101F4000CF90BF90AF909F908F900895CF93DF93E5
:101F50001F92CDB7DEB7BE016F5F7F4F0C960E9418
:101F6000F187019719F4898190E002C08FEF9FEF0C
:101F70000F90DF91CF9108950C960C944F59CF9309
:101F8000DF93EC016EED77E00E94614D46E55AE18A
:101F90006DE57AE1CE010E94EB8A813079F46BED38
:101FA00077E0CE010E94614D46E55AE16DE57AE1A8
:101FB000CE010E94EB8A91E0813009F090E0892FF8
:101FC000DF91CF9108958F929F92AF92BF92DF924F
:101FD000EF92FF920F931F93CF93DF93EC01D62ED6
:101FE0001BA1112391F00E942C738CA09DA0AEA088
:101FF000BFA0DC01CB0188199909AA09BB0980316E
:102000009742A105B10508F454C0CE010E94384C96
:1020100084E0F82EE12CDE1409F44AC06E817F8141
:10202000665F7F4F072E000C880B990B0E94F2729F
:1020300067ED77E0888199810E94FB824E815F8104
:10204000440F551F052E000C660B770B06E51AE1B1
:102050002DE53AE1CE010E94A98A182F81111BC0FB
:10206000FA94F11018C08A8587FD0DC060E00E94C7
:10207000887161E070E080E090E00E94F27261E0BF
:102080008A850E9488716AEF70E080E090E00E948B
:10209000F27294E0F92EE394113009F0BCCF1BA347
:1020A0000E942C736CA37DA38EA39FA311E001C09B
:1020B00010E0812FDF91CF911F910F91FF90EF9052
:1020C000DF90BF90AF909F908F9008958F929F92D6
:1020D000AF92BF92FF920F931F93CF93DF93EC01C8
:1020E000FBA0FF2021F08BA1882331F008C065E020
:1020F0000E94E30F8111F7CF84E090E0FEC0888555
:102100009985892B19F4CE010E94312464ED77E082
:10211000CE010E94614D40E157E260E070E0CE01E7
:102120000E94E223288539852130364009F0A8C075
:102130008332910509F4D7C05CF4833091052CF407
:10214000813091050CF4A6C0B9C0439789F0C9C08D
:10215000833491050CF0AFC0803491050CF0AEC013
:102160008432910509F4ACC0879709F4A9C0B9C0BD
:1021700065E0CE010E94E30F882309F4B4C088858E
:102180009985892B19F4CE010E943124888599857F
:1021900081309640B9F068EC77E0CE010E94614D45
:1021A00046E55AE16DE57AE1CE010E94EB8A813085
:1021B00021F0CE010E94D02396C0CE010E94BF0F15
:1021C0008823B9F365EC77E0CE010E94614D46E5C6
:1021D0005AE16DE57AE1CE010E94EB8A813049F740
:1021E0001BA2888599858130964029F460ED77E0BF
:1021F00080E090E004C064E670E080E090E00E943F
:10220000F2720E942C734B015C010E942C73DC0162
:10221000CB0188199909AA09BB0980369A4EA105F4
:10222000B10568F461E0CE010E94E30F811107C09F
:102230006AEF70E080E090E00E94F272E6CF88855D
:10224000998581309640A9F061EC77E0CE010E943B
:10225000614D46E55AE16DE57AE1CE010E94EB8AD7
:10226000813009F0A6CFCE010E94BF0F882309F468
:10227000A0CFCE010E94D023CE010E94F88A33C0A5
:1022800085329105E9F04CF48432910554F582329F
:102290009105A4F4892B49F124C08D32910544F4B1
:1022A0008B329105F4F48A97E1F460ED77E00CC08D
:1022B0008F32910539F08F3F910599F402E016C0F5
:1022C00003E014C06CEC77E0CE010E94614D46E55E
:1022D0005AE16DE57AE1CE010E94EB8ACE010E94BF
:1022E000BF0F04E003C001E001C000E010E0F11006
:1022F00003C0CE010E94D023C801DF91CF911F916E
:102300000F91FF90BF90AF909F908F9008951F9274
:102310000F920FB60F9211240BB60F922F933F938B
:102320004F935F936F937F938F939F93AF93BF93DD
:10233000CF93EF93FF9329B1C091111B8091591B4B
:102340009091551B322F309593238223892B9091A6
:102350007300C227C923C8232093111BCC23C1F1CA
:10236000C0FF05C0E091121BF091131B0995C1FF3E
:1023700005C0E091141BF091151B0995C2FF05C023
:10238000E091161BF091171B0995C3FF05C0E09162
:10239000181BF091191B0995C4FF05C0E0911A1B89
:1023A000F0911B1B0995C5FF05C0E0911C1BF09126
:1023B0001D1B0995C6FF05C0E0911E1BF0911F1B58
:1023C0000995C7FF05C0E091201BF091211B0995DD
:1023D000FF91EF91CF91BF91AF919F918F917F919D
:1023E0006F915F914F913F912F910F900BBE0F9086
:1023F0000FBE0F901F9018951F920F920FB60F925D
:1024000011240BB60F922F933F934F935F936F93CB
:102410007F938F939F93AF93BF93CF93EF93FF934C
:1024200026B1C091221B80915A1B9091561B322FCE
:10243000309593238223892B90916D00C227C92365
:10244000C8232093221BCC23C1F1C0FF05C0E0911B
:10245000231BF091241B0995C1FF05C0E091251BAA
:10246000F091261B0995C2FF05C0E091271BF09152
:10247000281B0995C3FF05C0E091291BF0912A1B79
:102480000995C4FF05C0E0912B1BF0912C1B099509
:10249000C5FF05C0E0912D1BF0912E1B0995C6FFCD
:1024A00005C0E0912F1BF091301B0995C7FF05C0B7
:1024B000E091311BF091321B0995FF91EF91CF9183
:1024C000BF91AF919F918F917F916F915F914F914C
:1024D0003F912F910F900BBE0F900FBE0F901F904A
:1024E00018951F920F920FB60F9211240BB60F92F0
:1024F0002F933F934F935F936F937F938F939F930C
:10250000AF93BF93CF93EF93FF9323B1C091331B4E
:1025100080915B1B9091571B322F30959323822320
:10252000892B90916C00C227C923C8232093331BA9
:10253000CC23C1F1C0FF05C0E091341BF091351BE5
:102540000995C1FF05C0E091361BF091371B099535
:10255000C2FF05C0E091381BF091391B0995C3FFFC
:1025600005C0E0913A1BF0913B1B0995C4FF05C0E3
:10257000E0913C1BF0913D1B0995C5FF05C0E09122
:102580003E1BF0913F1B0995C6FF05C0E091401B23
:10259000F091411B0995C7FF05C0E091421BF091E6
:1025A000431B0995FF91EF91CF91BF91AF919F91FF
:1025B0008F917F916F915F914F913F912F910F90EC
:1025C0000BBE0F900FBE0F901F9018951F920F9289
:1025D0000FB60F9211240BB60F922F933F934F9388
:1025E0005F936F937F938F939F93AF93BF93CF939B
:1025F000EF93FF9320B1C091441B80915C1B90919D
:10260000581B322F309593238223892B90916B0096
:10261000C227C923C8232093441BCC23C1F1C0FF88
:1026200005C0E091451BF091461B0995C1FF05C00F
:10263000E091471BF091481B0995C2FF05C0E0914E
:10264000491BF0914A1B0995C3FF05C0E0914B1B44
:10265000F0914C1B0995C4FF05C0E0914D1BF09112
:102660004E1B0995C5FF05C0E0914F1BF091501B13
:102670000995C6FF05C0E091511BF091521B0995C9
:10268000C7FF05C0E091531BF091541B0995FF91C2
:10269000EF91CF91BF91AF919F918F917F916F916A
:1026A0005F914F913F912F910F900BBE0F900FBEF6
:1026B0000F901F9018951F920F920FB60F92112432
:1026C0000BB60F922F933F934F935F936F937F932C
:1026D0008F939F93AF93BF93EF93FF93E0910F1B63
:1026E000F091101B0995FF91EF91BF91AF919F91D0
:1026F0008F917F916F915F914F913F912F910F90AB
:102700000BBE0F900FBE0F901F9018951F920F9247
:102710000FB60F9211240BB60F922F933F934F9346
:102720005F936F937F938F939F93AF93BF93EF9339
:10273000FF93E0910D1BF0910E1B0995FF91EF9116
:10274000BF91AF919F918F917F916F915F914F91C9
:102750003F912F910F900BBE0F900FBE0F901F90C7
:1027600018951F920F920FB60F9211240BB60F926D
:102770002F933F934F935F936F937F938F939F9389
:10278000AF93BF93EF93FF93E0910B1BF0910C1B62
:102790000995FF91EF91BF91AF919F918F917F919B
:1027A0006F915F914F913F912F910F900BBE0F90C2
:1027B0000FBE0F901F901895BF92CF92DF92EF92AD
:1027C000FF920F931F93CF93DF93CDB7DEB72C9774
:1027D0000FB6F894DEBF0FBECDBF6C01FC0184853F
:1027E00095850E94384CF601E484F584C7010E9467
:1027F000384CF701178E10A211A212A2B3A0BB2071
:1028000041F16EEB77E0C7010E94614D28E833E1AA
:1028100040E050E0B701CE0107960E948523F70102
:102820008085918581309640D9F46AEB77E0C701C5
:102830000E94614D06E51AE12DE53AE148E853E1D1
:1028400060E070E0C7010E94A98AC7010E94BF0F23
:1028500007C065E0C7010E94E30F8111D2CF2AC0F3
:10286000BE01695F7F4FCE0101960E94A181AE013A
:102870004F5F5F4F67EB77E0C7010E945F8BCE0130
:1028800001960E941F8106E51AE12DE53AE148E82C
:1028900053E160E070E0C7010E94A98AC7010E946D
:1028A000BF0FB11003C0C7010E94D023CE0107960D
:1028B0000E941F81F601848595850E94384CF6019F
:1028C000158A2C960FB6F894DEBF0FBECDBFDF91F0
:1028D000CF911F910F91FF90EF90DF90CF90BF901D
:1028E00008952F923F924F925F926F927F928F92B4
:1028F0009F92AF92BF92CF92DF92EF92FF920F938F
:102900001F93CF93DF93CDB7DEB760970FB6F894E0
:10291000DEBF0FBECDBF6C017B01588B4F873901E5
:10292000DC011C968D919C911D970E94384CF601FC
:10293000F685FD87D6011C960D911C911D97F80117
:1029400033A0332091F1B701CE0101960E94AA81F4
:102950005801F1E1AF0EB11CBE016F5F7F4FC501A1
:102960000E94867F982ECE0101960E941F819110B1
:1029700023C0B701CE0101960E94AA81BE016F5FFC
:102980007F4FC5010E94D17FCE0101960E941F8119
:10299000D80159961C9259975A961C925A975B9651
:1029A0001C925B975C961C9207C065E0C8010E9470
:1029B000E30F8111C8CFFAC01B821C821D821E82C8
:1029C000F801418D528D638D748D8B819C81AD8119
:1029D000BE81481759076A077B0709F0B4C065E450
:1029E00078E0CE0107960E94AA8160E170E0CE01F6
:1029F00007960E94DD7F0E942C734B015C0128EE3C
:102A000033E0D3010E94B6AD2B013C01D80193966F
:102A10002C90211067C065E0C8010E94E30F81116E
:102A200061C085E893E09A8389831B821C821D82A2
:102A30001E827CC00E942C73DC01CB01881999098D
:102A4000AA09BB0984159505A605B70590F462E0AF
:102A500070E080E090E00E94F272F8018081918144
:102A6000DC01ED91FC910084F185E02D099504973E
:102A70000CF3F801608171814DE0CE0101960E9456
:102A80000482BE016F5F7F4FCE0107960E94977F41
:102A9000CE0101960E941F81CE0107960E94F67E0C
:102AA000CE0107960E94668E811116C06EEA77E00D
:102AB000CE0101960E946981BE016F5F7F4FCE01FA
:102AC00007960E94867F8E87CE0101960E941F8105
:102AD000BE85BB2309F487C064EC79E080E090E018
:102AE0000E94F2720E942C73DC01CB0188199909B3
:102AF000AA09BB0984159505A605B70538F4A701F1
:102B000064EB77E0C8010E94EF4CA7CF211089CF7A
:102B1000F12CC8010E94D023FF2009F482CFBE010E
:102B2000695F7F4FCE0101960E946D4CCE010796E2
:102B30000E941F818B819C81AD81BE81F801818FB4
:102B4000928FA38FB48FD80159964D915D916D915D
:102B50007C915C971B821C821D821E828B819C81D2
:102B6000AD81BE81481759076A077B07C1F085E828
:102B700093E09A838983F801818D928DA38DB48D22
:102B80008B839C83AD83BE832D854F855889BE0181
:102B90006F5F7F4FC8010E94CC4FF82E01C0F12C0F
:102BA000311003C0C8010E94D0238F2DD601559645
:102BB0008C9390E060960FB6F894DEBF0FBECDBF49
:102BC000DF91CF911F910F91FF90EF90DF90CF9009
:102BD000BF90AF909F908F907F906F905F904F903D
:102BE0003F902F90089521109ACFFF24F39491CF16
:102BF0000F931F93CF93DF938B01EA01C2960E943C
:102C00008C62682F082E000C990BF8019183808349
:102C1000892BB1F0062E000C770B880B990B0E94C4
:102C2000DBAB2BEE32EE4EEC5FE30E943AAC29E2D6
:102C30003CE946E353E40E94C7AD0E94A5AE02C042
:102C400060E070E07983688381E0DF91CF911F912C
:102C50000F9108958F929F92AF92BF92DF92EF9261
:102C6000FF920F931F93CF93DF932FEF3FEF30939C
:102C7000040120930301D090910ADD20C9F1EC01F9
:102C80007C0122E3E20EF11C65E0C7010E94E30F24
:102C90000E942C734B015C01C7010E948C62082FBB
:102CA000880F110B0115110579F0109304010093A1
:102CB0000301E881F981048CF58DE02DCE010995A1
:102CC000C7010E94D02314C06AEF70E080E090E05A
:102CD0000E94F2720E942C73DC01CB0188199909C1
:102CE000AA09BB0988399A43A105B105A8F2DDCF2D
:102CF0008D2DDF91CF911F910F91FF90EF90DF907D
:102D0000BF90AF909F908F900895DF92EF92FF92C7
:102D10000F931F93CF93DF93EC0179018C010E5C2D
:102D20001F4FFB011082FA011082FC01EB5AFF4F8A
:102D3000D080DD2041F08AAD9BAD892B69F4C801BC
:102D40000E94312409C065E0C8010E94E30F81118F
:102D5000F2CFD0E0C0E01BC08AAD9BAD8130964081
:102D600079F461EE77E0C8010E94614D48EE53E0CE
:102D700060E070E0C8010E94E223D82FC92F02C092
:102D8000D0E0C0E0D11003C0C8010E94D023F701F9
:102D9000D083C18381E0DF91CF911F910F91FF908C
:102DA000EF90DF9008950F931F93CF93DF93FC0173
:102DB000238527FD24C0EC018C010E5C1F4F65E0CC
:102DC000C8010E94E30F8823A1F040E050E06AEEC2
:102DD00077E0C8010E94284D4AE059E061E179E0BE
:102DE000C8010E94EB8AC8010E94BF0FC8010E945F
:102DF000D0236C8581E068278B850E94887181E0F3
:102E0000DF91CF911F910F910895CF93DF93EC0144
:102E10008B8587FD1EC06C850E948871E29665E0F7
:102E2000CE010E94E30F8823A1F040E050E067EE5E
:102E300077E0CE010E94284D4AE059E061E179E057
:102E4000CE010E94EB8ACE010E94BF0FCE010E94EC
:102E5000D02381E0DF91CF910895CF92DF92EF925E
:102E6000FF921F93CF93DF93CDB7DEB72B970FB6AB
:102E7000F894DEBF0FBECDBF6C0122E3C20ED11CA1
:102E8000FC01EB5AFF4F1081112371F044EE57E023
:102E9000B601CE0101960E947986CE0101960E946C
:102EA000668E811136C00EC065E0C6010E94E30F38
:102EB0008111ECCFC12C9CE3D92E9CE1E92E96EC3C
:102EC000F92E32C07E0187E0E80EF11C85E0F701A3
:102ED00011928A95E9F745E050E0B701CE010196DD
:102EE0000E94CA8840E150E060E070E0C7010E94A3
:102EF0003FA5F62E111103C0C6010E94D0236F2DED
:102F0000FF0C770B880B990B0E94DBAB6B017C01EC
:102F100007C0C12C8CE3D82E8CE1E82E86ECF82E6D
:102F2000CE0101960E941F81C701B6012B960FB6F4
:102F3000F894DEBF0FBECDBFDF91CF911F91FF9000
:102F4000EF90DF90CF9008954F925F926F927F92B3
:102F50008F929F92AF92BF92CF92DF92FF920F9388
:102F60001F93CF93DF9300D000D0CDB7DEB76C01B5
:102F7000DC01ED91FC9102A0F3A1E02D09958823DD
:102F800009F4C2C034E6832E912CA12CB12CF12C73
:102F90008601065A1F4F0E942C73F60146A057A0C7
:102FA00060A471A4F0EA4F0EFFE05F1E611C711C6B
:102FB000641575058605970570F34AE050E06F2D9E
:102FC0008AE19CE00E94B08260E28AE19CE00E947B
:102FD000C0826EEC76E082E599E00E94BD5C2FE055
:102FE00030E045E250E06EEC76E0C8010E947114DA
:102FF000892B09F492C0C501B4010E94F2720E94AB
:103000002C732B013C0161E2C8010E94C782C801F8
:103010000E94AB0D882391F0C8010E94D20E049744
:103020006CF40E942C73DC01CB0184199509A6096C
:10303000B70988389341A105B10548F3C8010E943A
:10304000D20E04970CF465C00E942C734B015C01F6
:1030500084189508A608B7086DE379E08AE19CE03A
:103060000E94FB8260E28AE19CE00E94C0822AE02A
:10307000B501A4018AE19CE00E94518260E28AE1EC
:103080009CE00E94C0828AE399E00E9451791982F3
:103090001A821B821C8244E050E0BE016F5F7F4FAA
:1030A000C8010E94E80EC8010E94DC13498150E06B
:1030B00060E070E0762F652F542F44278A81480FF7
:1030C000511D611D711D762F652F542F44278B8153
:1030D000480F511D611D711D8C8190E0A0E0B0E092
:1030E00080589E47AA4AB348762F652F542F44270D
:1030F000480F591F6A1F7B1F40388DEA58078AE224
:1031000068078CE57807B0F430E020E080E090E0DC
:103110001CC088E199E00E945179C8010E94DC132B
:10312000F394B4E68B0E911CA11CB11CEAE0FE12D4
:1031300032CFEACF4138A8ED5A07ABED6A07A0E7D6
:103140007A0710F7342F252FCB01632F722F0F90A2
:103150000F900F900F90DF91CF911F910F91FF90E3
:10316000DF90CF90BF90AF909F908F907F906F90A7
:103170005F904F9008952F923F924F925F926F927F
:103180007F929F92AF92BF92CF92DF92EF92FF9287
:103190000F931F93CF93DF93CDB7DEB7C155D109FE
:1031A0000FB6F894DEBF0FBECDBF8C0165E478E0AA
:1031B000CE01845B9F4F0E94AA81680122E3C20E68
:1031C000D11CC6010E94F88AF801E65AFF4FD58645
:1031D000C4861686158AD801D596FC93EE93D497AB
:1031E000DA966D917C91DB97CE0101960E94385D55
:1031F0007801BCE2EB0EF11CBE016F5F7F4FC7018F
:103200000E94D17FCE0101960E941F8165E0C60118
:103210000E94E30F882309F41BC2C6010E943124D7
:10322000F80162AD73ADCE0101960E94385DBE011A
:103230006F5F7F4FC7010E94D17FCE0101960E9430
:103240001F8141E050E065E179E0C6010E94284D10
:103250004AE059E061E179E0C6010E94EB8A41E071
:1032600050E067E079E0C6010E94284D4AE059E04D
:1032700061E179E0C6010E94EB8A41E050E064E040
:1032800079E0C6010E94284D4AE059E061E179E009
:10329000C6010E94EB8A41E050E061E079E0C6019E
:1032A0000E94284D4AE059E061E179E0C6010E94A0
:1032B000EB8A41E050E06EEF78E0C6010E94284DB5
:1032C0004AE059E061E179E0C6010E94EB8A41E001
:1032D00050E06BEF78E0C6010E94284D4AE059E0CB
:1032E00061E179E0C6010E94EB8A40E050E068EFBE
:1032F00078E0C6010E94284D4AE059E061E179E09A
:10330000C6010E94EB8A40E050E065EF78E0C6011C
:103310000E94284D4AE059E061E179E0C6010E942F
:10332000EB8A60EF78E0C6010E94614D4AE059E007
:1033300061E179E0C6010E94EB8A40E050E06DEE69
:1033400078E0C6010E94284D4AE059E061E179E049
:10335000C6010E94EB8A40E450E06AEE78E0C601C4
:103360000E94284D4AE059E061E179E0C6010E94DF
:10337000EB8AF801EB54FF4FA080B180E056F109D1
:10338000F080FF2031F1A50161EF77E0C6010E94D6
:10339000EF4C4AE059E061E179E0C6010E94EB8A16
:1033A0006DEE77E0C6010E94614D0AE019E021E16F
:1033B00039E048E853E160E070E0C6010E94A98A64
:1033C000C6010E94BF0FF1100AC0C6010E94D0239F
:1033D00006C065E0C6010E94E30F8111D4CF66EEFE
:1033E00078E0C6010E94614D4AE059E061E179E070
:1033F000C6010E94EB8AC6010E94BF0F8E01005CCD
:103400001F4F65E478E0C8010E94AA8181EA98E034
:103410000E9451790E942C731B012C01FF24F3940C
:10342000A12CB12CE02E912E0E942C73DC01CB013B
:1034300082199309A409B509803E9349A440B105B6
:1034400008F0FCC06EE978E0C6010E94614D40E1E1
:1034500057E260E070E0C6010E94E223782E44EF5C
:1034600057E0B601CE01CA960E94798640E1672DE9
:10347000CE01C4960E94248160E070E0CE018E9659
:103480000E94874E0E942C7319A618A61BA61AA686
:103490001DA61CA60E94D9AB20E030E04AE754E408
:1034A0000E9433AE8E010F5F1F4F22E044E00E9466
:1034B000FEA3BC01CE0188960E94F1801BA21AA235
:1034C0001DA21CA21FA21EA24AE0B801C5010E94B3
:1034D000E4A7B801CE0182960E94F180BE016E5D24
:1034E0007F4FC8010E94A1816DEE76E0C8010E9465
:1034F000A480BE01685D7F4F0E94BD806CED76E0C8
:103500000E94A480BE01625D7F4F0E94BD806FED6E
:1035100076E00E94A480BE016C5C7F4F0E94BD805B
:1035200063EE76E00E94A480BE01665C7F4F0E943D
:10353000BD8064EE76E00E94A480BC018E2D992DA2
:103540000E940881C8010E941F81CE0182960E94BC
:103550001F81CE0188960E941F81CE018E960E9407
:103560001F81CE01C4960E941F81CE01CA960E947F
:103570001F81772019F023E2721236C04AE06F2DC6
:10358000CE0182960E94248166EE76E0CE010196FD
:103590000E94AA81BE016E5D7F4FCE0101960E94FE
:1035A000BD80BC018E2D992D0E94804ECE010196CA
:1035B0000E941F81CE0182960E941F816E2D792D5F
:1035C000CE0101960E94A181BE016F5F7F4F8AE10B
:1035D0009CE00E94E982CE0101960E941F81F39433
:1035E00083E08F1508F53AC06E2D792DCE01019636
:1035F0000E94A181BE016F5F7F4F8AE19CE00E9423
:10360000E982CE0101960E941F81AAE0AA16B104A8
:1036100049F468E978E0C6010E94614D8CE898E0C1
:103620000E945179FF24F39468EE73E080E090E00B
:103630000E94F272BFEFAB1ABB0AF6CE10E0C601D1
:103640000E94D023CE01805C9F4F0E941F8170C1D9
:1036500087EF97E00E94517910E06AC1C6010E948D
:103660006610BC01CE0101960E94874EBE016F5FBD
:103670007F4FCE01845B9F4F0E94977FCE010196C2
:103680000E941F81BE01645B7F4FCE0182960E9423
:10369000A18164E678E08AE19CE00E94FB8260E21E
:1036A0008AE19CE00E94C082BE016E5D7F4FCE0128
:1036B00001960E94A181BE016F5F7F4F8AE19CE06D
:1036C0000E94DB8260E28AE19CE00E94C08264EE9C
:1036D00076E08AE19CE00E949E82CE0101960E94E3
:1036E0001F81CE0182960E941F8165E478E0CE01A1
:1036F000CA960E94AA8161E678E0C6010E94614DE7
:103700008AE0E82E89E0F82E01E119E09E01265CAE
:103710003F4F48EE53E060E070E0C6010E948289AE
:1037200094EF492E55245394612C712CAA24A39410
:10373000B12C65E478E0CE01CA960E94F180C30105
:10374000B2010E94F2726EE578E0C6010E94614DFE
:103750003AE0E32E39E0F32E01E119E09E01265C08
:103760003F4F48EE53E060E070E0C6010E9482895E
:103770000EAD1FADBE01665C7F4FCE018A5B9F4FD1
:103780000E94A18167E578E08AE19CE00E94FB82CB
:1037900060E28AE19CE00E94C082BE016A5B7F4FCA
:1037A000CE01C4960E94A181B5018AE19CE00E94ED
:1037B000158C60E28AE19CE00E94C082BE016C5CD4
:1037C0007F4FCE018E960E94A1816FEE77E08AE155
:1037D0009CE00E94D98260E28AE19CE00E94C08263
:1037E000BE01625D7F4FCE0188960E94A18160E19B
:1037F00070E08AE19CE00E94158C60E28AE19CE026
:103800000E94C082BE01685D7F4FCE0182960E94F9
:10381000A18163E578E08AE19CE00E94FB8260E29E
:103820008AE19CE00E94C082BE016E5D7F4FCE01A6
:1038300001960E94A181BE016F5F7F4F8AE19CE0EB
:103840000E94DB8260E28AE19CE00E94C0826CEE12
:1038500076E08AE19CE00E94D98260E28AE19CE005
:103860000E94C082B8018AE19CE00E949761CE016B
:1038700001960E941F81CE0182960E941F81CE0177
:1038800088960E941F81CE018E960E941F81CE01D4
:10389000C4960E941F81CE018A5B9F4F0E941F81A8
:1038A0006FEE76E0CE0101960E94AA81BE016F5FA5
:1038B0007F4FCE01CA960E94567F892B29F011E0D6
:1038C0008EAD9FAD089708F410E0CE0101960E94DE
:1038D0001F81111118C0EFEFAE1ABE0AF4EF4F0EA0
:1038E000F1E05F1E611C711C21E1A216B10409F018
:1038F00020CF81E298E00E945179CE01CA960E94C1
:103900001F8111E09CCEBE01665C7F4FCE01019607
:103910000E94A18140E158E0BE016F5F7F4F82E1CC
:1039200098E00E94C866CE0101960E941F81E5CFF3
:10393000CE01845B9F4F0E941F81812FCF5ADF4FA2
:103940000FB6F894DEBF0FBECDBFDF91CF911F91B0
:103950000F91FF90EF90DF90CF90BF90AF909F902E
:103960007F906F905F904F903F902F90089580913F
:10397000B80C811107C08091B90C811103C081E09E
:103980008093B70C08954F925F926F927F92AF929F
:10399000BF92CF92DF92EF92FF920F931F93CF933C
:1039A000DF938C01DC0116967C9077FE07C085E7DB
:1039B00099E00E9451798DE599E03DC1EC01C8592B
:1039C000DD4F1B8218821D8282599D4F9A83898305
:1039D0000E942C736B017C01A980BA80F501728270
:1039E00061E0872D0E941B7261E0D50112968C91D7
:1039F0000E948871BFB6F89480915A15811127C032
:103A0000E5ECFAE18491E5EEFAE19491E82FF0E03B
:103A1000EE0FFF1FE459F74EA591B491EC91E92305
:103A200021F461E08CE00E94887161E08CE00E94EA
:103A30001B728CB580618CBD8CB580648CBD61E0DF
:103A40008FE00E941B7261E08DE00E941B728091EA
:103A50005A158F5F80935A15BFBEE981FA8182E5BE
:103A6000808381E081838B81811103C0CE010E941C
:103A7000832A5801B7E9AB1ABDEFBB0AD501ED9116
:103A8000FC9161E082810E9488714AE0742E8FEF80
:103A90000E94972A7A947110FACFD501ED91FC918A
:103AA00060E082810E9488713AE0B32E20E030E02D
:103AB000A90160E0CE010E94082BA82EB1E08B176F
:103AC00099F0BA94B11002C080E267C08DEF0E94F5
:103AD000972A28E0622E22E0722E0E949C2AE1E0C2
:103AE0006E1A7108D1F7E2CF2AEA31E040E050E0E7
:103AF00068E0CE010E94082B853029F4F801E359D3
:103B0000FD4FA08212C094E0B92E0E949C2A8C83A3
:103B1000BA94B110FACF8A3A31F482E0F801E3594D
:103B2000FD4F808302C085E238C05801F3E9AF1A27
:103B3000FDEFBF0AD5018C91823021F0412C512C30
:103B4000320105C0412C512C612C80E4782E20E0FC
:103B500030E0A90167E3CE010E94082BA301920186
:103B600069E2CE010E94082B882349F00E942C7341
:103B70006C197D09613D774050F383E40EC0F50177
:103B800080818230E9F420E030E0A9016AE3CE01CF
:103B90000E94082B882331F087E38883CE010E949E
:103BA000BE2A43C00E949C2A807C803C19F483E09A
:103BB000D5018C930E949C2A0E949C2A0E949C2AD8
:103BC000CE010E94BE2AE981FA8180E5808381E0EE
:103BD0008183F801D2A3C1A37801F1E2EF0EF11CB9
:103BE000E801C85BDD4FCE010E946A4A61E0C7016F
:103BF0000E944E2C882339F0B701CE010E94504A12
:103C0000882399F007C060E0C7010E944E2C811103
:103C1000F3CF0BC0209749F08881807731F0D093A3
:103C20005D15C0935C1581E009C081EC99E00E94AC
:103C3000517989EA99E00E94517980E0DF91CF9132
:103C40001F910F91FF90EF90DF90CF90BF90AF90BA
:103C50007F906F905F904F9008957F928F929F9288
:103C6000AF92BF92CF92DF92EF92FF920F931F938A
:103C7000CF93DF93CDB7DEB7AC970FB6F894DEBF26
:103C80000FBECDBF8C014B01742EE22EADB6BEB679
:103C90000E94C31C811102C0F12C63C0D401149690
:103CA0008C918F5F482F50E0EDB7FEB7E41BF50B0A
:103CB0000FB6F894FEBF0FBEEDBF2DB73EB72F5F16
:103CC0003F4F6901882321F0B901C4010E94CA88CD
:103CD000480133E8831A3DEF930A45E0B601C40179
:103CE0000E947A2AF82E882321F0B8016F587D4F60
:103CF0002FC0772089F245E1B601C4010E947A2ADB
:103D0000F82E882349F268018FE8C81A8DEFD80A87
:103D1000B601CE0101960E94D44162E0CE01019627
:103D20000E948841EE2099F0D801ED91FC91048029
:103D3000F581E02DB601C8010995B601CE010196C5
:103D40000E94D44164E0CE0101960E948841B601F0
:103D5000CE0101960E94D44161E0CE0101960E94FD
:103D600088418F2D0FB6F894BEBE0FBEADBEAC9687
:103D70000FB6F894DEBF0FBECDBFDF91CF911F917C
:103D80000F91FF90EF90DF90CF90BF90AF909F90FA
:103D90008F907F9008952F923F924F925F926F92F3
:103DA0007F928F929F92AF92BF92CF92DF92EF92CB
:103DB000FF920F931F93CF93DF93CDB7DEB7629738
:103DC0000FB6F894DEBF0FBECDBF7C016DB67EB6D8
:103DD0007F866E8681E08093B80C1092B70C86E2E5
:103DE0009BE00E94517989E09BE00E94517964E652
:103DF00070E080E090E00E94F272D7011F968D91F2
:103E00009C915097009741F1DC01ED91FC91008469
:103E1000F185E02D0995F70187859089DC01ED9109
:103E2000FC910680F781E02D09958701035E1F4F05
:103E3000C8010E94E885F70187859089DC01ED9132
:103E4000FC910288F389E02D40E553EC60E070E0DE
:103E50000995C8010E94E885F701858596850E942D
:103E60006034D7011D960D911C911E97A12CB12C89
:103E7000F8018281A81650F5CA2CD12CB601C801D0
:103E80000E943587882391F0CC0CDD1CD801ED9180
:103E9000FC91EC0DFD1D0190F081E02D0190F08171
:103EA000E02DE85BFF4F808183FDB394A394E0CFC6
:103EB000CA2CD12CB601C8010E94358781110CC0D3
:103EC000A394D80112968C91A81690F3F8018381DF
:103ED000B81690F5A12CF5CFCC0CDD1CD801ED91D6
:103EE000FC91EC0DFD1D0190F081E02D8081918110
:103EF000FC01E85BFF4F208123FDE2CFDC01ED9167
:103F0000FC91028CF38DE02D60E009958823C1F2CD
:103F1000F80180819181FC01EC0DFD1D0190F08183
:103F2000E02D80819181DC01ED91FC910288F38983
:103F3000E02D0995B394C4CFB9E1B88B1701EDE139
:103F40002E0E311C8EED9AE00E945179D7011F96FA
:103F50008D919C915097DC01ED91FC91068CF78D31
:103F6000E02D0995C1010E94E885F70105851685B8
:103F70006DB67EB67D866C86D80112968C91EDB7B3
:103F8000FEB7E81BF1090FB6F894FEBF0FBEEDBFF8
:103F90002DB73EB72F5F3F4F5901812CD8011296A4
:103FA0009C90891460F4C82CD12CB601C8010E94E1
:103FB0003587F501EC0DFD1D80838394EFCF892DAE
:103FC00090E0EDB7FEB7E81BF90B0FB6F894FEBF13
:103FD0000FBEEDBF2DB73EB72F5F3F4F3987288704
:103FE0006901F9012E2F3885231B291510F4119230
:103FF000F9CFADB7BEB7A81BB90B0FB6F894BEBFCB
:104000000FBEADBFEDB7FEB73196FB87EA87FA8BDF
:10401000E98B2501A50120E030E0291510F020E012
:104020001EC0DA018D91AD01882399F0D8016D9100
:104030007C91C901880F991F860F971FDC018D9114
:104040009C91DC018D919C91DC0197968C918083F1
:1040500001C010822F5F3F4F3196DFCF2F5FF801F5
:104060004281241760F5822F90E0F501E80FF91FD7
:104070003081332399F3880F991FD801ED91FC917A
:10408000E80FF91F0190F081E02D0190F081E02D03
:1040900036A1CF010296B89640E03417F9F2DC0160
:1040A000612C6CE3762E6CE1862E66EC962E6D927A
:1040B0007D928D929D92CD0111924F5FEECF80E067
:1040C00090E0612C841788F5F20121912F012223C1
:1040D000A9F0D801ED91FC919C01220F331FE20F52
:1040E000F31F0190F081E02D0190F081E02DE85B5D
:1040F000FF4F20812871283109F00BC20196E98910
:10410000FA893196FA8BE98BFFEFCF1ADF0ADACF03
:10411000C52CD12CF501EC0DFD1D808181110EC047
:104120005394F8018281581698F3D80113968C9114
:10413000681610F4512CF5CF912C8EC0EA85FB85C2
:10414000EC0DFD1D7080888499848C0C9D1CD4011D
:104150004C90471428F7CC0CDD1CD801ED91FC9154
:10416000EC0DFD1D0190F081E02D80819181DC013D
:10417000ED91FC91048CF58DE02D60E0099588238C
:1041800009F440C0D801ED91FC91EC0DFD1D0190AA
:10419000F081E02D80819181FC01E85BFF4F20815F
:1041A00025FD07C0DC01ED91FC910688F789E02D23
:1041B0000995D801ED91FC91EC0DFD1D0190F08168
:1041C000E02D80819181DC01ED91FC91068CF78DD1
:1041D000E02D60E009958823A9F0F80180819181A4
:1041E000FC01EC0DFD1D0190F081E02D808191819D
:1041F000DC01ED91FC91008CF18DE02D099543944B
:10420000F4014082D4018C9178128ACF639488CFD4
:10421000C92CD12CF501EC0DFD1D80818823D9F02E
:10422000CC0CDD1CD801ED91FC91EC0DFD1D019035
:10423000F081E02D808191810E94D334F80180814A
:104240009181FC01EC0DFD1D0190F081E02D80813C
:1042500091810E9460359394F80182819816C0F292
:104260006C847D840FB6F8947EBE0FBE6DBE0E9436
:10427000EA2FAB01BC01CE0101960E94CA2EBE01FD
:104280006F5F7F4F87EC9AE00E944A86CE010196CD
:104290000E941F818FEA9AE00E945179D7011D96F2
:1042A000CD90DC901E97B12CF6018281B81608F0F3
:1042B000B3C00B2D10E0000F111F0190F081E02D15
:1042C000E00FF11F60817181DB0112968C911297D2
:1042D000882391F11B966D917C911C97CE010196DC
:1042E0000E94AA81BE016F5F7F4F8AE19CE00E941D
:1042F000DB82CE0101960E941F8161E47AE08AE1AF
:104300009CE00E94FB82D601ED91FC91E00FF11F31
:1043100060817181CE0101960E94A961BE016F5F2B
:104320007F4F8AE19CE00E94DB82CE0101960E94D1
:104330001F816FE37AE04CC0CE0101960E94CE86C9
:10434000BE016F5F7F4F8AE19CE00E94DB82CE015D
:1043500001960E941F8165E37AE08AE19CE00E9459
:10436000FB82D601ED91FC91E00FF11F0190F081ED
:10437000E02D63857485CE0101960E94AA81BE015D
:104380006F5F7F4F8AE19CE00E94DB82CE01019645
:104390000E941F8160E37AE08AE19CE00E94FB8238
:1043A000D601ED91FC91E00FF11F60817181CE018A
:1043B00001960E94A961BE016F5F7F4F8AE19CE078
:1043C0000E94DB82CE0101960E941F816EE27AE09C
:1043D0008AE19CE00E94FB82F60180819181FC01D0
:1043E000E00FF11F0190F081E02D65857685CE010B
:1043F00001960E94AA81BE016F5F7F4F8AE19CE017
:104400000E94DB82CE0101960E941F818AE19CE01E
:104410000E949A82B39448CF87E99AE00E9451792A
:10442000C1010E94E88568E873E180E090E00E94A5
:10443000F272C1010E94E885F889F150F88BF11100
:1044400081CD57012DE1A20EB11CD7011D96CD9053
:10445000DC901E97912CF60182819816E8F4092DC4
:1044600010E0B801C6010E943587882399F0000F3B
:10447000111FD601ED91FC91E00FF11F0190F08129
:10448000E02D80819181DC01ED91FC910488F5891A
:10449000E02D09959394DFCFF701C584D684912C44
:1044A000D60112968C919816E8F4092D10E0B80107
:1044B000C6010E943587882399F0000F111FD6018D
:1044C000ED91FC91E00FF11F0190F081E02D8081D2
:1044D0009181DC01ED91FC910088F189E02D099535
:1044E0009394DECFF701878590890097C9F0DC01AE
:1044F000ED91FC910488F589E02D0995F7018785F8
:104500009089DC01ED91FC910684F785E02D0995F9
:1045100007C0E989FA892081D6012C936394EECDF6
:1045200082E89AE00E94517987E59AE00E945179E9
:10453000C5010E94E8851092B80C60E0C7010E9496
:1045400088676E847F840FB6F8947EBE0FBE6DBE02
:1045500062960FB6F894DEBF0FBECDBFDF91CF914C
:104560001F910F91FF90EF90DF90CF90BF90AF9091
:104570009F908F907F906F905F904F903F902F9083
:104580000895CF92DF92EF92FF920F931F93CF93F4
:10459000DF93CDB7DEB7AC970FB6F894DEBF0FBE92
:1045A000CDBF8C017C0183E6E81A8DEFF80AC701C4
:1045B0000E94668E882319F0C8010E94336920E0AA
:1045C00040E0B701C8010E942D1E811116C0C7012D
:1045D0000E94668E882319F0C8010E94336921E089
:1045E00041E0B701C8010E942D1ED82E811105C0DF
:1045F00082E19AE00E94517940C068018FE8C81AB0
:104600008DEFD80AB601C8010E94B768B701CE0184
:1046100001960E94A18144EF59E0BE016F5F7F4F78
:104620008BEF99E00E94C866CE0101960E941F811F
:104630006AE17CE0C8010E94B7686AE08AE19CE018
:104640000E94C782B601CE0101960E94D44164E067
:10465000CE0101960E948841B601CE0101960E94CA
:10466000D44161E0CE0101960E948841C80183587F
:104670009D4F0E946A4ADD24D3948D2DAC960FB6CF
:10468000F894DEBF0FBECDBFDF91CF911F910F9188
:10469000FF90EF90DF90CF9008950C94B6A4680F30
:1046A000791F20E030E086179707D9F0FC0141918F
:1046B000CF012427422F42954227042E4695469546
:1046C0004025042E469540254770022E232F4695FF
:1046D00007944795302D24270694479530252427A5
:1046E000E2CFC901089508952FEA32E0FC01318339
:1046F00020830C94263DCF93DF93EC010E9474231A
:10470000CE01DF91CF910C94B6A48F929F92AF927D
:10471000BF92CF92DF92EF92FF920F931F93CF93AE
:10472000DF93EC018B0169017A0162E070E080E0C7
:1047300090E00E94F2720E942C734B015C01D80140
:104740008D919C91DC01ED91FC910084F185E02D2F
:104750000995892B69F40E942C73DC01CB0188191F
:104760009909AA09BB098C159D05AE05BF0538F34B
:10477000F801608171814DE0CE010E940482CE017A
:104780000E94F67ECE01DF91CF911F910F91FF9095
:10479000EF90DF90CF90BF90AF909F908F90089553
:1047A000CF93DF93EC0161E57BE00E94614D46E52C
:1047B0005AE16DE57AE1CE010E94EB8A1BA2DF91FE
:1047C000CF910895CF92DF92EF92FF920F931F93B4
:1047D000CF93DF93CDB7DEB72B970FB6F894DEBF3C
:1047E0000FBECDBF9A01AB01BC01CE0101960E9464
:1047F0008523CE0101960E94668E882331F067EFF3
:1048000076E0CE0101960E94F1808E01095F1F4F74
:1048100085E0F80111928A95E9F745E050E0B8018A
:10482000CE0101960E94CA8840E150E060E070E04D
:10483000C8010E943FA56B017C01CE0101960E9438
:104840001F81C6012B960FB6F894DEBF0FBECDBFF9
:10485000DF91CF911F910F91FF90EF90DF90CF905C
:104860000895CF93DF93EC0167E57BE00E94614DF3
:1048700048EE53E060E070E0CE010E94E2238F3FFB
:10488000910589F464E57BE0CE010E94614D48EE1C
:1048900053E060E070E0CE010E94E2238F3F91057B
:1048A00011F480E090E099878887DF91CF91089597
:1048B0008F929F92AF92BF92CF92DF92EF92FF9230
:1048C0000F931F93CF93DF9300D000D000D0CDB7CC
:1048D000DEB76C017B018A011092611B1092601B94
:1048E0006EEB72E10E94A5A7892B09F051C06BEA1B
:1048F00072E1C7010E94A5A7892B71F4B80181EC70
:104900009BE00E94A2B165E872E18AE19CE00E940E
:10491000FB8261EC7BE0E2C46CE772E1C7010E94BC
:10492000A5A7892B71F4B8018BE99BE00E94A2B185
:1049300061E672E18AE19CE00E94FB826BE97BE028
:10494000CDC460E572E1C7010E94A5A7892B71F46F
:10495000B80187EE9BE00E94A2B16DE272E18AE1AC
:104960009CE00E94FB8267EE7BE0B8C465E172E1E7
:104970008AE19CE00E94FB82B7018AE19CE00E94F0
:10498000D9826DEE76E08AE19CE00E94D982A5C4CE
:104990006FE072E1C6010E94A5A7892B09F0AFC0A4
:1049A0006EE072E18AE19CE00E94FB824AE050E006
:1049B00060915B158AE19CE00E94B08260E57AE03C
:1049C0008AE19CE00E94D982B7018AE19CE00E94C2
:1049D000D9826BE072E18AE19CE00E94FB82B8011F
:1049E0008AE19CE00E94D982D12CAD2CB12CC5016A
:1049F000880F991F9C012E563F4E5901D901ED9108
:104A0000FC9161897289CE0101960E94AA81B70149
:104A100089819A810E9499B14C01CE0101960E9430
:104A20001F81892869F4F50180819181DC0152960A
:104A30001C930E935197B8010E94FE8858E0D52E22
:104A4000D394B7E0BD1588F6E8E0DE1619F069EFFB
:104A500071E14BC063EF71E1C7010E94A5A7892BEB
:104A600009F041C080915B1590E00897CCF565EEA8
:104A700071E18AE19CE00E94FB82E0915B15F0E02D
:104A8000EE0FFF1FEE56FF4E0190F081E02D618981
:104A90007289CE0101960E94AA81BE016F5F7F4F8D
:104AA0008AE19CE00E94DB82CE0101960E941F8178
:104AB00063EE71E18AE19CE00E941F83E0915B1547
:104AC000F0E0EE0FFF1FEE56FF4E80819181DC017A
:104AD00052961C930E935197B8010E94FE8809C00C
:104AE0006BEC71E102C066EB71E18AE19CE00E942F
:104AF0001F8380915B158F5F80935B15F3C36FEA13
:104B000071E1C6010E94A5A7892B09F042C165EA9F
:104B100071E1C7010E94A5A7892BB9F46FE871E183
:104B20008AE19CE00E94FB82B8018AE19CE00E943D
:104B30009E82B80186EE9AE00E94A2B186EE9AE0CB
:104B40009093CC0C8093CB0CCDC366E771E1C70189
:104B50000E94A5A7892B09F06AC04AE050E0BE0177
:104B60006F5F7F4FC8010E946DA66B017C01161616
:104B70001706180619060CF04BC08091601B909127
:104B8000611B829709F444C0B9E6CB16B1E0DB069D
:104B9000E104F104ECF061E471E18AE19CE00E943F
:104BA000FB8268E671E08AE19CE00E94158C64E279
:104BB00071E18AE19CE00E94FB82C701B6010E947C
:104BC000EC8828E6C22EDD24D394E12CF12C17C00A
:104BD0006BEF70E18AE19CE00E94FB82B701A601C5
:104BE0008AE19CE00E94E38B67EE70E18AE19CE041
:104BF0000E94FB826FE08AE19CE00E94CF8BD09202
:104C0000CE0CC092CD0CD092E30AC092E20A6AC3E5
:104C100068EC70E18AE19CE00E94FB8268E671E04A
:104C20008AE19CE00E94158C6BEB70E112C26EEA87
:104C300070E1C7010E94A5A7892B29F54AE050E041
:104C4000BE016F5F7F4FC8010E946DA66B017C01A2
:104C5000DC01CB010197A109B1090497A105B105B8
:104C600078F48091601B9091611B829749F0D092FB
:104C7000CE14C092CD14C092E50A68E970E1E9C192
:104C80006FE670E1E6C164E670E1C7010E94A5A786
:104C9000892B09F54AE050E0BE016F5F7F4FC801E4
:104CA0000E946DA66B017C0165307105810591053F
:104CB00078F48091601B9091611B829749F0D092AB
:104CC000CE14C092CD14C092E50A60E570E1C1C176
:104CD00067E270E1BEC16DE170E1C7010E94A5A766
:104CE000892B29F54AE050E0BE016F5F7F4FC80174
:104CF0000E943FA56B017C01DC01CB010C96A11D3C
:104D0000B11D4997A105B10578F48091601B909180
:104D1000611B829749F067E070E18AE19CE00E94A4
:104D2000FB82C092E40A99C164ED7FE092C164EC19
:104D30007FE0C7010E94A5A7892BE9F463EB7FE020
:104D40008AE19CE00E94FB82B8018AE19CE00E941B
:104D50009E82F80101900020E9F73197E01BF10BEA
:104D6000FC9718F0D801DD961C92B8018BEF9AE001
:104D70000E94A2B1B7C267EA7FE08AE19CE00E948C
:104D8000FB82B7018AE19CE00E94D98262EA7FE05F
:104D9000A0C26AE97FE0C6010E94A5A7892B71F431
:104DA0006DE87FE08AE19CE00E94FB82B7018AE126
:104DB0009CE00E94D98268E87FE08BC260E87FE0D7
:104DC000C6010E94A5A7892B09F05AC16CE77FE0B4
:104DD000C7010E94A5A7892B09F077C06AE67FE08A
:104DE0008AE19CE00E94FB82609108137091091394
:104DF000CE0101960E94AA81BE016F5F7F4F8AE1BA
:104E00009CE00E94DB82CE0101960E941F81F80186
:104E100001900020E9F731977F01E01AF10A8E2D09
:104E20001093091300930813843650F06E2D80EB15
:104E30009BE00E94D15CF801EE0DF11D108283E62B
:104E400020910A1330910B13232B49F490E0029622
:104E50000E941EA490930B1380930A1304C081E850
:104E60009BE00E94517980910A1390910B13009757
:104E700039F460E070E08AE59BE00E94BD5C0BC005
:104E8000B8010E94A2B180910A1390910B139093E4
:104E90000913809308136AE57FE08AE19CE00E9491
:104EA000FB826091081370910913CE0101960E9454
:104EB000AA81BE016F5F7F4F8AE19CE00E94DB8286
:104EC000CE0101960E941F81E9C167E47FE0C7011E
:104ED0000E94A5A7892B49F54AE050E0BE016F5F0B
:104EE0007F4FC8010E943FA56B017C01DC01CB0113
:104EF00084569109A109B1098D3C9447A105B105DA
:104F000088F48091601B9091611B829759F066E252
:104F10007FE08AE19CE00E94FB82D0920201C09275
:104F200001019BC067EE7EE094C064ED7EE0C701A6
:104F30000E94A5A7892BD9F44AE050E0BE016F5F1B
:104F40007F4FC8010E943FA56B017C016938734106
:104F50008105910548F48091601B9091611B8297B7
:104F600019F064EB7EE075C068E77EE072C06BE626
:104F70007EE0C7010E94A5A7892BD9F44AE050E042
:104F8000BE016F5F7F4FC8010E943FA56B017C018E
:104F9000633371058105910548F48091601B909100
:104FA000611B829719F061E57EE053C06DE17EE000
:104FB00050C06CE07EE0C7010E94A5A7892B09F5CF
:104FC0004AE050E0BE016F5F7F4FC8010E943FA5DD
:104FD0006B017C016F3171058105910578F4809139
:104FE000601B9091611B829749F06EEE7DE08AE133
:104FF0009CE00E94FB82C09200012FC066EB7DE026
:1050000028C066EA7DE0C7010E94A5A7892B51F55B
:105010004AE050E0BE016F5F7F4FC8010E943FA58C
:105020006B017C018FE1C816D104E104F10478F42E
:105030008091601B9091611B829749F069E87DE047
:105040008AE19CE00E94FB82C092920A06C062E55F
:105050007DE08AE19CE00E94FB82C701B6010E94CC
:10506000EC8840C165E47DE08AE19CE00E94FB821F
:10507000B7018AE19CE00E94D98260E47DE029C109
:105080006BE37DE0C6010E94A5A7892B09F0ABC0A8
:1050900060E37DE0C7010E94A5A7892BD1F4F80148
:1050A00001900020E9F73197E01BF10B749718F09D
:1050B000D80155961C92B80186E99AE00E94A2B1E7
:1050C00064E27DE08AE19CE00E94FB8266E97AE08E
:1050D00005C16BE17DE0C7010E94A5A7892BC9F43A
:1050E000F80101900020E9F73197E01BF10B74976C
:1050F00010F0F801158AB8018BEA9AE00E94A2B17B
:1051000069E07DE08AE19CE00E94FB826BEA7AE044
:10511000E5C06FEF7CE0C7010E94A5A7892BD1F401
:10512000F80101900020E9F73197E01BF10B3A9765
:1051300018F0D8011B961C92B80180EC9AE00E94EE
:10514000A2B164EF7CE08AE19CE00E94FB8260EC0B
:105150007AE0C4C067EE7CE0C7010E94A5A7892B56
:10516000A1F563EE7CE0C8010E94A5A7892B51F54B
:105170006DEC7CE08AE19CE00E941F8367E470E0B4
:1051800085E99AE00E944F239093940A8093930AB2
:1051900093E9E92E9AE0F92E00E010E0F701D190B2
:1051A0007F01C8010E94F8ACD81621F06D2DC8010E
:1051B0000E9400AD0F5F1F4F0934110579F767EBAF
:1051C0007CE05CC063E97CE060C069E87CE08AE187
:1051D0009CE00E94FB82B7018AE19CE00E94D98298
:1051E00064E87CE076C06FE77CE0C6010E94A5A77A
:1051F000892B09F056C068E77CE0C7010E94A5A78B
:10520000892B09F06FC062E77CE0C8010E94A5A766
:10521000892B59F561E57CE08AE19CE00E941F83BF
:105220006FE271E08EED9AE00E944F239093DD0AC9
:105230008093DC0A8CEDE82E8AE0F82E09E410E079
:10524000D701DD907D01C8010E94F8ACD81621F08D
:105250006D2DC8010E9400AD0F5F1F4F0A37B1E0EE
:105260001B0771F76BE37CE009C066E37CE0C801D3
:105270000E94A5A7892B39F467E17CE08AE19CE0D4
:105280000E941F832FC063EF7BE08AE19CE00E94B5
:10529000FB82B8018AE19CE00E94D98264EE76E04C
:1052A0001DC063EE7BE08AE19CE00E94FB82B601B8
:1052B0008AE19CE00E94D98260EE7BE08AE19CE07A
:1052C0000E941F83B7018AE19CE00E94D9826EEDA3
:1052D0007BE08AE19CE00E94FB82B8018AE19CE0CD
:1052E0000E949E8281E090E026960FB6F894DEBF81
:1052F0000FBECDBFDF91CF911F910F91FF90EF9027
:10530000DF90CF90BF90AF909F908F900895FC0159
:10531000838594850895CF93DF931F92CDB7DEB731
:10532000698341E050E0BE016F5F7F4F0C960E94A1
:105330008A590F90DF91CF9108952F923F924F920B
:105340005F926F927F928F929F92AF92BF92CF9215
:10535000DF92EF92FF920F931F93CF93DF93CDB71E
:10536000DEB727970FB6F894DEBF0FBECDBF0E9401
:10537000314F5C836D837E83632F822F90E00E9488
:1053800075779C01A8E1B0E00E944BAD2C817B01B8
:105390008C01E20EF11C011D111DA8019701ACE367
:1053A000B0E00E9440AD2D817B018C01E20EF11C2A
:1053B000011D111DA80197010E9440AD2E81DC0145
:1053C000CB01820F911DA11DB11D80589C4BA2499C
:1053D000B74C1C012D016091661520E13EE062038F
:1053E000A001639F500D1124952F990F990B9A01DD
:1053F000492F592F692F792F892F51016201E12CF3
:10540000F12C00E010E00E94BDADB901CA01279661
:105410000FB6F894DEBF0FBECDBFDF91CF911F91C5
:105420000F91FF90EF90DF90CF90BF90AF909F9043
:105430008F907F906F905F904F903F902F90089546
:10544000CF93DF93EC01DB011D96ED91FC911E974C
:1054500090818181E92FF82FE40FF11DE40FF11DF8
:1054600060817181CE010E94A961CE01DF91CF914F
:105470000895FC01818587FD03C060E00C9488716C
:105480000895FC01818587FD03C061E00C9488715B
:1054900008951F93CF93DF93FC01878187FD14C08C
:1054A000162FEF0161E00E941B7260E08F810E9465
:1054B0008871112349F068EE73E080E090E0DF919D
:1054C000CF911F910C94F272DF91CF911F910895AB
:1054D000FC01148615861382128288EE93E0A0E008
:1054E000B0E084839583A683B78384E194E09183BD
:1054F00080830895FB01242F60915C1570915D15E8
:10550000AF010C94734ACF93DF93EC01E981FA81E8
:10551000908181819CBD8DBDE981FA8160E08281AD
:105520000E94887181E08B83DF91CF9108958EBDB9
:105530000DB407FEFDCF08958FEF8EBD0DB407FEAD
:10554000FDCF8EB508950F931F93CF93DF93EB019B
:105550000E942C738B010E949C2A8F3F49F00E946D
:105560002C73601B710BC617D707A8F780E001C02A
:1055700081E0DF91CF911F910F910895CF93DF9339
:10558000FC012381222361F0EC010180F281E02DF6
:1055900061E082810E9488718FEF0E94972A1B82AE
:1055A000DF91CF9108950F931F93CF93DF938C01D9
:1055B000862FEA010E94972A88818EBD8981FE018B
:1055C0003296DE5F0DB407FEFDCF8EBDEC17FD07F2
:1055D00011F08191F7CF0DB407FEFDCF8FEF0E9440
:1055E000972A8FEF0E94972A0E949C2AF8018483B1
:1055F0008F71853039F087E58083C8010E94BE2A0B
:1056000080E001C081E0DF91CF911F910F9108955B
:10561000FF920F931F93CF93DF9300D000D0CDB7AD
:10562000DEB78C01F62E29833A834B835C83FC0121
:105630008381811103C0C8010E94832AFF2029F0C1
:105640006CE271E0C8010E94A32A8F2D80640E9441
:10565000972A8C810E94972A8B810E94972A8A819F
:105660000E94972A89810E94972AFF2011F087E8DB
:1056700001C085E90E94972A0E949C2A8BE0F82E9F
:105680000E949C2AF801848387FF03C0FA94F110DA
:10569000F7CF0F900F900F900F90DF91CF911F9148
:1056A0000F91FF9008950F931F93CF93DF93EC0119
:1056B00089018D81833039F089E0440F551F661FC1
:1056C000771F8A95D1F79A01AB0168E1CE010E945C
:1056D000082B882311F082E323C0A8016EEFCE01CE
:1056E0000E94D32A8823E9F060ED77E0CE010E9482
:1056F000A32A182F811102C08AE512C020E030E0F1
:10570000A9016DE0CE010E94082B811108C00E9402
:105710009C2A811104C0CE010E94BE2A06C089E2E3
:105720008883CE010E94BE2A10E0812FDF91CF91A5
:105730001F910F9108950F931F93CF93DF93EC0167
:1057400089018D81833039F089E0440F551F661F30
:10575000771F8A95D1F79A01AB0161E1CE010E94D2
:10576000082B882319F080E388830BC0B801CE0191
:105770000E94808F182F882321F0CE010E94BE2A1C
:1057800004C0CE010E94BE2A10E0812FDF91CF918C
:105790001F910F910895EF92FF921F93CF93DF9384
:1057A000FC01208120FF32C0EC017C01F7E0EF0E0C
:1057B000F11C4B815C816D817E81E981FA819701C9
:1057C000808191810E94532B182F811102C010E01B
:1057D0001EC0888181FD04C088818E7F888317C0A8
:1057E000E981FA814B815C816D817E81848595851B
:1057F000A685B785480F591F6A1F7B1F97018081B7
:1058000091810E94532B8111E7CFE1CF11E0812FCD
:10581000DF91CF911F91FF90EF900895CF92DF928B
:10582000EF92FF921F93CF93DF93EC016A017B010C
:10583000122F8B819C81AD81BE8184179507A607AD
:10584000B707F1F0CE010E94CB2B811103C080E09D
:1058500090E01CC012FF06C01882CB82DC82ED8271
:10586000FE820EC0E981FA819E01295F3F4FB70198
:10587000A601808191810E949B2B8111EDCFE7CF02
:1058800013708881182B1883CE010796DF91CF9172
:105890001F91FF90EF90DF90CF900895CF92DF920D
:1058A000EF92FF920F931F93CF93DF93EC01162F8C
:1058B0001D8281E090E0A0E0B0E088879987AA8708
:1058C000BB87DAA3C9A318A28FEF9FEFDC018BA3DC
:1058D0009CA3ADA3BEA3662331F1653008F0C4C01C
:1058E00020E040E050E0BA01CE0180960E940E2CEC
:1058F000009709F4B9C000E1109F800D911D11249B
:105900004097FC01E254FE4F20812F7709F0ACC094
:105910003896C080D180E280F380C114D104E104C4
:10592000F10421F4A1C0C12CD12C760120E0B701F3
:10593000A601CE0180960E940E2CFC01892B09F451
:1059400093C0838594858115924009F08DC080892C
:10595000823009F089C086859785892B09F484C037
:1059600025852A838FEF820F8B831C8249E050E0CC
:1059700091E0921749F04150510909F475C0990F0F
:105980008C818F5F8C83F5CF4689578941155105EE
:1059900019F060E070E004C044A155A166A177A1B0
:1059A0004C875D876E877F878685978597018601FF
:1059B000080F191F211D311D0C8B1D8B2E8B3F8B4A
:1059C000818992899F838E83440F551F661F771F9D
:1059D000400F511F621F731F4C8F5D8F6E8F7F8F23
:1059E000B5E0880F991FBA95E1F781509E4F892F36
:1059F00099278695480F591F611D711D488B598B3A
:105A00006A8B7B8B238934892115310521F0C901EB
:105A1000A0E0B0E004C080A191A1A2A1B3A1970130
:105A20008601041B150B260B370BB901A801480F83
:105A3000591F6A1F7B1F0C8004C076956795579588
:105A400047950A94D2F7DB01CA010196A11DB11D49
:105A5000888F998FAA8FBB8F453F1FE05107610543
:105A6000710520F48CE08D8380E012C0453F5F4FCC
:105A70006105710510F480E109C084A595A5A6A56E
:105A8000B7A58C8F9D8FAE8FBF8F80E28D8381E015
:105A9000DF91CF911F910F91FF90EF90DF90CF900A
:105AA00008958F929F92AF92BF92CF92DF92EF9222
:105AB000FF920F931F93423051056105710510F459
:105AC00080E055C0FC01C08CD18CE28CF38CC416F4
:105AD000D506E606F706A0F3480159016A017B01E5
