:100000000C9430120C942B3A0C94003A0C94D53981
:100010000C9460390C94EB380C9476380C940138BD
:100020000C94BF450C945A120C945A120C945A1208
:100030000C94EB780C9462790C94A0780C945A127E
:100040000C945A120C945A120C94766B0C945A120B
:100050000C946A780C9440780C945A120C945A12AE
:100060000C945A120C945A120C94288A0C945A121A
:100070000C940A780C94E0770C945A120C945A124F
:100080000C945A120C945A120C945A120800000044
:10009000BE922449123EABAAAA2ABECDCCCC4C3E7D
:1000A00000000080BEABAAAAAA3E00000000BF006C
:1000B0000000803F0000000000084178D3BB438768
:1000C000D1133D190E3CC3BD4282AD2B3E68EC827C
:1000D00076BED98FE1A93E4C80EFFFBE01C4FF7F01
:1000E0003F00000000004E414E494E495459494ED0
:1000F00046CDCCCC3D0AD7233C17B7D13877CC2B93
:10010000329595E6241FB14F0A000020410000C837
:100110004200401C4620BCBE4CCA1B0E5AAEC59DB8
:100120007400407A10F35A00A0724E18090010A50E
:10013000D4E80000E87648170000E40B5402000001
:10014000CA9A3B000000E1F5050000809698000087
:100150000040420F000000A08601000000102700B0
:10016000000000E803000000006400000000000A36
:1001700000000000000100000000002C76D888DCA0
:10018000674F0823DFC1DFAE59E1B1B796E5E3E47D
:1001900053C63AE651997696E8E6C28426EB898CF6
:1001A0009B62ED407C6FFCEFBC9C9F40F2BAA56F58
:1001B000A5F490055A2AF75C936B6CF9676DC11B27
:1001C000FCE0E40D47FEF520E6B500D0ED902E03EF
:1001D00000943577050080841E080000204E0A0038
:1001E0000000C80C333333330F986E12831141EF84
:1001F0008D2114893BE65516CFFEE6DB18D1844BE2
:10020000381BF77C1D901DA4BBE424203284725E51
:10021000228100C9F124ECA1E53D2700010203047D
:100220000506070001020304050607000102030496
:1002300005060700010203040506074552524F5206
:10024000004C4100544D00544D3000544D00414D80
:100250003000465200414D310041503000414D3098
:10026000004149004349002B2B2B004143005752CA
:1002700000434E00485300485300454550524F4DEF
:100280002057726974652066696E697368656400D9
:100290002900414354494F4E2057726974652061CB
:1002A000707020454550524F4D20737461727465D3
:1002B0006428007D206E6F7420737570706F727487
:1002C0006564007D206D6174636820202620616470
:1002D0006465642E003D7B003D005D20004E6F7420
:1002E00020737570706F72746564205B00414354B5
:1002F000494F4E2057726974652061626F72746550
:10030000642E20696E737472756374696F6E202732
:1003100000414354494F4E20434F5059206E6F7453
:1003200020737570706F72746564207965743A001B
:10033000434F505900575249544500414354494F87
:100340004E00555345520020746F2000424F4F54C9
:10035000207462642000454550524F4D2057726909
:1003600074652061626F727465642E20696E7374A7
:1003700072756374696F6E202700414354494F4E74
:100380002044454641554C542061707020454550ED
:10039000524F4D0044454641554C545F4150505FCB
:1003A000454550524F4D00454550524F4D205772D4
:1003B0006974652066696E697368656400454550B7
:1003C000524F4D2057726974652073746172746561
:1003D000643A0059455300454550524F4D5F5752BE
:1003E00049544500426F617264205265763A00427A
:1003F0004F4152445F52455600426F617264205330
:10040000657269616C4E756D203A00424F415244ED
:100410005F534E00426F617264204E616D653A0019
:10042000424F4152445F4E414D4500424F4F5400B0
:1004300020746F20004E4554574F524B2074626415
:1004400020005D20726561643A004E4554574F525A
:100450004B2053657420504F53545F4D41585F4EAD
:10046000554D206572726F723B2072616E67655BDD
:1004700000504F53545F4D41585F4E554D004E450F
:1004800054574F524B205365742053454E445F4F91
:1004900046465345545F4D494E206572726F723B1C
:1004A000202872616E67652030203A203330292081
:1004B000726561643A0053454E445F4F464653456A
:1004C000545F4D494E004E4554574F524B20536593
:1004D0007420434F4C4C4543545F52454144494E70
:1004E0004753206572726F723B202872616E676598
:1004F0002030203A2033302920726561643A00436D
:100500004F4C4C4543545F52454144494E4753007C
:1005100061706E004E4554574F524B0020746F204F
:100520000053454E534F525320746264200053458C
:100530004E534F52530020746F2000434F4D4D4F88
:100540004E20746264200047454F4752415048494D
:1005500043414C5F49443A0047454F475241504858
:100560004943414C5F494400434F4D4D4F4E20534A
:1005700065742054696D655A6F6E65206572726F7F
:10058000723B202872616E6765202D3132203A203F
:100590002B31322920726561643A0054494D455F20
:1005A0005A4F4E45002920726561643A0020536518
:1005B00074204C69496F6E205479706520657272A1
:1005C0006F723B202872616E676520302D002073AA
:1005D000757065727365646564207573652042414A
:1005E00054544552595F5459504500434F4D4D4F57
:1005F0004E204C69496F6E20547970653A20004C4A
:1006000049494F4E5F545950450029207265616435
:100610003A002053657420424154544552595F5466
:10062000595045206572726F723B202872616E6767
:1006300065203C00424154544552595F545950453D
:10064000002053657420424154544552595F6D4116
:10065000687220002920726561643A002053657435
:1006600020424154544552595F6D41687220657271
:10067000726F723B202872616E6765203E3D3020AC
:1006800026203C00424154544552595F6D416872E6
:100690000029207769746820726561643A002053EC
:1006A000657420696E74657276616C206572726F14
:1006B00072202872616E67653A20312D00286D69BD
:1006C0006E292066726F6D2064656661756C74209A
:1006D00000434F4D4D4F4E204C4F4747494E475FCB
:1006E000494E54455256414C5F4D494E5554455321
:1006F0002073657420746F3A2000205573696E670B
:10070000204D61782E2052656164696E67206967AB
:100710006E6F7265642000434F4D4D4F4E204C4F1D
:100720004747494E475F494E54455256414C5F4DED
:10073000494E55544553206D757374206265206C85
:10074000657373207468616E203A20004C4F4747F0
:10075000494E475F494E54455256414C5F4D494EB4
:1007600055544553004C4F474745525F4944004359
:100770004F4D4D4F4E0050524F56494445525F55D4
:100780004249444F54530050524F56494445525FDA
:100790005453005D20726561643A0050524F5649CF
:1007A0004445525F4D4D57205365742054494D4583
:1007B000525F504F53545F504143455F4D53206546
:1007C00072726F723B202872616E67652000544917
:1007D0004D45525F504F53545F504143455F4D5319
:1007E000005D20726561643A0050524F564944459D
:1007F000525F4D4D57205365742054494D45525F0B
:10080000504F53545F544F55545F4D53206572728F
:100810006F723B202872616E6765205B0054494D02
:1008200045525F504F53545F544F55545F4D5300E2
:1008300053414D504C494E475F46454154555245F2
:1008400000524547495354524154494F4E5F544F0B
:100850004B454E00434C4F55445F49440050524F66
:1008600056494445525F4D4D57004E4F4E45004E40
:100870004F4E45004E4F4E45004E4F4E45004E4F99
:100880004E45004E4F4E45004E4F4E45004E4F4E8A
:1008900045004E4F4E45004E4F4E45005749464984
:1008A0005057445F4E4F4E45005749464949445FB3
:1008B0004E4F4E450041504E5F4E4F4E45004661F3
:1008C00063746F72792064656661756C74006D7312
:1008D0004C6F673031002D2D2D4C425F5057525FC9
:1008E00055534541424C455F5245512043414E438B
:1008F000454C4C45442D2D4C626174743D002D2DAA
:100900002D4C425F5057525F4D4F44454D5F5553FC
:10091000455F5245512043414E43454C4C45442D83
:100920002D4C626174743D002D2D2D4C425F50574B
:10093000525F53454E534F525F5553455F52455199
:100940002043414E43454C4C45442D2D4C6261742F
:10095000743D002D2D2D74755F787830313A5761D4
:100960006B65757020636865636B20706F77657267
:100970002E205072657373207573657220627574D2
:10098000746F6E20746F20627970617373003A2007
:1009900042617456204C6F77203D004261745F566F
:1009A0002873746333313030290062617474657266
:1009B00079436865636B207265712F776169742F65
:1009C000737263001F1C1F1E1F1E1F1F1E1F1E1F72
:1009D0004E6F6E6500646174615075626C69736816
:1009E0006572426173652067515320636865636B6C
:1009F000004261642074696D6520003A3030003A2D
:100A00003030003A3030003A3030002121212121AD
:100A100021212121212121212121212121212120C7
:100A20002D2D2D2D2D205741524E494E47202D2D35
:100A30002D2D2D20002121212121212121212120A5
:100A40002D2D2D2D2D205741524E494E47202D2D15
:100A50002D2D2D2021212121212121212121002D78
:100A60002D2D2D2D205741524E494E47202D2D2DF5
:100A70002D2D20212121212121212121212121214F
:100A80002121212121212100546865206375727282
:100A9000656E7420636C6F636B2074696D6573742D
:100AA000616D70206973206E6F742076616C69646B
:100AB0002100212121212121212121212121212147
:100AC000212121212121202D2D2D2D2D2057415255
:100AD0004E494E47202D2D2D2D2D20002121212145
:100AE000212121212121202D2D2D2D2D2057415235
:100AF0004E494E47202D2D2D2D2D20212121212104
:100B00002121212121002D2D2D2D2D205741524E07
:100B1000494E47202D2D2D2D2D2021212121212110
:100B200021212121212121212121212121210000F7
:100B3000204677566572200020487756657220005F
:100B400020536E200020666F72200027002720733C
:100B50006E3A2700207265763A2700426F61726410
:100B60003A20004D6F64756C617253656E736F72DD
:100B700073207665727320002E20537720427569AA
:100B80006C643A20005377204E616D653A20002056
:100B90002042617474657279547970653A2000203E
:100BA000547A3A200020204C6F6767696E67496E5F
:100BB00074657276616C20286D696E293A20004C4C
:100BC0006F636174696F6E3A200000446174652040
:100BD000616E642054696D6520696E205554430030
:100BE000526573756C7420555549443A00526573CB
:100BF000756C7420556E69743A0056617269616251
:100C00006C65204E616D653A0053656E736F72209E
:100C10004E616D653A0053616D706C696E67204678
:100C200065617475726520555549443A20004461E8
:100C30007461204C6F676765722046696C653A2065
:100C40000044617461204C6F676765723A2000440C
:100C50006174612077696C6C206E6F74206265200E
:100C6000736176656421004572726F723A20534455
:100C70002063617264206661696C656420746F2012
:100C8000696E697469616C697A65206F7220697335
:100C9000206D697373696E672E00446174612077FB
:100CA000696C6C206E6F7420626520736176656478
:100CB0002100536C6176652F436869702073656C01
:100CC0006563742070696E20666F722053442063E0
:100CD00061726420686173206E6F74206265656E56
:100CE000207365742E002D2D2D2D5C2F000A205CA5
:100CF0002F2D2D2D2D204C696E6520536176656456
:100D000020746F00556E61626C6520746F2077727D
:100D100069746520746F20534420636172642100FC
:100D200020002069732000207265706F7274732038
:100D30000020002069732063616C63756C617465C9
:100D40006420746F20626520002D2D2D2D2D2D2DFA
:100D50002D2D2D2D2D2D2D2D2D2D2D2D2D2D2D2DC3
:100D60002D2D2D2D2D2D2D2D2D2D2D2D2D2D2D2DB3
:100D70002D2D2D0045786974696E67207465737434
:100D8000696E67206D6F6465002D2D2D2D2D2D2D25
:100D90002D2D2D2D2D2D2D2D2D2D2D2D2D2D2D2D83
:100DA000002D2D2D2D2D2D2D2D2D2D2D2D2D2D2DA0
:100DB0002D2D2D2D2D2D2D2D0043757272656E74E8
:100DC000206C6F676765722074696D6520697300B8
:100DD0002D2D2D2D2D2D2D2D2D2D2D2D2D2D2D2D43
:100DE0002D2D2D2D2D2D2D2D2D2D2D2D2D2D2D2D33
:100DF0002D2D2D2D2D2D2D2D2D2D00456E74657233
:100E0000696E672073656E736F72207465737469A1
:100E10006E67206D6F6465002D2D2D2D2D2D2D2DD0
:100E20002D2D2D2D2D2D2D2D2D2D2D2D2D2D2D2DF2
:100E30002D2D2D2D2D2D2D2D2D2D2D2D2D2D2D2DE2
:100E40002D2D002D3E00416C6C207661726961622F
:100E50006C65205555494427732061707065617237
:100E600020746F20626520636F72726563746C79A1
:100E700020666F726D65642E0A00686173206120C0
:100E80006E6F6E2D756E69717565205555494421DB
:100E90000068617320616E20696E76616C69642000
:100EA0005555494421004C6F6767657220706F7219
:100EB00074696F6E206F6620736574757020666943
:100EC0006E69736865642E0A0053616D706C696E9B
:100ED00067206665617475726520555549442069BF
:100EE000733A006172652063616C63756C6174654F
:100EF000642E0073656E736F727320616E6400639D
:100F00006F6D652066726F6D007661726961626CEB
:100F100065732C206F662077686963680054686980
:100F200073206C6F6767657220686173206120763B
:100F300061726961626C65206172726179207769A2
:100F400074680043757272656E7420525443207445
:100F5000696D652069733A002D2D2D4C6F67546FB4
:100F6000534420436F6D706C6574650A002D2D2D00
:100F70002D2D2D2D2D2D2D2D2D2D2D2D2D2D2D2DA1
:100F80002D2D2D2D2D2D2D2D2D2D2D2D2D2D2D2D91
:100F90002D2D2D2D2D2D2D0050696E000074696DA5
:100FA0006573206265666F7265207468652072657E
:100FB0007365742E007365632077697468207468A4
:100FC0006520696E746572727570742066697269E5
:100FD0006E670057617463682D646F672074696D74
:100FE000656F75742069732073657420666F720075
:100FF00074696D6573206265666F726520746865DB
:101000002073797374656D207265736574732E0037
:101010005761746368646F6720456E61626C6564D4
:101020002C20496E746572727570742077696C6CCF
:101030002066697265002065787065637465640078
:101040002E2E2E205761746368646F67206C6F7753
:10105000206261726B73556E74696C52657365744E
:1010600000205741544348444F472049535220627F
:1010700061726B73556E74696C5265736574002090
:101080002A2A2A2A205741544348444F4720576F61
:101090006F6620576F6F662E205265736574696E98
:1010A000672050726F636573736F722A2A2A004437
:1010B00042004C4D00414D3100006661696C656431
:1010C00020746F2077616B6521006D6F64656D48DA
:1010D0006172645265736574206661696C65642130
:1010E00000417474656D7074696E67206120686179
:1010F0007264207265736574206F6E207468652059
:101100006D6F64656D2120004E6F20726573706F86
:101110006E736520746F20415420636F6D6D616E36
:1011200064732100746F20726573706F6E64207435
:101130006F20415420636F6D6D616E64732E2E2E8F
:10114000006D7320666F72000A57616974696E677B
:1011500020757020746F0057616B696E6720757021
:1011600020746865206D6F64656D20746F20636FF7
:101170006E6E65637420746F2074686520696E7488
:1011800065726E6574202E2E2E0025560054500078
:10119000414D00414D00414D3000414E004357004C
:1011A0004355004D4E0044696769205862656533B8
:1011B000207365747570206661696C656421005DDB
:1011C0000058626565574C544520495023205B0008
:1011D000586265654C5445206E6F74207265636576
:1011E0006976656420495023202D686F70652069F9
:1011F0007420776F726B73206E6578742074696DDC
:1012000065005D2027006D646D49505B004D5900FD
:101210004D590044696769205862656533207365DC
:10122000747570205375636573732E2052656769FA
:101230007374726174696F6E202700547279202B69
:10124000435245472027002B435245470041490060
:101250004C6F6F703D5365635D207278206462202F
:101260003A205374617475732027204F7065726142
:10127000746F7220272023506F6C6C656420436567
:101280006C6C205374617475732065766572792077
:10129000317365630041503000544D0050310054AB
:1012A00044304100444F00534F00534D0050300034
:1012B00044350044370044390044380046775665C9
:1012C0007200487756657200494D454920004C74BC
:1012D0006520696E7465726E657420636F6D6D73E1
:1012E0002077697468005652004856004552524FA4
:1012F000520D004F4B0D00494D004E4953542054A0
:10130000696D652073657276657220646964206E0C
:101310006F7420726573706F6E6421006D73004E80
:1013200049535420726573706F6E64656420616602
:10133000746572005D20436F6E6E65637420004DAE
:10134000590027006465737A714E6578744368208C
:10135000316572726F723A006D532054696D656F1A
:1013600075740077616974656420002D2D205265C5
:1013700073706F6E736520436F6465202D2D000AB6
:10138000202D2D20556E61626C6520746F20457391
:101390007461626C69736820436F6E6E6563746913
:1013A0006F6E20746F20456E7669726F44495920C4
:1013B0004461746120506F7274616C202D2D00495E
:1013C00032435F30783638005F50696E00534449CD
:1013D00031322D006D6561737572656D656E747364
:1013E0002121005468697320646966666572732000
:1013F00066726F6D207468652073656E736F7227F7
:1014000073207374616E64617264206465736967CC
:101410006E206F6600726573756C747320657870EA
:10142000656374656400534449313253656E736F6C
:1014300072733A3A676574526573756C74733220CF
:101440004552524F522073656E736F7220746F6FE6
:101450006B20746F6F206C6F6E6720746F207365E4
:101460006E64206461746100534449313253656E87
:10147000736F72733A3A676574526573756C7473FF
:1014800031204552524F522077616974696E67204E
:10149000666F7220726573706F6E73650020536E95
:1014A00020002053444931322056657273696F6EB3
:1014B00020746264005344492053656E736F722038
:1014C00000204932435F307800525334383520577A
:1014D000696E67626F6172642053544333313030F8
:1014E00020536E2000646174615075626C6973688A
:1014F000657242617365207365745175656420631C
:101500006865636B004552524F5221204E6F207721
:10151000656220636C69656E742061737369676EC0
:10152000656420746F207075626C697368206461F3
:10153000746121003D005D00202050524F56494407
:1015400045525F4D4D5720555549447320286E6FC5
:101550006E6520756E6C657373206C697374656459
:10156000292C204D61783D000A2050524F564944A5
:1015700045525F4D4D572074696D6572506F73749D
:1015800050616365286D73293D000A2050524F5603
:10159000494445525F4D4D572074696D6572506FD7
:1015A0007374546F7574286D73293D000A2050526E
:1015B0004F56494445525F4D4D572053616D706CF5
:1015C000696E6720466561747572653D000A20503A
:1015D000524F56494445525F4D4D57205265672042
:1015E000546F6B656E3D002050524F564944455232
:1015F0005F4D4D5720436C6F756449643D004672E2
:101600006F6D20656570726F6D2050726F766964C2
:1016100065723A2050726F766964657220547970F1
:10162000653D0020504F53545F4D41585F4E554D1E
:101630003D002053454E445F4F46465345545F4D51
:10164000494E3D000A0D20434F4C4C4543545F52D8
:10165000454144494E47533D0020576946695077FC
:10166000643D000A205769466949643D000A2041EB
:10167000504E3D0046726F6D20656570726F6D2033
:101680004E6574776F726B3A204E6574776F726B2C
:1016900020547970653D002020204C6F633D00622E
:1016A000617474657279206D4168723D0062617485
:1016B0007465727920747970653D006D696E75741A
:1016C00065732C20547A3D005D0A0D2020206C6F3C
:1016D0006767696E6720696E74657276616C3D003C
:1016E00046726F6D20656570726F6D20636F6D6DF2
:1016F0006F6E3A204C6F676765722046696C652093
:101700004E616D655B005D005D20736E5B005D206A
:10171000207265765B0046726F6D20656570726F32
:101720006D20626F6F74204E616D655B00302E35E9
:1017300062004D3132333435363738396162636493
:101740006566676800656E7669726F444959206DF9
:101750006179666C7900466F7263696E67207265A5
:1017600073657400506172736520696E693B204E29
:101770006F2066696C65200053656172636820653F
:1017800072726F722120627265616B206F757420B6
:101790006F66206C6F6F70002D3E0050524F56499F
:1017A0004445525F78780050524F56494445525F45
:1017B0004D4D572074696D6572506F737420506180
:1017C00063696E67286D73290050524F564944452E
:1017D000525F4D4D572074696D6572506F73742060
:1017E000546F7574286D73290050524F5649444503
:1017F000525F4D4D572053616D70696E672046658D
:1018000061747572650050524F56494445525F4DA0
:101810004D5720526567697374726174696F6E20E9
:10182000546F6B656E0050524F56494445525F4DA0
:101830004D5720436C6F75644964004E4554574FB3
:10184000524B20504F53545F4D41585F4E554D0001
:101850004E4554574F524B2053454E445F4F4646DA
:101860005345545F4D494E004E4554574F524B20FF
:10187000434F4C4C4543545F52454144494E4753B6
:1018800000272C206E6F772073657420746F2027DB
:10189000004E4554574F524B2041504E20776173B4
:1018A000202700434F4D4D4F4E20426174746572A6
:1018B00079206D4168723A2000434F4D4D4F4E20C4
:1018C0004261747465727920547970653A200043DE
:1018D0004F4D4D4F4E204C6F6767696E7465727641
:1018E000616C3A2000434F4D4D4F4E204C6F67675F
:1018F00065724964205365743A2000736574746995
:101900006E6720746F20275F272C20666F756E64CA
:1019100020004572726F722021616C6E756D206CB3
:101920006F676765722066696C6520706F7300561B
:10193000005620474F4F443D0056204D45444955E1
:101940004D3D0056204C4F573D0020546872657342
:10195000686F6C64732055534541424C453D0042CD
:1019600061747465727920547970653D00507574A6
:1019700074696E67206D6F64656D20746F20736C81
:1019800065657000436F756C64206E6F74207761BD
:101990006B65206D6F64656D20666F7220525443D5
:1019A0002073796E632E00436F756C64206E6F74C4
:1019B00020636F6E6E65637420746F20696E74654A
:1019C000726E657420666F72205254432073796E74
:1019D000632E00436F6E6E656374656420746F20C0
:1019E000696E7465726E657420666F72205254431E
:1019F0002073796E632077697468204E49535400D0
:101A000054686973206D61792074616B652075700D
:101A100020746F2074776F206D696E757465732103
:101A200000417474656D7074696E6720746F206313
:101A30006F6E6E65637420746F2074686520696EC4
:101A40007465726E657420616E642073796E63686C
:101A5000726F6E697A6520525443207769746820EA
:101A60004E49535400446174612077696C6C206264
:101A70006520736176656420617300556E61626CE8
:101A80006520746F206372656174652061206669EA
:101A90006C6520746F2073617665206461746120C9
:101AA000746F210053657474696E672075702066C9
:101AB000696C65206F6E205344206361726400532B
:101AC00054433331303020646961676E6F737469D9
:101AD0006320736574205220746F206D4F686D739E
:101AE00020005354433331303020736E3A00536535
:101AF0007474696E672075702073656E736F72738E
:101B00002E2E2E004C6F63616C2054696D65200091
:101B10002D2D2D7061727365496E6920636F6D7034
:101B20006C6574650A002D2D2D7061727365496EA8
:101B300069205374617274004261745620476F6F5C
:101B400064203D002020426174562F6C702F636E1C
:101B500074720054696E7947534D204C696272610A
:101B600072792076657273696F6E20004D6F6475AF
:101B70006C617253656E736F7273207665727369F0
:101B80006F6E20005377204E616D653A20000A2D5C
:101B90002D2D426F6F742E205377204275696C642F
:101BA0003A20002C002C3078002C20002C206D4195
:101BB000683D2C002C206D413D2C0020563D2C0012
:101BC00054696D652073657420746F2000206578FA
:101BD00070656374206174206C65617374203131A9
:101BE000206368617273203A27006461746520691C
:101BF0006E76616C69642C20676F74004C6F636152
:101C00006C2054696D6520000A6479796D6D646497
:101C10003A68686D6D3C63723E20746F2073657422
:101C200020646174652F74696D650A643F3C63725A
:101C30003E20746F207072696E74206375727265D5
:101C40006E7420646174652F74696D650A3F3C632E
:101C5000723E20666F7220746869732068656C70CC
:101C60000A00736563732E2052657475726E696E17
:101C70006720746F206E6F726D616C206C6F676788
:101C8000696E672E0020546F6F6B20746F6F206C2D
:101C90006F6E672C206E65656420746F20636F6DB6
:101CA000706C6574652077697468696E200073656F
:101CB00063732E2052657475726E696E6720746F3F
:101CC000206E6F726D616C206C6F6767696E672E36
:101CD00000204E6F206B6579626F617264206163D2
:101CE00074697669747920666F720073656373290D
:101CF0000020456E74657220636D643A203F3C435A
:101D0000523E20666F722068656C702E286E656585
:101D1000642061206B657920746F2062652074797E
:101D200070656420657665727920006D696E2C009F
:101D300040000A0A0000002100240027002A0000B9
:101D4000002200250028002B0000000000040308EA
:101D500007000000010200090A0000000000000066
:101D6000000000000000000000000020002300260A
:101D700000290070695364206572722064656C2FBD
:101D800072656E20002064656C657465640070691E
:101D900053642065727220636F756C646E277420C3
:101DA00072656E616D6520007069536420657272A2
:101DB00020636F756C646E27742064656C200072FC
:101DC000656E616D656420746F200050617273658B
:101DD000496E695364202000436F6D706C657465B3
:101DE000642E004572726F72206F6E206C696E6592
:101DF000203A003A2070617273696E672D2D2D2D87
:101E0000004552524F52004F4400544D00544D0073
:101E1000444500444C004950004354004754004797
:101E200054004150004552524F520D004F4B0D008F
:101E30007365727A5264656C5F4C696E653B204EC7
:101E40006F2066696C65002D2D2D6C6F6744617481
:101E500061416E6450756252656C6961626C792093
:101E600020436F6D706C6574652D2D2D2D2D2D2DDE
:101E70002D2D2D006C6F6744617461416E64507547
:101E80006252656C6961626C79202D2073746F7287
:101E9000652072656164696E67732C206E6F2070B7
:101EA0007562004661696C656420746F2077616BB0
:101EB000652000436F6E6E656374656420496E74BF
:101EC00065726E6574204661696C656400436C6F71
:101ED000636B2053796E63656400436F6E6E656358
:101EE00074656420496E7465726E657400436F6E2C
:101EF0006E656374696E6720746F2074686520492D
:101F00006E7465726E6574207769746800526561DD
:101F1000642073656E736F72732E2E2E00292D2D23
:101F20002D2D002D2D2D6C6F6744617461416E6401
:101F300050756252656C6961626C79202830780056
:101F40006C6F6744617461416E6450756252656C78
:101F50006961626C79202D2074782063616E6365FD
:101F60006C6C6564006C6F6744617461416E6450B1
:101F7000756252656C6961626C79202D20616C6CB0
:101F80002063616E63656C6C6564006C6F674461AF
:101F90007461416E6450756252656C6961626C79FE
:101FA000202D206F766572696465207769746820DA
:101FB000002C4D53472C00736551464620746774BE
:101FC0006F757446696C652E636C6F73653120653F
:101FD0007272007365514646207467746F7574465B
:101FE000696C652E72656E616D6520657272007335
:101FF00065514646207365727A5175656446696C11
:10200000652E636C6F736532206572720073655163
:1020100046462072656E616D65312065727200738F
:102020006551464620657272372072656D6F766520
:102030000073655146462072656D6F766532206586
:102040007272007365514646207467746F757446EA
:10205000696C6520777269746533206572720073EC
:1020600065514646207467746F757446696C6520C7
:1020700077726974653120657272007365514646E6
:10208000206F70656E32206572720073655146462E
:1020900020657272362072656D6F766500736551CA
:1020A00046462072656D6F766531206572720073E9
:1020B000655143462051756520666F72206E6578C4
:1020C00074207061737320756E73656E7420726511
:1020D000636F726473007365514346207365727A4F
:1020E0005175656446696C652E636C6F736532204B
:1020F000657272007365727A426567696E206572F7
:10210000722072656D6F766500646553524320726C
:10211000656D6F766520657272007365727A4265CF
:1021200067696E2065727220636C6F736500646509
:1021300053524320636C6F7365206572720064654F
:1021400052533B204E6F2066696C652000736572A8
:102150007A517565645374617274206F70656E2076
:10216000657272007075624451545220504F53543E
:102170005F4D41585F4E554D2072656163686564DF
:102180000070756244515452206E6F7420656E6FFA
:1021900075676820706F77657220617661696C6120
:1021A000626C65007365632E2051756575656420EA
:1021B00072656164696E67733D0072656164696E22
:1021C000677320696E0053656E74007075624451C8
:1021D0005452207365727A5175656446696C206546
:1021E0007272005D000A707562445154522053654A
:1021F0006E64696E67206461746120746F205B0097
:102200006C6F67504C4F20657272206F70656E69FD
:102210006E670027006465737A4C696E652072658D
:102220006164756E67207374617274206E6F7420C0
:10223000666F756E640027006465737A4C696E651D
:102240002045706F636820657272270027006465FF
:10225000737A4C696E652065706F63682073746172
:102260007274206E6F7420666F756E640027006450
:1022700065737A4C696E652053746174757320655B
:10228000727227002C002C002C504F53542C002C21
:1022900030580053644572726F723A2030580043D0
:1022A0006865636B20534420666F726D61742E0005
:1022B0006572726F723A20007365744654547A20C6
:1022C00065727220666F7220000404040404040422
:1022D00004020202020202020203030303030303D5
:1022E0000301010101010101010102040810204064
:1022F00080010204081020408001020408102040E0
:10230000800102040810204080008080805D5254CB
:102310004320416C61726D2073657420666F72207A
:102320006576657279206D696E7574652E205265CB
:102330006720636865636B20776173203078000ADB
:102340002E2E2E207A7A7A5A5A204177616B652098
:1023500040002920205A5A7A7A7A2E2E2E00476F72
:10236000696E6720746F20736C6565702E205261F2
:102370006D28004D4355206E6F7420456E61626C70
:1023800065642C5573652061206E6F6E2D6E6567D8
:1023900061746976652077616B652070696E207461
:1023A0006F207265717565737420736C656570213B
:1023B000005761746368646F672064697361626C5D
:1023C00065642E206261726B73556E74696C526520
:1023D000736574007365636F6E6473206F66204E5F
:1023E0004953542E00496E7465726E616C20436CC3
:1023F0006F636B2077697468696E2000496E74653D
:10240000726E616C20436C6F636B20736574200087
:102410004261642074696D657374616D702C206E07
:102420006F742073657474696E6720636C6F636B7F
:102430002E00666F720065787065637400455252B5
:102440004F5220696E6920706172616D20746F6FE8
:10245000206C6F6E672C20676F74000083B065A3DB
:1024600011241FBECFEFD0E4DEBFCDBF19E0A0E046
:10247000B1E0E2E4FDE801E00BBF02C007900D927D
:10248000A63EB107D9F721E2A6EEB9E001C01D9240
:10249000A43FB207E1F712E1CFE2D2E104C02197F5
:1024A000FE010E9437C3CE32D107C9F70E9494A320
:1024B0000C9494C60C940000DC0112969C91129727
:1024C00030E020E080E0291788F4ED91FC9111972D
:1024D000A901440F551FE40FF51F0190F081E02D75
:1024E000428141118F5F2F5F3F4FEDCF0895EF92F3
:1024F000FF920F931F93CF93DF93FC0106A17C0102
:10250000F8E2EF0EF11CEC0110E00117C9F0F70141
:1025100061917F01662389F070E090E080E00E9485
:1025200065C19B01AC016A817B818C819D810E9488
:10253000BDC36A837B838C839D831F5F2496E5CF15
:10254000DF91CF911F910F91FF90EF900895CF935E
:10255000DF93EC0190E08EA1981730F5E92FF0E0C1
:10256000EE0FFF1FEC0FFD1FE75BFF4FA081B18156
:102570001097C1F012968C911297811113C0199681
:10258000EC91199784E0E89FF0011124EC0FFD1FF6
:10259000428153816481758113964D935D936D9350
:1025A0007C9316979F5FD7CFDF91CF91089581E0FD
:1025B0000895FC0183A108956091000170910101CB
:1025C000072E000C880B990B0E9465C10895DC0151
:1025D0001E967C936E931D97ED91FC910484F58576
:1025E000E02D0994DC0113967C936E931297159657
:1025F0005C934E931497ED91FC910284F385E02D4A
:10260000B901099480912D18811107C080912E186D
:10261000811103C081E080932C180895089590E003
:1026200080E008951F93CF93DF93EC018AA19BA1D3
:10263000DC01ED91FC910284F385E02D0995182FC2
:102640008AA19BA1DC01ED91FC910284F385E02D30
:10265000099520E0382FC901812BDF91CF911F917F
:1026600008958EBD00000DB407FEFDCF8EB5089510
:10267000BF92CF92DF92EF92FF920F931F93CF936F
:10268000DF93DB01FC019F012F5F3F4F8081803290
:1026900009F49EC01496FC93EE9313979F01890151
:1026A0000E1B1F0B722F632FE90189919E01882356
:1026B00079F08F3209F08EC0CF01800F911F782FF3
:1026C000692FEC012991CE012032C9F32F32B9F3E1
:1026D000EA0178836983E801CE0FDF1F8E010E1BAC
:1026E0001F0BCE17DF0709F495C08A918E32B1F324
:1026F0008032A1F30F3F110511F00CF06DC012965E
:102700001C930E931197ED012696CD01419620E280
:1027100029938C179D07E1F7EF019E012E1B3F0BBC
:1027200089918E32D1F38032C1F381E021153105D8
:1027300009F080E0A80141505109EF01C00FD11FFD
:102740004F3F540709F069C0F12C67E0B12C70E0ED
:10275000D8E0ED2E201731070CF0ACC06F01C20E8F
:10276000D31EE6019881903209F483C09E3221F491
:102770002417350709F07DC0D92F9232E1F09C373C
:10278000D1F0C6EDDC2ED90EC5E0CD1510F09D328E
:1027900091F4C6ECDC2ED90EC5E0CD1560F4C5EA87
:1027A000DC2ED90EC2E0CD1530F4CFEDDC2ED90EE3
:1027B000CDE5CD15C8F52417350709F076C06A3088
:1027C00009F477C06AE098E0B92EC0E1EC2E52C05F
:1027D000F90159CF8C3559F480E0DF91CF911F91E9
:1027E0000F91FF90EF90DF90CF90BF900895982FBA
:1027F000977F923289F38A3379F3982F9F7B9C33AA
:1028000059F392EC980F923038F380528F3508F4D8
:1028100046CFE2CF10E000E072CF9A919E3209F4E9
:1028200093CF415051098CCF2417350741F26B15D6
:10283000F0F1CFE9DC2ED90EC9E1CD1508F19052A7
:10284000FE28DD24D394DB0CED01CB0DD11D9E833E
:10285000D6E0DD1518F01596DC921597BD2C0AC050
:102860004217530734F19A016AE0D8E0BD2E80E1A7
:10287000E82E80E02F5F3F4F6DCF80E09FE5DFE5E2
:10288000D154DA31F0F67E29DCCF81E08C931596B5
:102890006C911597A60FB11D8EE716968C9316971F
:1028A00081E317968C9381E098CF6B1530F76A30EF
:1028B000B9F680E016969C911697903209F48CCF69
:1028C000882319F37F2111F0D2E0FD2EFC9285CFF1
:1028D000FC019C01255F3F4F80E080FB879587F9D5
:1028E0009191890F2E173F07C1F708956091A21C9F
:1028F0007091A31C8091A41C9091A51C0895FC01CB
:10290000848583FF17C084A195A1A6A1B7A1448D9A
:10291000558D668D778D841B950BA60BB70B811596
:1029200020E89207A105B10520F08FEF9FE7A0E016
:10293000B0E0089580E090E0DC01F1CFDC01ED91A2
:10294000FC910688F789E02D099591E0811101C07D
:1029500090E0892F08958FEF9FEF0895CF93DF9335
:102960001F92CDB7DEB7DC01ED91FC910288F389AF
:10297000E02D41E050E0BE016F5F7F4F0995019768
:1029800031F4898190E00F90DF91CF9108958FEF1E
:102990009FEFF9CFDC011C96ED91FC918081918134
:1029A000DC01ED91FC910680F781E02D0994CF9335
:1029B000DF931F92CDB7DEB76983DC01ED91FC9107
:1029C0000280F381E02D41E050E0BE016F5F7F4F58
:1029D00009950F90DF91CF910895DC01ED91FC9165
:1029E0000688F789E02D099591E0811101C090E0FA
:1029F000892F08950F931F93CF93DF9300D000D0BA
:102A000000D0CDB7DEB78C01DC01ED91FC910084E4
:102A1000F185E02D0995892B11F51B821C821D8201
:102A20001E82D8011C96ED91FC91458556856785DF
:102A300070898B819C81AD81BE81481759076A07D7
:102A40007B0779F0F801858926960FB6F894DEBFEA
:102A50000FBECDBFDF91CF911F910F91089581E0FF
:102A6000F3CF80E0F1CFDC011C96ED91FC918081E9
:102A70009181DC01ED91FC910680F781E02D0994B4
:102A8000DC011C96ED91FC9180819181DC01ED913E
:102A9000FC910484F585E02D0994CF93DF931F9278
:102AA000CDB7DEB76983DC01ED91FC910280F38143
:102AB000E02D41E050E0BE016F5F7F4F09950F9020
:102AC000DF91CF9108950F931F93CF93DF9300D0A1
:102AD00000D000D0CDB7DEB7DC01ED91FC91048CC5
:102AE000F58DE02D29E834E03A832983DB01129645
:102AF0000D911D912D913C9115970B831C832D8376
:102B00003E8330E020E0BE016F5F7F4F099526963F
:102B10000FB6F894DEBF0FBECDBFDF91CF911F91EE
:102B20000F910895DC01ED91FC91028CF38DE02D65
:102B30002BE430E009948091870A8111FCCF08953D
:102B400080918B0A8F5F843408F080E090918A0A2C
:102B50009817E1F32FB7F8949091870A992359F0C9
:102B6000E82FF0E0EF5BF54F608380938B0A2FBF77
:102B700081E090E0089581E08093870A6093860A5F
:102B80001092850A82E086BB80916F0082608093FC
:102B90006F00809180008F7B80688093800080919F
:102BA00084009091850040969093890080938800DE
:102BB000DECF90E080E00895CF93DF93EC0162E0F8
:102BC00070E080E090E00E94198FFE01E95AFF4F0B
:102BD000C75ADF4F8081918128813981821B930BF5
:102BE00097FF02C0805C9F4FDF91CF910895CF93F4
:102BF000DF93EC0162E070E080E090E00E94198FCA
:102C0000EC85FD8580819181DC01ED91FC91028450
:102C1000F385E02DDF91CF910994CF93DF93EC0101
:102C200062E070E080E090E00E94198FEC85FD8505
:102C300080819181DC01ED91FC910084F185E02D92
:102C4000DF91CF9109940F931F93CF93DF93FC01F2
:102C5000E85BFF4F208126FF22C0EC010E94DA8F43
:102C6000FE01EC5BFF4F0081118122813381AB01BA
:102C7000BC01401B510B620B730BC05CDF4F81E04A
:102C8000088119812A813B81041715072607370718
:102C900008F080E0DF91CF911F910F91089581E0BE
:102CA000F9CF0F931F93CF93DF93FC01E85BFF4FA6
:102CB000208124FF1DC0EC010E94DA8F0CAD1DADF8
:102CC0002EAD3FADAB01BC01401B510B620B730B32
:102CD00081E008AD19AD2AAD3BAD041715072607F5
:102CE000370708F080E0DF91CF911F910F91089591
:102CF00081E0F9CF0F931F93CF93DF93FC01E85B43
:102D0000FF4F208122FF1DC0EC010E94DA8F0CA929
:102D10001DA92EA93FA9AB01BC01401B510B620BA1
:102D2000730B81E008A919A92AA93BA90417150763
:102D30002607370708F080E0DF91CF911F910F91B0
:102D4000089581E0F9CF0F931F93CF93DF93EC01A8
:102D50008C01085B1F4FF801808180FD07C0E8816E
:102D6000F9810284F385E02DCE010995F801908167
:102D7000892F80628083CC5BDF4F94FF10C00E945C
:102D8000DA8F688379838A839B83F80180818064EA
:102D9000808381E0DF91CF911F910F910895188278
:102DA00019821A821B829F7B9062908380E0F2CF0F
:102DB0000F931F93CF93DF93FC01EC01C85BDF4FB0
:102DC0009881892F8860888392FD0DC014AE15AE5E
:102DD00016AE17AE9F7E9860988380E0DF91CF910A
:102DE0001F910F9108958F010E94DA8FF80164AF4F
:102DF00075AF86AF97AF88818061888381E0EECF21
:102E00008F929F92AF92BF92FF920F931F93CF9397
:102E1000DF93CDB7DEB728970FB6F894DEBF0FBEAD
:102E2000CDBF8C0181EF98ED90930101809300015B
:102E30009A8389839C838B8383E68F838DE988873C
:102E40008FE097E29E838D830E94DA8F4B015C01B5
:102E5000D801ED91FC91008CF18DE02DAE014D5F1C
:102E60005F4FBE016F5F7F4FC8010995F82E8981C2
:102E70009A819093010180930001009719F0813F9E
:102E8000984DD1F46AEF70E080E090E00E94198FD5
:102E900089819A81009719F0813F984D69F40E94C9
:102EA000DA8F681979098A099B0968397A4381059B
:102EB000910510F4F110CCCFD801ED91FC91028C6A
:102EC000F38DE02D9E012B5F3F4FAE01485F5F4FBA
:102ED000BE01695F7F4FC8010995F822D801ED91C5
:102EE000FC91048CF58DE02DC80109958F2D289655
:102EF0000FB6F894DEBF0FBECDBFDF91CF911F910B
:102F00000F91FF90BF90AF909F908F9008958F92F8
:102F10009F92AF92BF92FF920F931F93CF93DF9335
:102F2000EC0181E08AA78AA19BA1ACA1BDA101E02F
:102F3000892B8A2B8B2B41F4E881F9810084F18560
:102F4000E02DCE01099500E0E881F98102A4F3A506
:102F5000E02DCE010995F82E882301F1E881F98151
:102F600000A4F1A5E02DCE010995182F811101C013
:102F70001AA6011133C0E881F9810684F785E02D96
:102F8000CE0109951823812FDF91CF911F910F91C9
:102F9000FF90BF90AF909F908F9008950E94DA8F1E
:102FA0008AA09BA0ACA0BDA0681979098A099B09D9
:102FB000898C9A8CAB8CBC8C681579058A059B052D
:102FC00068F3E881F9810680F781E02DCE0109954B
:102FD000182F8111C3CF011103C0CDCFF110D3CF72
:102FE000E881F9810484F585E02DCACFCF92DF9284
:102FF000EF92FF920F931F93CF93DF93EC016B013E
:103000007A010C811D816DEC74E0888199810E94A8
:103010003777B601888199810E94AA77B7018881A4
:1030200099810E943777B801888199810E9437770A
:1030300088819981DC01ED91FC910680F781E02D7A
:10304000099562E070E080E090E0DF91CF911F9100
:103050000F91FF90EF90DF90CF900C94198FFC01AF
:10306000838587FD05C0648591E069270E940D89ED
:1030700081E00895FC01838587FD03C064850E947B
:103080000D8981E00895CF93DF93EC018BA187FD3B
:1030900017C060E00E940D891CAA1DAA1EAA1FAAC3
:1030A0001CAE1DAE1EAE1FAEFE01EC5BFF4F1082CC
:1030B000118212821382C85BDF4F888181788883F6
:1030C000DF91CF910895CF93DF93EC018D8187FD40
:1030D00013C06E810E940D896F81788589859A85DC
:1030E0000E94198F6E8181E068278D810E940D8971
:1030F00081E0DF91CF91089580E0FBCF1F93CF93C4
:10310000DF93EC01E881F98102A4F3A5E02D099594
:1031100011E0882371F0E881F98104A0F5A1E02D88
:10312000CE010995182F89A187FD03C060E00E9498
:103130000D89812FDF91CF911F910895CF93DF9358
:10314000EC018A8187FD07C060E00E940D891AA208
:103150001BA21CA21DA2DF91CF910895CF93DF93F4
:10316000EC019A818B819CBD8DBD60E08A850E94B7
:103170000D8981E08C87DF91CF910895CF93DF9304
:10318000FC012485222349F0EC0161E082850E9444
:103190000D898FEF0E9431131C86DF91CF91089526
:1031A000CF92DF92EF92FF920F931F93CF93DF9313
:1031B000EC010E94DA8F6B017C01E881F9810484C3
:1031C000F585E02DCE0109958A8187FD24C08B818C
:1031D00087FD2BC00E94DA8F6C197D098E099F092B
:1031E0000D891E892F89388D601771078207930713
:1031F00038F48B810E944A882C812817190651F3D4
:103200008B810E944A8860E08A810E940D891AA2FF
:103210001BA21CA21DA281E0DF91CF911F910F91F3
:10322000FF90EF90DF90CF9008958D899E89AF89B0
:10323000B88D892B8A2B8B2B31F30E94DA8F6C1976
:103240007D098E099F090D891E892F89388D601788
:1032500071078207930788F3D6CF85E10E944A88D9
:10326000892B19F081E080932C140895BC018FE81C
:1032700097E10E94AA7760ED74E08FE897E10E94E1
:10328000377765ED74E08FE897E10C94BE75CF93C6
:10329000DF93EC018BA187FD03C061E00E94478EA4
:1032A0008AA187FD03C060E00E94478EC85BDF4FA4
:1032B00088818160888381E0DF91CF910895CF93E9
:1032C000DF93EC018BA187FD0EC061E00E94478E69
:1032D00061E08BA10E940D890E94DA8F6CAB7DABFF
:1032E0008EAB9FAB08C08CA99DA9AEA9BFA9892BA5
:1032F0008A2B8B2B89F3C85BDF4F8881866088839C
:10330000DF91CF910895CF93DF93FC0123A5211185
:103310002BC0EC01838187FD03C060E00E94478ED3
:103320008B8587FD09C061E00E94478E6C8581E036
:1033300068278B850E940D898D8187FD09C061E01A
:103340000E94478E6E8181E068278D810E940D89E1
:1033500089A187FD07C061E00E94478E60E089A1D6
:103360000E940D8981E08BA7DF91CF910895CF93C3
:10337000DF93EC018A8187FD17C08B8587FD05C02F
:103380006C8591E069270E940D8961E08A810E9425
:10339000478E61E08A810E940D890E94DA8F6AA3BC
:1033A0007BA38CA39DA308C08AA19BA1ACA1BDA1B6
:1033B000892B8A2B8B2B89F3DF91CF910895BF92B4
:1033C000CF92DF92EF92FF920F931F93CF93DF93F1
:1033D0006B018C01F12CE12CB02ED12FF801C191A1
:1033E0008F01CC23F1F0C114D10449F06C2F0C2EC5
:1033F000000C770BC6010E9432C6892B91F4EF288E
:1034000051F06C2F0C2E000C770B81EE94E00E9493
:1034100032C6892B31F48C2F90E00E9407BD7C01CD
:10342000DBCF8B2D9D2FDF91CF911F910F91FF90BF
:10343000EF90DF90CF90BF9008950F931F93CF939D
:10344000DF938C01EC0109900020E9F721970C171C
:103450001D0740F48A9190E00E9407BD892B11F06E
:103460001882F5CFC801DF91CF911F910F91089578
:103470002F923F924F925F926F927F928F929F9284
:10348000AF92BF92CF92DF92EF92FF920F931F9372
:10349000CF93DF93CDB7DEB7CA5CD1090FB6F894EE
:1034A000DEBF0FBECDBF2B01FE01EB59FF4F1192C6
:1034B000119220E3DF01322F1D923A95E9F7FE01C8
:1034C000E956FF4F11921192DF011D922A95E9F7FB
:1034D000D12CC12CB12CA12C8B579D4F3C01FE014E
:1034E00031967F01CE010496C753DF4F99838883BD
:1034F000C95CD040B701C3010E948C87892B09F4B5
:10350000BCC09FEFA91AB90AA1E0AA16B10409F03C
:103510004FC089818F3E09F04BC08A818B3B09F0F7
:1035200047C08B818F3B09F043C0C753DF4F888171
:10353000C95CD040C653DF4F9881CA5CD0400E941E
:103540001D1A8C014801F80131908F01332031F0B0
:10355000832D90E00E9407BD892BA1F7632D032CDA
:10356000000C770B83EE94E00E9432C6892B11F693
:10357000C956DF4F8881C759D0408823D9F03320FE
:1035800009F4B8CFE814F90408F073C0A401BE012F
:1035900069567F4FCE018B599F4FF2010995892BB8
:1035A00009F0A8CFC114D10409F0A4CF6501A2CFBE
:1035B000C701C5CFFBE53F1220C03FEF831A930A36
:1035C00066EE74E0C4010E94DF19DC012C912D35F8
:1035D00049F71C9241E350E0B401CE018B599F4F53
:1035E0000E946BC6CA56DF4F1882C659D040C956D2
:1035F000DF4F1882C759D0407DCF332009F47ACFEE
:1036000068EE74E0C4010E94DF19FC0120812D33B3
:1036100011F02A3339F6DC011D928D01C4010E949C
:103620001D1A4C0170E060E0C8010E94DF19FC0126
:103630002081211110821801D8018D918D018823DC
:1036400029F090E00E9407BD892BA9F7C1010E94D3
:103650001D1A41E350E0B401CE0189569F4F0E94EC
:103660006BC6C853DF4F1882C85CD040A101B401BB
:1036700091CFFBE53F12C4CFA0CF8C2DC653DF4FB7
:103680000FB6F894DEBF0FBECDBFDF91CF911F9173
:103690000F91FF90EF90DF90CF90BF90AF909F90F1
:1036A0008F907F906F905F904F903F902F900895F4
:1036B000CF93DF93EB01BC018FE897E10E94AA77DB
:1036C00060E28FE897E10E94F675BE018FE897E10E
:1036D000DF91CF910C940B86CF92DF92EF92FF9205
:1036E000CF93DF93C090A21CD090A31CE090A41CA9
:1036F000F090A51CC0925420D0925520E092562004
:10370000F09257208130910509F468C0029709F4BE
:1037100070C020E030E040E05FE3C701B6010E94E6
:103720005EC187FF08C084E090E09093370A8093E1
:10373000360A81E046C0809158209091592024E1BA
:10374000289FE001299FD00D1124CC5ADF4D2A89F2
:103750003B894C895D89C701B6010E9465C487FF1A
:10376000E2CF2E853F8548895989C701B6010E945D
:1037700065C487FF30C02A853B854C855D85C701C0
:10378000B6010E9465C487FF23C02E813F81488512
:103790005985C701B6010E9465C487FF0CC010920D
:1037A000370A1092360A70E060E086ED98E00E94D9
:1037B000581B80E006C081E090E09093370A809328
:1037C000360ADF91CF91FF90EF90DF90CF90089570
:1037D00082E090E0AACF83E090E0A7CF6091360A24
:1037E0007091370A88E299E0633071050CF0A1CF3F
:1037F000DECF6091360A7091370A643071050CF0A3
:1038000098CF8EEF98E0D3CFCF93DF93EC0168850C
:1038100085ED99E00E94157D8885DF91CF9108950F
:10382000FC01808181110FC080E2DF01982F1D9281
:103830009A95E9F777836683DB0115969C91903121
:1038400029F0903211F080E0089580E4808381E0D7
:10385000828308952F923F924F925F926F927F9250
:103860008F929F92AF92BF92CF92DF92EF92FF9290
:103870000F931F93CF93DF93CDB7DEB72C970FB67F
:10388000F894DEBF0FBECDBF5C011B015E834D838C
:1038900062E070E080E090E00E94198F0E94DA8F71
:1038A0002B013C01F12CE12C9501295A3F4F38871F
:1038B0002F83C501875A9F4F9C838B83F501779691
:1038C000FA87E9872D813E81E216F30608F082C06F
:1038D0000E94DA8F6419750986099709F501048138
:1038E000158126813781601771078207930708F0D9
:1038F00071C0EF81F8850190F081E02DFA83E983B2
:10390000EB81FC818081918129813A81281B390BCF
:103910003A83298337FF04C0205C3F4F3A832983D1
:1039200089819A819C878B878D819E818E199F09C1
:10393000EB85FC85E817F90708F446C09C878B8760
:10394000CB84DC843A822982EB81FC818080918067
:10395000EF81F885808191818819990997FF02C0CC
:10396000805C9F4F009749F100E410E008191909A5
:10397000C016D1060CF48601801791070CF48C0157
:1039800069857A85680D791DA80189819A810E94CF
:1039900005C6800E911EFFE38F229924EB81FC81E6
:1039A00091828082C01AD10A29813A81200F311F69
:1039B0003A832983C114D10439F68B859C85280E5E
:1039C000391EE80EF91E7ECF2B853C85232B09F48A
:1039D00079CFB6CFC7012C960FB6F894DEBF0FBED5
:1039E000CDBFDF91CF911F910F91FF90EF90DF90AE
:1039F000CF90BF90AF909F908F907F906F905F908F
:103A00004F903F902F900895EF92FF920F931F9346
:103A1000CF93DF931F92CDB7DEB77C01962FF701CE
:103A200040895189628973898A019B0185E03695B5
:103A30002795179507958A95D1F70F7011F0911179
:103A400029C0BE016F5F7F4FC7010E94628681302F
:103A500051F090E080E00F90DF91CF911F910F9196
:103A6000FF90EF900895F70180899189A289B38929
:103A70004F96A11DB11D808B918BA28BB38BF7014B
:103A8000868197818B96F0E20F9F90011124820F1F
:103A9000931FE1CF405E5F4F6F4F7F4F408B518B45
:103AA000628B738BECCF8F929F92AF92BF92CF922B
:103AB000DF92EF92FF920F931F93CF93DF931F92AA
:103AC000CDB7DEB78C01FC01848C958CA68CB78CAD
:103AD000C08CD18CE28CF38CBE016F5F7F4F0C9653
:103AE0000E9462860197C9F4898190E0F801848E72
:103AF000958EA68EB78EC08ED18EE28EF38E0F90ED
:103B0000DF91CF911F910F91FF90EF90DF90CF90B9
:103B1000BF90AF909F908F9008958FEF9FEFE6CF6B
:103B2000CF93DF931F92CDB7DEB7BE016F5F7F4F9C
:103B30000C960E946286019731F4898190E00F9083
:103B4000DF91CF9108958FEF9FEFF9CFCF93DF9360
:103B5000EC01E881F9810084F185E02D0995892B3C
:103B600031F48C859D85DF91CF910C94859381E014
:103B7000DF91CF910895EF92FF920F931F93CF9310
:103B8000DF93EC018B017A0162E070E080E090E06D
:103B90000E94198FA701B8018C859D85DF91CF9177
:103BA0001F910F91FF90EF900C943D95EF92FF9233
:103BB0000F931F93CF93DF93EC018B017A0162E0A7
:103BC00070E080E090E00E94198FA701B8018C8519
:103BD0009D85DF91CF911F910F91FF90EF900C94F5
:103BE0003D95AF92BF92CF92DF92EF92FF920F93EB
:103BF0001F93CF93DF93EC017B018A0162E070E0B9
:103C000080E090E00E94198FEC85FD85A080B18056
:103C10000E0D1F1DE7016E01CE18DF08C017D1077A
:103C200039F0C5010E94BC7297FD02C08993F3CFA1
:103C3000C601DF91CF911F910F91FF90EF90DF9020
:103C4000CF90BF90AF900895CF92DF92EF92FF9206
:103C50000F931F93CF93DF9300D000D000D0CDB748
:103C6000DEB78C016B017A01FC01848595850E9489
:103C7000DE7DF80184859585268549E854E05A83E0
:103C80004983F60142815381648175814B835C8352
:103C90006D837E83A701BE016F5F7F4F0E9484A169
:103CA000F801858B90E026960FB6F894DEBF0FBE24
:103CB000CDBFDF91CF911F910F91FF90EF90DF90DB
:103CC000CF900895BC018FE897E10E94058660EDD2
:103CD00074E08FE897E10E94377765ED74E08FE834
:103CE00097E10C94BE75CF92DF92EF92FF920F9303
:103CF0001F93CF93DF93A895FC01C080D180E28011
:103D0000F38033E0F694E794D794C7943A95D1F7CB
:103D100020918A1730918B172C153D0509F43FC06F
:103D2000EC0100918A1710918B1760E470E18FE825
:103D300097E10E94AA7760E28FE897E10E94F6750A
:103D4000B8018FE897E10E94058660E28FE897E16D
:103D50000E94F67566E370E18FE897E10E94AA770A
:103D600060E28FE897E10E94F6752AE0B701A601AC
:103D70008FE897E10E946E758FE897E10E94BA750F
:103D800088819981AA81BB8123E0B695A7959795F3
:103D900087952A95D1F790938B1780938A17DF9197
:103DA000CF911F910F91FF90EF90DF90CF900895EA
:103DB000CF93DF93DC01F89414BEE0E6F0E090814D
:103DC0009861908381E6808378948D919D910D9088
:103DD000BC91A02D23E0B695A795979587952A9538
:103DE000D1F790938B1780938A17C0918A17D0913F
:103DF0008B1760E170E18FE897E10E94AA7760E29B
:103E00008FE897E10E94F675BE018FE897E10E9466
:103E1000058660E28FE897E10E94F67580EF9FE0EB
:103E2000DF91CF910C943619CF92DF92EF92FF92EF
:103E3000CF93DF936A017B01FC01C082D182E282D1
:103E4000F382DB01CA0123E0B695A7959795879584
:103E50002A95D1F790938B1780938A17C0918A1770
:103E6000D0918B1763ED7FE08FE897E10E94AA77EE
:103E700060E28FE897E10E94F6752AE030E0B70132
:103E8000A6018FE897E10E94D57560E28FE897E17F
:103E90000E94F67565EB7FE08FE897E10E94AA77B4
:103EA00060E28FE897E10E94F675BE018FE897E126
:103EB0000E94058660E28FE897E10E94F6758DE921
:103EC0009FE0DF91CF91FF90EF90DF90CF900C9427
:103ED0003619CF93DF93EC01E881F981028CF38DE1
:103EE000E02D60E0CE0109958823B1F3DF91CF91F9
:103EF0000895EF92FF920F931F93CF93DF93EC01FE
:103F00000E940190F82E811107C0E881F981068492
:103F1000F785E02DCE010995FE01E85BFF4F80811A
:103F2000982F9870E92E83FF13C09EA1DE01129690
:103F3000FE01B89680E040E05CE36CE176EC981717
:103F4000E1F04D935D936D937D9311928F5FF7CF69
:103F5000CE010E94691FE881F9810288F389E02D72
:103F6000CE010995182F8111E0CF812FDF91CF91DC
:103F70001F910F91FF90EF900895E881F981048CD3
:103F8000F58DE02D60E0CE010995182F8823A9F367
:103F900000E08FA10817D0F4E881F9810688F7893D
:103FA000E02DCE010995E881F981068CF78DE02D91
:103FB00060E0CE0109958823B1F3E881F981008C96
:103FC000F18DE02DCE0109950F5FE3CFCE010E9468
:103FD0007712EE2039F0E881F9810488F589E02D27
:103FE000CE010995F11007C0E881F9810088F189B7
:103FF000E02DCE010995CE010E94A712B6CF4F92B7
:104000005F926F927F928F929F92AF92BF92EF9248
:10401000FF920F931F93CF93DF938C0149015A01B5
:10402000C62FD0E07E01EE0CFF1CEE0CFF1CE00E54
:10403000F11EF701428053806480758020E03CE3EC
:104040004CE156ECC301B2010E945EC120E03CE3AA
:104050004CE156EC81111FC0C501B4010E945EC144
:10406000882351F0F70182829382A482B582C00F27
:10407000D11F88A58F5F88A7DF91CF911F910F91E6
:10408000FF90EF90BF90AF909F908F907F906F9038
:104090005F904F900895C501B4010E945EC18823CE
:1040A00059F3A5019401C301B2010E9451C3F70164
:1040B0006283738384839583DACFCF93C62FBC0149
:1040C0008FE897E10E94AA7760E28FE897E10E946B
:1040D000F6754AE050E06C2F8FE897E1CF910C9491
:1040E000E475BC018FE897E10C94BE75CF93DF9324
:1040F000EC01FB01828193819B838A8385EC93E0B1
:104100009983888384819581A681B7818C839D83DF
:10411000AE83BF8380859185A285B3858887998783
:10412000AA87BB8780E23C96DE011C9601900D9227
:104130008A95E1F787E292E099838883DF91CF91B6
:104140000895CF93DF93EC01DB011D96ED91FC9177
:1041500050E0440F551F80819181480F591FFA018B
:1041600060817181CE010E94D59ECE01DF91CF91F9
:104170000895FC01818587FD03C060E00C940D89E2
:104180000895FC01818587FD03C061E00C940D89D1
:1041900008951F93CF93DF93EC018F8187FD13C0A8
:1041A000162F61E00E94478E60E08F810E940D898A
:1041B000112349F068EE73E080E090E0DF91CF9149
:1041C0001F910C94198FDF91CF911F910895FC01DD
:1041D0001382128288EE93E0A0E0B0E0848395839E
:1041E000A683B78314861586168687E292E09183AC
:1041F000808308950F931F93CF93DF93EC01062FD5
:10420000142F8CA10E9458868AA19BA1DC01ED91FC
:10421000FC910190F081E02D602F09958AA19BA16E
:10422000DC01ED91FC910190F081E02D612F099569
:104230008AA19BA1DF91CF911F910F910C944C8B80
:10424000EF92FF920F931F93CF93DF938C01EB01BB
:10425000FC01608170E06053784FCE010E949E6E39
:104260006DE2CE010E94276FF801E180F12CFAE0A7
:10427000EF16F10420F460E3CE010E94276FB7012E
:10428000CE010E949E6E6DE2CE010E94276FF80162
:10429000E280F12CFAE0EF16F10420F460E3CE01A5
:1042A0000E94276FB701CE010E949E6E60E2CE0190
:1042B0000E94276FF801E380F12CFAE0EF16F10479
:1042C00020F460E3CE010E94276FB701CE010E9467
:1042D0009E6E6AE3CE010E94276FF801E480F12C04
:1042E000FAE0EF16F10420F460E3CE010E94276F9C
:1042F000B701CE010E949E6E6AE3CE010E94276F35
:10430000F801058110E00A30110520F460E3CE01C8
:104310000E94276FB801CE01DF91CF911F910F91BD
:10432000FF90EF900C949E6EEF92FF920F931F936D
:10433000CF93DF93EC0169813881432F50E02A81CC
:10434000822F90E0E4ECF9E021E0261730F474913C
:10435000870F911D2F5F3196F8CF633018F03370BF
:1043600009F401966DE671E0469F9001479F300D7C
:10437000569F300D1124215031094D5F5F4F5695E6
:10438000479556954795240F351F280F391FA8E1EB
:10439000B0E00E94D5C22B817B018C01E20EF11CA2
:1043A000011D111DA8019701ACE3B0E00E94CAC233
:1043B0002C817B018C01E20EF11C011D111DA80155
:1043C00097010E94CAC22D81620F711D811D911D2E
:1043D000DF91CF911F910F91FF90EF9008952F9251
:1043E0003F924F925F926F927F928F929F92AF9285
:1043F000BF92CF92DF92EF92FF920F931F93CF93D2
:10440000DF9300D000D000D01F92CDB7DEB70E945E
:104410008E8D29833A834B835C836D837E838F8368
:10442000CE0101960E94942160587C4B8249974CA2
:104430001B012C0160918C1720E13EE06203A0017A
:10444000639F500D1124952F990F990B9A01492FB5
:10445000592F692F792F892F51016201E12CF12CFD
:1044600000E010E00E9447C3B901CA0127960FB6C9
:10447000F894DEBF0FBECDBFDF91CF911F910F919A
:10448000FF90EF90DF90CF90BF90AF909F908F9074
:104490007F906F905F904F903F902F9008958F92F4
:1044A0009F92AF92BF92CF92DF92EF92FF920F93C3
:1044B0001F93CF93DF93EC016A017B012CE3822EE3
:1044C000912CA12CB12CCB01BA01A50194010E9421
:1044D00018C36D83CA01B901A50194010E9418C3D4
:1044E0006C83C701B60120E13EE040E050E00E944D
:1044F00018C3CA01B90128E130E040E050E00E9451
:1045000018C36B83C701B60120E831E541E050E0F4
:104510000E9418C318829881692F637041E050E0AF
:1045200011F050E040E0FA01E459FE4FE217F307C2
:1045300044F443595E4F241B350BE1E0E90FE88357
:10454000EACF81E089838981E82EF12CF701ED53D0
:10455000F64FE491611103C0823009F4EF5FF0E09F
:104560002E173F0724F02E1B3F0B8F5FEBCF2F5FE3
:104570002A83E92FF0E0E053F84F41E050E0833028
:1045800010F050E040E0E41BF50B8F011595079506
:10459000159507950E0F1F1FCF016CE97FEF0E9445
:1045A00004C3060F171FCF0160E971E00E9404C326
:1045B000060F171FF701EE0FFF1FE75FFE4F808109
:1045C0009181800F911F820F911D67E070E00E9422
:1045D00004C38F5F8E83DF91CF911F910F91FF9066
:1045E000EF90DF90CF90BF90AF909F908F90089505
:1045F000DC01ED91FC910190F081E02D09948F9206
:104600009F92AF92BF92FF920F931F93CF93DF932E
:10461000EC018CA10E94588662E070E08AA19BA107
:104620000E94F8228AA19BA10E944C8BF82E811136
:104630008CC06CA1062E000C770B4AE050E08AA1DA
:104640009BA10E94B88C81E08883CE010E94121346
:104650008C019A8389836D8D7E8D90E080E00E942D
:1046600063C19B01AC0166E676E686ED90E40E94AC
:10467000BDC34B015C01B801110F880B990B0E945F
:1046800065C19B01AC01C501B4010E94C4C16B832B
:104690007C838D839E83CE010E94121398878F8323
:1046A000CE010E9412138C011F73011520E2120724
:1046B0000CF010546D8D7E8D90E080E00E9463C1FF
:1046C0009B01AC016CEE71E58CE391E40E94BDC3EB
:1046D0004B015C01B801110F880B990B0E9465C159
:1046E0009B01AC01C501B4010E94C4C169877A87EE
:1046F0008B879C87CE010E941213BC0190E080E062
:104700000E9463C128E638EE4FE15BE30E94C4C11A
:104710006D877E878F87988BCE010E9412139F70C2
:10472000811528E092070CF09051BC01990F880B7D
:10473000990B0E9465C120E030E040E05EE30E94FA
:10474000C4C1698B7A8B8B8B9C8B8F2DDF91CF9122
:104750001F910F91FF90BF90AF909F908F90089501
:10476000CF92DF92EF92FF920F931F93CF93DF933D
:10477000EC018C010B5E1F4F8CA10E94588668E1F2
:1047800070E08AA19BA10E94F8228AA19BA10E94AD
:104790004C8B6CA1062E000C770B48E050E08AA1F0
:1047A0009BA10E94B88C78016E018DE1C80ED11CCE
:1047B0008AA19BA1DC01ED91FC910284F385E02D9F
:1047C0000995F70181937F01EC15FD0589F79E019D
:1047D000245E3F4FE0E00217130748F4D8018D91A3
:1047E0008D01E827F0E0ED5DFE4FE081F4CF8C8D88
:1047F0008E131BC081E089A343E061E0CE010E94DB
:10480000FA2088A1811180E14F8D440F482B60E090
:10481000CE010E94FA2081E0DF91CF911F910F918C
:10482000FF90EF90DF90CF90089580E0F5CF8FEF6D
:104830000C9431130F931F93CF93DF938C01862F2A
:10484000EA010E943113FE0181918EBDDE5FEC17FB
:10485000FD0741F081910DB407FEFDCF8EBD000034
:104860000000F5CF0DB407FEFDCF8FEF0E9431138E
:104870008FEF0E9431130E941724F80185878F71F2
:10488000853059F080E28387C8010E94BE1880E01D
:10489000DF91CF911F910F91089581E0F9CFDF92C1
:1048A000EF92FF920F931F93CF93DF93EC01162F9C
:1048B000022FF32EE42ED52E888581112DC08C85F4
:1048C000811103C0CE010E94AE18112321F08CE2A9
:1048D00091E00E94E68F812F80640E9431138D2D1C
:1048E0000E9431138E2D0E9431138F2D0E9431139F
:1048F000802F0E94311387E8111101C085E90E94C1
:1049000031130E9417241BE00E9417248D8787FF14
:1049100009C01150C9F706C0CE010E949A24811126
:10492000CECF8FEFDF91CF911F910F91FF90EF903E
:10493000DF9008951F93CF93DF93EC01888518864D
:104940008230A9F488E592E00E94E68F182F882330
:1049500059F08DEF0E943113CE010E94BE18812FB5
:10496000DF91CF911F9108958EE18B87F5CF813034
:1049700099F420E030E0A9016CE0CE010E944F24C0
:10498000882339F089E08B87CE010E94BE1810E0A1
:10499000E6CFCE010E94BE1811E0E1CF8F929F9228
:1049A000AF92BF92CF92DF92EF92FF920F931F933D
:1049B000CF93DF93EC014A015B0169018885823066
:1049C00049F48C819D81AE81BF8188159905AA0526
:1049D000BB05C1F08E85A5019401833039F089E0D3
:1049E000220F331F441F551F8A95D1F769E1CE016D
:1049F0000E944F24811113C08C829D82AE82BF829F
:104A000082E08887F12CE12CE016F10659F188E567
:104A100092E00E94E68F811118C084E201C08EE00E
:104A20008B87CE010E94BE18CE010E94BE1880E086
:104A3000DF91CF911F910F91FF90EF90DF90CF907A
:104A4000BF90AF909F908F900895A6016CEFCE011C
:104A50000E941A24882329F38FEFE81AF80A8EEFB0
:104A6000D81AD2CF8C819D81AE81BF818E0D9F1DC2
:104A7000A11DB11D8C839D83AE83BF83898588234F
:104A800079F0CE01DF91CF911F910F91FF90EF90C0
:104A9000DF90CF90BF90AF909F908F900C949A240E
:104AA00081E0C6CFEF92FF920F931F93CF93DF93D6
:104AB000EC0179018985882361F18E85833039F095
:104AC00089E0440F551F661F771F8A95D1F79A0119
:104AD000AB0168E1CE010E944F24882339F08DE0BC
:104AE0008B87CE010E94BE1810E00BC0A7016EEFAD
:104AF000CE010E941A24182F882399F3CE010E9418
:104B0000BE18812FDF91CF911F910F91FF90EF90F1
:104B1000089501E010E0CE010E94CE24182FF1CFBD
:104B2000EF92FF921F93CF93DF93FC01208111E05E
:104B300020FF12C0EC017C01FBE0EF0EF11C4F8165
:104B4000588569857A85970189819A810E945225C5
:104B5000182F811108C010E0812FDF91CF911F9194
:104B6000FF90EF900895888181FD04C088818E7F39
:104B70008883F2CF4F81588569857A858B819C81A6
:104B8000AD81BE81480F591F6A1F7B1F9701898124
:104B90009A810E9452258111E9CFDDCF8F929F9299
:104BA000AF92BF92CF92DF92EF92FF920F931F933B
:104BB000CF93DF93EC014A015B0179018885813055
:104BC00049F48C819D81AE81BF8188159905AA0524
:104BD000BB05C1F08E85A5019401833039F089E0D1
:104BE000220F331F441F551F8A95D1F762E1CE0172
:104BF0000E944F24811123C08C829D82AE82BF828D
:104C000081E0888781E0E81A8EEFF80AD12CC12C68
:104C100099249A94C016D10609F449C00E94DA8FEB
:104C20005B010E9417248D878F3FE1F40E94DA8F89
:104C30006A197B096D327140A0F38DE101C08CE0EF
:104C40008B87CE010E94BE1880E0DF91CF911F912B
:104C50000F91FF90EF90DF90CF90BF90AF909F901B
:104C60008F9008958E3F11F088E1EACF9EBCF70146
:104C7000EF5FF140EE16FF0649F00DB407FEFDCFE1
:104C80008EB59EBC819300000000F4CF0DB407FEEA
:104C9000FDCF8EB5F70180831D860E9417240E94E8
:104CA0001724FFEFCF1ADF0A8EEFF81AB3CF8C81EB
:104CB0009D81AE81BF818C0D9D1DA11DB11D8C8379
:104CC0009D83AE83BF838985882379F0CE01DF91F0
:104CD000CF911F910F91FF90EF90DF90CF90BF90F9
:104CE000AF909F908F900C949A2481E0AECF8F92DA
:104CF0009F92AF92BF92FF920F931F93CF93DF9338
:104D0000DC011196ED91FC91EF2B61F490E080E0D5
:104D1000DF91CF911F910F91FF90BF90AF909F9027
:104D20008F900895F22E4A015B01EC018F819885E6
:104D3000A985BA8588159905AA05BB0561F0CE013C
:104D40000E949025882311F3F2FE0DC018828F82F5
:104D50009886A986BA862F2D2370F880F22AF882C9
:104D6000CE010B96D5CF01E010E09E01255F3F4FAD
:104D7000B501A40189819A810E94CE258111E6CFD7
:104D8000C5CF8F929F92AF92BF92CF92DF92EF9258
:104D9000FF920F931F93423051056105710560F436
:104DA00080E01F910F91FF90EF90DF90CF90BF9028
:104DB000AF909F908F900895FC01C08CD18CE28CB5
:104DC000F38CC416D506E606F70650F348015901E0
:104DD0006A017B018581803241F584899589A689A4
:104DE000B78917E076956795579547951A95D1F746
:104DF000480F591F6A1F7B1F23E0CF0180960E9436
:104E00007726009769F2E894C7F8DD24EE24FF24A2
:104E1000CC0CDD1CCC0CDD1C8C0D9D1DFC0180829E
:104E20009182A282B38281E0BCCF803109F0B8CFF9
:104E300044895589668977894D0D511D611D711D04
:104E400023E0CF0180960E947726009709F4A8CF2F
:104E5000DD24EE24FF24CC0CDD1CC80ED91EF60187
:104E600011830083E0CFCF92DF92EF92FF920F93F6
:104E70001F93CF93DF93423051056105710550F4C4
:104E80008FEFDF91CF911F910F91FF90EF90DF9007
:104E9000CF900895FC01C08CD18CE28CF38CC416A9
:104EA000D506E606F70660F389016A017B01EC018D
:104EB00085818032B1F584899589A689B789E7E033
:104EC0007695679557954795EA95D1F7480F591FFD
:104ED0006A1F7B1F22E0CE0180960E9477260097F2
:104EE00079F2E894C7F8DD24EE24FF24CC0CDD1C15
:104EF000CC0CDD1C8C0D9D1DFC0180819181A2815B
:104F0000B381488D598D6A8D7B8D481759076A0783
:104F10007B0738F1F80180839183A283B38381E01A
:104F2000B0CF803109F0ACCF448955896689778943
:104F30004D0D511D611D711D22E0CF0180960E9413
:104F40007726009709F49CCFDD24EE24FF24CC0CB7
:104F5000DD1CC80ED91EF60180819181B0E0A0E071
:104F6000D0CF80E08ECF9F92AF92BF92CF92DF9250
:104F7000EF92FF920F931F93CF93DF9300D000D057
:104F8000CDB7DEB75C016A017B019E012F5F3F4F09
:104F9000B701A601C5010E943327982E87FD34C0B2
:104FA00000E010E09801B701A601C5010E94C126EA
:104FB000882351F1F5014085518562857385C416BA
:104FC000D506E606F70650F4F1E0CF1AD108E1085D
:104FD000F108F501C086D186E286F386C980DA80C1
:104FE000EB80FC809110D1CF0F900F900F900F901D
:104FF000DF91CF911F910F91FF90EF90DF90CF90B5
:10500000BF90AF909F90089580E0EECF4F925F9257
:105010006F927F928F929F92AF92BF92CF92DF92C8
:10502000EF92FF920F931F93CF93DF93EC014A010E
:105030005B014C845D846E847F842881222309F483
:105040005CC0488959896A897B89481559056A0570
:105050007B0581F081149104A104B10469F41C86DC
:105060001D861E861F86888A998AAA8ABB8A8A819B
:105070008F7D8A8381E046C023FF2CC0888D998D67
:10508000AA8DBB8D88159905AA05BB05B0F1EE81E7
:10509000FF813481375F7501640181E0C81AD1084E
:1050A000E108F108032E04C0F694E794D794C7945E
:1050B0000A94D2F78A8186FF36C08C8D9D8DAE8D85
:1050C000BF8D8C0D9D1DAE1DBF1D8C879D87AE872E
:1050D000BF87C9CF25FFDBCFEE81FF818681978116
:1050E00025E0880F991F2A95E1F7B0E0A0E0881528
:1050F0009905AA05BB0508F0B6CF4C865D866E867D
:105100007F8680E0DF91CF911F910F91FF90EF900C
:10511000DF90CF90BF90AF909F908F907F906F90D7
:105120005F904F900895DB01CA010197A109B10971
:1051300004C0B695A795979587953A95D2F7C81666
:10514000D906EA06FB0620F0452B462B472B49F5EE
:1051500026FF22C0848D958DA68DB78D8C879D8767
:10516000AE87BF878E01045F1F4FC114D104E104D5
:10517000F10409F478CF4C855D856E857F859801B3
:105180008E819F810E94332791E0C91AD108E108DE
:10519000F108181654F3B1CF8C8D9D8DAE8DBF8D57
:1051A000DDCFC81AD90AEA0AFB0ADCCF3F924F9238
:1051B0005F926F927F928F929F92AF92BF92CF92A7
:1051C000DF92EF92FF920F931F93CF93DF9300D064
:1051D00000D0CDB7DEB75C01FC0144845584668401
:1051E000778486809780F401C084D184E284F3843C
:1051F000C414D504E604F704C0F47301620110E09E
:10520000FFEFCF1ADF0AEF0AFF0AF401808D918DBC
:10521000A28DB38D8C159D05AE05BF0540F411110F
:1052200032C0C084D184E284F38411E0E9CF4C140D
:105230005D046E047F0439F19E012F5F3F4FB7017B
:10524000A601C4010E94332787FD1DC08823C1F237
:1052500089819A81AB81BC81892B8A2B8B2B81F62A
:10526000112329F0F401C086D186E286F3860FEF80
:105270001FEF2FEF3FE0B701A601C4010E94C12636
:10528000382E811118C0312C832D0F900F900F9064
:105290000F90DF91CF911F910F91FF90EF90DF90D2
:1052A000CF90BF90AF909F908F907F906F905F90C6
:1052B0004F903F9008954114510461047104B9F472
:1052C000F501C486D586E686F786828141145104AD
:1052D00061047104B1F0FFEF4F1A5F0A6F0A7F0A91
:1052E0004C145D046E047F0479F08F7B0BC0970132
:1052F0008601B301A201C4010E94C1268111E0CF41
:10530000C2CF8064F5018283F50182818068828347
:10531000BBCFAF92BF92CF92DF92EF92FF920F93EB
:105320001F93CF93DF93EC01888185FF0DC010E0C0
:10533000812FDF91CF911F910F91FF90EF90DF9020
:10534000CF90BF90AF90089588899989AA89BB8929
:1053500081159E4FAF41B10550F7CE010E94D6286E
:10536000182F882321F3EE81FF81CC84DD84EE8425
:10537000FF8432E0C31AD108E108F108848104C037
:10538000CC0CDD1CEE1CFF1C8A95D2F7808991891C
:10539000A289B389C80ED91EEA1EFB1E25E0B701FB
:1053A000A601CF0180960E9477265C01892B09F423
:1053B000BECF80E092E0F5019C0111922150304077
:1053C000E1F701E0EE81FF818281081780F4950109
:1053D000B701A601400F511D611D711D8081918192
:1053E0000E945225882309F4A2CF0F5FEBCF84815E
:1053F00020E032E002C0220F331F8A95E2F788894D
:105400009989AA89BB89820F931FA11DB11D888B21
:10541000998BAA8BBB8B8CCF2F923F924F925F922E
:105420006F927F928F929F92AF92BF92CF92DF92B4
:10543000EF92FF920F931F93CF93DF93CDB7DEB719
:105440002B970FB6F894DEBF0FBECDBF8C017B83C8
:105450006A83FA01DB018C91807711F480E0D7C276
:10546000D8018C918111FACF418052808081837064
:10547000BB24B394882349F0C2010C966DE070E020
:105480000E94F0C2BB24B394B60E29833F01EA8187
:10549000FB81FB87EA8740E050E0BA01CF010E9420
:1054A0000628A12C912CC12CD12CE12CF12C812C83
:1054B00093012A5F3F4F3F832E834B2D4150550B65
:1054C00059874887EA85FB8580899189A289B389B4
:1054D0009C01AD0165E056954795379527956A95EE
:1054E000D1F72A833B834C835D832A803B8061E034
:1054F000CF010E94041D009709F064C0AA85BB85F6
:1055000011968C918111AACF298124FFA7CF822FD8
:1055100083708150823008F0A1CFEE2011F02A2C48
:10552000392CEB1408F560E08A859B850E94041DE8
:10553000892B09F027C1AA85BB8511968C91811111
:105540008DCF8A859B850E948929882309F486CF7F
:10555000AA85BB851696ED91FC918281823020F45C
:10556000B0E1EB0EEB1468F3882009F43EC1F301BF
:10557000A58082E0C82ED12C9EE7992E7301F6E01B
:10558000EF0EF11CD30111962D913C911297C6019B
:10559000820F931F1396ED91FC912E0F3F1F2E1734
:1055A0003F0709F4F1C0AC01B5E0440F551FBA95AF
:1055B000E1F7480F591F8191082E000C990B8427A1
:1055C0009527EDCFFC012081253E11F021110EC061
:1055D000E11002C0AA809B80EB1408F4E39422231C
:1055E00009F492CF253E21F4F12C6CCFEB1488F115
:1055F0002E32D1F3DC011B963C911B973F3009F012
:105600005FC0F11028C026FF5DCF2F71D22EE88534
:10561000F9852E171F0609F055CF1D96CC90F22E56
:10562000ED2DE150FF0BAF01FDE0F49F9001F59FE0
:10563000300D112424153505B8F6FC0160E0653005
:1056400090F48181928142165306A9F4892B61F668
:1056500039CFE12CCDCFDA942D11C6CF1D962C91E8
:105660002C15F1F2C1CF6B3018F484819581EBCF0A
:1056700086819781E8CF8F3F910511F008F0B4CF74
:105680004FEB480F782F4A3110F470E2780FA901E0
:105690004F5F5F4FD30113968D919C91280F391F57
:1056A000D9018C919FEB980F9A3108F4805E871393
:1056B0009BCF6F5F32966D3009F404CF9A01BFCF54
:1056C00033FD92CFFF2009F44DC0B1E0DB12C6CE0E
:1056D0000E9468148C11C2CEF981F6FDBFCE80E223
:1056E000F80111928A95E9F7AA85BB8516962D9146
:1056F0003C911797F80137832683358224825C9684
:105700004D915D916D917C915F9740875187628744
:105710007387F901BB96BFE02B22332445E0220CAE
:10572000331C4A95E1F7E20DF31D838583FD15C017
:105730008771D8018C939385987111F488608C934C
:10574000D8011396FC9289818370813009F47AC163
:1057500008F41EC1823009F473C1D8011C9212965C
:105760001C927CCE4BE050E06E817F810E94F8C598
:10577000892B09F0A7CEF301808180FFADCF88246B
:105780008394A0CEE394CDCEB3E0BA1510F4A3E099
:10579000AA2E34E03A0D282F2F702A3008F08EC040
:1057A000205DF301E30FF11D2683F4E096958795C4
:1057B000FA95E1F73150A31670F3F301EA0DF11DEC
:1057C000968240E050E0BA018A859B850E940628B7
:1057D00061E08A859B850E94041D009709F070C0D6
:1057E000EA85FB858181811139CEA10170E060E0FD
:1057F000E5E0440F551F661F771FEA95D1F78A85AC
:105800009B850E940628882309F428CEFF24FA9459
:10581000FB0CEF2C6FE0962E5301F6E0AF0EB11C9F
:105820007DE0872EEE2009F479C060E08A859B85B3
:105830000E94041D6C01892B09F410CEAA85BB853A
:105840001696ED91FC9180A1816080A33E2CEF1013
:1058500002C0689436F8F601308293861486C5013A
:105860000E946814D6011D968C931D975B961C921E
:105870001E925A97F30143815481832D8F71815079
:10588000990B889E9001899E300D1124F60160E0ED
:105890002415350580F5DA01A20FB31F8C91082E6F
:1058A000000C990B653090F5928381836F5F2F5FB9
:1058B0003F4F32966D3061F7EA94B4CF295C71CFD7
:1058C000DC012C91222309F490CF1B962C9123FD0F
:1058D0007FCF4BE050E0BC01C7010E94F8C5892B87
:1058E00009F076CFBFEFCB1ADB0AE4E6CE16D1047F
:1058F00009F048CEB3CD81E090E04216530611F492
:1059000090E080E0919581959109CCCF6B3018F4AF
:1059100095838483CBCF97838683C8CFAA85BB85A5
:1059200050968D909D90AD90BC90539760E0CD01C6
:105930000E94041D009709F491CD55E0B694A794F8
:10594000979487945A95D1F7140120E2FC011192A3
:105950002A95E9F7F30136962BE0DC0101900D92D0
:105960002A95E1F7D3012C912871FC01248721E2CB
:1059700032E5318B208B318F208F338B228BAA85A0
:10598000BB851696ED91FC9180A1816080A3A7CE86
:1059900081E0D80112968C93129712968C911297EF
:1059A00081FF04C08C91817109F0D7CED9019796FF
:1059B0004D915D916D917C919A97D80154964D933C
:1059C0005D936D937C93579784899589B0E0A0E0AF
:1059D000DC0199278827428D538D70E060E0482BC9
:1059E000592B6A2B7B2BD8015C964D935D936D935D
:1059F0007C935F97448D558D668D778DF801408F30
:105A0000518F628F738FF981F2FD1EC081E02B965A
:105A10000FB6F894DEBF0FBECDBFDF91CF911F91BF
:105A20000F91FF90EF90DF90CF90BF90AF909F903D
:105A30008F907F906F905F904F903F902F90089540
:105A400083E0A7CF82E0A5CFC8010E940628882363
:105A500009F483CEDBCF2F923F924F925F926F92E9
:105A60007F928F929F92AF92BF92CF92DF92EF92EE
:105A7000FF920F931F93CF93DF93CDB7DEB7289795
:105A80000FB6F894DEBF0FBECDBF98878F833B0162
:105A90001A01DC0112968C9181FFB7C083FDA8C06A
:105AA000A10170E060E0EF81F88580899189A28989
:105AB000B38980959095A095B09584179507A60712
:105AC000B70708F4A2C061013C96FE83ED83EF8125
:105AD000F88580889188A288B388C114D10409F41C
