:100000000C94AE0D0C942D140C9402140C94D71374
:100010000C9462130C94ED120C9478120C9403124D
:100020000C94AA5D0C94D80D0C94D80D0C94D80D9A
:100030000C94AB350C9422360C9460350C94D80D8E
:100040000C94D80D0C94D80D0C9449820C94D80DB6
:100050000C94DC7A0C94B27A0C94D80D0C94D80DD4
:100060000C94D80D0C94D80D0C9426800C94D80DBB
:100070000C947C7A0C94527A0C94D80D0C94D80D74
:100080000C94D80D0C94D80D0C94D80DE67FE97F14
:10009000DC7FE07F00800080ED7FF17FF77FFB7FDA
:1000A00008000000BE922449123EABAAAA2ABECD87
:1000B000CCCC4C3E00000080BEABAAAAAA3E0000F9
:1000C0000000BF000000803F0000000000084178F1
:1000D000D3BB4387D1133D190E3CC3BD4282AD2B28
:1000E0003E68EC8276BED98FE1A93E4C80EFFFBE20
:1000F00001C4FF7F3F000000000000407A10F35A67
:1001000000A0724E18090010A5D4E80000E8764857
:10011000170000E40B54020000CA9A3B000000E103
:10012000F505000080969800000040420F00000096
:10013000A08601000000102700000000E803000076
:1001400000006400000000000A0000000000010040
:10015000000000002C76D888DC674F0823DFC1DF61
:10016000AE59E1B1B796E5E3E453C63AE651997664
:1001700096E8E6C28426EB898C9B62ED407C6FFC9E
:10018000EFBC9C9F40F2BAA56FA5F490055A2AF7E0
:100190005C936B6CF9676DC11BFCE0E40D47FEF5E9
:1001A00020E6B500D0ED902E030094357705008051
:1001B000841E080000204E0A000000C80C333333B0
:1001C000330F986E12831141EF8D2114893BE65550
:1001D00016CFFEE6DB18D1844B381BF77C1D901D33
:1001E000A4BBE424203284725E228100C9F124EC95
:1001F000A1E53D270A4C6F676765723A7365744CD9
:100200006F676765724964206572726F72202D2076
:100210006578706563746564204E554C4C2070742D
:1002200072000A0D2020204C6F676765723A736573
:10023000744C6F67676572496420746F6F206C6FD0
:100240006E673A205472696D6D656420746F20008A
:100250002020204C6F633D006261747465727920C8
:10026000747970653D006D696E757465732C2054EA
:100270007A3D005D0A0D2020206C6F6767696E670C
:1002800020696E74657276616C3D0046726F6D20F8
:10029000656570726F6D20636F6D6D6F6E3A204C87
:1002A0006F676765722046696C65204E616D655B9E
:1002B00000466163746F72792064656661756C7461
:1002C000006D734C6F673031005D005D20736E5BB5
:1002D000005D20207265765B0046726F6D2065655B
:1002E00070726F6D20626F6F74204E616D655B0080
:1002F000302E3562004D313233343536373839617E
:100300006263646566676800656E7669726F44490A
:1003100059206D6179666C7900506172736520694E
:100320006E693B204E6F2066696C652000436F6DDF
:10033000706C657465642E004572726F72206F6E0A
:10034000206C696E65203A00506172736520696E99
:10035000693B200056005620474F4F443D00562031
:100360004D454449554D3D0056204C4F573D0020CA
:100370005468726573686F6C6473205553454142CD
:100380004C453D0042617474657279205479706502
:100390003D0050757474696E67206D6F64656D20E3
:1003A000746F20736C65657000436F756C64206EAC
:1003B0006F742077616B65206D6F64656D20666F6B
:1003C0007220636C6F636B2073796E632E00436FD2
:1003D000756C64206E6F7420636F6E6E656374203D
:1003E000746F20696E7465726E657420666F72201A
:1003F000636C6F636B2073796E632E00546869734E
:10040000206D61792074616B6520757020746F2098
:1004100074776F206D696E75746573210041747413
:10042000656D7074696E6720746F20636F6E6E65A2
:10043000637420746F2074686520696E7465726ED1
:10044000657420616E642073796E6368726F6E6983
:100450007A65205254432077697468204E4953547A
:1004600000446174612077696C6C2062652073615F
:1004700076656420617300556E61626C6520746FEF
:100480002063726561746520612066696C65207403
:100490006F2073617665206461746120746F210040
:1004A00053657474696E672075702066696C652089
:1004B0006F6E2053442063617264005365747469E5
:1004C0006E672075702073656E736F72732E2E2E9B
:1004D0000054696D65200053796E632077697468F4
:1004E000204E495354206F76657220576946692023
:1004F0006E6574776F726B2000456E7669726F79E6
:100500004449595075626C697368657220736574EB
:100510005175656420000A0A2D2D2D706172736576
:10052000496E6920636F6D706C65746520002D2DB8
:100530002D7061727365496E692000476F6F64208A
:10054000426174563D002D2D2D2D57616B657570E0
:10055000003A20426174746572794C6F772D536C48
:1005600065657036307365632C20426174563D00BA
:1005700054696E7947534D204C69627261727920DB
:1005800076657273696F6E20004D6F64756C617271
:1005900053656E736F72732076657273696F6E2028
:1005A000005377204E616D653A20000A2D2D2D42B3
:1005B0006F6F742E205377204275696C643A200067
:1005C0007365727A426567696E2065727220726522
:1005D0006D6F76650064655352432072656D6F766A
:1005E0006520657272007365727A426567696E2074
:1005F00065727220636C6F736500646553524320AB
:10060000636C6F73652065727200646552533B20A2
:100610004E6F2066696C6520007365727A5175654E
:10062000645374617274206F70656E20657272001D
:100630006C6F67504C4F20657272206F70656E69E9
:100640006E67007365632E20517565756564207251
:10065000656164696E67733D0072656164696E67A8
:100660007320696E0053656E740070756244515456
:1006700052207365727A5175656446696C206572A3
:1006800072005D000A707562445154522053656EC9
:1006900064696E67206461746120746F205B00730D
:1006A00065727A5264656C5F4C696E653B204E6F73
:1006B0002066696C65002D2D2D2D2D2D2D2D2D2DB8
:1006C0002D2D2D2D2D2D2D2D2D2D2D2D2D2D2D2D5A
:1006D0002D2D2D2D2D2D2D2D2D2D2D2D2D2D2D2D4A
:1006E0000A002D2D2D2D2D2D2D2D2D2D2D2D2D2D8A
:1006F0002D2D2D2D2D2D2D2D2D2D2D2D2D2D2D2D2A
:100700002D2D2D2D2D2D2D2D2D2D2D2D00204C62FF
:100710006174743D00206C6F672650756220565FCF
:100720006261747400204C626174743D00204C6FEF
:10073000674F6E6C792E205620746F6F206C6F7728
:100740002062617474657279563D002D2D2D4E65C1
:100750007752656164696E672043414E43454C4C56
:1007600045442D2D4C626174745F563D00455252D4
:100770004F52004C4100544D00544D3000544D0038
:10078000414D3000465200414D3100415030004152
:100790004D30004149002B2B2B00414300575200A4
:1007A000434E004853004853000A4C6F6767657218
:1007B0004D6F64656D3A3A7365745769466949646B
:1007C000206572726F72202D6E6F2062756666658D
:1007D0007220000A4C6F676765724D6F64656D3AF1
:1007E0003A736574576946694964206572726F721D
:1007F000202D206578706563746564204E554C4CDF
:1008000020707472000A0D2020204C6F676765729B
:100810004D6F64656D3A7365745769466949642024
:10082000746F6F206C6F6E673A205472696D6D65DE
:100830006420746F20000A4C6F676765724D6F64A7
:10084000656D3A3A736574576946695077642065F7
:1008500072726F72202D6E6F2062756666657220EF
:10086000000A4C6F676765724D6F64656D3A3A7345
:10087000657457694669507764206572726F72209B
:100880002D206578706563746564204E554C4C204E
:10089000707472000A0D2020204C6F676765724DDE
:1008A0006F64656D3A736574576946695077642063
:1008B000746F6F206C6F6E673A205472696D6D654E
:1008C0006420746F20003D005D20004E6F74207323
:1008D0007570706F72746564205B00414354494FBA
:1008E0004E2057726974652061626F727465642E60
:1008F00020696E737472756374696F6E202700418E
:100900004354494F4E20434F5059206E6F7420730B
:100910007570706F72746564207965743A00434F26
:10092000505900454550524F4D205772697465200B
:1009300066696E697368656400414354494F4E208F
:1009400057726974652061707020454550524F4D53
:1009500020737461727465643A00575249544500BB
:10096000414354494F4E00555345520020746F2067
:1009700000424F4F54207462642000454550524F4E
:100980004D2057726974652061626F727465642EC0
:1009900020696E737472756374696F6E20270045E9
:1009A0004550524F4D2057726974652066696E69D3
:1009B0007368656400454550524F4D205772697405
:1009C0006520737461727465643A0059455300453B
:1009D0004550524F4D5F575249544500426F617226
:1009E00064205265763A00424F4152445F52455668
:1009F00000426F6172642053657269616C4E756D5F
:100A0000203A00424F4152445F534E00426F6172A0
:100A100064204E616D653A00424F4152445F4E4141
:100A20004D4500424F4F540020746F20004E4554F6
:100A3000574F524B207462642000434F4D4D4F4E30
:100A4000205365742053454E445F4F4646534554EA
:100A50005F4D494E206572726F723B202872616E45
:100A600067652030203A2033302920726561643A6E
:100A700000434F4D4D4F4E205365742053454E4417
:100A80005F4F46465345545F4D494E3A200053450B
:100A90004E445F4F46465345545F4D494E00434FC9
:100AA0004D4D4F4E2053657420434F4C4C4543549D
:100AB0005F52454144494E4753206572726F723B05
:100AC000202872616E67652030203A20333029205B
:100AD000726561643A00434F4D4D4F4E205365742B
:100AE00020434F4C4C4543545F52454144494E4787
:100AF000533A2000434F4C4C4543545F52454144C8
:100B0000494E475300434F4D4D4F4E20536574207F
:100B1000504F53545F4D41585F4E554D2065727292
:100B20006F723B202872616E67652030203A203555
:100B3000302920726561643A00434F4D4D4F4E207D
:100B400053657420504F53545F4D41585F4E554D7F
:100B50003A2000504F53545F4D41585F4E554D0061
:100B6000434F4D4D4F4E205365742054494D4552CF
:100B70005F504F53545F504143455F4D5320657262
:100B8000726F723B202872616E67652030203A20B8
:100B9000353030302920726561643A00434F4D4D45
:100BA0004F4E205365742054494D45525F504F536A
:100BB000545F504143455F4D533A200054494D45E1
:100BC000525F504F53545F504143455F4D53004374
:100BD0004F4D4D4F4E205365742054494D45525F43
:100BE000504F53545F544F55545F4D5320657272AC
:100BF0006F723B202872616E676520313030203A79
:100C00002033303030302920726561643A00434F20
:100C10004D4D4F4E205365742054494D45525F5001
:100C20004F53545F544F55545F4D53203A20005456
:100C3000494D45525F504F53545F544F55545F4D8B
:100C4000530027206E6F772027004E4554574F5290
:100C50004B20576946695077643A207761732027A3
:100C600000576946695077640027206E6F77202708
:100C7000004E4554574F524B205769466949643AD4
:100C800020776173202700576946694964004E4503
:100C900054574F524B0020746F200053454E534F12
:100CA000525320746264200053454E534F525300F8
:100CB00020746F2000434F4D4D4F4E2074626420CE
:100CC0000047454F47524150484943414C5F4944D2
:100CD0003A0047454F47524150484943414C5F49CC
:100CE0004400434F4D4D4F4E205365742054696D61
:100CF000655A6F6E65206572726F723B2028726153
:100D00006E6765202D3132203A202B313229207236
:100D10006561643A00434F4D4D4F4E20536574203A
:100D200054696D655A6F6E653A200054494D455FB0
:100D30005A4F4E450020536574204C69496F6E2010
:100D400054797065206572726F723B202872616EF3
:100D5000676520302D322920726561643A00434F67
:100D60004D4D4F4E204C69496F6E20547970653A55
:100D700020004C49494F4E5F54595045002053655F
:100D800074204C69496F6E205479706520657272C9
:100D90006F723B202872616E676520302D322920EA
:100DA000726561643A00434F4D4D4F4E204261746D
:100DB0007465727920547970653A20004241545428
:100DC0004552595F5459504500292077697468206D
:100DD000726561643A002053657420696E746572AF
:100DE00076616C206572726F72202872616E676521
:100DF0003A20312D00286D696E292066726F6D20B2
:100E000064656661756C742000434F4D4D4F4E20F4
:100E10004C4F4747494E475F494E54455256414C07
:100E20005F4D494E555445532073657420746F3A95
:100E30002000205573696E67204D61782E20526521
:100E40006164696E672069676E6F72656420004334
:100E50004F4D4D4F4E204C4F4747494E475F494EEF
:100E600054455256414C5F4D494E55544553206DA3
:100E7000757374206265206C657373207468616E8D
:100E8000203A20004C4F4747494E475F494E544552
:100E90005256414C5F4D494E5554455300434F4DBA
:100EA0004D4F4E204C6F67676572496420536574DF
:100EB0003A20004C4F474745525F494400434F4D4D
:100EC0004D4F4E007D2055554944206E6F74207360
:100ED0007570706F72746564007D206F7574206F1B
:100EE000662072616E67652E204E6F74757365643F
:100EF000007D007D207265706C6163696E67207B88
:100F000000696E646578007D206D617463682020DF
:100F1000262061646465642E003D7B0000555549C0
:100F200044730050524F5649444552206E6F74200E
:100F3000737570706F727465643A0050524F564901
:100F40004445522053657474696E672053616D7017
:100F50006C696E67466561747572653A200053412D
:100F60004D504C494E475F464541545552450050FF
:100F7000524F56494445522053657474696E672038
:100F8000636C6F756449643A2000434C4F55445F6D
:100F900049440050524F5649444552205365747499
:100FA000696E6720726567697374726174696F6EC8
:100FB00020746F6B656E3A20005245474953545276
:100FC0004154494F4E5F544F4B454E0050524F567F
:100FD0004944455200446174612077696C6C206E0D
:100FE0006F742062652073617665642100536C61C3
:100FF00076652F436869702073656C656374207033
:10100000696E20666F7220534420636172642068A9
:101010006173206E6F74206265656E207365742E37
:1010200000446174612077696C6C206E6F7420627B
:101030006520736176656421004572726F723A2093
:1010400053442063617264206661696C6564207436
:101050006F20696E697469616C697A65206F7220AE
:101060006973206D697373696E672E002D2D2D2DA8
:101070005C2F000A205C2F2D2D2D2D204C696E65D4
:1010800020536176656420746F00556E61626C65F3
:1010900020746F20777269746520746F2053442028
:1010A0006361726421002000206973200020726552
:1010B000706F727473200020002069732063616C6C
:1010C00063756C6174656420746F20626520002D07
:1010D0002D2D2D2D2D2D2D2D2D2D2D2D2D2D2D2D40
:1010E0002D2D2D2D2D2D2D2D2D2D2D2D2D2D2D2D30
:1010F0002D2D2D2D2D2D2D2D2D0045786974696EEA
:10110000672074657374696E67206D6F6465002D68
:101110002D2D2D2D2D2D2D2D2D2D2D2D2D2D2D2DFF
:101120002D2D2D2D2D2D002D2D2D2D2D2D2D2D2D1C
:101130002D2D2D2D2D2D2D2D2D2D2D2D2D2D0043F6
:10114000757272656E74206C6F6767657220746962
:101150006D65206973002D2D2D2D2D2D2D2D2D2DFF
:101160002D2D2D2D2D2D2D2D2D2D2D2D2D2D2D2DAF
:101170002D2D2D2D2D2D2D2D2D2D2D2D2D2D2D2D9F
:1011800000456E746572696E672073656E736F7269
:101190002074657374696E67206D6F6465002D2D12
:1011A0002D2D2D2D2D2D2D2D2D2D2D2D2D2D2D2D6F
:1011B0002D2D2D2D2D2D2D2D2D2D2D2D2D2D2D2D5F
:1011C0002D2D2D2D2D2D2D2D004552524F52004FDE
:1011D0004400544D00544D00444500444C004950D7
:1011E00000435436340047543634004552524F526F
:1011F0000D004F4B0D0041503000434900736574A2
:1012000056617255554944206572726F72202D20C7
:101210006E6577206469646E277420776F726B2027
:10122000666F7200646174615075626C69736865A1
:1012300072426173652067515320636865636B0078
:101240002D2D2D2D2D205741524E494E47202D2D0D
:101250002D2D2D202121212121212121212121215B
:101260002121212121212121004261642074696D05
:10127000652000212121212121212121212121213C
:1012800021212121212121202D2D2D2D2D205741BE
:10129000524E494E47202D2D2D2D2D20003A303015
:1012A000003A3030003A3030003A303000493243B2
:1012B0005F3078363800646174615075626C6973B0
:1012C0006865724261736520736574517565642049
:1012D000636865636B004552524F5221204E6F2068
:1012E00077656220636C69656E74206173736967EA
:1012F0006E656420746F207075626C697368206419
:1013000061746121001F1C1F1E1F1E1F1F1E1F1E38
:101310001F50696E004C4174696D652E6E6973745F
:101320002E676F7600456E7669726F794449595021
:1013300075626C69736865722067515320002700DD
:101340006465737A714E6578744368203165727292
:101350006F723A006D532054696D656F7574007734
:10136000616974656420002D2D20526573706F6E65
:10137000736520436F6465202D2D000A202D2D20DC
:10138000556E61626C6520746F2045737461626C88
:1013900069736820436F6E6E656374696F6E207445
:1013A0006F20456E7669726F4449592044617461BB
:1013B00020506F7274616C202D2D005F4368616E48
:1013C0006E656C00414453313131355F30780049EE
:1013D0004400454500504B004552524F520D004FBE
:1013E0004B0D004545004442004C4D00255600275A
:1013F000006465737A4C696E652072656164756E10
:1014000067207374617274206E6F7420666F756EDE
:10141000640027006465737A4C696E652045706FBF
:10142000636820657272270027006465737A4C69CF
:101430006E652065706F6368207374617274206ECE
:101440006F7420666F756E640027006465737A4C54
:10145000696E65205374617475732065727227001C
:101460002C002C002C007365514346207365727A62
:101470005175656446696C652E636C6F73653220C7
:10148000657272007365514346207467746F75749A
:1014900046696C652E636C6F7365312065727200EE
:1014A0007365514346207467746F757446696C6543
:1014B00020777269746533206572720073655143D9
:1014C00046207467746F757446696C65207772691D
:1014D00074653120657272007365514346206F70E8
:1014E000656E3220657272007365514346207265E5
:1014F0006E616D65312065727200736551434620DF
:10150000657272362072656D6F7665007365514342
:10151000462072656D6F766531206572720000003D
:10152000200023002600290000010203040506070D
:101530000001020304050607000102030405060773
:10154000000102030405060704040404040404045F
:101550000202020202020202030303030303030363
:101560000101010101010101010204081020408074
:10157000010204081020408001020408102040806D
:1015800001020408102040804D59000054500027EB
:10159000206661696C65642E0058626565202700CD
:1015A000586265655769666920696E69742074655B
:1015B0007374205041535345440058626565576920
:1015C000666920696E6974207465737420464149A8
:1015D0004C4544202D20686F706520697420776F1A
:1015E000726B73206E6578742074696D65004E535C
:1015F000005D00586265655769466920495023209F
:101600005B005862656557694669206E6F74207289
:101610006563656976656420495023202D686F7085
:101620006520697420776F726B73206E6578742003
:1016300074696D65004D5900586265655769466962
:10164000206E6F7420415020526567697374657213
:101650006564202D2061626F7274696E6720617409
:1016600074656D70742C20686F70652069742077C4
:101670006F726B73206E6578742074696D650041BC
:1016800049004C6F6F703D5365635D207278206434
:1016900062203A205374617475732023506F6C6C10
:1016A0006564205374617475732065766572792062
:1016B000317365632F333073656300544D00534FAE
:1016C00000534D0049500044390044380050520046
:1016D0002700586265655769466920496E697469D3
:1016E000616C697A696E6720496E7465726E6574A3
:1016F00020636F6D6D732077697468206D6F64650A
:101700006D20270021212121212121212121212199
:101710002121212121212121202D2D2D2D2D205749
:1017200041524E494E47202D2D2D2D2D2000212197
:101730002121212121212121202D2D2D2D2D205729
:1017400041524E494E47202D2D2D2D2D2021212156
:1017500021212121212121002D2D2D2D2D20574109
:10176000524E494E47202D2D2D2D2D202121212156
:101770002121212121212121212121212121212159
:10178000005468652063757272656E7420636C6FB7
:10179000636B2074696D657374616D70206973206B
:1017A0006E6F742076616C696421002121212121F2
:1017B000212121212121212121212121212121201A
:1017C0002D2D2D2D2D205741524E494E47202D2D88
:1017D0002D2D2D20002121212121212121212120F8
:1017E0002D2D2D2D2D205741524E494E47202D2D68
:1017F0002D2D2D2021212121212121212121002DCB
:101800002D2D2D2D205741524E494E47202D2D2D47
:101810002D2D2021212121212121212121212121A1
:10182000212121212121210027002720736E3A2721
:1018300000207265763A2700426F6172643A200098
:101840004D6F64756C617253656E736F7273207641
:1018500065727320002E205377204275696C643ABC
:1018600020005377204E616D653A200020204261B0
:101870007474657279547970653A200020547A3A0C
:10188000200020204C6F6767696E67496E7465722F
:1018900076616C20286D696E293A20004C6F636177
:1018A00074696F6E3A20004461746520616E642033
:1018B00054696D6520696E205554430052657375F7
:1018C0006C7420555549443A00526573756C742008
:1018D000556E69743A005661726961626C65204E9A
:1018E000616D653A0053656E736F72204E616D6570
:1018F0003A0053616D706C696E672046656174755E
:10190000726520555549443A200044617461204C69
:101910006F676765722046696C653A2000446174A0
:1019200061204C6F676765723A20002D3E00416C64
:101930006C207661726961626C6520555549442757
:10194000732061707065617220746F20626520631E
:101950006F72726563746C7920666F726D65642E48
:101960000A006861732061206E6F6E2D756E69715B
:1019700075652055554944210068617320616E20CA
:10198000696E76616C6964205555494421004C6F3D
:101990006767657220706F7274696F6E206F662062
:1019A00073657475702066696E69736865642E0A64
:1019B0000053616D706C696E672066656174757245
:1019C0006520555549442069733A0061726520636A
:1019D000616C63756C617465642E0073656E736F02
:1019E000727320616E6400636F6D652066726F6D47
:1019F000007661726961626C65732C206F66207776
:101A0000686963680054686973206C6F6767657202
:101A1000206861732061207661726961626C652063
:101A200061727261792077697468004375727265BA
:101A30006E74205254432074696D652069733A00B6
:101A40002D2D2D2D2D2D2D2D2D2D2D2D2D2D2D2DC6
:101A50002D2D2D2D2D2D2D2D2D2D2D2D2D2D2D2DB6
:101A60002D2D2D2D2D2D2D2D2D2D0A002D2D2D2DF6
:101A70002D2D2D2D2D2D2D2D2D2D2D2D2D2D2D2D96
:101A80002D2D2D2D2D2D2D2D2D2D2D2D2D2D2D2D86
:101A90002D2D2D2D2D2D002C3058005344206572F6
:101AA000726F72436F64653A203058006572726FCE
:101AB000723A2000734654534D657420657272204B
:101AC000666F7220007365636F6E6473206F6620AB
:101AD0004E4953542E00496E7465726E616C2043FA
:101AE0006C6F636B2077697468696E2000496E744F
:101AF00065726E616C20436C6F636B20736574203C
:101B0000004261642074696D657374616D702C208E
:101B10006E6F742073657474696E6720636C6F6395
:101B20006B2E0000002100240027002A0000002264
:101B300000250028002B0000000000040308070017
:101B40000000010200090A0000000000000000007F
:101B50000000000000000000A98DA29411241FBE07
:101B6000CFEFD0E4DEBFCDBF17E0A0E0B1E0E0E909
:101B7000F0E401E00BBF02C007900D92AC35B10755
:101B8000D9F725E1ACE5B7E001C01D92AF3DB20742
:101B9000E1F71DE0CDEADDE004C02197FE010E94DF
:101BA000069DCC3AD107C9F70E9493820C943BA0C2
:101BB0000C940000DC01ED91FC910688F789E02D82
:101BC000099591E0811101C090E0892F08950F934C
:101BD0001F93CF93DF9300D000D000D0CDB7DEB7F6
:101BE0008C01DC01ED91FC910084F185E02D0995DB
:101BF000892BC9F41B821C821D821E82D8011C966F
:101C0000ED91FC911D9745855685678570898B817F
:101C10009C81AD81BE81481759076A077B0729F06F
:101C2000F801858903C081E001C080E026960FB6E7
:101C3000F894DEBF0FBECDBFDF91CF911F910F9102
:101C40000895DC011C96ED91FC911D978081918196
:101C5000DC01ED91FC910680F781E02D0994DC0117
:101C60001C96ED91FC911D9780819181DC01ED9195
:101C7000FC910484F585E02D0994CF93DF931F92A6
:101C8000CDB7DEB76983DC01ED91FC910280F38171
:101C9000E02D41E050E0BE016F5F7F4F09950F904E
:101CA000DF91CF9108950F931F93CF93DF9300D0CF
:101CB00000D000D0CDB7DEB7DC01ED91FC91048CF3
:101CC000F58DE02D23EE32E03A832983DB01129675
:101CD0000D911D912D913C9115970B831C832D83A4
:101CE0003E8320E030E0BE016F5F7F4F099526966E
:101CF0000FB6F894DEBF0FBECDBFDF91CF911F911D
:101D00000F910895DC01ED91FC91028CF38DE02D93
:101D10002BE430E009948091C0118111FCCF08952B
:101D20008091C4118F5F843408F080E09091C311DA
:101D30009817E1F32FB7F8949091C011992341F0CF
:101D4000E82FF0E0E658FE4E60838093C4111DC07A
:101D500081E08093C0116093BF111092BE1182E0A8
:101D600086BB80916F00826080936F0080918000BD
:101D70008F7B8068809380008091840090918500A3
:101D8000409690938900809388002FBF81E090E077
:101D90000895FC01848583FF0DC084A195A1A6A1AF
:101DA000B7A1448D558D668D778D841B950BA60B41
:101DB000B70B03C080E090E0DC01811520E89207BA
:101DC000A105B10520F08FEF9FE7A0E0B0E00895F6
:101DD00080E090E00895CF93DF93EC0162E070E043
:101DE00080E090E00E940382EC85FD8580819181F6
:101DF000DC01ED91FC910284F385E02DDF91CF9120
:101E00000994CF93DF93EC0162E070E080E090E012
:101E10000E940382EC85FD8580819181DC01ED913A
:101E2000FC910084F185E02DDF91CF910994CF9250
:101E3000DF92EF92FF920F931F93CF93DF938C016A
:101E4000D62FC72F6A0162E070E080E090E00E9428
:101E50000382D8011C96ED91FC911D97E080F180E2
:101E60000D2F1C2FC0E0D0E0CC16DD0651F0C701CD
:101E70000E94007997FD05C0F80181938F0121969A
:101E8000F3CFCE01DF91CF911F910F91FF90EF9093
:101E9000DF90CF900895EF92FF920F931F93CF930F
:101EA000DF93EC018B017A0162E070E080E090E06A
:101EB0000E940382A701B8018C859D85DF91CF9197
:101EC0001F910F91FF90EF900C940229CF92DF9217
:101ED000EF92FF920F931F93CF93DF9300D000D028
:101EE00000D0CDB7DEB78C016B017A01FC0184858F
:101EF00095850E94CC6DF801268583EE92E09A8349
:101F00008983F60182819381A481B5818B839C832F
:101F1000AD83BE83A701BE016F5F7F4FF80184854B
:101F200095850E941B26F801858B90E026960FB6BA
:101F3000F894DEBF0FBECDBFDF91CF911F910F91FF
:101F4000FF90EF90DF90CF9008950C960C94ED45A4
:101F50008F929F92AF92BF92CF92DF92EF92FF92B9
:101F60000F931F93CF93DF931F92CDB7DEB78C01F2
:101F7000FC01848C958CA68CB78CC08CD18CE28CA7
:101F8000F38CBE016F5F7F4F0C960E946C590197D6
:101F900019F4898190E002C08FEF9FEF8F3FFFEF30
:101FA0009F0749F0F801848E958EA68EB78EC08E5D
:101FB000D18EE28EF38E0F90DF91CF911F910F9112
:101FC000FF90EF90DF90CF90BF90AF909F908F9059
:101FD0000895CF93DF931F92CDB7DEB7BE016F5F39
:101FE0007F4F0C960E946C59019719F4898190E0FB
:101FF00002C08FEF9FEF0F90DF91CF9108950C9665
:102000000C94B245CF93DF93EC0166EA77E00E942F
:10201000F56E48EE53E060E070E0CE010E94D71606
:102020008F3F910589F463EA77E0CE010E94F56E57
:1020300048EE53E060E070E0CE010E94D7168F3F7B
:10204000910511F480E090E099878887DF91CF9126
:102050000895CF93DF93EC0160EA77E00E94F56E7C
:102060004BEE51E162EF71E1CE010E94D05B1BA209
:10207000DF91CF910895CF93DF93EC016DE977E085
:102080000E94F56E4BEE51E162EF71E1CE010E94CC
:10209000D05B813079F46AE977E0CE010E94F56E79
:1020A0004BEE51E162EF71E1CE010E94D05B91E015
:1020B000813009F090E0892FDF91CF9108958F92C0
:1020C0009F92AF92BF92DF92EF92FF920F931F9376
:1020D000CF93DF93EC01D62E1BA1112391F00E9428
:1020E0003D828CA09DA0AEA0BFA0DC01CB018819D1
:1020F0009909AA09BB0980319742A105B10508F4E5
:1021000054C0CE010E94CC6D84E0F82EE12CDE1488
:1021100009F44AC06E817F81665F7F4F072E000CF5
:10212000880B990B0E94038266E977E08881998188
:102130000E941C7A4E815F81440F551F052E000CB2
:10214000660B770B0BEE11E122EF31E1CE010E941D
:102150008E5B182F81111BC0FA94F11018C08A856C
:1021600087FD0DC060E00E94818161E070E080E049
:1021700090E00E94038261E08A850E9481816AEF7B
:1021800070E080E090E00E94038294E0F92EE394F6
:10219000113009F0BCCF1BA30E943D826CA37DA32C
:1021A0008EA39FA311E001C010E0812FDF91CF919A
:1021B0001F910F91FF90EF90DF90BF90AF909F9095
:1021C0008F9008958F929F92AF92BF92FF920F933C
:1021D0001F93CF93DF93EC01FBA0FF2021F08BA195
:1021E000882331F008C065E00E945F108111F7CFAD
:1021F00084E090E0FEC088859985892B19F4CE0192
:102200000E94021063E977E0CE010E94F56E40E182
:1022100057E260E070E0CE010E94D716288539852C
:102220002130364009F0A8C08332910509F4D7C0A7
:102230005CF4833091052CF4813091050CF4A6C038
:10224000B9C0439789F0C9C0833491050CF0AFC081
:10225000803491050CF0AEC08432910509F4ACC015
:10226000879709F4A9C0B9C065E0CE010E945F104C
:10227000882309F4B4C088859985892B19F4CE0187
:102280000E9402108885998581309640B9F067E8F0
:1022900077E0CE010E94F56E4BEE51E162EF71E105
:1022A000CE010E94D05B813021F0CE010E94291026
:1022B00096C0CE010E943B108823B9F364E877E012
:1022C000CE010E94F56E4BEE51E162EF71E1CE015D
:1022D0000E94D05B813049F71BA2888599858130A7
:1022E000964029F460ED77E080E090E004C064E679
:1022F00070E080E090E00E9403820E943D824B01EA
:102300005C010E943D82DC01CB0188199909AA0970
:10231000BB0980369A4EA105B10568F461E0CE0193
:102320000E945F10811107C06AEF70E080E090E0CA
:102330000E940382E6CF8885998581309640A9F076
:1023400060E877E0CE010E94F56E4BEE51E162EF5E
:1023500071E1CE010E94D05B813009F0A6CFCE01A1
:102360000E943B10882309F4A0CFCE010E942910BF
:10237000CE010E94F12333C085329105E9F04CF47F
:102380008432910554F582329105A4F4892B49F1E8
:1023900024C08D32910544F48B329105F4F48A9770
:1023A000E1F46FE877E00CC08F32910539F08F3F90
:1023B000910599F402E016C003E014C06BE877E0E1
:1023C000CE010E94F56E4BEE51E162EF71E1CE015C
:1023D0000E94D05BCE010E943B1004E003C001E0EC
:1023E00001C000E010E0F11003C0CE010E942910EE
:1023F000C801DF91CF911F910F91FF90BF90AF90D7
:102400009F908F9008951F920F920FB60F921124F4
:102410000BB60F922F933F934F935F936F937F93DE
:102420008F939F93AF93BF93CF93EF93FF9329B174
:10243000C09110158091581590915415322F3095F8
:1024400093238223892B90917300C227C923C82329
:1024500020931015CC23C1F1C0FF05C0E0911115E8
:10246000F09112150995C1FF05C0E0911315F09187
:1024700014150995C2FF05C0E0911515F0911615C8
:102480000995C3FF05C0E0911715F091181509953E
:10249000C4FF05C0E0911915F0911A150995C5FF03
:1024A00005C0E0911B15F0911C150995C6FF05C0EC
:1024B000E0911D15F0911E150995C7FF05C0E0912B
:1024C0001F15F09120150995FF91EF91CF91BF91C4
:1024D000AF919F918F917F916F915F914F913F91BC
:1024E0002F910F900BBE0F900FBE0F901F9018955D
:1024F0001F920F920FB60F9211240BB60F922F93CB
:102500003F934F935F936F937F938F939F93AF937B
:10251000BF93CF93EF93FF9326B1C0912115809184
:10252000591590915515322F309593238223892B7D
:1025300090916D00C227C923C82320932115CC2375
:10254000C1F1C0FF05C0E0912215F0912315099556
:10255000C1FF05C0E0912415F09125150995C2FF32
:1025600005C0E0912615F09127150995C3FF05C018
:10257000E0912815F09129150995C4FF05C0E09157
:102580002A15F0912B150995C5FF05C0E0912C1572
:10259000F0912D150995C6FF05C0E0912E15F0911B
:1025A0002F150995C7FF05C0E0913015F091311541
:1025B0000995FF91EF91CF91BF91AF919F918F912D
:1025C0007F916F915F914F913F912F910F900BBE33
:1025D0000F900FBE0F901F9018951F920F920FB67D
:1025E0000F9211240BB60F922F933F934F935F934B
:1025F0006F937F938F939F93AF93BF93CF93EF93FB
:10260000FF9323B1C091321580915A1590915615C0
:10261000322F309593238223892B90916C00C2270F
:10262000C923C82320933215CC23C1F1C0FF05C0B4
:10263000E0913315F09134150995C1FF05C0E09183
:102640003515F09136150995C2FF05C0E091371593
:10265000F09138150995C3FF05C0E0913915F09147
:102660003A150995C4FF05C0E0913B15F0913C1562
:102670000995C5FF05C0E0913D15F0913E150995FE
:10268000C6FF05C0E0913F15F09140150995C7FFC1
:1026900005C0E0914115F09142150995FF91EF9128
:1026A000CF91BF91AF919F918F917F916F915F91EA
:1026B0004F913F912F910F900BBE0F900FBE0F9037
:1026C0001F9018951F920F920FB60F9211240BB600
:1026D0000F922F933F934F935F936F937F938F93BB
:1026E0009F93AF93BF93CF93EF93FF9320B1C0918C
:1026F000431580915B1590915715322F3095932398
:102700008223892B90916B00C227C923C823209371
:102710004315CC23C1F1C0FF05C0E0914415F091F1
:1027200045150995C1FF05C0E0914615F091471583
:102730000995C2FF05C0E0914815F091491509952A
:10274000C3FF05C0E0914A15F0914B150995C4FFF0
:1027500005C0E0914C15F0914D150995C5FF05C0D8
:10276000E0914E15F0914F150995C6FF05C0E09117
:102770005015F09151150995C7FF05C0E09152150C
:10278000F09153150995FF91EF91CF91BF91AF91C2
:102790009F918F917F916F915F914F913F912F9179
:1027A0000F900BBE0F900FBE0F901F9018951F92A9
:1027B0000F920FB60F9211240BB60F922F933F93E7
:1027C0004F935F936F937F938F939F93AF93BF9339
:1027D000EF93FF93E0910E15F0910F150995FF917E
:1027E000EF91BF91AF919F918F917F916F915F9189
:1027F0004F913F912F910F900BBE0F900FBE0F90F6
:102800001F9018951F920F920FB60F9211240BB6BE
:102810000F922F933F934F935F936F937F938F9379
:102820009F93AF93BF93EF93FF93E0910C15F091BB
:102830000D150995FF91EF91BF91AF919F918F91E8
:102840007F916F915F914F913F912F910F900BBEB0
:102850000F900FBE0F901F9018951F920F920FB6FA
:102860000F9211240BB60F922F933F934F935F93C8
:102870006F937F938F939F93AF93BF93EF93FF9348
:10288000E0910A15F0910B150995FF91EF91BF9119
:10289000AF919F918F917F916F915F914F913F91F8
:1028A0002F910F900BBE0F900FBE0F901F90189599
:1028B000BF92CF92DF92EF92FF920F931F93CF932D
:1028C000DF93CDB7DEB72C970FB6F894DEBF0FBEFF
:1028D000CDBF6C01FC01848595850E94CC6DF6010D
:1028E000E484F584C7010E94CC6DF701178E10A215
:1028F00011A212A2B3A0BB2041F16DE777E0C7019E
:102900000E94F56E28E833E140E050E0B701CE01C7
:1029100007960E948D16F70180859185813096403B
:10292000D9F469E777E0C7010E94F56E0BEE11E17B
:1029300022EF31E148E853E160E070E0C7010E9416
:102940008E5BC7010E943B1007C065E0C7010E9473
:102950005F108111D2CF2AC0BE01695F7F4FCE01C7
:1029600001960E949D78AE014F5F5F4F66E777E06A
:10297000C7010E94AB25CE0101960E9433780BEE71
:1029800011E122EF31E148E853E160E070E0C70176
:102990000E948E5BC7010E943B10B11003C0C701AB
:1029A0000E942910CE0107960E943378F601848593
:1029B00095850E94CC6DF601158A2C960FB6F89479
:1029C000DEBF0FBECDBFDF91CF911F910F91FF9062
:1029D000EF90DF90CF90BF9008952F923F924F924B
:1029E0005F926F927F928F929F92AF92BF92CF929F
:1029F000DF92EF92FF920F931F93CF93DF93CDB7A8
:102A0000DEB762970FB6F894DEBF0FBECDBF9E87CC
:102A10008D876B015A8B498B3901DC011C968D9196
:102A20009C911D970E94CC6DED85FE85F685FF87F4
:102A3000AD85BE851C960D911C911D97F80133A0A4
:102A40003320A9F0B601CE0101967C010E94A67840
:102A5000580191E1A90EB11CB701C5010E94A676EB
:102A6000982EC7010E943378911022C007C065E0FC
:102A7000C8010E945F108111E5CF09C1B601C701ED
:102A80000E94A678EA14FB0421F0B701C5010E9458
:102A9000B776C7010E943378D80159961C9259978E
:102AA0005A961C925A975B961C925B975C961C9266
:102AB0001B821C821D821E82F801418D528D638D06
:102AC000748D8B819C81AD81BE81481759076A073F
:102AD0007B0709F0ABC068EC76E0CE0107960E9458
:102AE000A67860E170E0CE0107960E94F1760E9420
:102AF0003D824B015C0128EE33E0D3010E940F9D23
:102B00002B013C01D80193962C9021105DC065E00B
:102B1000C8010E945F10811157C083EE92E09A8332
:102B200089831B821C821D821E8273C00E943D828B
:102B3000DC01CB0188199909AA09BB0984159505FF
:102B4000A605B70590F462E070E080E090E00E9496
:102B50000382F80180819181DC01ED91FC91008478
:102B6000F185E02D099504970CF3F80160817181DE
:102B7000C7010E94DD5BB701CE0107960E94B776C0
:102B8000C7010E943378CE0107960E941676CE01C7
:102B900007960E940E58811111C06DE677E0C701BB
:102BA0000E946578B701CE0107960E94A676888BB1
:102BB000C7010E943378B889BB23D9F064EC79E06F
:102BC00080E090E00E9403820E943D82DC01CB0104
:102BD00088199909AA09BB0984159505A605B705A1
:102BE00008F073C0A60163E777E0C8010E94836E16
:102BF000B0CF211008C0DD24D394C8010E94291051
:102C0000DD2009F48ACFBE01695F7F4FC7010E94B2
:102C1000016ECE0107960E9433788B819C81AD8135
:102C2000BE81F801818F928FA38FB48FD8015996FE
:102C30004D915D916D917C915C971B821C821D82F0
:102C40001E828B819C81AD81BE81481759076A071E
:102C50007B07B1F083EE92E09A838983F801818D3E
:102C6000928DA38DB48D8B839C83AD83BE832F8582
:102C700049895A89B701C8010E941B26F82E01C054
:102C8000F12C311003C0C8010E9429108F2DAD8591
:102C9000BE8555968C9390E062960FB6F894DEBF91
:102CA0000FBECDBFDF91CF911F910F91FF90EF909D
:102CB000DF90CF90BF90AF909F908F907F906F905C
:102CC0005F904F903F902F900895211026CFD12CE8
:102CD00094CF680F791F20E030E086179707D9F06E
:102CE000FC014191CF012427422F42954227042E17
:102CF000469546954025042E469540254770022E60
:102D0000232F469507944795302D24270694479501
:102D100030252427E2CFC90108958F929F92AF9268
:102D2000BF92CF92DF92EF92FF920F931F93CF93B8
:102D3000DF93EC018B0169017A0162E070E080E0D1
:102D400090E00E9403820E943D824B015C01D80109
:102D50008D919C91DC01ED91FC910084F185E02D39
:102D60000995892B69F40E943D82DC01CB01881909
:102D70009909AA09BB098C159D05AE05BF0538F355
:102D8000F80160817181CE010E94DD5BCE010E945D
:102D90001676CE01DF91CF911F910F91FF90EF90AA
:102DA000DF90CF90BF90AF909F908F900895CF927B
:102DB000DF92EF92FF920F931F93CF93DF93CDB7E4
:102DC000DEB72B970FB6F894DEBF0FBECDBF9A01CA
:102DD000AB01BC01CE0101960E948D16CE01019679
:102DE0000E940E58882331F061E875E0CE0101960B
:102DF0000E9405788E01095F1F4F85E0F80111924E
:102E00008A95E9F745E050E0B801CE0101960E94AD
:102E1000455A40E150E060E070E0C8010E94109621
:102E20006B017C01CE0101960E943378C6012B967E
:102E30000FB6F894DEBF0FBECDBFDF91CF911F91CB
:102E40000F91FF90EF90DF90CF9008958F929F9217
:102E5000AF92BF92CF92DF92EF92FF920F931F93A8
:102E6000CF93DF9300D000D000D0CDB7DEB76C0198
:102E70007B018A011092DA151092D9156CEC7FE073
:102E80000E947298892B09F051C069EB7FE0C7015D
:102E90000E947298892B71F4B8018DE898E00E9425
:102EA000FB9F63E97FE085EE98E00E941C7A6DE865
:102EB00078E052C56AE87FE0C7010E947298892BCA
:102EC00071F4B80187E698E00E94FB9F6FE67FE00F
:102ED00085EE98E00E941C7A67E678E03DC56EE5D5
:102EE0007FE0C7010E947298892B71F4B80183EBCF
:102EF00098E00E94FB9F6BE37FE085EE98E00E94E4
:102F00001C7A63EB78E028C563E27FE085EE98E009
:102F10000E941C7AB70185EE98E00E94FA796FE171
:102F200077E085EE98E00E94FA7915C56DE17FE0C3
:102F3000C6010E947298892B09F0AFC06CE17FE056
:102F400085EE98E00E941C7A4AE050E060912C11D6
:102F500085EE98E00E948F796BE377E085EE98E04C
:102F60000E94FA79B70185EE98E00E94FA7969E14A
:102F70007FE085EE98E00E941C7AB80185EE98E02B
:102F80000E94FA79D12CAD2CB12CC501880F991F64
:102F90009C01235A324F5901D901ED91FC9161896D
:102FA0007289CE0101960E94A678B70189819A8123
:102FB0000E94F29F4C01CE0101960E94337889282D
:102FC00069F4F50180819181DC0152961C930E9386
:102FD0005197B8010E94C52354E0D52ED394B3E095
:102FE000BD1588F6E4E0DE1619F067E07FE04BC01F
:102FF00061E07FE0C7010E947298892B09F041C00F
:1030000080912C1190E00497CCF563EF7EE085EE83
:1030100098E00E941C7AE0912C11F0E0EE0FFF1F67
:10302000E35AF24F0190F081E02D61897289CE015F
:1030300001960E94A678BE016F5F7F4F85EE98E0F3
:103040000E94FC79CE0101960E94337861EF7EE008
:1030500085EE98E00E94407AE0912C11F0E0EE0FAE
:10306000FF1FE35AF24F80819181DC0152961C933D
:103070000E935197B8010E94C52309C069ED7EE007
:1030800002C064EC7EE085EE98E00E94407A809178
:103090002C118F5F80932C1163C46DEB7EE0C60111
:1030A0000E947298892B09F042C163EB7EE0C70150
:1030B0000E947298892BB9F46DE97EE085EE98E064
:1030C0000E941C7AB80185EE98E00E947D79B801D3
:1030D00082EB97E00E94FB9F82EB97E09093970929
:1030E000809396093DC464E87EE0C7010E9472980F
:1030F000892B09F06AC04AE050E0BE016F5F7F4F44
:10310000C8010E943E976B017C011616170618062F
:1031100019060CF04BC08091D9159091DA15829761
:1031200009F444C0B9E6CB16B1E0DB06E104F104D2
:10313000ECF06FE47EE085EE98E00E941C7A68E691
:1031400071E085EE98E00E94BD5562E37EE085EE79
:1031500098E00E941C7AC701B6010E94B32328E6BA
:10316000C22EDD24D394E12CF12C17C069E07EE05F
:1031700085EE98E00E941C7AB701A60185EE98E0E2
:103180000E948B5565EF7DE085EE98E00E941C7AE9
:103190006FE085EE98E00E947755D0929909C09231
:1031A0009809D092AF07C092AE07DAC366ED7DE012
:1031B00085EE98E00E941C7A68E671E085EE98E062
:1031C0000E94BD5569EC7DE082C26CEB7DE0C701D9
:1031D0000E947298892B29F54AE050E0BE016F5F8A
:1031E0007F4FC8010E943E976B017C01DC01CB013F
:1031F0000197A109B1090497A105B10578F480915F
:10320000D9159091DA15829749F0D092A010C0920A
:103210009F10C092B10766EA7DE059C26DE77DE07C
:1032200056C262E77DE0C7010E947298892B09F5BA
:103230004AE050E0BE016F5F7F4FC8010E943E9799
:103240006B017C01653071058105910578F48091F1
:10325000D9159091DA15829749F0D092A010C092BA
:103260009F10C092B1076EE57DE031C265E37DE05D
:103270002EC26BE27DE0C7010E947298892B29F56E
:103280004AE050E0BE016F5F7F4FC8010E94109678
:103290006B017C01DC01CB010C96A11DB11D49978E
:1032A000A105B10578F48091D9159091DA1582972E
:1032B00049F065E17DE085EE98E00E941C7AC092BD
:1032C000B00709C262EE7CE002C262ED7CE0C70199
:1032D0000E947298892BE9F461EC7CE085EE98E01D
:1032E0000E941C7AB80185EE98E00E947D79F80171
:1032F00001900020E9F73197E01BF10BFC9718F0E3
:10330000D801DD961C92B80187EC97E00E94FB9FE4
:1033100027C365EB7CE085EE98E00E941C7AB7013C
:1033200085EE98E00E94FA7960EB7CE010C368EAD1
:103330007CE0C6010E947298892B71F46BE97CE0F5
:1033400085EE98E00E941C7AB70185EE98E00E9415
:10335000FA7966E97CE0FBC26EE87CE0C6010E9477
:103360007298892B09F0CAC167E87CE0C7010E9406
:103370007298892B09F068C061E77CE085EE98E0DF
:103380000E941C7A6091D20E7091D30ECE010196EC
:103390000E94A678BE016F5F7F4F85EE98E00E9485
:1033A000FC79CE0101960E943378F801019000204B
:1033B000E9F731977F01E01AF10A8E2D1093D30EB1
:1033C0000093D20E813250F06E2D85E098E00E947D
:1033D0002C49F801EE0DF11D108280E22091D60EED
:1033E0003091D70E232B49F490E002960E94EF947F
:1033F0009093D70E8093D60E04C083ED97E00E9481
:10340000AD368091D60E9091D70E009739F460E0DA
:1034100070E089EA97E00E9418490BC0B8010E9449
:10342000FB9F8091D60E9091D70E9093D30E8093F0
:10343000D20E69E67CE085EE98E00E941C7A6091ED
:10344000D20E7091D30E6FC061E67CE0C7010E947E
:103450007298892B09F077C06AE47CE085EE98E0E9
:103460000E941C7A6091D40E7091D50ECE01019607
:103470000E94A678BE016F5F7F4F85EE98E00E94A4
:10348000FC79CE0101960E943378F801019000206A
:10349000E9F731977F01E01AF10A8E2D1093D50ECE
:1034A0000093D40E803450F06E2D84E998E00E9491
:1034B0002C49F801EE0DF11D10828FE32091D80EFA
:1034C0003091D90E232B49F490E002960E94EF949C
:1034D0009093D90E8093D80E04C081E698E00E94A4
:1034E000AD368091D80E9091D90E009739F460E0F6
:1034F00070E086E398E00E9418490BC0B8010E9472
:10350000FB9F8091D80E9091D90E9093D50E809309
:10351000D40E62E47CE085EE98E00E941C7A609113
:10352000D40E7091D50ECE0101960E94A678BE01F0
:103530006F5F7F4F85EE98E00E94FC79CE01019687
:103540000E943378E9C16FE27CE0C7010E94729863
:10355000892B49F54AE050E0BE016F5F7F4FC801FB
:103560000E9410966B017C01DC01CB01845691090D
:10357000A109B1098D3C9447A105B10588F480915A
:10358000D9159091DA15829759F06EE07CE085EEBE
:1035900098E00E941C7AD0920201C09201019BC067
:1035A0006FEC7BE094C06CEB7BE0C7010E947298EB
:1035B000892BD9F44AE050E0BE016F5F7F4FC8010C
:1035C0000E9410966B017C01693873418105910559
:1035D00048F48091D9159091DA15829719F06CE929
:1035E0007BE075C060E67BE072C063E57BE0C7010D
:1035F0000E947298892BD9F44AE050E0BE016F5FB7
:103600007F4FC8010E9410966B017C0163337105E6
:103610008105910548F48091D9159091DA1582972A
:1036200019F069E37BE053C065E07BE050C064EFD4
:103630007AE0C7010E947298892B09F54AE050E0B0
:10364000BE016F5F7F4FC8010E9410966B017C0125
:103650006F3171058105910578F48091D9159091AC
:10366000DA15829749F066ED7AE085EE98E00E94DF
:103670001C7AC09200012FC06EE97AE028C06EE883
:103680007AE0C7010E947298892B51F54AE050E018
:10369000BE016F5F7F4FC8010E9410966B017C01D5
:1036A0008FE1C816D104E104F10478F48091D915B2
:1036B0009091DA15829749F061E77AE085EE98E01B
:1036C0000E941C7AC0925E0706C06AE37AE085EE2B
:1036D00098E00E941C7AC701B6010E94B32340C142
:1036E0006DE27AE085EE98E00E941C7AB70185EEE3
:1036F00098E00E94FA7968E27AE029C163E27AE010
:10370000C6010E947298892B09F0ABC068E17AE08B
:10371000C7010E947298892BD1F4F8010190002012
:10372000E9F73197E01BF10B749718F0D801559623
:103730001C92B80182E697E00E94FB9F6CE07AE061
:1037400085EE98E00E941C7A62E677E005C163E0AE
:103750007AE0C7010E947298892BC9F4F8010190A0
:103760000020E9F73197E01BF10B749710F0F80196
:10377000158AB80187E797E00E94FB9F61EF79E027
:1037800085EE98E00E941C7A67E777E0E5C067EE77
:1037900079E0C7010E947298892BD1F4F801019059
:1037A0000020E9F73197E01BF10B3A9718F0D801A8
:1037B0001B961C92B8018CE897E00E94FB9F6CED71
:1037C00079E085EE98E00E941C7A6CE877E0C4C04E
:1037D0006FEC79E0C7010E947298892BA1F56BEC20
:1037E00079E0C8010E947298892B51F565EB79E068
:1037F00085EE98E00E94407A67E470E081E697E009
:103800000E9469169093600780935F079FE5E92EF9
:1038100097E0F92E00E010E0F701D1907F01C80198
:103820000E94519CD81621F06D2DC8010E94599C10
:103830000F5F1F4F0934110579F76FE979E05CC01C
:103840006BE779E060C061E779E085EE98E00E947F
:103850001C7AB70185EE98E00E94FA796CE679E06F
:1038600076C067E679E0C6010E947298892B09F05C
:1038700056C060E679E0C7010E947298892B09F072
:103880006FC06AE579E0C8010E947298892B59F5EA
:1038900069E379E085EE98E00E94407A6FE271E09A
:1038A0008AEA97E00E9469169093A9078093A80777
:1038B00088EAE82E87E0F82E09E410E0D701DD90D1
:1038C0007D01C8010E94519CD81621F06D2DC801C0
:1038D0000E94599C0F5F1F4F0A37B1E01B0771F719
:1038E00063E279E009C06EE179E0C8010E94729854
:1038F000892B39F46FEF78E085EE98E00E94407AEA
:103900002FC06BED78E085EE98E00E941C7AB8013C
:1039100085EE98E00E94FA7964E875E01DC06BECD2
:1039200078E085EE98E00E941C7AB60185EE98E07A
:103930000E94FA7968EC78E085EE98E00E94407A7F
:10394000B70185EE98E00E94FA7966EC78E085EEA2
:1039500098E00E941C7AB80185EE98E00E947D797B
:1039600081E090E026960FB6F894DEBF0FBECDBF83
:10397000DF91CF911F910F91FF90EF90DF90CF904B
:10398000BF90AF909F908F9008958091830981118F
:1039900007C080918409811103C081E0809382096E
:1039A00008954F925F926F927F92AF92BF92CF92A3
:1039B000DF92EF92FF920F931F93CF93DF938C01CF
:1039C000DC0116967C9077FE07C08DEE9FE00E948A
:1039D000AD3685ED9FE03DC1EC01C859DD4F1B823E
:1039E00018821D8282599D4F9A8389830E943D824D
:1039F0006B017C01A980BA80F501728261E0872D9C
:103A00000E94B08161E0D50112968C910E94818163
:103A1000BFB6F89480912D11811127C0E4E5F5E13E
:103A20008491E4E7F5E19491E82FF0E0EE0FFF1FB9
:103A3000ED5DF44EA591B491EC91E92321F461E0A0
:103A40008CE00E94818161E08CE00E94B0818CB5A5
:103A500080618CBD8CB580648CBD61E08FE00E947C
:103A6000B08161E08DE00E94B08180912D118F5F67
:103A700080932D11BFBEE981FA8182E5808381E0C8
:103A800081838B81811103C0CE010E941C2B5801C0
:103A9000B7E9AB1ABDEFBB0AD501ED91FC9161E02E
:103AA00082810E9481814AE0742E8FEF0E94302B28
:103AB0007A947110FACFD501ED91FC9160E082818A
:103AC0000E9481813AE0B32E20E030E0A90160E05D
:103AD000CE010E94A12BA82EB1E08B1799F0BA94C9
:103AE000B11002C080E267C08DEF0E94302B28E049
:103AF000622E22E0722E0E94352BE1E06E1A7108D0
:103B0000D1F7E2CF2AEA31E040E050E068E0CE01B0
:103B10000E94A12B853029F4F801E359FD4FA082C2
:103B200012C094E0B92E0E94352B8C83BA94B11048
:103B3000FACF8A3A31F482E0F801E359FD4F8083ED
:103B400002C085E238C05801F3E9AF1AFDEFBF0AA1
:103B5000D5018C91823021F0412C512C320105C0CD
:103B6000412C512C612C80E4782E20E030E0A9011A
:103B700067E3CE010E94A12BA301920169E2CE016D
:103B80000E94A12B882349F00E943D826C197D0977
:103B9000613D774050F383E40EC0F50180818230AF
:103BA000E9F420E030E0A9016AE3CE010E94A12BF4
:103BB000882331F087E38883CE010E94572B43C0CE
:103BC0000E94352B807C803C19F483E0D5018C93D6
:103BD0000E94352B0E94352B0E94352BCE010E946E
:103BE000572BE981FA8180E5808381E08183F801A8
:103BF000D2A3C1A37801F1E2EF0EF11CE801C85B8A
:103C0000DD4FCE010E94FE6B61E0C7010E94E72CF0
:103C1000882339F0B701CE010E94E46B882399F024
:103C200007C060E0C7010E94E72C8111F3CF0BC0F1
:103C3000209749F08881807731F0D0930915C0939F
:103C4000081581E009C089E390E10E94AD3681E268
:103C500090E10E94AD3680E0DF91CF911F910F91EE
:103C6000FF90EF90DF90CF90BF90AF907F906F90DC
:103C70005F904F9008957F928F929F92AF92BF92E4
:103C8000CF92DF92EF92FF920F931F93CF93DF9328
:103C9000CDB7DEB7AC970FB6F894DEBF0FBECDBF81
:103CA0008C014B01742EE22EADB6BEB60E94D11C23
:103CB000811102C0F12C63C0D40114968C918F5FE6
:103CC000482F50E0EDB7FEB7E41BF50B0FB6F894A4
:103CD000FEBF0FBEEDBF2DB73EB72F5F3F4F69014F
:103CE000882321F0B901C4010E94455A480133E8F4
:103CF000831A3DEF930A45E0B601C4010E94132BDD
:103D0000F82E882321F0B8016F587D4F2FC07720FF
:103D100089F245E1B601C4010E94132BF82E8823D5
:103D200049F268018FE8C81A8DEFD80AB601CE01B2
:103D300001960E94477C62E0CE0101960E94FB7BC7
:103D4000EE2099F0D801ED91FC910480F581E02DF1
:103D5000B601C8010995B601CE0101960E94477CC3
:103D600064E0CE0101960E94FB7BB601CE01019674
:103D70000E94477C61E0CE0101960E94FB7B8F2D63
:103D80000FB6F894BEBE0FBEADBEAC960FB6F8949B
:103D9000DEBF0FBECDBFDF91CF911F910F91FF907E
:103DA000EF90DF90CF90BF90AF909F908F907F90DB
:103DB00008952F923F924F925F926F927F928F92CF
:103DC0009F92AF92BF92CF92DF92EF92FF920F93AA
:103DD0001F93CF93DF93CDB7DEB762970FB6F894FA
:103DE000DEBF0FBECDBF7C016DB67EB67F866E8610
:103DF00081E080938309109282098EE991E10E940B
:103E0000AD3681E891E10E94AD3664E670E080E075
:103E100090E00E940382D7011F968D919C9150974C
:103E2000009741F1DC01ED91FC910084F185E02DDA
:103E30000995F70187859089DC01ED91FC91068059
:103E4000F781E02D09958701035E1F4FC8010E948D
:103E5000E65DF70187859089DC01ED91FC91028890
:103E6000F389E02D40E553EC60E070E00995C8016E
:103E70000E94E65DF701858596850E94453CD70145
:103E80001D960D911C911E97A12CB12CF8018281D9
:103E9000A81650F5CA2CD12CB601C8010E94BB3B14
:103EA000882391F0CC0CDD1CD801ED91FC91EC0D38
:103EB000FD1D0190F081E02D0190F081E02DE85B87
:103EC000FF4F808183FDB394A394E0CFCA2CD12C03
:103ED000B601C8010E94BB3B81110CC0A394D8015C
:103EE00012968C91A81690F3F8018381B81690F57C
:103EF000A12CF5CFCC0CDD1CD801ED91FC91EC0D83
:103F0000FD1D0190F081E02D80819181FC01E85B35
:103F1000FF4F208123FDE2CFDC01ED91FC91028C6B
:103F2000F38DE02D60E009958823C1F2F8018081CE
:103F30009181FC01EC0DFD1D0190F081E02D80814F
:103F40009181DC01ED91FC910288F389E02D0995C6
:103F5000B394C4CFB9E1B88B1701EDE12E0E311C3B
:103F600086E591E10E94AD36D7011F968D919C9117
:103F70005097DC01ED91FC91068CF78DE02D0995B1
:103F8000C1010E94E65DF701058516856DB67EB616
:103F90007D866C86D80112968C91EDB7FEB7E81B32
:103FA000F1090FB6F894FEBF0FBEEDBF2DB73EB7B7
:103FB0002F5F3F4F5901812CD80112969C90891494
:103FC00060F4C82CD12CB601C8010E94BB3BF5019E
:103FD000EC0DFD1D80838394EFCF892D90E0EDB72C
:103FE000FEB7E81BF90B0FB6F894FEBF0FBEEDBF8E
:103FF0002DB73EB72F5F3F4F398728876901F901F9
:104000002E2F3885231B291510F41192F9CFADB747
:10401000BEB7A81BB90B0FB6F894BEBF0FBEADBF9D
:10402000EDB7FEB73196FB87EA87FA8BE98B25015E
:10403000A50120E030E0291510F020E01EC0DA01D3
:104040008D91AD01882399F0D8016D917C91C901C2
:10405000880F991F860F971FDC018D919C91DC01C1
:104060008D919C91DC0197968C91808301C0108288
:104070002F5F3F4F3196DFCF2F5FF801428124172A
:1040800060F5822F90E0F501E80FF91F30813323AE
:1040900099F3880F991FD801ED91FC91E80FF91F52
:1040A0000190F081E02D0190F081E02D36A1CF014B
:1040B0000296B89640E03417F9F2DC01612C6CE30B
:1040C000762E6CE1862E66EC962E6D927D928D9208
:1040D0009D92CD0111924F5FEECF80E090E0612C78
:1040E000841788F5F20121912F012223A9F0D8012C
:1040F000ED91FC919C01220F331FE20FF31F019001
:10410000F081E02D0190F081E02DE85BFF4F2081F0
:104110002871283109F00BC20196E989FA89319694
:10412000FA8BE98BFFEFCF1ADF0ADACFC52CD12C3F
:10413000F501EC0DFD1D808181110EC05394F80135
:104140008281581698F3D80113968C91681610F452
:10415000512CF5CF912C8EC0EA85FB85EC0DFD1D11
:104160007080888499848C0C9D1CD4014C904714D9
:1041700028F7CC0CDD1CD801ED91FC91EC0DFD1D58
:104180000190F081E02D80819181DC01ED91FC9125
:10419000048CF58DE02D60E00995882309F440C07A
:1041A000D801ED91FC91EC0DFD1D0190F081E02D09
:1041B00080819181FC01E85BFF4F208125FD07C0D4
:1041C000DC01ED91FC910688F789E02D0995D80175
:1041D000ED91FC91EC0DFD1D0190F081E02D8081B1
:1041E0009181DC01ED91FC91068CF78DE02D60E072
:1041F00009958823A9F0F80180819181FC01EC0DDB
:10420000FD1D0190F081E02D80819181DC01ED9117
:10421000FC91008CF18DE02D09954394F4014082CE
:10422000D4018C9178128ACF639488CFC92CD12C79
:10423000F501EC0DFD1D80818823D9F0CC0CDD1C2F
:10424000D801ED91FC91EC0DFD1D0190F081E02D68
:10425000808191810E949739F80180819181FC01D0
:10426000EC0DFD1D0190F081E02D808191810E9477
:10427000243A9394F80182819816C0F26C847D846C
:104280000FB6F8947EBE0FBE6DBE0E947930AB01B2
:10429000BC01CE0101960E944E2FBE016F5F7F4F81
:1042A0008FE391E10E94253BCE0101960E94337875
:1042B00087E291E10E94AD36D7011D96CD90DC904A
:1042C0001E97B12CF6018281B81608F0B3C00B2DF1
:1042D00010E0000F111F0190F081E02DE00FF11FA1
:1042E00060817181DB0112968C911297882391F184
:1042F0001B966D917C911C97CE0101960E94A67829
:10430000BE016F5F7F4F85EE98E00E94FC79CE0181
:1043100001960E94337869EB70E185EE98E00E9487
:104320001C7AD601ED91FC91E00FF11F6081718143
:10433000CE0101960E94AE4EBE016F5F7F4F85EEAB
:1043400098E00E94FC79CE0101960E94337867EBD9
:1043500070E14CC0CE0101960E94543BBE016F5FDC
:104360007F4F85EE98E00E94FC79CE0101960E9475
:1043700033786DEA70E185EE98E00E941C7AD601F0
:10438000ED91FC91E00FF11F0190F081E02D63852C
:104390007485CE0101960E94A678BE016F5F7F4FA3
:1043A00085EE98E00E94FC79CE0101960E94337858
:1043B00068EA70E185EE98E00E941C7AD601ED91E2
:1043C000FC91E00FF11F60817181CE0101960E9486
:1043D000AE4EBE016F5F7F4F85EE98E00E94FC7984
:1043E000CE0101960E94337866EA70E185EE98E08E
:1043F0000E941C7AF60180819181FC01E00FF11F7F
:104400000190F081E02D65857685CE0101960E94B0
:10441000A678BE016F5F7F4F85EE98E00E94FC7921
:10442000CE0101960E94337885EE98E00E9479795A
:10443000B39448CF8FE091E10E94AD36C1010E9454
:10444000E65D68E873E180E090E00E940382C101CC
:104450000E94E65DF889F150F88BF11181CD57018A
:104460002DE1A20EB11CD7011D96CD90DC901E97B8
:10447000912CF60182819816E8F4092D10E0B8011C
:10448000C6010E94BB3B882399F0000F111FD60183
:10449000ED91FC91E00FF11F0190F081E02D808102
:1044A0009181DC01ED91FC910488F589E02D09955D
:1044B0009394DFCFF701C584D684912CD601129650
:1044C0008C919816E8F4092D10E0B801C6010E94FD
:1044D000BB3B882399F0000F111FD601ED91FC9191
:1044E000E00FF11F0190F081E02D80819181DC01CE
:1044F000ED91FC910088F189E02D09959394DECF30
:10450000F701878590890097C9F0DC01ED91FC9156
:104510000488F589E02D0995F70187859089DC01EC
:10452000ED91FC910684F785E02D099507C0E98996
:10453000FA892081D6012C936394EECD8AEF90E125
:104540000E94AD368FEC90E10E94AD36C5010E940D
:10455000E65D1092830960E0C7010E94E0626E840C
:104560007F840FB6F8947EBE0FBE6DBE62960FB606
:10457000F894DEBF0FBECDBFDF91CF911F910F9199
:10458000FF90EF90DF90CF90BF90AF909F908F9073
:104590007F906F905F904F903F902F900895CF92B3
:1045A000DF92EF92FF920F931F93CF93DF93CDB7DC
:1045B000DEB7AC970FB6F894DEBF0FBECDBF8C014F
:1045C0007C0183E6E81A8DEFF80AC7010E940E58B5
:1045D000882319F0C8010E948B6420E040E0B701F5
:1045E000C8010E943B1E811116C0C7010E940E58CF
:1045F000882319F0C8010E948B6421E041E0B701D3
:10460000C8010E943B1ED82E811105C08AE890E1A6
:104610000E94AD3640C068018FE8C81A8DEFD80AF5
:10462000B601C8010E940F64B701CE0101960E9435
:104630009D784CE650E1BE016F5F7F4F83E790E1CC
:104640000E942555CE0101960E94337865EE78E0F0
:10465000C8010E940F646AE085EE98E00E94A67986
:10466000B601CE0101960E94477C64E0CE0101961E
:104670000E94FB7BB601CE0101960E94477C61E05F
:10468000CE0101960E94FB7BC80183589D4F0E947A
:10469000FE6BDD24D3948D2DAC960FB6F894DEBF5F
:1046A0000FBECDBFDF91CF911F910F91FF90EF9083
:1046B000DF90CF900895FF920F931F93CF93DF93D6
:1046C0008C01FC01F3A0FF20A1F06AEF71E1C801A9
:1046D0000E94F56E48EE53E060E070E0C8010E9471
:1046E000D716D82FC92FF1100BC0C8010E9429106E
:1046F00007C065E00E945F108111E7CF90E002C023
:104700008D2F9C2FDF91CF911F910F91FF900895D6
:10471000EF92FF920F931F93CF93DF9300D000D0BF
:10472000CDB7DEB77C01862F4AE08E010F5F1F4FA9
:10473000B80190E00E949398F80101900020E9F7F9
:104740003197AF01401B510BB801C7010E94487758
:104750000F900F900F900F90DF91CF911F910F91BD
:10476000FF90EF900895CF93DF93AB01BC0185EEEE
:1047700098E00E948B55EC0185EE98E00E947979D3
:104780008C0F9D1FDF91CF9108950F931F93CF93AF
:10479000DF93EC018B018B899C89892B31F486E2B4
:1047A00090E00E94EF949C8B8B8BAB89BC89109717
:1047B00049F4B8018DEF91E1DF91CF911F910F91F5
:1047C0000C94184986E2F80101900D928A95E1F760
:1047D0008B899C899A8B898BDF91CF911F910F9147
:1047E0000895FF920F931F93CF93DF93EC018A8577
:1047F00087FD07C061E00E94B08161E08A850E9468
:1048000081810BA1002339F166EF71E1CE010E9495
:10481000F56E4BEE51E162EF71E1CE010E94D05B8B
:10482000F82E66EE71E1CE010E94F56E4BEE51E17D
:1048300062EF71E1CE010E94D05B11E0F11210E055
:1048400091E0813009F090E0192369F08EE690E064
:104850009F838E8308C06AE0CE010E945F10182FEC
:104860008111D2CF1EC061EE71E1CE010E94F56EC2
:104870004BEE51E162EF71E1CE010E94D05BF82E68
:10488000CE010E943B1091E0F91290E08123192F94
:104890001823CE010E940210011103C0CE010E9414
:1048A0002910812FDF91CF911F910F91FF900895D3
:1048B0006F927F928F929F92AF92CF92DF92EF9200
:1048C000FF920F931F93CF93DF93FC01308133FF4F
:1048D00074C03A01FCEB6F1AF7E07F0A30E8631608
:1048E000710408F06AC03FEF320F3C3008F065C039
:1048F0003FEF300F3F3108F060C0E7E1EE1508F4FC
:104900005CC0FBE3FC1508F458C0FA1508F455C068
:10491000DA2DC22F162F4C010E94B245882309F4CC
:104920004CC061E0C4010E94886CFC01892B09F431
:1049300044C0A301542F4427550F80E2C89F900123
:104940001124422B532B402B30E2C39E60011124D3
:104950008D2F90E095958795C82AD92AF12CFE2CA9
:10496000EE24FF0CFF0CFF0CCE28DF2810FF02C046
:10497000538B428B11FF09C0518B408BD786C68663
:104980008D2F8170D0FD84E6858712FF04C0518F82
:10499000408FD78AC68AF40186819781DF91CF91B3
:1049A0001F910F91FF90EF90DF90CF90AF909F906D
:1049B0008F907F906F900C94C96D80E0DF91CF91C4
:1049C0001F910F91FF90EF90DF90CF90AF909F904D
:1049D0008F907F906F90089530917911313208F067
:1049E0004BC0809155118111FCCF9091781122E03C
:1049F0002093551121E0209354112FEF2093531150
:104A00001092521130935111E8E5F1E1A1E3B1E1C7
:104A100020E0321721F041914D932F5FFACF109291
:104A2000301120913011990F922B90933011909169
:104A30002F11913061F410922F11909130119093B9
:104A4000BB009091BC0093FDF8CF95EC01C095EEB2
:104A50009093BC00909155119230E1F390915311D5
:104A60009F3F79F080915311803241F08091531132
:104A7000803331F084E005C081E003C082E001C0F2
:104A800083E01092571110927911109256110895E7
:104A9000FB0144815581608171810C9448770F93AB
:104AA0001F93CF93DF93CDB7DEB762970FB6F8941D
:104AB000DEBF0FBECDBF8C01CB01F8011182108289
:104AC00013821282158214824AE0BE016F5F7F4F0B
:104AD0000E949398BE016F5F7F4FC8010E940578C6
:104AE00062960FB6F894DEBF0FBECDBFDF91CF91B7
:104AF0001F910F910895EF92FF920F931F93CF9301
:104B0000DF93CDB7DEB727970FB6F894DEBF0FBEA1
:104B1000CDBF7C01CB014AE08E010F5F1F4FB80172
:104B20000E94B198F80101900020E9F73197AF0198
:104B3000401B510BB801C7010E94487727960FB65A
:104B4000F894DEBF0FBECDBFDF91CF911F910F91C3
:104B5000FF90EF900895CF92DF92EF92FF920F9324
:104B60001F93CF93DF93CDB7DEB762970FB6F8945C
:104B7000DEBF0FBECDBF8C016B01DC011496ED9042
:104B8000FC901597BA01CE010D960E949D7866E8BB
:104B900075E0F801808191810E94FA79BE01635F1E
:104BA0007F4FCE0107960E949D78B601D8018D9166
:104BB0009C910E941C7ABE01695F7F4FCE010196D5
:104BC0000E949D78BE016F5F7F4FF80180819181C7
:104BD0000E94FC79B701D8018D919C910E94FA79CD
:104BE000CE0101960E943378CE0107960E94337859
:104BF000CE010D960E943378F80180819181DC010D
:104C0000ED91FC910680F781E02D099562E070E05E
:104C100080E090E00E94038262960FB6F894DEBFB7
:104C20000FBECDBFDF91CF911F910F91FF90EF90FD
:104C3000DF90CF900895AF92BF92CF92DF92EF9224
:104C4000FF920F931F93CF93DF93CDB7DEB76D978E
:104C50000FB6F894DEBF0FBECDBF8C017B015A01A9
:104C6000C22EFC01178E10A211A212A2D3A0DD2029
:104C700091F0F70182819381A481B581F801458586
:104C800056856785708984179507A607B70749F485
:104C9000FF24F394A9C065E00E945F108111E9CF61
:104CA000D3C0F80185879687A787B08B68EC76E03C
:104CB000CE0148960E94A67860E170E0CE01489649
:104CC0000E94F176F7016281CE0148960E94882306
:104CD00069E875E0CE0148960E948977F701638103
:104CE000CE0148960E94882369E875E0CE01489677
:104CF0000E948977F7016481CE0148960E9488233B
:104D000069E875E0CE0148960E948977F7016581D0
:104D1000CE0148960E94882341E050E06EED71E19B
:104D2000C8010E94BC6E4BEE51E162EF71E1C80117
:104D30000E94D05BF82EBE01685E7F4FCE010196C7
:104D40000E949D78AE014F5F5F4F6BED71E1C8012E
:104D50000E94AB25CE0101960E9433784BEE51E1C3
:104D600062EF71E1C8010E94D05B21E0F21220E005
:104D700091E0813009F090E0E22EE9221B8A1A8A44
:104D80001D8A1C8A1F8A1E8A40E1BE016F5F7F4F09
:104D9000C5010E94B198BE016F5F7F4FCE01429660
:104DA0000E940578AE014E5E5F4F68ED71E1C8016B
:104DB0000E94AB25CE0142960E9433784BEE51E122
:104DC00062EF71E1C8010E94D05BF82EC8010E9419
:104DD0003B1021E0F21220E09E2D9823F22EF922C2
:104DE000CE0148960E943378F80180859185892B01
:104DF00019F4C8010E940210F80180859185813064
:104E0000964081F0C8010E945B239C0191E021152E
:104E1000310539F02F3F310521F02832310509F0F5
:104E200090E0F922FF2051F0F801EC0DF11DEC0D9E
:104E3000F11D0280F381E02D81E0858BD11003C04C
:104E4000C8010E9429108F2D6D960FB6F894DEBF11
:104E50000FBECDBFDF91CF911F910F91FF90EF90CB
:104E6000DF90CF90BF90AF900895AF92BF92CF9256
:104E7000DF92EF92FF920F931F93CF93DF93CDB703
:104E8000DEB762970FB6F894DEBF0FBECDBF1B82B0
:104E90001C821D821E82DC011D960D911D912D919B
:104EA0003C9150974B815C816D817E810417150781
:104EB0002607370709F491C17C01FC01D3A0DD204E
:104EC00059F0D70118968D919C911997892B51F41F
:104ED000C7010E94021006C065E00E945F108111A8
:104EE000F0CF7BC1F7018085918581309640B9F480
:104EF000C7010E94E2105C01D11003C0C7010E94EB
:104F00002910A114B10431F0D7011296ED91FC9152
:104F10001397158A11E0AB2809F462C15EC1C7017D
:104F20000E945B238C0168EC76E0CE0107960E941C
:104F3000A67860E170E0CE0107960E94F176F70155
:104F4000C3A0C1100FC065E0C7010E945F108111AE
:104F500009C083EE92E09E878D871F86188A198A82
:104F60001A8A41C06FEC71E1C7010E94F56ED7014A
:104F70006D917C91CE0101960E94DD5BBE016F5F59
:104F80007F4FCE0107960E94B776CE0101960E9410
:104F90003378CE0107960E941676C11003C0C70170
:104FA0000E942910CE0107960E940E588111D1CF80
:104FB00069EC71E1CE0101960E946578BE016F5FD8
:104FC0007F4FCE0107960E94A676C82ECE0101968D
:104FD0000E943378C110BDCFBE01695F7F4FCE0103
:104FE0000D960E94016ECE0107960E943378D11073
:104FF00003C0C7010E9429100132110509F4A2C0A3
:105000005CF40230110509F4CDC00231110509F438
:10501000C9C0012B91F0D2C00732110509F492C02A
:105020002CF40532110509F4BDC0C8C008321105C1
:1050300079F10F3F110561F1C1C08F859889A98968
:10504000BA89F701878F90A3A1A3B2A31B821C8208
:105050001D821E824B815C816D817E818417950744
:10506000A607B70709F4BBC04585568567857089D3
:10507000481759076A077B0709F4B1C082819381F9
:10508000DC01ED91FC910488F589E02D0995A5C01E
:105090001B821C821D821E828F859889A989BA89EC
:1050A0004B815C816D817E8184179507A607B707C8
:1050B00091F4F701478D50A161A172A119861A865A
:1050C0001B861C8609851A852B853C8504171507C8
:1050D0002607370779F410E01B821C821D821E828E
:1050E0004B815C816D817E8184179507A607B70788
:1050F00059F41EC0F701878F90A3A1A3B2A3028029
:10510000F381E02D158A69C0F701458556856785CD
:105110007089481759076A077B0751F0828193818C
:10512000DC01ED91FC910488F589E02D099558C0CA
:105130008F859889A989BA89F701878F90A3A1A340
:10514000B2A34DC065ED71E1C7010E94F56E28E87C
:1051500033E140E050E0B701CE0107960E948D1682
:10516000BE01695F7F4FCE0101960E949D78AE011E
:105170004F5F5F4F62ED71E1C7010E94AB25CE0129
:1051800001960E9433780BEE11E122EF31E148E8FD
:1051900053E160E070E0C7010E948E5BCE0107968C
:1051A0000E943378D7011D961C921D971E961C9263
:1051B0001E971F961C921F9750961C92D70112960D
:1051C000ED91FC911397158A8F859889A989BA89E1
:1051D000F701878F90A3A1A3B2A310E001C011E053
:1051E000812F62960FB6F894DEBF0FBECDBFDF9160
:1051F000CF911F910F91FF90EF90DF90CF90BF90D4
:10520000AF900895EF92FF920F931F93CF93DF9388
:1052100000D000D000D0CDB7DEB78C017A01DC0120
:105220008D919C91DC01ED91FC910280F381E02D48
:105230000995F80180819181DC01ED91FC91068056
:10524000F781E02D0995F8018085918581309640A0
:10525000E1F01B821C821D821E82D8015F964D9157
:105260005D916D917C9192978B819C81AD81BE8186
:10527000481759076A077B0721F4C8010E943527A0
:1052800004C0B6E0EB16F104C0F7C70126960FB6CE
:10529000F894DEBF0FBECDBFDF91CF911F910F916C
:1052A000FF90EF900895AF92BF92CF92DF92EF926E
:1052B000FF920F931F93CF93DF93CDB7DEB7659720
:1052C0000FB6F894DEBF0FBECDBF603823E472077F
:1052D0002DE6820728E39207A0F440E050E0BA01EF
:1052E000CE0101960E94843487E0FE013196DE01F2
:1052F000189601900D928A95E1F787E0FE013896A5
:105300000DC0AB01BC01405853446D467843CE01FB
:1053100001960E94843487E0FE013196DE011F96DB
:1053200001900D928A95E1F787E0FE013F96DE013C
:10533000119601900D928A95E1F71981EA80DB8040
:10534000FC80BD80AE80CF8081E08093561188E6DE
:1053500080937811109257111092791160E089EDC5
:1053600098E00E94A37F0AE08A2D602F0E94B39CE0
:10537000682F660F860F880F682F6A0D89ED98E0F9
:105380000E94A37F8B2D602F0E94B39C682F660F15
:10539000860F880F682F6B0D89ED98E00E94A37F20
:1053A0002F2D2F7B822F602F0E94B39C682F660FBA
:1053B000680F660F620F89ED98E00E94A37F6C2D45
:1053C00089ED98E00E94A37F8D2D602F0E94B39CF1
:1053D000682F660F860F880F682F6D0D89ED98E096
:1053E0000E94A37F8E2D602F0E94B39C682F660FB2
:1053F000860F880F682F6E0D89ED98E00E94A37FBD
:10540000812F602F0E94B39C682F660F680F660F74
:10541000610F89ED98E00E94A37F0E94EC246596BD
:105420000FB6F894DEBF0FBECDBFDF91CF911F91B5
:105430000F91FF90EF90DF90CF90BF90AF900895C5
:10544000FC01838594850895CF93DF931F92CDB798
:10545000DEB7698341E050E0BE016F5F7F4F0C967D
:105460000E94ED450F90DF91CF9108952F923F92CA
:105470004F925F926F927F928F929F92AF92BF9264
:10548000CF92DF92EF92FF920F931F93CF93DF9310
:10549000CDB7DEB727970FB6F894DEBF0FBECDBFEE
:1054A0000E94607B5C836D837E83632F822F90E0FC
:1054B0000E942E359C01A8E1B0E00E94A49C2C81A2
:1054C0007B018C01E20EF11C011D111DA801970149
:1054D000ACE3B0E00E94999C2D817B018C01E20E2F
:1054E000F11C011D111DA80197010E94999C2E819C
:1054F000DC01CB01820F911DA11DB11D80589C4B79
:10550000A249B74C1C012D0160916A1520E13EE0D3
:105510006203A001639F500D1124952F990F990BE1
:105520009A01492F592F692F792F892F5101620133
:10553000E12CF12C00E010E00E94169DB901CA0197
:1055400027960FB6F894DEBF0FBECDBFDF91CF9187
:105550001F910F91FF90EF90DF90CF90BF90AF9091
:105560009F908F907F906F905F904F903F902F9083
:105570000895CF93DF93EC01DB011D96ED91FC9133
:105580001E9790818181E92FF82FE40FF11DE40F20
:10559000F11D60817181CE010E94AE4ECE01DF917E
:1055A000CF910895FC01818587FD03C060E00C94D4
:1055B00081810895FC01818587FD03C061E00C9421
:1055C000818108951F93CF93DF93FC01878187FD2D
:1055D00014C0162FEF0161E00E94B08160E08F815E
:1055E0000E948181112349F068EE73E080E090E031
:1055F000DF91CF911F910C940382DF91CF911F9186
:105600000895FC01148615861382128288EE93E0B9
:10561000A0E0B0E084839583A683B78389ED93E00F
:10562000918380830895FB01242F60910815709168
:105630000915AF010C94076CCF93DF93EC01E9815E
:10564000FA81908181819CBD8DBDE981FA8160E004
:1056500082810E94818181E08B83DF91CF910895C7
:105660008EBD0DB407FEFDCF08958FEF8EBD0DB436
:1056700007FEFDCF8EB508950F931F93CF93DF9351
:10568000EB010E943D828B010E94352B8F3F49F038
:105690000E943D82601B710BC617D707A8F780E0F8
:1056A00001C081E0DF91CF911F910F910895CF93B9
:1056B000DF93FC012381222361F0EC010180F28160
:1056C000E02D61E082810E9481818FEF0E94302B6A
:1056D0001B82DF91CF9108950F931F93CF93DF9398
:1056E0008C01862FEA010E94302B88818EBD898132
:1056F000FE013296DE5F0DB407FEFDCF8EBDEC17C6
:10570000FD0711F08191F7CF0DB407FEFDCF8FEFAC
:105710000E94302B8FEF0E94302B0E94352BF80116
:1057200084838F71853039F087E58083C8010E94BA
:10573000572B80E001C081E0DF91CF911F910F9145
:105740000895FF920F931F93CF93DF9300D000D063
:10575000CDB7DEB78C01F62E29833A834B835C8369
:10576000FC018381811103C0C8010E941C2BFF2012
:1057700029F06CE271E0C8010E943C2B8F2D8064FF
:105780000E94302B8C810E94302B8B810E94302B09
:105790008A810E94302B89810E94302BFF2011F0DA
:1057A00087E801C085E90E94302B0E94352B8BE0F1
:1057B000F82E0E94352BF801848387FF03C0FA94EA
:1057C000F110F7CF0F900F900F900F90DF91CF91C6
:1057D0001F910F91FF9008950F931F93CF93DF9325
:1057E000EC0189018D81833039F089E0440F551F28
:1057F000661F771F8A95D1F79A01AB0168E1CE0148
:105800000E94A12B882311F082E323C0A8016EEF30
:10581000CE010E946C2B8823E9F060ED77E0CE0189
:105820000E943C2B182F811102C08AE512C020E093
:1058300030E0A9016DE0CE010E94A12B811108C0CA
:105840000E94352B811104C0CE010E94572B06C047
:1058500089E28883CE010E94572B10E0812FDF91CF
:10586000CF911F910F9108950F931F93CF93DF93C3
:10587000EC0189018D81833039F089E0440F551F97
:10588000661F771F8A95D1F79A01AB0161E1CE01BE
:105890000E94A12B882319F080E388830BC0B801F4
:1058A000CE010E942859182F882321F0CE010E9492
:1058B000572B04C0CE010E94572B10E0812FDF919F
:1058C000CF911F910F910895EF92FF921F93CF9365
:1058D000DF93FC01208120FF32C0EC017C01F7E066
:1058E000EF0EF11C4B815C816D817E81E981FA8133
:1058F0009701808191810E94EC2B182F811102C0A9
:1059000010E01EC0888181FD04C088818E7F88835D
:1059100017C0E981FA814B815C816D817E8184852C
:105920009585A685B785480F591F6A1F7B1F97016C
:10593000808191810E94EC2B8111E7CFE1CF11E0B2
:10594000812FDF91CF911F91FF90EF900895CF921B
:10595000DF92EF92FF921F93CF93DF93EC016A01E6
:105960007B01122F8B819C81AD81BE8184179507AD
:10597000A607B707F1F0CE010E94642C811103C085
:1059800080E090E01CC012FF06C01882CB82DC824F
:10599000ED82FE820EC0E981FA819E01295F3F4FB0
:1059A000B701A601808191810E94342C8111EDCF35
:1059B000E7CF13708881182B1883CE010796DF91EB
:1059C000CF911F91FF90EF90DF90CF900895CF92ED
:1059D000DF92EF92FF920F931F93CF93DF93EC012F
:1059E000162F1D8281E090E0A0E0B0E088879987C3
:1059F000AA87BB87DAA3C9A318A28FEF9FEFDC01A8
:105A00008BA39CA3ADA3BEA3662331F1653008F040
:105A1000C4C020E040E050E0BA01CE0180960E9470
:105A2000A72C009709F4B9C000E1109F800D911DCB
:105A300011244097FC01E254FE4F20812F7709F09A
:105A4000ACC03896C080D180E280F380C114D1040C
:105A5000E104F10421F4A1C0C12CD12C760120E095
:105A6000B701A601CE0180960E94A72CFC01892BCC
:105A700009F493C0838594858115924009F08DC007
:105A80008089823009F089C086859785892B09F441
:105A900084C025852A838FEF820F8B831C8249E087
:105AA00050E091E0921749F04150510909F475C056
:105AB000990F8C818F5F8C83F5CF4689578941156B
:105AC000510519F060E070E004C044A155A166A141
:105AD00077A14C875D876E877F878685978597013D
