:100000000C949F0D0C9468140C943D140C941214D1
:100010000C949D130C9428130C94B3120C943E1260
:100020000C941F630C94C90D0C94C90D0C94C90D4C
:100030000C947C350C94F3350C9431350C94C90D2B
:100040000C94C90D0C94C90D0C9487810C94C90DA6
:100050000C94727A0C94487A0C94C90D0C94C90DC6
:100060000C94C90D0C94C90D0C94647F0C94C90DAB
:100070000C94127A0C94E8790C94C90D0C94C90D67
:100080000C94C90D0C94C90D0C94C90D247F277FC5
:100090001A7F1E7F3E7F3E7F2B7F2F7F357F397FEC
:1000A00008000000BE922449123EABAAAA2ABECD87
:1000B000CCCC4C3E00000080BEABAAAAAA3E0000F9
:1000C0000000BF000000803F0000000000084178F1
:1000D000D3BB4387D1133D190E3CC3BD4282AD2B28
:1000E0003E68EC8276BED98FE1A93E4C80EFFFBE20
:1000F00001C4FF7F3F000000000000407A10F35A67
:1001000000A0724E18090010A5D4E80000E8764857
:10011000170000E40B54020000CA9A3B000000E103
:10012000F505000080969800000040420F00000096
:10013000A08601000000102700000000E803000076
:1001400000006400000000000A0000000000010040
:10015000000000002C76D888DC674F0823DFC1DF61
:10016000AE59E1B1B796E5E3E453C63AE651997664
:1001700096E8E6C28426EB898C9B62ED407C6FFC9E
:10018000EFBC9C9F40F2BAA56FA5F490055A2AF7E0
:100190005C936B6CF9676DC11BFCE0E40D47FEF5E9
:1001A00020E6B500D0ED902E030094357705008051
:1001B000841E080000204E0A000000C80C333333B0
:1001C000330F986E12831141EF8D2114893BE65550
:1001D00016CFFEE6DB18D1844B381BF77C1D901D33
:1001E000A4BBE424203284725E228100C9F124EC95
:1001F000A1E53D270A4C6F676765723A7365744CD9
:100200006F676765724964206572726F72202D2076
:100210006578706563746564204E554C4C2070742D
:1002200072000A0D2020204C6F676765723A736573
:10023000744C6F67676572496420746F6F206C6FD0
:100240006E673A205472696D6D656420746F20008A
:100250002020204C6F633D006261747465727920C8
:10026000747970653D006D696E757465732C2054EA
:100270007A3D005D0A0D2020206C6F6767696E670C
:1002800020696E74657276616C3D0046726F6D20F8
:10029000656570726F6D20636F6D6D6F6E3A204C87
:1002A0006F676765722046696C65204E616D655B9E
:1002B00000466163746F72792064656661756C7461
:1002C000006D734C6F673031005D005D20736E5BB5
:1002D000005D20207265765B0046726F6D2065655B
:1002E00070726F6D20626F6F74204E616D655B0080
:1002F000302E3562004D313233343536373839617E
:100300006263646566676800656E7669726F44490A
:1003100059206D6179666C7900506172736520694E
:100320006E693B204E6F2066696C652000436F6DDF
:10033000706C657465642E004572726F72206F6E0A
:10034000206C696E65203A00506172736520696E99
:10035000693B200056005620474F4F443D00562031
:100360004D454449554D3D0056204C4F573D0020CA
:100370005468726573686F6C6473205553454142CD
:100380004C453D0042617474657279205479706502
:100390003D0050757474696E67206D6F64656D20E3
:1003A000746F20736C65657000436F756C64206EAC
:1003B0006F742077616B65206D6F64656D20666F6B
:1003C0007220636C6F636B2073796E632E00436FD2
:1003D000756C64206E6F7420636F6E6E656374203D
:1003E000746F20696E7465726E657420666F72201A
:1003F000636C6F636B2073796E632E00546869734E
:10040000206D61792074616B6520757020746F2098
:1004100074776F206D696E75746573210041747413
:10042000656D7074696E6720746F20636F6E6E65A2
:10043000637420746F2074686520696E7465726ED1
:10044000657420616E642073796E6368726F6E6983
:100450007A65205254432077697468204E4953547A
:1004600000446174612077696C6C2062652073615F
:1004700076656420617300556E61626C6520746FEF
:100480002063726561746520612066696C65207403
:100490006F2073617665206461746120746F210040
:1004A00053657474696E672075702066696C652089
:1004B0006F6E2053442063617264005365747469E5
:1004C0006E672075702073656E736F72732E2E2E9B
:1004D0000054696D65200053796E632077697468F4
:1004E000204E495354206F76657220576946692023
:1004F0006E6574776F726B2000456E7669726F79E6
:100500004449595075626C697368657220736574EB
:100510005175656420000A0A2D2D2D706172736576
:10052000496E6920636F6D706C65746520002D2DB8
:100530002D7061727365496E692000476F6F64208A
:10054000426174563D002D2D2D2D57616B657570E0
:10055000003A20426174746572794C6F772D536C48
:1005600065657036307365632C20426174563D00BA
:1005700054696E7947534D204C69627261727920DB
:1005800076657273696F6E20004D6F64756C617271
:1005900053656E736F72732076657273696F6E2028
:1005A000000A2D2D2D426F6F742E204275696C64E8
:1005B0003A20007365727A426567696E20657272CF
:1005C0002072656D6F7665006465535243207265D5
:1005D0006D6F766520657272007365727A42656729
:1005E000696E2065727220636C6F73650064655379
:1005F000524320636C6F73652065727200646552AC
:10060000533B204E6F2066696C6520007365727ADB
:10061000517565645374617274206F70656E2065E6
:100620007272007365632E20517565756564207262
:10063000656164696E67733D0072656164696E67C8
:100640007320696E0053656E740070756244515476
:1006500052207365727A5175656446696C206572C3
:1006600072005D000A707562445154522053656EE9
:1006700064696E67206461746120746F205B007030
:1006800075624451545220706F7374734C6F674895
:100690006E646C2E6F70656E206572720073657289
:1006A0007A5264656C5F4C696E653B204E6F2066C4
:1006B000696C65002D2D2D2D2D2D2D2D2D2D2D2DE4
:1006C0002D2D2D2D2D2D2D2D2D2D2D2D2D2D2D2D5A
:1006D0002D2D2D2D2D2D2D2D2D2D2D2D2D2D0A009A
:1006E0002D2D2D2D2D2D2D2D2D2D2D2D2D2D2D2D3A
:1006F0002D2D2D2D2D2D2D2D2D2D2D2D2D2D2D2D2A
:100700002D2D2D2D2D2D2D2D2D2D00204C62617484
:10071000743D00206C6F672650756220565F6261E1
:10072000747400204C626174743D00204C6F674FFC
:100730006E6C792E205620746F6F206C6F7720625C
:10074000617474657279563D002D2D2D4E6577527A
:10075000656164696E672043414E43454C4C454496
:100760002D2D4C626174745F563D004552524F52BC
:10077000004C4100544D00544D3000544D00414D4B
:100780003000465200414D310041503000414D3063
:10079000004149002B2B2B00414300575200434E90
:1007A000004853004853000A4C6F676765724D6FED
:1007B00064656D3A3A7365745769466949642065A2
:1007C00072726F72202D6E6F206275666665722080
:1007D000000A4C6F676765724D6F64656D3A3A73D6
:1007E0006574576946694964206572726F72202D7D
:1007F000206578706563746564204E554C4C20709C
:100800007472000A0D2020204C6F676765724D6F6F
:1008100064656D3A73657457694669496420746FFD
:100820006F206C6F6E673A205472696D6D6564203D
:10083000746F20000A4C6F676765724D6F64656D59
:100840003A3A7365745769466950776420657272E5
:100850006F72202D6E6F2062756666657220000AC9
:100860004C6F676765724D6F64656D3A3A73657476
:1008700057694669507764206572726F72202D2027
:100880006578706563746564204E554C4C207074B7
:1008900072000A0D2020204C6F676765724D6F64EF
:1008A000656D3A7365745769466950776420746F53
:1008B0006F206C6F6E673A205472696D6D656420AD
:1008C000746F20003D005D20004E6F7420737570C2
:1008D000706F72746564205B00414354494F4E2031
:1008E00057726974652061626F727465642E206945
:1008F0006E737472756374696F6E20270041435480
:10090000494F4E20434F5059206E6F7420737570BD
:10091000706F72746564207965743A00434F505962
:1009200000454550524F4D205772697465206669E5
:100930006E697368656400414354494F4E20577295
:100940006974652061707020454550524F4D207389
:100950007461727465643A005752495445004143CA
:1009600054494F4E00555345520020746F200042A9
:100970004F4F54207462642000454550524F4D2023
:1009800057726974652061626F727465642E2069A4
:100990006E737472756374696F6E202700454550DD
:1009A000524F4D2057726974652066696E6973688D
:1009B000656400454550524F4D205772697465205B
:1009C000737461727465643A00594553004545502B
:1009D000524F4D5F575249544500426F6172642037
:1009E0005265763A00424F4152445F5245560042AA
:1009F0006F6172642053657269616C4E756D203A47
:100A000000424F4152445F534E00426F6172642076
:100A10004E616D653A00424F4152445F4E414D4533
:100A200000424F4F540020746F20004E4554574FE2
:100A3000524B207462642000434F4D4D4F4E205363
:100A400065742053454E445F4F46465345545F4DB1
:100A5000494E206572726F723B202872616E676525
:100A60002030203A2033302920726561643A0043F7
:100A70004F4D4D4F4E205365742053454E445F4FAC
:100A800046465345545F4D494E3A200053454E4427
:100A90005F4F46465345545F4D494E00434F4D4DC1
:100AA0004F4E2053657420434F4C4C4543545F5286
:100AB000454144494E4753206572726F723B20286E
:100AC00072616E67652030203A20333029207265CC
:100AD00061643A00434F4D4D4F4E2053657420439F
:100AE0004F4C4C4543545F52454144494E47533A5D
:100AF0002000434F4C4C4543545F52454144494EBE
:100B0000475300434F4D4D4F4E2053657420504F77
:100B100053545F4D41585F4E554D206572726F7250
:100B20003B202872616E67652030203A20353029DD
:100B300020726561643A00434F4D4D4F4E2053651E
:100B40007420504F53545F4D41585F4E554D3A20DD
:100B500000504F53545F4D41585F4E554D00434F29
:100B60004D4D4F4E205365742054494D45525F50B2
:100B70004F53545F504143455F4D53206572726F30
:100B8000723B202872616E67652030203A20353034
:100B900030302920726561643A00434F4D4D4F4E0D
:100BA000205365742054494D45525F504F53545F54
:100BB000504143455F4D533A200054494D45525FE3
:100BC000504F53545F504143455F4D5300434F4D89
:100BD0004D4F4E205365742054494D45525F504F40
:100BE00053545F544F55545F4D53206572726F726A
:100BF0003B202872616E676520313030203A203307
:100C0000303030302920726561643A00434F4D4DD9
:100C10004F4E205365742054494D45525F504F53F9
:100C2000545F544F55545F4D53203A200054494D62
:100C300045525F504F53545F544F55545F4D5300CE
:100C400027206E6F772027004E4554574F524B2078
:100C5000576946695077643A2077617320270057B7
:100C60006946695077640027206E6F772027004E11
:100C70004554574F524B205769466949643A20778B
:100C80006173202700576946694964004E455457EF
:100C90004F524B0020746F200053454E534F525318
:100CA00020746264200053454E534F525300207409
:100CB0006F2000434F4D4D4F4E207462642000471B
:100CC000454F47524150484943414C5F49443A00DF
:100CD00047454F47524150484943414C5F494400C2
:100CE000434F4D4D4F4E205365742054696D655AE6
:100CF0006F6E65206572726F723B202872616E673D
:100D000065202D3132203A202B3132292072656145
:100D1000643A00434F4D4D4F4E2053657420546943
:100D20006D655A6F6E653A200054494D455F5A4FC4
:100D30004E450020536574204C69496F6E205479EC
:100D40007065206572726F723B202872616E6765F4
:100D500020302D322920726561643A00434F4D4D99
:100D60004F4E204C69496F6E20547970653A2000CF
:100D70004C49494F4E5F54595045002053657420EB
:100D80004C69496F6E2054797065206572726F727C
:100D90003B202872616E676520302D3229207265F4
:100DA00061643A00434F4D4D4F4E2042617474656B
:100DB000727920547970653A20004241545445526A
:100DC000595F54595045002920776974682072652D
:100DD00061643A002053657420696E7465727661AF
:100DE0006C206572726F72202872616E67653A209E
:100DF000312D00286D696E292066726F6D20646543
:100E00006661756C742000434F4D4D4F4E204C4F22
:100E10004747494E475F494E54455256414C5F4DF6
:100E2000494E555445532073657420746F3A200021
:100E3000205573696E67204D61782E20526561647C
:100E4000696E672069676E6F7265642000434F4D5D
:100E50004D4F4E204C4F4747494E475F494E5445F2
:100E60005256414C5F4D494E55544553206D757354
:100E700074206265206C657373207468616E203A1B
:100E800020004C4F4747494E475F494E5445525604
:100E9000414C5F4D494E5554455300434F4D4D4FC6
:100EA0004E204C6F676765724964205365743A2021
:100EB000004C4F474745525F494400434F4D4D4F0B
:100EC0004E007D2055554944206E6F742073757017
:100ED000706F72746564007D206F7574206F66207A
:100EE00072616E67652E204E6F7475736564007D48
:100EF000007D207265706C6163696E67207B00699C
:100F00006E646578007D206D617463682020262002
:100F100061646465642E003D7B000055554944734F
:100F20000050524F5649444552206E6F74207375DD
:100F300070706F727465643A0050524F5649444560
:100F4000522053657474696E672053616D706C69CB
:100F50006E67466561747572653A200053414D5065
:100F60004C494E475F464541545552450050524FFB
:100F700056494445522053657474696E6720636C0A
:100F80006F756449643A2000434C4F55445F4944AF
:100F90000050524F56494445522053657474696E4F
:100FA0006720726567697374726174696F6E20740B
:100FB0006F6B656E3A200052454749535452415475
:100FC000494F4E5F544F4B454E0050524F56494487
:100FD000455200446174612077696C6C206E6F74B7
:100FE0002062652073617665642100536C617665CB
:100FF0002F436869702073656C6563742070696E37
:1010000020666F72205344206361726420686173AC
:10101000206E6F74206265656E207365742E0044C7
:101020006174612077696C6C206E6F74206265203A
:10103000736176656421004572726F723A20534481
:101040002063617264206661696C656420746F203E
:10105000696E697469616C697A65206F7220697361
:10106000206D697373696E672E002D2D2D2D5C2FF9
:10107000000A205C2F2D2D2D2D204C696E652053EC
:101080006176656420746F00556E61626C652074D2
:101090006F20777269746520746F205344206361F8
:1010A0007264210020002069732000207265706F37
:1010B000727473200020002069732063616C637573
:1010C0006C6174656420746F20626520002D2D2D85
:1010D0002D2D2D2D2D2D2D2D2D2D2D2D2D2D2D2D40
:1010E0002D2D2D2D2D2D2D2D2D2D2D2D2D2D2D2D30
:1010F0002D2D2D2D2D2D2D0045786974696E6720BD
:1011000074657374696E67206D6F6465002D2D2D95
:101110002D2D2D2D2D2D2D2D2D2D2D2D2D2D2D2DFF
:101120002D2D2D2D002D2D2D2D2D2D2D2D2D2D2D1C
:101130002D2D2D2D2D2D2D2D2D2D2D2D0043757269
:1011400072656E74206C6F676765722074696D6577
:10115000206973002D2D2D2D2D2D2D2D2D2D2D2D77
:101160002D2D2D2D2D2D2D2D2D2D2D2D2D2D2D2DAF
:101170002D2D2D2D2D2D2D2D2D2D2D2D2D2D0045B4
:101180006E746572696E672073656E736F7220741A
:10119000657374696E67206D6F6465002D2D2D2D4C
:1011A0002D2D2D2D2D2D2D2D2D2D2D2D2D2D2D2D6F
:1011B0002D2D2D2D2D2D2D2D2D2D2D2D2D2D2D2D5F
:1011C0002D2D2D2D2D2D000000200023002600297F
:1011D00000000102030405060700010203040506DE
:1011E00007000102030405060700010203040506C7
:1011F00007040404040404040402020202020202BA
:1012000002030303030303030301010101010101BD
:10121000010102040810204080010204081020404F
:1012200080010204081020408001020408102040C0
:1012300080646174615075626C6973686572426143
:1012400073652067515320636865636B002D2D2DF6
:101250002D2D205741524E494E47202D2D2D2D2DFD
:10126000202121212121212121212121212121216F
:101270002121212121004261642074696D652000D3
:10128000212121212121212121212121212121214E
:1012900021212121202D2D2D2D2D205741524E4928
:1012A0004E47202D2D2D2D2D20003A3030003A3084
:1012B00030003A3030003A3030004932435F307805
:1012C000363800646174615075626C697368657268
:1012D0004261736520736574517565642063686548
:1012E000636B004552524F5221204E6F207765624A
:1012F00020636C69656E742061737369676E6564E1
:1013000020746F207075626C697368206461746109
:1013100021001F1C1F1E1F1E1F1F1E1F1E1F2D3ED4
:1013200000416C6C207661726961626C6520555574
:10133000494427732061707065617220746F206268
:101340006520636F72726563746C7920666F726D6D
:1013500065642E0A006861732061206E6F6E2D75C2
:101360006E69717565205555494421006861732087
:10137000616E20696E76616C69642055554944211F
:10138000004C6F6767657220706F7274696F6E20B2
:101390006F662073657475702066696E6973686521
:1013A000642E0A0053616D706C696E67206665611A
:1013B0007475726520555549442069733A0061720D
:1013C000652063616C63756C617465642E00736580
:1013D0006E736F727320616E6400636F6D6520665B
:1013E000726F6D007661726961626C65732C206F3B
:1013F000662077686963680054686973206C6F675A
:10140000676572206861732061207661726961622C
:101410006C65206172726179207769746800437528
:101420007272656E74205254432074696D65206930
:10143000733A002D2D2D2D2D2D2D2D2D2D2D2D2DB6
:101440002D2D2D2D2D2D2D2D2D2D2D2D2D2D2D2DCC
:101450002D2D2D2D2D2D2D2D2D2D2D2D2D0A002D0C
:101460002D2D2D2D2D2D2D2D2D2D2D2D2D2D2D2DAC
:101470002D2D2D2D2D2D2D2D2D2D2D2D2D2D2D2D9C
:101480002D2D2D2D2D2D2D2D2D0050696E00494413
:1014900000454500504B004552524F520D004F4BF6
:1014A0000D004545004442004C4D002556002700E4
:1014B0006465737A4C696E652072656164756E67E8
:1014C000207374617274206E6F7420666F756E6421
:1014D0000027006465737A4C696E652045706F6300
:1014E0006820657272270027006465737A4C696E04
:1014F000652065706F6368207374617274206E6F0D
:101500007420666F756E640027006465737A4C6999
:101510006E65205374617475732065727227002C98
:10152000002C002C007365514346207365727A517C
:1015300075656446696C652E636C6F7365322065F2
:101540007272007365514346207467746F757446F8
:10155000696C652E636C6F73653120657272007300
:1015600065514346207467746F757446696C6520D5
:1015700077726974653320657272007365514346F2
:10158000207467746F757446696C6520777269742E
:10159000653120657272007365514346206F706536
:1015A0006E32206572720073655143462072656E1B
:1015B000616D653120657272007365514346206527
:1015C0007272362072656D6F7665007365514346A1
:1015D0002072656D6F76653120657272004C4174C2
:1015E000696D652E6E6973742E676F7600456E7631
:1015F00069726F794449595075626C697368657294
:1016000020675153200027006465737A714E657816
:1016100074436820316572726F723A006D532054C2
:10162000696D656F75740077616974656420002D5C
:101630002D20526573706F6E736520436F64652053
:101640002D2D000A202D2D20556E61626C652074B1
:101650006F2045737461626C69736820436F6E6EAE
:10166000656374696F6E20746F20456E7669726F62
:10167000444959204461746120506F7274616C2038
:101680002D2D005F4368616E6E656C0041445331DF
:101690003131355F3078004552524F52004F44008F
:1016A000544D00544D00444500444C004950004303
:1016B0005436340047543634004552524F520D00D0
:1016C0004F4B0D0041503000434900736574566123
:1016D0007255554944206572726F72202D206E65D7
:1016E00077206469646E277420776F726B20666F51
:1016F00072004D59000054500027206661696C65E6
:10170000642E005862656520270058626565576938
:10171000666920696E697420746573742050415342
:1017200053454400586265655769666920696E696A
:10173000742074657374204641494C4544202D2023
:10174000686F706520697420776F726B73206E65A7
:1017500078742074696D65004E53005D00586265B1
:10176000655769466920495023205B0058626565CA
:1017700057694669206E6F74207265636569766586
:101780006420495023202D686F706520697420778C
:101790006F726B73206E6578742074696D65004D8F
:1017A00059005862656557694669206E6F7420411B
:1017B000502052656769737465726564202D2061DD
:1017C000626F7274696E6720617474656D70742CD9
:1017D00020686F706520697420776F726B73206E5C
:1017E0006578742074696D65004149004C6F6F70B5
:1017F0003D5365635D207278206462203A20537403
:10180000617475732023506F6C6C65642053746130
:1018100074757320657665727920317365632F3333
:101820003073656300544D00534F00534D004950D1
:101830000044390044380050520027005862656562
:101840005769466920496E697469616C697A696E85
:101850006720496E7465726E657420636F6D6D7379
:101860002077697468206D6F64656D2027002121E1
:101870002121212121212121212121212121212158
:101880002121202D2D2D2D2D205741524E494E47DF
:10189000202D2D2D2D2D200021212121212121211F
:1018A0002121202D2D2D2D2D205741524E494E47BF
:1018B000202D2D2D2D2D20212121212121212121DE
:1018C00021002D2D2D2D2D205741524E494E4720C0
:1018D0002D2D2D2D2D2021212121212121212121BD
:1018E000212121212121212121210054686520630A
:1018F000757272656E7420636C6F636B2074696DB2
:10190000657374616D70206973206E6F74207661E9
:101910006C69642100212121212121212121212102
:10192000212121212121212121202D2D2D2D2D206D
:101930005741524E494E47202D2D2D2D2D2000214F
:10194000212121212121212121202D2D2D2D2D204D
:101950005741524E494E47202D2D2D2D2D2021210E
:101960002121212121212121002D2D2D2D2D205717
:1019700041524E494E47202D2D2D2D2D2021212124
:101980002121212121212121212121212121212147
:10199000210027002720736E3A2700207265763ACF
:1019A0002700426F6172643A2000204D6F64756CAD
:1019B000617253656E736F72732076657273200067
:1019C0005377204275696C643A200020204261748C
:1019D00074657279547970653A200020547A3A20FF
:1019E0000020204C6F6767696E67496E7465727678
:1019F000616C20286D696E293A20004C6F63617418
:101A0000696F6E3A20004461746520616E642054F1
:101A1000696D6520696E2055544300526573756C7D
:101A20007420555549443A00526573756C742055BD
:101A30006E69743A005661726961626C65204E612C
:101A40006D653A0053656E736F72204E616D653A35
:101A50000053616D706C696E6720466561747572C4
:101A60006520555549443A200044617461204C6F0B
:101A7000676765722046696C653A2000446174614D
:101A8000204C6F676765723A20002C305800534431
:101A9000206572726F72436F64653A20305800653A
:101AA00072726F723A20007365636F6E6473206F99
:101AB00066204E4953542E00496E7465726E616CF7
:101AC00020436C6F636B2077697468696E200049EE
:101AD0006E7465726E616C20436C6F636B2073650E
:101AE0007420004261642074696D657374616D7067
:101AF0002C206E6F742073657474696E6720636C3C
:101B00006F636B2E0000002100240027002A0000D4
:101B1000002200250028002B00000000000403081C
:101B200007000000010200090A0000000000000098
:101B3000000000000000000000004C8C45931124C0
:101B40001FBECFEFD0E4DEBFCDBF17E0A0E0B1E015
:101B5000E6EDFDE301E00BBF02C007900D92AA3451
:101B6000B107D9F725E1AAE4B7E001C01D92AD3C69
:101B7000B207E1F71DE0CEE9DDE004C02197FE01E8
:101B80000E94A99BCD39D107C9F70E94D1810C943D
:101B9000DE9E0C940000DC01ED91FC910688F78933
:101BA000E02D099591E0811101C090E0892F089501
:101BB0000F931F93CF93DF9300D000D000D0CDB709
:101BC000DEB78C01DC01ED91FC910084F185E02D04
:101BD0000995892BC9F41B821C821D821E82D801A3
:101BE0001C96ED91FC911D974585568567857089FA
:101BF0008B819C81AD81BE81481759076A077B079D
:101C000029F0F801858903C081E001C080E02696B3
:101C10000FB6F894DEBF0FBECDBFDF91CF911F91FD
:101C20000F910895DC011C96ED91FC911D97808128
:101C30009181DC01ED91FC910680F781E02D099402
:101C4000DC011C96ED91FC911D9780819181DC0156
:101C5000ED91FC910484F585E02D0994CF93DF93F9
:101C60001F92CDB7DEB76983DC01ED91FC91028054
:101C7000F381E02D41E050E0BE016F5F7F4F099599
:101C80000F90DF91CF9108950F931F93CF93DF9320
:101C900000D000D000D0CDB7DEB7DC01ED91FC91D3
:101CA000048CF58DE02D21EE32E03A832983DB01AF
:101CB00012960D911D912D913C9115970B831C83CC
:101CC0002D833E8320E030E0BE016F5F7F4F09959A
:101CD00026960FB6F894DEBF0FBECDBFDF91CF9131
:101CE0001F910F910895DC01ED91FC91028CF38D11
:101CF000E02D2BE430E009948091BA118111FCCFE2
:101D000008958091BE118F5F843408F080E0909137
:101D1000BD119817E1F32FB7F8949091BA11992358
:101D200041F0E82FF0E0EC58FE4E60838093BE1146
:101D30001DC081E08093BA116093B9111092B8115F
:101D400082E086BB80916F00826080936F008091FB
:101D500080008F7B806880938000809184009091C8
:101D60008500409690938900809388002FBF81E082
:101D700090E00895FC01848583FF0DC084A195A1A6
:101D8000A6A1B7A1448D558D668D778D841B950BCB
:101D9000A60BB70B03C080E090E0DC01811520E8C2
:101DA0009207A105B10520F08FEF9FE7A0E0B0E01A
:101DB000089580E090E00895CF93DF93EC0162E016
:101DC00070E080E090E00E944181EC85FD8580819B
:101DD0009181DC01ED91FC910284F385E02DDF918E
:101DE000CF910994CF93DF93EC0162E070E080E043
:101DF00090E00E944181EC85FD8580819181DC012C
:101E0000ED91FC910084F185E02DDF91CF91099453
:101E1000CF92DF92EF92FF920F931F93CF93DF93B6
:101E20008C01D62FC72F6A0162E070E080E090E05D
:101E30000E944181D8011C96ED91FC911D97E08094
:101E4000F1800D2F1C2FC0E0D0E0CC16DD0651F044
:101E5000C7010E94A27897FD05C0F80181938F0108
:101E60002196F3CFCE01DF91CF911F910F91FF907B
:101E7000EF90DF90CF900895EF92FF920F931F9312
:101E8000CF93DF93EC018B017A0162E070E080E098
:101E900090E00E944181A701B8018C859D85DF916A
:101EA000CF911F910F91FF90EF900C945160CF92C2
:101EB000DF92EF92FF920F931F93CF93DF9300D0A7
:101EC00000D000D0CDB7DEB78C016B017A01FC01E8
:101ED000848595850E943A73F801268581EE92E00B
:101EE0009A838983F60182819381A481B5818B8352
:101EF0009C83AD83BE83A701BE016F5F7F4FF80156
:101F0000848595850E946A5DF801858B90E0269610
:101F10000FB6F894DEBF0FBECDBFDF91CF911F91FA
:101F20000F91FF90EF90DF90CF9008950C960C9456
:101F3000954B8F929F92AF92BF92CF92DF92EF928A
:101F4000FF920F931F93CF93DF931F92CDB7DEB70E
:101F50008C01FC01848C958CA68CB78CC08CD18CA8
:101F6000E28CF38CBE016F5F7F4F0C960E9463275B
:101F7000019719F4898190E002C08FEF9FEF8F3FA6
:101F8000FFEF9F0749F0F801848E958EA68EB78EDD
:101F9000C08ED18EE28EF38E0F90DF91CF911F9184
:101FA0000F91FF90EF90DF90CF90BF90AF909F90F8
:101FB0008F900895CF93DF931F92CDB7DEB7BE0108
:101FC0006F5F7F4F0C960E946327019719F48981F8
:101FD00090E002C08FEF9FEF0F90DF91CF910895B7
:101FE0000C960C945A4B8F929F92AF92BF92CF92C5
:101FF000DF92EF92FF920F931F93CF93DF93EC0149
:102000008B0169017A0162E070E080E090E00E945B
:1020100041810E947B814B015C01D8018D919C9193
:10202000DC01ED91FC910084F185E02D0995892B6F
:1020300069F40E947B81DC01CB0188199909AA0906
:10204000BB098C159D05AE05BF0538F3F80160810D
:102050007181CE010E94D429CE010E94B875CE01B3
:10206000DF91CF911F910F91FF90EF90DF90CF9074
:10207000BF90AF909F908F900895CF93DF93EC0126
:1020800064EA77E00E94637448EE53E060E070E039
:10209000CE010E94C8168F3F910589F461EA77E06E
:1020A000CE010E94637448EE53E060E070E0CE0120
:1020B0000E94C8168F3F910511F480E090E0998747
:1020C0008887DF91CF910895CF93DF93EC016EE97C
:1020D00077E00E94637449EB56E160EC76E1CE0153
:1020E0000E94C7291BA2DF91CF910895CF93DF9360
:1020F000EC016BE977E00E94637449EB56E160EC18
:1021000076E1CE010E94C729813079F468E977E051
:10211000CE010E94637449EB56E160EC76E1CE019A
:102120000E94C72991E0813009F090E0892FDF916A
:10213000CF9108958F929F92AF92BF92DF92EF92CC
:10214000FF920F931F93CF93DF93EC01D62E1BA129
:10215000112391F00E947B818CA09DA0AEA0BFA016
:10216000DC01CB0188199909AA09BB098031974282
:10217000A105B10508F454C0CE010E943A7384E071
:10218000F82EE12CDE1409F44AC06E817F81665F6F
:102190007F4F072E000C880B990B0E94418164E948
:1021A00077E0888199810E94B2794E815F81440FE6
:1021B000551F052E000C660B770B09EB16E120EC82
:1021C00036E1CE010E948529182F81111BC0FA9497
:1021D000F11018C08A8587FD0DC060E00E94BF80A5
:1021E00061E070E080E090E00E94418161E08A85DA
:1021F0000E94BF806AEF70E080E090E00E94418121
:1022000094E0F92EE394113009F0BCCF1BA30E9497
:102210007B816CA37DA38EA39FA311E001C010E07E
:10222000812FDF91CF911F910F91FF90EF90DF9061
:10223000BF90AF909F908F9008958F929F92AF9292
:10224000BF92FF920F931F93CF93DF93EC01FBA0FC
:10225000FF2021F08BA1882331F008C065E00E94A7
:102260009A108111F7CF84E090E0FEC088859985AF
:10227000892B19F4CE010E943D1061E977E0CE016F
:102280000E94637440E157E260E070E0CE010E947A
:10229000C816288539852130364009F0A8C0833218
:1022A000910509F4D7C05CF4833091052CF481309A
:1022B00091050CF4A6C0B9C0439789F0C9C0833416
:1022C00091050CF0AFC0803491050CF0AEC08432A3
:1022D000910509F4ACC0879709F4A9C0B9C065E0BD
:1022E000CE010E949A10882309F4B4C0888599858C
:1022F000892B19F4CE010E943D1088859985813083
:102300009640B9F065E877E0CE010E94637449EB2E
:1023100056E160EC76E1CE010E94C729813021F0C0
:10232000CE010E94641096C0CE010E9476108823D0
:10233000B9F362E877E0CE010E94637449EB56E19D
:1023400060EC76E1CE010E94C729813049F71BA2DB
:10235000888599858130964029F460ED77E080E0AA
:1023600090E004C064E670E080E090E00E9441816B
:102370000E947B814B015C010E947B81DC01CB01CF
:1023800088199909AA09BB0980369A4EA105B10599
:1023900068F461E0CE010E949A10811107C06AEFD3
:1023A00070E080E090E00E944181E6CF88859985C9
:1023B00081309640A9F06EE777E0CE010E94637409
:1023C00049EB56E160EC76E1CE010E94C7298130ED
:1023D00009F0A6CFCE010E947610882309F4A0CF81
:1023E000CE010E946410CE010E94925B33C0853200
:1023F0009105E9F04CF48432910554F5823291054F
:10240000A4F4892B49F124C08D32910544F48B3218
:102410009105F4F48A97E1F46DE877E00CC08F320F
:10242000910539F08F3F910599F402E016C003E061
:1024300014C069E877E0CE010E94637449EB56E16D
:1024400060EC76E1CE010E94C729CE010E94761091
:1024500004E003C001E001C000E010E0F11003C09F
:10246000CE010E946410C801DF91CF911F910F919E
:10247000FF90BF90AF909F908F9008951F920F9202
:102480000FB60F9211240BB60F922F933F934F93D9
:102490005F936F937F938F939F93AF93BF93CF93EC
:1024A000EF93FF9329B1C091261180916E11909105
:1024B0006A11322F309593238223892B90917300D8
:1024C000C227C923C82320932611CC23C1F1C0FF02
:1024D00005C0E0912711F09128110995C1FF05C0B1
:1024E000E0912911F0912A110995C2FF05C0E091F0
:1024F0002B11F0912C110995C3FF05C0E0912D110E
:10250000F0912E110995C4FF05C0E0912F11F091B3
:1025100030110995C5FF05C0E0913111F0913211DC
:102520000995C6FF05C0E0913311F091341109956A
:10253000C7FF05C0E0913511F09136110995FF9163
:10254000EF91CF91BF91AF919F918F917F916F91BB
:102550005F914F913F912F910F900BBE0F900FBE47
:102560000F901F9018951F920F920FB60F92112483
:102570000BB60F922F933F934F935F936F937F937D
:102580008F939F93AF93BF93CF93EF93FF9326B116
:10259000C091371180916F1190916B11322F30954E
:1025A00093238223892B90916D00C227C923C823CE
:1025B00020933711CC23C1F1C0FF05C0E091381141
:1025C000F09139110995C1FF05C0E0913A11F091E0
:1025D0003B110995C2FF05C0E0913C11F0913D11FE
:1025E0000995C3FF05C0E0913E11F0913F11099597
:1025F000C4FF05C0E0914011F09141110995C5FF5C
:1026000005C0E0914211F09143110995C6FF05C044
:10261000E0914411F09145110995C7FF05C0E09183
:102620004611F09147110995FF91EF91CF91BF911C
:10263000AF919F918F917F916F915F914F913F915A
:102640002F910F900BBE0F900FBE0F901F901895FB
:102650001F920F920FB60F9211240BB60F922F9369
:102660003F934F935F936F937F938F939F93AF931A
:10267000BF93CF93EF93FF9323B1C0914811809103
:10268000701190916C11322F309593238223892BF6
:1026900090916C00C227C923C82320934811CC23F2
:1026A000C1F1C0FF05C0E0914911F0914A110995AF
:1026B000C1FF05C0E0914B11F0914C110995C2FF8B
:1026C00005C0E0914D11F0914E110995C3FF05C071
:1026D000E0914F11F09150110995C4FF05C0E091B0
:1026E0005111F09152110995C5FF05C0E0915311A8
:1026F000F09154110995C6FF05C0E0915511F09174
:1027000056110995C7FF05C0E0915711F091581176
:102710000995FF91EF91CF91BF91AF919F918F91CB
:102720007F916F915F914F913F912F910F900BBED1
:102730000F900FBE0F901F9018951F920F920FB61B
:102740000F9211240BB60F922F933F934F935F93E9
:102750006F937F938F939F93AF93BF93CF93EF9399
:10276000FF9320B1C09159118091711190916D1119
:10277000322F309593238223892B90916B00C227AF
:10278000C923C82320935911CC23C1F1C0FF05C030
:10279000E0915A11F0915B110995C1FF05C0E091DC
:1027A0005C11F0915D110995C2FF05C0E0915E11C9
:1027B000F0915F110995C3FF05C0E0916011F091A0
:1027C00061110995C4FF05C0E0916211F091631198
:1027D0000995C5FF05C0E0916411F0916511099557
:1027E000C6FF05C0E0916611F09167110995C7FF1A
:1027F00005C0E0916811F09169110995FF91EF9181
:10280000CF91BF91AF919F918F917F916F915F9188
:102810004F913F912F910F900BBE0F900FBE0F90D5
:102820001F9018951F920F920FB60F9211240BB69E
:102830000F922F933F934F935F936F937F938F9359
:102840009F93AF93BF93EF93FF93E0912411F09187
:1028500025110995FF91EF91BF91AF919F918F91B4
:102860007F916F915F914F913F912F910F900BBE90
:102870000F900FBE0F901F9018951F920F920FB6DA
:102880000F9211240BB60F922F933F934F935F93A8
:102890006F937F938F939F93AF93BF93EF93FF9328
:1028A000E0912211F09123110995FF91EF91BF91D1
:1028B000AF919F918F917F916F915F914F913F91D8
:1028C0002F910F900BBE0F900FBE0F901F90189579
:1028D0001F920F920FB60F9211240BB60F922F93E7
:1028E0003F934F935F936F937F938F939F93AF9398
:1028F000BF93EF93FF93E0912011F091211109957F
:10290000FF91EF91BF91AF919F918F917F916F91C7
:102910005F914F913F912F910F900BBE0F900FBE83
:102920000F901F901895BF92CF92DF92EF92FF9277
:102930000F931F93CF93DF93CDB7DEB72C970FB6CE
:10294000F894DEBF0FBECDBF6C01FC018485958578
:102950000E943A73F601E484F584C7010E943A7339
:10296000F701178E10A211A212A2B3A0BB2041F151
:102970006BE777E0C7010E94637428E833E140E029
:1029800050E0B701CE0107960E94F30FF701808552
:10299000918581309640D9F467E777E0C7010E94BE
:1029A000637409EB16E120EC36E148E853E160E09E
:1029B00070E0C7010E948529C7010E94761007C0F8
:1029C00065E0C7010E949A108111D2CF2AC0BE01D2
:1029D000695F7F4FCE0101960E943F78AE014F5F45
:1029E0005F4F64E777E0C7010E94FA5CCE01019671
:1029F0000E94D57709EB16E120EC36E148E853E177
:102A000060E070E0C7010E948529C7010E9476102E
:102A1000B11003C0C7010E946410CE0107960E9446
:102A2000D577F601848595850E943A73F601158A5B
:102A30002C960FB6F894DEBF0FBECDBFDF91CF91BD
:102A40001F910F91FF90EF90DF90CF90BF9008956E
:102A50002F923F924F925F926F927F928F929F92AE
:102A6000AF92BF92CF92DF92EF92FF920F931F939C
:102A7000CF93DF93CDB7DEB762970FB6F894DEBF82
:102A80000FBECDBF9E878D876B015A8B498B390155
:102A9000DC011C968D919C911D970E943A73ED85E7
:102AA000FE85F685FF87AD85BE851C960D911C9130
:102AB0001D97F80133A03320A9F0B601CE0101968D
:102AC0007C010E944878580191E1A90EB11CB70120
:102AD000C5010E944876982EC7010E94D5779110B3
:102AE00022C007C065E0C8010E949A108111E5CF9D
:102AF00009C1B601C7010E944878EA14FB0421F01D
:102B0000B701C5010E945976C7010E94D577D80147
:102B100059961C9259975A961C925A975B961C92FA
:102B20005B975C961C921B821C821D821E82F801A0
:102B3000418D528D638D748D8B819C81AD81BE8161
:102B4000481759076A077B0709F0ABC063EF76E0C7
:102B5000CE0107960E94487860E170E0CE010796AA
:102B60000E9493760E947B814B015C0128EE33E04A
:102B7000D3010E94B29B2B013C01D80193962C906B
:102B800021105DC065E0C8010E949A10811157C0F4
:102B900081EE92E09A8389831B821C821D821E82B1
:102BA00073C00E947B81DC01CB0188199909AA09B5
:102BB000BB0984159505A605B70590F462E070E0A1
:102BC00080E090E00E944181F80180819181DC01E8
:102BD000ED91FC910084F185E02D099504970CF3AB
:102BE000F80160817181C7010E94D429B701CE012B
:102BF00007960E945976C7010E94D577CE010796A5
:102C00000E94B875CE0107960E940526811111C059
:102C10006BE677E0C7010E940778B701CE010796FF
:102C20000E944876888BC7010E94D577B889BB235C
:102C3000D9F064EC79E080E090E00E9441810E944C
:102C40007B81DC01CB0188199909AA09BB0984158C
:102C50009505A605B70508F073C0A60161E777E002
:102C6000C8010E94F173B0CF211008C0DD24D394B5
:102C7000C8010E946410DD2009F48ACFBE01695F9B
:102C80007F4FC7010E946F73CE0107960E94D577D0
:102C90008B819C81AD81BE81F801818F928FA38F42
:102CA000B48FD80159964D915D916D917C915C974F
:102CB0001B821C821D821E828B819C81AD81BE8104
:102CC000481759076A077B07B1F081EE92E09A83B3
:102CD0008983F801818D928DA38DB48D8B839C8324
:102CE000AD83BE832F8549895A89B701C8010E94E7
:102CF0006A5DF82E01C0F12C311003C0C8010E949A
:102D000064108F2DAD85BE8555968C9390E06296AC
:102D10000FB6F894DEBF0FBECDBFDF91CF911F91EC
:102D20000F91FF90EF90DF90CF90BF90AF909F906A
:102D30008F907F906F905F904F903F902F9008956D
:102D4000211026CFD12C94CF680F791F20E030E0DE
:102D500086179707D9F0FC014191CF012427422F14
:102D600042954227042E469546954025042E4695C9
:102D700040254770022E232F469507944795302D06
:102D800024270694479530252427E2CFC9010895CA
:102D9000CF92DF92EF92FF920F931F93CF93DF9327
:102DA000CDB7DEB72B970FB6F894DEBF0FBECDBF01
:102DB0009A01AB01BC01CE0101960E94F30FCE0136
:102DC00001960E940526882331F06FE675E0CE015A
:102DD00001960E94A7778E01095F1F4F85E0F801D9
:102DE00011928A95E9F745E050E0B801CE010196CD
:102DF0000E943C2840E150E060E070E0C8010E9481
:102E0000B3946B017C01CE0101960E94D577C60177
:102E10002B960FB6F894DEBF0FBECDBFDF91CF91DA
:102E20001F910F91FF90EF90DF90CF9008958F92B8
:102E30009F92AF92BF92CF92DF92EF92FF920F9349
:102E40001F93CF93DF9300D000D000D0CDB7DEB773
:102E50006C017B018A011092C8151092C7156AECAB
:102E60007FE00E941597892B09F051C067EB7FE046
:102E7000C7010E941597892B71F4B8018BE798E080
:102E80000E949E9E61E97FE087ED98E00E94B27902
:102E90006BE778E054C568E87FE0C7010E941597AA
:102EA000892B71F4B80185E598E00E949E9E6DE63D
:102EB0007FE087ED98E00E94B27965E578E03FC554
:102EC0006CE57FE0C7010E941597892B71F4B8016A
:102ED00081EA98E00E949E9E69E37FE087ED98E09A
:102EE0000E94B27961EA78E02AC561E27FE087ED6D
:102EF00098E00E94B279B70187ED98E00E9490793E
:102F00006FE277E087ED98E00E94907917C56BE15A
:102F10007FE0C6010E941597892B09F0B1C06AE1D4
:102F20007FE087ED98E00E94B27940911E1150E059
:102F300060E070E02AE087ED98E00E94D27863EBD1
:102F400075E087ED98E00E949079B70187ED98E0F1
:102F50000E94907967E17FE087ED98E00E94B27966
:102F6000B80187ED98E00E949079D12CAD2CB12C5E
:102F7000C501880F991F9C01215B324F5901D9016E
:102F8000ED91FC9161897289CE0101960E94487889
:102F9000B70189819A810E94959E4C01CE010196CC
:102FA0000E94D577892869F4F50180819181DC013F
:102FB00052961C930E935197B8010E94665B54E0A1
:102FC000D52ED394B3E0BD1588F6E4E0DE1619F0F3
:102FD00065E07FE04BC06FEF7EE0C7010E94159770
:102FE000892B09F041C080911E1190E00497CCF527
:102FF00061EF7EE087ED98E00E94B279E0911E11CA
:10300000F0E0EE0FFF1FE15BF24F0190F081E02D49
:1030100061897289CE0101960E944878BE016F5F76
:103020007F4F87ED98E00E949279CE0101960E9431
:10303000D5776FEE7EE087ED98E00E94D679E0913B
:103040001E11F0E0EE0FFF1FE15BF24F80819181D6
:10305000DC0152961C930E935197B8010E94665B57
:1030600009C067ED7EE002C062EC7EE087ED98E08B
:103070000E94D67980911E118F5F80931E1163C4C8
:103080006BEB7EE0C6010E941597892B09F042C1C7
:1030900061EB7EE0C7010E941597892BB9F46BE9BB
:1030A0007EE087ED98E00E94B279B80187ED98E064
:1030B0000E941F79B80180EA97E00E949E9E80EAF4
:1030C00097E090938909809388093DC462E87EE087
:1030D000C7010E941597892B09F06AC04AE050E0A9
:1030E000BE016F5F7F4FC8010E94E1956B017C01BB
:1030F00016161706180619060CF04BC08091C71556
:103100009091C815829709F444C0B9E6CB16B1E096
:10311000DB06E104F104ECF06DE47EE087ED98E07D
:103120000E94B27968E671E087ED98E00E94B723CB
:1031300060E37EE087ED98E00E94B279C701B601B6
:103140000E94545B28E6C22EDD24D394E12CF12C9E
:1031500017C067E07EE087ED98E00E94B279B70182
:10316000A60187ED98E00E94852363EF7DE087ED5F
:1031700098E00E94B2796FE087ED98E00E946E239C
:10318000D0928B09C0928A09D0929D07C0929C0769
:10319000DAC364ED7DE087ED98E00E94B27968E6DD
:1031A00071E087ED98E00E94B72367EC7DE082C272
:1031B0006AEB7DE0C7010E941597892B29F54AE04B
:1031C00050E0BE016F5F7F4FC8010E94E1956B0127
:1031D0007C01DC01CB010197A109B1090497A1058C
:1031E000B10578F48091C7159091C815829749F080
:1031F000D0929210C0929110C0929F0764EA7DE035
:1032000059C26BE77DE056C260E77DE0C7010E94CE
:103210001597892B09F54AE050E0BE016F5F7F4F9B
:10322000C8010E94E1956B017C0165307105810543
:10323000910578F48091C7159091C815829749F04F
:10324000D0929210C0929110C0929F076CE57DE0E1
:1032500031C263E37DE02EC269E27DE0C7010E94D6
:103260001597892B29F54AE050E0BE016F5F7F4F2B
:10327000C8010E94B3946B017C01DC01CB010C9668
:10328000A11DB11D4997A105B10578F48091C7151D
:103290009091C815829749F063E17DE087ED98E051
:1032A0000E94B279C0929E0709C260EE7CE002C221
:1032B00060ED7CE0C7010E941597892BE9F46FEB64
:1032C0007CE087ED98E00E94B279B80187ED98E044
:1032D0000E941F79F80101900020E9F73197E01B67
:1032E000F10BFC9718F0D801DD961C92B80185EB24
:1032F00097E00E949E9E27C363EB7CE087ED98E0F9
:103300000E94B279B70187ED98E00E9490796EEA49
:103310007CE010C366EA7CE0C6010E941597892B09
:1033200071F469E97CE087ED98E00E94B279B70119
:1033300087ED98E00E94907964E97CE0FBC26CE83C
:103340007CE0C6010E941597892B09F0CAC165E887
:103350007CE0C7010E941597892B09F068C06FE6D1
:103360007CE087ED98E00E94B2796091C40E709184
:10337000C50ECE0101960E944878BE016F5F7F4F57
:1033800087ED98E00E949279CE0101960E94D57750
:10339000F80101900020E9F731977F01E01AF10A66
:1033A0008E2D1093C50E0093C40E813250F06E2DF9
:1033B00083E098E00E947B55F801EE0DF11D10822C
:1033C00080E22091C80E3091C90E232B49F490E081
:1033D00002960E9492939093C90E8093C80E04C0E7
:1033E00081ED97E00E947E368091C80E9091C90EC3
:1033F000009739F460E070E087EA97E00E94675533
:103400000BC0B8010E949E9E8091C80E9091C90E7B
:103410009093C50E8093C40E67E67CE087ED98E03C
:103420000E94B2796091C40E7091C50E6FC06FE5B5
:103430007CE0C7010E941597892B09F077C068E4EA
:103440007CE087ED98E00E94B2796091C60E7091A1
:10345000C70ECE0101960E944878BE016F5F7F4F74
:1034600087ED98E00E949279CE0101960E94D5776F
:10347000F80101900020E9F731977F01E01AF10A85
:103480008E2D1093C70E0093C60E803450F06E2D13
:1034900082E998E00E947B55F801EE0DF11D108243
:1034A0008FE32091CA0E3091CB0E232B49F490E08C
:1034B00002960E9492939093CB0E8093CA0E04C002
:1034C0008FE598E00E947E368091CA0E9091CB0ED7
:1034D000009739F460E070E084E398E00E9467555B
:1034E0000BC0B8010E949E9E8091CA0E9091CB0E97
:1034F0009093C70E8093C60E60E47CE087ED98E061
:103500000E94B2796091C60E7091C70ECE010196ED
:103510000E944878BE016F5F7F4F87ED98E00E9460
:103520009279CE0101960E94D577E9C16DE27CE0E7
:10353000C7010E941597892B49F54AE050E0BE016A
:103540006F5F7F4FC8010E94B3946B017C01DC0167
:10355000CB0184569109A109B1098D3C9447A1057D
:10356000B10588F48091C7159091C815829759F0DC
:103570006CE07CE087ED98E00E94B279D092020185
:10358000C09201019BC06DEC7BE094C06AEB7BE0D4
:10359000C7010E941597892BD9F44AE050E0BE017B
:1035A0006F5F7F4FC8010E94B3946B017C01693843
:1035B00073418105910548F48091C7159091C81514
:1035C000829719F06AE97BE075C06EE57BE072C016
:1035D00061E57BE0C7010E941597892BD9F44AE089
:1035E00050E0BE016F5F7F4FC8010E94B3946B0132
:1035F0007C01633371058105910548F48091C715FD
:103600009091C815829719F067E37BE053C063E09F
:103610007BE050C062EF7AE0C7010E941597892BCA
:1036200009F54AE050E0BE016F5F7F4FC8010E947C
:10363000B3946B017C016F3171058105910578F4BC
:103640008091C7159091C815829749F064ED7AE092
:1036500087ED98E00E94B279C09200012FC06CE91A
:103660007AE028C06CE87AE0C7010E941597892BA0
:1036700051F54AE050E0BE016F5F7F4FC8010E94E4
:10368000B3946B017C018FE1C816D104E104F1040D
:1036900078F48091C7159091C815829749F06FE62C
:1036A0007AE087ED98E00E94B279C0924C0706C09C
:1036B00068E37AE087ED98E00E94B279C701B6012D
:1036C0000E94545B40C16BE27AE087ED98E00E9473
:1036D000B279B70187ED98E00E94907966E27AE0CE
:1036E00029C161E27AE0C6010E941597892B09F091
:1036F000ABC066E17AE0C7010E941597892BD1F42F
:10370000F80101900020E9F73197E01BF10B749765
:1037100018F0D80155961C92B80180E597E00E94F8
:103720009E9E6AE07AE087ED98E00E94B27960E5BB
:1037300077E005C161E07AE0C7010E941597892B07
:10374000C9F4F80101900020E9F73197E01BF10B73
:10375000749710F0F801158AB80185E697E00E9489
:103760009E9E6FEE79E087ED98E00E94B27965E663
:1037700077E0E5C065EE79E0C7010E941597892BD7
:10378000D1F4F80101900020E9F73197E01BF10B2B
:103790003A9718F0D8011B961C92B8018AE797E077
:1037A0000E949E9E6AED79E087ED98E00E94B279D2
:1037B0006AE777E0C4C06DEC79E0C7010E94159715
:1037C000892BA1F569EC79E0C8010E941597892B36
:1037D00051F563EB79E087ED98E00E94D67967E4D4
:1037E00070E08FE497E00E94A41690934E078093B8
:1037F0004D079DE4E92E97E0F92E00E010E0F70177
:10380000D1907F01C8010E94F49AD81621F06D2D45
:10381000C8010E94FC9A0F5F1F4F0934110579F708
:103820006DE979E05CC069E779E060C06FE679E056
:1038300087ED98E00E94B279B70187ED98E00E9489
:1038400090796AE679E076C065E679E0C6010E9483
:103850001597892B09F056C06EE579E0C7010E94E3
:103860001597892B09F06FC068E579E0C8010E94BF
:103870001597892B59F567E379E087ED98E00E9469
:10388000D6796FE271E088E997E00E94A4169093E0
:1038900097078093960786E9E82E87E0F82E09E4DB
:1038A00010E0D701DD907D01C8010E94F49AD8167E
:1038B00021F06D2DC8010E94FC9A0F5F1F4F0A373F
:1038C000B1E01B0771F761E279E009C06CE179E0D2
:1038D000C8010E941597892B39F46DEF78E087EDC8
:1038E00098E00E94D6792FC069ED78E087ED98E0E6
:1038F0000E94B279B80187ED98E00E94907962E762
:1039000075E01DC069EC78E087ED98E00E94B2791F
:10391000B60187ED98E00E94907966EC78E087ED3B
:1039200098E00E94D679B70187ED98E00E949079DF
:1039300064EC78E087ED98E00E94B279B80187EDF9
:1039400098E00E941F7981E090E026960FB6F894E7
:10395000DEBF0FBECDBFDF91CF911F910F91FF90C2
:10396000EF90DF90CF90BF90AF909F908F90089591
:1039700080917509811107C080917609811103C07A
:1039800081E08093740908954F925F926F927F92C5
:10399000AF92BF92CF92DF92EF92FF920F931F935D
:1039A000CF93DF938C01DC0116967C9077FE07C0E5
:1039B0008BEE9FE00E947E3683ED9FE03DC1EC01DF
:1039C000C859DD4F1B8218821D8282599D4F9A83F0
:1039D00089830E947B816B017C01A980BA80F501FB
:1039E000728261E0872D0E94EE8061E0D50112961F
:1039F0008C910E94BF80BFB6F89480911F118111F5
:103A000027C0EDEFF1E18491EDE1F2E19491E82F2F
:103A1000F0E0EE0FFF1FEB5FF44EA591B491EC9137
:103A2000E92321F461E08CE00E94BF8061E08CE03A
:103A30000E94EE808CB580618CBD8CB580648CBD9D
:103A400061E08FE00E94EE8061E08DE00E94EE80F8
:103A500080911F118F5F80931F11BFBEE981FA8192
:103A600082E5808381E081838B81811103C0CE0157
:103A70000E94ED2A5801B7E9AB1ABDEFBB0AD50188
:103A8000ED91FC9161E082810E94BF804AE0742E3A
:103A90008FEF0E94012B7A947110FACFD501ED912E
:103AA000FC9160E082810E94BF803AE0B32E20E06A
:103AB00030E0A90160E0CE010E94722BA82EB1E097
:103AC0008B1799F0BA94B11002C080E267C08DEFF5
:103AD0000E94012B28E0622E22E0722E0E94062B0B
:103AE000E1E06E1A7108D1F7E2CF2AEA31E040E056
:103AF00050E068E0CE010E94722B853029F4F80175
:103B0000E359FD4FA08212C094E0B92E0E94062B0B
:103B10008C83BA94B110FACF8A3A31F482E0F8017A
:103B2000E359FD4F808302C085E238C05801F3E9B4
:103B3000AF1AFDEFBF0AD5018C91823021F0412CE4
:103B4000512C320105C0412C512C612C80E4782E7F
:103B500020E030E0A90167E3CE010E94722BA301AF
:103B6000920169E2CE010E94722B882349F00E94E3
:103B70007B816C197D09613D774050F383E40EC071
:103B8000F50180818230E9F420E030E0A9016AE3A8
:103B9000CE010E94722B882331F087E38883CE0107
:103BA0000E94282B43C00E94062B807C803C19F485
:103BB00083E0D5018C930E94062B0E94062B0E9465
:103BC000062BCE010E94282BE981FA8180E58083B3
:103BD00081E08183F801D2A3C1A37801F1E2EF0E65
:103BE000F11CE801C85BDD4FCE010E946C7161E001
:103BF000C7010E94B82C882339F0B701CE010E947A
:103C00005271882399F007C060E0C7010E94B82C68
:103C10008111F3CF0BC0209749F08881807731F074
:103C2000D0930315C093021581E009C087E390E1AA
:103C30000E947E368FE190E10E947E3680E0DF9127
:103C4000CF911F910F91FF90EF90DF90CF90BF9099
:103C5000AF907F906F905F904F9008957F928F927A
:103C60009F92AF92BF92CF92DF92EF92FF920F930B
:103C70001F93CF93DF93CDB7DEB7AC970FB6F89411
:103C8000DEBF0FBECDBF8C014B01742EE22EADB650
:103C9000BEB60E94C41C811102C0F12C63C0D401C5
:103CA00014968C918F5F482F50E0EDB7FEB7E41B60
:103CB000F50B0FB6F894FEBF0FBEEDBF2DB73EB7A4
:103CC0002F5F3F4F6901882321F0B901C4010E9491
:103CD0003C28480133E8831A3DEF930A45E0B601DA
:103CE000C4010E94E42AF82E882321F0B8016F58FD
:103CF0007D4F2FC0772089F245E1B601C4010E94B3
:103D0000E42AF82E882349F268018FE8C81A8DEF5B
:103D1000D80AB601CE0101960E941B7C62E0CE015A
:103D200001960E944F7BEE2099F0D801ED91FC9115
:103D30000480F581E02DB601C8010995B601CE01D8
:103D400001960E941B7C64E0CE0101960E944F7B8D
:103D5000B601CE0101960E941B7C61E0CE01019666
:103D60000E944F7B8F2D0FB6F894BEBE0FBEADBE26
:103D7000AC960FB6F894DEBF0FBECDBFDF91CF91EA
:103D80001F910F91FF90EF90DF90CF90BF90AF9079
:103D90009F908F907F9008952F923F924F925F92C5
:103DA0006F927F928F929F92AF92BF92CF92DF924B
:103DB000EF92FF920F931F93CF93DF93CDB7DEB7B0
:103DC00062970FB6F894DEBF0FBECDBF7C016DB613
:103DD0007EB67F866E8681E08093750910927409A5
:103DE0008CE991E10E947E368FE791E10E947E3658
:103DF00064E670E080E090E00E944181D7011F9668
:103E00008D919C915097009741F1DC01ED91FC91CF
:103E10000084F185E02D0995F70187859089DC0103
:103E2000ED91FC910680F781E02D09958701035EF5
:103E30001F4FC8010E945B63F70187859089DC01F1
:103E4000ED91FC910288F389E02D40E553EC60E0B0
:103E500070E00995C8010E945B63F701858596852E
:103E60000E94ED41D7011D960D911C911E97A12C2A
:103E7000B12CF8018281A81650F5CA2CD12CB601BC
:103E8000C8010E946341882391F0CC0CDD1CD8014D
:103E9000ED91FC91EC0DFD1D0190F081E02D019064
:103EA000F081E02DE85BFF4F808183FDB394A39404
:103EB000E0CFCA2CD12CB601C8010E946341811108
:103EC0000CC0A394D80112968C91A81690F3F80117
:103ED0008381B81690F5A12CF5CFCC0CDD1CD80150
:103EE000ED91FC91EC0DFD1D0190F081E02D8081A4
:103EF0009181FC01E85BFF4F208123FDE2CFDC01D3
:103F0000ED91FC91028CF38DE02D60E00995882302
:103F1000C1F2F80180819181FC01EC0DFD1D019041
:103F2000F081E02D80819181DC01ED91FC9102888E
:103F3000F389E02D0995B394C4CFB9E1B88B17018B
:103F4000EDE12E0E311C84E591E10E947E36D70111
:103F50001F968D919C915097DC01ED91FC91068C00
:103F6000F78DE02D0995C1010E945B63F70105857E
:103F700016856DB67EB67D866C86D80112968C91BC
:103F8000EDB7FEB7E81BF1090FB6F894FEBF0FBE00
:103F9000EDBF2DB73EB72F5F3F4F5901812CD801A0
:103FA00012969C90891460F4C82CD12CB601C801DB
:103FB0000E946341F501EC0DFD1D80838394EFCFDA
:103FC000892D90E0EDB7FEB7E81BF90B0FB6F8941A
:103FD000FEBF0FBEEDBF2DB73EB72F5F3F4F3987F6
:103FE00028876901F9012E2F3885231B291510F424
:103FF0001192F9CFADB7BEB7A81BB90B0FB6F894A5
:10400000BEBF0FBEADBFEDB7FEB73196FB87EA87E7
:10401000FA8BE98B2501A50120E030E0291510F08D
:1040200020E01EC0DA018D91AD01882399F0D801FE
:104030006D917C91C901880F991F860F971FDC0134
:104040008D919C91DC018D919C91DC0197968C91D6
:10405000808301C010822F5F3F4F3196DFCF2F5FEB
:10406000F8014281241760F5822F90E0F501E80FF6
:10407000F91F3081332399F3880F991FD801ED91EF
:10408000FC91E80FF91F0190F081E02D0190F08183
:10409000E02D36A1CF010296B89640E03417F9F230
:1040A000DC01612C6CE3762E6CE1862E66EC962E9C
:1040B0006D927D928D929D92CD0111924F5FEECFC8
:1040C00080E090E0612C841788F5F20121912F01A6
:1040D0002223A9F0D801ED91FC919C01220F331FFE
:1040E000E20FF31F0190F081E02D0190F081E02DAF
:1040F000E85BFF4F20812871283109F00BC201963F
:10410000E989FA893196FA8BE98BFFEFCF1ADF0A3A
:10411000DACFC52CD12CF501EC0DFD1D808181116C
:104120000EC05394F8018281581698F3D801139663
:104130008C91681610F4512CF5CF912C8EC0EA8525
:10414000FB85EC0DFD1D7080888499848C0C9D1C72
:10415000D4014C90471428F7CC0CDD1CD801ED910C
:10416000FC91EC0DFD1D0190F081E02D808191818D
:10417000DC01ED91FC91048CF58DE02D60E009955A
:10418000882309F440C0D801ED91FC91EC0DFD1D90
:104190000190F081E02D80819181FC01E85BFF4F6F
:1041A000208125FD07C0DC01ED91FC910688F7898F
:1041B000E02D0995D801ED91FC91EC0DFD1D0190CC
:1041C000F081E02D80819181DC01ED91FC91068CE4
:1041D000F78DE02D60E009958823A9F0F801808132
:1041E0009181FC01EC0DFD1D0190F081E02D80819D
:1041F0009181DC01ED91FC91008CF18DE02D099510
:104200004394F4014082D4018C9178128ACF639454
:1042100088CFC92CD12CF501EC0DFD1D80818823A0
:10422000D9F0CC0CDD1CD801ED91FC91EC0DFD1DFD
:104230000190F081E02D808191810E943F3FF80143
:1042400080819181FC01EC0DFD1D0190F081E02D3C
:10425000808191810E94CC3F9394F80182819816CD
:10426000C0F26C847D840FB6F8947EBE0FBE6DBE26
:104270000E944A30AB01BC01CE0101960E941F2F63
:10428000BE016F5F7F4F8DE391E10E94CD40CE0173
:1042900001960E94D57785E291E10E947E36D70192
:1042A0001D96CD90DC901E97B12CF6018281B81638
:1042B00008F0B3C00B2D10E0000F111F0190F0812A
:1042C000E02DE00FF11F60817181DB0112968C916E
:1042D0001297882391F11B966D917C911C97CE01CA
:1042E00001960E944878BE016F5F7F4F87ED98E08E
:1042F0000E949279CE0101960E94D57767EB70E11A
:1043000087ED98E00E94B279D601ED91FC91E00F23
:10431000F11F60817181CE0101960E94C54DBE01E1
:104320006F5F7F4F87ED98E00E949279CE010196F2
:104330000E94D57765EB70E14CC0CE0101960E94DA
:10434000FC40BE016F5F7F4F87ED98E00E9492793D
:10435000CE0101960E94D5776BEA70E187ED98E077
:104360000E94B279D601ED91FC91E00FF11F01900E
:10437000F081E02D63857485CE0101960E94487816
:10438000BE016F5F7F4F87ED98E00E949279CE016A
:1043900001960E94D57766EA70E187ED98E00E9469
:1043A000B279D601ED91FC91E00FF11F608171812E
:1043B000CE0101960E94C54DBE016F5F7F4F87ED14
:1043C00098E00E949279CE0101960E94D57764EA26
:1043D00070E187ED98E00E94B279F60180819181C9
:1043E000FC01E00FF11F0190F081E02D65857685DD
:1043F000CE0101960E944878BE016F5F7F4F87ED26
:1044000098E00E949279CE0101960E94D57787EDBF
:1044100098E00E941B79B39448CF8DE091E10E940F
:104420007E36C1010E945B6368E873E180E090E042
:104430000E944181C1010E945B63F889F150F88BB1
:10444000F11181CD57012DE1A20EB11CD7011D96AE
:10445000CD90DC901E97912CF60182819816E8F49D
:10446000092D10E0B801C6010E946341882399F02C
:10447000000F111FD601ED91FC91E00FF11F01908B
:10448000F081E02D80819181DC01ED91FC91048827
:10449000F589E02D09959394DFCFF701C584D68483
:1044A000912CD60112968C919816E8F4092D10E003
:1044B000B801C6010E946341882399F0000F111FC3
:1044C000D601ED91FC91E00FF11F0190F081E02DFC
:1044D00080819181DC01ED91FC910088F189E02DD2
:1044E00009959394DECFF701878590890097C9F0ED
:1044F000DC01ED91FC910488F589E02D0995F70127
:1045000087859089DC01ED91FC910684F785E02D8B
:10451000099507C0E989FA892081D6012C93639413
:10452000EECD88EF90E10E947E368DEC90E10E9406
:104530007E36C5010E945B631092750960E0C70179
:104540000E9455686E847F840FB6F8947EBE0FBEBD
:104550006DBE62960FB6F894DEBF0FBECDBFDF9181
:10456000CF911F910F91FF90EF90DF90CF90BF9070
:10457000AF909F908F907F906F905F904F903F9003
:104580002F900895CF92DF92EF92FF920F931F9397
:10459000CF93DF93CDB7DEB7AC970FB6F894DEBFFD
:1045A0000FBECDBF8C017C0183E6E81A8DEFF80ABF
:1045B000C7010E940526882319F0C8010E94006ADD
:1045C00020E040E0B701C8010E942E1E811116C0F4
:1045D000C7010E940526882319F0C8010E94006ABD
:1045E00021E041E0B701C8010E942E1ED82E8111A2
:1045F00005C088E890E10E947E3640C068018FE8DF
:10460000C81A8DEFD80AB601C8010E948469B701A3
:10461000CE0101960E943F784AE650E1BE016F5FED
:104620007F4F81E790E10E943C54CE0101960E94A9
:10463000D57767ED78E0C8010E9484696AE087ED6C
:1046400098E00E943879B601CE0101960E941B7C49
:1046500064E0CE0101960E944F7BB601CE01019627
:104660000E941B7C61E0CE0101960E944F7BC80135
:1046700083589D4F0E946C71DD24D3948D2DAC9690
:104680000FB6F894DEBF0FBECDBFDF91CF911F9163
:104690000F91FF90EF90DF90CF900895FC0124815F
:1046A0003581FB014481558124173507A0F0FC01B9
:1046B00080819181009779F0FB01608171816115A2
:1046C000710549F0241B350B820F931F0E94959EA4
:1046D00021E0892B09F020E0822F08950F931F938A
:1046E000CF93DF93EC01462F50E060E070E02AE0CA
:1046F0000E94D2788C01CE010E941B79800F911FFD
:10470000DF91CF911F910F910895CF92DF92EF9299
:10471000FF920F931F93CF93DF9377FF1DC06A0122
:104720007B01EC016DE20E9431798C014427552711
:10473000BA014C195D096E097F092AE0CE010E9479
:10474000D278800F911FDF91CF911F910F91FF9031
:10475000EF90DF90CF9008952AE0DF91CF911F91E5
:104760000F91FF90EF90DF90CF900C94D278AB0137
:10477000770F660B770B0C9485237F928F929F9215
:10478000AF92BF92CF92DF92EF92FF920F931F935F
:10479000CF93DF938C016A017B01722E9A01AB01EA
:1047A000C701B6010E942C9D882319F064E775E0CB
:1047B00027C046015701E894B7F82FEF3FEF4FE7C6
:1047C0005FE7C501B4010E942C9D81110DC02FEF40
:1047D0003FEF4FE75FE7C501B4010E94D09918167B
:1047E0001CF468E775E00CC02FEF3FEF4FE75FE484
:1047F000C701B6010E94D79C181694F46CE775E0C7
:10480000C801DF91CF911F910F91FF90EF90DF9042
:10481000CF90BF90AF909F908F907F900C94D74592
:104820002FEF3FEF4FE75FECC701B6010E94D09931
:1048300087FDE4CF20E030E0A901C701B6010E9466
:10484000D09987FF0AC06DE2C8010E943179EC015E
:10485000F7FAF094F7F8F09402C0C0E0D0E0B12C81
:1048600060E070E080E09FE37B1441F020E030E006
:1048700040E251E40E942F9CB394F6CFA701960129
:104880000E94C39B6B017C010E94A89C4B015C01B0
:104890002AE0AB01BC01C8010E94D278C80FD91F21
:1048A0007720C1F1C501B4010E94D5999B01AC01EB
:1048B000C701B6010E94C29B6B017C016EE2C80178
:1048C0000E943179C80FD91F20E030E040E251E466
:1048D000C701B6010E94369A4B015C010E94A89C58
:1048E0006B01E12CF12C2AE0B701A601C8010E945E
:1048F000D278C80FD91FC701B6010E94D5999B0174
:10490000AC01C501B4010E94C29B6B017C017A9489
:104910007110DACFCE01DF91CF911F910F91FF90EF
:10492000EF90DF90CF90BF90AF909F908F907F904F
:104930000895CF93DF93AB01BC0122E087ED98E0AF
:104940000E94BD23EC0187ED98E00E941B798C0F3B
:104950009D1FDF91CF9108950F931F93CF93DF9306
:10496000EC010E94B7238C01CE010E941B79800FBD
:10497000911FDF91CF911F910F9108952F923F9238
:104980004F925F926F927F928F929F92AF92BF925F
:10499000CF92DF92EF92FF920F931F93CF93DF930B
:1049A00000D000D0CDB7DEB7FC0144805580411463
:1049B000510409F413C1FB01848095808114910492
:1049C00009F40CC17A016B019C838B83FA0164802A
:1049D000758068187908FC010081118161147104E7
:1049E000D1F4F60160817181C8010E94C49E9A834E
:1049F0008983009709F4F2C0F701608171814481D5
:104A000055810E945D9EF7010481158129813A81BB
:104A1000020F131FE6CF77FE49C05801F6016081EF
:104A20007181C5010E94C49E2C01009729F14C019F
:104A30008A189B08A401B501C8010E945D9E080D5B
:104A4000191DF7016081718144815581C8010E945F
:104A50005D9EF70184819581080F191FF601A480DE
:104A6000B580A40CB51CEB81FC8184819581860DF9
:104A7000971D95838483D2CFB501C8010F900F9005
:104A80000F900F90DF91CF911F910F91FF90EF90BA
:104A9000DF90CF90BF90AF909F908F907F906F905E
:104AA0005F904F903F902F900C949E9EFB01208032
:104AB00031805201C801B1010E94C49E009729F0C3
:104AC000880D991DA60CB71CF6CF4A145B0409F497
:104AD00085C0EB81FC81828193818A159B0578F4E6
:104AE000B5016F5F7F4FC8010E94669D009709F472
:104AF00075C0EB81FC8191838083B382A282EB81BC
:104B0000FC81048115810150110917FD67C048011E
:104B1000F601248035802114310409F45FC0EB8153
:104B2000FC81A480B580A114B10409F457C0A2147B
:104B3000B30408F453C00A151B0520F04501F1E049
:104B40008F1A9108EB81FC8140805180C2010FEFE8
:104B50001FEF9201280D391D3A832983E981FA81DB
:104B6000E817F90780F0F601608171810E94C49E08
:104B7000009749F09C01241935098216930608F024
:104B800089010196EBCF17FD29C0200E311EC2010D
:104B9000820D931DA50142195309BC01860D971D75
:104BA0000E94669EEB81FC8184819581860D971D14
:104BB0009583848320813181F901E80FF91F1082E8
:104BC000EB81FC8180819181F70160817181448159
:104BD0005581800F911F0E945D9E95CF0F900F9081
:104BE0000F900F90DF91CF911F910F91FF90EF9059
:104BF000DF90CF90BF90AF909F908F907F906F90FD
:104C00005F904F903F902F900895DC0114962D9166
:104C10003C911597232B41F0ED91FC9181E090811F
:104C2000992319F080E0089581E00895E82FEF7747
:104C300087FD08C0EA3009F4B5C08EEF8E0F8230D0
:104C400008F4B0C08E2F90E0FC01EF5EFD4E249181
:104C5000FC01EF50FE4E3491313059F44091711106
:104C6000422B4093711140916D11422B40936D1175
:104C700024C0323031F440917011422B40937011B6
:104C80000BC0333009F0CDC040916F11422B4093DF
:104C90006F110AC0323031F440916C11422B4093B5
:104CA0006C110BC0333031F440916B11422B4093A7
:104CB0006B1103C0343009F4BCC0FC01EF52FE4E4E
:104CC000A4913130C1F4B0E0AA0FBB1FA65ABE4E6A
:104CD0006D937C93E9ECF1E1A591B4918C91809373
:104CE00059118BE690E0909373118093721180912B
:104CF000680081604DC03230C1F4B0E0AA0FBB1F24
:104D0000A75BBE4E6D937C93EBECF1E1A591B49162
:104D10008C91809348118CE690E09093731180936E
:104D2000721180916800826033C03330C1F4B0E00A
:104D3000AA0FBB1FA85CBE4E6D937C93EDECF1E116
:104D4000A591B4918C91809337118DE690E090936A
:104D500073118093721180916800846019C034309F
:104D6000C9F4B0E0AA0FBB1FA95DBE4E6D937C9342
:104D7000EFECF1E1A591B4918C918093261183E73A
:104D800090E0909373118093721180916800886015
:104D900080936800A0917211B0917311EC912E2B49
:104DA0002C9308959FB7F894E330B1F0EA3031F1D5
:104DB000E230A9F5E8987093211160932011809159
:104DC00069008C7F80936900809169008160809385
:104DD0006900E09AE89A23C0E998709323116093E0
:104DE000221180916900837F80936900809169001E
:104DF000846080936900E19AE99A11C0EA987093FF
:104E0000251160932411809169008F7C8093690043
:104E100080916900806180936900E29AEA9A9FBF5D
:104E20000895343009F036CF40916E11422B4093F3
:104E30006E1140916A11422B40936A113ECFEF925E
:104E4000FF920F931F93CF93DF93EC017B010E949E
:104E50007B818B010E94062B8C838F3F49F40E943B
:104E60007B81601B710B693E7340A0F385E503C035
:104E70008E3F39F080E58883CE010E94282B80E0A8
:104E80001BC08FEF8EBDF701D701A150BE4F9FEF22
:104E90000DB407FEFDCF8EB59EBD8193EA17FB07CB
:104EA000B9F70DB407FEFDCF8EB58C931C820E941E
:104EB000062B0E94062B81E0DF91CF911F910F916D
:104EC000FF90EF900895DF92EF92FF920F931F9360
:104ED000CF93DF93EC018B0128812223E9F08A81B3
:104EE00080FF1AC01FC0D380D422E114F10409F05E
:104EF00078C0D11076C0892B8A2B8B2B09F456C031
:104F00004C855D856E857F859E01245F3F4FCF0177
:104F10000E942C2E87FF5AC08981826089838FEF7F
:104F20009FEFA2C023FF14C0888D998DAA8DBB8DE1
:104F3000488959896A897B89841B950BA60BB70B15
:104F400082309105A105B105A0F4009791F46AC0E3
:104F500025FF0FC0EE81FF818681978145E0880F94
:104F6000991F4A95E1F7488959898417950709F4EB
:104F700057C088899989AA89BB897C0131E0F322CD
:104F8000EE81FF81AC01BD0139E0769567955795BB
:104F900047953A95D1F725FFA6CF848D958DA68D9F
:104FA000B78D480F591F6A1F7B1F41C026FF05C0E0
:104FB000848D958DA68DB78D04C08C8D9D8DAE8D05
:104FC000BF8D8C879D87AE87BF870BC0811109C0BD
:104FD0008881807709F4A0CF81E090E021E030E083
:104FE00023C0EE81FF814C855D856E857F854250B3
:104FF000510961097109048004C0440F551F661FDF
:10500000771F0A94D2F780899189A289B389480FC2
:10501000591F6A1F7B1F4D0D511D611D711D07C05A
:1050200080E090E020E030E0821B930B1DC08E8179
:105030009F8120E080960E94782C009709F46CCF25
:10504000FC01EE0DFF1D8081F8018083888999891C
:10505000AA89BB890196A11DB11D888B998BAA8B4A
:10506000BB8B81E090E0DECFDF91CF911F910F915C
:10507000FF90EF90DF9008950F931F93CF93DF93EE
:10508000FC01C481D581209719F4FB01108211C065
:10509000415051094C175D0708F4EA018B01FC01EE
:1050A00060817181AE01C8010E94B59EC00FD11F01
:1050B0001882DF91CF911F910F9108952F923F9207
:1050C0004F925F926F927F928F929F92AF92BF9218
:1050D000CF92DF92EF92FF920F931F93CF93DF93C4
:1050E000CDB7DEB72D970FB6F894DEBF0FBECDBF9C
:1050F0001C014A015B01690160E170E0C9010E9485
:1051000093760E947B812B013C0162E070E080E09D
:1051100090E00E944181D1018D919C91DC01ED9143
:10512000FC910084F185E02D0995181619060CF004
:1051300048C062E070E080E090E00E944181F101AF
:1051400080819181DC01ED91FC910284F385E02D59
:105150000995181604F7682FC6010E9418770115E3
:10516000110521F4E114F104B1F4D5CFB801CE0159
:1051700001960E940778BE016F5F7F4FC6010E94B3
:105180004E238D87CE0101960E94D577BD85BB2326
:1051900049F311E063C0B701CE0101960E94077880
:1051A000BE016F5F7F4FC6010E944E238D87CE01E7
:1051B00001960E94D577ED85EE2309F4ACCF12E07D
:1051C0004DC00E947B81DC01CB0184199509A609A1
:1051D000B70988159905AA05BB0508F496CFC6013D
:1051E0000E94B87561E875E0CE0101960E9448788A
:1051F00060E875E0CE0107960E944878AE014F5FE7
:105200005F4FBE01695F7F4FC6010E94BE24CE0181
:1052100007960E94D577CE0101960E94D57763E864
:1052200075E0CE0101960E94487861E875E0CE01F4
:1052300007960E944878AE014F5F5F4FBE01695FDD
:105240007F4FC6010E94BE24CE0107960E94D577EB
:10525000CE0101960E94D57710E03DC0C6010E94A4
:10526000B87561E875E0CE0101960E94487860E863
:1052700075E0CE0107960E944878AE014F5F5F4F00
:10528000BE01695F7F4FC6010E94BE24CE01079612
:105290000E94D577CE0101960E94D57763E875E02C
:1052A000CE0101960E94487861E875E0CE0107962C
:1052B0000E944878AE014F5F5F4FBE01695F7F4F2C
:1052C000C6010E94BE24CE0107960E94D577CE016A
:1052D00001960E94D577812F2D960FB6F894DEBFE8
:1052E0000FBECDBFDF91CF911F910F91FF90EF9037
:1052F000DF90CF90BF90AF909F908F907F906F90F6
:105300005F904F903F902F9008954F925F926F92D1
:105310007F92AF92BF92CF92DF92EF92FF920F9364
:105320001F93CF93DF9300D000D000D0CDB7DEB76E
:105330006C012A013B01590163EF76E0CE01019631
:105340000E944878780185019E012F5F3F4FB3018D
:10535000A201C6010E945E28182FCE0101960E946C
:10536000D577812F26960FB6F894DEBF0FBECDBF3E
:10537000DF91CF911F910F91FF90EF90DF90CF9031
:10538000BF90AF907F906F905F904F9008950F9374
:105390001F939B018A0148EE53E060E070E00E9499
:1053A00085291F910F9108950F931F93CF93DF933A
:1053B000EC018B0163EF76E00E944878C8010E94FF
:1053C000A27897FD08C08D30910529F0682FCE0195
:1053D0000E941877F3CFCE01DF91CF911F910F91EB
:1053E0000895FC01838594850895CF93DF931F92E0
:1053F000CDB7DEB7698341E050E0BE016F5F7F4FFC
:105400000C960E94954B0F90DF91CF9108952F92AB
:105410003F924F925F926F927F928F929F92AF9244
:10542000BF92CF92DF92EF92FF920F931F93CF9391
:10543000DF93CDB7DEB727970FB6F894DEBF0FBE68
:10544000CDBF0E94B47A5C836D837E83632F822FED
:1054500090E00E94FF349C01A8E1B0E00E94479BCD
:105460002C817B018C01E20EF11C011D111DA80194
:105470009701ACE3B0E00E943C9B2D817B018C0145
:10548000E20EF11C011D111DA80197010E943C9B19
:105490002E81DC01CB01820F911DA11DB11D805811
:1054A0009C4BA249B74C1C012D016091781520E15D
:1054B0003EE06203A001639F500D1124952F990FC8
:1054C000990B9A01492F592F692F792F892F510153
:1054D0006201E12CF12C00E010E00E94B99BB901BF
:1054E000CA0127960FB6F894DEBF0FBECDBFDF917D
:1054F000CF911F910F91FF90EF90DF90CF90BF90D1
:10550000AF909F908F907F906F905F904F903F9063
:105510002F900895CF93DF93EC01DB011D96ED9161
:10552000FC911E9790818181E92FF82FE40FF11DE6
:10553000E40FF11D60817181CE010E94C54DCE0145
:10554000DF91CF910895FC01818587FD03C060E064
:105550000C94BF800895FC01818587FD03C061E044
:105560000C94BF8008951F93CF93DF93FC01878134
:1055700087FD14C0162FEF0161E00E94EE8060E00D
:105580008F810E94BF80112349F068EE73E080E0B4
:1055900090E0DF91CF911F910C944181DF91CF91E9
:1055A0001F910895FC01148615861382128288EEDD
:1055B00093E0A0E0B0E084839583A683B78387ED72
:1055C00093E0918380830895FB01242F609102155D
:1055D00070910315AF010C947571CF93DF93EC01BB
:1055E000E981FA81908181819CBD8DBDE981FA813B
:1055F00060E082810E94BF8081E08B83DF91CF9148
:1056000008958EBD0DB407FEFDCF08958FEF8EBDBA
:105610000DB407FEFDCF8EB508950F931F93CF9362
:10562000DF93EB010E947B818B010E94062B8F3F51
:1056300049F00E947B81601B710BC617D707A8F742
:1056400080E001C081E0DF91CF911F910F9108951B
:10565000CF93DF93FC012381222361F0EC010180D1
:10566000F281E02D61E082810E94BF808FEF0E9475
:10567000012B1B82DF91CF9108950F931F93CF933E
:10568000DF938C01862FEA010E94012B88818EBD59
:105690008981FE013296DE5F0DB407FEFDCF8EBD1F
:1056A000EC17FD0711F08191F7CF0DB407FEFDCF88
:1056B0008FEF0E94012B8FEF0E94012B0E94062B7F
:1056C000F80184838F71853039F087E58083C801C4
:1056D0000E94282B80E001C081E0DF91CF911F91D3
:1056E0000F910895FF920F931F93CF93DF9300D0F4
:1056F00000D0CDB7DEB78C01F62E29833A834B83D9
:105700005C83FC018381811103C0C8010E94ED2AE2
:10571000FF2029F06CE271E0C8010E940D2B8F2D53
:1057200080640E94012B8C810E94012B8B810E943E
:10573000012B8A810E94012B89810E94012BFF206D
:1057400011F087E801C085E90E94012B0E94062B19
:105750008BE0F82E0E94062BF801848387FF03C09C
:10576000FA94F110F7CF0F900F900F900F90DF91F8
:10577000CF911F910F91FF9008950F931F93CF9397
:10578000DF93EC0189018D81833039F089E0440F8A
:10579000551F661F771F8A95D1F79A01AB0168E103
:1057A000CE010E94722B882311F082E323C0A8014E
:1057B0006EEFCE010E943D2B8823E9F060ED77E08B
:1057C000CE010E940D2B182F811102C08AE512C054
:1057D00020E030E0A9016DE0CE010E94722B811122
:1057E00008C00E94062B811104C0CE010E94282B04
:1057F00006C089E28883CE010E94282B10E0812F09
:10580000DF91CF911F910F9108950F931F93CF9325
:10581000DF93EC0189018D81833039F089E0440FF9
:10582000551F661F771F8A95D1F79A01AB0161E179
:10583000CE010E94722B882319F080E388830BC06D
:10584000B801CE010E941F27182F882321F0CE0116
:105850000E94282B04C0CE010E94282B10E0812F2B
:10586000DF91CF911F910F910895EF92FF921F93B7
:10587000CF93DF93FC01208120FF32C0EC017C013B
:10588000F7E0EF0EF11C4B815C816D817E81E98137
:10589000FA819701808191810E94BD2B182F81117F
:1058A00002C010E01EC0888181FD04C088818E7F07
:1058B000888317C0E981FA814B815C816D817E818B
:1058C00084859585A685B785480F591F6A1F7B1F5C
:1058D0009701808191810E94BD2B8111E7CFE1CF9B
:1058E00011E0812FDF91CF911F91FF90EF900895EC
:1058F000CF92DF92EF92FF921F93CF93DF93EC0151
:105900006A017B01122F8B819C81AD81BE8184173E
:105910009507A607B707F1F0CE010E94352C81113B
:1059200003C080E090E01CC012FF06C01882CB824A
:10593000DC82ED82FE820EC0E981FA819E01295F40
:105940003F4FB701A601808191810E94052C8111F2
:10595000EDCFE7CF13708881182B1883CE010796FF
:10596000DF91CF911F91FF90EF90DF90CF9008953E
:10597000CF92DF92EF92FF920F931F93CF93DF931B
:10598000EC01162F1D8281E090E0A0E0B0E0888756
:105990009987AA87BB87DAA3C9A318A28FEF9FEFC5
:1059A000DC018BA39CA3ADA3BEA3662331F16530BC
:1059B00008F0C4C020E040E050E0BA01CE0180967B
:1059C0000E94782C009709F4B9C000E1109F800D67
:1059D000911D11244097FC01E254FE4F20812F7746
:1059E00009F0ACC03896C080D180E280F380C11449
:1059F000D104E104F10421F4A1C0C12CD12C760121
:105A000020E0B701A601CE0180960E94782CFC010F
:105A1000892B09F493C0838594858115924009F000
:105A20008DC08089823009F089C086859785892B51
:105A300009F484C025852A838FEF820F8B831C8213
:105A400049E050E091E0921749F04150510909F4C2
:105A500075C0990F8C818F5F8C83F5CF46895789EC
:105A60004115510519F060E070E004C044A155A152
:105A700066A177A14C875D876E877F87868597852E
:105A800097018601080F191F211D311D0C8B1D8BDD
:105A90002E8B3F8B818992899F838E83440F551F64
:105AA000661F771F400F511F621F731F4C8F5D8F42
:105AB0006E8F7F8FB5E0880F991FBA95E1F78150FF
:105AC0009E4F892F99278695480F591F611D711D7B
:105AD000488B598B6A8B7B8B23893489211531053F
