:100000000C94000E0C946E130C9443130C94181360
:100010000C94A3120C942E120C94B9110C9444114C
:100020000C948D3D0C942A0E0C942A0E0C942A0EDE
:100030000C942B6D0C94D96D0C94E06C0C942A0EDE
:100040000C942A0E0C942A0E0C94F08F0C942A0E09
:100050000C945A6B0C94306B0C942A0E0C942A0E50
:100060000C942A0E0C942A0E0C94CB640C942A0E39
:100070000C94FA6A0C94D06A0C942A0E0C942A0EF2
:100080000C942A0E0C942A0E0C942A0E5D64606463
:100090005364576477647764646468646E647264FC
:1000A00008000000BE922449123EABAAAA2ABECD87
:1000B000CCCC4C3E00000080BEABAAAAAA3E0000F9
:1000C0000000BF000000803F0000000000084178F1
:1000D000D3BB4387D1133D190E3CC3BD4282AD2B28
:1000E0003E68EC8276BED98FE1A93E4C80EFFFBE20
:1000F00001C4FF7F3F000000000007634236B79B4A
:10010000D8A71A39685618AEBAAB558C1D3CB7CC77
:100110005763BD6DEDFD753EF6177231BF000000EF
:10012000803F4E414E494E495459494E46CDCCCC64
:100130003D0AD7233C17B7D13877CC2B329595E6BB
:10014000241FB14F0A000020410000C84200401C9B
:100150004620BCBE4CCA1B0E5AAEC59D7400407AE8
:1001600010F35A00A0724E18090010A5D4E8000040
:10017000E87648170000E40B54020000CA9A3B00DE
:100180000000E1F505000080969800000040420F55
:10019000000000A08601000000102700000000E819
:1001A00003000000006400000000000A00000000DE
:1001B000000100000000002C76D888DC674F08237F
:1001C000DFC1DFAE59E1B1B796E5E3E453C63AE6E5
:1001D00051997696E8E6C28426EB898C9B62ED40C5
:1001E0007C6FFCEFBC9C9F40F2BAA56FA5F4900514
:1001F0005A2AF75C936B6CF9676DC11BFCE0E40D48
:1002000047FEF520E6B500D0ED902E03009435773B
:10021000050080841E080000204E0A000000C80C63
:10022000333333330F986E12831141EF8D211489CC
:100230003BE65516CFFEE6DB18D1844B381BF77C26
:100240001D901DA4BBE424203284725E228100C96B
:10025000F124ECA1E53D270A4C6F676765723A739C
:1002600065744C6F676765724964206572726F725E
:10027000202D206578706563746564204E554C4C64
:1002800020707472000A0D2020204C6F6767657221
:100290003A7365744C6F67676572496420746F6F59
:1002A000206C6F6E673A205472696D6D65642074BE
:1002B0006F20002020204C6F633D006261747465E4
:1002C000727920747970653D006D696E757465731F
:1002D0002C20547A3D005D0A0D2020206C6F67674A
:1002E000696E6720696E74657276616C3D00467256
:1002F0006F6D20656570726F6D20636F6D6D6F6ED1
:100300003A204C6F676765722046696C65204E61C4
:100310006D655B00466163746F7279206465666128
:10032000756C74006D734C6F673031005D005D203B
:10033000736E5B005D20207265765B0046726F6DA8
:1003400020656570726F6D20626F6F74204E616DF5
:10035000655B00302E3562004D313233343536372F
:100360003839616263646566676800656E766972D4
:100370006F444959206D6179666C790050617273E0
:100380006520696E693B204E6F2066696C652000B0
:10039000436F6D706C657465642E004572726F7288
:1003A000206F6E206C696E65203A00506172736533
:1003B00020696E693B200056005620474F4F443D50
:1003C0000056204D454449554D3D0056204C4F5751
:1003D0003D00205468726573686F6C6473205553D8
:1003E0004541424C453D0042617474657279205428
:1003F0007970653D0050757474696E67206D6F6427
:10040000656D20746F20736C65657000436F756C4B
:1004100064206E6F742077616B65206D6F64656D0D
:1004200020666F7220636C6F636B2073796E632E2E
:1004300000436F756C64206E6F7420636F6E6E6521
:10044000637420746F20696E7465726E65742066C3
:100450006F7220636C6F636B2073796E632E005430
:10046000686973206D61792074616B6520757020F7
:10047000746F2074776F206D696E757465732100D9
:10048000417474656D7074696E6720746F20636F5A
:100490006E6E65637420746F2074686520696E7475
:1004A00065726E657420616E642073796E63687224
:1004B0006F6E697A65205254432077697468204EC4
:1004C00049535400446174612077696C6C20626503
:1004D00020736176656420617300556E61626C659E
:1004E00020746F2063726561746520612066696C99
:1004F0006520746F20736176652064617461207477
:100500006F210053657474696E6720757020666989
:100510006C65206F6E2053442063617264005365E4
:100520007474696E672075702073656E736F727373
:100530002E2E2E0054696D65200053796E6320774E
:10054000697468204E495354206F7665722057694C
:100550004669206E6574776F726B2000456E766910
:10056000726F794449595075626C6973686572207D
:100570007365745175656420000A0A2D2D2D706114
:10058000727365496E6920636F6D706C6574652068
:10059000002D2D2D7061727365496E692000476FC3
:1005A0006F6420426174563D002D2D2D2D57616BD7
:1005B000657570003A20426174746572794C6F778A
:1005C0002D536C65657036307365632C2042617401
:1005D000563D0054696E7947534D204C69627261F3
:1005E00072792076657273696F6E20004D6F647545
:1005F0006C617253656E736F727320766572736986
:100600006F6E20005377204E616D653A20000A2DF1
:100610002D2D426F6F742E205377204275696C64C4
:100620003A20007365727A426567696E206572725E
:100630002072656D6F766500646553524320726564
:100640006D6F766520657272007365727A426567B8
:10065000696E2065727220636C6F73650064655308
:10066000524320636C6F736520657272006465523B
:10067000533B204E6F2066696C6520007365727A6B
:10068000517565645374617274206F70656E206576
:100690007272006C6F67504C4F20657272206F70E1
:1006A000656E696E67007365632E205175657565AB
:1006B000642072656164696E67733D007265616490
:1006C000696E677320696E0053656E7400707562A1
:1006D00044515452207365727A5175656446696C51
:1006E00020657272005D000A707562445154522098
:1006F00053656E64696E67206461746120746F2055
:100700005B007365727A5264656C5F4C696E653B21
:10071000204E6F2066696C65002D2D2D2D2D2D2D01
:100720002D2D2D2D2D2D2D2D2D2D2D2D2D2D2D2DF9
:100730002D2D2D2D2D2D2D2D2D2D2D2D2D2D2D2DE9
:100740002D2D2D0A002D2D2D2D2D2D2D2D2D2D2D29
:100750002D2D2D2D2D2D2D2D2D2D2D2D2D2D2D2DC9
:100760002D2D2D2D2D2D2D2D2D2D2D2D2D2D2D00E6
:10077000204C626174743D00206C6F672650756276
:1007800020565F6261747400204C626174743D0095
:10079000204C6F674F6E6C792E205620746F6F203F
:1007A0006C6F772062617474657279563D002D2DEF
:1007B0002D4E657752656164696E672043414E43F3
:1007C000454C4C45442D2D4C626174745F563D0080
:1007D0004552524F52004C4100544D00544D300090
:1007E000544D00414D3000465200414D31004150C2
:1007F0003000414D30004149002B2B2B004143007C
:10080000575200434E004853004853002D3E0041CC
:100810006C6C207661726961626C65205555494443
:1008200027732061707065617220746F206265208B
:10083000636F72726563746C7920666F726D656444
:100840002E0A006861732061206E6F6E2D756E69CF
:100850007175652055554944210068617320616EAA
:1008600020696E76616C6964205555494421004CBD
:100870006F6767657220706F7274696F6E206F6644
:100880002073657475702066696E69736865642E7F
:100890000A0053616D706C696E67206665617475DE
:1008A000726520555549442069733A00617265208C
:1008B00063616C63756C617465642E0073656E733F
:1008C0006F727320616E6400636F6D652066726F76
:1008D0006D007661726961626C65732C206F6620B1
:1008E00077686963680054686973206C6F6767652F
:1008F00072206861732061207661726961626C6543
:100900002061727261792077697468004375727230
:10091000656E74205254432074696D652069733A82
:10092000002D2D2D2D2D2D2D2D2D2D2D2D2D2D2D24
:100930002D2D2D2D2D2D2D2D2D2D2D2D2D2D2D2DE7
:100940002D2D2D2D2D2D2D2D2D2D2D0A002D2D2D27
:100950002D2D2D2D2D2D2D2D2D2D2D2D2D2D2D2DC7
:100960002D2D2D2D2D2D2D2D2D2D2D2D2D2D2D2DB7
:100970002D2D2D2D2D2D2D0050696E000054500071
:1009800027206661696C65642E00586265652027C2
:1009900000586265655769666920696E69742074DC
:1009A0006573742050415353454400586265655740
:1009B00069666920696E69742074657374204641A4
:1009C000494C4544202D20686F706520697420775C
:1009D0006F726B73206E6578742074696D65004E5C
:1009E00053005D0058626565576946692049502388
:1009F000205B005862656557694669206E6F7420F8
:100A0000726563656976656420495023202D686F9F
:100A1000706520697420776F726B73206E657874CF
:100A20002074696D65004D590058626565576946C7
:100A300069206E6F74204150205265676973746538
:100A4000726564202D2061626F7274696E67206127
:100A50007474656D70742C20686F706520697420E3
:100A6000776F726B73206E6578742074696D6500A2
:100A70004149004C6F6F703D5365635D2072782073
:100A80006462203A205374617475732023506F6C34
:100A90006C65642053746174757320657665727932
:100AA00020317365632F333073656300544D0053F9
:100AB0004F00534D00495000443900443800505213
:100AC000002700586265655769466920496E697458
:100AD00069616C697A696E6720496E7465726E65CA
:100AE0007420636F6D6D732077697468206D6F6417
:100AF000656D2027004C4174696D652E6E697374B5
:100B00002E676F76006D6F646275735F3078004991
:100B100032435F30783638005F50696E0053444985
:100B200031322D00646174615075626C697368655F
:100B300072426173652073657451756564206368E2
:100B400065636B007365514346207365727A517516
:100B5000656446696C652E636C6F736532206572DF
:100B600072007365514346207467746F75744669EB
:100B70006C652E636C6F73653120657272007365EE
:100B8000514346207467746F757446696C652077AD
:100B90007269746533206572720073655143462033
:100BA0007467746F757446696C65207772697465D3
:100BB0003120657272007365514346206F70656E17
:100BC00032206572720073655143462072656E6112
:100BD0006D65312065727200736551434620657200
:100BE00072362072656D6F766500736551434620DD
:100BF00072656D6F76653120657272002C30580019
:100C00005344206572726F72436F64653A203058A6
:100C1000006572726F723A2000734654534D6574CA
:100C20002065727220666F7220007365636F6E6458
:100C300073206F66204E4953542E00496E746572BE
:100C40006E616C20436C6F636B2077697468696EAA
:100C50002000496E7465726E616C20436C6F636B2B
:100C60002073657420004261642074696D6573743B
:100C7000616D702C206E6F742073657474696E677B
:100C800020636C6F636B2E004D59000A4C6F6767D1
:100C900065724D6F64656D3A3A736574576946695C
:100CA0004964206572726F72202D6E6F20627566C6
:100CB00066657220000A4C6F676765724D6F6465E8
:100CC0006D3A3A7365745769466949642065727272
:100CD0006F72202D206578706563746564204E55B1
:100CE0004C4C20707472000A0D2020204C6F6767F6
:100CF00065724D6F64656D3A7365745769466949ED
:100D00006420746F6F206C6F6E673A205472696D47
:100D10006D656420746F20000A4C6F676765724DC3
:100D20006F64656D3A3A73657457694669507764C4
:100D3000206572726F72202D6E6F20627566666517
:100D40007220000A4C6F676765724D6F64656D3A7B
:100D50003A73657457694669507764206572726F9B
:100D600072202D206578706563746564204E554C43
:100D70004C20707472000A0D2020204C6F6767654C
:100D8000724D6F64656D3A73657457694669507743
:100D90006420746F6F206C6F6E673A205472696DB7
:100DA0006D656420746F20003D005D20004E6F74FF
:100DB00020737570706F72746564205B00414354DA
:100DC000494F4E2057726974652061626F72746575
:100DD000642E20696E737472756374696F6E202758
:100DE00000414354494F4E20434F5059206E6F7479
:100DF00020737570706F72746564207965743A0041
:100E0000434F505900454550524F4D205772697419
:100E1000652066696E697368656400414354494F93
:100E20004E2057726974652061707020454550529C
:100E30004F4D20737461727465643A00575249547F
:100E40004500414354494F4E0055534552002074CC
:100E50006F2000424F4F542074626420004545507B
:100E6000524F4D2057726974652061626F727465CC
:100E7000642E20696E737472756374696F6E2027B7
:100E800000454550524F4D20577269746520666980
:100E90006E697368656400454550524F4D20577226
:100EA00069746520737461727465643A00594553BE
:100EB00000454550524F4D5F575249544500426FCF
:100EC000617264205265763A00424F4152445F524B
:100ED000455600426F6172642053657269616C4EC1
:100EE000756D203A00424F4152445F534E00426FAD
:100EF000617264204E616D653A00424F4152445F19
:100F00004E414D4500424F4F540020746F20004E1B
:100F10004554574F524B207462642000434F4D4D4F
:100F20004F4E205365742053454E445F4F46465301
:100F300045545F4D494E206572726F723B20287296
:100F4000616E67652030203A203330292072656158
:100F5000643A00434F4D4D4F4E2053657420534526
:100F60004E445F4F46465345545F4D494E3A20002C
:100F700053454E445F4F46465345545F4D494E00DE
:100F8000434F4D4D4F4E2053657420434F4C4C45BD
:100F900043545F52454144494E4753206572726F36
:100FA000723B202872616E67652030203A20333012
:100FB0002920726561643A00434F4D4D4F4E2053D6
:100FC000657420434F4C4C4543545F52454144495E
:100FD0004E47533A2000434F4C4C4543545F5245D3
:100FE0004144494E475300434F4D4D4F4E205365AA
:100FF0007420504F53545F4D41585F4E554D2065FE
:1010000072726F723B202872616E67652030203AE1
:101010002035302920726561643A00434F4D4D4FB1
:101020004E2053657420504F53545F4D41585F4ECE
:10103000554D3A2000504F53545F4D41585F4E5527
:101040004D00434F4D4D4F4E205365742054494D34
:1010500045525F504F53545F504143455F4D5320BD
:101060006572726F723B202872616E676520302056
:101070003A20353030302920726561643A00434FA0
:101080004D4D4F4E205365742054494D45525F508D
:101090004F53545F504143455F4D533A20005449EC
:1010A0004D45525F504F53545F504143455F4D5340
:1010B00000434F4D4D4F4E205365742054494D45CC
:1010C000525F504F53545F544F55545F4D532065FA
:1010D00072726F723B202872616E6765203130300A
:1010E000203A2033303030302920726561643A0074
:1010F000434F4D4D4F4E205365742054494D45523A
:101100005F504F53545F544F55545F4D53203A2016
:101110000054494D45525F504F53545F544F5554FE
:101120005F4D530027206E6F772027004E455457A0
:101130004F524B20576946695077643A2077617364
:10114000202700576946695077640027206E6F7723
:101150002027004E4554574F524B20576946694946
:10116000643A207761732027005769466949640013
:101170004E4554574F524B0020746F200053454E3C
:10118000534F525320746264200053454E534F52C4
:10119000530020746F2000434F4D4D4F4E2074621A
:1011A00064200047454F47524150484943414C5FF6
:1011B00049443A0047454F47524150484943414C02
:1011C0005F494400434F4D4D4F4E205365742054AA
:1011D000696D655A6F6E65206572726F723B20286B
:1011E00072616E6765202D3132203A202B31322911
:1011F00020726561643A00434F4D4D4F4E20536558
:10120000742054696D655A6F6E653A200054494DDB
:10121000455F5A4F4E450020536574204C69496F15
:101220006E2054797065206572726F723B2028724F
:10123000616E676520302D322920726561643A0045
:10124000434F4D4D4F4E204C69496F6E205479707D
:10125000653A20004C49494F4E5F54595045002093
:10126000536574204C69496F6E2054797065206510
:1012700072726F723B202872616E676520302D326A
:101280002920726561643A00434F4D4D4F4E204214
:1012900061747465727920547970653A2000424116
:1012A00054544552595F5459504500292077697468
:1012B0006820726561643A002053657420696E7419
:1012C000657276616C206572726F72202872616E31
:1012D00067653A20312D00286D696E292066726F8E
:1012E0006D2064656661756C742000434F4D4D4FF1
:1012F0004E204C4F4747494E475F494E5445525642
:10130000414C5F4D494E55544553207365742074CC
:101310006F3A2000205573696E67204D61782E204A
:1013200052656164696E672069676E6F72656420DB
:1013300000434F4D4D4F4E204C4F4747494E475F5E
:10134000494E54455256414C5F4D494E55544553B4
:10135000206D757374206265206C657373207468EA
:10136000616E203A20004C4F4747494E475F494E37
:1013700054455256414C5F4D494E555445530043D8
:101380004F4D4D4F4E204C6F676765724964205337
:1013900065743A20004C4F474745525F494400432B
:1013A0004F4D4D4F4E007D2055554944206E6F7472
:1013B00020737570706F72746564007D206F757432
:1013C000206F662072616E67652E204E6F74757394
:1013D0006564007D007D207265706C6163696E6775
:1013E000207B00696E646578007D206D61746368A0
:1013F0002020262061646465642E003D7B0000553A
:10140000554944730050524F5649444552206E6F1F
:101410007420737570706F727465643A0050524F27
:1014200056494445522053657474696E6720536170
:101430006D706C696E67466561747572653A2000FF
:1014400053414D504C494E475F46454154555245D6
:101450000050524F56494445522053657474696E8A
:101460006720636C6F756449643A2000434C4F55A4
:10147000445F49440050524F5649444552205365F9
:101480007474696E672072656769737472617469D8
:101490006F6E20746F6B656E3A200052454749535A
:1014A00054524154494F4E5F544F4B454E00505299
:1014B0004F5649444552004552524F52004F440046
:1014C000544D00544D00444500444C0049500045E3
:1014D0006E7669726F794449595075626C697368A8
:1014E000657220675153200027006465737A714E3E
:1014F000657874436820316572726F723A006D537B
:101500002054696D656F7574007761697465642036
:10151000002D2D20526573706F6E736520436F64CC
:1015200065202D2D00202D2D204761746577617970
:101530002054696D656F7574207761726E696E678E
:101540002062756666657220737A20736D616C6CBB
:10155000000A202D2D20556E61626C6520746F206D
:1015600045737461626C69736820436F6E6E656366
:1015700074696F6E20746F20456E7669726F44498E
:1015800059204461746120506F7274616C202D2D5C
:10159000005F4368616E6E656C00414453313131C8
:1015A000355F307800646174615075626C6973688E
:1015B0006572426173652067515320636865636B90
:1015C000002D2D2D2D2D205741524E494E47202DB7
:1015D0002D2D2D2D202121212121212121212121CC
:1015E00021212121212121212100426164207469CE
:1015F0006D6520002121212121212121212121216D
:101600002121212121212121202D2D2D2D2D20575A
:1016100041524E494E47202D2D2D2D2D20003A3080
:1016200030003A3030003A3030003A30300021217A
:10163000212121212121212121212121212121219A
:101640002121202D2D2D2D2D205741524E494E4721
:10165000202D2D2D2D2D2000212121212121212161
:101660002121202D2D2D2D2D205741524E494E4701
:10167000202D2D2D2D2D2021212121212121212120
:1016800021002D2D2D2D2D205741524E494E472002
:101690002D2D2D2D2D2021212121212121212121FF
:1016A000212121212121212121210054686520634C
:1016B000757272656E7420636C6F636B2074696DF4
:1016C000657374616D70206973206E6F742076612C
:1016D0006C69642100212121212121212121212145
:1016E000212121212121212121202D2D2D2D2D20B0
:1016F0005741524E494E47202D2D2D2D2D20002192
:10170000212121212121212121202D2D2D2D2D208F
:101710005741524E494E47202D2D2D2D2D20212150
:101720002121212121212121002D2D2D2D2D205759
:1017300041524E494E47202D2D2D2D2D2021212166
:101740002121212121212121212121212121212189
:101750002100494400454500504B004552524F522C
:101760000D004F4B0D004545004442004C4D0025F7
:10177000560027006465737A4C696E652072656156
:1017800064756E67207374617274206E6F74206666
:101790006F756E640027006465737A4C696E65200E
:1017A00045706F6368206572722700270064657357
:1017B0007A4C696E652065706F636820737461721E
:1017C00074206E6F7420666F756E64002700646508
:1017D000737A4C696E6520537461747573206572F9
:1017E0007227002C002C002C000000210024002770
:1017F000002A0000002200250028002B0000000025
:101800000004030807000000010200090A000000AC
:1018100000000000000000000000000000455252DF
:101820004F5221204E6F2077656220636C69656E90
:10183000742061737369676E656420746F207075BE
:10184000626C697368206461746121001F1C1F1E33
:101850001F1E1F1F1E1F1E1F27002720736E3A27E3
:1018600000207265763A2700426F6172643A200068
:101870004D6F64756C617253656E736F7273207611
:1018800065727320002E205377204275696C643A8C
:1018900020005377204E616D653A20002020426180
:1018A0007474657279547970653A200020547A3ADC
:1018B000200020204C6F6767696E67496E746572FF
:1018C00076616C20286D696E293A20004C6F636147
:1018D00074696F6E3A20004461746520616E642003
:1018E00054696D6520696E205554430052657375C7
:1018F0006C7420555549443A00526573756C7420D8
:10190000556E69743A005661726961626C65204E69
:10191000616D653A0053656E736F72204E616D653F
:101920003A0053616D706C696E672046656174752D
:10193000726520555549443A200044617461204C39
:101940006F676765722046696C653A200044617470
:1019500061204C6F676765723A20004461746120B2
:1019600077696C6C206E6F74206265207361766598
:10197000642100536C6176652F436869702073653C
:101980006C6563742070696E20666F72205344200A
:101990006361726420686173206E6F742062656594
:1019A0006E207365742E00446174612077696C6CDD
:1019B000206E6F7420626520736176656421004536
:1019C00072726F723A2053442063617264206661C0
:1019D000696C656420746F20696E697469616C69F3
:1019E0007A65206F72206973206D697373696E6701
:1019F0002E002D2D2D2D5C2F000A205C2F2D2D2D3E
:101A00002D204C696E6520536176656420746F00EB
:101A1000556E61626C6520746F2077726974652001
:101A2000746F205344206361726421002000206998
:101A3000732000207265706F727473200020002084
:101A400069732063616C63756C6174656420746F85
:101A500020626520002D2D2D2D2D2D2D2D2D2D2D90
:101A60002D2D2D2D2D2D2D2D2D2D2D2D2D2D2D2DA6
:101A70002D2D2D2D2D2D2D2D2D2D2D2D2D2D2D00C3
:101A800045786974696E672074657374696E672040
:101A90006D6F6465002D2D2D2D2D2D2D2D2D2D2DB2
:101AA0002D2D2D2D2D2D2D2D2D2D2D2D002D2D2D93
:101AB0002D2D2D2D2D2D2D2D2D2D2D2D2D2D2D2D56
:101AC0002D2D2D2D0043757272656E74206C6F671D
:101AD0006765722074696D65206973002D2D2D2D49
:101AE0002D2D2D2D2D2D2D2D2D2D2D2D2D2D2D2D26
:101AF0002D2D2D2D2D2D2D2D2D2D2D2D2D2D2D2D16
:101B00002D2D2D2D2D2D00456E746572696E67206B
:101B100073656E736F722074657374696E67206D80
:101B20006F6465002D2D2D2D2D2D2D2D2D2D2D2D61
:101B30002D2D2D2D2D2D2D2D2D2D2D2D2D2D2D2DD5
:101B40002D2D2D2D2D2D2D2D2D2D2D2D2D2D0043DC
:101B50005436340047543634004552524F520D002B
:101B60004F4B0D004150300043490073657456617E
:101B70007255554944206572726F72202D206E6532
:101B800077206469646E277420776F726B20666FAC
:101B9000720000002000230026002900000102033B
:101BA00004050607000102030405060700010203FD
:101BB00004050607000102030405060704040404E3
:101BC00004040404020202020202020203030303E9
:101BD00003030303010101010101010101020408E2
:101BE00010204080010204081020408001020408F7
:101BF000102040800102040810204080689B50A4FF
:101C000011241FBECFEFD0E4DEBFCDBF1AE0A0E0AD
:101C1000B1E0E0E0F5E601E00BBF02C007900D92F5
:101C2000A23CB107D9F72BE1A2ECBAE001C01D92AA
:101C3000AA3AB207E1F71DE0CFEFDDE004C021973B
:101C4000FE010E9430AECE3FD107C9F70E943A9004
:101C50000C9473B20C940000DC01ED91FC910688A9
:101C6000F789E02D099591E0811101C090E0892F5D
:101C700008950F931F93CF93DF9300D000D000D02F
:101C8000CDB7DEB78C01DC01ED91FC910084F185CC
:101C9000E02D0995892BC9F41B821C821D821E82AE
:101CA000D8011C96ED91FC911D9745855685678559
:101CB00070898B819C81AD81BE81481759076A0765
:101CC0007B0729F0F801858903C081E001C080E02D
:101CD00026960FB6F894DEBF0FBECDBFDF91CF9131
:101CE0001F910F910895DC011C96ED91FC911D97B9
:101CF00080819181DC01ED91FC910680F781E02DDE
:101D00000994DC011C96ED91FC911D9780819181D5
:101D1000DC01ED91FC910484F585E02D0994CF93CD
:101D2000DF931F92CDB7DEB76983DC01ED91FC91A3
:101D30000280F381E02D41E050E0BE016F5F7F4FF4
:101D400009950F90DF91CF9108950F931F93CF9333
:101D5000DF9300D000D000D0CDB7DEB7DC01ED912D
:101D6000FC91048CF58DE02D25E833E03A8329833E
:101D7000DB0112960D911D912D913C9115970B83CE
:101D80001C832D833E8320E030E0BE016F5F7F4FD8
:101D9000099526960FB6F894DEBF0FBECDBFDF9132
:101DA000CF911F910F910895DC01ED91FC91028C70
:101DB000F38DE02D2BE430E009948091C40A811169
:101DC000FCCF08958091C30A8F5F843408F080E0CF
:101DD0009091C20A9817E1F32FB7F8949091C40A32
:101DE000992341F0E82FF0E0EC54F54E60838093A6
:101DF000C30A1DC081E08093C40A6093F91A10924F
:101E0000F81A82E086BB80916F00826080936F0039
:101E1000809180008F7B8068809380008091840017
:101E200090918500409690938900809388002FBF01
:101E300081E090E00895FC01848583FF0DC084A1BA
:101E400095A1A6A1B7A1448D558D668D778D841B74
:101E5000950BA60BB70B03C080E090E0DC01811569
:101E600020E89207A105B10520F08FEF9FE7A0E0E1
:101E7000B0E0089580E090E00895CF93DF93EC0107
:101E800062E070E080E090E00E942B68EC85FD85C8
:101E900080819181DC01ED91FC910284F385E02D3C
:101EA000DF91CF910994CF93DF93EC0162E070E072
:101EB00080E090E00E942B68EC85FD858081918117
:101EC000DC01ED91FC910084F185E02DDF91CF9153
:101ED0000994EF92FF920F931F93CF93DF937C01AE
:101EE000EB018A0162E070E080E090E00E942B68E4
:101EF000D7011C96ED91FC911D97A801BE01808130
:101F00009181DF91CF911F910F91FF90EF900C94F1
:101F1000F886EF92FF920F931F93CF93DF93EC011C
:101F20008B017A0162E070E080E090E00E942B6813
:101F3000A701B8018C859D85DF91CF911F910F91ED
:101F4000FF90EF900C94D54FCF92DF92EF92FF92DB
:101F50000F931F93CF93DF9300D000D000D0CDB765
:101F6000DEB78C016B017A01FC01848595850E94A6
:101F7000557BF801268585E893E09A838983F601ED
:101F800082819381A481B5818B839C83AD83BE8341
:101F9000A701BE016F5F7F4FF801848595850E9480
:101FA000ED4CF801858B90E026960FB6F894DEBFD5
:101FB0000FBECDBFDF91CF911F910F91FF90EF909A
:101FC000DF90CF9008950C960C949B788F929F92FF
:101FD000AF92BF92CF92DF92EF92FF920F931F9337
:101FE000CF93DF931F92CDB7DEB78C01FC01848CB9
:101FF000958CA68CB78CC08CD18CE28CF38CBE01F6
:102000006F5F7F4F0C960E941D88019719F489819C
:1020100090E002C08FEF9FEF8F3FFFEF9F0749F0E7
:10202000F801848E958EA68EB78EC08ED18EE28EEC
:10203000F38E0F90DF91CF911F910F91FF90EF9052
:10204000DF90CF90BF90AF909F908F900895CF93E7
:10205000DF931F92CDB7DEB7BE016F5F7F4F0C9647
:102060000E941D88019719F4898190E002C08FEFCA
:102070009FEF0F90DF91CF9108950C960C946078AC
:102080008F929F92AF92BF92CF92DF92EF92FF9288
:102090000F931F93CF93DF93EC018B0169017A01BA
:1020A00062E070E080E090E00E942B680E9465682A
:1020B0004B015C01D8018D919C91DC01ED91FC916B
:1020C0000084F185E02D0995892B69F40E946568EB
:1020D000DC01CB0188199909AA09BB098C159D055A
:1020E000AE05BF0538F3F801608171814DE0CE0186
:1020F0000E94D086CE010E94C283CE01DF91CF9193
:102100001F910F91FF90EF90DF90CF90BF90AF9015
:102110009F908F900895CF93DF93EC0163E078E078
:102120000E94368349E55BE160E67BE1CE010E94D7
:10213000178B1BA2DF91CF910895CF93DF93EC0112
:1021400060E078E00E94368349E55BE160E67BE190
:10215000CE010E94178B813079F46DEF77E0CE01CC
:102160000E94368349E55BE160E67BE1CE010E9497
:10217000178B91E0813009F090E0892FDF91CF91AA
:1021800008958F929F92AF92BF92DF92EF92FF924B
:102190000F931F93CF93DF93EC01D62E1BA1112336
:1021A00091F00E9465688CA09DA0AEA0BFA0DC014C
:1021B000CB0188199909AA09BB0980319742A10569
:1021C000B10508F454C0CE010E94557B84E0F82E7E
:1021D000E12CDE1409F44AC06E817F81665F7F4F77
:1021E000072E000C880B990B0E942B6869EF77E093
:1021F000888199810E94C7874E815F81440F551F56
:10220000052E000C660B770B09E51BE120E63BE190
:10221000CE010E94D58A182F81111BC0FA94F110AB
:1022200018C08A8587FD0DC060E00E94C16661E02C
:1022300070E080E090E00E942B6861E08A850E9457
:10224000C1666AEF70E080E090E00E942B6894E045
:10225000F92EE394113009F0BCCF1BA30E946568EE
:102260006CA37DA38EA39FA311E001C010E0812F7A
:10227000DF91CF911F910F91FF90EF90DF90BF9072
:10228000AF909F908F9008951F920F920FB60F926C
:1022900011240BB60F922F933F934F935F936F933D
:1022A0007F938F939F93AF93BF93CF93EF93FF93BE
:1022B00029B1C091551B80919D1B9091991B322F84
:1022C000309593238223892B90917300C227C923D1
:1022D000C8232093551BCC23C1F1C0FF05C0E0915A
:1022E000561BF091571B0995C1FF05C0E091581B83
:1022F000F091591B0995C2FF05C0E0915A1BF0915E
:102300005B1B0995C3FF05C0E0915C1BF0915D1B51
:102310000995C4FF05C0E0915E1BF0915F1B099514
:10232000C5FF05C0E091601BF091611B0995C6FFD8
:1023300005C0E091621BF091631B0995C7FF05C0C2
:10234000E091641BF091651B0995FF91EF91CF918E
:10235000BF91AF919F918F917F916F915F914F91BD
:102360003F912F910F900BBE0F900FBE0F901F90BB
:1023700018951F920F920FB60F9211240BB60F9261
:102380002F933F934F935F936F937F938F939F937D
:10239000AF93BF93CF93EF93FF9326B1C091661B8A
:1023A00080919E1B90919A1B322F3095932382230C
:1023B000892B90916D00C227C923C8232093661BE7
:1023C000CC23C1F1C0FF05C0E091671BF091681BF1
:1023D0000995C1FF05C0E091691BF0916A1B099541
:1023E000C2FF05C0E0916B1BF0916C1B0995C3FF08
:1023F00005C0E0916D1BF0916E1B0995C4FF05C0EF
:10240000E0916F1BF091701B0995C5FF05C0E0912D
:10241000711BF091721B0995C6FF05C0E091731BFB
:10242000F091741B0995C7FF05C0E091751BF091F1
:10243000761B0995FF91EF91CF91BF91AF919F913D
:102440008F917F916F915F914F913F912F910F905D
:102450000BBE0F900FBE0F901F9018951F920F92FA
:102460000FB60F9211240BB60F922F933F934F93F9
:102470005F936F937F938F939F93AF93BF93CF930C
:10248000EF93FF9323B1C091771B80919F1B909195
:102490009B1B322F309593238223892B90916C00C4
:1024A000C227C923C8232093771BCC23C1F1C0FFC7
:1024B00005C0E091781BF091791B0995C1FF05C01B
:1024C000E0917A1BF0917B1B0995C2FF05C0E0915A
:1024D0007C1BF0917D1B0995C3FF05C0E0917E1B1D
:1024E000F0917F1B0995C4FF05C0E091801BF0911E
:1024F000811B0995C5FF05C0E091821BF091831BEC
:102500000995C6FF05C0E091841BF091851B0995D4
:10251000C7FF05C0E091861BF091871B0995FF91CD
:10252000EF91CF91BF91AF919F918F917F916F91DB
:102530005F914F913F912F910F900BBE0F900FBE67
:102540000F901F9018951F920F920FB60F921124A3
:102550000BB60F922F933F934F935F936F937F939D
:102560008F939F93AF93BF93CF93EF93FF9320B13C
:10257000C091881B8091A01B90919C1B322F30959D
:1025800093238223892B90916B00C227C923C823F0
:102590002093881BCC23C1F1C0FF05C0E091891BAB
:1025A000F0918A1B0995C1FF05C0E0918B1BF0914A
:1025B0008C1B0995C2FF05C0E0918D1BF0918E1B0D
:1025C0000995C3FF05C0E0918F1BF091901B099501
:1025D000C4FF05C0E091911BF091921B0995C5FFC6
:1025E00005C0E091931BF091941B0995C6FF05C0AF
:1025F000E091951BF091961B0995C7FF05C0E091EE
:10260000971BF091981B0995FF91EF91CF91BF9186
:10261000AF919F918F917F916F915F914F913F917A
:102620002F910F900BBE0F900FBE0F901F9018951B
:102630001F920F920FB60F9211240BB60F922F9389
:102640003F934F935F936F937F938F939F93AF933A
:10265000BF93EF93FF93E091531BF091541B0995A7
:10266000FF91EF91BF91AF919F918F917F916F916A
:102670005F914F913F912F910F900BBE0F900FBE26
:102680000F901F9018951F920F920FB60F92112462
:102690000BB60F922F933F934F935F936F937F935C
:1026A0008F939F93AF93BF93EF93FF93E091511B51
:1026B000F091521B0995FF91EF91BF91AF919F91BE
:1026C0008F917F916F915F914F913F912F910F90DB
:1026D0000BBE0F900FBE0F901F9018951F920F9278
:1026E0000FB60F9211240BB60F922F933F934F9377
:1026F0005F936F937F938F939F93AF93BF93EF936A
:10270000FF93E0914F1BF091501B0995FF91EF91C2
:10271000BF91AF919F918F917F916F915F914F91F9
:102720003F912F910F900BBE0F900FBE0F901F90F7
:102730001895CF92DF92EF92FF920F931F93CF9352
:10274000DF93CDB7DEB72B970FB6F894DEBF0FBE81
:10275000CDBF9A01AB01BC01CE0101960E94401091
:10276000CE0101960E94928E882331F068E177E0D5
:10277000CE0101960E94BD858E01095F1F4F85E045
:10278000F80111928A95E9F745E050E0B801CE01D1
:1027900001960E94F68840E150E060E070E0C801D8
:1027A0000E94C2A56B017C01CE0101960E94EB85BF
:1027B000C6012B960FB6F894DEBF0FBECDBFDF91DA
:1027C000CF911F910F91FF90EF90DF90CF900895E0
:1027D000CF93DF93EC0169E078E00E94368348EE06
:1027E00053E060E070E0CE010E9499138F3F9105A5
:1027F00089F466E078E0CE010E94368348EE53E02B
:1028000060E070E0CE010E9499138F3F910511F4B2
:1028100080E090E099878887DF91CF9108958F922B
:102820009F92AF92BF92FF920F931F93CF93DF932C
:10283000EC01FBA0FF2021F08BA1882331F008C020
:1028400065E00E94C1108111F7CF84E090E0FEC0E6
:1028500088859985892B19F4CE010E94E81366EFCB
:1028600077E0CE010E94368340E157E260E070E0FD
:10287000CE010E949913288539852130364009F010
:10288000A8C08332910509F4D7C05CF48330910568
:102890002CF4813091050CF4A6C0B9C0439789F09F
:1028A000C9C0833491050CF0AFC0803491050CF0A1
:1028B000AEC08432910509F4ACC0879709F4A9C071
:1028C000B9C065E0CE010E94C110882309F4B4C0EC
:1028D00088859985892B19F4CE010E94E813888593
:1028E000998581309640B9F06AEE77E0CE010E947A
:1028F000368349E55BE160E67BE1CE010E94178B00
:10290000813021F0CE010E948B1096C0CE010E9432
:102910009D108823B9F367EE77E0CE010E943683DD
:1029200049E55BE160E67BE1CE010E94178B8130D7
:1029300049F71BA2888599858130964029F460ED7E
:1029400077E080E090E004C064E670E080E090E032
:102950000E942B680E9465684B015C010E946568BB
:10296000DC01CB0188199909AA09BB0980369A4E66
:10297000A105B10568F461E0CE010E94C11081118A
:1029800007C06AEF70E080E090E00E942B68E6CF1D
:102990008885998581309640A9F063EE77E0CE0175
:1029A0000E94368349E55BE160E67BE1CE010E944F
:1029B000178B813009F0A6CFCE010E949D1088238D
:1029C00009F4A0CFCE010E948B10CE010E94248B6F
:1029D00033C085329105E9F04CF48432910554F509
:1029E00082329105A4F4892B49F124C08D329105DE
:1029F00044F48B329105F4F48A97E1F462EF77E0C6
:102A00000CC08F32910539F08F3F910599F402E0A7
:102A100016C003E014C06EEE77E0CE010E9436834C
:102A200049E55BE160E67BE1CE010E94178BCE01B8
:102A30000E949D1004E003C001E001C000E010E02E
:102A4000F11003C0CE010E948B10C801DF91CF911D
:102A50001F910F91FF90BF90AF909F908F9008951E
:102A6000BF92CF92DF92EF92FF920F931F93CF937B
:102A7000DF93CDB7DEB72C970FB6F894DEBF0FBE4D
:102A8000CDBF6C01FC01848595850E94557BF601C4
:102A9000E484F584C7010E94557BF701178E10A2CC
:102AA00011A212A2B3A0BB2041F160EE77E0C701F2
:102AB0000E94368328E833E140E050E0B701CE01C0
:102AC00007960E944010F7018085918581309640DD
:102AD000D9F46CED77E0C7010E94368309E51BE16C
:102AE00020E63BE148E853E160E070E0C7010E9466
:102AF000D58AC7010E949D1007C065E0C7010E94EA
:102B0000C1108111D2CF2AC0BE01695F7F4FCE01B3
:102B100001960E946D86AE014F5F5F4F69ED77E0D1
:102B2000C7010E948B8BCE0101960E94EB8509E5BF
:102B30001BE120E63BE148E853E160E070E0C701BB
:102B40000E94D58AC7010E949D10B11003C0C70121
:102B50000E948B10CE0107960E94EB85F6018485BA
:102B600095850E94557BF601158A2C960FB6F89430
:102B7000DEBF0FBECDBFDF91CF911F910F91FF90B0
:102B8000EF90DF90CF90BF9008952F923F924F9299
:102B90005F926F927F928F929F92AF92BF92CF92ED
:102BA000DF92EF92FF920F931F93CF93DF93CDB7F6
:102BB000DEB760970FB6F894DEBF0FBECDBF6C01D5
:102BC0007B01588B4F873901DC011C968D919C91BC
:102BD0001D970E94557BF601F685FD87D6011C9650
:102BE0000D911C911D97F80133A0332091F1B7018D
:102BF000CE0101960E9476865801F1E1AF0EB11C1C
:102C0000BE016F5F7F4FC5010E945284982ECE0196
:102C100001960E94EB85911023C0B701CE01019669
:102C20000E947686BE016F5F7F4FC5010E949D8422
:102C3000CE0101960E94EB85D80159961C925997B6
:102C40005A961C925A975B961C925B975C961C92C4
:102C500007C065E0C8010E94C1108111C8CFFAC049
:102C60001B821C821D821E82F801418D528D638D54
:102C7000748D8B819C81AD81BE81481759076A078D
:102C80007B0709F0B4C062EA78E0CE0107960E94A3
:102C9000768660E170E0CE0107960E94A9840E94CA
:102CA00065684B015C0128EE33E0D3010E9439AE28
:102CB0002B013C01D80193962C90211067C065E050
:102CC000C8010E94C110811161C085E893E09A8318
:102CD00089831B821C821D821E827CC00E946568C3
:102CE000DC01CB0188199909AA09BB09841595054E
:102CF000A605B70590F462E070E080E090E00E94E5
:102D00002B68F80180819181DC01ED91FC910084B8
:102D1000F185E02D099504970CF3F801608171812C
:102D20004DE0CE0101960E94D086BE016F5F7F4FBD
:102D3000CE0107960E946384CE0101960E94EB8526
:102D4000CE0107960E94C283CE0107960E94928E02
:102D5000811116C060ED77E0CE0101960E943586A4
:102D6000BE016F5F7F4FCE0107960E9452848E870F
:102D7000CE0101960E94EB85BE85BB2309F487C076
:102D800064EC79E080E090E00E942B680E94656826
:102D9000DC01CB0188199909AA09BB09841595059D
:102DA000A605B70538F4A70166ED77E0C8010E94D3
:102DB000C482A7CF211089CFF12CC8010E948B10AB
:102DC000FF2009F482CFBE01695F7F4FCE010196DB
:102DD0000E944282CE0107960E94EB858B819C81E6
:102DE000AD81BE81F801818F928FA38FB48FD801FE
:102DF00059964D915D916D917C915C971B821C82DF
:102E00001D821E828B819C81AD81BE81481759072E
:102E10006A077B07C1F085E893E09A838983F8010C
:102E2000818D928DA38DB48D8B839C83AD83BE8366
:102E30002D854F855889BE016F5F7F4FC8010E9465
:102E4000ED4CF82E01C0F12C311003C0C8010E94D6
:102E50008B108F2DD60155968C9390E060960FB60F
:102E6000F894DEBF0FBECDBFDF91CF911F910F91C0
:102E7000FF90EF90DF90CF90BF90AF909F908F909A
:102E80007F906F905F904F903F902F90089521100A
:102E90009ACFFF24F39491CFFC0183A10895609110
:102EA000030170910401072E000C880B990B0E94FE
:102EB0005EAC08958F929F92AF92BF92FF920F9354
:102EC0001F93CF93DF93EC0181E08AA78AA19BA196
:102ED000ACA1BDA1892B8A2B8B2B49F4E881F98108
:102EE0000084F185E02DCE01099500E001C001E0EC
:102EF000E881F98102A4F3A5E02DCE010995F82E11
:102F0000882361F0E881F98100A4F1A5E02DCE01CC
:102F10000995811123C01AA610E021C00E9465689E
:102F20008AA09BA0ACA0BDA0DC01CB0188199909A7
:102F3000AA09BB09898C9A8CAB8CBC8C8815990525
:102F4000AA05BB0558F3E881F9810680F781E02DD9
:102F5000CE010995182F8823A9F0D4CF11E00111D3
:102F600006C0E881F9810684F785E02D07C0F110DD
:102F70000CC0E881F9810484F585E02DCE01099526
:102F8000182303C00111F5CFECCF812FDF91CF9132
:102F90001F910F91FF90BF90AF909F908F900895D9
:102FA0001F93CF93DF93EC01E881F98102A4F3A58D
:102FB000E02D0995882379F0E881F98104A0F5A135
:102FC000E02DCE010995182F89A187FD05C060E08D
:102FD0000E94C16601C011E0812FDF91CF911F9146
:102FE0000895CF93DF93FC01828187FD08C0EF0134
:102FF00060E00E94C1661AA21BA21CA21DA2DF9162
:10300000CF910895CF93DF93EC018BA187FD08C08A
:1030100061E00E94546761E08BA10E94C16608C014
:103020008CA99DA9AEA9BFA9892B8A2B8B2B31F422
:103030000E9465686CAB7DAB8EAB9FABC85BDF4F0E
:10304000888186608883DF91CF910895CF93DF9345
:10305000FC0123A521112CC0EC01838187FD04C054
:1030600060E085810E9454678B8587FD09C061E01F
:103070000E9454676C8581E068278B850E94C16639
:103080008D8187FD09C061E00E9454676E8181E0F7
:1030900068278D810E94C16689A187FD07C061E014
:1030A0000E94546760E089A10E94C16681E08BA7FD
:1030B000DF91CF910895CF93DF93EC018A8187FD53
:1030C00011C08B8587FD05C06C8591E069270E9442
:1030D000C16661E08A810E94546761E08A810E9432
:1030E000C16608C08AA19BA1ACA1BDA1892B8A2B76
:1030F0008B2B31F40E9465686AA37BA38CA39DA3EC
:10310000DF91CF9108958F929F92AF92BF92FF92DD
:103110000F931F93CF93DF93CDB7DEB728970FB6EA
:10312000F894DEBF0FBECDBF8C0181EF98ED909378
:103130000401809303019A8389839C838B8383E6B4
:103140008F838DE988878FE097E29E838D830E942D
:1031500065684B015C01D801ED91FC91008CF18D0B
:10316000E02DAE014D5F5F4FBE016F5F7F4FC80125
:103170000995F82E89819A81909304018093030127
:10318000009719F0813F984DE1F46AEF70E080E01C
:1031900090E00E942B6889819A81009719F0813F05
:1031A000984D79F40E946568DC01CB018819990972
:1031B000AA09BB0988399A43A105B10510F4F11099
:1031C000CACFD801ED91FC91028CF38DE02D9E01C8
:1031D0002B5F3F4FAE01485F5F4FBE01695F7F4F7E
:1031E000C8010995F822D801ED91FC91048CF58D68
:1031F000E02DC80109958F2D28960FB6F894DEBFF3
:103200000FBECDBFDF91CF911F910F91FF90BF9067
:10321000AF909F908F900895CF93DF93EC018D81B5
:1032200087FD11C06E810E94C1666F817885898596
:103230009A850E942B686E8181E068278D810E94AB
:10324000C16681E001C080E0DF91CF910895CF9207
:10325000DF92EF92FF920F931F93CF93DF93EC01D6
:103260000E9465686B017C01E881F9810484F58521
:10327000E02DCE0109958A8187FD43C08B8187FDB2
:103280001AC00E946568DC01CB018C199D09AE094A
:10329000BF090D891E892F89388D80179107A207D4
:1032A000B30758F58B810E94FD652C8130E08217B1
:1032B000930719F5E6CF8D899E89AF89B88D892B43
:1032C0008A2B8B2B89F00E946568DC01CB018C195D
:1032D0009D09AE09BF090D891E892F89388D801778
:1032E0009107A207B30778F360E08A810E94C16664
:1032F0001AA21BA21CA21DA204C08B810E94FD6504
:10330000F3CF81E0DF91CF911F910F91FF90EF906C
:10331000DF90CF900895BF92CF92DF92EF92FF920D
:103320000F931F93CF93DF936B018C01E12CF12C52
:10333000B02ED12FF801C1918F01CC23F1F0C1142F
:10334000D10449F06C2F0C2E000C770BC6010E94A3
:1033500011B2892B91F4EF2851F06C2F0C2E000C38
:10336000770B8BE197E00E9411B2892B31F48C2FFF
:1033700090E00E941FA87C01DBCF8B2D9D2FDF9159
:10338000CF911F910F91FF90EF90DF90CF90BF9062
:1033900008950F931F93CF93DF938C01EC01099055
:1033A0000020E9F721970C171D0740F48A9190E05F
:1033B0000E941FA8892B11F01882F5CFC801DF9158
:1033C000CF911F910F9108952F923F924F925F924C
:1033D0006F927F928F929F92AF92BF92CF92DF9225
:1033E000EF92FF920F931F93CF93DF93CDB7DEB78A
:1033F000CA5CD1090FB6F894DEBF0FBECDBF2B015A
:10340000FE01EB59FF4F1192119220E3DF01322FA1
:103410001D923A95E9F7FE01E956FF4F119211927C
:10342000DF011D922A95E9F7C12CD12CA12CB12CDA
:1034300083589D4F3C01FE0131967F01CE010496D9
:10344000C753DF4F99838883C95CD040B701C3015C
:103450000E94BA37892B09F4B9C09FEFA91AB90A9B
:10346000A1E0AA16B104A1F489818F3E89F48A8172
:103470008B3B71F48B818F3B59F4C753DF4F8881AD
:10348000C95CD040C653DF4F9881CA5CD04001C0B0
:10349000C7010E94C9198C014801F80131908F01C0
:1034A000332031F0832D90E00E941FA8892BA1F7D3
:1034B000632D032C000C770B8DE197E00E9411B275
:1034C000892B21F6C956DF4F8881C759D040882300
:1034D00061F0332009F4BACFE814F90408F072C09F
:1034E000A401BE0169567F4F5FC0FBE53F1221C0BA
:1034F0003FEF831A930A60E277E0C4010E948B19C0
:10350000DC012C912D3509F057C01C9241E350E0AD
:10351000B401CE018B599F4F0E944AB2CA56DF4F69
:103520001882C659D040C956DF4F1882C759D040BB
:103530008DCF332009F48ACF62E277E0C4010E9484
:103540008B19FC0120812D3311F02A33A9F5DC0100
:103550001D928D01C4010E94C9194C0160E070E008
:10356000C8010E948B19FC012081211110821801D1
:10357000D8018D918D01882329F090E00E941FA829
:10358000892BA9F7C1010E94C91941E350E0B40198
:10359000CE0189569F4F0E944AB2C853DF4F18820E
:1035A000C85CD040A101B401CE018B599F4FF201FC
:1035B0000995892B09F04ACFC114D10409F046CFEF
:1035C000650144CFFBE53F12B7CF92CF8C2DC65398
:1035D000DF4F0FB6F894DEBF0FBECDBFDF91CF91A6
:1035E0001F910F91FF90EF90DF90CF90BF90AF9021
:1035F0009F908F907F906F905F904F903F902F9013
:1036000008950F931F93CF93DF93EC018C01035E1A
:103610001F4FC8010E94C93DCE010E94BA5A88239B
:1036200069F181E08093F50CC8010E94C93D8DE4E9
:1036300099E00E948A6ECE010E940F588F8187FD0B
:1036400003C061E00E94C166C8010E94C93D8D852A
:103650009E850E946B41C8010E94C93DCE010E9417
:10366000318061E0CE010E941758CE010E940758B8
:1036700081E299E00E948A6E1092F50C8091F30C21
:10368000882339F0E881F9810680F781E02DCE01A9
:10369000099560E0CE01DF91CF911F910F910C94BD
:1036A000BF560F931F93CF93DF938B01EA01BC01A9
:1036B00086E59CE00E94C78760E286E59CE00E9468
:1036C0008C87B80186E59CE00E94A58760E286E5CC
:1036D0009CE00E948C87CE01DF91CF911F910F91CA
:1036E0000C948A6ECF93DF93EC01FB0164A175A16A
:1036F0000E947686CE01DF91CF910895EF92FF92DE
:103700000F931F93CF93DF9300D000D000D0CDB79D
:10371000DEB78C017B0168E779E00E943586F7010E
:1037200062A1062E000C770BCE0101960E94A84BD9
:10373000BE016F5F7F4FC8010E94A14BCE01019671
:103740000E94EB85C80126960FB6F894DEBF0FBE27
:10375000CDBFDF91CF911F910F91FF90EF90089512
:103760008F929F92AF92BF92CF92DF92EF92FF9291
:103770000F931F93CF93DF93CDB7DEB762970FB64A
:10378000F894DEBF0FBECDBF7C018C01035E1F4FDE
:1037900084E893E0A0E0B0E0F701858F968FA78FD3
:1037A000B0A380E790E0A0E0B0E08093A9159093EB
:1037B000AA15A093AB15B093AC15C8010E94EB3DC0
:1037C000D70117968C9187FD08C061E00E9454676D
:1037D00060E0F70187810E94C166D70116968C913F
:1037E00087FD03C061E00E945467F701818587FD72
:1037F00003C061E00E945467D7011A968C9187FD3F
:1038000009C062E00E94546761E97BE7F7018285A5
:103810000E94A38EC8010E94C93D0E94BE36C80105
:103820000E94C93D10924E0C10924F0C1092500CF9
:103830001092510CD70118968C9187FD03C062E05D
:103840000E9454670E94F036C8010E94C93DC80119
:103850000E94C93D0E943C56AB01BC01CE010196BD
:103860000E948D58BE016F5F7F4F8CE099E00E94EF
:103870008A3FCE0101960E94EB85C8010E94C93D96
:10388000F70105851685C8010E940E41D8011496DE
:103890008C93C8010E94AE44F8018383A12C992423
:1038A0009394D80112968C911297A81608F0A6C08E
:1038B000CA2CD12CCC0CDD1CED91FC91EC0DFD1D26
:1038C00020813181D9015196ED91FC9152978081EF
:1038D0008823E1F1DF010D900020E9F7CD01859704
:1038E0008E179F0709F580858D32F1F485858D321D
:1038F000D9F482898D32C1F487898D32A9F4AF0160
:103900004C5D5F4F619180E0A82FB0E0AB5DB84F98
:103910009C91691303C087E191E001C090E08F5F43
:1039200091115FC1873180F3F90167857089CE01FC
:1039300001960E9476866AE578E0CE0101960E94A3
:10394000C844CE0101960E94EB85912CA394BA2C19
:10395000D80112968C911297B81608F0A2CF9C91BC
:1039600011968C91E92FF82FEB0DF11DEB0DF11D48
:103970000190F081E02D61897289CE0101960E944B
:103980007686D801ED91FC91EC0DFD1D0190F08142
:10399000E02D61897289CE0107960E947686BE016C
:1039A0006F5F7F4FCE0107960E945284882ECE0112
:1039B00007960E94EB85CE0101960E94EB85882038
:1039C000D9F0D801ED91FC91EC0DFD1D0190F08135
:1039D000E02D67857089CE0101960E94768663E4AA
:1039E00078E0CE0101960E94C844CE0101960E9463
:1039F000EB85F801B280912CB394AACF992021F0E5
:103A00008FE098E00E948A6EB12CD80112968C91BA
:103A10001297B81608F048C0CB2CD12CCC0CDD1C6A
:103A2000ED91FC91EC0DFD1D0190F081E02D67857D
:103A30007089CE0107960E947686F8018081918177
:103A4000FC01EC0DFD1D0190F081E02D6189728972
:103A5000CE010D960E947686BE01635F7F4F86E59C
:103A60009CE00E94A78760E286E59CE00E948C872C
:103A7000BE01695F7F4FCE0101960E946D86BE0137
:103A80006F5F7F4F8CE098E00E948A3FCE010196E5
:103A90000E94EB85CE010D960E94EB85CE01079624
:103AA0000E94EB85B394B1CF60E286E59CE00E9472
:103AB0009387D7011D960D911C911E97C8010E94F6
:103AC0000B3EC82EC8010E94AE44B82EF701858572
:103AD0009685DC011296DC900E940B3E0D2D10E0C5
:103AE000081B110966EE78E086E59CE00E94C78716
:103AF00060E286E59CE00E948C874AE050E06D2DF4
:103B000086E59CE00E947C8760E286E59CE00E945E
:103B10008C8762ED78E086E59CE00E94C78760E2D2
:103B200086E59CE00E948C87B80186E59CE00E94B7
:103B3000418C60E286E59CE00E948C8768EC78E02E
:103B400086E59CE00E94C78760E286E59CE00E94D3
:103B50008C874AE050E06B2D86E59CE00E947C87D4
:103B600060E286E59CE00E948C876CEB78E086E55D
:103B70009CE00E94C78760E286E59CE00E948C87FB
:103B80004AE050E06C2D86E59CE00E947C8760E274
:103B900086E59CE00E948C878CEA98E00E948A6E01
:103BA000F701638574856115710521F082E998E05C
:103BB0000E94FA518FE698E00E948A6E62960FB6D4
:103BC000F894DEBF0FBECDBFDF91CF911F910F9153
:103BD000FF90EF90DF90CF90BF90AF909F908F902D
:103BE0000895E417F50709F08DCEB0CECF93DF939B
:103BF000E901FB011082FA011082C2960E94325E36
:103C00009983888381E0DF91CF9108958F929F926D
:103C1000AF92BF92CF92DF92EF92FF921F93CF931A
:103C2000DF932FEF3FEF30930401209303011091B6
:103C3000CD0A112309F43FC0EC017C0122E3E20E1E
:103C4000F11C65E0C7010E94C110182F0E94656831
:103C50004B015C01C7010E946B5EC82E880FDD0816
:103C6000C114D10491F0D0920401C0920301C701A4
:103C70000E94325EE881F981048CF58DE02DCE0141
:103C80000995C7010E948B1016C06AEF70E080E0B2
:103C900090E00E942B680E946568DC01CB018819C6
:103CA0009909AA09BB0988399A43A105B105D8F633
:103CB0001111D0CFD8CF812FDF91CF911F91FF90DD
:103CC000EF90DF90CF90BF90AF909F908F9008952E
:103CD000AF92BF92CF92DF92FF920F931F93CF9339
:103CE000DF93EC015B018A0181EF98EDFA0191838A
:103CF0008083FB0191838083CE01C2960E946B5E1C
:103D0000F82EC82E880FDD08C65ADF4FCE010E945C
:103D1000390E882319F0CE010E943015F501D182A9
:103D2000C082CD28B1F06F2DFF0C770B880B990B5B
:103D30000E945EAC2BEE32EE4EEC5FE30E94BDAC17
:103D400029E23CE946E353E40E944AAE0E9428AFD0
:103D500002C060E070E0F8017183608381E0DF9170
:103D6000CF911F910F91FF90DF90CF90BF90AF90B8
:103D70000895C2960C94B93F4F925F926F927F92D2
:103D80008F929F92AF92BF92CF92DF92EF92FF926B
:103D90000F931F93CF938C012A013B017C0182E397
:103DA000E80EF11CC7010E94B93FC82F882311F00B
:103DB000C1E048C05801E7EBAE0EB11C6801F5EB5D
:103DC000CF0ED11CF50140815181F60160817181D6
:103DD000C7010E94BA5E8823A9F3F801EB5AFF4F8E
:103DE0001081112329F00E9465684B015C0112C00B
:103DF00065E0C7010E94C1108111F5CF23C0C70142
:103E00000E94B93F81111AC06AEF70E080E090E033
:103E10000E942B680E946568DC01CB018819990912
:103E2000AA09BB0984159505A605B70540F311112C
:103E300009C0C0E0C7010E948B1004C01111B8CFA7
:103E4000C1E0F8CF8C2FCF911F910F91FF90EF9091
:103E5000DF90CF90BF90AF909F908F907F906F90AA
:103E60005F904F9008953F924F925F926F927F9232
:103E70008F929F92AF92BF92CF92DF92EF92FF927A
:103E80000F931F93CF93DF93EC018AA19BA1ACA169
:103E9000BDA1892B8A2B8B2B39F4E881F981008411
:103EA000F185E02DCE010995E881F98100A0F1A10D
:103EB000E02DCE0109950E9465680AA11BA12CA1E5
:103EC0003DA1DC01CB01801B910BA20BB30B098D33
:103ED0001A8D2B8D3C8D80179107A207B30758F3DD
:103EE000E881F98102A4F3A5E02DCE0109958111A5
:103EF00007C0E881F98106A0F7A1E02DCE01099560
:103F000083E0382ECE01C2967C016E0195E5C90E84
:103F1000D11C3A94332029F18D8C9E8CAF8CB8A0A3
:103F2000A4EF8A0EA1E09A1EA11CB11C0E94656834
:103F30002B013C010E946568DC01CB0184199509C5
:103F4000A609B70988159905AA05BB0508F447C055
:103F5000E881F9810088F189E02DCE010995811170
:103F6000D8CF10E08AA99BA9DC01ED91FC910084D7
:103F7000F185E02D0995892B79F08AA99BA9DC01AF
:103F8000ED91FC910284F385E02D099560E070E0ED
:103F9000CB010E942B68E6CF8AA5811109C0E88178
:103FA000F9810480F581E02DCE010995182F04C018
:103FB000C7010E94248B1823FE01E65AFF4FF586A5
:103FC000E4861686158AFDABECAB112309F44CC0D0
:103FD00089A187FD49C061E00E94C16645C0F60124
:103FE000808181110BC065E0C7010E94C110182FAC
:103FF000882389F1C7010E948B102DC00EA91FA92B
:104000006DE377E08AA99BA90E94A587B8018AA9D8
:104010009BA90E94A5878AA99BA9DC01ED91FC912F
:104020000680F781E02D099560E070E0CB010E94E9
:104030002B680BE517E122E637E148EC50E060E041
:1040400070E0C7010E94D58A813021F0F60110820C
:1040500010E001C011E06AEF70E080E090E00E94A3
:104060002B6811117FCF66CF812FDF91CF911F91E8
:104070000F91FF90EF90DF90CF90BF90AF909F9007
:104080008F907F906F905F904F903F900895FF9238
:104090000F931F93CF93DF938C01FC018585968549
:1040A000A785B089892B8A2B8B2B79F0838187FD9B
:1040B0003EC00E94FD6521E0892B09F420E081E0EB
:1040C000F8019481291352C054C0F801C3850C2E05
:1040D000000CDD0BFE01E452F44EE4916E2F70E013
:1040E00080E090E00E945CAC0E946BAFFE01E45463
:1040F000F44EE491F0E0EE0FFF1FEE56F44EA59162
:10410000B491CC91D0E028E132E741E35FE30E9433
:10411000B6AE0E9428AF02C0D595C7956A95E2F762
:10412000C17081E0F8019485C91320C022C085E0E8
:10413000F82EE801E2966CE779E0CE010E94368322
:104140000BE517E122E637E144E650E060E070E07D
:10415000CE010E94D58A813059F062E370E080E0A0
:1041600090E00E942B68FA94F110E5CF80E001C046
:1041700081E0DF91CF911F910F91FF900895CF9330
:10418000DF93EC010E94743FCE01DF91CF910C943C
:1041900039A52F923F924F925F926F927F928F92AA
:1041A0009F92AF92BF92CF92DF92EF92FF920F93C6
:1041B0001F93CF93DF93CDB7DEB7C056D1090FB6AB
:1041C000F894DEBF0FBECDBF5C01DC01ED91FC9128
:1041D00002A0F3A1E02D0995882309F4ECC0650144
:1041E000BAE5CB0ED11CC6010E94301562EA78E018
:1041F000CE018B5A9F4F0E947686FE0131964F0169
:10420000A4E64A2E512C612C712CA096EFAFA097FA
:10421000A1969FAEA1971501F2E32F0E311C0E94CB
:104220006568D50196960D911D912D913C919997B8
:104230000056104F2F4F3F4F6017710782079307AB
:1042400070F388E4E2E1F4E0A096AFADA097A19608
:10425000BFADA19701900D928A95E1F7E5E8F3E0F3
:104260006196FFAFEEAF6197F4E86296FFAF629799
:1042700023EA63962FAF639731E664963FAF649766
:1042800041E065964FAF659765EF7AE0C1010E9406
:104290003683FBE5EF2EF7E1FF2E02E617E19E01E4
:1042A0002B5A3F4F40EA5FE060E070E0C1010E949E
:1042B000AE89CE018B5A9F4F0E94C2836B968EAD02
:1042C0009FAD6B9707970E9710F0B40104C06796E7
:1042D0006EAD7FAD6797CE01815B9F4F0E94FF5D02
:1042E00085E893E02B969FAF8EAF2B9765968CADAC
:1042F0009DADAEADBFAD65972F968CAF9DAFAEAF08
:10430000BFAF2F9745E250E0BE01675B7F4FC6010C
:104310000E94A50E892BA9F1C301B2010E942B684E
:104320000E9465686F966CAF7DAF8EAF9FAF6F9741
:1043300061E2C6010E949387C6010E942C0E882369
:10434000C1F0C6010E94530F04979CF40E94656857
:10435000DC01CB016F962CAD3DAD4EAD5FAD6F97DF
:10436000821B930BA40BB50B88389341A105B105B3
:1043700018F3C6010E94530F049714F5C6010E945A
:10438000301584E6480E511C611C711C92E1890EA7
:10439000911CA4EF4A16A1E05A066104710409F0C9
:1043A0003ECFA12CB12CC12CD12CCE018B5A9F4FCA
:1043B0000E94EB8559C0A12CB12CC12CD12C54C02A
:1043C0002D961CAE1DAE1EAE1FAE2D9744E050E0E4
:1043D000BE01675B7F4FC6010E94690FC6010E9444
:1043E00030152A968FAD2A9790E0A0E0B0E0BA2F62
:1043F000A92F982F88272B962FAD2B97820F911DD1
:10440000A11DB11DBA2FA92F982F88272C962FAD4B
:104410002C97820F911DA11DB11D2D964FAD2D978B
:1044200050E060E070E040585E476A4A7348BA2F37
:10443000A92F982F8827840F951FA61FB71F803894
:104440004DEA94074AE2A4074CE5B40708F4A9CF63
:10445000813858ED95075BEDA50750E7B50708F0E3
:10446000A0CF5C016D01A1CFB501C601C05ADF4FDD
:104470000FB6F894DEBF0FBECDBFDF91CF911F9175
:104480000F91FF90EF90DF90CF90BF90AF909F90F3
:104490008F907F906F905F904F903F902F900895F6
:1044A000CF92DF92EF92FF920F931F93CF93DF9300
:1044B000CDB7DEB72C970FB6F894DEBF0FBECDBFD9
:1044C0008C010E5C1F4F7C0125E5E20EF11CF7010B
:1044D000D080DD2029F0F701F080F1101CC00EC063
:1044E00065E0C8010E94C1108111F5CFC12C9CE389
:1044F000D92E9CE1E92E96ECF92E68C065E0C80142
:104500000E94C110811107C062EA78E0CE010796CF
:104510000E94768624C06DE779E0C8010E94368348
:1045200028EE33E040E050E0B801CE0101960E9451
:104530004010F11003C0C8010E948B1018861F8222
:104540001A8619861C861B86BE016F5F7F4FCE01BF
:1045500007960E946384CE0101960E94EB85CE01EE
:1045600007960E94928E811126C0CE0101967C0191
:1045700085E0F70111928A95E9F745E050E0B7012F
:10458000CE0107960E94F68840E150E060E070E0BE
:10459000C7010E94C2A5F62ED11003C0C8010E9417
:1045A0008B106F2DFF0C770B880B990B0E945EAC64
:1045B0006B017C0107C0C12C8CE3D82E8CE1E82E66
:1045C00086ECF82ECE0107960E94EB85C701B60156
:1045D0002C960FB6F894DEBF0FBECDBFDF91CF9102
:1045E0001F910F91FF90EF90DF90CF9008952F9241
:1045F0003F924F925F926F927F928F929F92AF9273
:10460000BF92CF92DF92EF92FF920F931F93CF93BF
:10461000DF93CDB7DEB7C054D1090FB6F894DEBF33
:104620000FBECDBF7C016C0122E3C20ED11CC601BE
:104630000E94248B182FF701E65AFF4FD586C486B7
:104640001686158AD701D596FC93EE93D497DA9601
:104650006D917C91DB97CE0101960E9475525701B6
:10466000BCE2AB0EB11CBE016F5F7F4FC5010E9463
:104670009D84CE0101960E94EB8565E0C6010E94F3
:10468000C110882309F4E6C1C6010E94E813F701AE
:1046900062AD73ADCE0101960E947552BE016F5F8F
:1046A0007F4FC5010E949D84CE0101960E94EB853B
:1046B000B501CE0101960E946D8641EC5AE0BE0123
:1046C0006F5F7F4F83EC9AE00E941763CE010196E3
:1046D0000E94EB8540E457E06EEB7AE0C6010E9451
:1046E000C4824BE557E162E677E1C6010E94178B71
:1046F00041E050E06BEB7AE0C6010E94FD824BE5A1
:1047000057E162E677E1C6010E94178B41E050E075
:1047100068EB7AE0C6010E94FD824BE557E162E654
:1047200077E1C6010E94178B41E050E065EB7AE02B
:10473000C6010E94FD824BE557E162E677E1C601C2
:104740000E94178B41E050E062EB7AE0C6010E94C4
:10475000FD824BE557E162E677E1C6010E94178BC7
:1047600048EC50E06FEA7AE0C6010E94FD824BE51A
:1047700057E162E677E1C6010E94178BF701E95421
:10478000FF4F40815181329760817181C6010E9443
:10479000BA5E40E450E06CEA7AE0C6010E94FD8215
:1047A0004BE557E162E677E1C6010E94178B21963F
:1047B0008FAF2197C6010E949D107E01F2E2EF0E9D
:1047C000F11C62EA78E0C7010E94768683E79AE0EE
:1047D0000E948A6E0E9465681B012C01912C612C3D
:1047E000712C0E946568DC01CB0182199309A40930
:1047F000B509803E9349A440B10508F040C160E787
:104800007AE0C6010E94368340E157E260E070E042
:10481000C6010E949913882E40E1682FCE01CA96E6
:104820000E94F08560E070E0CE01C4960E94A84B23
:104830000E9465681FA61EA619AA18AA1BAA1AAA72
:104840000E945CAC20E030E04AE754E40E94B6AE3F
:104850008E010F5F1F4F22E044E00E9481A4BC0143
:10486000CE018E960E94BD8519A618A61BA61AA673
:104870001DA61CA64AE0B801C3010E9467A8B801A2
:10488000CE0188960E94BD85BE01685D7F4FC8013C
:104890000E946D8660E577E0C8010E947085BE01C8
:1048A000625D7F4F0E94898565E477E00E94708594
:1048B000BE016C5C7F4F0E94898568E477E00E94AE
:1048C0007085BE01665C7F4F0E948985BC01C7016F
:1048D0000E94D485C8010E94EB85CE0188960E9473
:1048E000EB85CE018E960E94EB85CE01C4960E9488
:1048F000EB85CE01CA960E94EB8581102CC04AE060
:10490000692DCE0188960E94F0856CE477E0C8019D
:104910000E947686BE01685D7F4FC8010E9489852E
:10492000BC01C7010E94A14BC8010E94EB85CE01CA
:1049300088960E94EB85B701C8010E946D86B80178
:1049400086E59CE00E94B587C8010E94EB859394A0
:1049500083E08915D0F0B701CE0101960E946D86E3
:10496000BE016F5F7F4F86E59CE00E94B587CE0158
:1049700001960E94EB8568EE73E080E090E00E9473
:104980002B68AFEF6A1A7A0A2CCF62EA78E0CE0180
:1049900001960E94768694EF492E55245394612CFB
:1049A000712CC301B2010E942B6866E27AE0C60155
:1049B0000E9436833BE5E32E37E1F32E02E617E152
:1049C0009E012F5F3F4F48EE53E060E070E0C6016C
:1049D0000E94AE8962E577E0CE0188960E947686D5
:1049E000BE01685D7F4FCE0101960E942284892B13
:1049F00009F451C011E08D819E81089708F44BC0E5
:104A0000CE0188960E94EB85111147C062EA78E0DA
:104A1000CE0101960E94BD85B4EF4B0EB1E05B1E46
:104A2000611C711CE4E34E16E1E25E066104710450
:104A300009F0B7CF83EF99E00E948A6E10E0CE01B3
:104A400001960E94EB85C6010E948B10CE018296D2
:104A50000E94EB85111198C0B501CE0101960E940C
:104A60006D8640E859E0BE016F5F7F4F8AE899E0AC
:104A70000E941763CE0101960E94EB8585C089E2F2
:104A80009AE00E948A6E64E670E080E090E00E9406
:104A90002B6810E0D8CF10E0B3CFBE016F5F7F4F1F
:104AA000CE0188960E946D8642EE59E0BE01685D97
:104AB0007F4F84EE99E00E941763CE0188960E9492
:104AC000EB8562EA78E0CE0101960E94BD8584EF15
:104AD000482E55245394612C712CC301B2010E94BD
:104AE0002B686FED79E0C6010E9436832BE5E22E3C
:104AF00027E1F22E02E617E19E012F5F3F4F48EEBD
:104B000053E060E070E0C6010E94AE8962E577E0A4
:104B1000CE0188960E947686BE01685D7F4FCE01E9
:104B200001960E942284892B29F011E08D819E81BB
:104B3000089708F410E0CE0188960E94EB851111C9
:104B400017C062EA78E0CE0101960E94BD85F4EFBD
:104B50004F0EF1E05F1E611C711C20E7421627E139
:104B600052066104710409F0B8CF8BEA99E064CF72
:104B700011E021968FAD2197813009F010E081E995
:104B800099E00E948A6E5BCF812FC05CDF4F0FB629
:104B9000F894DEBF0FBECDBFDF91CF911F910F9173
:104BA000FF90EF90DF90CF90BF90AF909F908F904D
:104BB0007F906F905F904F903F902F9008950F934C
:104BC0001F93CF93DF93EB010E9465688B010E94D6
:104BD0006A588F3F49F00E946568601B710BC617C9
:104BE000D707A8F780E001C081E0DF91CF911F9146
:104BF0000F910895CF93DF93FC012381222361F06D
:104C0000EC010180F281E02D61E082810E94C166A9
:104C10008FEF0E9465581B82DF91CF9108950F930B
:104C20001F93CF93DF938C01862FEA010E94655872
:104C300088818EBD8981FE013296DE5F0DB407FE4C
:104C4000FDCF8EBDEC17FD0711F08191F7CF0DB4AC
:104C500007FEFDCF8FEF0E9465588FEF0E946558C9
:104C60000E946A58F80184838F71853039F087E596
:104C70008083C8010E94FA2580E001C081E0DF91B5
:104C8000CF911F910F910895FF920F931F93CF9390
:104C9000DF9300D000D0CDB7DEB78C01F62E29838C
:104CA0003A834B835C83FC018381811103C0C8017B
:104CB0000E945158FF2029F06CE271E0C8010E9467
:104CC000DF258F2D80640E9465588C810E94655875
:104CD0008B810E9465588A810E94655889810E9453
:104CE0006558FF2011F087E801C085E90E946558EA
:104CF0000E946A588BE0F82E0E946A58F80184835B
:104D000087FF03C0FA94F110F7CF0F900F900F9028
:104D10000F90DF91CF911F910F91FF9008950F9306
:104D20001F93CF93DF93EC0189018D81833039F09C
:104D300089E0440F551F661F771F8A95D1F79A01A6
:104D4000AB0168E1CE010E944426882311F082E382
:104D500023C0A8016EEFCE010E940F268823E9F040
:104D600060ED77E0CE010E94DF25182F811102C08F
:104D70008AE512C020E030E0A9016DE0CE010E947A
:104D80004426811108C00E946A58811104C0CE01D6
:104D90000E94FA2506C089E28883CE010E94FA2586
:104DA00010E0812FDF91CF911F910F9108950F9304
:104DB0001F93CF93DF93EC0189018D81833039F00C
:104DC00089E0440F551F661F771F8A95D1F79A0116
:104DD000AB0161E1CE010E944426882319F080E3F3
:104DE00088830BC0B801CE010E94AC8F182F882396
:104DF00021F0CE010E94FA2504C0CE010E94FA25BE
:104E000010E0812FDF91CF911F910F910895EF92C4
:104E1000FF921F93CF93DF93FC01208120FF32C0CC
:104E2000EC017C01F7E0EF0EF11C4B815C816D81A0
:104E30007E81E981FA819701808191810E948F268C
:104E4000182F811102C010E01EC0888181FD04C0AE
:104E500088818E7F888317C0E981FA814B815C81CC
:104E60006D817E8184859585A685B785480F591FFC
:104E70006A1F7B1F9701808191810E948F2681117B
:104E8000E7CFE1CF11E0812FDF91CF911F91FF900C
:104E9000EF900895CF92DF92EF92FF921F93CF93FE
:104EA000DF93EC016A017B01122F8B819C81AD8124
:104EB000BE8184179507A607B707F1F0CE010E94BF
:104EC0000727811103C080E090E01CC012FF06C0DC
:104ED0001882CB82DC82ED82FE820EC0E981FA81EB
:104EE0009E01295F3F4FB701A601808191810E94F9
:104EF000D7268111EDCFE7CF13708881182B188347
:104F0000CE010796DF91CF911F91FF90EF90DF9038
:104F1000CF900895CF92DF92EF92FF920F931F935D
:104F2000CF93DF93EC01162F1D8281E090E0A0E08B
:104F3000B0E088879987AA87BB87DAA3C9A318A29C
:104F40008FEF9FEFDC018BA39CA3ADA3BEA36623D1
:104F500031F1653008F0C4C020E040E050E0BA0113
:104F6000CE0180960E944A27009709F4B9C000E15B
:104F7000109F800D911D11244097FC01E254FE4FBB
:104F800020812F7709F0ACC03896C080D180E280B4
:104F9000F380C114D104E104F10421F4A1C0C12CB7
:104FA000D12C760120E0B701A601CE0180960E94A7
:104FB0004A27FC01892B09F493C0838594858115C8
:104FC000924009F08DC08089823009F089C08685C1
:104FD0009785892B09F484C025852A838FEF820F5A
:104FE0008B831C8249E050E091E0921749F04150D8
:104FF000510909F475C0990F8C818F5F8C83F5CFAF
:10500000468957894115510519F060E070E004C0E8
:1050100044A155A166A177A14C875D876E877F87E4
:105020008685978597018601080F191F211D311D5F
:105030000C8B1D8B2E8B3F8B818992899F838E8356
:10504000440F551F661F771F400F511F621F731FAC
:105050004C8F5D8F6E8F7F8FB5E0880F991FBA954B
:10506000E1F781509E4F892F99278695480F591F48
:10507000611D711D488B598B6A8B7B8B2389348909
:105080002115310521F0C901A0E0B0E004C080A1E4
:1050900091A1A2A1B3A197018601041B150B260BB8
:1050A000370BB901A801480F591F6A1F7B1F0C80DD
:1050B00004C076956795579547950A94D2F7DB011A
:1050C000CA010196A11DB11D888F998FAA8FBB8F30
:1050D000453F1FE051076105710520F48CE08D8389
:1050E00080E012C0453F5F4F6105710510F480E11B
:1050F00009C084A595A5A6A5B7A58C8F9D8FAE8F59
:10510000BF8F80E28D8381E0DF91CF911F910F915E
:10511000FF90EF90DF90CF9008958F929F92AF9283
:10512000BF92CF92DF92EF92FF920F931F93423084
:1051300051056105710510F480E055C0FC01C08C7B
:10514000D18CE28CF38CC416D506E606F706A0F3E4
:10515000480159016A017B018581803239F58489D2
:105160009589A689B78917E07695679557954795EC
:105170001A95D1F7480F591F6A1F7B1F23E0CF01F3
:1051800080960E944A270097B9F2E894C7F8DD2478
:10519000EE24FF24CC0CDD1CCC0CDD1CFC01EC0D42
:1051A000FD1D80829182A282B3821CC0803121F6D3
:1051B00044895589668977894D0D511D611D711D81
:1051C00023E0CF0180960E944A27009709F4B4CFCC
:1051D000DD24EE24FF24CC0CDD1CFC01EC0DFD1DB8
:1051E0009182808281E01F910F91FF90EF90DF907C
:1051F000CF90BF90AF909F908F900895CF92DF9205
:10520000EF92FF920F931F93CF93DF93423051059C
:105210006105710510F48FEF68C0FC01C08CD18C62
:10522000E28CF38CC416D506E606F706A0F38901D6
:105230006A017B01EC018581803241F58489958981
:10524000A689B789E7E07695679557954795EA95DA
:10525000D1F7480F591F6A1F7B1F22E0CE018096AD
:105260000E944A270097B9F2E894C7F8DD24EE249B
:10527000FF24CC0CDD1CCC0CDD1CFC01EC0DFD1D59
:1052800080819181A281B381BF701EC0803119F6E7
:1052900044895589668977894D0D511D611D711DA0
:1052A00022E0CF0180960E944A27009709F4B3CFED
:1052B000DD24EE24FF24CC0CDD1CFC01EC0DFD1DD7
:1052C00080819181A0E0B0E0488D598D6A8D7B8D01
:1052D000481759076A077B0738F0F80180839183E4
:1052E000A283B38381E001C080E0DF91CF911F9161
:1052F0000F91FF90EF90DF90CF9008959F92AF9223
:10530000BF92CF92DF92EF92FF920F931F93CF93B2
:10531000DF9300D000D0CDB7DEB75C016A017B011E
:1053200019821A821B821C829E012F5F3F4FB70198
:10533000A601C5010E94FE28982E87FF02C080E0CA
:1053400024C000E010E09801B701A601C5010E9449
:105350008D288823A1F3F5014085518562857385E9
:105360004C155D056E057F0550F0F1E0CF1AD108B0
:10537000E108F108F501C086D186E286F386C9808E
:10538000DA80EB80FC809110CFCF0F900F900F90C0
:105390000F90DF91CF911F910F91FF90EF90DF90D1
:1053A000CF90BF90AF909F9008956115710579F0EF
:1053B000FB0101900020E9F73197AF01461B570B25
:1053C000DC01ED91FC910280F381E02D099480E0F5
:1053D00090E008959F92AF92BF92CF92DF92EF92AA
:1053E000FF920F931F93CF93DF93CDB7DEB7A097B4
:1053F0000FB6F894DEBF0FBECDBF19821A82DC0152
:105400002C9123FF16C012962C9121FF12C08C0103
:10541000FC01448D558D668D778D411551056105D3
:10542000710549F0F801868197810E947E298111DA
:1054300002C080E08FC061E0C8010E94BA777C01A1
:105440000097B9F30E948476A82E85EED7018C933D
:10545000F8011082868197810E945D78882349F344
:10546000D80113969C911397992309F473C0189649
:105470008D919D910D90BC91A02DF8016681778151
:105480009E012F5F3F4F79010097A105B10531F4CF
:10549000C9010E94A077882361F20FC020E2F701C2
:1054A00011922A95E9F720E1298321E02B8378875F
:1054B0006F838D8F9E8FAF8FB8A3BB24B39495EE6F
:1054C000992ED80113968C9113978B1508F4B1CFB0
:1054D000CB2CD12C14964D915C9115974C195D09EC
:1054E00060E070E085E0440F551F661F771F8A95C6
:1054F000D1F7C7010E949376882309F49ACF60E020
:10550000C7010E945777FC01892B09F492CF83854C
:105510008F3009F08ECF2081822F8F7190E0C816D6
:10552000D90609F086CF8585A81283CF9082D8014D
:105530001696ED91FC91179780A1816080A326FFBC
:1055400007C016968D919C9117970E945D7802C0B6
:10555000B394B7CFA0960FB6F894DEBF0FBECDBF01
:10556000DF91CF911F910F91FF90EF90DF90CF903F
:10557000BF90AF909F9008952F923F924F925F926D
:105580006F927F928F929F92AF92BF92CF92DF9253
:10559000EF92FF920F931F93CF93DF93CDB7DEB7B8
:1055A00029970FB6F894DEBF0FBECDBF7C01FB017B
:1055B0005C834B83309709F44CC08081807709F479
:1055C00048C0D7018C91811144C0AB81BC81119638
:1055D0008D909C9012978C91837009F431C2C40114
:1055E0000C966DE070E00E94E9AD6F5F6983722EEA
:1055F000CB80DC808F01F986E88640E050E0BA017C
:10560000CF010E9493761C821B821A82612CA12CEE
:10561000B12C1D82F6013696FF83EE83F801808956
:105620009189A289B3891C012D0125E056944794E4
:10563000379427942A95D1F7710161E0C8010E943F
:105640005777009741F4D80111968C91882309F47B
:1056500097C080E0DDC2FC012081253E11F02111C0
:105660000BC0A11002C03C822B82F981AF1608F456
:10567000A394211106C084C03981A31608F4E3C1A4
:1056800002C0253EE9F12E32D9F1DC011B963C9196
:105690001B973F3009F054C0B11009C026FFBECFA0
:1056A0002F71B22E1D96BC91BA83622E08C06A94E7
:1056B000261126C0FC012585FA81F21321C0262D72
:1056C00030E0215031096DE0629FA001639F500DD1
:1056D000112448155905A0F4FC0160E0653018F468
:1056E0002181328107C06B3018F42481358102C0DA
:1056F000268137818416950629F4232B09F48ECF51
:10570000B12C8CCF2F3F310509F0D0F78FEB820FF2
:105710008A3108F4205E7A018FEFE81AF80AD60180
:1057200013968D919C911497480F591FDA018C9113
:105730009FEB980F9A3108F4805E8213E1CF85C108
:1057400033FDDECFBB2049F0B1E06B1282CF0E9467
:105750008476EA81E8137DCF10C04BE050E06E8183
:105760007F810E94D7B1892B09F058CFD6018C9147
:1057700080FF03C0F1E0FD8351CF76FEA1C069CF69
:1057800074FE67CF872D83708150823008F061CF1F
:1057900063C1F3E0FB1510F4A3E0BA2E34E03B0D37
:1057A000282F2F70E32FF0E02A3008F0C5C1205DCC
:1057B000EC0DFD1D2683F4E096958795FA95E1F7AB
:1057C0003150B31668F3F601EB0DF11DA68240E0EF
:1057D00050E0BA01C8010E94937661E0C8010E94BE
:1057E0005777009709F070C1D80111968C918111FB
:1057F00030CF2B813C81A90160E070E0E5E0440FEF
:10580000551F661F771FEA95D1F7C8010E9493764E
:10581000882309F41ECFB980BA94AB2C5FE0252E03
:10582000260136E0430E511C6DE0362EA11086C1D4
:10583000F80180899189A289B38945E0B695A79539
:10584000979587954A95D1F77C0160E0C8010E9441
:105850005777009709F4FDCE20E2DC011D922A95CE
:10586000E9F7F60136962BE0DC0101900D922A95BE
:10587000E1F7F60120812871DC011C962C931C971E
:1058800021E238E251963C932E93509740E058E045
:105890001F965C934E931E9753963C932E9352976C
:1058A00059963C932E93589757965C934E935697E0
:1058B000D8011696ED91FC91179780A1816080A385
:1058C00080E2E885F98511928A95E9F7D801169664
:1058D0008D919C911797E885F98597838683F5824A
:1058E000E4825C964D915D916D917C915F974087CC
:1058F000518762877387F701EF70FF27DC01979666
:1059000035E0EE0FFF1F3A95E1F7AD014E0F5F1F37
:10591000DA011B962C9123FD8FC09C012E0F3F1F97
:10592000D901D2962C912771A885B9852C93DA01DB
:105930001B963C91387121F42860A885B9852C9379
:10594000A885B9851396BC92272D2370213051F07C
:1059500028F0223009F070C023E005C075FC6CC04F
:1059600021E001C022E0A885B98512962C93A88574
:10597000B98512962C91129721FF04C03C91317188
:1059800009F05AC0372D3878232BA885B98512968F
:105990002C93DC0193964D915D916D917C9196973E
:1059A000A885B98554964D935D936D937C935797D5
:1059B000E80FF91F43AD54AD60E070E0BA01552720
:1059C0004427DF01AF5BBF4F0D911C9120E030E019
:1059D000402B512B622B732B75FE0BC041155105CB
:1059E0006105710509F40AC10E947E29811106C171
:1059F00023C0A885B9855C964D935D936D937C9388
:105A00005F97ED5BFF4F80819181A281B381E88533
:105A1000F985808F918FA28FB38F72FEF8C0A88511
:105A2000B98558964D915D916D917C915B97CD01B3
:105A30000E9493768111EBC0E885F985108209CE2A
:105A4000B1E0B983D4CDA12C1ECE6F5F32966D30FC
:105A500009F4E4CDA70142CEAA2009F4CCC0B98153
:105A6000AB1688F0ED81EE2309F4C3CED60115966E
:105A7000BC9082E0E82EF12C9EE7A92E2601B6E02C
:105A80004B0E511C3AC060E0C8010E945777892B29
:105A900031F4D80111968C91882381F0DACDA3944A
:105AA000DECFD8011696ED91FC9117978281823056
:105AB000C8F6B0E1AB0EE981AE16A0F6C8010E94AF
:105AC000DA778111EECFC5CDFC012081222309F4C4
:105AD00090CE238523FD81CE4BE050E0BC01C20176
