:100000000C94C5130C9478330C944D330C94223318
:100010000C94AD320C9438320C94C3310C944E31A4
:100020000C94484B0C94EF130C94EF130C94EF13B7
:100030000C94C5AE0C9474AF0C947AAE0C94EF1380
:100040000C94EF130C94EF130C9465A50C94EF1320
:100050000C9444AE0C941AAE0C94EF130C94EF1362
:100060000C94EF130C94EF130C946F780C94EF1323
:100070000C94E4AD0C94BAAD0C94EF130C94EF1304
:100080000C94EF130C94EF130C94EF130800000082
:10009000BE922449123EABAAAA2ABECDCCCC4C3E7D
:1000A00000000080BEABAAAAAA3E00000000BF006C
:1000B0000000803F0000000000084178D3BB438768
:1000C000D1133D190E3CC3BD4282AD2B3E68EC827C
:1000D00076BED98FE1A93E4C80EFFFBE01C4FF7F01
:1000E0003F000000000007634236B79BD8A71A39CB
:1000F000685618AEBAAB558C1D3CB7CC5763BD6D76
:10010000EDFD753EF6177231BF000000803F0040E4
:100110007A10F35A00A0724E18090010A5D4E80016
:1001200000E87648170000E40B54020000CA9A3B2E
:10013000000000E1F50500008096980000004042B4
:100140000F000000A0860100000010270000000042
:10015000E803000000006400000000000A00000046
:1001600000000100000000002C76D888DC674F08F2
:1001700023DFC1DFAE59E1B1B796E5E3E453C63AF8
:10018000E651997696E8E6C28426EB898C9B62ED6F
:10019000407C6FFCEFBC9C9F40F2BAA56FA5F49029
:1001A000055A2AF75C936B6CF9676DC11BFCE0E4A0
:1001B0000D47FEF520E6B500D0ED902E03009435F6
:1001C00077050080841E080000204E0A000000C849
:1001D0000C333333330F986E12831141EF8D21149A
:1001E000893BE65516CFFEE6DB18D1844B381BF76A
:1001F0007C1D901DA4BBE424203284725E22810009
:10020000C9F124ECA1E53D2700010203040506071E
:1002100000010203040506070001020304050607A6
:1002200000010203040506072020774C696F6E4227
:1002300061745374633331303020657272206D65A0
:100240006173204C69496F6E205600454550524FEE
:100250004D2057726974652066696E6973686564BC
:10026000002900414354494F4E205772697465205C
:1002700061707020454550524F4D20737461727407
:10028000656428007D206E6F7420737570706F72C6
:10029000746564007D206D61746368202026206190
:1002A000646465642E003D7B003D005D20004E6F60
:1002B0007420737570706F72746564205B004143C5
:1002C00054494F4E2057726974652061626F727491
:1002D00065642E20696E737472756374696F6E2025
:1002E0002700414354494F4E20434F5059206E6FD1
:1002F0007420737570706F72746564207965743AD8
:1003000000434F5059005752495445004143544906
:100310004F4E00555345520020746F2000424F4FFE
:1003200054207462642000454550524F4D2057724E
:100330006974652061626F727465642E20696E73E2
:100340007472756374696F6E202700414354494F7E
:100350004E2044454641554C54206170702045451F
:1003600050524F4D0044454641554C545F4150500A
:100370005F454550524F4D00454550524F4D205717
:10038000726974652066696E6973686564004545C5
:1003900050524F4D205772697465207374617274A6
:1003A00065643A0059455300454550524F4D5F57DB
:1003B0005249544500426F617264205265763A009A
:1003C000424F4152445F52455600426F6172642071
:1003D00053657269616C4E756D203A00424F41520F
:1003E000445F534E00426F617264204E616D653A06
:1003F00000424F4152445F4E414D4500424F4F54E1
:100400000020746F20004E4554574F524B207462A9
:100410006420005D20726561643A004E4554574F78
:10042000524B205365742053454E445F5155455FF0
:10043000535A5F4E554D2064697361626C65642C3C
:10044000206572726F722C2072616E67655B004E60
:100450004554574F524B205365742053454E445FCB
:100460005155455F535A5F4E554D20646973616223
:100470006C65640053454E445F5155455F535A5F68
:100480004E554D005D20726561643A004E455457EB
:100490004F524B2053657420504F53545F4D415879
:1004A0005F4E554D206572726F723B2072616E67B0
:1004B000655B00504F53545F4D41585F4E554D00A2
:1004C0004E4554574F524B205365742053454E446C
:1004D0005F4F46465345545F4D494E206572726FDB
:1004E000723B202872616E67652030203A203330DD
:1004F0002920726561643A0053454E445F4F464679
:100500005345545F4D494E004E4554574F524B2072
:1005100053657420434F4C4C4543545F524541440E
:10052000494E4753206572726F723B202872616E8C
:1005300067652030203A2033302920726561643AA3
:1005400000434F4C4C4543545F52454144494E474C
:100550005300576946695077640057694669496492
:100560000061706E004E4554574F524B0020746F1F
:10057000200053454E534F52532074626420005361
:10058000454E534F52530020746F2000434F4D4D42
:100590004F4E20746264200047454F4752415048F7
:1005A0004943414C5F49443A0047454F4752415007
:1005B000484943414C5F494400434F4D4D4F4E2005
:1005C0005365742054696D655A6F6E65206572724B
:1005D0006F723B202872616E6765202D3132203AA0
:1005E000202B31322920726561643A0054494D450F
:1005F0005F5A4F4E45002920726561643A002053CE
:100600006574204C69496F6E20547970652065725D
:10061000726F723B202872616E676520302D00205A
:1006200073757065727365646564207573652042C7
:100630004154544552595F5459504500434F4D4D14
:100640004F4E204C69496F6E20547970653A2000F6
:100650004C49494F4E5F54595045002920726561FD
:10066000643A002053657420424154544552595F06
:1006700054595045206572726F723B202872616E2A
:100680006765203C00424154544552595F545950CB
:1006900045002053657420424154544552595F6DC2
:1006A00041687220002920726561643A0020536518
:1006B0007420424154544552595F6D41687220651F
:1006C00072726F723B202872616E6765203E3D300A
:1006D0002026203C00424154544552595F6D4168E8
:1006E000720029207769746820726561643A00207D
:1006F00053657420696E74657276616C20657272E0
:100700006F72202872616E67653A20312D00286D66
:10071000696E292066726F6D2064656661756C7400
:100720002000434F4D4D4F4E204C4F4747494E47B9
:100730005F494E54455256414C5F4D494E555445C4
:10074000532073657420746F3A2000205573696ECE
:1007500067204D61782E2052656164696E6720695B
:10076000676E6F7265642000434F4D4D4F4E204CB5
:100770004F4747494E475F494E54455256414C5F9B
:100780004D494E55544553206D7573742062652054
:100790006C657373207468616E203A20004C4F477B
:1007A00047494E475F494E54455256414C5F4D496B
:1007B0004E55544553004C4F474745525F494400FE
:1007C000434F4D4D4F4E0050524F56494445525F96
:1007D000554249444F54530050524F564944455294
:1007E0005F5453005D20726561643A0050524F5669
:1007F000494445525F4D4D57205365742054494D2F
:1008000045525F504F53545F504143455F4D532015
:100810006572726F723B202872616E6765200054AA
:10082000494D45525F504F53545F504143455F4DD2
:1008300053005D20726561643A0050524F5649443E
:1008400045525F4D4D57205365742054494D4552D4
:100850005F504F53545F544F55545F4D5320657252
:10086000726F723B202872616E6765205B0054498D
:100870004D45525F504F53545F544F55545F4D5345
:100880000053414D504C494E475F464541545552E7
:100890004500524547495354524154494F4E5F54C5
:1008A0004F4B454E00434C4F55445F494400505216
:1008B0004F56494445525F4D4D57004E4F4E4500EF
:1008C0004E4F4E45004E4F4E45004E4F4E45004E4A
:1008D0004F4E45004E4F4E45004E4F4E45004E4F39
:1008E0004E45004E4F4E45004E4F4E45005749462F
:1008F000495057445F4E4F4E450057494649494479
:100900005F4E4F4E450041504E5F4E4F4E450046A4
:100910006163746F72792064656661756C74006DD3
:10092000734C6F673031002D2D2D4C425F50575264
:100930005F55534541424C455F5245512043414E1E
:1009400043454C4C45442D2D4C626174743D002D43
:100950002D2D4C425F5057525F4D4F44454D5F55D2
:1009600053455F5245512043414E43454C4C45440D
:100970002D2D4C626174743D002D2D2D4C425F5025
:1009800057525F53454E534F525F5553455F524543
:10099000512043414E43454C4C45442D2D4C626102
:1009A00074743D002D2D2D74755F787830313A5771
:1009B000616B65757020636865636B20706F776528
:1009C000722E205072657373207573657220627584
:1009D00074746F6E20746F20627970617373003A63
:1009E0002042617456204C6F77203D004261745F55
:1009F0005628737463333130302900626174746532
:100A00007279436865636B207265712F77616974D1
:100A10002F737263001F1C1F1E1F1E1F1F1E1F1E11
:100A20001F4E6F6E6500646174615075626C69730E
:100A3000686572426173652067515320636865631E
:100A40006B005761746368646F67206469736162E7
:100A50006C65642E206261726B73556E74696C52A2
:100A600065736574004261642074696D6520003AA5
:100A70003030003A3030003A3030003A3030002127
:100A80002121212121212121212121212121212156
:100A9000212121202D2D2D2D2D205741524E494E03
:100AA00047202D2D2D2D2D200021212121212121F7
:100AB000212121202D2D2D2D2D205741524E494EE3
:100AC00047202D2D2D2D2D202121212121212121B6
:100AD0002121002D2D2D2D2D205741524E494E47BD
:100AE000202D2D2D2D2D20212121212121212121BC
:100AF000212121212121212121212100546865204A
:100B000063757272656E7420636C6F636B207469B9
:100B10006D657374616D70206973206E6F742076DB
:100B2000616C6964210021212121212121212121C0
:100B300021212121212121212121202D2D2D2D2D6A
:100B4000205741524E494E47202D2D2D2D2D20004E
:100B500021212121212121212121202D2D2D2D2D4A
:100B6000205741524E494E47202D2D2D2D2D20210D
:100B7000212121212121212121002D2D2D2D2D204B
:100B80005741524E494E47202D2D2D2D2D202121EC
:100B90002121212121212121212121212121212145
:100BA00021210000204677566572200020487756A4
:100BB0006572200020536E200020666F722000278F
:100BC000002720736E3A2700207265763A2700428C
:100BD0006F6172643A20004D6F64756C6172536589
:100BE0006E736F7273207665727320002E205377B8
:100BF000204275696C643A20005377204E616D6520
:100C00003A200020204261747465727954797065CD
:100C10003A200020547A3A200020204C6F67676900
:100C20006E67496E74657276616C20286D696E29F5
:100C30003A20004C6F636174696F6E3A2000004483
:100C400061746520616E642054696D6520696E2051
:100C500055544300526573756C7420555549443A98
:100C600000526573756C7420556E69743A00566154
:100C7000726961626C65204E616D653A0053656E04
:100C8000736F72204E616D653A0053616D706C69CF
:100C90006E67204665617475726520555549443A02
:100CA000200044617461204C6F676765722046695B
:100CB0006C653A200044617461204C6F676765720F
:100CC0003A2000446174612077696C6C206E6F7407
:100CD00020626520736176656421004572726F72CF
:100CE0003A2053442063617264206661696C6564D4
:100CF00020746F20696E697469616C697A65206F10
:100D000072206973206D697373696E672E00446188
:100D100074612077696C6C206E6F7420626520733B
:100D2000617665642100536C6176652F4368697054
:100D30002073656C6563742070696E20666F722025
:100D40005344206361726420686173206E6F742065
:100D50006265656E207365742E002D2D2D2D5C2F20
:100D6000000A205C2F2D2D2D2D204C696E652053FF
:100D70006176656420746F00556E61626C652074E5
:100D80006F20777269746520746F2053442063610B
:100D90007264210020002069732000207265706F4A
:100DA000727473200020002069732063616C637586
:100DB0006C6174656420746F20626520002D2D2D98
:100DC0002D2D2D2D2D2D2D2D2D2D2D2D2D2D2D2D53
:100DD0002D2D2D2D2D2D2D2D2D2D2D2D2D2D2D2D43
:100DE0002D2D2D2D2D2D2D0045786974696E6720D0
:100DF00074657374696E67206D6F6465002D2D2DA9
:100E00002D2D2D2D2D2D2D2D2D2D2D2D2D2D2D2D12
:100E10002D2D2D2D002D2D2D2D2D2D2D2D2D2D2D2F
:100E20002D2D2D2D2D2D2D2D2D2D2D2D004375727C
:100E300072656E74206C6F676765722074696D658A
:100E4000206973002D2D2D2D2D2D2D2D2D2D2D2D8A
:100E50002D2D2D2D2D2D2D2D2D2D2D2D2D2D2D2DC2
:100E60002D2D2D2D2D2D2D2D2D2D2D2D2D2D0045C7
:100E70006E746572696E672073656E736F7220742D
:100E8000657374696E67206D6F6465002D2D2D2D5F
:100E90002D2D2D2D2D2D2D2D2D2D2D2D2D2D2D2D82
:100EA0002D2D2D2D2D2D2D2D2D2D2D2D2D2D2D2D72
:100EB0002D2D2D2D2D2D002D3E00416C6C207661A9
:100EC000726961626C6520555549442773206170D1
:100ED0007065617220746F20626520636F72726545
:100EE00063746C7920666F726D65642E0A006861A8
:100EF000732061206E6F6E2D756E6971756520555A
:100F0000554944210068617320616E20696E7661E5
:100F10006C6964205555494421004C6F67676572C0
:100F200020706F7274696F6E206F662073657475C0
:100F3000702066696E69736865642E0A0053616D7E
:100F4000706C696E672066656174757265205555B1
:100F500049442069733A006172652063616C63756E
:100F60006C617465642E0073656E736F72732061BB
:100F70006E6400636F6D652066726F6D00766172DE
:100F80006961626C65732C206F662077686963689D
:100F90000054686973206C6F6767657220686173BD
:100FA0002061207661726961626C65206172726194
:100FB0007920776974680043757272656E74205287
:100FC00054432074696D652069733A002D2D2D4CB2
:100FD0006F67546F534420436F6D706C6574650A7E
:100FE000002D2D2D2D2D2D2D2D2D2D2D2D2D2D2D5E
:100FF0002D2D2D2D2D2D2D2D2D2D2D2D2D2D2D2D21
:101000002D2D2D2D2D2D2D2D2D2D2D0050696E00CA
:101010000074696D6573206265666F72652074681F
:10102000652072657365742E00736563207769743B
:10103000682074686520696E7465727275707420BA
:10104000666972696E670057617463682D646F67C3
:101050002074696D656F75742069732073657420E1
:10106000666F720074696D6573206265666F726584
:10107000207468652073797374656D20726573657B
:1010800074732E005761746368646F6720456E61E6
:10109000626C65642C20496E746572727570742080
:1010A00077696C6C2066697265002065787065638D
:1010B000746564002E2E2E205761746368646F6718
:1010C000206C6F77206261726B73556E74696C521D
:1010D0006573657400205741544348444F47204985
:1010E0005352206261726B73556E74696C526573F2
:1010F000657400202A2A2A2A205741544348444F25
:101100004720576F6F6620576F6F662E20526573AA
:101110006574696E672050726F636573736F722AAE
:101120002A2A004552524F52004C4100544D00545F
:101130004D0041503000414D3000414900444200D3
:101140004C4D004D59002556005450004349002B8A
:101150002B2B00414300575200434E004853004898
:101160005300006661696C656420746F2077616B61
:101170006521006D6F64656D4861726452657365C9
:1011800074206661696C65642100417474656D70DA
:1011900074696E672061206861726420726573658E
:1011A00074206F6E20746865206D6F64656D2120FA
:1011B000004E6F20726573706F6E736520746F20C0
:1011C000415420636F6D6D616E64732100746F20F4
:1011D000726573706F6E6420746F20415420636F6A
:1011E0006D6D616E64732E2E2E006D7320666F72AE
:1011F000000A57616974696E6720757020746F000A
:1012000057616B696E6720757020746865206D6F1B
:1012100064656D20746F20636F6E6E6563742074F7
:101220006F2074686520696E7465726E6574202E17
:101230002E2E00414D00414D00414D00414D0041D9
:101240004E004357004355004D4E004469676920E6
:101250005862656533207365747570206661696CCA
:10126000656421005D0058626565574C544520490E
:101270005023205B00586265654C5445206E6F74A6
:1012800020726563656976656420495023202D6866
:101290006F706520697420776F726B73206E65784C
:1012A000742074696D65005D2027006D646D495080
:1012B0005B004D59004D59004469676920586265CB
:1012C0006533207365747570205375636573732E71
:1012D00020526567697374726174696F6E202700AC
:1012E000547279202B435245472027002B43524507
:1012F00047004149004C6F6F703D5365635D20723C
:1013000078206462203A205374617475732027201A
:101310004F70657261746F7220272023506F6C6C60
:1013200065642043656C6C2053746174757320652B
:101330007665727920317365630041503000544DF9
:10134000005031005444304100444F00534F00538B
:101350004D005030004435004437004439004438D3
:1013600000467756657200487756657200494D45CC
:101370004920004C746520696E7465726E65742036
:10138000636F6D6D7320776974680056520048561C
:1013900000494D004E4953542054696D65207365D2
:1013A0007276657220646964206E6F742072657352
:1013B000706F6E6421006D73004E49535420726546
:1013C00073706F6E646564206166746572005D2081
:1013D000436F6E6E65637420004E6F20696E746596
:1013E000726E657420636F6E6E656374696F6E2CC8
:1013F0002063616E6E6F7420636F6E6E6563742020
:10140000746F204E4953542E00006661696C656408
:1014100020746F2077616B6521006D6F64656D4886
:101420006172645265736574206661696C656421DC
:1014300000417474656D7074696E67206120686125
:101440007264207265736574206F6E207468652005
:101450006D6F64656D2120004E6F20726573706F33
:101460006E736520746F20415420636F6D6D616EE3
:1014700064732100746F20726573706F6E642074E2
:101480006F20415420636F6D6D616E64732E2E2E3C
:10149000006D7320666F72000A57616974696E6728
:1014A00020757020746F002E2E2E205769466920FB
:1014B000636F6E6E656374696F6E206661696C65DB
:1014C0006400454500504B00454500494400272035
:1014D0006661696C65642E00586265652027005856
:1014E0006265655769666920696E69742074657301
:1014F00074205041535345440058626565576966EE
:101500006920696E69742074657374204641494C82
:101510004544202D20686F706520697420776F72B4
:101520006B73206E6578742074696D65004E53008E
:101530005D00586265655769466920495023205B04
:10154000005862656557694669206E6F7420726540
:1015500063656976656420495023202D686F706546
:1015600020697420776F726B73206E6578742074B5
:10157000696D65004D590058626565576946692077
:101580004150206E6F74205265676973746572658F
:1015900064202D207265736574696E67206D6F64B9
:1015A000756C652C20686F706520697420776F7288
:1015B0006B73206E6578742074696D650041490015
:1015C0004C6F6F703D5365635D20727820646220BC
:1015D0003A205374617475732023506F6C6C65648A
:1015E0002053746174757320657665727920317348
:1015F00065632F333073656300302E302E302E300C
:1016000000444C00544D00534F00534D00495000CE
:1016100044390044380050520046775665720048FD
:1016200077566572004D61632F536E2000586265D6
:10163000655769466920696E7465726E65742063CA
:101640006F6D6D73207769746800565200485600BC
:101650005348004552524F520D004F4B0D00534C12
:10166000005D207769746820004E495354206C6FE8
:101670006F6B7570206D646D49505B0075706461AF
:1016800074654D6F64656D4D65746164617461204E
:10169000666F7263696E672072657374617274201D
:1016A000786265652E2E2E0027006465737A714E70
:1016B000657874436820316572726F723A006D53B9
:1016C0002054696D656F7574007761697465642075
:1016D000002D2D20526573706F6E736520436F640B
:1016E00065202D2D00202D2D2047617465776179AF
:1016F0002054696D656F7574207761726E696E67CD
:101700002062756666657220737A20736D616C6CF9
:10171000000A202D2D20556E61626C6520746F20AB
:1017200045737461626C69736820436F6E6E6563A4
:1017300074696F6E20746F20456E7669726F4449CC
:1017400059204461746120506F7274616C202D2D9A
:10175000004932435F30784238006D6F64627573C0
:101760005F3078004932435F3078363800204932A4
:10177000435F30780052533438352057696E6762C2
:101780006F617264205354433331303020536E20E4
:1017900000646174615075626C697368657242615E
:1017A0007365207365745175656420636865636B48
:1017B000004552524F5221204E6F207765622063C0
:1017C0006C69656E742061737369676E65642074FB
:1017D0006F207075626C69736820646174612100A8
:1017E0004552524F52004F4400544D00544D004456
:1017F0004500444C004950004354004754004754AE
:1018000000415000414D30004652004552524F5267
:101810000D004F4B0D00414D310070695364206540
:1018200072722064656C2F72656E20002064656C96
:101830006574656400706953642065727220636F1B
:10184000756C646E27742072656E616D6520007022
:101850006953642065727220636F756C646E2774BF
:101860002064656C200072656E616D656420746F24
:1018700020005061727365496E69536420200043F3
:101880006F6D706C657465642E004572726F7220A6
:101890006F6E206C696E65203A003A207061727339
:1018A000696E672D2D2D2D007365727A5264656CFB
:1018B0005F4C696E653B204E6F2066696C65002D3C
:1018C0002D2D6C6F6744617461416E645075625276
:1018D000656C6961626C792020436F6D706C657412
:1018E000652D2D2D2D2D2D2D2D2D2D006C6F67444B
:1018F000617461416E6450756252656C6961626CBD
:1019000079202D2073746F72652072656164696E31
:1019100067732C206E6F2070756200496E7465725B
:101920006E6574206661696C65642C206E6F205F43
:101930006C6F674D6F64656D20004661696C65640E
:1019400020746F2077616B652000436F6E6E656356
:1019500074656420496E7465726E657420466169B1
:101960006C656400436C6F636B204E697374204632
:1019700061696C656400436C6F636B204E697374BE
:101980002053796E6365640053796E6354696D65A5
:10199000436865636B2000436F6E6E6563746564B6
:1019A00020496E7465726E657400436F6E6E656378
:1019B00074696E6720746F2074686520496E746561
:1019C000726E657420776974680052656164207373
:1019D000656E736F72732E2E2E00292D2D2D2D0006
:1019E0002D2D2D6C6F6744617461416E645075627A
:1019F00052656C6961626C7920283078006C6F6781
:101A000044617461416E6450756252656C696162D3
:101A10006C79202D2074782063616E63656C6C6531
:101A200064006C6F6744617461416E64507562520A
:101A3000656C6961626C79202D20616C6C2063613A
:101A40006E63656C6C6564006C6F674461746141C2
:101A50006E6450756252656C6961626C79202D20EC
:101A60006F766572696465207769746820007365B4
:101A7000636F6E6473206F66204E4953542E004985
:101A80006E7465726E616C20436C6F636B20776956
:101A90007468696E2000496E7465726E616C2043D3
:101AA0006C6F636B207365742000426164207469FD
:101AB0006D657374616D702C206E6F742073657426
:101AC00074696E6720636C6F636B2E002C4D5347F7
:101AD0002C00706F73744C6F674C696E6520636186
:101AE0006E2774206F70656E2066696C6500736583
:101AF000514646207467746F757446696C652E6331
:101B00006C6F7365312065727200736551464620B3
:101B10007467746F757446696C652E72656E616D5D
:101B20006520657272007365514646207365727A4E
:101B30005175656446696C652E636C6F7365322000
:101B400065727200736551464620636C6F73653130
:101B5000206661696C656420657272007365514628
:101B600046205245424F4F542072656E616D65317B
:101B70002065727200736551464620657272206658
:101B800061696C65642072656D6F7665007365517F
:101B9000464620657272372072656D6F76650073F8
:101BA000655146462072656D6F76653220657272AA
:101BB000002C6C61746573742072656164696E6772
:101BC0007320646973636172646564002C71756568
:101BD0007565640073655146462073656E64517582
:101BE000652053697A652000736551464620746705
:101BF000746F757446696C652077726974653320FB
:101C0000657272007365514646207467746F75740F
:101C100046696C652077726974653120657272005F
:101C20007365514646206F70656E32206572720092
:101C3000736551464620657272362072656D6F7607
:101C4000650073655146462072656D6F766531207B
:101C50006572720073655143462051756520666F49
:101C600072206E657874207061737320756E736571
:101C70006E74207265636F726473007365514346BE
:101C8000207365727A5175656446696C652E636C64
:101C90006F73653220657272007365727A42656790
:101CA000696E206572722072656D6F76650064657D
:101CB0005352432072656D6F7665206572720073B2
:101CC00065727A426567696E2065727220636C6F17
:101CD000736500646553524320636C6F73652065C0
:101CE000727200646552533B204E6F2066696C65CA
:101CF00020007365727A5175656453746172742043
:101D00006F70656E20657272007075624451545236
:101D100020504F53545F4D41585F4E554D207265D2
:101D200061636865640070756244515452206E6F3F
:101D30007420656E6F75676820706F7765722061BB
:101D40007661696C61626C65007365632E20517504
:101D5000657565642072656164696E67733D0072C4
:101D6000656164696E677320696E0053656E740007
:101D700070756244515452207365727A517565646E
:101D800046696C206572720070756244515452202D
:101D90005175656446756C6C2C20736B697020728C
:101DA000656164696E672E2073656E645175652088
:101DB000005D000A707562445154522053656E6490
:101DC000696E67206461746120746F205B006C6FC2
:101DD00067504C4F20657272206F70656E696E6738
:101DE0000027006465737A4C696E652072656164D2
:101DF000756E67207374617274206E6F7420666FE5
:101E0000756E640027006465737A4C696E652045C1
:101E1000706F636820657272270027006465737AAB
:101E20004C696E652065706F6368207374617274AD
:101E3000206E6F7420666F756E6400270064657392
:101E40007A4C696E65205374617475732065727283
:101E500027002C002C002C504F53542C00466F723E
:101E600063696E67207265736574002C3058005387
:101E7000644572726F723A20305800436865636B34
:101E800020534420666F726D61742E006572726F0C
:101E9000723A20007365744654547A206572722039
:101EA000666F7220000404040404040404020202A5
:101EB00002020202020303030303030303010101FD
:101EC0000101010101010204081020408001020407
:101ED0000810204080010204081020408001020404
:101EE0000810204080008080805D52544320416C67
:101EF00061726D2073657420666F722065766572FD
:101F000079206D696E7574652E205265672063684F
:101F100065636B20776173203078000A2E2E2E20A7
:101F20007A7A7A5A5A204177616B652040002920DD
:101F3000205A5A7A7A7A2E2E2E002F00476F696E19
:101F40006720746F20736C6565702E2052616D2858
:101F5000004D4355206E6F7420456E61626C656460
:101F60002C5573652061206E6F6E2D6E65676174F0
:101F70006976652077616B652070696E20746F20CB
:101F80007265717565737420736C65657021006688
:101F90006F7200657870656374004552524F52202D
:101FA000696E6920706172616D20746F6F206C6F53
:101FB0006E672C20676F74003D005D00202050523A
:101FC0004F56494445525F4D4D572055554944732E
:101FD00020286E6F6E6520756E6C657373206C695A
:101FE00073746564292C204D61783D000A2050529D
:101FF0004F56494445525F4D4D572074696D657287
:10200000506F737450616365286D73293D000A2019
:1020100050524F56494445525F4D4D572074696D9B
:102020006572506F7374546F7574286D73293D0019
:102030000A2050524F56494445525F4D4D57205348
:10204000616D706C696E6720466561747572653D7F
:10205000000A2050524F56494445525F4D4D57207B
:1020600052656720546F6B656E3D002050524F568D
:10207000494445525F4D4D5720436C6F7564496428
:102080003D0046726F6D20656570726F6D205072F5
:102090006F76696465723A2050726F766964657212
:1020A00020547970653D002053454E445F5155459D
:1020B0005F535A5F4E554D3D0020504F53545F4D76
:1020C00041585F4E554D3D002053454E445F4F46AD
:1020D000465345545F4D494E3D000A0D20434F4C39
:1020E0004C4543545F52454144494E47533D0020BF
:1020F000576946695077643D000A20576946694927
:10210000643D000A2041504E3D0046726F6D2065CF
:102110006570726F6D204E6574776F726B3A204EEA
:102120006574776F726B20547970653D00202020B4
:102130004C6F633D0062617474657279206D416813
:10214000723D006261747465727920747970653DC6
:10215000006D696E757465732C20547A3D005D0ABC
:102160000D2020206C6F6767696E6720696E74654B
:102170007276616C3D0046726F6D20656570726F9E
:102180006D20636F6D6D6F6E3A204C6F676765727F
:102190002046696C65204E616D655B005D005D20C9
:1021A000736E5B005D20207265765B0046726F6D1A
:1021B00020656570726F6D20626F6F74204E616D67
:1021C000655B00302E3562004D31323334353637A1
:1021D0003839616263646566676800656E76697246
:1021E0006F444959206D6179666C79005061727352
:1021F0006520696E693B204E6F2066696C65200022
:10220000536561726368206572726F722120627219
:1022100065616B206F7574206F66206C6F6F700046
:102220002D3E0050524F56494445525F7878005039
:10223000524F56494445525F4D4D572074696D6564
:1022400072506F737420506163696E67286D7329D3
:102250000050524F56494445525F4D4D57207469C6
:102260006D6572506F737420546F7574286D732987
:102270000050524F56494445525F4D4D57205361CF
:102280006D70696E672046656174757265005052A5
:102290004F56494445525F4D4D572052656769730B
:1022A00074726174696F6E20546F6B656E0050526A
:1022B0004F56494445525F4D4D5720436C6F7564EE
:1022C0004964004E4554574F524B2053454E445F8E
:1022D0005155455F535A5F4E554D004E4554574F2B
:1022E000524B20504F53545F4D41585F4E554D0057
:1022F0004E4554574F524B2053454E445F4F464630
:102300005345545F4D494E004E4554574F524B2054
:10231000434F4C4C4543545F52454144494E47530B
:10232000004E4554574F524B2057694669507764C9
:102330003A20004E4554574F524B20576946694941
:1023400064203A20004E4554574F524B2061706E26
:102350003A20004E4554574F524B20747970653ADD
:102360002000434F4D4D4F4E204261747465727989
:10237000206D4168723A2000434F4D4D4F4E204230
:1023800061747465727920547970653A2000434F06
:102390004D4D4F4E204C6F6767696E746572766164
:1023A0006C3A2000434F4D4D4F4E204C6F67676590
:1023B000724964205365743A200073657474696EC1
:1023C0006720746F20275F272C20666F756E64204E
:1023D000004572726F722021616C6E756D206C6F9A
:1023E000676765722066696C6520706F73005600C0
:1023F0005620474F4F443D0056204D454449554DCA
:102400003D0056204C4F573D00205468726573685C
:102410006F6C64732055534541424C453D00426109
:10242000747465727920547970653D0050757474C8
:10243000696E67206D6F64656D20746F20736C65C5
:10244000657000436F756C64206E6F742077616BEC
:1024500065206D6F64656D20666F72205254432055
:1024600073796E632E00436F756C64206E6F7420F9
:10247000636F6E6E65637420746F20696E7465722D
:102480006E657420666F72205254432073796E63B8
:102490002E00436F6E6E656374656420746F2069EF
:1024A0006E7465726E657420666F7220525443209C
:1024B00073796E632077697468204E4953540054D1
:1024C000686973206D61792074616B652075702077
:1024D000746F2074776F206D696E75746573210059
:1024E000417474656D7074696E6720746F20636FDA
:1024F0006E6E65637420746F2074686520696E74F5
:1025000065726E657420616E642073796E636872A3
:102510006F6E697A65205254432077697468204E43
:1025200049535400446174612077696C6C20626582
:1025300020736176656420617300556E61626C651D
:1025400020746F2063726561746520612066696C18
:102550006520746F207361766520646174612074F6
:102560006F210053657474696E6720757020666909
:102570006C65206F6E205344206361726400535475
:10258000433331303020646961676E6F73746963FF
:1025900020736574205220746F206D4F686D732016
:1025A000005354433331303020736E3A0053657416
:1025B00074696E672075702073656E736F72732E09
:1025C0002E2E004C6F63616C2054696D652000777E
:1025D000697468204E495354206F76657220005309
:1025E000796E633D002D2D2D7077722058626565E0
:1025F000204F4E004D6F64656D20636F6E66696796
:1026000020736574206173204C54455F44494749E9
:102610005F4341544D31004D6F64656D20636F6EB3
:102620006669672073657420617320574946495F66
:10263000444947495F5336002D2D2D7061727365F3
:10264000496E6920636F6D706C6574650A002D2D8D
:102650002D7061727365496E6920537461727400E4
:102660004261745620476F6F64203D002020426114
:1026700074562F6C702F636E74720020426F6172FB
:10268000643A20417373756D65204D6179666C798C
:1026900020312E304133200020426F6172643A2095
:1026A000466F756E64204D6179666C7920302E35E9
:1026B000620027002720736E3A2700207265763A61
:1026C0002700426F6172643A200054696E79475363
:1026D0004D204C6962726172792076657273696F00
:1026E0006E20004D6F64756C617253656E736F720E
:1026F000732076657273696F6E20005377204E6188
:102700006D653A20000A2D2D2D426F6F742E2053D7
:1027100077204275696C643A20002C3078002C20B8
:102720004541206D41683D002C204555206D416894
:102730003D002C2043206D41683D2C002C206D4134
:102740003D2C0020563D2C000000210024002700D5
:102750002A0000002200250028002B000000200095
:1027600023002600290000000000040308070000E1
:1027700000010200090A0000000000000000000043
:102780000000000000006BB046B011241FBECFEF68
:10279000D0E4DEBFCDBF1CE0A0E0B1E0E2E1F0EAB2
:1027A00001E00BBF02C007900D92A636B107D9F722
:1027B00023E2A6E6BCE001C01D92AA3DB207E1F704
:1027C00013E1C4ECD3E104C02197FE010E949FCB2A
:1027D000C33CD107C9F70E9407B70C94FCCF0C94F7
:1027E0000000DC01ED91FC910084F185E02D09945D
:1027F000DC01ED91FC910680F781E02D099490E0D9
:1028000080E0089590E080E008954F925F926F928B
:102810007F928F929F92AF92BF92EF92FF920F930F
:102820001F93CF93DF938C0149015A01C62FD0E04B
:102830007E01EE0CFF1CEE0CFF1CE00EF11EF701FA
:10284000428053806480758020E03CE34CE156EC8C
:10285000C301B2010E94C6C920E03CE34CE156EC42
:1028600081111FC0C501B4010E94C6C9882351F05F
:10287000F70182829382A482B582C00FD11F89A5FD
:102880008F5F89A7DF91CF911F910F91FF90EF90FC
:10289000BF90AF909F908F907F906F905F904F9080
:1028A0000895C501B4010E94C6C9882359F3A50142
:1028B0009401C301B2010E94B9CBF7016283738313
:1028C00084839583DACFFC01878590890895FC0184
:1028D000708B6787CB010895FC01858596850895E7
:1028E000FC0176876587CB010895FC0180850895FA
:1028F000FC016087862F0895DC01ED91FC9106882C
:10290000F789E02D099591E0811101C090E0892FB0
:102910000895FC01E75AFF4F20813181820F931FF8
:10292000FC01878990E00895CF93DF931F92CDB784
:10293000DEB7DC01ED91FC910288F389E02D41E0E6
:1029400050E0BE016F5F7F4F0995019731F4898197
:1029500090E00F90DF91CF9108958FEF9FEFF9CF27
:10296000DC011C96ED91FC9180819181DC01ED915F
:10297000FC910680F781E02D0994CF93DF931F929D
:10298000CDB7DEB76983DC01ED91FC910280F38164
:10299000E02D41E050E0BE016F5F7F4F09950F9041
:1029A000DF91CF910895DC01ED91FC910688F789C4
:1029B000E02D099591E0811101C090E0892F0895E3
:1029C0000F931F93CF93DF9300D000D000D0CDB7EB
:1029D000DEB78C01DC01ED91FC910084F185E02DE6
:1029E0000995892B11F51B821C821D821E82D8013C
:1029F0001C96ED91FC9145855685678570898B8184
:102A00009C81AD81BE81481759076A077B0779F021
:102A1000F801858926960FB6F894DEBF0FBECDBFAC
:102A2000DF91CF911F910F91089581E0F3CF80E066
:102A3000F1CFDC011C96ED91FC9180819181DC014C
:102A4000ED91FC910680F781E02D0994DC011C9644
:102A5000ED91FC9180819181DC01ED91FC910484E8
:102A6000F585E02D0994CF93DF931F92CDB7DEB7A4
:102A70006983DC01ED91FC910280F381E02D41E05E
:102A800050E0BE016F5F7F4F09950F90DF91CF91AE
:102A900008950F931F93CF93DF9300D000D000D001
:102AA000CDB7DEB7DC01ED91FC91048CF58DE02D06
:102AB0002EE834E03A832983DB0112960D911D91B3
:102AC0002D913C9115970B831C832D833E8330E021
:102AD00020E0BE016F5F7F4F099526960FB6F894F0
:102AE000DEBF0FBECDBFDF91CF911F910F91089533
:102AF000DC01ED91FC91028CF38DE02D2BE430E0B4
:102B00000994DC0112969C91129730E020E080E05D
:102B1000291788F4ED91FC911197A901440F551FD5
:102B2000E40FF51F0190F081E02D428141118F5F8C
:102B30002F5F3F4FEDCF0895EF92FF920F931F93BA
:102B4000CF93DF93FC0106A17C01F9E2EF0EF11CAB
:102B5000EC0110E00117C9F0F70161917F016623D4
:102B600089F070E090E080E00E94CDC99B01AC014B
:102B70006A817B818C819D810E9425CC6A837B83C5
:102B80008C839D831F5F2496E5CFDF91CF911F91AA
:102B90000F91FF90EF900895CF93DF93EC0190E0B9
:102BA0008EA1981728F5E92FF0E0B596EE0FFF1FDC
:102BB000EC0FFD1FA081B1811097C1F012968C918E
:102BC0001297811113C01996EC91199784E0E89F30
:102BD000F0011124EC0FFD1F428153816481758146
:102BE00013964D935D936D937C9316979F5FD8CF0B
:102BF000DF91CF91089581E00895FC0183A10895AC
:102C0000FC01608170E090E080E0982F872F762FA4
:102C100066272181620F711D811D911D982F872FBD
:102C2000762F66272281620F711D811D911D982FBD
:102C3000872F762F66272381620F711D811D911DBD
:102C400060587E478A4A9348611521EE72072BE04F
:102C500082072EE5920740F0613828ED72072BEDD0
:102C6000820720E7920718F060E070E0CB0108953A
:102C70000097D9F0823A9105B1F0BC01990F880B09
:102C8000990B0E94CDC92BEE32EE4EEC5FE30E9411
:102C90002CCA29E23CE946E353E40E94B9CB0E94E6
:102CA00097CCCB01089590E080E00895FC018485E5
:102CB00083FF17C084A195A1A6A1B7A1448D558D0E
:102CC000668D778D841B950BA60BB70B811520E8BD
:102CD0009207A105B10520F08FEF9FE7A0E0B0E0DB
:102CE000089580E090E0DC01F1CFDC011E967C933A
:102CF0006E931D97ED91FC910484F585E02D099468
:102D0000DC0113967C936E93129715965C934E9309
:102D10001497ED91FC910284F385E02DB90109949B
:102D200080911911811107C080911A11811103C07E
:102D300081E0809318110895089590E080E008954F
:102D40001F93CF93DF93EC018AA19BA1DC01ED914E
:102D5000FC910284F385E02D0995182F8AA19BA18F
:102D6000DC01ED91FC910284F385E02D099520E0D2
:102D7000382FC901812BDF91CF911F910895DC017C
:102D800050E0E5E1FAE081E0861730F49491490FD4
:102D9000511D8F5F3196F8CF633038F0CD018370CD
:102DA0009927892B11F44F5F5F4F9D012D5F3F4F96
:102DB00036952795369527956DE671E0A69FC0015B
:102DC000A79F900DB69F900D11240197820F931F1E
:102DD000840F951F08958091C9198111FCCF089522
:102DE0008091C8198F5F843408F080E09091C719F2
:102DF0009817E1F32FB7F8949091C919992359F0D6
:102E0000E82FF0E0EF57F64E60838093C8192FBF8C
:102E100081E090E0089581E08093C9196093C6191C
:102E20001092C51982E086BB80916F00826080930A
:102E30006F00809180008F7B8068809380008091FC
:102E4000840090918500409690938900809388003B
:102E5000DECFCF93DF93EB01BC018BE790E10E94C3
:102E600084AD60E28BE790E10E941BACBE018BE772
:102E700090E1DF91CF910C9435741F93CF93DF9342
:102E8000EC01162F4BEB5CE0FA0101900020E9F712
:102E9000AF014C5B5C406BEB7CE08BE790E10E9408
:102EA000B093112329F06AE08BE790E10E9408AD0E
:102EB0008BE790E10E949D944BEB5CE0FA0101905E
:102EC0000020E9F7AF014C5B5C40E881F9810280AA
:102ED000F381E02D6BEB7CE0CE010995112329F005
:102EE0006BEC76E0CE010E945CADE881F981068052
:102EF000F781E02DCE010995EBEBFCE089EA9FE03C
:102F000011928E179F07E1F7DF91CF911F910895DE
:102F10000C9422C40C9422C40C9422C40C9422C499
:102F20000C9422C40C9422C40C9422C48F929F92BD
:102F3000AF92BF92EF92FF920F931F93CF93DF93C5
:102F400000D0CDB7DEB78C017C018AE5E80EF11C1C
:102F5000F701A080B1806AE675E0C5010E94A5CFA7
:102F6000892B41F06FE675E0C5010E94A5CF892B42
:102F700009F094C0F801E45AFF4F80810E9443A4F5
:102F8000BC01990F880B990B0E94CDC92DE332E645
:102F90004BE95BE30E942CCA4B015C01F701E08026
:102FA000F18064E775E0C7010E94A5CF892BA9F0E5
:102FB00069E775E0C7010E94A5CF892B71F46FE71F
:102FC00075E0C7010E94A5CF892B39F464E875E04C
:102FD000C7010E94A5CF892BA1F4F801E45AFF4F45
:102FE00080810E9443A4BC01990F880B990B0E9419
:102FF000CDC92FE037E648E75CE30E942CCA4B01BD
:103000005C01A501940160E0C8010E940514809153
:10301000D6239091D723009711F48AED93E2BE0155
:103020006F5F7F4F681B790B072E000C880B990B85
:103030000E94CDC99B01AC0161E0C8010E9405144A
:10304000F801E35AFF4F608171816F5F7F4F718399
:103050006083072E000C880B990B0E94CDC99B0141
:10306000AC0162E0C8010E940514F801EB5BFF4F60
:103070001082118212821382349680818F7980832C
:1030800081E00F900F90DF91CF911F910F91FF90F2
:10309000EF90BF90AF909F908F900895812C8CE31C
:1030A000982E8CE1A82E86ECB82E78CFCF92DF92A6
:1030B000EF92FF921F93CF93DF93EC0181E10E9487
:1030C000C47A182F82E10E94C47A682F70E086E0EB
:1030D000759567958A95E1F7072E000C880B990B7B
:1030E00017FF33C00E94CDC920E030E040E85EE326
:1030F0000E942CCA6B017C01612F619570E090E009
:1031000080E00E94CDC99B01AC01C701B6010E94BD
:10311000B9CB90589B01AC0160E0CE010E94051430
:10312000FE01EB5BFF4F1082118212821382C75B9C
:10313000DF4F88818F79888381E0DF91CF911F9164
:10314000FF90EF90DF90CF9008950E94CDC920E0CE
:1031500030E040E85EE30E942CCA6B017C01612FE5
:1031600070E090E080E00E94CDC99B01AC01C701F6
:10317000B6010E94B9CBCECF2F923F924F925F9271
:103180006F927F928F929F92AF92BF92CF92DF9277
:10319000EF92FF921F93CF93DF93CDB7DEB72C97BB
:1031A0000FB6F894DEBF0FBECDBF1C01FC01E75B7C
:1031B000FF4F808186FF3BC0C101865A9F4F9A8393
:1031C00089837C0196E0E90EF11CE981FA81808116
:1031D0008130D1F542E050E062E070E0C7010E942A
:1031E0008176882321F163E070E0C7010E944F7669
:1031F0004B015C0142E050E066E070E0C7010E94D4
:103200008176182F63E070E0811130C020E03CE34C
:103210004CE156ECC501B4010E94C6C9C12C6CE357
:10322000D62E6CE1E62E66ECF62E811145C0C12C3F
:103230009CE3D92E9CE1E92E96ECF92EA70196018C
:10324000260137011982F9C044E050E060E071E0E6
:10325000C7010E948176882351F363E070E0C701C3
:103260000E944F764B015C0167E070E0C7010E944D
:103270004F766B017C01E981FA81C282D382E482BC
:10328000F58220E03CE34CE156ECC501B4010E941C
:10329000C6C911E0811110C0A7019601C701B6018E
:1032A0000E9472CD811104C1412C8CE3582E8CE117
:1032B000682E86EC782E9BC020E030E040E450E49D
:1032C000C701B6010E9422CD69837A838B839C83D8
:1032D00020E030E040E850E4C701B6010E9422CD72
:1032E0006D837E838F83988720E030E543EC57E43D
:1032F000C501B4010E942CCA69877A878B879C8795
:1033000025E13BEC41E85DE3C701B6010E942CCA10
:103310002DE436EF49E754E40E94B9CB2B013C0180
:10332000A7019601C701B6010E942CCA28E837EA16
:103330004BE05CE30E942CCA9B01AC01C301B201CB
:103340000E94B8CB2B013C0127E43CE941E958E35A
:1033500069817A818B819C810E942CCA9B01AC017E
:10336000C301B2010E94B9CB2B013C0125E636E234
:103370004DEC54E36D817E818F8198850E942CCA2B
:103380009B01AC01C301B2010E94B8CB2AE038EE28
:103390004CE151E40E942CCA9B01AC0169857A85FD
:1033A0008B859C850E9425CC2B013C01112309F4BF
:1033B0003ECFA5019401C501B4010E9472CD8823BE
:1033C00039F0812C5CE3952E5CE1A52E56ECB52EF0
:1033D000A7019601C701B6010E9472CD882339F07A
:1033E000C12C4CE3D42E4CE1E42E46ECF42EA30188
:1033F0009201C301B2010E9472CD882339F0412CA1
:103400003CE3532E3CE1632E36EC732E20E03CE38C
:103410004CE156ECC501B4010E94C6C9882309F4E9
:1034200040C020E030E04AE754E4C501B4010E9406
:103430002CCA9B01AC01F1E0F98360E0C1010E945C
:103440000514A701960161E0C1010E940514A301C2
:10345000920162E0C1010E940514F101EB5BFF4F94
:103460001082118212821382349680818F79808338
:1034700089812C960FB6F894DEBF0FBECDBFDF91C9
:10348000CF911F91FF90EF90DF90CF90BF90AF90C2
:103490009F908F907F906F905F904F903F902F9074
:1034A000089520E03CE34CE156EC81E08983C5CFF0
:1034B000C12C2CE3D22E2CE1E22E26ECF22EA70119
:1034C00096012601370191E09983B7CFCF93DF931F
:1034D000EC01FC01EC58FF4F0190F081E02D30979A
:1034E00011F080E009958BA187FD16C060E00E9475
:1034F0009C981DAA1EAA1FAA18AEFE01FD96108256
:1035000011821282138238961082118212821382E3
:103510003496808181788083CD58DF4F888187FD04
:1035200005C060E0DF91CF910C949C98DF91CF9122
:103530000895CF93DF93EC018BA187FD17C060E066
:103540000E949C981DAA1EAA1FAA18AEFE01FD96F5
:103550001082118212821382389610821182128296
:103560001382C75BDF4F888181788883DF91CF9199
:1035700008951F93CF93DF93EC01E881F98102A4B2
:10358000F3A5E02D099511E0882371F0E881F98118
:1035900004A0F5A1E02DCE010995182F89A187FD82
:1035A00003C060E00E949C98812FDF91CF911F9112
:1035B0000895CF93DF93EC018A8187FD07C060E017
:1035C0000E949C981AA21BA21CA21DA2DF91CF915F
:1035D0000895CF93DF93EC018BA187FD09C061E0D3
:1035E0000E949C980E94B0A46DAB7EAB8FAB98AF4D
:1035F000FE01ED58FF4F808187FD03C061E00E940E
:103600009C98FE01EC58FF4F0190F081E02D30971F
:1036100011F081E00995C75BDF4F88818660888360
:10362000DF91CF9108950F931F93CF93DF93FC0108
:10363000E75BFF4F208126FF22C0EC010E94B0A46F
:10364000FE01EB5BFF4F0081118122813381AB01D1
:10365000BC01401B510B620B730BCF5BDF4F81E052
:10366000088119812A813B8104171507260737072E
:1036700008F080E0DF91CF911F910F91089581E0D4
:10368000F9CF0F931F93CF93DF93FC01E75BFF4FBD
:10369000208124FF1FC0EC010E94B0A4FE01FD9612
:1036A0000081118122813381AB01BC01401B510B90
:1036B000620B730B81E009AD1AAD2BAD3CAD041765
:1036C00015072607370708F080E0DF91CF911F919B
:1036D0000F91089581E0F9CF0F931F93CF93DF935C
:1036E000FC01E75BFF4F208122FF1DC0EC010E941F
:1036F000B0A40DA91EA92FA938ADAB01BC01401B78
:10370000510B620B730B81E009A91AA92BA93CA9E3
:10371000041715072607370708F080E0DF91CF91DF
:103720001F910F91089581E0F9CF0F931F93CF93CD
:10373000DF93EC018C01075B1F4FF801808180FD56
:1037400007C0E881F9810284F385E02DCE01099557
:10375000F8019081892F80628083CB5BDF4F94FFDB
:1037600010C00E94B0A4688379838A839B83F80188
:1037700080818064808381E0DF91CF911F910F91E0
:103780000895188219821A821B829F7B906290830F
:1037900080E0F2CFCF930E94951BC82F882369F059
:1037A0008EE00E94C47A682F60628EE00E94967953
:1037B0008EE00E94C47A85FDFBCF8C2FCF910895B7
:1037C0000F931F93CF93DF938C01EC01C75BDF4F07
:1037D0009881892F88608883035C1F4F92FD0EC0FB
:1037E000F80110821182128213829F7E9860988362
:1037F00080E0DF91CF911F910F9108950E94B0A4B6
:10380000F8016083718382839383888180618883D8
:1038100081E0EFCF8F929F92AF92BF92FF920F9372
:103820001F93CF93DF93EC0181E08AA78AA19BA12C
:10383000ACA1BDA101E0892B8A2B8B2B41F4E8813F
:10384000F9810084F185E02DCE01099500E0E88141
:10385000F98102A4F3A5E02DCE010995F82E882365
:1038600001F1E881F98100A4F1A5E02DCE010995CF
:10387000182F811101C01AA6011133C0E881F98106
:103880000684F785E02DCE0109951823812FDF915D
:10389000CF911F910F91FF90BF90AF909F908F900D
:1038A00008950E94B0A48AA09BA0ACA0BDA06819F6
:1038B00079098A099B09898C9A8CAB8CBC8C681518
:1038C00079058A059B0568F3E881F9810680F7810F
:1038D000E02DCE010995182F8111C3CF011103C02E
:1038E000CDCFF110D3CFE881F9810484F585E02DA7
:1038F000CACFCF93DF93EC018BA187FD03C061E0BA
:103900000E9407A48AA187FD03C060E00E9407A46B
:10391000C75BDF4F88818160888381E0DF91CF9131
:103920000895CF93DF93EC010E94DE7ACE01DF9100
:10393000CF910C94791CCF93DF93EC010E946475B6
:1039400010921F1110922011109221111092221129
:10395000CE01DF91CF910C94791CCF93DF93EC01D2
:103960008BA187FD0EC061E00E9407A461E08BA1DE
:103970000E949C980E94B0A46DAB7EAB8FAB98AFB9
:1039800008C08DA99EA9AFA9B8AD892B8A2B8B2B16
:1039900089F3C75BDF4F888186608883DF91CF9191
:1039A0000895CF93DF93FC0123A521112BC0EC01D7
:1039B000838187FD03C060E00E9407A48B8587FD9B
:1039C00009C061E00E9407A46C8581E068278B85AF
:1039D0000E949C988D8187FD09C061E00E9407A428
:1039E0006E8181E068278D810E949C9889A187FD66
:1039F00007C061E00E9407A460E089A10E949C9832
:103A000081E08BA7DF91CF910895CF93DF93EC01F5
:103A10008A8187FD17C08B8587FD05C06C8591E085
:103A200069270E949C9861E08A810E9407A461E056
:103A30008A810E949C980E94B0A46AA37BA38CA355
:103A40009DA308C08AA19BA1ACA1BDA1892B8A2BF3
:103A50008B2B89F3DF91CF910895FF920F931F93E2
:103A6000CF93DF93EC010E94791CF82E8E010E5843
:103A70001F4FF801808187FD03C061E00E9407A409
:103A8000FE01ED58FF4F808187FD03C061E00E9479
:103A900007A4F8018081282F082E000C330BFE01AB
:103AA000E059FF4F40815181319790813297608179
:103AB0007397918360838F010A5F1F4FC05ADF4F56
:103AC00098835A8349833C832B8337FD03C061E08D
:103AD0000E9407A4C8010E946876E981FA818B855B
:103AE0009C85092E000CAA0BBB0B84839583A683AF
:103AF000B7838F2DDF91CF911F910F91FF90089584
:103B0000CF93DF93EC0188819981DC01ED91FC91E9
:103B10000084F185E02D0995892B81F088819981B8
:103B2000DC01ED91FC910284F385E02D099562E0C2
:103B300070E080E090E00E947DA4E5CFDF91CF911E
:103B40000895CF93DF93EC0162E070E080E090E0B5
:103B50000E947DA4FE01E95AFF4FC75ADF4F8081C2
:103B6000918128813981821B930B97FF02C0805C71
:103B70009F4FDF91CF910895CF92DF92EF92FF9206
:103B80000F931F93CF93DF93EC016B017A010C81AC
:103B90001D8169E875E0888199810E945CADB6015C
:103BA000888199810E9484ADB701888199810E94A2
:103BB0005CADB801888199810E945CAD8881998152
:103BC000DC01ED91FC910680F781E02D099562E022
:103BD00070E080E090E0DF91CF911F910F91FF9016
:103BE000EF90DF90CF900C947DA4CF93DF93EC0106
:103BF00062E070E080E090E00E947DA4EC85FD85AD
:103C000080819181DC01ED91FC910284F385E02DAE
:103C1000DF91CF910994CF93DF93EC0162E070E0E4
:103C200080E090E00E947DA4EC85FD8580819181FB
:103C3000DC01ED91FC910084F185E02DDF91CF91C5
:103C400009948F929F92AF92BF92FF920F931F930E
:103C5000CF93DF93CDB7DEB728970FB6F894DEBFCA
:103C60000FBECDBF8C0181EF98ED9A8389839C8331
:103C70008B8383E68F838DE988878FE097E29E832D
:103C80008D830E94B0A44B015C01D801ED91FC91A1
:103C9000008CF18DE02DAE014D5F5F4FBE016F5F77
:103CA0007F4FC8010995F82E89819A81009719F0F4
:103CB000813F984DD1F46AEF70E080E090E00E947F
:103CC0007DA489819A81009719F0813F984D69F40C
:103CD0000E94B0A4681979098A099B0968397A4356
:103CE0008105910510F4F110D0CFD801ED91FC9130
:103CF000028CF38DE02D9E012B5F3F4FAE01485F9C
:103D00005F4FBE01695F7F4FC8010995F822D80156
:103D1000ED91FC91048CF58DE02DC80109958F2D56
:103D200028960FB6F894DEBF0FBECDBFDF91CF91BE
:103D30001F910F91FF90BF90AF909F908F9008952B
:103D4000CF93DF93EC018D8187FD13C06E810E94BC
:103D50009C986F81788589859A850E947DA46E8163
:103D600081E068278D810E949C9881E0DF91CF914E
:103D7000089580E0FBCF2F923F924F925F926F9217
:103D80007F928F929F92AF92BF92CF92DF92EF92EB
:103D9000FF920F931F93CF93DF93CDB7DEB7289792
:103DA0000FB6F894DEBF0FBECDBF6C011C0129E435
:103DB000220E311CD1018C9186FF37C0F601E45AE6
:103DC000FF4F00811181FE0131967F0188E0DF0104
:103DD0001D928A95E9F7F80182859385A485B585BA
:103DE000892B8A2B8B2B09F465C00E94B0A4D801C3
:103DF0001A968D909D90AD90BC901D978616970653
:103E0000A806B90608F04CC00E94B0A4F80142848C
:103E10005384648475846419750986099709603D23
:103E200077408105910508F045C0812C9CE3992ECF
:103E30009CE1A92E96ECB92E2401350110E0A501D4
:103E4000940161E0C6010E940514A301920160E0A3
:103E5000C6010E940514F601EB5BFF4F1082118230
:103E600012821382D1018C918F798C93812F2896A5
:103E70000FB6F894DEBF0FBECDBFDF91CF911F917B
:103E80000F91FF90EF90DF90CF90BF90AF909F90F9
:103E90008F907F906F905F904F903F902F900895FC
:103EA0000E94B0A4D8011A966D937D938D939C9334
:103EB0001D97BBCF0E94B0A4F801628773878487E7
:103EC000958780809180D40114968D919C9115974F
:103ED000892B49F08C910E945A7541E050E0B7015E
:103EE000C4010E94347662E370E080E090E00E94BA
:103EF0007DA483E089831A8284E08B83F80180802B
:103F00009180D40114968D919C911597039748F058
:103F10008C910E945A7543E050E0B701C4010E94A1
:103F20003476F80180809180D40114968D919C9113
:103F300015970897F8F041E068E08C910E94827430
:103F40001092B80F8093B70F8830A1F43E01B9E00A
:103F50006B0E711CF40181819281DC01ED91FC9169
:103F60000284F385E02D0995F70181937F016E1698
:103F70007F0681F78981833009F057CF8A818430A9
:103F800009F053CF6B8170E090E080E00E94CBC9D4
:103F900020E030E040E853E40E942CCA2B013C01B1
:103FA0006C8170E090E080E00E94CDC99B01AC0183
:103FB000C301B2010E94B9CB20E030E040E251E4FD
:103FC0000E9425CC2B013C01D80112964D925D92A6
:103FD0006D927C921597FD806F2D6F7770E090E069
:103FE00080E00E94CDC920E030E040E853E40E9428
:103FF0002CCA4B015C016E8170E090E080E00E9471
:10400000CDC99B01AC01C501B4010E94B9CB20E030
:1040100030E040E251E40E9425CCF80166837783CA
:10402000808791872F2D30E0220F232F221F330B03
:10403000232B39F0AB01BC0170584683578360874E
:104040007187F80186809780A084B184A5019401CE
:10405000C501B4010E9472CD882339F0812C2CE374
:10406000922E2CE1A22E26ECB22EA3019201C301C6
:10407000B2010E9472CD811102C011E0E0CE412C4C
:104080008CE3582E8CE1682E86EC782EF6CFEF92DA
:10409000FF920F931F93CF93DF937C01EB018A0173
:1040A00062E070E080E090E00E947DA4D7011C9661
:1040B000ED91FC91A801BE0180819181DF91CF91AA
:1040C0001F910F91FF90EF900C945BABEF92FF92DA
:1040D0000F931F93CF93DF93EC010BA1875B9F4F4F
:1040E0007C0107FD54C0002E000C110BF801EB53AE
:1040F000F14E649170E090E080E00E94CBC90E9494
:10410000DACCF801EB55F14EE491F0E0EE0FFF1F31
:10411000E45AF84DA591B4910C9110E028E132E7F2
:1041200041E35FE30E9425CC0E9497CC02C0159525
:1041300007956A95E2F700FD2AC01DAA1EAA1FAACC
:1041400018AEF701808181788083E881F981068447
:10415000F785E02DCE01099500E0F7018081F82F69
:10416000F870EF2E83FF27C09EA1DE011296FE019C
:10417000B99680E040E05CE36CE176EC9817B9F129
:104180004D935D936D937D9311928F5FF7CF8DA9C2
:104190009EA9AFA9B8AD892B8A2B8B2B31F40E9435
:1041A000B0A46DAB7EAB8FAB98AFF701808186601A
:1041B000808301E0D2CFE881F981028CF38DE02D7C
:1041C00060E0CE0109958823B1F3E881F981028886
:1041D000F389E02DCE010995182F8111C5CF812FCC
:1041E000DF91CF911F910F91FF90EF900895E8819B
:1041F000F981048CF58DE02D60E0CE010995182F32
:104200008823A9F3F12C8FA1F816D0F4E881F98165
:104210000688F789E02DCE010995E881F981068CA1
:10422000F78DE02D60E0CE0109958823B1F3E88198
:10423000F981008CF18DE02DCE010995F394E3CF47
:10424000CE010E949C15EE2039F0E881F9810488A6
:10425000F589E02DCE010995011107C0E881F981AA
:104260000088F189E02DCE010995CE010E94CC1580
:10427000B6CFCF92DF92EF92FF920F931F93CF931F
:10428000DF93EC010E94B0A46B017C01E881F9810D
:104290000484F585E02DCE0109958A8187FD24C02F
:1042A0008B8187FD2BC00E94B0A46C197D098E09FB
:1042B0009F090D891E892F89388D60177107820724
:1042C000930738F48B810E9473982C812817190664
:1042D00051F38B810E94739860E08A810E949C98C0
:1042E0001AA21BA21CA21DA281E0DF91CF911F91F7
:1042F0000F91FF90EF90DF90CF9008958D899E8968
:10430000AF89B88D892B8A2B8B2B31F30E94B0A4F7
:104310006C197D098E099F090D891E892F89388D99
:10432000601771078207930788F3D6CFCF93DF9387
:10433000EC01E881F9810084F185E02D0995892B54
:1043400031F48C859D85DF91CF910C942E9081E086
:10435000DF91CF9108952F923F924F925F926F928B
:104360007F928F929F92AF92BF92CF92DF92EF9205
:10437000FF920F931F93CF93DF93CDB7DEB72C97A8
:104380000FB6F894DEBF0FBECDBF5C011B015E838C
:104390004D8362E070E080E090E00E947DA40E9486
:1043A000B0A42B013C01F12CE12C9501295A3F4F7F
:1043B00038872F83C501875A9F4F9C838B83F501D4
:1043C0007796FA87E9872D813E81E216F30608F099
:1043D00082C00E94B0A46419750986099709F50185
:1043E0000481158126813781601771078207930741
:1043F00008F071C0EF81F8850190F081E02DFA831B
:10440000E983EB81FC818081918129813A81281B9C
:10441000390B3A83298337FF04C0205C3F4F3A832E
:10442000298389819A819C878B878D819E818E19B2
:104430009F09EB85FC85E817F90708F446C09C87BF
:104440008B87CB84DC843A822982EB81FC8180805B
:104450009180EF81F885808191818819990997FF72
:1044600002C0805C9F4F009749F100E410E00819FA
:104470001909C016D1060CF48601801791070CF4B7
:104480008C0169857A85680D791DA80189819A81D9
:104490000E946DCF800E911EFFE38F229924EB8145
:1044A000FC8191828082C01AD10A29813A81200F31
:1044B000311F3A832983C114D10439F68B859C8539
:1044C000280E391EE80EF91E7ECF2B853C85232B46
:1044D00009F479CFB6CFC7012C960FB6F894DEBF9A
:1044E0000FBECDBFDF91CF911F910F91FF90EF9045
:1044F000DF90CF90BF90AF909F908F907F906F9004
:104500005F904F903F902F900895EF92FF920F93FE
:104510001F93CF93DF93EC018B017A0162E070E08F
:1045200080E090E00E947DA4A701B8018C859D8564
:10453000DF91CF911F910F91FF90EF900C94E89134
:10454000EF92FF920F931F93CF93DF93EC018B01B8
:104550007A0162E070E080E090E00E947DA4A70113
:10456000B8018C859D85DF91CF911F910F91FF90B0
:10457000EF900C94E891BC018BE790E10E9484AD30
:104580006CE875E08BE790E10E945CAD61E975E055
:104590008BE790E10C94E3ABBC018BE790E10E94C8
:1045A0002F746CE875E08BE790E10E945CAD61E9E7
:1045B00075E08BE790E10C94E3ABCF92DF92EF9242
:1045C000FF920F931F93CF93DF9300D000D000D0C2
:1045D000CDB7DEB78C016B017A01FC01848595852E
:1045E0000E94801DF8018485958526854EE854E05B
:1045F0005A834983F60142815381648175814B83DB
:104600005C836D837E83A701BE016F5F7F4F0E9435
:104610002E8FF801858B90E026960FB6F894DEBFBA
:104620000FBECDBFDF91CF911F910F91FF90EF9003
:10463000DF90CF9008958F929F92AF92BF92CF92CA
:10464000DF92EF92FF920F931F93CF93DF931F920E
:10465000CDB7DEB78C01FC01848C958CA68CB78C11
:10466000C08CD18CE28CF38CBE016F5F7F4F0C96B7
:104670000E94827B0197C9F4898190E0F801848EC1
:10468000958EA68EB78EC08ED18EE28EF38E0F9051
:10469000DF91CF911F910F91FF90EF90DF90CF901E
:1046A000BF90AF909F908F9008958FEF9FEFE6CFD0
:1046B000CF93DF931F92CDB7DEB7BE016F5F7F4F01
:1046C0000C960E94827B019731F4898190E00F90D3
:1046D000DF91CF9108958FEF9FEFF9CF0C960C9457
:1046E000EE9A0C960C94709BCF93DF931F92CDB7EC
:1046F000DEB7698341E050E0BE016F5F7F4F0C96EB
:104700000E94709B0F90DF91CF910895BF92CF923E
:10471000DF92EF92FF920F931F93CF93DF936B0182
:104720008C01F12CE12CB02ED12FF801C1918F0119
:10473000CC23F1F0C114D10449F06C2F0C2E000CE5
:10474000770BC6010E949ACF892B91F4EF2851F084
:104750006C2F0C2E000C770B8DE995E00E949ACF00
:10476000892B31F48C2F90E00E94FAC67C01DBCFBC
:104770008B2D9D2FDF91CF911F910F91FF90EF9087
:10478000DF90CF90BF9008950F931F93CF93DF9347
:104790008C01EC0109900020E9F721970C171D0707
:1047A00040F48A9190E00E94FAC6892B11F0188299
:1047B000F5CFC801DF91CF911F910F9108952F92EE
:1047C0003F924F925F926F927F928F929F92AF92A1
:1047D000BF92CF92DF92EF92FF920F931F93CF93EE
:1047E000DF93CDB7DEB7CA5CD1090FB6F894DEBF50
:1047F0000FBECDBF2B01FE01EB59FF4F119211925D
:1048000020E3DF01322F1D923A95E9F7FE01E956C8
:10481000FF4F11921192DF011D922A95E9F7D12CD9
:10482000C12CB12CA12C8B579D4F3C01FE01319620
:104830007F01CE010496C753DF4F99838883C95CFB
:10484000D040B701C3010E946B7C892B09F4BCC026
:104850009FEFA91AB90AA1E0AA16B10409F04FC046
:1048600089818F3E09F04BC08A818B3B09F047C09C
:104870008B818F3B09F043C0C753DF4F8881C95CF0
:10488000D040C653DF4F9881CA5CD0400E94C423F9
:104890008C014801F80131908F01332031F0832DD4
:1048A00090E00E94FAC6892BA1F7632D032C000C1F
:1048B000770B8FE995E00E949ACF892B11F6C956A4
:1048C000DF4F8881C759D0408823D9F0332009F4BD
:1048D000B8CFE814F90408F073C0A401BE0169560A
:1048E0007F4FCE018B599F4FF2010995892B09F01B
:1048F000A8CFC114D10409F0A4CF6501A2CFC7018C
:10490000C5CFFBE53F1220C03FEF831A930A62EA4E
:1049100075E0C4010E948623DC012C912D3549F7F6
:104920001C9241E350E0B401CE018B599F4F0E948D
:10493000D3CFCA56DF4F1882C659D040C956DF4F71
:104940001882C759D0407DCF332009F47ACF64EA6A
:1049500075E0C4010E948623FC0120812D3311F0F3
:104960002A3339F6DC011D928D01C4010E94C42353
:104970004C0170E060E0C8010E948623FC012081A8
:10498000211110821801D8018D918D01882329F001
:1049900090E00E94FAC6892BA9F7C1010E94C423A6
:1049A00041E350E0B401CE0189569F4F0E94D3CF1E
:1049B000C853DF4F1882C85CD040A101B40191CF29
:1049C000FBE53F12C4CFA0CF8C2DC653DF4F0FB6EF
:1049D000F894DEBF0FBECDBFDF91CF911F910F9135
:1049E000FF90EF90DF90CF90BF90AF909F908F900F
:1049F0007F906F905F904F903F902F900895CF924F
:104A0000DF92EF92FF92C0908D15D0908E15E090BE
:104A10008F15F09090152DEC3CEC4CE950E4C7015B
:104A2000B6010E94CDCC1816D4F468E272E08BE790
:104A300090E10E9484AD24E030E0B701A6018BE74D
:104A400090E10E9406AD8BE790E10E94DFAB84E22B
:104A5000C82E89EBD82E8CEFE82E8DE3F82EC701F7
:104A6000B601FF90EF90DF90CF900895CF92DF9244
:104A7000EF92FF92CF93DF93EC010E94FF246B0132
:104A80007C01C0925917D0925A17E0925B17F092AE
:104A90005C17C130D10509F466C0229709F46EC0D5
:104AA00020E030E040E05FE30E94C6C987FF08C015
:104AB00084E090E09093B70C8093B60C81E046C000
:104AC00080915D1790915E1724E1289FE001299F56
:104AD000D00D1124C75AD84E2A893B894C895D894B
:104AE000C701B6010E94CDCC87FFE2CF2E853F855E
:104AF00048895989C701B6010E94CDCC87FF30C0D3
:104B00002A853B854C855D85C701B6010E94CDCCC9
:104B100087FF23C02E813F8148855985C701B60193
:104B20000E94CDCC87FF0CC01092B70C1092B60C2F
:104B300070E060E087E299E00E94291780E006C0FB
:104B400081E090E09093B70C8093B60CDF91CF9109
:104B5000FF90EF90DF90CF90089582E090E0AACF91
:104B600083E090E0A7CF6091B60C7091B70C89E715
:104B700099E0633071050CF0A1CFDECF6091B60CE7
:104B80007091B70C643071050CF098CF8FE499E008
:104B9000D3CF81110C9416B00C940EB0CF93C62FC6
:104BA000BC018BE790E10E9484AD60E28BE790E16D
:104BB0000E941BAC6C2F70E08BE790E1CF910C94BE
:104BC0003574CF93DF93EC01688581E997E10E940A
:104BD000CE258885DF91CF910895CF93DF93EC01A7
:104BE000688586E29AE00E94CE258885DF91CF9184
:104BF000089508950895089508950895CF93DF9333
:104C0000EB01BC018BE790E10E9484AD60E28BE791
:104C100090E10E941BACBE018BE790E1DF91CF9148
:104C20000C94E973BC018BE790E10C943574089502
:104C3000CF93DF93EB01BC018BE790E10E9484AD41
:104C400060E28BE790E10E941BACCE01DF91CF9137
:104C50000C941226BC018BE790E10C94E3ABCF934C
:104C6000DF93EB01BC018BE790E10E9484AD60E231
:104C70008BE790E10E941BACCE01DF91CF910C94A9
:104C80002A26AF92BF92CF92DF92EF92FF920F93BC
:104C90001F93CF93DF93CDB7DEB728970FB6F89465
:104CA000DEBF0FBECDBFFC01AE014F5F5F4F88E09E
:104CB000DA011D928A95E9F7DB0114960D911C919A
:104CC000D12C30E020E0AAE0CA2EED2CF12CE01629
:104CD000F10608F049C0DB018D919C91009729F104
:104CE000D701A80FB91F8C918E3201F52F5F3F4F6E
:104CF00024303105A4F18EE894E091838083128200
:104D0000138214821582CF0128960FB6F894DEBF65
:104D10000FBECDBFDF91CF911F910F91FF90EF900C
:104D2000DF90CF90BF90AF90089580E090ED980F06
:104D30009A30B8F4D901AA0FBB1FA40FB51FAD90CC
:104D4000BC901197CA9C7001CB9CF00C1124082ECA
:104D5000000C990BC0978E0D9F1D8D939C93D3943F
:104D6000B4CF23303105D9F78F819D812B813981D3
:104D70004EE854E0518340833283238394838583B8
:104D8000C2CFCF92DF92EF92FF920F931F93CF93F8
:104D9000DF93EC016B017A010C811D8169E875E0FC
:104DA000888199810E945CADB601888199810E94B9
:104DB00084ADB701888199810E942F74B8018881E0
:104DC00099810E945CAD88819981DC01ED91FC9113
:104DD0000680F781E02D099562E070E080E090E0C8
:104DE000DF91CF911F910F91FF90EF90DF90CF90C7
:104DF0000C947DA4EF92FF920F931F93CF93DF93B8
:104E0000EC017B010C811D8169E875E08881998145
:104E10000E945CADB701888199810E9484ADB80180
:104E2000888199810E945CAD88819981DC01ED9136
:104E3000FC910680F781E02D099562E070E080E04A
:104E400090E0DF91CF911F910F91FF90EF900C9424
:104E50007DA40F931F93CF93DF938C01FC01858575
:104E60009685A785B089892B8A2B8B2B81F083812E
:104E700087FD41C00E94739821E0892B09F420E04E
:104E800081E0F8019481921789F180E02FC0C385F9
:104E90000C2E000CDD0BFE01EB53F14E649170E023
:104EA00090E080E00E94CBC90E94DACCFE01EB5575
:104EB000F14EE491F0E0EE0FFF1FE45AF84DA5919A
:104EC000B491CC91D0E028E132E741E35FE30E9466
:104ED00025CC0E9497CC02C0D595C7956A95E2F77C
:104EE000C17081E0F8019485C913CFCFDF91CF91D4
:104EF0001F910F910895C5E00C5B1F4F69E074E1AD
:104F0000C8010E94FA2623E536E14AE556E164E647
:104F1000C8010E946B8D813049F062E370E080E04F
:104F200090E00E947DA4C15049F7AFCF81E0DECF71
:104F30000F931F93CF93DF938C01FC01858596859A
:104F4000A785B089892B8A2B8B2B81F0838187FDE4
:104F500041C00E94739821E0892B09F420E081E090
:104F6000F8019481921789F180E02FC0C3850C2E3F
:104F7000000CDD0BFE01EB53F14E649170E090E00C
:104F800080E00E94CBC90E94DACCFE01EB55F14EC5
:104F9000E491F0E0EE0FFF1FE45AF84DA591B491B3
:104FA000CC91D0E028E132E741E35FE30E9425CCD9
:104FB0000E9497CC02C0D595C7956A95E2F7C1705B
:104FC00081E0F8019485C913CFCFDF91CF911F9174
:104FD0000F910895C5E00C5B1F4F62E671E1C801B7
:104FE0000E94FA262BE038E142E158E164E6C8016C
:104FF0000E946B8D813049F062E370E080E090E0C8
:105000000E947DA4C15049F7AFCF81E0DECF8F92DF
:105010009F92AF92BF92CF92DF92EF92FF920F9347
:105020001F93CF93DF93EC018B0169017A0162E05A
:1050300070E080E090E00E947DA40E94B0A44B014B
:105040005C01D8018D919C91DC01ED91FC91008473
:10505000F185E02D0995892B59F40E94B0A46819B7
:1050600079098A099B096C157D058E059F0548F312
:10507000F80160817181CE010E948D7DCE010E9478
:10508000AFA5CE01DF91CF911F910F91FF90EF90CF
:10509000DF90CF90BF90AF909F908F900895CF9367
:1050A000DF93EC0169E571E10E94FA262BE038E11B
:1050B00042E158E162E2CE010E946B8D1BA2DF91BA
:1050C000CF910895CF93DF93EC0166E571E10E94E3
:1050D000FA262BE038E142E158E160E2CE010E947D
:1050E0006B8D813081F463E571E1CE010E94FA2677
:1050F0002BE038E142E158E161E2CE010E946B8D84
:1051000091E0813009F090E0892FDF91CF910895EF
:10511000BF92CF92DF92EF92FF920F931F93CF93A4
:10512000DF93EC01B62E1BA111116AC08885998509
:10513000E9E0DE2E8130964011F074E0D72ECE01EA
:105140000E94801DC12C6E817F81665F7F4F072E7C
:10515000000C880B990B0E947DA46FE471E188819B
:1051600099810E9484AD888599858130964009F4A3
:1051700066C02E813F81220F331F032E000C440B8B
:10518000550B6BE0E62E68E1F62E02E118E16FE1C7
:10519000CE010E94308D182F811126C0DA94D110D3
:1051A00018C08A8587FD54C060E00E949C9861E029
:1051B00070E080E090E00E947DA461E08A850E941A
:1051C0009C986AEF70E080E090E00E947DA484E00B
:1051D000D82E888599858130964031F468E873E14E
:1051E00080E090E00E947DA4C394113021F51BA3C0
:1051F0000E94B0A46CA37DA38EA39FA311E010C056
:105200000E94B0A4CCA0DDA0EEA0FFA06C197D0987
:105210008E099F09603177428105910508F086CF9C
:10522000812FDF91CF911F910F91FF90EF90DF9031
:10523000CF90BF900895BC1086CF10E0F1CF2BE047
:1052400038E142E158E16FE1CE010E946B8DA3CFBE
:10525000CE010E94FB8DB5CF0F931F93CF93DF93A9
:10526000FC01238527FD25C0EC018C010C5B1F4F41
:1052700065E0C8010E9488288823A9F050E040E03A
:1052800069E372E1C8010E94C1262BE038E142E1E6
:1052900058E164E6C8010E946B8DC8010E94622833
:1052A000C8010E944F286C8581E068278B850E9489
:1052B0009C9881E0DF91CF911F910F910895CF933A
:1052C000DF93EC018B8587FD20C06C850E949C9844
:1052D000CC5BDF4F65E0CE010E9488288823A9F0CF
:1052E00050E040E066E372E1CE010E94C1262BE06F
:1052F00038E142E158E165E6CE010E946B8DCE01B6
:105300000E946228CE010E944F2881E0DF91CF9158
:1053100008954F925F926F927F928F929F92AF9279
:10532000BF92DF92EF92FF920F931F93CF93DF9381
:10533000EC012A013B010E94B0A44B015C010E94D8
:10534000B0A4681979098A099B0964157505860551
:105350009705B0F4DBA0D11025C065E0CE010E9416
:105360008828D82E882319F0CE010E944F286AEF92
:1053700070E080E090E00E947DA4DD2001F301C098
:10538000D12C8D2DDF91CF911F910F91FF90EF9038
:10539000DF90BF90AF909F908F907F906F905F90C5
:1053A0004F9008950C811D8169E875E0888199818D
:1053B0000E945CADB801888199810E945CAD8881B2
:1053C0009981DC01ED91FC910680F781E02D099532
:1053D00062E070E080E090E00E947DA48BE0E82E27
:1053E00088E1F82E02E118E128EC30E040E050E0DE
:1053F0006DE0CE010E94308D813009F4B8CF1BA240
:10540000D12CB5CFCF92DF92EF92FF920F931F93E3
:10541000CF93DF93A895FC01C080D180E280F38018
:1054200033E0F694E794D794C7943A95D1F7209156
:10543000B90C3091BA0C2C153D0599F1EC01809115
:1054400000018823F9F00091B90C1091BA0C64EBBB
:1054500070E18BE790E10E9484AD60E28BE790E120
:105460000E941BACB8018BE790E10E942F7460E2B0
:105470008BE790E10E941BACB701A6018AEA90E19C
:105480000E9427B088819981AA81BB8123E0B695CB
:10549000A795979587952A95D1F79093BA0C809305
:1054A000B90CDF91CF911F910F91FF90EF90DF909A
:1054B000CF900895CF93DF93DC01F89414BEE0E61B
:1054C000F0E090819861908381E6808378948D915B
:1054D0009D910D90BC91A02D23E0B695A795979531
:1054E00087952A95D1F79093BA0C8093B90CC09107
:1054F000B90CD091BA0C64E870E18BE790E10E949E
:1055000084AD60E28BE790E10E941BACBE018BE7AB
:1055100090E10E942F7460E28BE790E10E941BAC47
:1055200084E690E10E94BB2281E080930001DF913C
:10553000CF910895CF92DF92EF92FF92CF93DF93B6
:105540006A017B01FC01C082D182E282F382DB012D
:10555000CA0123E0B695A795979587952A95D1F727
:105560009093BA0C8093B90CC091B90CD091BA0C3D
:1055700067E470E18BE790E10E9484AD60E28BE725
:1055800090E10E941BAC2AE030E0B701A6018BE756
:1055900090E10E94FAAB60E28BE790E10E941BACC5
:1055A00069E270E18BE790E10E9484AD60E28BE7F5
:1055B00090E10E941BACBE018BE790E10E942F742A
:1055C00060E28BE790E10E941BAC81E190E1DF910A
:1055D000CF91FF90EF90DF90CF900C94BB22EF9291
:1055E000FF920F931F93CF93DF937B01EA01890111
:1055F000BC018BE790E10E9484AD60E28BE790E113
:105600000E941BAC4AE050E0B7018BE790E10E949A
:10561000FCAB60E28BE790E10E941BACB801CE01CD
:10562000DF91CF911F910F91FF90EF900C94FE2589
:10563000CF93C62FBC018BE790E10E9484AD60E25E
:105640008BE790E10E941BAC4AE050E06C2F8BE7A7
:1056500090E1CF910C9409ACCF93DF93EC01FB0167
:10566000828193819B838A838DE692E099838883EC
:1056700084819581A681B7818C839D83AE83BF830E
:1056800080859185A285B38588879987AA87BB87FE
:1056900080E23C96DE011C9601900D928A95E1F71E
:1056A0008FE792E099838883DF91CF9108952F92BD
:1056B0003F924F925F926F927F928F929F92AF92A2
:1056C000BF92CF92DF92EF92FF920F931F93CF93EF
:1056D000DF9300D000D000D01F92CDB7DEB70E947C
:1056E000257A5C836D837E83632F822F90E00E94F6
:1056F000BF169C01A8E1B0E00E943DCB2C817B014C
:105700008C01E20EF11C011D111DA8019701ACE3F3
:10571000B0E00E9432CB2D817B018C01E20EF11CA6
:10572000011D111DA80197010E9432CB2E811B0182
:105730002C01220E311C411C511C00E8201A0CEBDC
:10574000300A02E9400A07EC500A6091AF0F20E1ED
:105750003EE06203A001639F500D1124952F990F25
:10576000990B9A01492F592F692F792F892F5101B0
:105770006201E12CF12C00E010E00E94AFCBB901F6
:10578000CA0127960FB6F894DEBF0FBECDBFDF91DA
:10579000CF911F910F91FF90EF90DF90CF90BF902E
:1057A000AF909F908F907F906F905F904F903F90C1
:1057B0002F900895CF93DF93EC01DB011D96ED91BF
:1057C000FC9150E0440F551F80819181480F591F73
:1057D000FA0160817181CE010E946888CE01DF915B
:1057E000CF910895FC01818587FD03C060E00C9492
:1057F0009C980895FC01818587FD03C061E00C94AD
:105800009C9808951F93CF93DF93EC018F8187FDC0
:1058100013C0162F61E00E9407A460E08F810E94F0
:105820009C98112349F068EE73E080E090E0DF91EE
:10583000CF911F910C947DA4DF91CF911F9108957A
:10584000FC011382128288EE93E0A0E0B0E0848332
:105850009583A683B7831486158616868FE792E014
:105860009183808308958F929F92AF92BF92CF923F
:10587000DF92EF92FF92CF93DF93EC0189819A81BF
:105880002DA13EA17C01E21AF30A9EA38DA36D8D8A
:105890007E8D90E080E00E94CBC99B01AC0166E662
:1058A00076E686ED90E40E9425CC4B015C01B701C1
:1058B000FF0C880B990B0E94CDC99B01AC01C5015F
:1058C000B4010E942CCA6FA378A789A79AA72FA515
:1058D00038A949A95AA90E94B9CB6B017C01CFA66E
:1058E000D8AAE9AAFAAA20E030E040E251E40E94F6
:1058F000C6C987FF13C080E090E0A0E2B1E48FA7A3
:1059000098ABA9ABBAABDF91CF91FF90EF90DF904E
:10591000CF90BF90AF909F908F9008958BA49CA440
:10592000ADA4BEA4A5019401C701B6010E94CDCCCF
:1059300018164CF78FA698AAA9AABAAAE4CF0F9373
:105940001F93CF93DF93EC01062F142F8CA10E949D
:105950005A758AA19BA1DC01ED91FC910190F08127
:10596000E02D602F09958AA19BA1DC01ED91FC91AE
:105970000190F081E02D612F09958AA19BA1DF9113
:10598000CF911F910F910C949379CF93DF93EC01FA
:1059900081E089A343E061E0CE010E949F2C88A1B1
:1059A000811180E14F8D440F482B60E0CE010E94B1
:1059B0009F2C81E0DF91CF910895EF92FF920F939A
:1059C0001F93CF93DF938C01EB01FC01608170E0AA
:1059D0006053784FCE010E948DA86DE2CE010E94E7
:1059E00016A9F801E180F12CFAE0EF16F10420F499
:1059F00060E3CE010E9416A9B701CE010E948DA8D6
:105A00006DE2CE010E9416A9F801E280F12CFAE0C5
:105A1000EF16F10420F460E3CE010E9416A9B7014D
:105A2000CE010E948DA860E2CE010E9416A9F80165
:105A3000E380F12CFAE0EF16F10420F460E3CE01EC
:105A40000E9416A9B701CE010E948DA86AE3CE017B
:105A50000E9416A9F801E480F12CFAE0EF16F10497
:105A600020F460E3CE010E9416A9B701CE010E9486
:105A70008DA86AE3CE010E9416A9F801058110E005
:105A80000A30110520F460E3CE010E9416A9B80186
:105A9000CE01DF91CF911F910F91FF90EF900C9469
:105AA0008DA88F929F92AF92BF92CF92DF92EF928A
:105AB000FF920F931F93CF93DF93EC016A017B0159
:105AC0002CE3822E912CA12CB12CCB01BA01A50183
:105AD00094010E9480CB6D83CA01B901A501940194
