:100000000C941F110C9442160C9417160C94EC15BA
:100010000C9477150C9402150C948D140C941814F0
:100020000C9497880C9449110C9449110C94491123
:100030000C945A6D0C94D16D0C940F6D0C94491165
:100040000C9449110C9449110C940A9E0C9449117A
:100050000C94A56B0C947B6B0C9449110C94491176
:100060000C9449110C9449110C9482220C9449115E
:100070000C94456B0C941B6B0C9449110C94491116
:100080000C9449110C9449110C944911029D059D41
:10009000F89CFC9C1C9D1C9D099D0D9D139D179D0E
:1000A00008000000BE922449123EABAAAA2ABECD87
:1000B000CCCC4C3E00000080BEABAAAAAA3E0000F9
:1000C0000000BF000000803F0000000000084178F1
:1000D000D3BB4387D1133D190E3CC3BD4282AD2B28
:1000E0003E68EC8276BED98FE1A93E4C80EFFFBE20
:1000F00001C4FF7F3F00000000004E414E494E49C1
:100100005459494E46CDCCCC3D0AD7233C17B7D1E4
:100110003877CC2B329595E6241FB14F0A0000208A
:10012000410000C84200401C4620BCBE4CCA1B0E09
:100130005AAEC59D7400407A10F35A00A0724E1852
:10014000090010A5D4E80000E87648170000E40B89
:1001500054020000CA9A3B000000E1F5050000804F
:10016000969800000040420F000000A086010000A9
:1001700000102700000000E80300000000640000F9
:100180000000000A00000000000100000000002C38
:1001900076D888DC674F0823DFC1DFAE59E1B1B7FD
:1001A00096E5E3E453C63AE651997696E8E6C284CA
:1001B00026EB898C9B62ED407C6FFCEFBC9C9F40E2
:1001C000F2BAA56FA5F490055A2AF75C936B6CF907
:1001D000676DC11BFCE0E40D47FEF520E6B500D0DD
:1001E000ED902E0300943577050080841E080000F2
:1001F000204E0A000000C80C333333330F986E12C0
:10020000831141EF8D2114893BE65516CFFEE6DBC5
:1002100018D1844B381BF77C1D901DA4BBE424200F
:100220003284725E228100C9F124ECA1E53D273DB4
:10023000005D00202050524F56494445525F4D4DBD
:100240005720555549447320286E6F6E6520756E92
:100250006C657373206C6973746564292C204D611F
:10026000783D000A2050524F56494445525F4D4D4B
:100270005720706F73744D61783D000A2050524FC3
:1002800056494445525F4D4D572074696D65725013
:100290006F737450616365286D73293D000A2050A7
:1002A000524F56494445525F4D4D572074696D6514
:1002B00072506F7374546F7574286D73293D000A02
:1002C0002050524F56494445525F4D4D572053617F
:1002D0006D706C696E6720466561747572653D006E
:1002E0000A2050524F56494445525F4D4D572052B7
:1002F000656720546F6B656E3D002050524F564924
:100300004445525F4D4D5720436C6F756449643DC1
:100310000046726F6D20656570726F6D2050726F50
:1003200076696465723A2050726F766964657220EE
:10033000547970653D002053656E644F6666736541
:1003400074286D696E293D000A0D20436F6C6C6541
:10035000637452656164696E67733D002057694636
:10036000695077643D000A205769466949643D0039
:100370000A2041504E3D0046726F6D2065657072D7
:100380006F6D204E6574776F726B3A204E6574778F
:100390006F726B20547970653D002020204C6F6394
:1003A0003D0062617474657279206D4168723D0030
:1003B0006261747465727920747970653D006D694D
:1003C0006E757465732C20547A3D005D0A0D2020F3
:1003D000206C6F6767696E6720696E7465727661FD
:1003E0006C3D0046726F6D20656570726F6D2063A5
:1003F0006F6D6D6F6E3A204C6F676765722046694E
:100400006C65204E616D655B005D005D20736E5B09
:10041000005D20207265765B0046726F6D20656519
:1004200070726F6D20626F6F74204E616D655B003E
:10043000302E3562004D313233343536373839613C
:100440006263646566676800656E7669726F4449C9
:1004500059206D6179666C7900506172736520690D
:100460006E693B204E6F2066696C652000436F6D9E
:10047000706C657465642E004572726F72206F6EC9
:10048000206C696E65203A00506172736520696E58
:10049000693B2000536561726368206572726F72F8
:1004A0002120627265616B206F7574206F66206C0D
:1004B0006F6F70002D3E0050524F56494445525FB9
:1004C00078780050524F56494445525F4D4D572061
:1004D00074696D6572506F737420506163696E67E3
:1004E000286D73290050524F56494445525F4D4D77
:1004F000572074696D6572506F737420546F7574F2
:10050000286D73290050524F56494445525F4D4D56
:10051000572053616D70696E67204665617475720E
:10052000650050524F56494445525F4D4D57205239
:100530006567697374726174696F6E20546F6B655F
:100540006E0050524F56494445525F4D4D5720431F
:100550006C6F75644964004E4554574F524B20737D
:10056000656E644F66667365745F6D696E004E45B7
:1005700054574F524B20436F6C6C656374526561E6
:1005800064696E677300272C206E6F772073657423
:1005900020746F2027004E4554574F524B20415036
:1005A0004E20776173202700434F4D4D4F4E204220
:1005B000617474657279206D4168723A2000434F0E
:1005C0004D4D4F4E2042617474657279205479709C
:1005D000653A2000434F4D4D4F4E204C6F67676981
:1005E0006E74657276616C3A2000434F4D4D4F4EEC
:1005F000204C6F676765724964205365743A200028
:1006000073657474696E6720746F20275F272C20D0
:10061000666F756E6420004572726F722021616C86
:100620006E756D206C6F676765722066696C6520FA
:10063000706F730056005620474F4F443D005620C0
:100640004D454449554D3D0056204C4F573D0020E7
:100650005468726573686F6C6473205553454142EA
:100660004C453D004261747465727920547970651F
:100670003D0050757474696E67206D6F64656D2000
:10068000746F20736C65657000436F756C64206EC9
:100690006F742077616B65206D6F64656D20666F88
:1006A0007220636C6F636B2073796E632E00436FEF
:1006B000756C64206E6F7420636F6E6E656374205A
:1006C000746F20696E7465726E657420666F722037
:1006D000636C6F636B2073796E632E00546869736B
:1006E000206D61792074616B6520757020746F20B6
:1006F00074776F206D696E75746573210041747431
:10070000656D7074696E6720746F20636F6E6E65BF
:10071000637420746F2074686520696E7465726EEE
:10072000657420616E642073796E6368726F6E69A0
:100730007A65205254432077697468204E49535497
:1007400000446174612077696C6C2062652073617C
:1007500076656420617300556E61626C6520746F0C
:100760002063726561746520612066696C65207420
:100770006F2073617665206461746120746F21005D
:1007800053657474696E672075702066696C6520A6
:100790006F6E2053442063617264005354433331BD
:1007A000303020646961676E6F73746963207365AC
:1007B00074205220746F206D4F686D732000535465
:1007C000433331303020736E3A0053657474696E70
:1007D000672075702073656E736F72732E2E2E00F6
:1007E0004C6F63616C2054696D6520002D2D2D7058
:1007F00061727365496E6920636F6D706C657465B5
:100800000A002D2D2D7061727365496E6920537435
:10081000617274004261745620476F6F64203D001E
:10082000535443333130307320426174562F6C700F
:100830002F636E747200535443333130307320642D
:10084000657465637465642E0054696E7947534D11
:10085000204C6962726172792076657273696F6E7D
:1008600020004D6F64756C617253656E736F7273A7
:100870002076657273696F6E20005377204E616D2C
:10088000653A20000A2D2D2D426F6F742E2053776C
:10089000204275696C643A20002C002C3078002CC2
:1008A00020002C206D41683D2C002C206D413D2CFA
:1008B0000020563D2C0054696D65207365742074CA
:1008C0006F200020657870656374206174206C650A
:1008D000617374203131206368617273203A27009C
:1008E0006461746520696E76616C69642C20676F41
:1008F00074004C6F63616C2054696D6520000A645C
:1009000079796D6D64643A68686D6D3C63723E2000
:10091000746F2073657420646174652F74696D65EC
:100920000A643F3C63723E20746F207072696E747B
:100930002063757272656E7420646174652F7469CA
:100940006D650A3F3C63723E20666F722074686971
:10095000732068656C700A00736563732E2052659E
:100960007475726E696E6720746F206E6F726D6140
:100970006C206C6F6767696E672E0020546F6F6B19
:1009800020746F6F206C6F6E672C206E656564201D
:10099000746F20636F6D706C65746520776974681F
:1009A000696E2000736563732E2052657475726ED4
:1009B000696E6720746F206E6F726D616C206C6F52
:1009C0006767696E672E00204E6F206B6579626FD6
:1009D00061726420616374697669747920666F72EC
:1009E0000073656373290020456E74657220636D22
:1009F000643A203F3C43523E20666F722068656C2B
:100A0000702E286E6565642061206B657920746F97
:100A1000206265207479706564206576657279203E
:100A2000006D696E2C0040000A0A000001020304F8
:100A3000050607000102030405060700010203047E
:100A400005060700010203040506074552524F52EE
:100A5000004C4100544D00544D3000544D00414D68
:100A60003000465200414D310041503000414D3080
:100A700000414900000000000403080700000001D5
:100A80000200090A00000000000000000000000051
:100A90000000000027006465737A714E6578744326
:100AA0006820316572726F723A006D532054696D1F
:100AB000656F75740077616974656420002D2D2061
:100AC000526573706F6E736520436F6465202D2DC2
:100AD000000A202D2D20556E61626C6520746F20F8
:100AE00045737461626C69736820436F6E6E6563F1
:100AF00074696F6E20746F20456E7669726F444919
:100B000059204461746120506F7274616C202D2DE6
:100B1000004932435F30783638004354363400475A
:100B2000543634004552524F520D004F4B0D004188
:100B30005030004349007365727A5264656C5F4CB3
:100B4000696E653B204E6F2066696C65002D2D2D0A
:100B50006C6F6744617461416E6450756252656C7C
:100B60006961626C792020436F6D706C6574652DCE
:100B70002D2D2D2D2D2D2D2D2D006C6F6744617485
:100B800061416E6450756252656C6961626C792076
:100B90002D2073746F72652072656164696E67736E
:100BA0002C206E6F20707562004661696C65642050
:100BB000746F2077616B652000436F6E6E656374A0
:100BC00020746F2074686520696E7465726E657438
:100BD000206661696C6564207769746800436F6E94
:100BE0006E656374696E6720746F20746865204950
:100BF0006E7465726E657420776974680052656101
:100C0000642073656E736F72732E2E2E00292D2D46
:100C10002D2D002D2D2D6C6F6744617461416E6424
:100C200050756252656C6961626C79202830780079
:100C30006C6F6744617461416E6450756252656C9B
:100C40006961626C79202D2074782063616E636520
:100C50006C6C6564006C6F6744617461416E6450D4
:100C6000756252656C6961626C79202D20616C6CD3
:100C70002063616E63656C6C6564006C6F674461D2
:100C80007461416E6450756252656C6961626C7921
:100C9000202D206F766572696465207769746820FD
:100CA000007365744654547A2065727220666F72C0
:100CB00020007365727A426567696E2065727220E2
:100CC00072656D6F76650064655352432072656D81
:100CD0006F766520657272007365727A4265676926
:100CE0006E2065727220636C6F7365006465535289
:100CF0004320636C6F7365206572720064655253A4
:100D00003B204E6F2066696C6520007365727A51D6
:100D10007565645374617274206F70656E206572BE
:100D200072007365632E2051756575656420726568
:100D30006164696E67733D0072656164696E6773B3
:100D400020696E0053656E74007075624451545290
:100D5000207365727A5175656446696C206572729C
:100D6000005D000A707562445154522053656E64F0
:100D7000696E67206461746120746F205B00506944
:100D80006E00255600545000414D00414D00414D2C
:100D90003000414E004357004355004D4E0044691A
:100DA00067692058626565332073657475702066C5
:100DB00061696C656421005D0058626565574C543B
:100DC0004520495023205B00586265654C544520FE
:100DD0006E6F74207265636569766564204950237F
:100DE000202D686F706520697420776F726B732097
:100DF0006E6578742074696D65005D2027006D64F0
:100E00006D49505B004D59004D5900446967692098
:100E1000586265653320736574757020537563651A
:100E200073732E20526567697374726174696F6E93
:100E3000202700547279202B435245472027002B4E
:100E400043524547004149004C6F6F703D53656305
:100E50005D207278206462203A2053746174757347
:100E60002027204F70657261746F722027202350F5
:100E70006F6C6C65642043656C6C20537461747591
:100E80007320657665727920317365630041503057
:100E900000544D005031005444304100444F005341
:100EA0004F00534D00503000443500443700443962
:100EB00000443800467756657200487756657200E0
:100EC000494D454920004C746520696E7465726E09
:100ED000657420636F6D6D73207769746800565276
:100EE00000485600494D00008080805D52544320E8
:100EF000416C61726D2073657420666F7220657637
:100F0000657279206D696E7574652E205265672053
:100F1000636865636B20776173203078000A2E2E3A
:100F20002E207A7A7A5A5A204177616B65204000E8
:100F30002920205A5A7A7A7A2E2E2E00476F696E0F
:100F40006720746F20736C6565702E2052616D2868
:100F5000004D4355206E6F7420456E61626C656470
:100F60002C5573652061206E6F6E2D6E6567617400
:100F70006976652077616B652070696E20746F20DB
:100F80007265717565737420736C656570210020DE
:100F900046775665722000204877566572200020FB
:100FA000536E20000020666F7220002700272073F8
:100FB0006E3A2700207265763A2700426F617264AC
:100FC0003A20004D6F64756C617253656E736F7279
:100FD00073207665727320002E2053772042756946
:100FE0006C643A20005377204E616D653A200020F2
:100FF0002042617474657279547970653A200020DA
:10100000547A3A200020204C6F6767696E67496EFA
:1010100074657276616C20286D696E293A20004CE7
:101020006F636174696F6E3A2000004461746520DB
:10103000616E642054696D6520696E2055544300CB
:10104000526573756C7420555549443A0052657366
:10105000756C7420556E69743A00566172696162EC
:101060006C65204E616D653A0053656E736F72203A
:101070004E616D653A0053616D706C696E67204614
:1010800065617475726520555549443A2000446184
:101090007461204C6F676765722046696C653A2001
:1010A0000044617461204C6F676765723A200027C5
:1010B000006465737A4C696E652072656164756E53
:1010C00067207374617274206E6F7420666F756E22
:1010D000640027006465737A4C696E652045706F03
:1010E000636820657272270027006465737A4C6913
:1010F0006E652065706F6368207374617274206E12
:101100006F7420666F756E640027006465737A4C97
:10111000696E65205374617475732065727227005F
:101120007365514346207365727A517565644669EB
:101130006C652E636C6F7365322065727200736527
:10114000514346207467746F757446696C652E63ED
:101150006C6F736531206572720073655143462070
:1011600051756520666F72206E65787420706173AA
:101170007320756E73656E74207265636F7264732D
:10118000007365514346207467746F757446696CCB
:1011900065207772697465332065727200736551DA
:1011A0004346207467746F757446696C6520777266
:1011B0006974653120657272007365514346206F12
:1011C00070656E32206572720073655143462072FD
:1011D000656E616D653120657272007365514346BD
:1011E00020657272362072656D6F76650073655189
:1011F00043462072656D6F766531206572720065B9
:1012000072726F723A20002C30580053644572722B
:101210006F723A20305800436865636B2053442056
:10122000666F726D61742E007365636F6E647320F8
:101230006F66204E4953542E00496E7465726E617C
:101240006C20436C6F636B2077697468696E200053
:10125000496E7465726E616C20436C6F636B2073B2
:10126000657420004261642074696D657374616DFA
:10127000702C206E6F742073657474696E672063C0
:101280006C6F636B2E001F1C1F1E1F1E1F1F1E1F57
:101290001E1F4442004C4D004D5900000020002309
:1012A00000260029000404040404040404020202C9
:1012B0000202020202030303030303030301010109
:1012C0000101010101010204081020408001020413
:1012D0000810204080010204081020408001020410
:1012E00008102040804552524F520D004F4B0D00C8
:1012F000414D31004552524F52004F4400544D0071
:10130000544D00444500444C004950005F50696E04
:101310000053444931322D006D6561737572656DFE
:10132000656E747321210054686973206469666670
:101330006572732066726F6D207468652073656EC8
:10134000736F722773207374616E646172642064BA
:10135000657369676E206F6600726573756C747370
:101360002065787065637465640053444931325375
:10137000656E736F72733A3A676574526573756C14
:10138000747332204552524F522073656E736F72E0
:1013900020746F6F6B20746F6F206C6F6E6720749A
:1013A0006F2073656E642064617461005344493139
:1013B0003253656E736F72733A3A67657452657330
:1013C000756C747331204552524F522077616974A5
:1013D000696E6720666F7220726573706F6E7365D9
:1013E0000020536E2000205344493132205665724C
:1013F00073696F6E20746264005344492053656EB4
:10140000736F722000204932435F307800525334AA
:1014100038352057696E67626F6172642053544398
:101420003331303020536E20006461746150756236
:101430006C69736865724261736520736574517578
:10144000656420636865636B004552524F522120EA
:101450004E6F2077656220636C69656E74206173DE
:101460007369676E656420746F207075626C697350
:1014700068206461746121002B2B2B0041430057CD
:101480005200434E00485300485300454550524FC8
:101490004D2057726974652066696E69736865646A
:1014A000002900414354494F4E205772697465200A
:1014B00061707020454550524F4D207374617274B5
:1014C000656428007D206E6F7420737570706F7274
:1014D000746564007D206D6174636820202620613E
:1014E000646465642E003D7B003D005D20004E6F0E
:1014F0007420737570706F72746564205B00414373
:1015000054494F4E2057726974652061626F72743E
:1015100065642E20696E737472756374696F6E20D2
:101520002700414354494F4E20434F5059206E6F7E
:101530007420737570706F72746564207965743A85
:1015400000434F50590057524954450041435449B4
:101550004F4E00555345520020746F2000424F4FAC
:1015600054207462642000454550524F4D205772FC
:101570006974652061626F727465642E20696E7390
:101580007472756374696F6E202700414354494F2C
:101590004E2044454641554C5420617070204545CD
:1015A00050524F4D0044454641554C545F415050B8
:1015B0005F454550524F4D00454550524F4D2057C5
:1015C000726974652066696E697368656400454573
:1015D00050524F4D20577269746520737461727454
:1015E00065643A0059455300454550524F4D5F5789
:1015F0005249544500426F617264205265763A0048
:10160000424F4152445F52455600426F617264201E
:1016100053657269616C4E756D203A00424F4152BC
:10162000445F534E00426F617264204E616D653AB3
:1016300000424F4152445F4E414D4500424F4F548E
:101640000020746F20004E4554574F524B20746257
:10165000642000434F4D4D4F4E2053657420534539
:101660004E445F4F46465345545F4D494E20657288
:10167000726F723B202872616E67652030203A20BD
:1016800033302920726561643A0053454E445F4F00
:1016900046465345545F4D494E00434F4D4D4F4EC6
:1016A0002053657420434F4C4C4543545F52454191
:1016B00044494E4753206572726F723B2028726115
:1016C0006E67652030203A203330292072656164CE
:1016D0003A00434F4C4C4543545F52454144494EB8
:1016E00047530061706E004E4554574F524B0020D7
:1016F000746F200053454E534F5253207462642040
:101700000053454E534F52530020746F2000434FF7
:101710004D4D4F4E20746264200047454F47524163
:1017200050484943414C5F49443A0047454F47526E
:101730004150484943414C5F494400434F4D4D4F50
:101740004E205365742054696D655A6F6E6520652F
:1017500072726F723B202872616E6765202D313284
:10176000203A202B31322920726561643A005449B5
:101770004D455F5A4F4E45002920726561643A001D
:1017800020536574204C69496F6E20547970652030
:101790006572726F723B202872616E676520302D12
:1017A0000020737570657273656465642075736578
:1017B00020424154544552595F5459504500434FBB
:1017C0004D4D4F4E204C69496F6E20547970653AEB
:1017D00020004C49494F4E5F545950450029207212
:1017E0006561643A00205365742042415454455267
:1017F000595F54595045206572726F723B202872B0
:10180000616E6765203C00424154544552595F5413
:101810005950450020536574204241545445525953
:101820005F6D41687220002920726561643A002072
:1018300053657420424154544552595F6D4168725A
:10184000206572726F723B202872616E6765203E60
:101850003D302026203C00424154544552595F6D92
:101860004168720029207769746820726561643A62
:10187000002053657420696E74657276616C206512
:1018800072726F72202872616E67653A20312D0086
:10189000286D696E292066726F6D206465666175BA
:1018A0006C742000434F4D4D4F4E204C4F474749DD
:1018B0004E475F494E54455256414C5F4D494E5537
:1018C0005445532073657420746F3A20002055737B
:1018D000696E67204D61782E2052656164696E677C
:1018E0002069676E6F7265642000434F4D4D4F4E07
:1018F000204C4F4747494E475F494E544552564149
:101900004C5F4D494E55544553206D75737420629C
:1019100065206C657373207468616E203A20004CFA
:101920004F4747494E475F494E54455256414C5FD9
:101930004D494E55544553004C4F474745525F491A
:101940004400434F4D4D4F4E0050524F5649444571
:10195000525F554249444F54530050524F564944E8
:1019600045525F5453005D20726561643A005052E5
:101970004F56494445525F4D4D5720536574205092
:101980004F53545F4D41585F4E554D206572726FF5
:10199000723B2072616E67655B00504F53545F4D20
:1019A00041585F4E554D005D20726561643A0050AC
:1019B000524F56494445525F4D4D57205365742050
:1019C00054494D45525F504F53545F504143455F1A
:1019D0004D53206572726F723B202872616E67658D
:1019E000200054494D45525F504F53545F5041437E
:1019F000455F4D53005D20726561643A0050524F5F
:101A000056494445525F4D4D572053657420544903
:101A10004D45525F504F53545F544F55545F4D5393
:101A2000206572726F723B202872616E6765205B61
:101A30000054494D45525F504F53545F544F5554D5
:101A40005F4D530053414D504C494E475F46454111
:101A50005455524500524547495354524154494FF9
:101A60004E5F544F4B454E00434C4F55445F4944E5
:101A70000050524F56494445525F4D4D57007469CE
:101A80006D6573206265666F72652074686520728B
:101A9000657365742E0073656320776974682074BC
:101AA000686520696E7465727275707420666972FB
:101AB000696E670057617463682D646F672074698D
:101AC0006D656F75742069732073657420666F721D
:101AD000002D3E00416C6C207661726961626C651C
:101AE00020555549442773206170706561722074D8
:101AF0006F20626520636F72726563746C79206613
:101B00006F726D65642E0A006861732061206E6FCC
:101B10006E2D756E697175652055554944210068B3
:101B2000617320616E20696E76616C696420555521
:101B3000494421004C6F6767657220706F72746949
:101B40006F6E206F662073657475702066696E69AC
:101B5000736865642E0A0053616D706C696E67204E
:101B60006665617475726520555549442069733AFC
:101B7000006172652063616C63756C617465642ECD
:101B80000073656E736F727320616E6400636F6DB6
:101B9000652066726F6D007661726961626C657353
:101BA0002C206F6620776869636800546869732029
:101BB0006C6F67676572206861732061207661725F
:101BC0006961626C652061727261792077697468FD
:101BD0000043757272656E74205254432074696DAF
:101BE000652069733A002D2D2D4C6F67546F534457
:101BF00020436F6D706C6574650A002D2D2D2D2DA1
:101C00002D2D2D2D2D2D2D2D2D2D2D2D2D2D2D2D04
:101C10002D2D2D2D2D2D2D2D2D2D2D2D2D2D2D2DF4
:101C20002D2D2D2D2D004E6F6E6500646174615059
:101C300075626C69736865724261736520675153A0
:101C400020636865636B004261642074696D652080
:101C5000003A3030003A3030003A3030003A30301C
:101C60000021212121212121212121212121212185
:101C70002121212121202D2D2D2D2D205741524E66
:101C8000494E47202D2D2D2D2D20002121212121B0
:101C90002121212121202D2D2D2D2D205741524E46
:101CA000494E47202D2D2D2D2D202121212121216F
:101CB00021212121002D2D2D2D2D205741524E491E
:101CC0004E47202D2D2D2D2D202121212121212177
:101CD000212121212121212121212121210054689B
:101CE000652063757272656E7420636C6F636B2020
:101CF00074696D657374616D70206973206E6F74A3
:101D00002076616C6964210021212121212121217A
:101D1000212121212121212121212121202D2D2D90
:101D20002D2D205741524E494E47202D2D2D2D2D22
:101D3000200021212121212121212121202D2D2D92
:101D40002D2D205741524E494E47202D2D2D2D2D02
:101D50002021212121212121212121002D2D2D2D65
:101D60002D205741524E494E47202D2D2D2D2D20EF
:101D70002121212121212121212121212121212153
:101D800021212121000074696D6573206265666FF1
:101D90007265207468652073797374656D2072654F
:101DA000736574732E005761746368646F672045B0
:101DB0006E61626C65642C20496E74657272757018
:101DC000742077696C6C2066697265005761746372
:101DD00068646F672064697361626C65642E206259
:101DE00061726B73556E74696C5265736574002013
:101DF0006578706563746564002E2E2E20576174BB
:101E00006368646F67206C6F77206261726B7355D3
:101E10006E74696C52657365740020574154434871
:101E2000444F4720495352206261726B73556E7460
:101E3000696C526573657400202A2A2A2A2057414A
:101E4000544348444F4720576F6F6620576F6F6663
:101E50002E205265736574696E672050726F6365DA
:101E600073736F722A2A2A00002D2D2D2D5C2F00EE
:101E70000A205C2F2D2D2D2D204C696E652053617D
:101E800076656420746F00556E61626C6520746FB6
:101E900020777269746520746F20534420636172E7
:101EA00064210020002069732000207265706F7229
:101EB0007473200020002069732063616C63756C6B
:101EC0006174656420746F20626520002D2D2D2DB6
:101ED0002D2D2D2D2D2D2D2D2D2D2D2D2D2D2D2D32
:101EE0002D2D2D2D2D2D2D2D2D2D2D2D2D2D2D2D22
:101EF0002D2D2D2D2D2D0045786974696E67207468
:101F0000657374696E67206D6F6465002D2D2D2DCE
:101F10002D2D2D2D2D2D2D2D2D2D2D2D2D2D2D2DF1
:101F20002D2D2D002D2D2D2D2D2D2D2D2D2D2D2D0E
:101F30002D2D2D2D2D2D2D2D2D2D2D004375727216
:101F4000656E74206C6F676765722074696D6520BB
:101F50006973002D2D2D2D2D2D2D2D2D2D2D2D2D5C
:101F60002D2D2D2D2D2D2D2D2D2D2D2D2D2D2D2DA1
:101F70002D2D2D2D2D2D2D2D2D2D2D2D2D00456E65
:101F8000746572696E672073656E736F7220746515
:101F90007374696E67206D6F6465002D2D2D2D2D76
:101FA0002D2D2D2D2D2D2D2D2D2D2D2D2D2D2D2D61
:101FB0002D2D2D2D2D2D2D2D2D2D2D2D2D2D2D2D51
:101FC0002D2D2D2D2D00666F720065787065637460
:101FD000004552524F5220696E6920706172616DE6
:101FE00020746F6F206C6F6E672C20676F740044D5
:101FF0006174612077696C6C206E6F74206265205B
:1020000073617665642100536C6176652F4368695E
:10201000702073656C6563742070696E20666F72E2
:10202000205344206361726420686173206E6F7472
:10203000206265656E207365742E004461746120B2
:1020400077696C6C206E6F742062652073617665B1
:102050006421004572726F723A20534420636172AA
:1020600064206661696C656420746F20696E6974B0
:1020700069616C697A65206F72206973206D69737C
:1020800073696E672E004E4F4E45004E4F4E450011
:102090004E4F4E45004E4F4E45004E4F4E45004E62
:1020A0004F4E45004E4F4E45004E4F4E45004E4F51
:1020B0004E45004E4F4E4500574946495057445FE4
:1020C0004E4F4E45005749464949445F4E4F4E4595
:1020D0000041504E5F4E4F4E4500466163746F7233
:1020E000792064656661756C74006D734C6F673040
:1020F00031002D2D2D4C425F5057525F55534541B5
:10210000424C455F5245512043414E43454C4C455E
:10211000442D2D4C626174743D002D2D2D4C425F79
:102120005057525F4D4F44454D5F5553455F5245A3
:10213000512043414E43454C4C45442D2D4C62614A
:1021400074743D002D2D2D4C425F5057525F534506
:102150004E534F525F5553455F5245512043414EB8
:1021600043454C4C45442D2D4C626174743D002D0B
:102170002D2D74755F787830313A57616B657570C5
:1021800020636865636B20706F7765722E205072D4
:10219000657373207573657220627574746F6E2039
:1021A000746F20627970617373003A2042617456D3
:1021B000204C6F77203D004261745F562873746332
:1021C0003331303029006261747465727943686517
:1021D000636B207265712F776169742F737263006E
:1021E0004E4953542054696D65207365727665724B
:1021F00020646964206E6F7420726573706F6E6402
:1022000021006D73004E49535420726573706F6ED8
:10221000646564206166746572005D20436F6E6E54
:10222000656374200000002100240027002A0000BC
:10223000002200250028002B00000FABBDB31124A5
:102240001FBECFEFD0E4DEBFCDBF19E0A0E0B1E00C
:10225000ECE9F2E801E00BBF02C007900D92AE3B43
:10226000B107D9F721E2AEEBB9E001C01D92A63962
:10227000B207E1F711E1CEE1D1E104C02197FE01FF
:102280000E94E0BDCD31D107C9F70E94549E0C9445
:1022900041C10C940000DC01ED91FC910688F789A6
:1022A000E02D099591E0811101C090E0892F0895FA
:1022B0000F931F93CF93DF9300D000D000D0CDB702
:1022C000DEB78C01DC01ED91FC910084F185E02DFD
:1022D0000995892BC9F41B821C821D821E82D8019C
:1022E0001C96ED91FC911D974585568567857089F3
:1022F0008B819C81AD81BE81481759076A077B0796
:1023000029F0F801858903C081E001C080E02696AC
:102310000FB6F894DEBF0FBECDBFDF91CF911F91F6
:102320000F910895DC011C96ED91FC911D97808121
:102330009181DC01ED91FC910680F781E02D0994FB
:10234000DC011C96ED91FC911D9780819181DC014F
:10235000ED91FC910484F585E02D0994CF93DF93F2
:102360001F92CDB7DEB76983DC01ED91FC9102804D
:10237000F381E02D41E050E0BE016F5F7F4F099592
:102380000F90DF91CF9108950F931F93CF93DF9319
:1023900000D000D000D0CDB7DEB7DC01ED91FC91CC
:1023A000048CF58DE02D2BE433E03A832983DB01A7
:1023B00012960D911D912D913C9115970B831C83C5
:1023C0002D833E8320E030E0BE016F5F7F4F099593
:1023D00026960FB6F894DEBF0FBECDBFDF91CF912A
:1023E0001F910F910895DC01ED91FC91028CF38D0A
:1023F000E02D2BE430E00994809128218111FCCF5D
:1024000008958091E1208F5F843408F080E09091FE
:10241000E0209817E1F32FB7F894909128219923A1
:1024200041F0E82FF0E0EE51FF4D60838093E12012
:102430001DC081E0809328216093272110922621DE
:1024400082E086BB80916F00826080936F008091F4
:1024500080008F7B806880938000809184009091C1
:102460008500409690938900809388002FBF81E07B
:1024700090E0089580E090E00895CF93DF93EC0121
:1024800062E070E080E090E00E94C49DEC85FD85F4
:1024900080819181DC01ED91FC910284F385E02D36
:1024A000DF91CF910994CF93DF93EC0162E070E06C
:1024B00080E090E00E94C49DEC85FD858081918143
:1024C000DC01ED91FC910084F185E02DDF91CF914D
:1024D0000994CF92DF92EF92FF920F931F93CF93C5
:1024E000DF938C01D62FC72F6A0162E070E080E095
:1024F00090E00E94C49DD8011C96ED91FC911D971F
:10250000E080F1800D2F1C2FC0E0D0E0CC16DD065E
:1025100051F0C7010E94856997FD05C0F8018193BC
:102520008F012196F3CFCE01DF91CF911F910F91B3
:10253000FF90EF90DF90CF900895EF92FF920F936E
:102540001F93CF93DF93EC018B017A0162E070E07F
:1025500080E090E00E94C49DA701B8018C859D8514
:10256000DF91CF911F910F91FF90EF900C949464A5
:10257000CF92DF92EF92FF920F931F93CF93DF934F
:1025800000D000D000D0CDB7DEB78C016B017A014E
:10259000FC01848595850E94359BF80126858BE496
:1025A00093E09A838983F60182819381A481B58126
:1025B0008B839C83AD83BE83A701BE016F5F7F4F7A
:1025C000F801848595850E941D61F801858B90E056
:1025D00026960FB6F894DEBF0FBECDBFDF91CF9128
:1025E0001F910F91FF90EF90DF90CF9008958F9201
:1025F0009F92AF92BF92FF920F931F93CF93DF935F
:10260000EC01FBA0FF2021F08BA1882331F008C052
:1026100065E00E943C748111F7CF84E090E0FEC039
:1026200088859985892B19F4CE010E94107561E780
:102630007AE0CE010E94969840E157E260E070E0B7
:10264000CE010E94BF74288539852130364009F0BB
:10265000A8C08332910509F4D7C05CF4833091059A
:102660002CF4813091050CF4A6C0B9C0439789F0D1
:10267000C9C0833491050CF0AFC0803491050CF0D3
:10268000AEC08432910509F4ACC0879709F4A9C0A3
:10269000B9C065E0CE010E943C74882309F4B4C03F
:1026A00088859985892B19F4CE010E94107588853B
:1026B000998581309640B9F065E67AE0CE010E94B6
:1026C000969844E25BE06BE27BE0CE010E94444CD2
:1026D000813021F0CE010E94067496C0CE010E9486
:1026E00018748823B9F362E67AE0CE010E949698C6
:1026F00044E25BE06BE27BE0CE010E94444C81301F
:1027000049F71BA2888599858130964029F460EDB0
:1027100077E080E090E004C064E670E080E090E064
:102720000E94C49D0E94FE9D4B015C010E94FE9D83
:10273000DC01CB0188199909AA09BB0980369A4E98
:10274000A105B10568F461E0CE010E943C748111DD
:1027500007C06AEF70E080E090E00E94C49DE6CF81
:102760008885998581309640A9F06EE57AE0CE01A2
:102770000E94969844E25BE06BE27BE0CE010E940F
:10278000444C813009F0A6CFCE010E9418748823F2
:1027900009F4A0CFCE010E940674CE010E94BC2D88
:1027A00033C085329105E9F04CF48432910554F53B
:1027B00082329105A4F4892B49F124C08D32910510
:1027C00044F48B329105F4F48A97E1F46DE67AE0F3
:1027D0000CC08F32910539F08F3F910599F402E0DA
:1027E00016C003E014C069E67AE0CE010E94969814
:1027F00044E25BE06BE27BE0CE010E94444CCE0100
:102800000E94187404E003C001E001C000E010E081
:10281000F11003C0CE010E940674C801DF91CF9170
:102820001F910F91FF90BF90AF909F908F90089550
:102830001F920F920FB60F9211240BB60F922F9387
:102840003F934F935F936F937F938F939F93AF9338
:10285000BF93CF93EF93FF9329B1C091CD1C80918B
:10286000CC1C9091CB1C322F309593238223892B43
:1028700090917300C227C923C8232093CD1CCC2379
:10288000C1F1C0FF05C0E091BB1CF091BC1C0995D3
:10289000C1FF05C0E091BD1CF091BE1C0995C2FFAF
:1028A00005C0E091BF1CF091C01C0995C3FF05C095
:1028B000E091C11CF091C21C0995C4FF05C0E091D4
:1028C000C31CF091C41C0995C5FF05C0E091C51C4F
:1028D000F091C61C0995C6FF05C0E091C71CF09198
:1028E000C81C0995C7FF05C0E091C91CF091CA1C1E
:1028F0000995FF91EF91CF91BF91AF919F918F91EA
:102900007F916F915F914F913F912F910F900BBEEF
:102910000F900FBE0F901F9018951F920F920FB639
:102920000F9211240BB60F922F933F934F935F9307
:102930006F937F938F939F93AF93BF93CF93EF93B7
:10294000FF9326B1C091BA1C8091E81D9091E71DBC
:10295000322F309593238223892B90916D00C227CB
:10296000C923C8232093BA1CCC23C1F1C0FF05C0E2
:10297000E091AA1CF091AB1C0995C1FF05C0E09144
:10298000AC1CF091AD1C0995C2FF05C0E091AE1CD6
:10299000F091AF1C0995C3FF05C0E091B01CF09108
:1029A000B11C0995C4FF05C0E091B21CF091B31CA5
:1029B0000995C5FF05C0E091B41CF091B51C0995BF
:1029C000C6FF05C0E091B61CF091B71C0995C7FF82
:1029D00005C0E091B81CF091B91C0995FF91EF91E9
:1029E000CF91BF91AF919F918F917F916F915F91A7
:1029F0004F913F912F910F900BBE0F900FBE0F90F4
:102A00001F9018951F920F920FB60F9211240BB6BC
:102A10000F922F933F934F935F936F937F938F9377
:102A20009F93AF93BF93CF93EF93FF9323B1C09145
:102A3000A91C8091EA1D9091E91D322F30959323B6
:102A40008223892B90916C00C227C923C82320932D
:102A5000A91CCC23C1F1C0FF05C0E091991CF091E5
:102A60009A1C0995C1FF05C0E0919B1CF0919C1C2C
:102A70000995C2FF05C0E0919D1CF0919E1C09952F
:102A8000C3FF05C0E0919F1CF091A01C0995C4FFF5
:102A900005C0E091A11CF091A21C0995C5FF05C0DD
:102AA000E091A31CF091A41C0995C6FF05C0E0911C
:102AB000A51CF091A61C0995C7FF05C0E091A71CB5
:102AC000F091A81C0995FF91EF91CF91BF91AF9123
:102AD0009F918F917F916F915F914F913F912F9136
:102AE0000F900BBE0F900FBE0F901F9018951F9266
:102AF0000F920FB60F9211240BB60F922F933F93A4
:102B00004F935F936F937F938F939F93AF93BF93F5
:102B1000CF93EF93FF9320B1C091981C8091EC1D4F
:102B20009091EB1D322F309593238223892B909126
:102B30006B00C227C923C8232093981CCC23C1F162
:102B4000C0FF05C0E091881CF091891C0995C1FF68
:102B500005C0E0918A1CF0918B1C0995C2FF05C04D
:102B6000E0918C1CF0918D1C0995C3FF05C0E0918C
:102B70008E1CF0918F1C0995C4FF05C0E091901C3C
:102B8000F091911C0995C5FF05C0E091921CF09150
:102B9000931C0995C6FF05C0E091941CF091951C0B
:102BA0000995C7FF05C0E091961CF091971C099507
:102BB000FF91EF91CF91BF91AF919F918F917F91B5
:102BC0006F915F914F913F912F910F900BBE0F909E
:102BD0000FBE0F901F9018951F920F920FB60F9275
:102BE00011240BB60F922F933F934F935F936F93E4
:102BF0007F938F939F93AF93BF93EF93FF93E09156
:102C0000861CF091871C0995FF91EF91BF91AF91C0
:102C10009F918F917F916F915F914F913F912F91F4
:102C20000F900BBE0F900FBE0F901F9018951F9224
:102C30000F920FB60F9211240BB60F922F933F9362
:102C40004F935F936F937F938F939F93AF93BF93B4
:102C5000EF93FF93E091841CF091851C0995FF91FF
:102C6000EF91BF91AF919F918F917F916F915F9104
:102C70004F913F912F910F900BBE0F900FBE0F9071
:102C80001F9018951F920F920FB60F9211240BB63A
:102C90000F922F933F934F935F936F937F938F93F5
:102CA0009F93AF93BF93EF93FF93E091821CF091BA
:102CB000831C0995FF91EF91BF91AF919F918F91E7
:102CC0007F916F915F914F913F912F910F900BBE2C
:102CD0000F900FBE0F901F901895542FE82FEF778D
:102CE00087FD08C0EA3009F4CAC08EEF8E0F82302B
:102CF00008F4C5C08E2F90E0FC01EB53FD4E2491EB
:102D0000FC01EB55FD4E3491452F4D7F4130F9F4D8
:102D1000313031F44091EC1D422B4093EC1D17C033
:102D2000323031F44091EA1D422B4093EA1D0FC02E
:102D3000333031F44091E81D422B4093E81D07C029
:102D4000343029F44091CC1C422B4093CC1C4FEFE3
:102D5000450F4230F8F4313031F44091EB1D422BF5
:102D60004093EB1D17C0323031F44091E91D422BE6
:102D70004093E91D0FC0333031F44091E71D422BE1
:102D80004093E71D07C0343029F44091CB1C422BFF
:102D90004093CB1CFC01E55DF54FA4913130C1F4AB
:102DA000B0E0AA0FBB1FA857B34E6D937C93EDE91B
:102DB000F2E1A591B4918C918093981C8BE690E000
:102DC0009093811C8093801C8091680081604DC02D
:102DD0003230C1F4B0E0AA0FBB1FA756B34E6D93BB
:102DE0007C93EFE9F2E1A591B4918C918093A91CB9
:102DF0008CE690E09093811C8093801C8091680009
:102E0000826033C03330C1F4B0E0AA0FBB1FA655B7
:102E1000B34E6D937C93E1EAF2E1A591B4918C916C
:102E20008093BA1C8DE690E09093811C8093801C67
:102E300080916800846019C03430C9F4B0E0AA0FF2
:102E4000BB1FA554B34E6D937C93E3EAF2E1A591C9
:102E5000B4918C918093CD1C83E790E09093811C7A
:102E60008093801C80916800886080936800A091A6
:102E7000801CB091811CEC912E2B2C9308959FB750
:102E8000F894E330B1F0EA3051F1E230E9F5E89836
:102E90007093831C6093821C809169008C7F809367
:102EA000690040916900452B40936900E09AE89AD7
:102EB0002BC0E9987093851C6093841C80916900F5
:102EC000837F809369008091690024E0529FA00174
:102ED0001124482B40936900E19AE99A15C0EA98B9
:102EE0007093871C6093861C809169008F7C80930F
:102EF00069008091690020E1529FA0011124482BB4
:102F000040936900E29AEA9A9FBF0895BF92CF92D8
:102F1000DF92EF92FF920F931F93CF93DF93CDB782
:102F2000DEB72C970FB6F894DEBF0FBECDBF6C0195
:102F3000FC01848595850E94359BF601E484F58427
:102F4000C7010E94359BF701178E10A211A212A291
:102F5000B3A0BB2041F16BE57AE0C7010E949698CF
:102F600028E833E140E050E0B701CE0107960E9427
:102F7000BB73F7018085918581309640D9F467E570
:102F80007AE0C7010E94969804E21BE02BE23BE046
:102F900048E853E160E070E0C7010E94024CC701BD
:102FA0000E94187407C065E0C7010E943C7481113B
:102FB000D2CF2AC0BE01695F7F4FCE0101960E9429
:102FC0002269AE014F5F5F4F64E57AE0C7010E945E
:102FD000AD60CE0101960E94716804E21BE02BE215
:102FE0003BE048E853E160E070E0C7010E94024C1A
:102FF000C7010E941874B11003C0C7010E94067473
:10300000CE0107960E947168F601848595850E941D
:10301000359BF601158A2C960FB6F894DEBF0FBECD
:10302000CDBFDF91CF911F910F91FF90EF90DF9077
:10303000CF90BF9008952F923F924F925F926F92E0
:103040007F928F929F92AF92BF92CF92DF92EF9238
:10305000FF920F931F93CF93DF93CDB7DEB76097A7
:103060000FB6F894DEBF0FBECDBF6C017B01588B4D
:103070004F873901DC011C968D919C911D970E9410
:10308000359BF601F685FD87D6011C960D911C91A6
:103090001D97F80133A0332091F1B701CE010196BD
:1030A0000E942B695801F1E1AF0EB11CBE016F5FA8
:1030B0007F4FC5010E94D866982ECE0101960E94CE
:1030C0007168911023C0B701CE0101960E942B694F
:1030D000BE016F5F7F4FC5010E942367CE0101963D
:1030E0000E947168D80159961C9259975A961C9261
:1030F0005A975B961C925B975C961C9207C065E0A2
:10310000C8010E943C748111C8CFFCC01B821C8284
:103110001D821E82F801418D528D638D748D8B81CD
:103120009C81AD81BE81481759076A077B0709F06A
:10313000B6C060E378E0CE0107960E942B6960E19B
:1031400070E0CE0107960E942F670E94FE9D4B0102
:103150005C0128EE33E0D3010E94E9BD2B013C0164
:10316000D80193962C90211069C065E0C8010E9497
:103170003C74811163C08BE493E09A8389831B8242
:103180001C821D821E827EC00E94FE9DDC01CB013E
:1031900088199909AA09BB0984159505A605B705DB
:1031A00090F462E070E080E090E00E94C49DF8013D
:1031B00080819181DC01ED91FC910084F185E02D0D
:1031C000099504970CF3F801608171814DE0CE01FF
:1031D00001960E94B569BE016F5F7F4FCE010796D1
:1031E0000E94E966CE0101960E947168CE010796A1
:1031F0000E94296660E378E0CE0107960E94896606
:10320000811116C06BE47AE0CE0101960E94EA6853
:10321000BE016F5F7F4FCE0107960E94D8668E87F2
:10322000CE0101960E947168BE85BB2309F487C058
:1032300064EC79E080E090E00E94C49D0E94FE9DD5
:10324000DC01CB0188199909AA09BB0984159505E8
:10325000A605B70538F4A70161E57AE0C8010E9428
:103260002498A5CF211087CFF12CC8010E940674A5
:10327000FF2009F480CFBE01695F7F4FCE01019628
:103280000E94A297CE0107960E9471688B819C8153
:10329000AD81BE81F801818F928FA38FB48FD80149
:1032A00059964D915D916D917C915C971B821C822A
:1032B0001D821E828B819C81AD81BE81481759077A
:1032C0006A077B07C1F08BE493E09A838983F80156
:1032D000818D928DA38DB48D8B839C83AD83BE83B2
:1032E0002D854F855889BE016F5F7F4FC8010E94B1
:1032F0001D61F82E01C0F12C311003C0C8010E94DD
:1033000006748F2DD60155968C9390E060960FB67B
:10331000F894DEBF0FBECDBFDF91CF911F910F910B
:10332000FF90EF90DF90CF90BF90AF909F908F90E5
:103330007F906F905F904F903F902F900895211055
:103340009ACFFF24F39491CFFC01848583FF0DC0B5
:1033500084A195A1A6A1B7A1448D558D668D778DC9
:10336000841B950BA60BB70B03C080E090E0DC013B
:10337000811520E89207A105B10520F08FEF9FE7A6
:10338000A0E0B0E00895DC01ED91FC910688F7899A
:10339000E02D099591E0811101C090E0892F0895F9
:1033A000CF93DF93EC01E881F9810084F185E02D72
:1033B0000995892B11F48D8901C081E0DF91CF91AE
:1033C00008958FEF9FEF0895CF93DF931F92CDB7AE
:1033D000DEB7DC01ED91FC910288F389E02D41E03C
:1033E00050E0BE016F5F7F4F0995019719F4898105
:1033F00090E002C08FEF9FEF0F90DF91CF91089583
:10340000DC011C96ED91FC911D9780819181DC017E
:10341000ED91FC910680F781E02D0994CF93DF9325
:103420001F92CDB7DEB76983DC01ED91FC9102807C
:10343000F381E02D41E050E0BE016F5F7F4F0995C1
:103440000F90DF91CF9108958F929F92AF92BF928C
:10345000CF92DF92EF92FF920F931F93CF93DF9360
:103460001F92CDB7DEB78C01FC01848C958CA68CA5
:10347000B78CC08CD18CE28CF38CBE016F5F7F4F18
:103480000C960E941493019719F4898190E002C070
:103490008FEF9FEFF801848E958EA68EB78EC08E2B
:1034A000D18EE28EF38E0F90DF91CF911F910F910D
:1034B000FF90EF90DF90CF90BF90AF909F908F9054
:1034C0000895CF93DF931F92CDB7DEB7BE016F5F34
:1034D0007F4F0C960E941493019719F4898190E014
:1034E00002C08FEF9FEF0F90DF91CF9108950C9660
:1034F0000C94705E0C960C94755CCF93DF93EC018A
:1035000062E070E080E090E00E94C49DFE01E95A14
:10351000FF4FC75ADF4F8081918128813981821BFB
:10352000930B97FF02C0805C9F4FDF91CF9108956E
:103530002F923F924F925F926F927F928F929F92C3
:10354000AF92BF92CF92DF92EF92FF920F931F93B1
:10355000CF93DF93CDB7DEB72C970FB6F894DEBFCD
:103560000FBECDBF5C011B015E834D8362E070E046
:1035700080E090E00E94C49D0E94FE9D2B013C01D2
:10358000E12CF12C9501295A3F4F38872F83C50133
:10359000875A9F4F9C838B83F5017796FA87E9873B
:1035A0002D813E81E216F30608F07DC00E94FE9D4B
:1035B000DC01CB0184199509A609B709F50104813D
:1035C00015812681378180179107A207B30708F07C
:1035D0006AC0EF81F88580819181EB81FC81208137
:1035E0003181821B930B97FF02C0805C9F4F0D813E
:1035F0001E810E191F098017910708F48C0101150F
:10360000110571F268013A822982EB81FC81808088
:103610009180EF81F8850190F081E02DE819F9099A
:10362000FC87EB87F7FF04C0E05CFF4FFC87EB876C
:103630002B853C85232B29F4200E311EE00EF11E34
:10364000AFCF80E490E088199909C816D9060CF428
:10365000C601EB85FC858E179F0714F49C878B872A
:1036600069857A85680D791D4B855C8589819A818C
:103670000E94B2C02B853C85820E931E3FE38322BD
:103680009924EB81FC81918280822B853C85C21A32
:10369000D30A89819A81820F931F9A838983C114E7
:1036A000D10451F2B2CFC7012C960FB6F894DEBF09
:1036B0000FBECDBFDF91CF911F910F91FF90EF9083
:1036C000DF90CF90BF90AF909F908F907F906F9042
:1036D0005F904F903F902F900895EF92FF920F933D
:1036E0001F93CF93DF93EC018B017A0162E070E0CE
:1036F00080E090E00E94C49DA701B8018C859D8563
:10370000DF91CF911F910F91FF90EF900C949464F3
:103710004F925F926F927F928F929F92AF92BF92E1
:10372000CF92DF92EF92FF920F931F93CF93DF938D
:10373000EC014A015B014C845D846E847F842881A6
:10374000222309F4A2C0488959896A897B894815CE
:1037500059056A057B0509F49EC081149104A104F2
:10376000B10429F41C861D861E861F8686C023FF91
:103770000BC0888D998DAA8DBB8D88159905AA05DA
:10378000BB0508F482C014C025FF12C0EE81FF8182
:103790008681978125E0880F991F2A95E1F7A0E09F
:1037A000B0E088159905AA05BB0508F46EC065C090
:1037B000EE81FF813481375F7501640181E0C81AB1
:1037C000D108E108F108032E04C0F694E794D794D9
:1037D000C7940A94D2F78A8186FF0DC08C8D9D8D87
:1037E000AE8DBF8DC80ED91EEA1EFB1ECC86DD86AF
:1037F000EE86FF8642C0DB01CA010197A109B1092B
:1038000004C0B695A795979587953A95D2F7C816AF
:10381000D906EA06FB0620F0452B462B472B99F4E8
:1038200026FF05C0848D958DA68DB78D04C08C8D27
:103830009D8DAE8DBF8D8C879D87AE87BF878E0196
:10384000045F1F4F15C0C81AD90AEA0AFB0AF7CF4E
:103850004C855D856E857F8598018E819F810E9454
:103860001E5691E0C91AD108E108F10818166CF447
:10387000C114D104E104F10459F7888A998AAA8A0B
:10388000BB8A8A818F7D8A8306C04C865D866E8660
:103890007F8680E001C081E0DF91CF911F910F9181
:1038A000FF90EF90DF90CF90BF90AF909F908F9060
:1038B0007F906F905F904F900895FF920F931F93AA
:1038C000CF93DF931F92CDB7DEB78C01FC018089C7
:1038D0009189A289B3899C01AD0175E05695479500
:1038E000379527957A95D1F7F22FFF70FF2E11F0BB
:1038F000611114C0BE016F5F7F4FC8010E94149315
:10390000813019F080E090E01AC0F8018089918937
:10391000A289B3894F96A11DB11D04C08096A11D37
:10392000B11DF801808B918BA28BB38BF80186813E
:1039300097818B96F0E2FF9E800D911D11240F90D0
:10394000DF91CF911F910F91FF900895FC0180812D
:10395000811114C080E2DF01982F1D929A95E9F73A
:1039600077836683DB0115969C91903119F0903234
:1039700029F480E4808381E08283089580E00895C3
:10398000CF93DF93EC010E94705E18821A82DF9160
:10399000CF910895DF92EF92FF920F931F93CF93F1
:1039A000DF93CDB7DEB7E3970FB6F894DEBF0FBE57
:1039B000CDBF7C018B015BAB4AABD22E19821A8240
:1039C0001B82FC018081882311F080E054C0FB0140
:1039D00080818077D1F3EAA9FBA980818F32D9F465
:1039E000EAA9FBA980818F3221F43196FBABEAABC7
:1039F000F7CFF80166817781811104C0C7010E9469
:103A0000A61C39C0CE0101960E94A61C8823E9F2AB
:103A10008E010F5F1F4FAE014E5C5F4FBE016F5DA9
:103A20007F4F8AA99BA90E943E5B882371F2EAA975
:103A3000FBA980818823B9F020E0AE014F5D5F4F84
:103A4000B801C7010E94E457882309F4BECF80E281
:103A5000F701DE01119601900D928A95E1F7C701F9
:103A60000E94C01CD5CF2D2DAE014F5D5F4FB80118
:103A7000C7010E94E457E3960FB6F894DEBF0FBE6D
:103A8000CDBFDF91CF911F910F91FF90EF90DF900D
:103A90000895242FE0918221F0918321309731F015
:103AA000E55DFD4FAB01BF010C94CA1C80E0089599
:103AB000CF93DF93EC01262F4C895D896E897F8936
:103AC0008E819F8180960E946155009761F02C81C4
:103AD0003D812F70332745E0220F331F4A95E1F7D0
:103AE000820F931F02C080E090E0DF91CF91089594
:103AF0003F924F925F926F927F928F929F92AF927E
:103B0000BF92CF92DF92EF92FF920F931F93CF93CA
:103B1000DF9300D000D0CDB7DEB75C01FC01448458
:103B200055846684778486809780F401C084D1842C
:103B3000E284F384C414D504E604F70458F5730151
:103B4000620110E012C04C145D046E047F0409F49D
:103B50006CC09E012F5F3F4FB701A601C4010E94B8
:103B60001E5687FD62C0811117C0FFEFCF1ADF0A12
:103B7000EF0AFF0AF401808D918DA28DB38D8C1513
:103B80009D05AE05BF05F8F611114FC0C084D18464
:103B9000E284F38411E0E9CF89819A81AB81BC8111
:103BA000892B8A2B8B2B09F7112329F0F401C0866E
:103BB000D186E286F3860FEF1FEF2FEF3FE0B701CC
:103BC000A601C4010E94AD55382E882371F141141D
:103BD00051046104710469F4F501C486D586E68652
:103BE000F7868281411451046104710461F4806498
:103BF00015C097018601B301A201C4010E94AD5511
:103C00008111EACF12C0FFEF4F1A5F0A6F0A7F0AD5
:103C10004C145D046E047F0419F08F7BF5018283E0
:103C2000F50182818068828301C0312C832D0F9041
:103C30000F900F900F90DF91CF911F910F91FF90F8
:103C4000EF90DF90CF90BF90AF909F908F907F903C
:103C50006F905F904F903F900895CF93DF93EC016A
:103C600080960E94EE52882331F088819981DF91FD
:103C7000CF910C94FF5380E0DF91CF910895EF92A4
:103C8000FF920F931F93CF93DF93EC017901898506
:103C9000882331F18E85833039F089E0440F551F38
:103CA000661F771F8A95D1F79A01AB0168E1CE01B3
:103CB0000E94A953882319F08DE08B870CC0A701BF
:103CC0006EEFCE010E947453182F882321F0CE018D
:103CD0000E9462530BC0CE010E94625310E006C0E6
:103CE00001E010E0CE010E943454182F812FDF91A3
:103CF000CF911F910F91FF90EF900895AF92BF92D7
:103D0000CF92DF92EF92FF920F931F93CF93DF93A7
:103D1000EC01888185FF02C000E065C0888999892F
:103D2000AA89BB8981159E4FAF41B105A8F7CE0185
:103D30000E94781D082F882379F3EE81FF814C853E
:103D40005D856E857F854250510961097109048046
:103D500004C0440F551F661F771F0A94D2F7C0880E
:103D6000D188E288F388C40ED51EE61EF71E25E032
:103D7000B701A601CF0180960E9461555C01892B95
:103D800059F280E092E0F5019C01119221503040FF
:103D9000E1F711E0EE81FF818281181780F495012F
:103DA000B701A601410F511D611D711D80819181D7
:103DB0000E943F1E882309F4AFCF1F5FEBCF20E0A6
:103DC00032E0048002C0220F331F0A94E2F7888990
:103DD0009989AA89BB89820F931FA11DB11D888B68
:103DE000998BAA8BBB8B802FDF91CF911F910F9165
:103DF000FF90EF90DF90CF90BF90AF900895CF925B
:103E0000DF92EF92FF926A017B01BC0186E693E1AB
:103E10000E94E56A60E286E693E10E94686A22E019
:103E2000B701A60186E693E10E94A08F86E693E1A2
:103E3000FF90EF90DF90CF900C94266ACF93DF93A2
:103E4000EB01BC0186E693E10E94E56A60E286E64A
:103E500093E10E94686ABE0186E693E1DF91CF910B
:103E60000C948E8FCF92DF92EF92FF92CF93DF93DD
:103E70006A017B01E901BC0186E693E10E94E56AE3
:103E800060E286E693E10E94686AB701A60186E6D1
:103E900093E10E94568F60E286E693E10E94686A91
:103EA000CE01DF91CF91FF90EF90DF90CF900C94F7
:103EB0005C6ECF92DF92EF92FF926A017B01BC01B0
:103EC00086E693E10E94E56A60E286E693E10E945D
:103ED000686AC701B601FF90EF90DF90CF900C9415
:103EE0007D904F925F926F927F92AF92BF92CF92EE
:103EF000DF92EF92FF920F931F93CF93DF935B01BB
:103F00006A01E901BC0186E693E10E94E56A60E28C
:103F100086E693E10E94686AB50186E693E10E9415
:103F2000888F60E286E693E10E94686AB60186E6C1
:103F300093E10E94888F60E286E693E10E94686ABE
:103F4000B801A701CE01DF91CF911F910F91FF9092
:103F5000EF90DF90CF90BF90AF907F906F905F9089
:103F60004F900C94591FFC0114869091EE1D809186
:103F7000EF1D981799F0E091EE1DF0E0E357F24E37
:103F800020818091EE1D90E0019661E570E00E9435
:103F9000ADBD8093EE1D822F90E008958FEF9FEFCF
:103FA00008959091EE1D8091EF1D981741F0E091DA
:103FB000EE1DF0E0E357F24E808190E008958FEF20
:103FC0009FEF0895FC01848581110EC08091EF1D43
:103FD0002091EE1D90E08F5A9F4F821B910961E561
:103FE00070E00E94ADBD08958FEF9FEF089540915E
:103FF000411D262F30E0240F311D21323105DCF424
:104000002091671D2430C9F4FC0180E090E0861700
:1040100058F43091411D2191DC01A15EB24EA30FF5
:10402000B11D2C930196F3CF8091411D680F6093D1
:10403000411D80E0089581E0089582E0089508958B
:1040400008950895E091161D8091151DE81730F42C
:10405000F0E0EB50F34E808190E008958FEF9FEFFA
:1040600008959091161D8091151D981750F4E92F11
:10407000F0E0EB50F34E208130E09F5F9093161DEF
:1040800002C02FEF3FEFC90108958091151D90E008
:104090002091161D821B91090895CF92DF92EF9215
:1040A000FF920F931F93CF93DF937C01CB018A0183
:1040B0002091F41C222389F0EB016B01C40ED51E64
:1040C000CC15DD0569F06991D701ED91FC91019066
:1040D000F081E02DC7010995F3CF642F0E94F71FEF
:1040E000C801DF91CF911F910F91FF90EF90DF906A
:1040F000CF900895CF93DF931F92CDB7DEB769833A
:104100002091F41C2223D1F02091171D203240F081
:1041100021E030E0FC013383228380E090E015C091
:104120008091181DE82FF0E0EC52F34E99819083B6
:104130008F5F8093181D8093171D05C061E0CE012D
:1041400001960E94F71F81E090E00F90DF91CF91E0
:104150000895EF92FF920F931F93CF93DF938C01FB
:10416000F62EF894E090B20061E0FC0185850E9493
:104170001D9D8F2D082E82958025082E869586956B
:1041800080258F5F86958170C82FF0E0DF2FD69550
:10419000DC2FCC27D795C795CF2980E8D9E0982F79
:1041A0009C2319F0D1508695FACF8091B2008E19D8
:1041B0008A31D8F3F090B200EE24E394ED1698F42F
:1041C000C0FF02C060E001C061E0F80185850E9487
:1041D0001D9D8091B2008F198A31D8F3F090B20002
:1041E000C695E394EBCF60E0F80185850E941D9DA4
:1041F00078948AE090E08D1B91099AE1899F802D47
:1042000011249091B2009F199817D8F3DF91CF91A4
:104210001F910F91FF90EF9008951092671D81E01C
:104220008093691D1092681D61E081E10E941D9DCF
:1042300061E080E10E941D9DE9EBF0E080818E7FCE
:10424000808380818D7F808380E28093B80085E4C5
:104250008093BC0008950F931F93CF93DF93EC01DD
:104260000E94FE9D688779878A879B87E881F9810C
:104270000484F585E02DCE01099597FF17C00E94B3
:10428000FE9D088519852A853B85DC01CB01801BB5
:10429000910BA20BB30B0C811D812E813F818017E6
:1042A0009107A207B30710F38FEF9FEFDF91CF9134
:1042B0001F910F910895CF93DF93EC016330710547
:1042C000A1F064307105B9F06230710519F560E054
:1042D0008D850E944C9D61E08D850E944C9D60E023
:1042E0008D85DF91CF910C941D9D60E08D850E949E
:1042F0004C9D61E014C060E08D850E941D9D60E0D2
:104300008D850E944C9D78948FEF8093E21DDF9104
:10431000CF91089560E08D850E941D9D60E08D85A0
:10432000DF91CF910C944C9DEF92FF920F931F93CE
:10433000CF93DF93EC017B0163E070E00E945B218F
:1043400061E08D850E941D9D84E190E60197F1F763
:1043500060E070E0CB010E94C49D60E08D850E940A
:104360001D9D84E692E40197F1F700E010E0D7018B
:1043700014968D919C9115970817190790F4ED915B
:10438000FC91309729F41092D21CE2EDFCE102C0BE
:10439000E00FF11F6081CE010E94A9200F5F1F4F27
:1043A000E6CF64E070E0CE01DF91CF911F910F91D5
:1043B000FF90EF900C945B21CF93DF932091D01C62
:1043C0003091D11C8217930749F0EC0162E070E054
:1043D0000E945B21D093D11CC093D01C8091B0006F
:1043E0008093CF1C8091B1008093CE1C1092B000BE
:1043F00086E08093B100DF91CF91089560E070E096
:104400000E945B211092D11C1092D01C8091CF1C75
:104410008093B0008091CE1C8093B10008951F93CB
:10442000CF93DF93EC01162F63E070E00E945B21D5
:10443000612FCE010E94A92064E070E0CE010E94AD
:104440005B2181E090E0DF91CF911F910895ECEB2B
:10445000F0E080818A7B808360E081E10E941D9D85
:1044600060E080E10C941D9DCF93DF9391E09093E9
:104470001E1D882361F0C091B800D091BA000E943F
:1044800027220E940D21D093BA00C093B800DF917B
:10449000CF91089585ED8093BC0080911A1D909175
:1044A0001B1DA0911C1DB0911D1D0796A11DB11DC6
:1044B00023E0B695A795979587952A95D1F72091F2
:1044C000BC0024FF1CC040911A1D50911B1D60911F
:1044D0001C1D70911D1D452B462B472B81F300970A
:1044E000A105B10541F02AE12A95F1F700C0019735
:1044F000A109B109E4CF8091191D0C9434221092C6
:10450000671D08951F920F920FB60F9211240BB6DC
:104510000F922F933F934F935F936F937F938F935C
:104520009F93AF93BF93EF93FF938091B900887FE0
:10453000803609F49CC068F5883209F45BC090F4B9
:10454000803109F454C038F4882309F4F6C0883067
:1045500009F44DC0F6C0883109F44CC0803209F42A
:104560005DC0EFC0803409F468C048F4803309F4BA
:1045700055C0883309F0E5C08093661DD8C08035EA
:1045800009F44FC0883509F45DC0883409F0D9C0FA
:10459000D6C0883909F4C7C0A8F4883709F467C0C1
:1045A00038F4883609F463C0803709F460C0C9C0A4
:1045B000883809F4B8C0803909F45FC0803809F040
:1045C000C0C05BC0803B09F486C038F4803A09F46F
:1045D00066C0883A09F47FC0B4C0803C09F4A7C023
:1045E000883C09F4A4C0883B09F48AC0AAC0809121
:1045F0008C1D10C090918B1D80918A1D981770F5AD
:10460000E0918B1D81E08E0F80938B1DF0E0E659C9
:10461000F24E80818093BB0085EC86C08093661D3E
:104620008EC0E0918B1D81E08E0F80938B1D809159
:10463000BB00F0E0E659F24E808390918B1D809193
:104640008A1D6EC0E0918B1D81E08E0F80938B1DC3
:104650008091BB00F0E0E659F24E80838091691DA5
:1046600081116DC081E08093681D84EA61C083E0A0
:104670008093671D1092651DCFCF8091651D80329C
:1046800008F051C0E091651D81E08E0F8093651D9B
:104690008091BB00F0E0EB5BF24E8083BDCF85ECF8
:1046A0008093BC001092671D8091651D803230F4AC
:1046B000E091651DF0E0EB5BF24E10826091651DAC
:1046C00070E0E091431DF091441D85E49DE1099562
:1046D0001092651D36C084E08093671D1092421DC4
:1046E0001092411DE0913F1DF091401D0995809170
:1046F000411D811105C081E08093411D10921F1D55
:10470000E091421D81E08E0F8093421DF0E0E15E5A
:10471000F24E80818093BB009091421D8091411D9B
:10472000981708F479CF85E88093BC000AC085EC1F
:104730008093BC001092671D04C01092661D0E94F9
:104740004A22FF91EF91BF91AF919F918F917F91FD
:104750006F915F914F913F912F910F900BBE0F90F2
:104760000FBE0F901F9018958F929F92AF92BF929D
:10477000CF92DF92EF92FF920F931F93CF93DF932D
:104780001091171D113208F0C2C0D091D31C0E94A5
:104790009F9D6B017C01C091671DCC2311F180911D
:1047A0001A1D90911B1DA0911C1DB0911D1D892BE0
:1047B0008A2B8B2B81F30E949F9D80901A1D9090D5
:1047C0001B1DA0901C1DB0901D1DDC01CB018C1980
:1047D0009D09AE09BF0988169906AA06BB06D8F638
:1047E00082C082E08093671D81E08093691D8FEF16
:1047F0008093661D10928B1D10938A1DA4EDBCE161
:10480000EAE6FDE180E0181721F09D9191938F5F1A
:10481000FACF10928C1D90918C1D8D2F880F892BB3
:1048200080938C1D8091681D813089F51092681DE0
:104830000E949F9D6B017C0180918C1D8093BB0029
:1048400080911A1D90911B1DA0911C1DB0911D1DE2
:10485000892B8A2B8B2BA9F00E949F9D00911A1DFA
:1048600010911B1D20911C1D30911D1DDC01CB01E1
:104870008C199D09AE09BF09081719072A073B07BC
:1048800090F18091BC0083FDD7CF85EC01C085EE0F
:104890008093BC000E949F9D6B017C018091671DED
:1048A000823039F580911A1D90911B1DA0911C1D1D
:1048B000B0911D1D892B8A2B8B2B81F30E949F9D0C
:1048C00000911A1D10911B1D20911C1D30911D1D62
:1048D000DC01CB018C199D09AE09BF090817190726
:1048E0002A073B07D8F68091191D0E943422C5E0A3
:1048F00013C08091661D8F3F79F08091661D8032D4
:1049000041F08091661D803331F0C4E005C0C1E004
:1049100003C0C2E001C0C3E01092181D1092171D21
:104920001092F41C8C2FDF91CF911F910F91FF906B
:10493000EF90DF90CF90BF90AF909F908F900895B1
:1049400081E08093F41C6093D31C1092181D109288
:10495000171D08958F929F92AF92BF92CF92DF92D0
:10496000EF92FF920F931F93CF93DF93F62ED42FE6
:104970000E949F9D4B015C01C091671DCC2339F1C2
:1049800080911A1D90911B1DA0911C1DB0911D1DA1
:10499000892B8A2B8B2B81F30E949F9D00911A1DDE
:1049A00010911B1D20911C1D30911D1DDC01CB01A0
:1049B00088199909AA09BB09081719072A073B078B
:1049C000D8F68091191D0E943422C0E090C0D132E7
:1049D00008F0D0E281E08093671D8093691D9FEF0E
:1049E0009093661D10928B1D9D0F90938A1D80934E
:1049F0008C1D80918C1D6F2D660F682B60938C1D14
:104A00008091681D813089F51092681D0E949F9DDC
:104A10006B017C0180918C1D8093BB0080911A1DDD
:104A200090911B1DA0911C1DB0911D1D892B8A2BDF
:104A30008B2BA9F00E949F9D80901A1D90901B1DAA
:104A4000A0901C1DB0901D1DDC01CB018C199D098F
:104A5000AE09BF0988169906AA06BB0690F1809197
:104A6000BC0083FDD7CF85EC01C085EE8093BC00F0
:104A70000E949F9D6B017C018091671D813031F503
:104A800080911A1D90911B1DA0911C1DB0911D1DA0
:104A9000892B8A2B8B2B81F30E949F9D80901A1D5E
:104AA00090901B1DA0901C1DB0901D1DDC01CB0122
:104AB0008C199D09AE09BF0988169906AA06BB067E
:104AC000D8F68091191D0E94342211C080918B1D4F
:104AD0008D1710F4D0918B1DEAE6FDE1A5EFBCE146
:104AE000C0E0CD1721F081918D93CF5FFACF109266
:104AF000161DC093151D8C2FDF91CF911F910F9123
:104B0000FF90EF90DF90CF90BF90AF909F908F90ED
:104B100008951092161D1092151D1092181D1092D6
:104B2000171D0E940D218FE190E29093401D80930C
:104B30003F1D80E290E29093441D8093431D0895B1
:104B4000CF93DF93282F30E0F901EC58F54F849193
:104B5000F901EB53FD4ED491F901EB55FD4EC49193
:104B6000CC2391F081110E94EE9CEC2FF0E0EE0F2F
:104B7000FF1FE556FD4EA591B491EC91ED2381E028
:104B800090E021F480E002C080E090E0DF91CF91DE
:104B90000895DF92EF92FF920F931F93CF93DF93CD
:104BA000C091D01CD091D11C209709F485C01091E0
:104BB000B2008D850E94A025082F8091E21D8F3FB5
:104BC00059F4002309F478C01092E21D81E080932B
:104BD000DE1D1092DF1D6AC09091E01D2AE0210FBA
:104BE000291B97E2299F90011124232F3327269513
:104BF000269549E0481BE42FF0E0E217F30708F0A0
:104C0000422F582F540F5093E21D6091DF1D809169
:104C1000DE1D013071F4962F4150682F660F4F3F13
:104C200019F0982B862FF8CF9093DF1D6093DE1D2F
:104C30000AC0415001C0880F4A95EAF78093DE1DF3
:104C4000862B8093DF1D583088F14091DF1D4F7710
:104C50004093DF1D8091EF1DD090EE1D90E00196F6
:104C600051E5E52EF12CB7010E94ADBD6D2D70E030
:104C70008617970719F481E08C870FC0A091EF1D6C
:104C8000B0E0A357B24E4C938091EF1D90E0019697
:104C9000B7010E94ADBD8093EF1D002321F0E21704
:104CA000F30708F491CF8FEF8093E21D812F90E0FE
:104CB0009093E11D8093E01DDF91CF911F910F91A3
:104CC000FF90EF90DF900895CF92DF92EF92FF92E6
:104CD0000F931F93CF93DF93CDB7DEB762970FB6D5
:104CE000F894DEBF0FBECDBF7C016C0189E5C80E14
:104CF000D11CC6010E94A66060E378E0CE010D964B
:104D00000E942B69E9E6EE0EF11CF7016081CE01ED
:104D10000D960E94B46763EC78E0CE010D960E9478
:104D2000C76705E0BE01635F7F4FC6010E94942103
:104D30006EE170E080E090E00E94C49D4AE0B60120
:104D4000CE0107960E94B569CE0107960E9429669A
:104D5000C6010E94A660F7016081CE0101960E9403
:104D6000D268BE016F5F7F4FCE0107960E94D86662
:104D7000182FCE0101960E947168111122C0F7010F
:104D80006081CE0101960E94D2684D815E818B8543
:104D90009C858417950778F08F819885009759F046
:104DA00069817A816115710531F00E940AC111E0B3
:104DB000892B09F010E0CE0101960E9471681170F4
:104DC00001C011E0CE0107960E947168111103C065
:104DD000015009F0A7CFCE010D960E947168812F76
:104DE00062960FB6F894DEBF0FBECDBFDF91CF91B4
:104DF0001F910F91FF90EF90DF90CF9008950C944A
:104E0000AAB40C94AAB4AF92BF92CF92DF92EF9261
:104E1000FF920F931F93CF93DF9300D0CDB7DEB7F0
:104E20008C015C0189E5A80EB11CF501E080F180E0
:104E30006FE977E0C7010E94EAC0892B39F064EA84
:104E400077E0C7010E94EAC0892BA9F4F801E55A6E
:104E5000FF4F80810E94889DBC01990F880B990BA0
:104E60000E940EBC2DE332E64BE95BE30E946DBC71
:104E70006B017C0107C0C12C8CE3D82E8CE1E82E9D
:104E800086ECF82EF501A080B18069EA77E0C501D3
:104E90000E94EAC0892B39F067ED75E0C5010E94D8
:104EA000EAC0892BA1F4F801E55AFF4F80810E94E6
:104EB000889DBC01990F880B990B0E940EBC2FE0B6
:104EC00037E648E75CE30E946DBC6B017C01A701FB
:104ED000960160E0C8010E94A037809192219091D4
:104EE0009321009711F486E991E2BE016F5F7F4F35
:104EF000681B790B072E000C880B990B0E940EBCC7
:104F00009B01AC0161E0C8010E94A037F801E45A9E
:104F1000FF4F608171816F5F7F4F71836083072EC8
:104F2000000C880B990B0E940EBC9B01AC0162E047
:104F3000C8010E94A037F801EC5BFF4F108211827C
:104F400012821382349680818F79808381E00F9062
:104F50000F90DF91CF911F910F91FF90EF90DF9015
:104F6000CF90BF90AF900895CF92DF92EF92FF92D3
:104F70001F93CF93DF93EC0181E10E94FF49182F2B
:104F800082E10E94FF49682F70E086E07595679581
:104F90008A95E1F7072E000C880B990B17FF19C0B3
:104FA0000E940EBC20E030E040E85EE30E946DBC51
:104FB0006B017C01612F619570E080E090E00E94C0
:104FC0000EBC9B01AC01C701B6010E94FABD90580E
:104FD00016C00E940EBC20E030E040E85EE30E9474
:104FE0006DBC6B017C01612F70E080E090E00E945D
:104FF0000EBC9B01AC01C701B6010E94FABD9B012A
:10500000AC0160E0CE010E94A037FE01EC5BFF4FD7
:105010001082118212821382C85BDF4F88818F79E0
:10502000888381E0DF91CF911F91FF90EF90DF9017
:10503000CF900895CF930E946634C82F882369F0DB
:105040008EE00E94FF49682F60628EE00E94E64970
:105050008EE00E94FF4985FDFBCF8C2FCF910895F4
:10506000CF93DF93EC010E945F5FCE01DF91CF9180
:105070000C943A3508950895CF93DF93EB01BC016A
:1050800086E693E10E94E56A60E286E693E10E948B
:10509000686ABE0186E693E1DF91CF910C94428F5E
:1050A000BC0186E693E10C948E8FCF93DF93EC01E5
:1050B00066EC75E00E942B69CE01DF91CF910895D7
:1050C0009F92AF92BF92CF92DF92EF92FF920F9397
:1050D0001F93CF93DF93CDB7DEB768970FB6F894E1
:1050E000DEBF0FBECDBF8C010E943A35982EC8019D
:1050F0000E94AD5FC82E811108C0D801ED91FC91CE
:105100000684F785E02DC8010995C8010E94603723
:105110007801B9E5EB0EF11CC7010E94DC2186E99C
:1051200090E0A0E0B0E0F70184839583A683B78385
:1051300081EF98ED9787868741E069EC75E2D801A9
:1051400092968C910E946D16A090D01CB090D11CAC
:10515000EA14FB0419F0C7010E94DC21C7010E9478
:10516000A660C8010E946426D82E882309F4D6C000
:1051700060E378E0CE0143960E942B69F801E7597D
:10518000FF4F6081CE0143960E94B4676EEA77E0DC
:10519000CE0143960E94C767BE016D5E7F4FC70177
:1051A0000E9494216EE170E080E090E00E94C49D36
:1051B0004AE0B701CE010D960E94B569CE010D9669
:1051C0000E942966C7010E94A660EA14FB0419F038
:1051D000C7010E94FE2189899A89029708F495C027
:1051E00021E030E040E050E0BE01635F7F4FCE0140
:1051F00007960E94406923E030E041E050E0BE01A4
:10520000635F7F4FCE0101960E94406989819A8138
:10521000009711F00E946EB7CE0101960E9471684E
:105220002BE030E043E050E0BE01635F7F4FCE01F2
:1052300001960E944069BE016F5F7F4F5801BAE638
:10524000AB0EB11CC5010E942367CE0101960E94DE
:105250007168C5010E94296621E130E04BE050E011
:10526000BE01635F7F4FCE0101960E944069BE017F
:105270006F5F7F4F5801E0E7AE0EB11CC5010E9481
:105280002367CE0101960E947168C5010E942966BC
:1052900024E130E041E150E0BE01635F7F4FCE0189
:1052A00001960E944069BE016F5F7F4F5801F6E78B
:1052B000AF0EB11CC5010E942367CE0101960E946A
:1052C0007168C5010E94296629893A8944E150E044
:1052D000BE01635F7F4FCE0101960E944069BE010F
:1052E0006F5F7F4F58018CE7A80EB11CC5010E946B
:1052F0002367CE0101960E947168C5010E9429664C
:10530000CE0107960E94716801C0D12CCE010D9686
:105310000E947168CE0143960E947168D920C7012E
:105320000E94A660C7010E94FE21C11008C0D801DA
:10533000ED91FC910088F189E02DC8010995D1100B
:1053400007C0F801E85BFF4F80818E7F8068808313
:105350008D2D68960FB6F894DEBF0FBECDBFDF91DE
:10536000CF911F910F91FF90EF90DF90CF90BF9062
:10537000AF909F900895CF93DF93EC018DE492E07E
:1053800099838883CE0184589F4F0E947168CE0113
:105390008A589F4F0E947168CE0180599F4F0E948A
:1053A0007168CE0186599F4F0E947168C75ADF4FBE
:1053B0008BE392E09983888360E070E0CE010E94E5
:1053C0005B218091D01C9091D11CC817D90721F482
:1053D0001092D11C1092D01C8091CF1C8093B000F1
:1053E0008091CE1C8093B100DF91CF910895CF932F
:1053F000DF93EC010E94BB29CE01DF91CF910C9489
:10540000AAB4CF93DF93EC0161E17BE00E94EA68EC
:10541000CE01DF91CF9108952F923F924F925F92EC
:105420006F927F928F929F92AF92BF92CF92DF92B4
:10543000EF92FF920F931F93CF93DF93CDB7DEB719
:10544000AD970FB6F894DEBF0FBECDBF8C016B01D8
:105450001A821982FE01339683E2DF011D928A953A
:10546000E9F7E0EFFDE101900020E9F78FED90E230
:105470008E1B9F0B8C3B924020F460E0C6010E9483
:105480005C60D601ED91FC910088F189E02D40E54A
:1054900050E061EB77E0C6010995892B09F447C21A
:1054A00064EC77E080EF9DE10E94F3C06AEC77E066
:1054B00080EF9DE10E94D4C06CED77E080EF9DE12C
:1054C0000E94D4C066EE77E080EF9DE10E94D4C0D8
:1054D00061EB77E080EF9DE10E94D4C06FEE77E052
:1054E00080EF9DE10E94D4C0F8016185728580EF54
:1054F0009DE10E94D4C069EF77E080EF9DE10E94BA
:10550000D4C0F12C93E6A92EB12CD80112966D913E
:105510007C911397DB011D96ED91FC911E97928172
:10552000F8018085F91640F5F7E2AF0EB11C811144
:1055300021C04F2DCE0186960E94507F8AA59BA543
:10554000A80EB91ECE0186960E9471682F2D30E0FC
:105550002F5F3F4FD8011296ED91FC911397058470
:10556000F685E02D828190E02817390719F0BFEF0A
:10557000AB1ABB0AF394C9CF882339F0FB01E4537B
:10558000FD4F80819181A80EB91E4AE0FE0131963F
:105590007F01BF01C50101960E94E4B7B70180EF0A
:1055A0009DE10E94D4C06CE078E080EF9DE10E9414
:1055B000D4C061E378E080EF9DE10E94D4C0D801BF
:1055C0001296ED91FC9113976385748580EF9DE1B0
:1055D0000E94D4C0F801808567E478E0882309F44C
:1055E000F0C080EF9DE10E94D4C0D8011296ED91E9
:1055F000FC911397EC53FD4F40815181628173817F
:10560000CE0186960E940B8145E250E0B701CE01A3
:1056100086960E94BD49CE0186960E947168B701A8
:1056200080EF9DE10E94D4C0E0EFFDE1DF010D902D
:105630000020E9F7119782E28C9301900020E9F7AE
:1056400031978CE28083912CB0EF2B2EBDE13B2E65
:1056500082E2882ED8011296ED91FC911397058471
:10566000F685E02D8281981608F072C1F101019053
:105670000020E9F7319780821296ED91FC91139703
:105680000584F685E02DA92CB12CC501880F991F42
:105690000190F081E02DE80FF91F0190F081E02DDD
:1056A00061897289CE0186960E942B6945E250E09D
:1056B000B701CE0186960E94BD49CE0186960E9412
:1056C0007168B70180EF9DE10E94D4C0F1010190A3
:1056D0000020E9F731978082F10101900020E9F77D
:1056E0003197BAE3B083F80182819381FC01E653DC
:1056F000FD4F4081518132976081718180EF9DE142
:105700000E94FAC0FFEFAF1ABF0AD8011296ED91BE
:10571000FC9113970584F685E02D828190E0F101DC
:1057200001900020E9F73197A816B90619F0BCE2FC
:10573000B08302C02DE72083D8011296AD90BC90B3
:105740001397F501E853FD4FFDA7ECA7408051806A
:105750004CE4B201C5010E94A77B01963C01ACA5B7
:10576000BDA58D939C93F501E653FD4F5F0148164F
:10577000590651F41182108244E95AE0B20186E9D7
:105780009AE00E94097CE4C06CE270E00E94DFC0F5
:10579000F30101900020E9F73197E619F70909F4C0
:1057A000D4C0009729F43197D501ED93FC93CBC079
:1057B00086199709F50191838083892B09F0C3C06D
:1057C000C7C080EF9DE10E94D4C04091E31D50917D
:1057D000E41D6091E51D7091E61DCE0186960E9444
:1057E0000B8145E250E0B701CE0186960E94BD498B
:1057F000CE0186960E947168B70180EF9DE10E94FC
:10580000D4C0E0EFFDE1DF010D900020E9F7119732
:1058100082E28C9301900020E9F731978CE280833B
:10582000B12C30EF832E3DE1932E42E2A42E5AE3B9
:10583000552E6DE7462E7CE2372ED8011296ED915B
:10584000FC9113970584F685E02D8281B81608F047
:105850007FC0F40101900020E9F73197A0821296F1
:10586000ED91FC9113970584F685E02D6B2C712C3E
:10587000C301880F991F0190F081E02DE80FF91FF7
:105880000190F081E02D61897289CE0186960E9497
:105890002B6945E250E0B701CE0186960E94BD49D2
:1058A000CE0186960E947168B70180EF9DE10E944B
:1058B000D4C0F40101900020E9F73197A082F401EF
:1058C00001900020E9F731975082F80162817381DD
:1058D0004B2DCE0186960E94507F45E250E0B701E5
:1058E000CE0186960E94BD49CE0186960E947168BF
:1058F000B70180EF9DE10E94D4C0FFEF6F1A7F0ACD
:10590000D8011296ED91FC9113970584F685E02D50
:10591000828190E0F40101900020E9F73197681648
:10592000790611F0308201C04082B39486CF81EDB8
:105930009AE00E945C6E412C512C320185E8E82EE1
:1059400083E0F82E71C0939485CED5011D921C92F0
:1059500061E0C6010E945C600E94FE9D4B015C01FB
:10596000412C512C3201212C312CF8018385948556
:10597000A0E0B0E0481659066A067B06E0F4FCE0B9
:105980002F163104C0F46AE070E080E090E00E94DD
:10599000C49DD601ED91FC910084F185E02DC601F6
:1059A00009951C010E94FE9D2B013C0148185908D5
:1059B0006A087B08DACF85E2F70111928A95E9F748
:1059C0005701E12CF12CC6010E94856997FD0AC0A0
:1059D000D5018D935D01BFEFEB1AFB0AECE0EE16EB
:1059E000F10489F764E670E080E090E00E94C49DD5
:1059F000D601ED91FC910488F589E02DC601099549
:105A0000BCE0EB16F10429F098EFE92EFF24F394A3
:105A10000BC08A858EA38B858FA38C8588A7CE012A
:105A200086960E9472B77C011DA2F8010385148539
:105A30006DEB7AE086E693E10E94E56A60E286E635
:105A400093E10E94686AB70186E693E10E94888F1D
:105A500060E286E693E10E94686A65EB7AE086E69A
:105A600093E10E94E56A60E286E693E10E94686A3B
:105A70002AE030E0B301A20186E693E10E943C6A8D
:105A800060E286E693E10E94686AB8018AEA9AE0D9
:105A90000E943C28C701AD960FB6F894DEBF0FBE3A
:105AA000CDBFDF91CF911F910F91FF90EF90DF90CD
:105AB000CF90BF90AF909F908F907F906F905F90AE
:105AC0004F903F902F900895CF93DF93EC01FB010F
:105AD000828193819B838A8387E593E0998388837E
