:100000000C94CB0B0C944A120C941F120C94F41108
:100010000C947F110C940A110C9495100C942010E0
:100020000C941D3A0C94F50B0C94F50B0C94F50BF9
:100030000C941E270C9495270C94D3260C94F50B46
:100040000C94F50B0C94F50B0C94A2740C94F50B1A
:100050000C940E680C94E4670C94F50B0C94F50B5F
:100060000C94F50B0C94F50B0C9451420C94F50B7D
:100070000C94AE670C9484670C94F50B0C94F50B00
:100080000C94F50B0C94F50B0C94F50BEE73F173CB
:10009000E473E87308740874F573F973FF730374F9
:1000A00008000000BE922449123EABAAAA2ABECD87
:1000B000CCCC4C3E00000080BEABAAAAAA3E0000F9
:1000C0000000BF000000803F0000000000084178F1
:1000D000D3BB4387D1133D190E3CC3BD4282AD2B28
:1000E0003E68EC8276BED98FE1A93E4C80EFFFBE20
:1000F00001C4FF7F3F000000000000407A10F35A67
:1001000000A0724E18090010A5D4E80000E8764857
:10011000170000E40B54020000CA9A3B000000E103
:10012000F505000080969800000040420F00000096
:10013000A08601000000102700000000E803000076
:1001400000006400000000000A0000000000010040
:10015000000000002C76D888DC674F0823DFC1DF61
:10016000AE59E1B1B796E5E3E453C63AE651997664
:1001700096E8E6C28426EB898C9B62ED407C6FFC9E
:10018000EFBC9C9F40F2BAA56FA5F490055A2AF7E0
:100190005C936B6CF9676DC11BFCE0E40D47FEF5E9
:1001A00020E6B500D0ED902E030094357705008051
:1001B000841E080000204E0A000000C80C333333B0
:1001C000330F986E12831141EF8D2114893BE65550
:1001D00016CFFEE6DB18D1844B381BF77C1D901D33
:1001E000A4BBE424203284725E228100C9F124EC95
:1001F000A1E53D270A4C6F676765723A7365744CD9
:100200006F676765724964206572726F72202D2076
:100210006578706563746564204E554C4C2070742D
:1002200072000A0D2020204C6F676765723A736573
:10023000744C6F67676572496420746F6F206C6FD0
:100240006E673A205472696D6D656420746F20008A
:100250002020204C6F633D006261747465727920C8
:10026000747970653D006D696E757465732C2054EA
:100270007A3D005D0A0D2020206C6F6767696E670C
:1002800020696E74657276616C3D0046726F6D20F8
:10029000656570726F6D20636F6D6D6F6E3A204C87
:1002A0006F676765722046696C65204E616D655B9E
:1002B00000466163746F72792064656661756C7461
:1002C000006D734C6F673031005D005D20736E5BB5
:1002D000005D20207265765B0046726F6D2065655B
:1002E00070726F6D20626F6F74204E616D655B0080
:1002F000302E3562004D313233343536373839617E
:100300006263646566676800656E7669726F44490A
:1003100059206D6179666C7900506172736520694E
:100320006E693B204E6F2066696C652000436F6DDF
:10033000706C657465642E004572726F72206F6E0A
:10034000206C696E65203A00506172736520696E99
:10035000693B200056005620474F4F443D00562031
:100360004D454449554D3D0056204C4F573D0020CA
:100370005468726573686F6C6473205553454142CD
:100380004C453D0042617474657279205479706502
:100390003D007365636F6E6473206F66204E495332
:1003A000542E00496E7465726E616C20436C6F63ED
:1003B0006B2077697468696E2000496E7465726E8F
:1003C000616C20436C6F636B207365742000426125
:1003D000642074696D657374616D702C206E6F7428
:1003E0002073657474696E6720636C6F636B2E0095
:1003F00050757474696E67206D6F64656D20746FDD
:1004000020736C65657000436F756C64206E6F744B
:100410002077616B65206D6F64656D20666F72205B
:10042000636C6F636B2073796E632E00436F756C22
:1004300064206E6F7420636F6E6E65637420746FDA
:1004400020696E7465726E657420666F7220636CCD
:100450006F636B2073796E632E0054686973206D2F
:1004600061792074616B6520757020746F207477DA
:100470006F206D696E757465732100417474656DCC
:100480007074696E6720746F20636F6E6E6563743D
:1004900020746F2074686520696E7465726E65746F
:1004A00020616E642073796E6368726F6E697A651D
:1004B000205254432077697468204E4953540044B5
:1004C0006174612077696C6C206265207361766568
:1004D0006420617300556E61626C6520746F2063E7
:1004E000726561746520612066696C6520746F2097
:1004F00073617665206461746120746F21005365B7
:100500007474696E672075702066696C65206F6E03
:1005100020534420636172640053657474696E678C
:100520002075702073656E736F72732E2E2E0054BB
:10053000696D65200053796E632077697468204E79
:10054000495354206F7665722057694669206E655D
:1005500074776F726B20000A0A2D2D2D70617273F3
:1005600065496E6920636F6D706C65746520002D40
:100570002D2D7061727365496E692000476F6F643D
:1005800020426174563D002D2D2D2D57616B6575F0
:1005900070003A20426174746572794C6F772D5304
:1005A0006C65657036307365632C20426174563D0E
:1005B0000054696E7947534D204C696272617279BB
:1005C0002076657273696F6E20004D6F64756C6183
:1005D0007253656E736F72732076657273696F6E96
:1005E00020005377204E616D653A20000A2D2D2D95
:1005F000426F6F742E205377204275696C643A20E5
:10060000002D2D2D4E657752656164696E6720431C
:10061000414E43454C4C45442D2D4C626174745FF2
:10062000563D00207374617475733D00436F6C6CAC
:100630006563742072656164696E67732026206C3F
:100640006F672E2062617474657279563D00455261
:10065000524F52004C4100544D00544D3000544D07
:1006600000414D3000465200414D310041503000B4
:10067000414D30004149002B2B2B00414300575284
:1006800000434E004853004853000A4C6F676765AB
:10069000724D6F64656D3A3A73657457694669497E
:1006A00064206572726F72202D6E6F2062756666AF
:1006B000657220000A4C6F676765724D6F64656DE7
:1006C0003A3A736574576946694964206572726F76
:1006D00072202D206578706563746564204E554CDA
:1006E0004C20707472000A0D2020204C6F676765E3
:1006F000724D6F64656D3A736574576946694964F4
:1007000020746F6F206C6F6E673A205472696D6D44
:10071000656420746F20000A4C6F676765724D6FC7
:1007200064656D3A3A736574576946695077642019
:100730006572726F72202D6E6F20627566666572CB
:1007400020000A4C6F676765724D6F64656D3A3AB9
:1007500073657457694669507764206572726F7269
:10076000202D206578706563746564204E554C4C6F
:1007700020707472000A0D2020204C6F676765722C
:100780004D6F64656D3A7365745769466950776457
:1007900020746F6F206C6F6E673A205472696D6DB4
:1007A000656420746F20003D005D20004E6F742052
:1007B000737570706F72746564205B0041435449B7
:1007C0004F4E2057726974652061626F7274656460
:1007D0002E20696E737472756374696F6E202700C2
:1007E000414354494F4E20434F5059206E6F74205F
:1007F000737570706F72746564207965743A004324
:100800004F505900454550524F4D205772697465FD
:100810002066696E697368656400414354494F4EB0
:100820002057726974652061707020454550524FA1
:100830004D20737461727465643A0057524954458F
:1008400000414354494F4E00555345520020746FA8
:100850002000424F4F54207462642000454550529E
:100860004F4D2057726974652061626F72746564C0
:100870002E20696E737472756374696F6E20270021
:10088000454550524F4D2057726974652066696E18
:10089000697368656400454550524F4D2057726931
:1008A000746520737461727465643A00594553002D
:1008B000454550524F4D5F575249544500426F6174
:1008C0007264205265763A00424F4152445F52456D
:1008D0005600426F6172642053657269616C4E7597
:1008E0006D203A00424F4152445F534E00426F61C7
:1008F0007264204E616D653A00424F4152445F4E32
:10090000414D4500424F4F540020746F20004E452A
:1009100054574F524B207462642000434F4D4D4F4B
:100920004E205365742053454E445F4F4646534511
:10093000545F4D494E206572726F723B2028726180
:100940006E67652030203A2033302920726561645B
:100950003A00434F4D4D4F4E205365742053454E42
:10096000445F4F46465345545F4D494E3A2000532D
:10097000454E445F4F46465345545F4D494E0043F4
:100980004F4D4D4F4E2053657420434F4C4C4543C3
:10099000545F52454144494E4753206572726F720D
:1009A0003B202872616E67652030203A2033302961
:1009B00020726561643A00434F4D4D4F4E205365A0
:1009C0007420434F4C4C4543545F52454144494E7B
:1009D00047533A2000434F4C4C4543545F524541E6
:1009E00044494E475300434F4D4D4F4E205365747D
:1009F00020504F53545F4D41585F4E554D20657206
:100A0000726F723B202872616E67652030203A2039
:100A100035302920726561643A00434F4D4D4F4E89
:100A20002053657420504F53545F4D41585F4E55CD
:100A30004D3A2000504F53545F4D41585F4E554D35
:100A400000434F4D4D4F4E205365742054494D4542
:100A5000525F504F53545F504143455F4D532065A3
:100A600072726F723B202872616E67652030203A87
:100A700020353030302920726561643A00434F4D93
:100A80004D4F4E205365742054494D45525F504F91
:100A900053545F504143455F4D533A200054494DF4
:100AA00045525F504F53545F504143455F4D530093
:100AB000434F4D4D4F4E205365742054494D455280
:100AC0005F504F53545F544F55545F4D53206572E0
:100AD000726F723B202872616E6765203130302062
:100AE0003A2033303030302920726561643A004357
:100AF0004F4D4D4F4E205365742054494D45525F24
:100B0000504F53545F544F55545F4D53203A20007B
:100B100054494D45525F504F53545F544F55545FA5
:100B20004D530027206E6F772027004E4554574FB6
:100B3000524B20576946695077643A207761732099
:100B40002700576946695077640027206E6F772029
:100B500027004E4554574F524B2057694669496408
:100B60003A20776173202700576946694964004E2F
:100B70004554574F524B0020746F200053454E533D
:100B80004F525320746264200053454E534F5253CA
:100B90000020746F2000434F4D4D4F4E207462640F
:100BA000200047454F47524150484943414C5F4917
:100BB000443A0047454F47524150484943414C5FF2
:100BC000494400434F4D4D4F4E20536574205469A6
:100BD0006D655A6F6E65206572726F723B20287268
:100BE000616E6765202D3132203A202B3132292069
:100BF000726561643A00434F4D4D4F4E205365740A
:100C00002054696D655A6F6E653A200054494D4510
:100C10005F5A4F4E450020536574204C69496F6EF2
:100C20002054797065206572726F723B2028726162
:100C30006E676520302D322920726561643A004369
:100C40004F4D4D4F4E204C69496F6E205479706561
:100C50003A20004C49494F4E5F54595045002053AB
:100C60006574204C69496F6E2054797065206572F7
:100C7000726F723B202872616E676520302D3229B9
:100C800020726561643A00434F4D4D4F4E204261E2
:100C9000747465727920547970653A200042415429
:100CA000544552595F54595045002920776974685A
:100CB00020726561643A002053657420696E746522
:100CC0007276616C206572726F72202872616E6735
:100CD000653A20312D00286D696E292066726F6D8E
:100CE0002064656661756C742000434F4D4D4F4E16
:100CF000204C4F4747494E475F494E544552564155
:100D00004C5F4D494E555445532073657420746FA4
:100D10003A2000205573696E67204D61782E20526D
:100D2000656164696E672069676E6F726564200033
:100D3000434F4D4D4F4E204C4F4747494E475F491B
:100D40004E54455256414C5F4D494E5554455320E3
:100D50006D757374206265206C65737320746861AF
:100D60006E203A20004C4F4747494E475F494E544A
:100D7000455256414C5F4D494E5554455300434FE3
:100D80004D4D4F4E204C6F67676572496420536527
:100D9000743A20004C4F474745525F494400434F47
:100DA0004D4D4F4E007D2055554944206E6F7420A7
:100DB000737570706F72746564007D206F75742038
:100DC0006F662072616E67652E204E6F7475736555
:100DD00064007D007D207265706C6163696E6720C0
:100DE0007B00696E646578007D206D6174636820A6
:100DF00020262061646465642E003D7B000055550B
:100E00004944730050524F5649444552206E6F7406
:100E100020737570706F727465643A0050524F564B
:100E2000494445522053657474696E672053616D5F
:100E3000706C696E67466561747572653A2000531F
:100E4000414D504C494E475F46454154555245002F
:100E500050524F56494445522053657474696E6729
:100E600020636C6F756449643A2000434C4F5544CD
:100E70005F49440050524F564944455220536574CF
:100E800074696E6720726567697374726174696FE3
:100E90006E20746F6B656E3A20005245474953547B
:100EA000524154494F4E5F544F4B454E0050524FA4
:100EB0005649444552002D3E00416C6C20766172CB
:100EC0006961626C652055554944277320617070D3
:100ED00065617220746F20626520636F7272656352
:100EE000746C7920666F726D65642E0A0068617398
:100EF0002061206E6F6E2D756E6971756520555578
:100F00004944210068617320616E20696E76616CCE
:100F10006964205555494421004C6F67676572200C
:100F2000706F7274696F6E206F6620736574757070
:100F30002066696E69736865642E0A0053616D707E
:100F40006C696E67206665617475726520555549D8
:100F5000442069733A006172652063616C63756C4B
:100F6000617465642E0073656E736F727320616EB9
:100F70006400636F6D652066726F6D0076617269E3
:100F800061626C65732C206F662077686963680006
:100F900054686973206C6F6767657220686173209D
:100FA00061207661726961626C652061727261793B
:100FB00020776974680043757272656E74205254AC
:100FC000432074696D652069733A00212121212134
:100FD0002121212121212121212121212121212002
:100FE0002D2D2D2D2D205741524E494E47202D2D70
:100FF0002D2D2D20002121212121212121212120E0
:101000002D2D2D2D2D205741524E494E47202D2D4F
:101010002D2D2D2021212121212121212121002DB2
:101020002D2D2D2D205741524E494E47202D2D2D2F
:101030002D2D202121212121212121212121212189
:1010400021212121212121005468652063757272BC
:10105000656E7420636C6F636B2074696D65737467
:10106000616D70206973206E6F742076616C6964A5
:101070002100212121212121212121212121212181
:10108000212121212121202D2D2D2D2D205741528F
:101090004E494E47202D2D2D2D2D2000212121217F
:1010A000212121212121202D2D2D2D2D205741526F
:1010B0004E494E47202D2D2D2D2D2021212121213E
:1010C0002121212121002D2D2D2D2D205741524E42
:1010D000494E47202D2D2D2D2D202121212121214B
:1010E0002121212121212121212121212121002D05
:1010F0002D2D2D5C2F000A205C2F2D2D2D2D204C09
:10110000696E6520536176656420746F00556E6169
:10111000626C6520746F20777269746520746F202B
:101120005344206361726421002D2D2D2D2D2D2D12
:101130002D2D2D2D2D2D2D2D2D2D2D2D2D2D2D2DDF
:101140002D2D2D2D2D2D2D2D2D2D2D2D2D2D2D2DCF
:101150002D2D2D0A002D2D2D2D2D2D2D2D2D2D2D0F
:101160002D2D2D2D2D2D2D2D2D2D2D2D2D2D2D2DAF
:101170002D2D2D2D2D2D2D2D2D2D2D2D2D2D2D00CC
:101180005F4368616E6E656C0041445331313135A7
:101190005F3078004932435F3078363800616E6CDA
:1011A0006745632050726F6320446174612F5077EC
:1011B00072001F1C1F1E1F1E1F1F1E1F1E1F4461AB
:1011C00074612077696C6C206E6F74206265207387
:1011D000617665642100536C6176652F43686970A0
:1011E0002073656C6563742070696E20666F722071
:1011F0005344206361726420686173206E6F7420B1
:101200006265656E207365742E0044617461207799
:10121000696C6C206E6F7420626520736176656402
:1012200021004572726F723A2053442063617264E8
:10123000206661696C656420746F20696E697469E9
:10124000616C697A65206F72206973206D697373B0
:10125000696E672E0020002069732000207265707F
:101260006F727473200020002069732063616C63C7
:10127000756C6174656420746F20626520002D2D8B
:101280002D2D2D2D2D2D2D2D2D2D2D2D2D2D2D2D8E
:101290002D2D2D2D2D2D2D2D2D2D2D2D2D2D2D2D7E
:1012A0002D2D2D2D2D2D2D2D0045786974696E67FE
:1012B0002074657374696E67206D6F6465002D2DF1
:1012C0002D2D2D2D2D2D2D2D2D2D2D2D2D2D2D2D4E
:1012D0002D2D2D2D2D002D2D2D2D2D2D2D2D2D2D6B
:1012E0002D2D2D2D2D2D2D2D2D2D2D2D2D004375FD
:1012F0007272656E74206C6F676765722074696DB9
:1013000065206973002D2D2D2D2D2D2D2D2D2D2D8D
:101310002D2D2D2D2D2D2D2D2D2D2D2D2D2D2D2DFD
:101320002D2D2D2D2D2D2D2D2D2D2D2D2D2D2D001A
:10133000456E746572696E672073656E736F722097
:1013400074657374696E67206D6F6465002D2D2D53
:101350002D2D2D2D2D2D2D2D2D2D2D2D2D2D2D2DBD
:101360002D2D2D2D2D2D2D2D2D2D2D2D2D2D2D2DAD
:101370002D2D2D2D2D2D2D0050696E004D59000065
:1013800000002200250028002B00000000000403BC
:101390000807000000010200090A00000000000028
:1013A0000000000000000000000049440045450026
:1013B000504B004552524F520D004F4B0D004545CA
:1013C000004442004C4D002556003A3030003A307F
:1013D00030003A3030003A30300027002720736E5A
:1013E0003A2700207265763A2700426F6172643AAC
:1013F00020004D6F64756C617253656E736F72730C
:10140000207665727320002E205377204275696C18
:10141000643A20005377204E616D653A2000202009
:1014200042617474657279547970653A2000205471
:101430007A3A200020204C6F6767696E67496E74A6
:10144000657276616C20286D696E293A20004C6FB8
:10145000636174696F6E3A20004461746520616E47
:10146000642054696D6520696E20555443005265AF
:1014700073756C7420555549443A00526573756C08
:101480007420556E69743A005661726961626C65C8
:10149000204E616D653A0053656E736F72204E6128
:1014A0006D653A0053616D706C696E6720466561C9
:1014B0007475726520555549443A20004461746141
:1014C000204C6F676765722046696C653A2000445E
:1014D000617461204C6F676765723A200043490070
:1014E00073657456617255554944206572726F7206
:1014F000202D206E6577206469646E277420776FD5
:10150000726B20666F720054500027206661696C10
:1015100065642E005862656520270058626565572E
:1015200069666920696E697420746573742050411E
:101530005353454400586265655769666920696E72
:1015400069742074657374204641494C4544202DCC
:1015500020686F706520697420776F726B73206EDE
:101560006578742074696D65004E53005D005862A3
:1015700065655769466920495023205B00586265BC
:101580006557694669206E6F742072656365697678
:10159000656420495023202D686F70652069742090
:1015A000776F726B73206E6578742074696D650057
:1015B0004D59005862656557694669206E6F742001
:1015C00041502052656769737465726564202D20EF
:1015D00061626F7274696E6720617474656D707496
:1015E0002C20686F706520697420776F726B732090
:1015F0006E6578742074696D65004149004C6F6FA9
:10160000703D5365635D207278206462203A2053F8
:1016100074617475732023506F6C6C65642053740F
:101620006174757320657665727920317365632FF7
:10163000333073656300544D00534F00534D0049E0
:101640005000443900443800505200270058626569
:10165000655769466920496E697469616C697A6980
:101660006E6720496E7465726E657420636F6D6D70
:10167000732077697468206D6F64656D2027004C56
:101680004174696D652E6E6973742E676F760045BF
:1016900052524F52004F4400544D00544D004445A7
:1016A00000444C004950004354363400475436340B
:1016B000004552524F520D004F4B0D00415030002B
:1016C0000000200023002600290000010203040579
:1016D00006070001020304050607000102030405D2
:1016E00006070001020304050607040404040404B9
:1016F00004040202020202020202030303030303C0
:10170000030301010101010101010102040810208C
:1017100040800102040810204080010204081020CB
:10172000408001020408102040802D2D2D2D2D20F9
:101730005741524E494E47202D2D2D2D2D20212130
:101740002121212121212121212121212121212189
:101750002121004261642074696D652000212121EE
:101760002121212121212121212121212121212169
:1017700021202D2D2D2D2D205741524E494E4720F1
:101780002D2D2D2D2D200000002100240027002AC2
:101790000000457C038411241FBECFEFD0E4DEBFE0
:1017A000CDBF17E0A0E0B1E0E0ECFEE101E00BBF4F
:1017B00002C007900D92A830B107D9F722E1A8E046
:1017C000B7E001C01D92A33FB207E1F71BE0CAECEE
:1017D000DBE004C02197FE010E94398CC93CD1078F
:1017E000C9F70E94EC740C94538F0C940000DC0138
:1017F000ED91FC910688F789E02D099591E0811122
:1018000001C090E0892F08950F931F93CF93DF932A
:1018100000D000D000D0CDB7DEB78C01DC01ED9157
:10182000FC910084F185E02D0995892BC9F41B8278
:101830001C821D821E82D8011C96ED91FC911D9781
:1018400045855685678570898B819C81AD81BE8178
:10185000481759076A077B0729F0F801858903C0F3
:1018600081E001C080E026960FB6F894DEBF0FBE7F
:10187000CDBFDF91CF911F910F910895DC011C9690
:10188000ED91FC911D9780819181DC01ED91FC919E
:101890000680F781E02D0994DC011C96ED91FC9106
:1018A0001D9780819181DC01ED91FC910484F58587
:1018B000E02D0994CF93DF931F92CDB7DEB76983F4
:1018C000DC01ED91FC910280F381E02D41E050E0DC
:1018D000BE016F5F7F4F09950F90DF91CF91089503
:1018E0000F931F93CF93DF9300D000D000D0CDB7DC
:1018F000DEB7DC01ED91FC91048CF58DE02D2CED33
:1019000032E03A832983DB0112960D911D912D91CE
:101910003C9115970B831C832D833E8320E030E0A0
:10192000BE016F5F7F4F099526960FB6F894DEBF14
:101930000FBECDBFDF91CF911F910F910895DC01B4
:10194000ED91FC91028CF38DE02D2BE430E00994B5
:10195000809178118111FCCF089580917C118F5F67
:10196000843408F080E090917B119817E1F32FB751
:10197000F89490917811992341F0E82FF0E0EE5C13
:10198000FE4E608380937C111DC081E080937811AE
:10199000609377111092761182E086BB80916F0080
:1019A000826080936F00809180008F7B806880933D
:1019B00080008091840090918500409690938900EA
:1019C000809388002FBF81E090E00895FC0184851A
:1019D00083FF0DC084A195A1A6A1B7A1448D558D0B
:1019E000668D778D841B950BA60BB70B03C080E02B
:1019F00090E0DC01811520E89207A105B10520F0F7
:101A00008FEF9FE7A0E0B0E0089580E090E00895B8
:101A1000CF93DF93EC0162E070E080E090E00E9401
:101A20005C74EC85FD8580819181DC01ED91FC91F8
:101A30000284F385E02DDF91CF910994CF93DF935A
:101A4000EC0162E070E080E090E00E945C74EC8564
:101A5000FD8580819181DC01ED91FC910084F1850F
:101A6000E02DDF91CF910994CF92DF92EF92FF9218
:101A70000F931F93CF93DF938C01D62FC72F6A014B
:101A800062E070E080E090E00E945C74D8011C96F7
:101A9000ED91FC911D97E080F1800D2F1C2FC0E08F
:101AA000D0E0CC16DD0651F0C7010E94625E97FDC2
:101AB00005C0F80181938F012196F3CFCE01DF910C
:101AC000CF911F910F91FF90EF90DF90CF900895ED
:101AD000EF92FF920F931F93CF93DF93EC018B0153
:101AE0007A0162E070E080E090E00E945C74A701FF
:101AF000B8018C859D85DF91CF911F910F91FF904B
:101B0000EF900C94F25BCF92DF92EF92FF920F93E3
:101B10001F93CF93DF9300D000D000D0CDB7DEB7B6
:101B20008C016B017A01FC01848595850E94EB3064
:101B3000F80126858CED92E09A838983F6018281F3
:101B40009381A481B5818B839C83AD83BE83A701E0
:101B5000BE016F5F7F4FF801848595850E940B5908
:101B6000F801858B90E026960FB6F894DEBF0FBE85
:101B7000CDBFDF91CF911F910F91FF90EF90DF903C
:101B8000CF9008950C960C94F34C8F929F92AF9245
:101B9000BF92CF92DF92EF92FF920F931F93CF935A
:101BA000DF931F92CDB7DEB78C01FC01848C958C3E
:101BB000A68CB78CC08CD18CE28CF38CBE016F5F8D
:101BC0007F4F0C960E941A4C019719F4898190E07E
:101BD00002C08FEF9FEF8F3FFFEF9F0749F0F801A3
:101BE000848E958EA68EB78EC08ED18EE28EF38EA9
:101BF0000F90DF91CF911F910F91FF90EF90DF90A9
:101C0000CF90BF90AF909F908F900895CF93DF9328
:101C10001F92CDB7DEB7BE016F5F7F4F0C960E945B
:101C20001A4C019719F4898190E002C08FEF9FEF61
:101C30000F90DF91CF9108950C960C944C29CF937F
:101C4000DF93EC0167E876E00E94E16F48EE53E035
:101C500060E070E0CE010E94F4148F3F910589F49A
:101C600064E876E0CE010E94E16F48EE53E060E068
:101C700070E0CE010E94F4148F3F910511F480E0D2
:101C800090E099878887DF91CF910895CF93DF9374
:101C9000EC0161E876E00E94E16F41EB56E168EB10
:101CA00076E1CE010E9419511BA2DF91CF910895D8
:101CB000CF93DF93EC016EE776E00E94E16F41EB9A
:101CC00056E168EB76E1CE010E941951813079F43A
:101CD0006BE776E0CE010E94E16F41EB56E168EBE5
:101CE00076E1CE010E94195191E0813009F090E037
:101CF000892FDF91CF9108958F929F92AF92BF92DB
:101D0000DF92EF92FF920F931F93CF93DF93EC013B
:101D1000D62E1BA1112391F00E9496748CA09DA039
:101D2000AEA0BFA0DC01CB0188199909AA09BB09A3
:101D300080319742A105B10508F454C0CE010E943C
:101D4000EB3084E0F82EE12CDE1409F44AC06E81F9
:101D50007F81665F7F4F072E000C880B990B0E94D6
:101D60005C7467E776E0888199810E944E674E81B6
:101D70005F81440F551F052E000C660B770B01EB9E
:101D800016E128EB36E1CE010E94D750182F8111C1
:101D90001BC0FA94F11018C08A8587FD0DC060E061
:101DA0000E94AC4361E070E080E090E00E945C74CF
:101DB00061E08A850E94AC436AEF70E080E090E0C9
:101DC0000E945C7494E0F92EE394113009F0BCCFCA
:101DD0001BA30E9496746CA37DA38EA39FA311E006
:101DE00001C010E0812FDF91CF911F910F91FF90E3
:101DF000EF90DF90BF90AF909F908F9008958F925B
:101E00009F92AF92BF92FF920F931F93CF93DF9356
:101E1000EC01FBA0FF2021F08BA1882331F008C04A
:101E200065E00E947C0E8111F7CF84E090E0FEC057
:101E300088859985892B19F4CE010E941F0E64E7CD
:101E400076E0CE010E94E16F40E157E260E070E091
:101E5000CE010E94F414288539852130364009F0DE
:101E6000A8C08332910509F4D7C05CF48330910592
:101E70002CF4813091050CF4A6C0B9C0439789F0C9
:101E8000C9C0833491050CF0AFC0803491050CF0CB
:101E9000AEC08432910509F4ACC0879709F4A9C09B
:101EA000B9C065E0CE010E947C0E882309F4B4C05D
:101EB00088859985892B19F4CE010E941F0E88858B
:101EC000998581309640B9F068E676E0CE010E94AF
:101ED000E16F41EB56E168EB76E1CE010E941951CA
:101EE000813021F0CE010E94460E96C0CE010E94A4
:101EF000580E8823B9F365E676E0CE010E94E16FC3
:101F000041EB56E168EB76E1CE010E941951813038
:101F100049F71BA2888599858130964029F460EDA8
:101F200077E080E090E004C064E670E080E090E05C
:101F30000E945C740E9496744B015C010E9496742E
:101F4000DC01CB0188199909AA09BB0980369A4E90
:101F5000A105B10568F461E0CE010E947C0E8111FB
:101F600007C06AEF70E080E090E00E945C74E6CF0A
:101F70008885998581309640A9F061E676E0CE01AA
:101F80000E94E16F41EB56E168EB76E1CE010E94E1
:101F90001951813009F0A6CFCE010E94580E882336
:101FA00009F4A0CFCE010E94460ECE010E94B85780
:101FB00033C085329105E9F04CF48432910554F533
:101FC00082329105A4F4892B49F124C08D32910508
:101FD00044F48B329105F4F48A97E1F460E776E0FB
:101FE0000CC08F32910539F08F3F910599F402E0D2
:101FF00016C003E014C06CE676E0CE010E94E16FEB
:1020000041EB56E168EB76E1CE010E941951CE0119
:102010000E94580E04E003C001E001C000E010E09F
:10202000F11003C0CE010E94460EC801DF91CF918E
:102030001F910F91FF90BF90AF909F908F90089548
:102040001F920F920FB60F9211240BB60F922F937F
:102050003F934F935F936F937F938F939F93AF9330
:10206000BF93CF93EF93FF9329B1C0912812809132
:10207000701290916C12322F309593238223892B0A
:1020800090917300C227C923C82320932812CC2320
:10209000C1F1C0FF05C0E0912912F0912A12099503
:1020A000C1FF05C0E0912B12F0912C120995C2FFDF
:1020B00005C0E0912D12F0912E120995C3FF05C0C5
:1020C000E0912F12F09130120995C4FF05C0E09104
:1020D0003112F09132120995C5FF05C0E09133121B
:1020E000F09134120995C6FF05C0E0913512F091C8
:1020F00036120995C7FF05C0E0913712F0913812EA
:102100000995FF91EF91CF91BF91AF919F918F91E1
:102110007F916F915F914F913F912F910F900BBEE7
:102120000F900FBE0F901F9018951F920F920FB631
:102130000F9211240BB60F922F933F934F935F93FF
:102140006F937F938F939F93AF93BF93CF93EF93AF
:10215000FF9326B1C09139128091711290916D1246
:10216000322F309593238223892B90916D00C227C3
:10217000C923C82320933912CC23C1F1C0FF05C065
:10218000E0913A12F0913B120995C1FF05C0E09130
:102190003C12F0913D120995C2FF05C0E0913E123C
:1021A000F0913F120995C3FF05C0E0914012F091F4
:1021B00041120995C4FF05C0E0914212F09143120B
:1021C0000995C5FF05C0E0914412F09145120995AB
:1021D000C6FF05C0E0914612F09147120995C7FF6E
:1021E00005C0E0914812F09149120995FF91EF91D5
:1021F000CF91BF91AF919F918F917F916F915F919F
:102200004F913F912F910F900BBE0F900FBE0F90EB
:102210001F9018951F920F920FB60F9211240BB6B4
:102220000F922F933F934F935F936F937F938F936F
:102230009F93AF93BF93CF93EF93FF9323B1C0913D
:102240004A128091721290916E12322F3095932320
:102250008223892B90916C00C227C923C823209325
:102260004A12CC23C1F1C0FF05C0E0914B12F0919E
:102270004C120995C1FF05C0E0914D12F0914E122C
:102280000995C2FF05C0E0914F12F09150120995D7
:10229000C3FF05C0E0915112F09152120995C4FF9D
:1022A00005C0E0915312F09154120995C5FF05C085
:1022B000E0915512F09156120995C6FF05C0E091C4
:1022C0005712F09158120995C7FF05C0E0915912B5
:1022D000F0915A120995FF91EF91CF91BF91AF9173
:1022E0009F918F917F916F915F914F913F912F912E
:1022F0000F900BBE0F900FBE0F901F9018951F925E
:102300000F920FB60F9211240BB60F922F933F939B
:102310004F935F936F937F938F939F93AF93BF93ED
:10232000CF93EF93FF9320B1C0915B128091731212
:1023300090916F12322F309593238223892B9091A5
:102340006B00C227C923C82320935B12CC23C1F1A1
:10235000C0FF05C0E0915C12F0915D120995C1FFCC
:1023600005C0E0915E12F0915F120995C2FF05C0B1
:10237000E0916012F09161120995C3FF05C0E091F0
:102380006212F09163120995C4FF05C0E0916412D6
:10239000F09165120995C5FF05C0E0916612F091B4
:1023A00067120995C6FF05C0E0916812F0916912A5
:1023B0000995C7FF05C0E0916A12F0916B1209956B
:1023C000FF91EF91CF91BF91AF919F918F917F91AD
:1023D0006F915F914F913F912F910F900BBE0F9096
:1023E0000FBE0F901F9018951F920F920FB60F926D
:1023F00011240BB60F922F933F934F935F936F93DC
:102400007F938F939F93AF93BF93EF93FF93E0914D
:102410002612F09127120995FF91EF91BF91AF918C
:102420009F918F917F916F915F914F913F912F91EC
:102430000F900BBE0F900FBE0F901F9018951F921C
:102440000F920FB60F9211240BB60F922F933F935A
:102450004F935F936F937F938F939F93AF93BF93AC
:10246000EF93FF93E0912412F09125120995FF91CB
:10247000EF91BF91AF919F918F917F916F915F91FC
:102480004F913F912F910F900BBE0F900FBE0F9069
:102490001F9018951F920F920FB60F9211240BB632
:1024A0000F922F933F934F935F936F937F938F93ED
:1024B0009F93AF93BF93EF93FF93E0912212F0911C
:1024C00023120995FF91EF91BF91AF919F918F9149
:1024D0007F916F915F914F913F912F910F900BBE24
:1024E0000F900FBE0F901F901895BF92CF92DF9262
:1024F000EF92FF920F931F93CF93DF93CDB7DEB789
:102500002C970FB6F894DEBF0FBECDBF6C01FC0157
:10251000848595850E94EB30F601E484F584C7013B
:102520000E94EB30F701178E10A211A212A2B3A0E5
:10253000BB2041F16EE576E0C7010E94E16F28E81B
:1025400033E140E050E0B701CE0107960E94AA14A3
:10255000F7018085918581309640D9F46AE576E06F
:10256000C7010E94E16F01EB16E128EB36E148E874
:1025700053E160E070E0C7010E94D750C7010E949C
:10258000580E07C065E0C7010E947C0E8111D2CFB2
:102590002AC0BE01695F7F4FCE0101960E9413667B
:1025A000AE014F5F5F4F67E576E0C7010E949B5821
:1025B000CE0101960E94A96501EB16E128EB36E1F8
:1025C00048E853E160E070E0C7010E94D750C701BE
:1025D0000E94580EB11003C0C7010E94460ECE01E2
:1025E00007960E94A965F601848595850E94EB30C7
:1025F000F601158A2C960FB6F894DEBF0FBECDBF3C
:10260000DF91CF911F910F91FF90EF90DF90CF90CE
:10261000BF9008952F923F924F925F926F927F9258
:102620008F929F92AF92BF92CF92DF92EF92FF92E2
:102630000F931F93CF93DF93CDB7DEB762970FB69B
:10264000F894DEBF0FBECDBF9E878D876B015A8B7E
:10265000498B3901DC011C968D919C911D970E943C
:10266000EB30ED85FE85F685FF87AD85BE851C9632
:102670000D911C911D97F80133A03320A9F0B601EC
:10268000CE0101967C010E941C66580191E1A90EC1
:10269000B11CB701C5010E941C64982EC7010E949D
:1026A000A965911022C007C065E0C8010E947C0E98
:1026B0008111E5CF09C1B601C7010E941C66EA1469
:1026C000FB0421F0B701C5010E942D64C7010E94DF
:1026D000A965D80159961C9259975A961C925A97F7
:1026E0005B961C925B975C961C921B821C821D82DF
:1026F0001E82F801418D528D638D748D8B819C817A
:10270000AD81BE81481759076A077B0709F0ABC046
:102710006FEE76E0CE0107960E941C6660E170E0E5
:10272000CE0107960E9467640E9496744B015C017B
:1027300028EE33E0D3010E94428C2B013C01D801EA
:1027400093962C9021105DC065E0C8010E947C0E1C
:10275000811157C08CED92E09A8389831B821C8281
:102760001D821E8273C00E949674DC01CB01881901
:102770009909AA09BB0984159505A605B70590F422
:1027800062E070E080E090E00E945C74F80180817B
:102790009181DC01ED91FC910084F185E02D09959A
:1027A00004970CF3F80160817181C7010E942651E2
:1027B000B701CE0107960E942D64C7010E94A9654A
:1027C000CE0107960E948C63CE0107960E94C54BEE
:1027D000811111C06EE476E0C7010E94DB65B7018C
:1027E000CE0107960E941C64888BC7010E94A965D0
:1027F000B889BB23D9F064EC79E080E090E00E94D6
:102800005C740E949674DC01CB0188199909AA09AD
:10281000BB0984159505A605B70508F073C0A60188
:1028200064E576E0C8010E946F6FB0CF211008C048
:10283000DD24D394C8010E94460EDD2009F48ACF1E
:10284000BE01695F7F4FC7010E94ED6ECE01079602
:102850000E94A9658B819C81AD81BE81F801818F29
:10286000928FA38FB48FD80159964D915D916D9140
:102870007C915C971B821C821D821E828B819C81B5
:10288000AD81BE81481759076A077B07B1F08CED0F
:1028900092E09A838983F801818D928DA38DB48D06
:1028A0008B839C83AD83BE832F8549895A89B70169
:1028B000C8010E940B59F82E01C0F12C311003C041
:1028C000C8010E94460E8F2DAD85BE8555968C930E
:1028D00090E062960FB6F894DEBF0FBECDBFDF91D9
:1028E000CF911F910F91FF90EF90DF90CF90BF900D
:1028F000AF909F908F907F906F905F904F903F90A0
:102900002F900895211026CFD12C94CF680F791FD6
:1029100020E030E086179707D9F0FC014191CF0104
:102920002427422F42954227042E4695469540255E
:10293000042E469540254770022E232F4695079476
:102940004795302D24270694479530252427E2CF3C
:10295000C90108958F929F92AF92BF92CF92DF925A
:10296000EF92FF920F931F93CF93DF93EC018B01B4
:1029700069017A0162E070E080E090E00E945C749E
:102980000E9496744B015C01D8018D919C91DC01F1
:10299000ED91FC910084F185E02D0995892B69F476
:1029A0000E949674DC01CB0188199909AA09BB0918
:1029B0008C159D05AE05BF0538F3F8016081718166
:1029C000CE010E942651CE010E948C63CE01DF9180
:1029D000CF911F910F91FF90EF90DF90CF90BF901C
:1029E000AF909F908F900895CF92DF92EF92FF92D9
:1029F0000F931F93CF93DF93CDB7DEB72B970FB60F
:102A0000F894DEBF0FBECDBF9A01AB01BC01CE0171
:102A100001960E94AA14CE0101960E94C54B8823FC
:102A200031F065ED75E0CE0101960E947B658E0167
:102A3000095F1F4F85E0F80111928A95E9F745E09B
:102A400050E0B801CE0101960E94234F40E150E0D2
:102A500060E070E0C8010E9471856B017C01CE01CD
:102A600001960E94A965C6012B960FB6F894DEBFA9
:102A70000FBECDBFDF91CF911F910F91FF90EF90CF
:102A8000DF90CF9008958F929F92AF92BF92CF9296
:102A9000DF92EF92FF920F931F93CF93DF9300D0BB
:102AA00000D000D0CDB7DEB76C017B018A01109257
:102AB000EE121092ED126DEA7EE00E94B587892B2E
:102AC00009F051C06AE97EE0C7010E94B587892BF1
:102AD00071F4B8018AE398E00E94238F64E77EE0F6
:102AE00082E998E00E944E676AE378E03CC56BE6B5
:102AF0007EE0C7010E94B587892B71F4B80184E19B
:102B000098E00E94238F60E57EE082E998E00E94D1
:102B10004E6764E178E027C56FE37EE0C7010E945D
:102B2000B587892B71F4B80180E698E00E94238F65
:102B30006CE17EE082E998E00E944E6760E678E012
:102B400012C564E07EE082E998E00E944E67B7011A
:102B500082E998E00E942C676EEC76E082E998E0CA
:102B60000E942C67FFC46EEF7DE0C6010E94B5870E
:102B7000892B09F0ADC06DEF7DE082E998E00E94FD
:102B80004E676091311182E998E00E94105D65E026
:102B900077E082E998E00E942C67B70182E998E02B
:102BA0000E942C676AEF7DE082E998E00E944E6700
:102BB000B80182E998E00E942C67D12CAD2CB12C91
:102BC000C501880F991F9C012550334F5901D90128
:102BD000ED91FC9161897289CE0101960E941C667B
:102BE000B70189819A810E941A8F4C01CE0101960A
:102BF0000E94A965892869F4F50180819181DC0131
:102C000052961C930E935197B8010E94574F55E06E
:102C1000D52ED394B4E0BD1588F6E5E0DE1619F0A4
:102C200068EE7DE04BC062EE7DE0C7010E94B58793
:102C3000892B09F041C08091311190E00597CCF5C6
:102C400064ED7DE082E998E00E944E67E0913111E9
:102C5000F0E0EE0FFF1FE550F34F0190F081E02D03
:102C600061897289CE0101960E941C66BE016F5F68
:102C70007F4F82E998E00E942E67CE0101960E9464
:102C8000A96562ED7DE082E998E00E947267E091BB
:102C90003111F0E0EE0FFF1FE550F34F808191817D
:102CA000DC0152961C930E935197B8010E94574F26
:102CB00009C06AEB7DE002C065EA7DE082E998E048
:102CC0000E947267809131118F5F809331114FC4E0
:102CD0006EE97DE0C6010E94B587892B09F042C1EB
:102CE00064E97DE0C7010E94B587892BB9F46EE7DE
:102CF0007DE082E998E00E944E67B80182E998E0A1
:102D00000E94C366B8018FE597E00E94238F8FE58C
:102D100097E0909335098093340929C465E67DE0F6
:102D2000C7010E94B587892B09F06AC04AE050E0CC
:102D3000BE016F5F7F4FC8010E949F866B017C01BF
:102D400016161706180619060CF04BC08091ED12E6
:102D50009091EE12829709F444C0B9E6CB16B1E027
:102D6000DB06E104F104ECF060E37DE082E998E049
:102D70000E944E6768E671E082E998E00E945B5D20
:102D800063E17DE082E998E00E944E67C701B601E9
:102D90000E94454F28E6C22EDD24D394E12CF12C6D
:102DA00017C06AEE7CE082E998E00E944E67B701A6
:102DB000A60182E998E00E94295D66ED7CE082E947
:102DC00098E00E944E676FE082E998E00E94175DEC
:102DD000D0923709C0923609D0925C07C0925B0747
:102DE000C6C367EB7CE082E998E00E944E6768E624
:102DF00071E082E998E00E945B5D6AEA7CE06EC265
:102E00006DE97CE0C7010E94B587892B29F54AE06E
:102E100050E0BE016F5F7F4FC8010E949F866B012B
:102E20007C01DC01CB010197A109B1090497A1053F
:102E3000B10578F48091ED129091EE12829749F0ED
:102E4000D092B110C092B010C0925E0767E87CE0EB
:102E500045C26EE57CE042C263E57CE0C7010E94AA
:102E6000B587892B09F54AE050E0BE016F5F7F4FBF
:102E7000C8010E949F866B017C0165307105810548
:102E8000910578F48091ED129091EE12829749F0BD
:102E9000D092B110C092B010C0925E076FE37CE098
:102EA0001DC266E17CE01AC26CE07CE0C7010E94B2
:102EB000B587892B29F54AE050E0BE016F5F7F4F4F
:102EC000C8010E9471856B017C01DC01CB010C966D
:102ED000A11DB11D4997A105B10578F48091ED12AE
:102EE0009091EE12829749F066EF7BE082E998E0DC
:102EF0000E944E67C0925D07F5C163EC7BE0EEC1B6
:102F000063EB7BE0C7010E94B587892BE9F462EA95
:102F10007BE082E998E00E944E67B80182E998E080
:102F20000E94C366F80101900020E9F73197E01B89
:102F3000F10BFC9718F0D801DD961C92B80184E7DC
:102F400097E00E94238F13C366E97BE082E998E053
:102F50000E944E67B70182E998E00E942C6761E900
:102F60007BE0FCC269E87BE0C6010E94B587892B43
:102F700071F46CE77BE082E998E00E944E67B7014C
:102F800082E998E00E942C6767E77BE0E7C26FE682
:102F90007BE0C6010E94B587892B09F0B6C168E6BF
:102FA0007BE0C7010E94B587892B09F068C062E504
:102FB0007BE082E998E00E944E676091E30E709199
:102FC000E40ECE0101960E941C66BE016F5F7F4F2A
:102FD00082E998E00E942E67CE0101960E94A965C1
:102FE000F80101900020E9F731977F01E01AF10A1A
:102FF0008E2D1093E40E0093E30E813250F06E2D6F
:1030000086EE96E00E943752F801EE0DF11D108217
:1030100080E22091E70E3091E80E232B49F490E0F6
:1030200002960E9450849093E80E8093E70E04C0AD
:1030300084EB96E00E9449528091E70E9091E80E51
:10304000009739F460E070E08AE896E00E9423522D
:103050000BC0B8010E94238F8091E70E9091E80E7B
:103060009093E40E8093E30E6AE47BE082E998E0BB
:103070000E944E676091E30E7091E40E6FC062E4AF
:103080007BE0C7010E94B587892B09F077C06BE20E
:103090007BE082E998E00E944E676091E50E7091B6
:1030A000E60ECE0101960E941C66BE016F5F7F4F47
:1030B00082E998E00E942E67CE0101960E94A965E0
:1030C000F80101900020E9F731977F01E01AF10A39
:1030D0008E2D1093E60E0093E50E803450F06E2D89
:1030E00085E797E00E943752F801EE0DF11D10823E
:1030F0008FE32091E90E3091EA0E232B49F490E002
:1031000002960E9450849093EA0E8093E90E04C0C8
:1031100082E497E00E9449528091E90E9091EA0E74
:10312000009739F460E070E087E197E00E94235255
:103130000BC0B8010E94238F8091E90E9091EA0E96
:103140009093E60E8093E50E63E27BE082E998E0DF
:103150000E944E676091E50E7091E60ECE010196D9
:103160000E941C66BE016F5F7F4F82E998E00E945B
:103170002E67CE0101960E94A965D5C160E17BE072
:10318000C7010E94B587892B09F54AE050E0BE01CE
:103190006F5F7F4FC8010E9471856B017C01DC016C
:1031A000CB0184569109A109B1098D3C9447A10531
:1031B000B10548F48091ED129091EE12829719F0CA
:1031C0006FEE7AE08BC060EB7AE088C06DE97AE060
:1031D000C7010E94B587892BD9F44AE050E0BE01AF
:1031E0006F5F7F4FC8010E9471856B017C01693858
:1031F00073418105910548F48091ED129091EE1292
:10320000829719F06DE77AE069C061E47AE066C000
:1032100064E37AE0C7010E94B587892BD9F44AE0BC
:1032200050E0BE016F5F7F4FC8010E9471856B0146
:103230007C01633371058105910548F48091ED129D
:103240009091EE12829719F06AE17AE047C066EE3B
:1032500079E044C065ED79E0C7010E94B587892B0C
:10326000D9F44AE050E0BE016F5F7F4FC8010E9471
:1032700071856B017C016F3171058105910548F401
:103280008091ED129091EE12829719F067EB79E040
:1032900025C06FE779E022C06FE679E0C7010E94A0
:1032A000B587892B21F54AE050E0BE016F5F7F4F63
:1032B000C8010E9471856B017C018FE1C816D104A1
:1032C000E104F10448F48091ED129091EE1282979E
:1032D00019F062E579E002C06BE179E082E998E0FB
:1032E0000E944E67C701B6010E94454F40C16EE083
:1032F00079E082E998E00E944E67B70182E998E0A0
:103300000E942C6769E079E029C164E079E0C60198
:103310000E94B587892B09F0ABC069EF78E0C7013F
:103320000E94B587892BD1F4F80101900020E9F7BC
:103330003197E01BF10B749718F0D80155961C9249
:10334000B8018FE097E00E94238F6DEE78E082E96C
:1033500098E00E944E676FE077E005C164EE78E088
:10336000C7010E94B587892BC9F4F801019000209C
:10337000E9F73197E01BF10B749710F0F801158A0B
:10338000B80184E297E00E94238F62ED78E082E941
:1033900098E00E944E6764E277E0E5C068EC78E070
:1033A000C7010E94B587892BD1F4F8010190002054
:1033B000E9F73197E01BF10B3A9718F0D8011B960B
:1033C0001C92B80189E397E00E94238F6DEB78E0AF
:1033D00082E998E00E944E6769E377E0C4C060EB41
:1033E00078E0C7010E94B587892BA1F56CEA78E0E7
:1033F000C8010E94B587892B51F566E978E082E91A
:1034000098E00E94726767E470E08EE097E00E94A7
:10341000861490930D0780930C079CE0E92E97E0AB
:10342000F92E00E010E0F701D1907F01C8010E9461
:10343000848BD81621F06D2DC8010E948C8B0F5FF4
:103440001F4F0934110579F760E878E05CC06CE53E
:1034500078E060C062E578E082E998E00E944E671B
:10346000B70182E998E00E942C676DE478E076C0AD
:1034700068E478E0C6010E94B587892B09F056C040
:1034800061E478E0C7010E94B587892B09F06FC01D
:103490006BE378E0C8010E94B587892B59F56AE192
:1034A00078E082E998E00E9472676FE271E087E558
:1034B00097E00E948614909356078093550785E500
:1034C000E82E87E0F82E09E410E0D701DD907D01B9
:1034D000C8010E94848BD81621F06D2DC8010E946E
:1034E0008C8B0F5F1F4F0A37B1E01B0771F764E049
:1034F00078E009C06FEF77E0C8010E94B587892B9B
:1035000039F460EE77E082E998E00E9472672FC09C
:103510006CEB77E082E998E00E944E67B80182E99F
:1035200098E00E942C6768ED75E01DC06CEA77E0BA
:1035300082E998E00E944E67B60182E998E00E9415
:103540002C6769EA77E082E998E00E947267B70128
:1035500082E998E00E942C6767EA77E082E998E0C8
:103560000E944E67B80182E998E00E94C36681E03C
:1035700090E026960FB6F894DEBF0FBECDBFDF9168
:10358000CF911F910F91FF90EF90DF90CF90BF9060
:10359000AF909F908F900895DC011E967C936E9360
:1035A0001D97ED91FC910484F585E02D09942F92EF
:1035B0003F924F925F926F927F928F929F92AF92C3
:1035C000BF92CF92DF92EF92FF920F931F93CF9310
:1035D000DF93CDB7DEB7CC54D1090FB6F894DEBF78
:1035E0000FBECDBF8C012DB73EB728963FAF2EAF93
:1035F0002897AC01435E5F4F5BAF4AAFCA010E94A0
:103600005F40D8015A96FC900E94466C4B015C01C9
:103610006801B9E5CB1ABDEFDB0AF601808188238A
:1036200059F03196808181508083811105C0D60187
:103630001C92F801848DF82AD80114968D919C91E2
:1036400015974CE3489F9001499F300D112440E0AD
:1036500050E0C501B4010E94AA8B672B682B692B2F
:1036600081F50E94A7446093D3117093D411809385
:10367000D5119093D611F801838DF82AED55FD4FA1
:1036800020812230D0F0319680818F5F482F082E24
:10369000000C550B30E0421753076CF01082F80114
:1036A000EB55FD4F8081882341F091E0F601908336
:1036B000F801E855FD4F808304C0D8015C968C91D9
:1036C000F82AB1EE9B1ABBE0AB0ABEE5BB0AE1E803
:1036D0008E16E4EA9E06E8E6AE06E9E0BE0608F0CD
:1036E000C9C3FF2009F4B8C381E0809331098AADD2
:1036F0009BAD0E945F4085E591E10E944952C8015F
:103700000E94E343D80117968C9187FD03C061E0C6
:103710000E94AC438AAD9BAD0E945F40F801E584F6
:10372000F6842DB73EB726963FAF2EAF2697D7012A
:1037300012968C91EDB7FEB7E81BF1090FB6F8941D
:10374000FEBF0FBEEDBF2DB73EB72F5F3F4F190134
:10375000B12CD7011296DC90BD1460F4CB2CD12C87
:10376000B601C7010E94773DF101EC0DFD1D80837C
:10377000B394EFCF4D2D50E0EDB7FEB7E41BF50B42
:103780000FB6F894FEBF0FBEEDBF2DB73EB72F5F4B
:103790003F4F38AF2FAB8FA9E82FF8AD9E2F981B66
:1037A0009D1510F41192FACF8DB79EB7841B950B1F
:1037B0000FB6F8949EBF0FBE8DBFADB7BEB71196C2
:1037C000BEABADAB9DA82D969FAE2D979EA82A9619
:1037D0009FAE2A975101EDA9F92D20E030E02D157B
:1037E000E8F4D5018D915D01882399F0D7016D91A1
:1037F0007C91C901880F991F860F971FDC018D915D
:103800009C91DC018D919C91DC0197968C91808339
:1038100001C010822F5F3F4F3196E1CFEDB7FEB769
:10382000E41BF50B0FB6F894FEBF0FBEEDBF2DB72E
:103830003EB72F5F3F4F6901B12CD70112968C9094
:103840001297B81420F58B2D90E0F101E80FF91FC5
:1038500020813601680E791E2223A9F0880F991F56
:10386000ED91FC91E80FF91F0190F081E02D80812E
:103870009181DC01ED91FC910084F185E02D0995A9
:10388000F301808302C0D3011C92B394D6CFE82DFC
:10389000F0E0FCABEBAB2DB73EB72E1B3F0B0FB6EA
:1038A000F8943EBF0FBE2DBF2F5F3F4F23963FAF13
:1038B0002EAF2397F90181E09E2F921B981510F4EB
:1038C0008193FACF4DB75EB78BA99CA9481B590BC2
:1038D0000FB6F8945EBF0FBE4DBFADB7BEB7119621
:1038E0002D012496AFAF249729965FAE2997FD014D
:1038F0008E2F2496BFAD24978B1B881510F4119240
:10390000F7CFEDB7FEB74BA95CA9E41BF50B0FB6DB
:10391000F894FEBF0FBEEDBF8DB79EB701969DAF69
:103920008CAFDC01EDA9FEA98E2F2D969FAC2D97B3
:103930008919881520F0882009F141E015C081918E
:103940008D93F2CF90E0F101E80FF91F50815523DC
:1039500081F0F601E80FF91F5081F601E40FF11D27
:103960006081561731F04F5F8FEF840F8412EACFDA
:1039700005C0F901E80FF91F1082F5CFA601ECADE3
:10398000FDADADA8BEA82B964FAE2B972C965FAE83
:103990002C97712C871409F455C02396AEADBFAD9A
:1039A00023978D912396BFAFAEAF23978823C1F1A4
:1039B0002C96AEADBFAD2C977C92D5018C918083B7
:1039C000DFAECEAE6CAD7DAD2D968FAD2D972A9628
:1039D0009FAD2A9724962FAD249729963FAD29971E
:1039E000612C8614E9F0AEADBFAD9D90BFAFAEAF18
:1039F00099AEDA019C90B9ADB9110BC0761449F0BB
:103A0000D9017C929080DC01BC919B0E9082DB01FD
:103A10001C9263942F5F3F4F01966F5F7F4FE1CF02
:103A200073942C962EAD3FAD2C972F5F3F4F2C9665
:103A30003FAF2EAF2C973FEFA31AB30A31964F5FDB
:103A40005F4FA8CF4DB75EB78BA99CA9481B590BF8
:103A50000FB6F8945EBF0FBE4DBFADB7BEB711969F
:103A60005D018A2FFD019E2F981B981530F020E0F4
:103A700040E05CE36CE176EC03C01192F4CF2F5F81
:103A8000F7018281281718F5822F90E0F101E80FE5
:103A9000F91F3081332399F3880F991FD701ED91D6
:103AA000FC91E80FF91F0190F081E02D0190F08169
:103AB000E02D86A1DF011296B89690E08917F9F201
:103AC0004D935D936D937D9311929F5FF7CFC701E7
:103AD0000E94013E1BAAF70183819BA8981610F44F
:103AE000712C0BC0B12C33C1C72CD12CF101EC0DC2
:103AF000FD1D8081811108C07394D70112968C91AD
:103B00001297781688F3E7CFEDA9FEA9EC0DFD1DFD
:103B10006080EFA9F8ADEC0DFD1D8081861560F782
:103B20004601880C991CED91FC91E80DF91D01905E
:103B3000F081E02D80819181FC01E85BFF4F2081C5
:103B400023FD2BC0DC01ED91FC91028CF38DE02D67
:103B500060E00995882389F0D701ED91FC91E80D8B
:103B6000F91D0190F081E02D80819181DC01ED91C2
:103B7000FC910288F389E02D0995D701ED91FC9124
:103B8000E80DF91D0190F081E02D80819181FC010B
:103B9000E85BFF4F208123FF02C024FF52C224FFB5
:103BA0005AC0DC01ED91FC91048CF58DE02D60E0B4
:103BB0000995882309F44FC0D701ED91FC91E80DD8
:103BC000F91D0190F081E02D80819181FC01E85B7D
:103BD000FF4F208125FD07C0DC01ED91FC91068897
:103BE000F789E02D0995D701ED91FC91E80DF91DBC
:103BF0000190F081E02D80819181DC01ED91FC91BB
:103C0000068CF78DE02D60E00995882321F1D7011E
:103C1000ED91FC91E80DF91D0190F081E02D80817E
:103C20009181DC01ED91FC91008CF18DE02D0995E5
:103C3000EFA9F8ADEC0DFD1D80818F5F8083F2014F
:103C4000EC0DFD1D8081F501E80FF11D87FDFA9552
:103C500080818F5F8083EFA9F8ADEC0DFD1D808121
:103C600068124ACFF70180819181FC01E80DF91DAE
:103C70000190F081E02D80819181DC01ED91FC913A
:103C80000488F589E02D0995F201EC0DFD1DC08039
:103C90008C2D0C2C000C990BF501E80FF91FACAD25
:103CA000BDADA80FB91F20818C91281328C0D12C3D
:103CB000F7018281D81618F58D2D90E0F201E80FFA
:103CC000F91F2081C21219C0F101E80FF91F2081EC
:103CD000222399F0880F991FD701ED91FC91E80FED
:103CE000F91F0190F081E02D80819181DC01ED913F
:103CF000FC910088F189E02D0995D394D9CFBBA917
:103D0000BF5FBBABF9CECB2CD12CF101EC0DFD1D6F
:103D100080818823D9F0CC0CDD1CD701ED91FC917A
:103D2000EC0DFD1D0190F081E02D808191810E94BC
:103D3000A03AF70180819181FC01EC0DFD1D0190FD
:103D4000F081E02D808191810E942D3BB394F70199
:103D50008281B816C0F226962EAD3FAD26970FB6DB
:103D6000F8943EBF0FBE2DBF8AAD9BAD0E945F4051
:103D7000780133E6E31A3DEFF30AC7010E94C54B11
:103D8000882319F0C8010E94614A20E040E0B70191
:103D9000C8010E94A232811115C0C7010E94C54B03
:103DA000882319F0C8010E94614A21E041E0B7016F
:103DB000C8010E94A232811105C08DE091E10E94EC
:103DC00049523EC068014FE8C41A4DEFD40AB6010B
:103DD000C8010E94EB43B701CE0101960E94136611
:103DE0004FEE50E1BE016F5F7F4F86EF90E10E9482
:103DF0007444CE0101960E94A96562E978E0C80189
:103E00000E94EB436AE082E998E00E94DC66B6011A
:103E1000CE0101960E94374064E0CE0101960E94D7
:103E2000553FB601CE0101960E94374061E0CE01B8
:103E300001960E94553FC80183589D4F0E945E2AFB
:103E4000C8010E941F58C8010E94DB4389E291E12A
:103E50000E9449521092310980912F09882309F458
:103E600002C1D801ED91FC910680F781E02DC801D7
:103E70000995F9C086EC90E10E944952C8010E9460
:103E8000E34369E170E080E090E00E945C74C80167
:103E90000E94DB4369E170E080E090E00E945C7486
:103EA0008CE990E10E944952C8010E94E34369E114
:103EB00070E080E090E00E945C74C8010E94DB43E7
:103EC00069E170E080E090E00E945C7482E790E13C
:103ED0000E944952C8010E94E34369E170E080E01A
:103EE00090E00E945C74C8010E94DB4369E170E0CD
:103EF00080E090E00E945C7460E282E998E00E94B9
:103F0000DC66C8010E94E34369E170E080E090E074
:103F10000E945C74C8010E94DB4369E170E080E0AC
:103F200090E00E945C740E94466CAB01BC01CE0123
:103F300001960E9464492AE030E040E050E0BE0172
:103F40006F5F7F4FCE018D960E943166BE01635D2B
:103F50007F4F88E490E10E944E3CCE018D960E94F6
:103F6000A965CE0101960E94A965C8010E94E3439C
:103F700069E170E080E090E00E945C74C8010E94FA
:103F8000DB4369E170E080E090E00E945C7460E2F5
:103F900082E998E00E94DC66C8010E94E34369E17F
:103FA00070E080E090E00E945C74C8010E94DB43F6
:103FB00069E170E080E090E00E945C748FE190E144
:103FC0000E944952C8010E94E34369E170E080E029
:103FD00090E00E945C74C8010E94DB4369E170E0DC
:103FE00080E090E00E945C7485EF9FE00E9449525F
:103FF000C8010E94E34369E170E080E090E00E9424
:104000005C74C8010E94DB4369E170E080E090E0ED
:104010000E945C748BEC9FE00E944952C8010E9490
:10402000E34369E170E080E090E00E945C74C801C5
:104030000E94DB4369E170E080E090E00E945C74E4
:1040400050CBEFA9F8ADEC0DFD1D6082F201EC0D37
:10405000FD1D3081F501E30FF11D37FDFA9530812B
:10406000360D30839CCD60E0C8010E942A45289619
:10407000EEADFFAD28970FB6F894FEBF0FBEEDBFB3
:10408000C45BDF4F0FB6F894DEBF0FBECDBFDF912C
:10409000CF911F910F91FF90EF90DF90CF90BF9045
:1040A000AF909F908F907F906F905F904F903F90D8
:1040B0002F9008958F929F92AF92BF92CF92DF92EE
:1040C000EF92FF920F931F93CF93DF93CDB7DEB79D
:1040D00062970FB6F894DEBF0FBECDBF7C018C0196
:1040E000035E1F4F84E893E0A0E0B0E0F701858F06
:1040F000968FA78FB0A380E790E0A0E0B0E0809318
:10410000D7119093D811A093D911B093DA11C801A7
:104110000E94653AD70117968C9187FD08C061E02F
:104120000E94097460E0F70187810E94AC43D701C7
:1041300016968C9187FD03C061E00E940974F70117
:10414000818587FD03C061E00E940974D7011A963A
:104150008C9187FD09C062E00E9409746CE171E3F3
:10416000F70182850E942B61C8010E945F400E9476
:104170003462C8010E945F4010928A0810928B0836
:1041800010928C0810928D08D70118968C9187FD9B
:1041900003C062E00E9409740E940E4BC8010E9495
:1041A0005F40C8010E945F400E94A744AB01BC0170
:1041B000CE0101960E946449BE016F5F7F4F86EB7E
:1041C0009FE00E944E3CCE0101960E94A965C80165
:1041D0000E945F40F70105851685C8010E94D23D07
:1041E000D80114968C93C8010E942F3EF801838356
:1041F000A12C99249394D80112968C911297A81609
:1042000008F0A6C0CA2CD12CCC0CDD1CED91FC9181
:10421000EC0DFD1D20813181D9015196ED91FC916C
:10422000529780818823E1F1DF010D900020E9F7AA
:10423000CD0185978E179F0709F580858D32F1F4A2
:1042400085858D32D9F482898D32C1F487898D328A
:10425000A9F4AF014C5D5F4F619180E0A82FB0E001
:10426000A652BA4F9C91691303C087E191E001C047
:1042700090E08F5F911159C1873180F3F901678513
:104280007089CE0101960E941C6664E07FE0CE0139
:1042900001960E94553ECE0101960E94A965912C7F
:1042A000A394BA2CD80112968C911297B81608F0E4
:1042B000A2CF9C9111968C91E92FF82FEB0DF11D57
:1042C000EB0DF11D0190F081E02D61897289CE0125
:1042D00001960E941C66D801ED91FC91EC0DFD1D2C
:1042E0000190F081E02D61897289CE0107960E94CC
:1042F0001C66BE016F5F7F4FCE0107960E941C6453
:10430000882ECE0107960E94A965CE0101960E94D3
:10431000A9658820D9F0D801ED91FC91EC0DFD1D27
:104320000190F081E02D67857089CE0101960E9491
:104330001C666DEE7EE0CE0101960E94553ECE01D8
:1043400001960E94A965F801B280912CB394AACF7E
:10435000992021F089EB9EE00E944952B12CD801AE
:1043600012968C911297B81608F048C0CB2CD12C1D
:10437000CC0CDD1CED91FC91EC0DFD1D0190F0814C
:10438000E02D67857089CE0107960E941C66F801B2
:1043900080819181FC01EC0DFD1D0190F081E02DEB
:1043A00061897289CE010D960E941C66BE01635F11
:1043B0007F4F82E998E00E942E6760E282E998E0F0
:1043C0000E94D566BE01695F7F4FCE0101960E94B3
:1043D0001366BE016F5F7F4F86EB9EE00E944E3CEE
:1043E000CE0101960E94A965CE010D960E94A96595
:1043F000CE0107960E94A965B394B1CF60E282E92D
:1044000098E00E94DC66D7011D960D911C911E97C5
:10441000C8010E94853AC82EC8010E942F3EB82EBE
:10442000F70185859685DC011296DC900E94853A1D
:104430000D2D10E0081B110960E97FE082E998E08A
:104440000E944E6760E282E998E00E94D5666D2D79
:1044500082E998E00E94105D60E282E998E00E94A3
:10446000D5666CE77FE082E998E00E944E6760E2E3
:1044700082E998E00E94D566B80182E998E00E943E
:104480005B5D60E282E998E00E94D56662E77FE0CA
:1044900082E998E00E944E6760E282E998E00E941B
:1044A000D5666B2D82E998E00E94105D60E282E99A
:1044B00098E00E94D56666E67FE082E998E00E9477
:1044C0004E6760E282E998E00E94D5666C2D82E931
:1044D00098E00E94105D60E282E998E00E94D56653
:1044E00086E59FE00E944952F70163857485611556
:1044F000710521F08CE39FE00E94235289E19FE047
:104500000E94495262960FB6F894DEBF0FBECDBF2F
:10451000DF91CF911F910F91FF90EF90DF90CF909F
:10452000BF90AF909F908F900895E417F50709F022
:1045300093CEB6CE50917C1140917B11842F90E0A8
:10454000252F30E0541710F08C5B9F4F821B930B8C
:10455000089550917A1140917911852F90E0242F80
:1045600030E0541710F4805B9F4F821B930B08952B
:1045700080917A11E09179118E1751F0EF5FE0355B
:1045800008F0E0E0F0E0EE57FE4E808190E0089504
:104590008FEF9FEF089580917A119091791189178B
:1045A00069F09F5F903508F090E0E92FF0E0EE575A
:1045B000FE4E80819093791190E008958FEF9FEFE8
:1045C0000895BF92CF92DF92EF92FF920F931F93C5
:1045D000CF93DF93EC018C01085B1F4FF8018081C2
:1045E00086FF76C07496B08061E070E080E090E075
:1045F0000E945C748B2D0E9445746C01990FEE082B
:10460000FF0860E08B2D0E94AC43C114D104E1048B
:10461000F10421F4C12CD12C7601C394C701B60159
:104620000E94658A9B01AC0160E070E080E894E440
:104630000E94BF8C20E030E040E85FE30E94528C93
:104640009B01AC01FE01ED59FF4F608171818281B8
:1046500093810E94BF8CFE01E559FF4F208131817B
:10466000428153810E94C68A9B01AC0160E074E2E2
:1046700084E799E40E94BF8C6B017C01FE01E35A40
:10468000FF4F0190F081E02D309749F120E030E0BC
:1046900048EC51E460817181828193810E94528C47
:1046A000FE01E959FF4F20813181428153810E94EF
:1046B000C68A20E030E040E85FE30E94538C9B0113
:1046C000AC01C701B6010E94BF8C6B017C0107C021
:1046D000C12C8CE3D82E8CE1E82E86ECF82EA701B5
:1046E000960160E0CE010E94D03ACC5BDF4F188289
:1046F00019821A821B82F80180818F79808381E080
:10470000DF91CF911F910F91FF90EF90DF90CF90AD
:10471000BF9008950C94E8840C94E8840C94E88489
:10472000AF92BF92CF92DF92EF92FF920F931F93BF
:10473000CF93DF9300D0CDB7DEB78C015C018FEB58
:10474000A80EB11CF501E080F18062EF75E0C701B1
:104750000E941A8F892B39F067EF75E0C7010E941C
:104760001A8F892BA9F4F801EF53FF4F80810E9423
:104770004574BC01990F880B990B0E94678A2DE341
:1047800032E64BE95BE30E94C68A6B017C0107C0FD
:10479000C12C8CE3D82E8CE1E82E86ECF82EF501A6
:1047A000A080B1806CEF75E0C5010E941A8F892B43
:1047B00039F060E874E0C5010E941A8F892BA1F4DA
:1047C000F801EF53FF4F80810E944574BC01990F9F
:1047D000880B990B0E94678A2FE037E648E75CE375
:1047E0000E94C68A6B017C01A701960160E0C801A6
:1047F0000E94D03A8091EF129091F012009711F43C
:1048000083EF92E1BE016F5F7F4F681B790B072E2C
:10481000000C880B990B0E94678A9B01AC0161E038
:10482000C8010E94D03AF801EE53FF4F60817181B8
:104830006F5F7F4F71836083072E000C880B990B8D
:104840000E94678A9B01AC0162E0C8010E94D03AD5
:10485000F801EC5BFF4F10821182128213823496B2
:1048600080818F79808381E00F900F90DF91CF91CD
:104870001F910F91FF90EF90DF90CF90BF90AF907E
:104880000895CF92DF92EF92FF921F93CF93DF9321
:10489000EC0181E10E941161182F82E10E941161F7
:1048A000682F70E086E0759567958A95E1F7072E89
:1048B000000C880B990B17FF19C00E94678A20E033
:1048C00030E040E85EE30E94C68A6B017C01612F04
:1048D000619570E080E090E00E94678A9B01AC01E6
:1048E000C701B6010E94538C905816C00E94678A77
:1048F00020E030E040E85EE30E94C68A6B017C0164
:10490000612F70E080E090E00E94678A9B01AC011B
:10491000C701B6010E94538C9B01AC0160E0CE013F
:104920000E94D03AFE01EC5BFF4F1082118212828E
:104930001382C85BDF4F88818F79888381E0DF91A4
:10494000CF911F91FF90EF90DF90CF900895CF937C
:104950000E94C337C82F882369F08EE00E9411613E
:10496000682F60628EE00E94AA608EE00E94116152
:1049700085FDFBCF8C2FCF910895CF93DF93EC0172
:104980000E940E4BCE01DF91CF910C94E139CF9272
:10499000DF92EF92FF920F931F93CF93DF93EC017F
:1049A0008C01085B1F4FF801808186FF78C07696E6
:1049B000D0800E943462FE01E75AFF4FE081E4306C
:1049C00008F03DC0F0E0EE0FFF1FEA59FC4FE08019
:1049D000F180F3E8EF2AFF2A81E08093BE12D092A3
:1049E000E0121092BF121092E11261E086E898E0A6
:1049F0000E94263F6F2D86E898E00E94263F6E2D8C
:104A000086E898E00E94263F0E944E6060E070E0D9
:104A1000CB010E945C7480E190E00197F1F760E0C7
:104A200070E0CB010E945C7461E08D2D0E942342F6
:104A300097FFF5CF60E08D2D0E94234202C080E0F9
:104A400090E0BC01990F880B990B0E94678A2FE6B2
:104A500032E143E059E30E94C68A6B017C0126E6FD
:104A600036E646E650E40E94608A87FF18C02AE9CD
:104A700039E949E95EEBC701B6010E94678D181656
:104A800074F4FE01E65AFF4F208131814281538147
:104A9000C701B6010E94C68A9B01AC0106C020E096
:104AA0003CE34CE156EC69017A0160E0CE010E94E2
:104AB000D03ACC5BDF4F188219821A821B82F80130
:104AC00080818F79808326E636E646E650E4C7018A
:104AD000B6010E94608A87FF0BC0C1E02AE939E96C
:104AE00049E95EEBC701B6010E94678D18160CF00C
:104AF000C0E08C2FDF91CF911F910F91FF90EF902D
:104B0000DF90CF900895EF92FF920F931F93CF9372
:104B1000DF938C01EB01FC01608170E06053784F02
:104B2000CE010E946B586DE2CE010E94EC64F80148
:104B3000E180F12CFAE0EF16F10420F460E3CE01FD
:104B40000E94EC64B701CE010E946B586DE2CE0169
:104B50000E94EC64F801E280F12CFAE0EF16F10417
:104B600020F460E3CE010E94EC64B701CE010E9404
:104B70006B5860E2CE010E94EC64F801E380F12CF6
:104B8000FAE0EF16F10420F460E3CE010E94EC6439
:104B9000B701CE010E946B586AE3CE010E94EC641B
:104BA000F801E480F12CFAE0EF16F10420F460E360
:104BB000CE010E94EC64B701CE010E946B586AE3FB
:104BC000CE010E94EC64F801058110E00A30110565
:104BD00020F460E3CE010E94EC64B801CE01DF91C5
:104BE000CF911F910F91FF90EF900C946B588F9283
:104BF0009F92AF92BF92CF92DF92EF92FF920F936C
:104C00001F93CF93DF93EC016A017B014CE3842E69
:104C1000912CA12CB12CC701B601A50194010E94D1
:104C20001A8C6D83CA01B901A50194010E941A8CE6
:104C30006C83C701B60120E13EE040E050E00E94F5
:104C40001A8CCA01B90128E130E040E050E00E942E
:104C50001A8C6B83C701B60120E831E541E050E0D2
:104C60000E941A8C18828881682F637041E050E09E
:104C700011F040E050E0FA01E459FE4FE217F3076B
:104C800044F443595E4F241B350BE1E0E80FE88301
:104C9000EACF91E099839981092F10E0F801EF5450
:104CA000FE4EE491611103C0923009F4EF5FF0E031
:104CB0002E173F0724F02E1B3F0B9F5FEBCF2F5F7C
:104CC0002A83E82FF0E0E053F84F41E050E09330C2
:104CD00010F040E050E0E41BF50B7F01F594E79401
:104CE000F594E794EE0EFF1ECF016CE97FEF0E9472
:104CF000068CE60EF71ECF0160E971E00E94068C7B
:104D0000C701860F971F000F111FF801E459FC4FD0
:104D100040815181840F951F820F911D67E070E0E3
:104D20000E94068C8F5F8E83DF91CF911F910F9130
:104D3000FF90EF90DF90CF90BF90AF909F908F90BB
:104D40000895803D27E0920710F0805D974050E085
:104D5000E2EBF1E121E0261730F43491430F511DCD
:104D60002F5F3196F8CF633038F09C0123703327E2
:104D7000232B11F44F5F5F4FBC016D5F7F4F769522
:104D8000679576956795EDE6F1E08E9F90018F9F90
:104D9000300D9E9F300D1124C9010197860F971F7A
:104DA000840F951F08951F920F920FB60F92112432
:104DB0000BB60F922F938F939F93EF93FF93809156
:104DC0006F008B7F80936F00809181008F7B809339
:104DD00081008091811120918011205890917F1144
:104DE000893020F49695922B8F5FFACF90937F11A4
:104DF00080917A118F5F803508F080E020917911E1
:104E0000821739F0E82FF0E0EE57FE4E9083809342
:104E10007A1110928111809181008F7B80938100A3
:104E200010928011FF91EF919F918F912F910F9090
:104E30000BBE0F900FBE0F901F9018951F920F92F0
:104E40000FB60F9211240BB60F922F933F934F93EF
:104E50008F939F93EF93FF9320918600309187006B
:104E60004091801180918100442331F08F7B8093A9
:104E700081001092801106C080648093810080E8D8
:104E80008093801190918111911115C041113FC003
:104E900030938B0020938A0084E086BB80916F0062
:104EA000846080936F0030937E1120937D1181E0A8
:104EB000809381112CC02091801180917F11869563
:104EC000822B9F5F9930D8F380937F1180916F0080
:104ED0008B7F80936F0080917A118F5F803508F00F
:104EE00080E090917911891749F0E82FF0E09091D6
:104EF0007F11EE57FE4E908380937A11809181004E
:104F00008F7B809381001092801110928111FF910C
:104F1000EF919F918F914F913F912F910F900BBEE9
:104F20000F900FBE0F901F9018951F920F920FB603
:104F30000F9211240BB60F922F933F934F935F93D1
:104F40008F939F93EF93FF93809178112091771126
:104F50004091880050918900909176118A30E8F450
:104F6000893019F0322F317001C031E026958F5F02
:104F70003917A1F390918000332311F0906C02C097
:104F80009F7B9068909380005093890040938800A5
:104F9000309376112093771142C090917C11E0916B
:104FA0007B119E1317C08A3041F48BE080937811F7
:104FB000509389004093880034C0109278118091FA
:104FC00080008F738093800080916F008D7F80932D
:104FD0006F0027C0EF5FE43408F0E0E0E0937B115E
:104FE000F0E0EE5CFE4E9081909377111092761176
:104FF000909180009F7B9068909380008A3029F484
:10500000509389004093880009C08091840090915A
:1050100085004096909389008093880081E080937A
:105020007811FF91EF919F918F915F914F913F91F7
:105030002F910F900BBE0F900FBE0F901F901895E1
:10504000089508950895CF93DF93EC016FE674E01F
:105050000E941C66CE01DF91CF910895EF92FF92DE
:105060000F931F93CF93DF93CDB7DEB768970FB63B
:10507000F894DEBF0FBECDBF7C018B016DE971E1FD
:10508000CE0143960E94DB65F801E55AFF4F60812F
:10509000062E000C770BCE010D960E943F58F801AA
:1050A000E45AFF4F6081062E000C770BCE0101966B
:1050B0000E943F58BE016F5F7F4FCE0107960E944E
:1050C000136661E076E0CE0107960E942E65BE0170
:1050D000635F7F4F0E944765BC01CE0143960E94EB
:1050E0003858CE0107960E94A965CE0101960E940C
:1050F000A965CE010D960E94A9656FE674E0C7010F
:105100000E941C66CE0143960E94A965C70168965D
:105110000FB6F894DEBF0FBECDBFDF91CF911F91C8
:105120000F91FF90EF900895CF93DF93EC0164E926
:1051300071E10E94DB65CE01DF91CF910895EF927E
:10514000FF920F931F93CF93DF9300D000D000D036
:10515000CDB7DEB78C017B0169E871E10E94DB65A8
:10516000F701E25AFF4F40E16081CE0101960E94B3
:10517000AE65BE016F5F7F4FC8010E943858CE01F7
:1051800001960E94A96560E871E1C8010E948E64E1
:10519000F701E75AFF4F4AE06081CE0101960E9475
:1051A000AE65BE016F5F7F4FC8010E943858CE01C7
:1051B00001960E94A965C80126960FB6F894DEBF35
:1051C0000FBECDBFDF91CF911F910F91FF90EF9058
:1051D0000895FC018081811114C080E2DF01982FC5
:1051E0001D929A95E9F777836683DB0115969C916A
:1051F000903119F0903229F480E4808381E0828339
:10520000089580E00895FF920F931F93CF93DF934B
:105210001F92CDB7DEB78C01FC0180899189A289EC
:10522000B3899C01AD0175E0569547953795279553
:105230007A95D1F7F22FFF70FF2E11F0611114C093
:10524000BE016F5F7F4FC8010E941A4C813019F078
:1052500080E090E01AC0F80180899189A289B38921
:105260004F96A11DB11D04C08096A11DB11DF8016E
:10527000808B918BA28BB38BF80186819781879667
:10528000F0E2FF9E800D911D11240F90DF91CF91D0
:105290001F910F91FF900895CF93DF93FC01208120
:1052A000211102C081E043C0EC01828182FF37C03E
:1052B00044895589668977898681978121E080961E
:1052C0000E94E169009729F489818160898380E0E7
:1052D0002EC0EC81FD81EF70FF2725E0EE0FFF1F50
:1052E0002A95E1F7E80FF91F309771F38081853E29
:1052F00059F3888183FF08C0888D998DAA8DBB8D55
:10530000848F958FA68FB78F8C8D9D8DAE8DBF8D21
:10531000938F828FB58BA48B8A818B7F8A838E81BA
:105320009F8180960E949E69882371F2BBCFDF9196
:10533000CF9108954F925F926F927F928F929F923A
:10534000AF92BF92CF92DF92EF92FF920F931F9393
:10535000CF93DF93EC014A015B014C845D846E8442
:105360007F84A881AA2309F491C0488959896A8950
:105370007B89481559056A057B0509F48DC08114A0
:105380009104A104B10429F41C861D861E861F8683
:1053900078C0A3FF0BC0088D198D2A8D3B8D081591
:1053A00019052A053B0508F471C014C0A5FF12C0F9
:1053B000EE81FF818681978125E0880F991F2A95CC
:1053C000E1F7A0E0B0E088159905AA05BB0508F44F
:1053D0005DC057C0EE81FF81848190E009968A010B
:1053E0009B010150110921093109082E04C036958D
:1053F0002795179507950A94D2F775016401B1E0D6
:10540000CB1AD108E108F10804C0F694E794D794C8
:10541000C7948A95D2F7C016D106E206F30620F0AB
:10542000452B462B472B99F4A6FF05C0848D958DFF
:10543000A68DB78D04C08C8D9D8DAE8DBF8D8C8754
:105440009D87AE87BF878E01045F1F4F15C0C01AAE
:10545000D10AE20AF30AF7CF4C855D856E857F8518
:1054600098018E819F810E94956B91E0C91AD108A5
:10547000E108F108181654F4C114D104E104F10450
:1054800059F7888A998AAA8ABB8A06C04C865D86A3
:105490006E867F8680E001C081E0DF91CF911F9111
:1054A0000F91FF90EF90DF90CF90BF90AF909F90C3
:1054B0008F907F906F905F904F900895CF93DF9380
:1054C000EC010E944C291882DF91CF9108953F9200
:1054D0004F925F926F927F928F929F92AF92BF9204
:1054E000CF92DF92EF92FF920F931F93CF93DF93B0
:1054F00000D000D0CDB7DEB74C01FC0182818460C2
:1055000082834484558466847784A680B780F501BD
:10551000C084D184E284F384C414D504E604F7047F
:10552000C0F47301620110E0FFEFCF1ADF0AEF0A47
:10553000FF0AF501808D918DA28DB38D8C159D058F
:10554000AE05BF0540F4111132C0C084D184E2849D
:10555000F38411E0E9CF4C145D046E047F0439F14B
:105560009E012F5F3F4FB701A601C5010E94956BB9
:1055700087FD1DC08823C1F289819A81AB81BC81DE
:10558000892B8A2B8B2B81F6112329F0F501C086FC
:10559000D186E286F3860FEF1FEF2FEF3FE0B701D2
:1055A000A601C5010E94246B382E811102C0312C46
:1055B00015C0411451046104710431F4F401C4862E
:1055C000D586E686F7860AC097018601B301A20157
:1055D000C5010E94246B8111F1CFE9CF832D0F907B
:1055E0000F900F900F90DF91CF911F910F91FF902F
:1055F000EF90DF90CF90BF90AF909F908F907F9073
:105600006F905F904F903F9008952F923F924F92EE
:105610005F926F927F928F929F92AF92BF92CF9242
:10562000DF92EF92FF920F931F93CF93DF93CDB74B
:10563000DEB72D970FB6F894DEBF0FBECDBFFC01CD
:105640008B017A016115710509F4D7C3DB018C91D7
:10565000807709F4D2C380818111CFC3DA0111961A
:105660000D90BC91A02DBF83AE83DA018C91837025
:1056700009F466C28E819F810C966DE070E00E94F5
:10568000F28BBB24B394B60E2D8347011F0140E07B
:1056900050E0BA01C8010E949A291A861986188614
:1056A000A12CC12CD12C1B86F7013696FD87EC87E7
:1056B000D80150964D905D906D907C90539735E059
:1056C00076946794579447943A95D1F7720161E0C4
:1056D000C8010E940329009731F4F80181818823D1
:1056E00009F4A2C08AC3DC012C91253E11F02111DE
:1056F0000AC0C11002C05A864986CB1408F4C3946C
:10570000211105C091C0CB1408F41DC203C0253E71
:1057100009F43FC02E32E9F1FC0133853F3009F036
:1057200057C0D11008C026FFC3CF2F71D22EF585E8
:10573000F887A22E07C0AA942A112BC02585B88508
:10574000B21327C04A2D50E041505109EDE0E49FCB
:105750009001E59F300D11244E815F81241735079C
:10576000C0F4FC01F12C54E05F1518F081819281A6
:1057700008C06AE06F1518F08481958102C08681A7
:105780009781AE81BF81A217B30729F4892B09F451
:105790008FCFD12C8DCF8F3F910509F0D0F74FEBF4
:1057A000480F4A3108F4805EA9014F5F5F4FD40172
:1057B00013966D917C911497260F371FD9019C91F8
:1057C0002FEB290F2A3108F4905E9813E2CFBDC168
:1057D00033FDDFCFDD20A1F0B1E0AB120EC3FC0141
:1057E0009C01255F3F4F90E090FB979597F9819141
:1057F000980F2E173F07C1F7E885E913FEC210C0C6
:105800004BE050E06C857D850E94E08E892B09F08D
:105810004FCFD4018C9180FF03C0F1E0FB8748CFCC
:10582000BD81B6FFA2C0E9C2ED81E4FFE6C28E2FC2
:1058300083708150823008F0E0C28FC1B3E0BA15A6
:1058400010F4A3E0AA2E94E09A0D822F8F70E92F16
:10585000F0E08A3008F068C2805DE80DF91D8683AB
:10586000F4E036952795FA95E1F79150A91668F37B
:10587000F401EA0DF11D768240E050E0BA01C80162
:105880000E949A2961E0C8010E940329009709F04B
:1058900010C2F80181818111B0C2E985FA85AF019A
:1058A00060E070E0E5E0440F551F661F771FEA9542
:1058B000D1F7C8010E949A29882309F49EC2DD24E9
:1058C000DA94DB0CCD2C3FE0B32E7401F1E1EF0E46
:1058D000F11C4DE0A42EC11029C2F80180899189E4
:1058E000A289B38925E0B695A795979587952A95BE
:1058F000D1F77C0160E0C8010E940329009709F4F8
:105900007CC220E2DC011D922A95E9F7F40136966B
:105910002BE0DC0101900D922A95E1F7F401208142
:105920002871DC011C962C931C9721E238E25196D9
:105930003C932E93509740E058E01F965C934E9313
:105940001E9753963C932E93529759963C932E93C1
:10595000589757965C934E935697D8011696ED91AB
:10596000FC91179780A1816080A380E2F1011192E0
:105970008A95E9F7D8011696AD90BC901797F1017A
:10598000B782A682F582E4825C968D919D910D90FE
:10599000BC91A02D80879187A287B387F701EF7014
:1059A000FF27D501979695E0EE0FFF1F9A95E1F737
:1059B0009D012E0F3F1FD9011B968C9183FDBDC009
:1059C000C5018E0F9F1FDC01D2968C918771D1018A
:1059D0008C93D9011B969C91987119F48860D10120
:1059E0008C93D1011396DC928D818370813059F0B4
:1059F00028F0823009F0A1C083E006C0BD81B5FD6A
:105A00009CC081E001C082E0D10112968C93D1014B
:105A100012968C91129781FF04C09C91917109F0AC
:105A20008CC09D819878892BD10112968C93D501D9
:105A300093964D915D916D917C919697D10154967D
:105A40004D935D936D937C935797EA0DFB1DC3AC0B
:105A5000D4ACE12CF12CB601552744279F012F5BD4
:105A60003F4FD901CD90DC90E12CF12CC42AD52AEE
:105A7000E62AF72ABD81B5FF3FC0C114D104E10475
:105A8000F10409F4BCC119821A821B821C829E0196
:105A90002F5F3F4FB701A601C5010E94956B982E5D
:105AA00087FD4BC000E010E09801B701A601C501D9
:105AB0000E94246B882309F440C0F501408551857C
:105AC000628573854C155D056E057F0560F0F1E01C
:105AD000CF1AD108E108F108D5011896CD92DD92D0
